:100000000C94E5020C941D030C941D030C941D0329
:100010000C941D030C941D030C941D030C941D03E0
:100020000C941D030C941D030C943A250C940E267D
:100030000C940B200C941D030C941D030C941D03B5
:100040000C941D030C941D030C941D030C941D03B0
:100050000C941D030C9492200C941D030C941D030E
:100060000C941D030C941D030C941D030C941D0390
:100070000C941D030C941D030C941D030C941D0380
:100080000C941D030C941D030C941D030C941D0370
:100090000C941D030C941D030C941D030C941D0360
:1000A0000C941D030C941D030C941D030103E1002B
:1000B0000102E1000102E101011F0103E101043637
:1000C000307C0102E101011F0103E1010436307CB3
:1000D00001015000010134010436307C010134017A
:1000E0000436307C010150000102E10101360103B8
:1000F000E1010436307C0102E10101370103E10135
:100100000436307C0101500001012F010436307C9F
:10011000010130010436307C010150000102E1018F
:1001200001260103E1010436307C0102E1010127CF
:100130000103E1010436307C010150000102E101BC
:10014000014F0103E1010436307C0102E001011B93
:100150000103E0010436307C01014F010436307C9C
:100160000102E00101190103E00001014C0001015D
:100170004A010436307C0102E101014D0103E10135
:100180000436307C0102E00101060103E0000101B8
:100190004D010436307C010128010436307C010217
:1001A000E00101190103E00001014D010436307C3A
:1001B000010128000102E101014D0103E1010436C2
:1001C000307C01014C000102E101014A0103E1011F
:1001D0000436307C01014C0001014A010436307CB8
:1001E0000102E101014D0103E1010436307C01010E
:1001F0004C0001014D0001014A000103E1002B0404
:100200001E001F00200021002200230024002500E2
:10021000260027002D002E002B062B0114001A00AB
:10022000080015001700260227021C0018000C0009
:10023000120013000007290004001600070009003F
:100240000A002F0030000B000D000E000F003300DD
:10025000E300E1001D001B00060019000500360246
:10026000370211001000360037003800E100E000CE
:1002700064003500E20001582C0000002A00000054
:10028000025834001F0232004C0001003A003B00CB
:100290003C003D003E003F00400041004200430062
:1002A000440045000100AC0003004F010F011C0198
:1002B00001000A00AE5D06011D01000005001901E4
:1002C000AB001050010008004C0101004D010B0073
:1002D00001005000510052004F00AE00010001002B
:1002E0000100090004000F0050010C000100010092
:1002F00001000100010009010100010001000100ED
:10030000010001002B0000002800000001000D008A
:100310000E00010001000100680069006A006B0026
:100320006C006D006E006F007000A800AA00A900AC
:10033000010050095F006000610001000100160A21
:100340004600010001000100010053004F09105058
:100350005C005D005E0062000100FA00F900EF0041
:10036000EE00ED00F000AE000100010059005A005F
:100370005B0001000100FB00FC0001000100010026
:1003800001000100010001000100FD00FE00FF006E
:10039000F1000000F2000000010001000100010076
:1003A000005C00000000000000002A2B2800000074
:1003B0000000000000000000000000000029000014
:1003C00000002C1E3420212224342627252E362DF1
:1003D0003738271E1F202122232425263333362E8B
:1003E00037381F0405060708090A0B0C0D0E0F10FD
:1003F0001112131415161718191A1B1C1D2F313042
:10040000232D350405060708090A0B0C0D0E0F10E5
:100410001112131415161718191A1B1C1D2F313021
:10042000354C00000000000000000000000000004B
:1004300000000000000000000000000000000000BC
:100440000000000000007E0F00D4FFFFFFC7000087
:100450000078140342006F006100720064007700AE
:1004600061006C006B0000001803730068006500F9
:100470006E0073006D006F00620069006C00650023
:1004800000000403090409023B00020100A0FA096C
:1004900004000001030101000921110100012240B3
:1004A00000070581030800010904010001030000A1
:1004B0000009211101000122B60007058203200076
:1004C000011201000200000008CDCD3753010001E8
:1004D00002000105010902A10185020901A100052F
:1004E00009190129081500250195087501810205E2
:1004F00001093009311581257F95027508810609AA
:10050000381581257F950175088106050C0A38028A
:100510001581257F950175088106C0C005010980F8
:10052000A101850319012AB700150126B70095011D
:1005300075108100C0050C0901A101850419012A6B
:10054000A002150126A002950175108100C00501C9
:100550000906A1018506050719E029E7150025010F
:100560009508750181020507190029EF150025017D
:1005700095F0750181020508190129059505750198
:100580009102950175039101C005010906A10105BC
:100590000719E029E71500250195087501810295E5
:1005A00001750881010507190029FF150026FF00C4
:1005B000950675088100050819012905950575013D
:1005C0009102950175039101C00011241FBECFEF68
:1005D000DAE0DEBFCDBF04B603FE18C08091E902A9
:1005E0009091EA02A091EB02B091EC028730904B1F
:1005F000A740B04B59F41092E9021092EA0210920F
:10060000EB021092EC02E0E0F8E3099511E0A0E0C3
:10061000B1E0E6E4F1E502C005900D92AC38B10717
:10062000D9F722E0ACE8B1E001C01D92A93EB207C3
:10063000E1F70E941D150C948B280C940000CF93B9
:10064000C82F10928F018AEF91E00E9418068091C6
:100650008E01811103C08C2F0E941A0BCF91089537
:10066000CF93FB018830910509F479C008F58330F8
:10067000910509F454C068F4C2818130910509F4F0
:1006800042C0D0F188ED91E0CC2381F00E941806A1
:1006900037C08530910509F44EC008F446C0863055
:1006A000910509F44EC0079709F452C0C1E028C073
:1006B0008C30910509F465C060F4C2818A309105DF
:1006C00009F458C008F451C088E091E0CC23C1F08F
:1006D00055C08E30910509F462C008F459C08F30BE
:1006E000910509F463C0813E910501F7C281CC23D5
:1006F000E9F210928F0104C086EF91E0C11107C0AA
:100700008C2FCF910895CC23D9F382EF91E00E94F2
:10071000180681E090E00E941F03C0E0F1CFC28183
:1007200086EC91E0CC2361F3F2CFC28184EB91E0BF
:10073000CC2331F3ECCFC28188EA91E0CC2301F3E2
:10074000E6CFC281CC2309F4B1CF8EE891E09ECFF1
:10075000C2818EE691E0CC2309F4A8CF97CFC28165
:100760008AE691E0CC2361F2D2CF8CE391E0CC23F6
:1007700039F2CDCF8CE191E0CC2311F20E94180622
:10078000CCCFC28188EE90E0CC2309F4B9CFF6CF6C
:10079000C28184ED90E0CC2309F4B2CFEFCFC281C7
:1007A000CC2309F4ADCF84EB90E0E8CFC281CC2319
:1007B00009F4A6CFC0918F01C11108C080EB90E071
:1007C0000E94180681E080938F019ACF8CEA90E016
:1007D0000E94180610928F01A0CF9C013A95211516
:1007E0003F4150F5FC01EE27F170BC0166277270A5
:1007F000AC01442754709C012227387094FF0EC02E
:1008000080E1EF2B09F480E0672B09F08062452B33
:1008100009F08064232B89F08068089581E0EF2B34
:1008200009F480E0672B09F08260452B09F08460B1
:10083000232B19F08860089580E00895CF93DF930B
:10084000EB010E94ED03FE010995DF91CF91089520
:10085000CF93DF93EC01805E9109089720F067EF5A
:1008600079E0209711F464E977E0CE010E941E043C
:100870008C2F0E948906DF91CF910895CF93DF934B
:10088000EC010E941A07CE01805E9109089720F0C2
:100890006EEF79E0209711F46BE977E0CE010E94CA
:1008A0001E04DF91CF910895CF93DF93EC010E9456
:1008B0002804C933D10549F42FEF87EE93E0215086
:1008C00080409040E1F700C00000CE010E943E044D
:1008D000DF91CF91089581E008950E94300308953B
:1008E00008950E9470040895A5E0B0E0EAE7F4E0FE
:1008F0000C94DE2749835A833091910189819A8132
:10090000311119C0662399F0222389F00E94F00B5F
:10091000182F682F89819A810E94CC0B69817A8176
:10092000812F0E9489122596E3E00C94FA270E94F9
:10093000DE0B182FF3CF0E94F00B69817A81F1CF83
:10094000FC01262F408151816281738184810E9444
:100950007404089581E00895CF93DF93EC0160E083
:100960000E94A004BE010E947104DF91CF910895FE
:100970000E94C81308950E94CC13089508950E9400
:100980001B0A0E94BE042FEF84E39CE021508040AC
:100990009040E1F700C0000008950E94BF040E944B
:1009A000B62008950E94BF040E94DA200895A2E0B4
:1009B000B0E0EDEDF4E00C94DD278C0161E00E94E5
:1009C000A0049A838983B801CE0101960E94E01A9F
:1009D000811105C080E02296E4E00C94F927B8016B
:1009E00089819A810E946D048823A1F3B8018981CD
:1009F0009A810E94FE19882369F3B80189819A813E
:100A00000E948418882331F3B80189819A810E9459
:100A1000391E8823F9F2B80189819A810E94A318AE
:100A20008823C1F2B80189819A810E94B61A88236D
:100A300089F2F8018281882371F089819A818C354D
:100A4000FDE59F0701F158F48115ECE59E0791F053
:100A50008F3D9C4591F0C8010E946B04BCCF8E3540
:100A60002DE5920769F090F0893A9D45A1F70E9423
:100A7000D204B0CF0E94CD04ADCF0E94B910F7CF01
:100A80000E94F30FE8CF0E94FD0FE5CF0E940110F6
:100A9000E2CF0E94E71F0E943A0608950E943E0698
:100AA0000E94EC1F0895B0E0A0E0E9E5F5E00C94A9
:100AB000DA27E82FF0E0EE55FC4FD490282F26954A
:100AC0002695269530E0F901EE5BFB4F0491877087
:100AD00010E0082E02C0159507950A94E2F7017000
:100AE0001127F901EE5CFB4FE490F12C082E02C0B7
:100AF000F594E7940A94E2F791E0E922FF24F901E2
:100B0000EE5DFB4FC491D0E002C0D595C7958A95A4
:100B1000E2F7C170DD270115110519F081EE0E9481
:100B20008906E114F10419F086EE0E9489068D2DE4
:100B30000E948B07E114F10419F086EE0E941A0757
:100B40000115110519F081EE0E941A07CD2B19F03D
:100B50008CE20E948B07CDB7DEB7E7E00C94F62756
:100B6000EF92FF920F931F93CF93DF938C01F62E9A
:100B70008AE0E82EF8018491882309F454C081307A
:100B800009F04DC0E8012196FE018491813091F475
:100B90002196FE0184910E948B078E010F5F1F4FEB
:100BA0008F2D815038F3EFE9FFE03197F1F700C066
:100BB0000000F7CF823039F4E8012296FE018491DB
:100BC0000E948906EACF833039F4E8012296FE01BB
:100BD00084910E941A07E1CF8430F9F6E801229649
:100BE000FE01249190E080E0FE0131962053330B0A
:100BF0002A30310548F0019780F2EFE9FFE03197A4
:100C0000F1F700C00000F7CFE89EA001E99E500D6B
:100C10001124C901840F951F2491EF01E5CF0E9493
:100C20005305E801BACFCDB7DEB7E6E00C94F7275D
:100C300060E00E94B0050895982F9F709A509630FA
:100C400020F0805D0E9453050895895AFBCF0895D6
:100C50000E942706089581E008950E942B060895BA
:100C60000895CF93C82F0E9428068C2F0E942D062E
:100C7000CF91089580E00E94310608950E94951E4C
:100C80000E94310608950E94951E90919001981738
:100C900021F0809390010E9431060895ABE0B0E00E
:100CA000E4E5F6E00C94DF274F83588769877A875D
:100CB0008B8761110E943E0F1E821D8285E0FE011E
:100CC0003796DE01119601900D928A95E1F78C819D
:100CD0009D81892B61F449815A816B817C818D8151
:100CE0009E810E94640E2B96E2E00C94FB27898182
:100CF0009A8189238F3F79F3CE0101960E94AA043D
:100D00008111E9CFF0CFFC01808191810E942A0CF2
:100D10000895CF93C82F8823C9F08238C9F40E9460
:100D2000951E81FD13C089E30E94F30E0E945F0FA0
:100D30002FEF81EE94E0215080409040E1F700C019
:100D4000000089E30E94FB0E0E945F0FCF9108957F
:100D50008338A1F40E94951E80FDF8CF83E50E94A0
:100D6000F30E0E945F0F2FEF81EE94E02150804040
:100D70009040E1F700C0000083E5E4CF8438A1F49F
:100D80000E94951E82FDE2CF87E40E94F30E0E942E
:100D90005F0F2FEF81EE94E0215080409040E1F70B
:100DA00000C0000087E4CECF8CEF8C0F813A90F426
:100DB0006C2F80910001909101010E940D1F8823EA
:100DC00029F08C2F0E94FB0E0E945F0F8C2F0E9437
:100DD000F30EBACF80E28C0F883048F4C77081E000
:100DE00001C0880FCA95EAF70E941E0FADCFEBE550
:100DF000EC0FE33040F4F0E0EB5BFE4F808190E0DD
:100E00000E94CD1EA3CFE8E5EC0FE73150F4F0E0EF
:100E1000EE0FFF1FE95EFE4F808191810E94E31E6D
:100E200095CFCD3E08F492CF8C2F0E94B5150E942D
:100E300088168CCF882309F455C0823879F40E9433
:100E4000951E81FF4FC089E30E94F30E0E945F0F41
:100E500089E30E94FB0E0E945F0F0895833859F4C6
:100E60000E94951E80FF3EC083E50E94F30E0E9403
:100E70005F0F83E5EECF843859F40E94951E82FF00
:100E800031C087E40E94F30E0E945F0F87E4E1CF38
:100E90009CEF980F913AE8F290E2980F983050F456
:100EA000877091E001C0990F8A95EAF7892F0E9417
:100EB000240FD1CF9BE5980F933028F490E080E089
:100EC0000E94CD1E089598E5980F973128F490E080
:100ED00080E00E94E31E08958D3E20F00E940F16D0
:100EE0000E94881608951F93CF93DF93182FEB016C
:100EF0000E948906209739F4812F0E941A07DF91FA
:100F0000CF911F9108958FE99FE00197F1F700C0FD
:100F100000002197EFCF70E060E0893311F460E5C5
:100F200070E00E9473070895882321F00E941E0F2D
:100F30000E945F0F0895882321F00E94240F0E94D1
:100F40005F0F0895B0E0A0E0E8EAF7E00C94D8273E
:100F50006C01D62FC72FFC011281F580F2949FE01F
:100F6000F9220E94140FE82E8823B9F0E12E1123F4
:100F7000A1F08C2F807F803421F080E28D0F8830AB
:100F8000D0F08091BC0282FF16C082E00E94C20FA6
:100F90000E94140F91E0E82EE926BC2EB2948FE057
:100FA000B822FBE0FB1508F468C0EB2DF0E0E35736
:100FB000F74D0C94C927E12CF0CF0C2F0F70C07F98
:100FC00011F00295007F112399F0002359F080E27F
:100FD0008D0F883010F0D11107C0802F0E941E0F96
:100FE0000E945F0F8D2F41C0802F0E94310FF8CFDC
:100FF0008D2F0E941A07002309F43FC080E28D0F55
:10100000883010F0D11104C0802F0E94240F03C03B
:10101000802F0E94370F0E945F0F2FC00C2F0F7080
:10102000C07FC03211F00295007FDD2381F0D13006
:1010300009F463C0112309F46DC0FF2009F463C0F3
:10104000F601858180FFCECF8F7085835CC0809153
:10105000BC0282FD33C0112359F0002329F0802FF8
:101060000E941E0F0E945F0F80E00E94890605C04B
:1010700080E00E941A070111C7CFEB2DE850FF0B4B
:10108000349720F40E94951E0E943106EE2089F0CC
:101090000E94100F80FD0DC0F60112820E940A0FFF
:1010A0000E94D40AC6010E94CD090E940A0F0E9424
:1010B000F60ACDB7DEB7E9E00C94F427112389F0E6
:1010C000F11006C00E94410F802B0E949407D5CFDB
:1010D00021E0F212F7CF0E94410F802B0E94480FAF
:1010E000CCCFF11006C00E94550F802F0E949B07A5
:1010F000C4CF31E0F31609F2F6CF112331F085E0C9
:101100008F1508F4BACF802FE0CF94E09F1508F434
:10111000B4CFEBCFFF2049F3D93349F4FFEF27EEEB
:1011200033E0F15020403040E1F700C000008D2F47
:101130000E941A07A2CF8C2F86958695837069F03E
:10114000813009F09ACF8D2F9C2F9370111102C01E
:1011500090E080E00E94E31E90CF8D2F9C2F937033
:10116000111102C090E080E00E94CD1E86CF8D2F2D
:10117000112329F00E94B5150E9488167ECF0E9487
:101180000F16FACF8C2F837009F041C0111175CF63
:101190004D2F429546954770440F440F0D2F0F7009
:1011A00010E030E020E0042E04C0000F111F221FC9
:1011B000331F0A94D2F760E070E0CB01D4FF0FC078
:1011C0006FE070E080E090E004C0660F771F881F3A
:1011D000991F4A95D2F76095709580959095C69520
:1011E000C695C370602B712B822B932BC23049F0B4
:1011F00058F4C13019F00E947F0A3FCF0E946C0A58
:101200003CCF0E94920A39CF0E94690A36CF869558
:10121000112311F08C2F8170882309F42ECF4D2FCC
:10122000429546954770440F440F0D2F0F7010E004
:1012300030E020E0042E04C0000F111F221F331FD6
:101240000A94D2F760E070E0CB01D4FF0FC06FE0EA
:1012500070E080E090E004C0660F771F881F991F40
:101260004A95D2F76095709580959095C695C695EC
:10127000C370602B712B822B932BC23049F058F432
:10128000C13019F00E944F0BF8CE0E943C0BF5CEF6
:101290000E94620BF2CE0E94AB0AEFCECF701123F8
:1012A00029F08C2F0E94D40A8D2F0FCF8D2F0E94F2
:1012B0009B078C2F0E94F60AE0CED23F51F160F4DA
:1012C000D03FB9F0D13F81F0112309F449C0F110AA
:1012D00089CE8C2F8F7121C0D33F11F1D43FA1F75C
:1012E0008091BC0282FD26C08C2F8F71112311F3D7
:1012F00014C0112349F084E08F1508F4BECE8C2F62
:101300008F710E941A0BB9CE95E09F1508F4B5CEE7
:10131000F6CF8C2F8F711111CDCF0E94D40AADCE94
:10132000112329F08C2F8F710E94BE0AA6CE0E9435
:10133000B80AA3CE112349F0CF718C2F0E94D40A92
:1013400063E08C2F0E94A40F98CE81E00E94C20F10
:10135000E1E0EF1508F091CE82E00E94C20F8DCE41
:10136000F110DACE8C2F8F71A5CF0F931F93CF93EF
:10137000DF93EC01688179818A810E94350C8C01B0
:101380000E94750B0E94680AB801CE010E94A20754
:10139000DF91CF911F910F910895CF93DF93EC01CF
:1013A0008B819C81892B29F08881998189238F3FAA
:1013B00051F4DF91CF910895CE010E94B509CE017D
:1013C0000E94AC04F6CFCE010E94D7048111F4CF65
:1013D0000E94140F882369F38A81882351F3809136
:1013E000BC0282FFE6CF82E00E94C20FE2CF8823D8
:1013F00021F00E94310F0E945F0F0895882321F091
:101400000E94370F0E945F0F089590E080E00E94D5
:10141000CD1E90E080E00E94E31E0E943E0F0E94DD
:101420005F0F0E94A0170E94881608950E94030F64
:101430000E94050A08950E942E0F0E94160A089520
:1014400092959F70963091F058F4925F9F70923011
:1014500058F4803F19F030F4883E30F481E008956C
:101460009A5FF4CF843FD1F380E00895883EB0F3D3
:10147000813FD1F7F3CFFC01808191810E942A0C3A
:101480000E94200A0895A5E0B0E0E9E4FAE00C9497
:10149000DF272596E2E00C94FB27A6E0B0E0E3E529
:1014A000FAE00C94DF272696E2E00C94FB270895DF
:1014B0000E94570A08950E94580A6093C3017093CE
:1014C000C4018093C5019093C6010E94050A089546
:1014D00008950E945B0A08950F931F930091C30122
:1014E0001091C4012091C5013091C601602B712B70
:1014F000822B932B0E945B0A1F910F9108950F93EB
:101500001F930091C3011091C4012091C501309136
:10151000C60160237123822393230E945B0A1F91DB
:101520000F9108950F931F930091C3011091C4016F
:101530002091C5013091C60160277127822793272A
:101540000E945B0A1F910F9108950E94570A089507
:101550000E94A50A08950E94A80A6093BF01709393
:10156000C0018093C1019093C2010E94050A0895B1
:1015700060E070E0CB010E94AB0A08950F931F93C7
:1015800041E050E060E070E08A019B0104C0000F80
:10159000111F221F331F8A95D2F7C901B8010E947B
:1015A000AB0A1F910F9108950F931F9341E050E0F4
:1015B00060E070E004C0440F551F661F771F8A95D6
:1015C000D2F78091BF019091C001A091C101B0916B
:1015D000C2018A019B01082B192B2A2B3B2BC90125
:1015E000B8010E94AB0A1F910F9108950F931F93AA
:1015F00041E050E060E070E004C0440F551F661FFA
:10160000771F8A95D2F7CB01BA01609570958095C6
:1016100090950091BF011091C0012091C1013091BE
:10162000C20160237123822393230E94AB0A1F917E
:101630000F9108950F931F9341E050E060E070E038
:1016400004C0440F551F661F771F8A95D2F78091FB
:10165000BF019091C001A091C101B091C2018A0166
:101660009B01082719272A273B27C901B8010E9497
:10167000AB0A1F910F9108950F931F930091BF0123
:101680001091C0012091C1013091C201602B712BDA
:10169000822B932B0E94AB0A1F910F9108950F93F9
:1016A0001F930091BF011091C0012091C1013091A1
:1016B000C20160237123822393230E94AB0A1F91EE
:1016C0000F9108950F931F930091BF011091C001D6
:1016D0002091C1013091C201602771278227932791
:1016E0000E94AB0A1F910F9108950895262F27702D
:1016F00091E001C0990F2A95EAF723E07695679566
:101700002A95E1F725E0269FF001279FF00D11248F
:10171000E40FF51F50E040E0682F70E08191DF0199
:1017200011979B01042E02C0369527950A94E2F783
:10173000217021952827292328272C934F5F5F4F5D
:101740004530510559F70895A82FA77023E09695C5
:1017500087952A95E1F725E0289FF001299FF00D54
:101760001124E60FF71F50E040E080E0219130E0C7
:101770000A2E02C0369527950A94E2F72170332786
:10178000042E01C0220F0A94EAF7822B4F5F5F4FAD
:101790004530510559F70895262F953070F48E3055
:1017A00060F4682F70E08EE0989F600D711D112429
:1017B00042E951E0822F0E94760B0895292F95303F
:1017C00068F48E3058F490E062E971E03EE0239FC7
:1017D000800D911D11240E94A40B089580E00895AE
:1017E000B0E0A0E0E6EFFBE00C94D8278C01C090BD
:1017F000BF01D090C001E090C101F090C201809182
:10180000C3019091C401A091C501B091C601C82A3D
:10181000D92AEA2AFB2ACFE1D0E0BC2ED701C601A3
:101820000C2E04C0B695A795979587950A94D2F784
:1018300080FD09C0219788F7B12C8B2DCDB7DEB77D
:10184000E9E00C94F427B8018C2F0E94A4120197B0
:1018500089F3F3CFCF93DF93EC010E94F00BBE012D
:101860000E94A412DF91CF9108951F93CF93DF932D
:10187000EB0190919101992339F0CB010E942A0C40
:10188000DF91CF911F910895882369F0CB010E94C9
:10189000F00B182F682FCE010E94CC0BBE01812FB8
:1018A0000E94A412EDCFCB010E94DE0B182FF6CFC1
:1018B0001F93CF93DF93C091C70116E08091C801B9
:1018C0008C1304C0DF91CF911F910895D0E01C9F2D
:1018D000F0011D9FF00D1124E753FE4F408151810F
:1018E00062817381848195810E944D0A2196C7701F
:1018F000E5CF4091F9015091FA016091FB0170919F
:10190000FC018091FD019091FE010E944D0A089515
:101910001F93CF93DF938091FE01807F09F049C030
:101920008091FB01882309F444C08091C701C091D4
:10193000C8016091F9017091FA01A091FC01B09188
:10194000FD01D62FD72316E0C81799F190E0109724
:1019500011F0DF3F19F401968770F6CF189F9001C0
:10196000199F300D1124F901E753FE4F41814713B0
:10197000F2CF40814613EFCF42814111ECCF43813A
:1019800054814A1B5B0B4D37510528F78091FE01AE
:101990008F7080618093FE01F901E253FE4F8081D8
:1019A0008F708061808389EF91E00E94CD090E9451
:1019B000580CDF91CF911F910895A1E1B0E0E3EEC3
:1019C000FCE00C94D7278C0185E0F801DE011D9620
:1019D00001900D928A95E1F7F801E28089EFC82E17
:1019E00081E0D82E6091FC017091FD0161157105B7
:1019F00009F44EC19091F9012091FA01892F8223B7
:101A00008F3F09F445C140815181A380B480F0909B
:101A1000FB01F501E61BF70BFF2009F4EAC08091FA
:101A2000FE01382F307FED37F10508F0A3C03111EA
:101A30006DC0FE2C251316C0941314C0E11012C003
:101A40008F7080618093FE010E94790CC6010E9414
:101A5000CD098091FE01F80185838F2D6196EAE022
:101A60000C94F327A114B10429F0842F85238F3F10
:101A700009F027C180E0F82FF170DF2E80FF3CC015
:101A80008091C7012091C80136E0821315C04D87AF
:101A90005E878D859E850E942A0C292F22952F70A6
:101AA0002230F0F0243018F59F70F1F0F8019581A4
:101AB000907FD1F4D12C1EC090E0389FF001399F67
:101AC000F00D1124E753FE4F6181651306C060815C
:101AD000641303C06281E6120FC001968770D5CFF0
:101AE0009F7011F0882331F3805E883018F3C801AD
:101AF0000E94CD09FD2CB1CFEE2009F4AECF80912C
:101B0000FE0181608093FE01F12CA7CF251306C052
:101B1000941304C0F801EE2009F487C0C8010E94A4
:101B20003B0A882319F1EE2009F18091FE018032F1
:101B300070F02091F9013091FA0138872F831986CE
:101B4000BB86AA868C87CE0107960E94CD0986E0C7
:101B5000F801A9EFB1E001900D928A95E1F70E949A
:101B6000880C0E94790CFF24F39477CFC8010E945F
:101B7000CD09F9CF311113C07A2DB98AA88A6E2DFB
:101B800089890E94430A89EF91E00E94CD0986E08D
:101B9000F60111928A95E9F70E94790CB5CF2513C9
:101BA0000FC094130DC0E1100BC0F8018583C8016C
:101BB0000E94CD0986E0F60111928A95E9F74DCF92
:101BC000C8010E943B0A882389F2EE2079F28091B5
:101BD000FE01803208F4BBCF2091F9013091FA0167
:101BE0003A8329831B82BD82AC828E83CE0101960B
:101BF000ACCFED37F10508F03EC0FE2CEE2009F425
:101C0000B5CF25132AC0941328C08091FE0180FD12
:101C10001BC0982F907FC1F0F8018583903F31F071
:101C2000982F907F905F8F70892B8583C8010E94C9
:101C3000CD0986E0F801A9EFB1E001900D928A95F7
:101C4000E1F70E94790C09CF86E0F801A9EFB1E035
:101C500001900D928A95E1F700CFC8010E943B0ADE
:101C6000811175CF8091FE0181608093FE01C801D2
:101C70000E94CD09F2CE7A2DB98AA88A6E2D898963
:101C80000E94430A86E0F60111928A95E9F7D9CFBE
:101C9000EE2009F46BCFC8010E943B0AF82E88237E
:101CA00009F464CF86E0F801A9EFB1E001900D924C
:101CB0008A95E1F789EF91E00E9483060E94880CE3
:101CC000C0CF81E08E25D7CEACE0B0E0EAE6FEE002
:101CD0000C94DE274F83588769877A878B879C8788
:101CE000CE0107960E94DD0C882369F08A859B85CA
:101CF000892B39F04F815885842F85238F3F09F038
:101D00006BC016E05FC086E0FE013796DE011196DB
:101D100001900D928A95E1F78A859B85892B89F33D
:101D20008F81988589238F3F61F32091C80130E02E
:101D3000C9010196877099274091C7014817190674
:101D400071F40E941B0A1092C8011092C70186E02C
:101D5000E9EFF1E0DF011D928A95E9F7D2CF96E035
:101D6000929FD001939FB00D1124A753BE4FFE0147
:101D7000319601900D929A95E1F78093C8010E94E7
:101D8000580CBFCF819FC001112487539E4F0E94E2
:101D9000DD0C8823E9F0E091C7011E9FF0011124BA
:101DA000E753FE4F40815181628173818481958127
:101DB0000E944D0A8091C70190E001968770992793
:101DC0008093C7018091C7019091C8018913DACF30
:101DD0002C96E3E00C94FA2769857A858B859C859F
:101DE0000E944D0A8ECF682F8091000190910101D1
:101DF0000E948D1F0895682F80910001909101012C
:101E00000E949B1F089580910001909101010E9402
:101E1000A91F089580911F02859585958595089540
:101E200080911F028770089590911F02977081E042
:101E300009F480E008958091420208959091420251
:101E4000892B8093420208958095909142029823B5
:101E500090934202089580934202089510924202A4
:101E6000089590914102892B8093410208958095B5
:101E7000909141029823909341020895109241025B
:101E8000089580912002089508950E94440F0895B6
:101E90009091BC0292FF08C090912002981721F007
:101EA000809320020E94450F08958091200288238C
:101EB00029F01092200280E00E94450F0895CF93F0
:101EC000DF93E0910001F091010180914202808353
:101ED000E0910001F0910101808190914102892BF4
:101EE000808390912002992381F0E0910001F0918C
:101EF00001018081892B80838091000190910101F3
:101F00000E94F91E81110E94550FC0910001D091CD
:101F1000010140E250E06FEF71E0CE010E943C28E9
:101F2000892B59F080E2FE01AFEFB1E001900D92F4
:101F30008A95E1F7CE010E94A51EDF91CF91089509
:101F400008950E94A00F08959091BC0292FF11C0C5
:101F500098E0899F90011124622B60931F020E94D8
:101F6000D40A80911F028595859585950E94A10FC1
:101F700008950E94D40A089510921F0280E00E94E2
:101F8000A10F089590911F028095892380931F02CD
:101F9000282F277091F4282F082E000C330B92174E
:101FA000130659F09091BC0292FF07C08595859564
:101FB00085950E94F60A0E94BC0F08959091BC027C
:101FC00092FB222720F9281769F080FB92F9909361
:101FD000BC028091BB029091BC020E942F1082E053
:101FE0000E94C20F08958091BC0282FB882780F96D
:101FF00091E089270E94DE0F089581E00E94DE0FA4
:10200000089580E00E94DE0F08956FEF7FEF90E06B
:1020100080E00E947528089590E080E00E94512899
:1020200021E0883E9E4F09F020E0822F089582E053
:1020300090E00E944928089583E090E00E9449289A
:102040000895CF9384E090E00E944928C82F82E24F
:1020500090E00E944928982F8C2FCF910895CF931C
:10206000C92F682F84E090E00E9457286C2F82E2ED
:1020700090E00E945728CF910895AB01BC018FE0FA
:1020800090E00E9469280895AB01BC0183E190E0D3
:102090000E946928089560E070E0CB010E9444101E
:1020A000089560E070E0CB010E943D100E944B104B
:1020B000089568EE7EEF90E080E00E94752860E071
:1020C00082E090E00E94572860E083E090E00E9468
:1020D00057281092C3011092C4011092C5011092AA
:1020E000C60160E084E090E00E94572864E082E24C
:1020F00090E00E94572860E085E090E00E94572819
:1021000060E086E090E00E9457286FEF87E090E063
:102110000E94572840E050E0BA0188E090E00E9419
:10212000692860E08DE090E00E94572840E050E090
:10213000BA0188E190E00E94692860E087E190E0C0
:102140000E94572840E050E0BA018CE190E00E94E4
:10215000692870E060E080E290E00E94752840E02D
:1021600050E0BA0188E190E00E9469280E94511075
:1021700008950E9459100895682F8EE090E00E9403
:10218000572808950E94772060935102709352025D
:10219000809353029093540260934D0270934E02C9
:1021A00080934F02909350020895089508950E94DD
:1021B000D610089508950E94DA10089583E893E1F7
:1021C0000E948B1E0E94D5100E94D710089581E0B6
:1021D00008950E94E7100895089508950E94EC1054
:1021E0000E94ED1008950E94A2130E9430060E94E2
:1021F000D81708950E9462200E9484140E94F31050
:10220000EBEBF2E08081806880838091BB0290914B
:10221000BC020E942F100E94DB100895AAE0B0E0DB
:10222000E4E1F1E10C94D4270E949A14A82E8111C4
:102230000E94C21053E4852E52E0952E10E000E07B
:10224000702E802F0E94CF136C01F401E190F19069
:102250004F01E816F90609F444C08091550281FD4A
:102260000E94D813C7018C259D25B12CEE24E39440
:10227000F12C9C012E213F21232B69F10E94E910B2
:102280008823B1F0BE827F82CE20DF2081E0C1149E
:10229000D10409F480E088870E946B208160782F48
:1022A0009A8789874E815F8168858A850E944E065C
:1022B000000F111FF801ED5BFD4F80819181E82631
:1022C000F926F182E08281E0A11001C080E02A9627
:1022D000EDE00C94F027B394EE0CFF1CFEE0BF126F
:1022E000C8CF0F5F1F4F0530110509F0A9CF8FEF41
:1022F00089838A831B820E946B208160782F9D8353
:102300008C8349815A816B818D810E944E06DBCF7F
:102310000E940E110E949A1A0E94A4160E9443065F
:102320000895CF93DF930E94A912EC01811521E556
:10233000920708F042C0811530E5930708F09DC070
:10234000883E910530F5803E910508F092C0883AAC
:10235000910588F4853A910508F084C08130910593
:1023600009F487C0009709F484C0049708F081C07D
:10237000D0E0C0E07EC08F3B9105D0F7C85AD0E0D6
:10238000CC0FDD1FC85BDE4F0990D881C02DD4640F
:1023900070C08115904250F4C11581E0D80708F053
:1023A00068C0CD3ED10520F3D06563C0C11590E46F
:1023B000D907F0F2DF70D06A5CC0811525E592077D
:1023C00000F5811534E5930708F08BC0811543E5CE
:1023D000940708F073C0C11582E5D80708F469C0F6
:1023E000CE018370992721E030E002C0220F331F15
:1023F0008A95E2F7C695C69580E2C89FE001112450
:1024000054C0C11599E5D907A8F4C11528E5D2072C
:1024100008F06CC0C11536E5D30708F0A9CF8C2FA2
:102420000E944013C82FD0E0DC2FCC27CC27DF71CF
:10243000D0621FC0C1154AE5D40708F45CC0CE01C4
:1024400090568115904208F093CF8D2F8F710E9486
:10245000401390E0982F882788279F719C012C2B90
:10246000E901E6CFC55AD0E0CA58DE4FC881D0E0B6
:10247000D064CE01DF91CF910895E4E096958795E1
:10248000EA95E1F783702C2F26952695237040E27C
:10249000249F90011124382B8C2F8370C1E0D0E051
:1024A00002C0CC0FDD1F8A95E2F7C22BD32BDC686C
:1024B000E0CFDC2FCC27C16FD06ADBCF83709927A8
:1024C00021E030E002C0220F331F8A95E2F7C69563
:1024D000C69590E2C99FE0011124C22BD32BDA6884
:1024E000C8CFD82FCC27C46FD06AC3CFDC2FCC275E
:1024F000C06FD06ABECF8C2F8F700E94401334E023
:10250000D695C7953A95E1F7CF709C2FEC01D0692D
:10251000B0CF972F7530A8F46E3098F470E02EE0AD
:10252000929F600D711D1124FB0196E4899FE00DBF
:10253000F11D1124EE0FFF1FE250FE4F8591949183
:10254000089580E090E008950E9489120E94911100
:10255000089582389105B1F1B0F48133910509F401
:1025600075C048F48932910509F469C08A32910531
:1025700009F473C008958533910509F459C089336E
:10258000910501F10895833E9105A9F138F4803E4B
:102590009105F9F0823E910549F10895863E910535
:1025A000A9F1873E9105C9F1843E910519F5209165
:1025B000BC0221FF1FC08091BB0284FD14C087EEC6
:1025C00090E008952091BB022370A1F080EE90E08E
:1025D00008952091BB0220FD47C03091BC0230FF1E
:1025E00009C024FF44C090E080E004C02091BB02F9
:1025F00022FDF7CF08952091BB0222FD3BC0309110
:10260000BC0230FDE3CF24FFF5CFEDCF2091BB021C
:1026100023FFF0CF24FDE7CFD2CF2091BB0223FDD3
:102620002CC03091BC0231FFEECF84EE90E00895D3
:102630002091BB0225FFDECF89E290E00895209132
:10264000BB0225FFD7CF85E390E008952091BB0220
:1026500026FFD0CF8AE290E008952091BB0226FFAA
:10266000C9CF81E390E0089589E390E0089583EE77
:1026700090E0089582EE90E0089586EE90E008954F
:102680009091BB0292FF06C0282F28712830F9F4E0
:10269000877F846093FF06C0282F28712831F1F4CA
:1026A000877E84612091BC0220FF06C0382F3871DC
:1026B0003830D9F4877F816021FF06C0282F287128
:1026C0002831D1F4877E816194FD877E0895282F7B
:1026D00024712430F9F68B7F8860DCCF282F247199
:1026E000243101F78B7E8861DDCF382F3171313095
:1026F00019F78E7F8860E0CF282F2171213121F7D3
:102700008E7E8861E1CF80E008950E9405100895D3
:102710000E949A142FEF86E791E02150804090406C
:10272000E1F700C000000E949A1480E00E94CF13DD
:1027300080FF04C00E9485130E94B62008950E9465
:10274000881308950E940C10811102C00E94B910D4
:102750000E941710809355020E9421109093BC0292
:102760008093BB020E949F130E941C10682F70E090
:1027700090E080E00E94690A6091BF017091C00101
:102780008091C1019091C2010E94A80A0895089504
:102790000E94C713089508950E94CB130895E82F4F
:1027A000F0E0EE0FFF1FE953FD4F80819181089506
:1027B000089580EA8A95F1F7089500C008950E946F
:1027C000D9130895F894E82FE295EF70F0E031A165
:1027D000282F2F7081E090E001C0880F2A95EAF73A
:1027E000982F9095932391A392A1892B82A37894FB
:1027F0000895CF93DF93C7E8D1E089918F3F11F01F
:102800000E94E21381E0CC38D807B9F7C9E7D1E0DC
:1028100089918F3F11F00E94E21381E0C738D807F9
:10282000B9F7DF91CF910895AF92BF92DF92EF9207
:10283000FF920F931F93CF93DF938C01D62EC62F59
:10284000D0E0CE0189579E4F7C01FC0120812F3FB3
:1028500009F44DC0F894E22FE295EF70F0E031A159
:102860002F7081E090E001C0880F2A95EAF7932F3E
:10287000982B91A392A18095892382A378940E949A
:10288000DD13E9E7F1E047E851E021E030E0B12C69
:10289000A12C61916F3FA9F1A62FA295AF70B0E076
:1028A00090968C9190E06F7002C0959587956A958F
:1028B000E2F780FD26C0C901A82AB92A220F331FDA
:1028C0004E175F0731F7F70180818F3F11F00E94AB
:1028D000E21361E0A114B10409F460E08D2D0E94BF
:1028E000DF13CC0FDD1FC00FD11FB982A882DF918B
:1028F000CF911F910F91FF90EF90DF90BF90AF901D
:10290000089590E080E0D8CF0E94F9138AE0E7ECC8
:10291000F2E0DF01982F1D929A95E9F7EDEBF2E0D6
:10292000DF011D928A95E9F785E00E94D6140E9486
:10293000B8040895AAE0B0E0E0EAF4E10C94DC27E2
:102940008E010F5F1F4F8AE0F80111928A95E9F717
:10295000F12C6F2DC8010E941414F394F5E0FF12BE
:10296000F8CF4AE050E0B8018DEB92E00E943C289D
:10297000FF24F394009709F4F12C892B41F08AE0AD
:10298000F801ADEBB2E001900D928A95E1F72F2DA1
:1029900045E067EC72E08DEB92E00E94D7140E9454
:1029A000BB048F2D2A96E5E00C94F8270895FF923A
:1029B0000F931F93CF93DF93F82E092F162FD72F46
:1029C000C42F222349F081E0809358020E946B209B
:1029D0009093570280935602809158028823A1F069
:1029E00080915602909157020E948320059760F0D3
:1029F000EF2DF02FA12FBD2F90E080E0D0E08C17BD
:102A00009D073CF010925802CDB7DEB7E5E00C947C
:102A1000F827219131912D933D930196F0CF0E949B
:102A200090220E94FA100E949D2208950E94A222E4
:102A30000E9488110E94BC2208950E9404200E94D6
:102A400076220E94DE100E940F150E9416150E9429
:102A5000EE10FBCF80915F0280FF0DC060910701F7
:102A600070E0660F771F6038710570F561157105AC
:102A700069F1862F089581FF07C06091070184E006
:102A8000689FB0011124EFCF6091070182FD0AC059
:102A900080915E028823A9F02091060160910701D0
:102AA000821710F088E0ECCF869FC001112433E03C
:102AB000880F991F3A95E1F7622F70E00E94B527C1
:102AC000D2CF68E070E0D5CF8FE7089581E0089518
:102AD00080915F0280FF0CC06091030170E07595EA
:102AE0006795759567956115710549F1862F08956C
:102AF00081FF06C06091030170E075956795F3CF83
:102B00006091030182FD0BC090915D029923A1F0B9
:102B10006091020180910301961738F0682F70E0F0
:102B20006038710500F38FE70895899FC001112473
:102B300070E00E94B527F4CF61E070E0D7CF81E06C
:102B40000895FC01828181110EC0838181110BC027
:102B50008481811108C091E08581811101C090E0DC
:102B6000892F8170089581E0FCCF8D3E31F40E9461
:102B70002A1581958093630208958E3E19F40E9470
:102B80002A15F8CF8F3E31F40E942A158195809343
:102B900062020895803F19F40E942A15F8CF893FF8
:102BA00029F40E9468158093640208958A3F21F4F5
:102BB0000E9468158195F7CF8B3F31F40E9468150C
:102BC00081958093650208958C3F19F40E946815E1
:102BD000F8CF9FE0980F983070F4815F990B21E057
:102BE00030E001C0220F8A95EAF780916102822BC2
:102BF0008093610208958D3F31F480915F0281607E
:102C000080935F0208958E3F21F480915F0282607D
:102C1000F7CF8F3FB9F780915F028460F1CF409189
:102C200062028D3E59F48091630287FF0DC01092BD
:102C3000630241110BC010925E0208C08E3E81F407
:102C40008091630218169CF3442381F08091640202
:102C500090916502892B09F05AC010925D02089587
:102C60008F3E49F447FFF0CF1092620280916302D9
:102C70008111ECCFE0CF803F19F41416ACF3E4CF10
:102C800090916402893F29F41916F4F610926402B7
:102C9000DBCF8A3F19F497FFD7CFF8CF9091650229
:102CA0008B3F29F497FFD0CF10926502CDCF8C3F98
:102CB00019F41916CCF3C8CF9FE0980F983090F410
:102CC000815F990B21E030E0B90102C0660F771FE8
:102CD0008A95E2F7CB0180959091610289238093D8
:102CE0006102B2CF8D3F31F480915F028E7F80937D
:102CF0005F02AACF8E3F21F480915F028D7FF7CFD4
:102D00008F3F09F0A1CF80915F028B7FF0CF0895B4
:102D10000E946B209C019091620280916302982B2B
:102D200021F030935C0220935B02909164028091C9
:102D30006502982B21F030935A022093590280E6C5
:102D400092E00E94BF1E0895A6E0B0E0EAEAF6E134
:102D50000C94DE2786E0E0E6F2E0DE0111960190B9
:102D60000D928A95E1F7109262021092630210921E
:102D70006402109265028B819C81892B89F080917D
:102D80005B0290915C020E948320AC0190915E02F4
:102D90009923C9F1809108018417150608F440C0F1
:102DA0008D819E81892B91F08091590290915A02D8
:102DB0000E948320AC0190915D02992309F471C0B7
:102DC000809104018417150608F479C0BE016F5F75
:102DD0007F4F80E692E00E94BB1F811105C080E614
:102DE00092E00E94A11581110E94881686E0FE01E2
:102DF0003196A0E6B2E001900D928A95E1F7269611
:102E0000E3E00C94FA27209109018AE0289F9001C1
:102E100011242417350720F69F5F90935E0202C0AD
:102E20009F3FD1F71B81112359F00E942A159FEF74
:102E300011160CF491E0899F802D11248093620279
:102E40001C81112359F00E942A159FEF11160CF4D2
:102E500091E0899F802D112480936302309162025A
:102E6000332309F49DCF20916302222309F498CFE4
:102E700045EB3403C0011124992359F09093620269
:102E800045EB240390011124332339F0309363027E
:102E900087CF81E080936202F3CF81E08093630269
:102EA0007FCF209105018AE0289F900111242417EB
:102EB000350708F08BCF9F5F90935D0202C09F3F64
:102EC000D1F71D81112359F00E9468159FEF11164B
:102ED0000CF491E0899F802D1124809364021E815F
:102EE000112359F00E9468159FEF11160CF491E020
:102EF000899F802D112480936502309164023323D1
:102F000009F464CF20916502222309F45FCF45EBD9
:102F10003403C0011124992359F09093640245EBC6
:102F2000240390011124332339F0309365024ECFEE
:102F300081E080936402F3CF81E08093650246CF05
:102F400086E0E0E6F2E0DF011D928A95E9F7109253
:102F50005E0210925D0210925F020895CF93DF939C
:102F6000EC0197FF0CC0FB018281882341F00E9495
:102F7000EF17CE019F770E9469180E94401881E0E8
:102F8000DF91CF9108959091D202923071F48A30FE
:102F900050F490E009966AE070E00E94B527875AE5
:102FA0000E948B0708958650FBCF0E941C0608954F
:102FB0008CE090E00E94492890E0B0E0A0E080938F
:102FC000D2029093D302A093D402B093D502089575
:102FD0006091D2028CE090E00E94572808950E94F0
:102FE000A21E869581708093D7020E94A21E8170D6
:102FF0008093D1028091D202813039F48091D7023E
:10300000882319F089E30E948B070E941B0F80938D
:10301000D6020E942E0F0E943E0F8091D202813074
:1030200089F0882359F0823091F0843021F18FE3C8
:103030009CE90197F1F700C00000089582EE0E941C
:103040008906F5CF88E193E00E945404F0CF809187
:10305000D102811103C083E50E948B0782EE0E949A
:1030600089068FE39CE90197F1F700C0000087E52E
:103070000E948B07DCCF86EE0E948B0788E1F8CF99
:103080008091D202813079F0882349F08230B1F00A
:103090008430E9F08091D6020E942B0F089582EED1
:1030A0000E941A07F7CF8CE20E948B078091D7020B
:1030B000882381F389E30E948B07ECCF82EE0E9484
:1030C0001A078091D1028111E5CF83E5F4CF88E220
:1030D000F2CF0F931F93CF93DF938C01CCE0D0E01E
:1030E000C8010C2E02C0969587950A94E2F78F705E
:1030F0000E94C3172497CC3F8FEFD80789F7DF9141
:10310000CF911F910F9108950F931F93CF93DF934A
:10311000EC018B01FB018281882361F00E941B0F6F
:10312000CE01825E9C458530910520F48093D202C9
:103130000E94E817B801CE010E94AE17DF91CF912F
:103140001F910F910895CF93DF93EC01FB018281D2
:10315000882309F433C1C430FDE5DF07C0F5CB3F58
:103160009CE5D90730F49E0122503C4524313105BD
:10317000B0F50E9421109093BC028093BB02C13134
:103180008CE5D80709F4EEC008F069C0C930ECE559
:10319000DE0709F4D5C0C8F5C5308CE5D80709F4B9
:1031A000C7C000F5C330ECE5DE0709F4B9C008F08C
:1031B000BBC0C230DC4509F4ADC08091BB02909128
:1031C000BC020E942F100E941B0A80E008C0C33678
:1031D000EDE5DE0771F2C73AFDE5DF0751F2DF9159
:1031E000CF9108958091BB028062C7309CE5D907DA
:1031F00009F493C08091BB028061C830DC4508F4BB
:103200008CC08091BB02806488C08091BB028B7FA0
:10321000CD30FCE5DF0709F480C098F48091BB0253
:103220008E7FCB309CE5D90709F477C08091BB0233
:103230008C60CC30DC4508F470C08091BB028D7F7F
:103240006CC08091BB028F7ECF30FCE5DF0709F4B4
:1032500064C008F47BC08091BB028F7D5EC0CE3F0E
:103260009CE5D90709F47AC050F5C531FCE5DF07C4
:1032700009F486C098F48091BB02837FC3319CE53A
:10328000D90709F44AC008F471C00E941B0A909142
:10329000BB02892F97FB87F980583FC0CC3FFCE5E4
:1032A000DF0709F449C008F055C08091BC02816075
:1032B000CB3FDC4509F081CF8093BC027ECFC2308A
:1032C000EDE5DE0709F468C0A8F4C1158DE5D8075F
:1032D00009F452C08091BC028360C130DD4560F3C7
:1032E0008091BC02982F909591708E7F892B90FBD6
:1032F00081F9E2CFC336EDE5DE0709F451C0C73AE4
:10330000FDE5DF0709F453C0C330DD4509F055CFB3
:1033100080E043C08091BB0281608093BB024DCFAF
:103320008091BB028260F9CF8091BB028460F5CFAF
:103330008091BB028860F1CF8091BC028260BCCFDB
:103340000E941B0A8091BB028068E7CF8091BB027C
:10335000877FE3CF8091BC028E7FAECF8091BC028D
:103360008D7FAACF8091BB028F7BD7CF0E941B0A93
:103370008091BB028F77D1CF8091BC028C7F9CCF94
:103380008091BB0282FB992790F921E0922790FB64
:1033900082F990FB83F9C1CF81E00E94BC100DCF70
:1033A0009091BB02892F8F7E94FF8061B6CF909160
:1033B000BB02892F8E7F90FF8160AFCF81E00FCF5E
:1033C0008832910558F48E319105B0F4049760F07D
:1033D00082E00E94310F0E945F0F0EC08D32910576
:1033E000B9F320F48A9741F080E008958C34910578
:1033F00019F08D329240C1F781E00895B0E0A0E06D
:10340000E4E0FAE10C94DA27EC017B018E3A9D4569
:1034100069F4FB011281112319F00E94AC1A10E02B
:10342000812FCDB7DEB7E7E00C94F6270E941B0F83
:10343000082F0E94410FD82E0E94791A811102C0D4
:1034400011E0EECF0E94701AF70112811123C1F32F
:103450000D290D79D9F5C115F5E5DF0700F5C11581
:1034600023E5D207E8F6C11580E5D80798F4C11521
:10347000E0E4DE0770F5C63ED10591F20E943E0FF2
:10348000CE010E94E019C82F882301F10E945F0F2E
:103490001C2FC6CFC115F2E5DF0780F7C1CFC115DC
:1034A00029E5D20750F4C11588E5D80708F0B8CF50
:1034B000C431E5E5DE0711F7B3CFCE019056811593
:1034C0009042E0F6F7018581807F41F40E948D1AD9
:1034D000A7CFF7018581807F09F4B2CFDD27CECF5A
:1034E0000E946B208854944F9093670280936602E9
:1034F000089580916802089508958091680281116D
:103500000BC00E942E0F0E94550F0E94701A81E07E
:10351000809368020E947C1A089580916802882333
:1035200041F082E20E94FE091092680280E00E944F
:103530007C1A089580916802882369F00E946B20AC
:103540002091660230916702821B930B8F3F9F4749
:1035500010F40E948D1A089580916802882319F052
:103560000E948D1A08950E947D1A0895CF93DF93CB
:10357000EB0186319C4511F50E941B0F9A8199231E
:1035800099F08A7A91E009F490E0909369028111B0
:1035900009C089E20E94F30E0E945F0F80E0DF9174
:1035A000CF91089585E3F6CF80916902811104C01F
:1035B00089E20E94FB0EF0CF85E3FBCF81E0EFCFE5
:1035C000B0E0A0E0E6EEFAE10C94D127EC01E8814E
:1035D000F981CF01815095458F3F910510F485E524
:1035E000F827DB0112964C90442009F45AC2EF3FB1
:1035F000F105A9F0A0F0EC32FD4521F010926A022D
:10360000A42D07C080916A0291E0892780936A0205
:10361000A0E08A2FCDB7DEB7E0E10C94ED27A091B2
:103620006A02AA2309F4E9C010926A02E03CF1059B
:10363000F0F5E038F10508F0AAC0E034F10508F033
:1036400070C021E030E040E050E060E070E080E0F9
:1036500090E00E2F0E940628B0916B022B2BB091A8
:103660006C023B2BB0916D024B2BB0916E025B2B29
:10367000B0916F026B2BB09170027B2BB0917102F5
:103680008B2BB09172029B2B20936B0230936C02B8
:1036900040936D0250936E0260936F0270937002BC
:1036A0008093710290937202F983E883B2CFEF3F67
:1036B000F10509F030F621E030E040E050E060E054
:1036C00070E080E090E08F01005C11090E94062804
:1036D000B09183022B2BB09184023B2BB0918502D9
:1036E0004B2BB09186025B2BB09187026B2BB09174
:1036F00088027B2BB09189028B2BB0918A029B2B85
:103700002093830230938402409385025093860273
:1037100060938702709388028093890290938A0253
:10372000C3CF21E030E040E050E060E070E080E0B6
:1037300090E08F01005411090E940628B091730295
:103740002B2BB09174023B2BB09175024B2BB09197
:1037500076025B2BB09177026B2BB09178027B2BBA
:10376000B09179028B2BB0917A029B2B209373023C
:1037700030937402409375025093760260937702FF
:10378000709378028093790290937A028DCF21E032
:1037900030E040E050E060E070E080E090E08F01D9
:1037A000005811090E940628B0917B022B2BB09182
:1037B0007C023B2BB0917D024B2BB0917E025B2BA8
:1037C000B0917F026B2BB09180027B2BB091810274
:1037D0008B2BB09182029B2B20937B0230937C0237
:1037E00040937D0250937E0260937F02709380022B
:1037F000809381029093820257CFE034F10508F064
:1038000067C070906B0280906C0290906D02D091B6
:103810006E02C0916F02B091700250907102609080
:10382000720221E030E040E050E060E070E080E0D3
:1038300090E00E2F0E94062859016A017B018C013D
:1038400027213B2D382149215D2D5D236C237F2DC0
:103850007B238521912F96210E941F2809F0D0CE2D
:10386000E03CF10508F08EC0E038F10508F0EBC04F
:10387000E034F10508F0B9C021E030E040E050E06C
:1038800060E070E080E090E00E2F0E940628209516
:10389000309540955095609570958095909527212D
:1038A000382149215D236C237B2385219621209398
:1038B0006B0230936C0240936D0250936E026093E2
:1038C0006F02709370028093710290937202A1CE86
:1038D000E038F105E0F470907302809074029090EB
:1038E0007502D0917602C0917702B0917802509023
:1038F000790260907A0221E030E040E050E060E040
:1039000070E080E090E08F010054110993CFE03C1B
:10391000F105E0F470907B0280907C0290907D0233
:10392000D0917E02C0917F02B091800250908102BE
:103930006090820221E030E040E050E060E070E022
:1039400080E090E08F010058110974CF70908302DD
:103950008090840290908502D0918602C091870267
:10396000B09188025090890260908A0221E030E094
:1039700040E050E060E070E080E090E08F01005CAB
:10398000110958CFEF3FF10511F008F075CF8F0105
:10399000005C110921E030E040E050E060E070E0C0
:1039A00080E090E00E940628209530954095509543
:1039B00060957095809590952721382149215D2348
:1039C0006C237B23852196212093830230938402EC
:1039D0004093850250938602609387027093880219
:1039E0008093890290938A0214CE8F0100541109AA
:1039F00021E030E040E050E060E070E080E090E006
:103A00000E940628209530954095509560957095B8
:103A1000809590952721382149215D236C237B23B4
:103A2000852196212093730230937402409375028E
:103A300050937602609377027093780280937902B4
:103A400090937A02E6CD8F010058110921E030E011
:103A500040E050E060E070E080E090E00E940628E6
:103A600020953095409550956095709580959095EE
:103A70002721382149215D236C237B238521962131
:103A800020937B0230937C0240937D0250937E0210
:103A900060937F02709380028093810290938202F0
:103AA000B8CDA1E0EF3FF10509F098F5E034F1055C
:103AB00090F580906B0290906C02D0916D02C09155
:103AC0006E02B0916F02A0917002609071027090CE
:103AD000720221E030E040E050E060E070E080E021
:103AE00090E00E2F0E94062859016A017B018C018B
:103AF00028213B2D39214D235D2D5C236B237F2D08
:103B00007A23A1E08621912F97210E941F2809F492
:103B1000A0E0A1707ECDE038F105E0F48090730262
:103B200090907402D0917502C0917602B0917702A4
:103B3000A09178026090790270907A028F0100540F
:103B4000110921E030E040E050E060E070E080E00A
:103B500090E0C8CFE03CF105A0F480907B0290900B
:103B60007C02D0917D02C0917E02B0917F02A09133
:103B7000800260908102709082028F0100581109CA
:103B8000E0CF8090830290908402D0918502C09112
:103B90008602B0918702A09188026090890270909D
:103BA0008A028F01005C1109CCCF0F931F93CF9332
:103BB000DF93C42FD22FFC0182818823C9F0409368
:103BC0008D020E946B2090938C0280938B0280E286
:103BD0008C0F883040F4C77081E001C0880FCA950F
:103BE000EAF70E949407DF91CF911F910F910895FA
:103BF00010918D02141332C080918B0290918C022F
:103C00000E9483208D37910548F5C0E2CD0F1D1726
:103C1000B9F080E2810F883040F4177081E001C074
:103C2000880F1A95EAF70E949B07C83048F481E094
:103C30009D2F977001C0880F9A95EAF70E9494070C
:103C4000802F0E948B07C83070F6D77081E001C0CA
:103C5000880FDA95EAF70E949B07C5CF80E28C0FA8
:103C6000883008F6C77081E001C0880FCA95EAF76E
:103C7000F2CF0F939C01CB01243F4CE5340759F15F
:103C8000A8F4293DFCE53F0701F12A3D4CE5340746
:103C9000D1F1283D3C4591F406E221EE41EE68ED7C
:103CA0007CE50E94D51D80E00F910895263FFCE53C
:103CB0003F07E9F0B0F0273F3C45F9F0FC01828175
:103CC000882339F110928D02EFCF07E225EE45EE01
:103CD00069ED7CE5E6CF06E221EE40EE64EF7CE59F
:103CE000E0CF07E225EE44EE65EF7CE5DACF06E2B1
:103CF00021EE42EE66EF7CE5D4CF07E225EE46EEFC
:103D000067EF7CE5CECF08E221E045EE6AED7CE589
:103D1000C8CF81E0C9CF90938D0180938C01089525
:103D200090939302809392020895E0919202F09111
:103D30009302309729F00190F081E02D09950895C4
:103D400080E008950E94951E0895E0919202F091FE
:103D50009302309799F020911601222359F0209177
:103D6000BB0227FF07C0DC012C9111962C93119701
:103D700026E02C930280F381E02D09950895E091CF
:103D80009202F0919302309739F022E0DC012C93FB
:103D90000480F581E02D09950895209190023091DD
:103DA00091022817390771F0909391028093900245
:103DB000E0919202F0919302309721F00680F78112
:103DC000E02D0995089520918E0230918F022817D9
:103DD000390771F090938F0280938E02E0919202E6
:103DE000F0919302309721F00084F185E02D099540
:103DF0000895FC01329680911601882321F080916C
:103E0000BB029EE187FF96E080E0915008F40895A0
:103E100021912223D1F38F5FF8CF662301F1209106
:103E200016012223F1F02091BB0227FF1AC0462F72
:103E30004695469546954E3190F4677021E030E006
:103E400002C0220F331F6A95E2F7840F911DFC0117
:103E5000828190E02823392381E0232B69F480E0DC
:103E60000895FC01329608962191261721F0E81753
:103E7000F907D1F7F4CF81E008959C01FC01329657
:103E80009FEF80E04191461751F09F3F19F4411197
:103E900001C0982F8F5F8630A9F79F3F09F40895DE
:103EA000290F311D97FD3A95F90162830895FC01B0
:103EB000329608962191261303C0DF0111971C92B8
:103EC000E817F907B9F70895E62FE695E695E69520
:103ED000EE3168F4E80FF92FF11D677021E030E052
:103EE00001C0220F6A95EAF78281822B82830895AE
:103EF000E62FE695E695E695EE3170F4E80FF92F9A
:103F0000F11D677021E030E001C0220F6A95EAF7E9
:103F1000209582812823228308952091160122234F
:103F200039F02091BB0227FF03C00E94641F08954F
:103F30000E943D1F089520911601222339F02091FF
:103F4000BB0227FF03C00E94781F08950E94571FDD
:103F50000895FC01329680911601882351F08091DA
:103F6000BB0287FF06C08EE1DF011D928A95E9F74B
:103F7000089586E0F9CF46E050E00E943C2821E019
:103F8000892B09F420E0822F089508950E94C51F0F
:103F90000895811106C081E0809394020E94C61F9B
:103FA000089582E0F9CF83E0809394020E94C61FB7
:103FB00008950E94C91F089581E0809394020E9491
:103FC000C61F08950E94DC1F0895089508950E9459
:103FD000E61F0895089508950E94E51F0895CF9360
:103FE0000E94EA1F0E949A140E94EB1FC0E08C2FCF
:103FF0000E94CF13892B31F4CF5FC530C1F780E029
:10400000CF91089581E0FCCF85B7806885BF85B7E3
:10401000806885BF08951F921FB61F9211248F9349
:104020009F93AF93BF9380919502811113C08091AC
:10403000D8029091D902A091DA02B091DB024196A8
:10404000A11DB11D8093D8029093D902A093DA02EA
:10405000B093DB02BF91AF919F918F911F901FBED4
:104060001F9018958091E002843031F10E9449053B
:104070001092950288E190E020E40FB6F894A8959C
:10408000809360000FBE2093600083B7817F8460BF
:1040900083BF83B7816083BF7894889583B78E7F11
:1040A00083BF0FB6F894A8958091600088618093D3
:1040B0006000109260000FBE08950E941B0A0E94CB
:1040C0004E05089582E084BD93E095BD9AEF97BDBB
:1040D00080936E0008952FB7F8948091D802909144
:1040E000D902A091DA02B091DB022FBF08952FB759
:1040F000F8946091D8027091D9028091DA0290917F
:10410000DB022FBF08959C014FB7F8948091D8022D
:104110009091D902A091DA02B091DB024FBF821BCD
:10412000930B089578941F921FB61F9211248F93BA
:104130009F93AF93BF938091D8029091D902A091A1
:10414000DA02B091DB020196A11DB11D8093D80265
:104150009093D902A093DA02B093DB02BF91AF91A2
:104160009F918F911F901FBE1F90189581E08093A3
:10417000E00080E28093D8001092C9008FE19EE4B5
:104180000197F1F700C0000087E090EBDC0180931D
:10419000E9029093EA02A093EB02B093EC0288E16B
:1041A0009CE00FB6F894A895809360000FBE9093A2
:1041B0006000FFCF88E19CE00FB6F894A89580934B
:1041C00060000FBE90936000FFCF8091B902089508
:1041D00008959C0182E08093E9009FEF8091E800C0
:1041E000915085FD06C085ED8A95F1F7000091118B
:1041F000F5CF8091E80085FF0CC050E040E066E01C
:1042000070E0C9010E942E238091E8008E77809390
:10421000E8000895CF93DF93EC0180911601882385
:10422000B1F18091BB0287FF32C060E282E08093EF
:10423000E9008FEF9091E800815095FD06C095ED63
:104240009A95F1F700008111F5CF8091E80085FF84
:104250001BC08091160170E050E040E0811104C065
:1042600050E040E068E070E0CE010E942E23809193
:10427000E8008E778093E80080E2FE01A9E9B2E0D1
:1042800001900D928A95E1F7DF91CF91089568E052
:1042900081E0CDCF8093960270939802609397024D
:1042A0008091E002843001F582E08093E9008FEF95
:1042B0009091E800815095FD06C095ED9A95F1F733
:1042C00000008111F5CF8091E80085FF0DC050E01E
:1042D00040E063E070E086E992E00E942E23809146
:1042E000E8008E778093E8000895BC0184E00E9486
:1042F0004A210895BC0183E00E944A2108958091DB
:10430000DF02811109C00E94BE240E941B258091FA
:10431000E20084608093E20008951092DF02089525
:104320000E94DC1F08956091DC0281E0611101C0F0
:1043300080E00E94D31F08959091E00281E09430C4
:1043400009F080E06091DC020E94D91F089542E0EC
:1043500061EC81E00E943A2442E261EC82E00E943A
:104360003A249091E00281E0943009F080E060917D
:10437000DC020E94C91F08958091E202833009F493
:1043800061C030F48130D1F1823009F49EC00895CB
:104390008A3009F48AC08B3009F46FC0893009F083
:1043A00050C08091E102813209F04BC08091E5025A
:1043B0009091E602029708F044C08091E800877F60
:1043C0008093E8008091E80082FF37C09091F3006D
:1043D0008091F200029731F48091F100813011F068
:1043E000863021F48091F1008093B9028091E80039
:1043F0008B778093E8000E946E2423C08091E102B5
:10440000813AF9F48091E800877F8093E8008091F9
:10441000E5029091E602892B61F460E289E992E07D
:1044200070E00E947D238091E8008B778093E80004
:10443000089560E090E080E0F3CF8091E002811188
:10444000C1CF08958091E102813AD9F78091E502C8
:104450009091E602892BA9F78091E800877F8093ED
:10446000E8008091E80080FFFCCF809116018093E6
:10447000F1008091E8008E77BCCF8091E10281321B
:1044800001F78091E5029091E602892BD1F68091A7
:10449000E800877F8093E8000E946E248091E30209
:1044A000809316010E941B0A08958091E1028132D7
:1044B00041F68091E800877F8093E8000E946E2497
:1044C0008091E4028093BA0208958091E102813ADA
:1044D00009F0B7CF8091E800877F8093E800809152
:1044E000E80080FFFCCF8091BA02C1CF84B7877FFC
:1044F00084BF0FB6F894A89580916000886180937E
:104500006000109260000FBE80E890E00FB6F89453
:1045100080936100909361000FBE0E94E21F089596
:104520000E94BE240E941B25E2EEF0E080818460A0
:10453000808378940E949A2708958AE091E00E94EF
:10454000901E08958091E002853031F48091E00260
:10455000853019F00E945D2008950E9432208091DC
:10456000DE02882399F30E94EF1F882379F30E94CB
:1045700018230E941B0AEACF08950E94C0220895C2
:10458000292F33272330310519F168F42130310503
:1045900009F444C02230310509F445C090E080E0C0
:1045A00030E020E025C02132310549F122323105C9
:1045B000A9F780E490E029E835E061157105C1F0C4
:1045C00086EB90E023ED34E06130710589F0E6CFB1
:1045D00099278130910581F0009729F00297F1F633
:1045E000E2E5F4E002C0E2E8F4E0849190E09F01AB
:1045F000FA01318320830895E8E6F4E0F6CF89E0FC
:1046000090E028E934E06115710591F389E090E0CC
:1046100021EB34E06130710559F3C0CF82E190E0C5
:1046200021EC34E0E5CF8BE390E026E834E0E0CF06
:1046300080E189BD82E189BD09B400FEFDCF809192
:10464000D8008F7D8093D8008091E00082608093B5
:10465000E0008091E00081FDFCCF0895AF92BF9211
:10466000CF92DF92FF920F931F93CF93DF936C0152
:10467000EB018A010E948D24F82E811123C00115BF
:10468000110539F0F80180819181C81BD90BC80E42
:10469000D91EB12CA12C2097A9F08091E80085FDAE
:1046A00022C08091E8008E778093E8000115110503
:1046B000A1F0F80180819181A80EB91EB182A0827B
:1046C00085E0F82E8F2DDF91CF911F910F91FF90F4
:1046D000DF90CF90BF90AF9008950E948D248823E3
:1046E000D1F2F82EEFCFF60181916F018093F100A6
:1046F0002197FFEFAF1ABF0ACECFFC018091E702EE
:104700009091E80286179707A0F06115710529F4CA
:104710009091E8009E779093E80090E06115710514
:1047200051F4911108C08091E80082FF34C080E00C
:104730000895BC01F2CF8091E0028823C1F1853059
:10474000C1F18091E80083FD30C08091E80082FDD6
:10475000EACF8091E80080FFE1CF8091F3002091C3
:10476000F200382F6115710519F02830310558F025
:1047700091E02830310509F090E02091E8002E7793
:104780002093E800CBCF81918093F10061507109B3
:104790002F5F3F4FE7CF8091E002882341F08530C3
:1047A00041F08091E80083FFBECF81E0089582E070
:1047B000089583E00895FC018091E7029091E8025A
:1047C00086179707A0F06115710529F48091E8001C
:1047D0008E778093E80090E06115710551F4911196
:1047E00008C08091E80082FF35C080E00895BC01D8
:1047F000F2CF8091E0028823C9F18530C9F1809120
:10480000E80083FD31C08091E80082FDEACF80910D
:10481000E80080FFE1CF8091F3002091F200382F73
:104820006115710519F02830310558F091E02830F4
:10483000310509F090E08091E8008E778093E800E0
:10484000CBCF84918093F1003196615071092F5F35
:104850003F4FE6CF8091E002882341F0853041F060
:104860008091E80083FFBDCF81E0089582E0089544
:1048700083E00895982F973028F08F708093E90097
:1048800081E008959093E900242F762F50E0981747
:1048900031F07091EC002091ED005091F00021FD7D
:1048A00002C09F5FE8CF3091EB003E7F3093EB007A
:1048B0003091ED003D7F3093ED003091EB003160A1
:1048C0003093EB007093EC002093ED005093F000D8
:1048D0002091EE0027FDE5CF80E008958091E10270
:1048E00087FF13C08091E80082FF06C08091E80036
:1048F0008B778093E80004C08091E0028111F2CFB1
:1049000008958091E0028823D9F38091E80080FF28
:10491000F8CF8091E8008E77ECCF2091E4003091C1
:10492000E50095E6A9012091EC00822F817020FF1F
:1049300006C08091E80080FF06C080E008952091C5
:10494000E80022FD1AC08091E002882389F08530BA
:1049500089F08091EB0085FD0FC02091E40030913B
:10496000E50042175307F9F29150E1F684E008950B
:1049700082E0089583E0089581E008950E942D2546
:104980000E943525E0EEF0E0808181608083E8EDD3
:10499000F0E080818F77808319BCA7EDB0E08C9127
:1049A0008E7F8C9380818F7E80831092DF020895AA
:1049B0000F931F93CF93DF930E942D250E943525DF
:1049C000C8EDD0E088818F7788838881806888836C
:1049D00088818F7D888319BC1092E0021092DC02DE
:1049E0001092DE021092DD0200EE10E0F8018081EC
:1049F0008B7F808388818160888342E060E080E0F3
:104A00000E943A24E1EEF0E080818E7F8083E2EE26
:104A1000F0E0808181608083808188608083F801FC
:104A200080818E7F8083888180618883DF91CF91B0
:104A30001F910F910895E8EDF0E080818F7E8083D3
:104A4000E7EDF0E080818160808384E082BF81E0D7
:104A50008093DF020E94D8240895E8EDF0E0808181
:104A60008E7F80831092E20008951092DA001092F7
:104A7000E10008951F920F920FB60F9211242F9309
:104A80003F934F935F936F937F938F939F93AF93D6
:104A9000BF93EF93FF938091E10082FF0BC0809161
:104AA000E20082FF07C08091E1008B7F8093E100EC
:104AB0000E9499278091DA0080FF19C08091D80068
:104AC00080FF15C08091DA008E7F8093DA0080919C
:104AD000D90080FF96C080E189BD82E189BD09B41B
:104AE00000FEFDCF81E08093E0020E947F21809153
:104AF000E10080FF19C08091E20080FF15C0809125
:104B0000E2008E7F8093E2008091E20080618093DA
:104B1000E2008091D80080628093D80019BC85E0C3
:104B20008093E0020E9493218091E10084FF2BC0DA
:104B30008091E20084FF27C080E189BD82E189BDC8
:104B400089B5982F917080FFFBCF8091D8008F7D21
:104B50008093D8008091E1008F7E8093E100809166
:104B6000E2008F7E8093E2008091E200816080937A
:104B7000E2008091DC02882309F449C084E080933C
:104B8000E0020E949C218091E10083FF29C0809176
:104B9000E20083FF25C08091E100877F8093E100E0
:104BA00082E08093E0021092DC028091E1008E7F2F
:104BB0008093E1008091E2008E7F8093E2008091FB
:104BC000E20080618093E20042E060E080E00E94C9
:104BD0003A248091F00088608093F0000E94902138
:104BE000FF91EF91BF91AF919F918F917F916F91C5
:104BF0005F914F913F912F910F900FBE0F901F909B
:104C0000189519BC1092E0020E948D2170CF8091FE
:104C1000E30087FD93E09093E002B3CF1F920F92E1
:104C20000FB60F9211242F933F934F935F936F937F
:104C30007F938F939F93AF93BF93CF93DF93EF9324
:104C4000FF93D091E900DF708091EC00C82FC17014
:104C500080FDC0E81092E9008091F000877F80938A
:104C6000F00078940E9452261092E9008091F000A2
:104C700088608093F000CD2BCF70C093E900FF9146
:104C8000EF91DF91CF91BF91AF919F918F917F91E4
:104C90006F915F914F913F912F910F900FBE0F90A9
:104CA0001F901895AAE2B0E0E8E5F6E20C94DE2742
:104CB00081EE92E02091F100FC012193CF01F2E01E
:104CC000893E9F07B9F70E94BC218091E80083FFCD
:104CD0001EC18091E1029091E2029A3008F017C162
:104CE000E92FF0E0E756F74D0C94C927803899F08A
:104CF000823809F00CC18091E5028F70873008F08E
:104D000006C18093E9008091EB0085FB882780F93C
:104D10001092E90006C08091DD029091DE029111AF
:104D200082609091E800977F9093E8008093F10073
:104D30001092F1008091E8008E77E5C0882309F495
:104D4000D3C0823009F0E3C08091E3028111D6C064
:104D50008091E5028F702FEF280F263008F0D7C022
:104D60008093E9002091EB0020FFC8C0933031F41C
:104D70008091EB0080628093EB00C0C09091EB00CB
:104D800090619093EB0021E030E001C0220F8A9502
:104D9000EAF72093EA001092EA008091EB00886025
:104DA000EACF8111B4C01091E3021F778091E30034
:104DB0008078812B8093E3008091E800877F809347
:104DC000E8000E946E248091E80080FFFCCF809173
:104DD000E30080688093E30082E0111183E0809318
:104DE000E00295C08058823008F091C08091E302C3
:104DF0009091E4028C3D23E09207A1F583E08A8341
:104E00008AE289834FB7F894DE01139620E03EE0F2
:104E100051E2E32FF0E050935700E49120FF03C0EC
:104E2000E295EF703F5FEF708E2F90E0EA30C0F0B8
:104E3000C7968D939D932F5F243159F74FBF809173
:104E4000E800877F8093E8006AE270E0CE01019677
:104E50000E947D238091E8008B778093E80057C003
:104E6000C096E7CF6091E5027091E602AE014F5F18
:104E70005F4F0E94BD22BC01892B09F448C090916C
:104E8000E800977F9093E80089819A810E94DB2354
:104E9000E1CF8038E1F58091E800877F8093E800DA
:104EA0008091DC028093F10045CF811130C0909158
:104EB000E302923060F58091E800877F8093E800FC
:104EC0009093DC020E946E248091DC02882311F012
:104ED00084E005C08091E30087FDFACF81E08093F4
:104EE000E0020E94A72113C08091E302813079F48F
:104EF00081E0933009F080E08093DE021092E900B7
:104F00008091E800877F8093E8000E946E24809162
:104F1000E80083FF0AC08091E800877F8093E80063
:104F20008091EB0080628093EB00AA96E3E00C9402
:104F3000FA270895CF938091E0028823A1F0C091D1
:104F4000E900CF709091EC00892F817090FD80E88E
:104F5000C82B1092E9008091E80083FD0E94522640
:104F6000CF70C093E900CF91089597FB072E16F4F8
:104F7000009407D077FD09D00E94282807FC05D0AF
:104F80003EF4909581959F4F0895709561957F4F60
:104F90000895EE0FFF1F0590F491E02D09942F92D4
:104FA0003F924F925F926F927F928F929F92AF92B9
:104FB000BF92CF92DF92EF92FF920F931F93CF9306
:104FC000DF93CDB7DEB7CA1BDB0B0FB6F894DEBF9D
:104FD0000FBECDBF09942A88398848885F846E84C3
:104FE0007D848C849B84AA84B984C884DF80EE800D
:104FF000FD800C811B81AA81B981CE0FD11D0FB616
:10500000F894DEBF0FBECDBFED010895002E08302D
:1050100090F0982F872F762F652F542F432F322F04
:1050200022270850F4CF220F331F441F551F661F3D
:10503000771F881F991F0A95B2F7002D08952A152A
:105040003B054C055D056E057F05800791070895BA
:10505000AA1BBB1B51E107C0AA1FBB1FA617B7079E
:1050600010F0A61BB70B881F991F5A95A9F78095BA
:105070009095BC01CD010895FB01DC0104C08D9128
:105080000190801921F441505040C8F7881B990BBA
:105090000895F999FECF92BD81BDF89A992780B500
:1050A0000895A8E1B0E042E050E00C947D28262F5E
:1050B000F999FECF92BD81BDF89A019700B402160E
:1050C00039F01FBA20BD0FB6F894FA9AF99A0FBEBC
:1050D00008950396272F0E9458280E945728252FAD
:1050E0000E945828242F0C9458280196272F0E949C
:1050F00058280C945728DC01CB01FC01F999FECF0C
:1051000006C0F2BDE1BDF89A319600B40D9241504F
:105110005040B8F70895F894FFCFDD07DD070E087B
:105120000E089B08B7083D083D08C2084E095D09F6
:105130005D0976269E2687279E268727D126F2267A
:06514000872749275527CF
:105146002102280850011E051901E5200A21E9203F
:105156007A217521E82001E200E900EA00B500B6EF
:1051660000B700CD008301CC008A01920194012191
:1051760002230224022502260227022A02B300B4D1
:10518600006F007000818283E200E900EA00B5004A
:10519600B600B700CD008301CC008A0192019401CC
:1051A6002102230224022502260227022A02B30034
:1051B600B4006F007000818283F7676636353497D6
:0C51C60096949593929190F0F1F4F5F618
:00000001FF
