:100000000C9474050C9491050C9491050C94910535
:100010000C9491050C9491050C9491050C94910508
:100020000C9491050C9491050C94941A0C94A61FB1
:100030000C94AA300C9491050C9491050C949105A4
:100040000C9491050C9491050C9491050C949105D8
:100050000C9491050C946D1B0C9491050C949105D6
:100060000C9491050C9491050C9491050C949105B8
:100070000C9491050C9491050C9491050C949105A8
:100080000C9491050C9491050C9491050C94910598
:100090000C9491050C9491050C9491050C94910588
:1000A0000C9491050C9491050C949105050109029D
:1000B000A10185020901A1000509190129081500FE
:1000C0002501950875018102050109300931158165
:1000D000257F95027508810609381581257F9501D0
:1000E00075088106050C0A38021581257F95017572
:1000F000088106C0C005010980A101850319012AF4
:10010000B700150126B700950175108100C0050CD8
:100110000901A101850419012AA002150126A002E6
:10012000950175108100C005010906A1018506052C
:100130000719E029E71500250195087501810205D9
:1001400007190029EF1500250195F07501810205B9
:10015000081901290595057501910295017503910D
:1001600001C00660FF0961A1010962150026FF00B8
:100170009520750881020963150026FF00952075FA
:10018000089102C005010906A101050719E029E748
:1001900015002501950875018102950175088101F9
:1001A0000507190029FF150026FF0095067508812F
:1001B000000508190129059505750191029501753C
:1001C000039101C00103E1000000000000000000F5
:1001D000000000000000000000000000000000001F
:1001E0000000000000000000000000007E0F00D4AE
:1001F000FFFFFFC7000000780000000000000000C3
:100200002A2B280000000000000000000000000071
:1002100000000029000000002C1E3420212224347C
:100220002627252E362D3738271E1F20212223244E
:1002300025263333362E37381F0405060708090AEA
:100240000B0C0D0E0F101112131415161718191A86
:100250001B1C1D2F3130232D350405060708090A04
:100260000B0C0D0E0F101112131415161718191A66
:100270001B1C1D2F3130354C0103E1000102E10050
:100280000102E00101170103E0010435307C0102A5
:10029000E001010F0103E0000102E101011F010380
:1002A000E1010435307C0102E101011F0103E1019C
:1002B0000435307C01015000010134010435307CEB
:1002C000010134010435307C010150000102E101DB
:1002D00001360103E1010435307C0102E1010137FF
:1002E0000103E1010435307C010150000102E1010C
:1002F000012F0103E1010435307C0102E1010130ED
:100300000103E1010435307C0101500001012F019E
:100310000435307C010130010435307C010150008E
:100320000102E10101260103E1010435307C0102F3
:10033000E10101270103E1010435307C0101500096
:1003400001014C0001014C0001014D0001014A0076
:1003500001014A010436307C010128010436307C59
:10036000010152010436307C0102E0010119010350
:10037000E00001014A010436307C01012801043605
:10038000307C0101520001014A010436307C010237
:10039000E101014D0103E1010436307C0102E0017D
:1003A00001060103E00001014A010436307C01022C
:1003B000E101014D0103E1010436307C01012A0015
:1003C00001014A010436307C0102E101014D0103C3
:1003D000E1010436307C01012A0001014D0104369F
:1003E000307C010128010436307C0102E001011952
:1003F0000103E00001014D010436307C01012800B9
:100400000102E101014D0103E1010436307C0101EB
:100410002A002B042B012961E100E00000001E00EE
:10042000140004001D00640036021F001A001600AC
:100430001B0035002B002000080007000600E2002A
:100440002C00210015000900190001582F0222007C
:1004500017000A00050000002602230046000000E5
:10046000B05D00002F002400AE5D000014500000BD
:10047000300025001C000B001100000027022600A0
:1004800018000D0010000258300227000C000E006A
:10049000360034002A002D0012000F0037001F0222
:1004A00028002E00130033003800320037020353B7
:1004B0000007E300E1004C0000000100AC00010077
:1004C0000100010000003A001A01BB5D01000100BB
:1004D000C15D3B004F011601BC5D010001003C0005
:1004E0000F014C01B25D010001003D001C01010043
:1004F000C55D0100C05D3E00C45D015750010000B4
:10050000BE5D3F000100000001000000BF5D400033
:100510000100000001000000010041000601500040
:1005200001000000010042001D0151000100010016
:1005300001004300BA5D52000100C25D2A0144007F
:10054000B35D4F000100C35D01004500B45DAE0026
:100550000901C45C01000100AB0001000100C35CA3
:1005600000000100AC0001000100010000001E01BC
:100570001A014D000100FD004B001F014F01160143
:10058000BD5DFE00500920010F01B55DB65DFF00A5
:10059000F1002101150101004900010001002201C3
:1005A0000100025750010000FB002301460000003B
:1005B00001000000FA002401010000000100000019
:1005C000F9002501B75DEF0001000000FC002601E5
:1005D0001D01EE00010001000100A8004A00ED002D
:1005E00001000100F200AA00B85DF0000100010066
:1005F0004F09A900B95DAE00090101004E000100DC
:10060000AB00010001000100000001000100010039
:100610000100CD5C000059004C0001000100CC5CE1
:10062000C75C5A00F10016011B01C95C01005B00A8
:100630000F05F200FD00010001005C00150105013D
:10064000FE00C85CCB5C5D0001000100FF00000003
:10065000FB005E000100000001000000FA005F00E6
:100660000100000001000000F90060000601EF0039
:10067000AC000000FC0061001D01EE00AA000100BA
:10068000CA5C62000100ED00A90001000100010048
:100690000100F000AB00010001005300190101004E
:1006A000A800AF5DC65C01000100C35C0100005CF6
:1006B0000000010001000100010001000000010034
:1006C0000100010001000100010001000100010022
:1006D0000100010001000100010001000100010012
:1006E0002B0001000100010001002C0001000100AD
:1006F00001000100010000000100010001000000F4
:100700000100000001000100010000001050000085
:1007100001000100010001000100000001000100D2
:100720000100010001001150010001000100010061
:1007300001000100010001000100010001000100B1
:1007400001000100010001000100010001000100A1
:100750000100010001000100000000010101010190
:10076000010101010202020202020202020303036A
:10077000030303030304040404040404050505053A
:1007800005060606060607070707070808080809FA
:100790000909090A0A0A0B0B0B0C0C0C0D0D0D0EA6
:1007A0000E0E0F0F0F10101111111212131314143B
:1007B000151516161717181819191A1A1B1B1C1DB0
:1007C0001D1E1E1F20202122222324242526262709
:1007D0002829292A2B2C2D2D2E2F3031323233343B
:1007E00035363738393A3B3C3D3E3F404142434441
:1007F00045464748494A4C4D4E4F50515354555623
:1008000058595A5B5D5E5F616264656668696B6CCE
:100810006D6F7072737577787A7B7D7E8082838549
:1008200087888A8C8E8F91939596989A9C9EA0A289
:10083000A3A5A7A9ABADAFB1B3B5B7BABCBEC0C293
:10084000C4C6C9CBCDCFD1D4D6D8DBDDDFE2E4E757
:10085000E9EBEEF0F3F5F8FAFDFF004434540074D0
:10086000648400554565008575950036264600660A
:100870005676009686A600372747007767870038A8
:1008800028480088789800392949006959790099E1
:1008900089A9003A2A4A006A5A7A003B2B4B006B1E
:1008A0005B7B004C3C5C007C6C8C005D4D6D008D76
:1008B0007D9D003E2E4E006E5E7E014434540174D8
:1008C00064840155456501857595013626460166A6
:1008D0005676019686A60137274701776787013844
:1008E000284801887898013929490169597901997D
:1008F00089A9013A2A4A016A5A7A013B2B4B016BBA
:100900005B7B014C3C5C017C6C8C015D4D6D018D11
:100910007D9D013E2E4E016E5E7E0A0000000000AD
:100920000306B200080001000000A8000800020051
:100930000300A0001400030057494E555342000025
:1009400000000000000000008400040007002A00EE
:1009500044006500760069006300650049006E0090
:100960007400650072006600610063006500470066
:100970005500490044007300000050007B0039001E
:1009800044004200370046003100460044002D007C
:1009900037004500370041002D00340030003000A2
:1009A00038002D0039003300360042002D0036009B
:1009B000420041003600430031003900410033005D
:1009C0003000380063007D00000000000E03016469
:1009D0006F63732E716D6B2E666D000902720004D9
:1009E0000100A0FA0904000001030101000921111E
:1009F00001000122400007058103080001090401EC
:100A00000002030000000921110100012222000759
:100A100005820320000107050303200001090402E9
:100A200000010300000009211101000122B60007A6
:100A30000584032000010904030002FF00000007F1
:100A40000585034000050705060340000512011057
:100A500002000000089732764901000102000120DF
:100A6000034500720067006F0044006F00780020AB
:100A70000045005A00200047006C006F007700001E
:100A80000028035A00530041002000540065006311
:100A90000068006E006F006C006F00670079002036
:100AA000004C0061006200730000000403090405AB
:100AB0000F3900021C100500DF60DDD88945C74CE6
:100AC0009CD2659D9E648A9F00000306B20045008B
:100AD0001810050038B60834A909A0478BFDA07688
:100AE0008815B6650001420011241FBECFEFDAE081
:100AF000DEBFCDBF25E0AEE9B2E001C01D92A33953
:100B0000B207E1F712E0A0E0B1E0E4E4F3E702C0ED
:100B100005900D92AE39B107D9F70E94D1300C94EF
:100B200057390C94000090918605937061F0811103
:100B30000BC09460909386051092620180918505A8
:100B40008160809385050895883110F09C65F2CF0F
:100B5000880F880F982BEECF90918605937059F0EF
:100B6000809387056093880540938905809185056A
:100B70008160809385050895E8EDF0E080818E7FA7
:100B800080831092E2001092DA001092E100A0EE51
:100B9000B0E08C9181608C9380818F77808319BCC9
:100BA000A7EDB0E08C918E7F8C9380818F7E8083C7
:100BB00010924F0508952091E4003091E50095E6EC
:100BC000A9012091EC00822F817020FF06C0809146
:100BD000E80080FF06C080E008952091E80022FD33
:100BE0001AC080918E05882389F0853089F0809124
:100BF000EB0085FD0FC02091E4003091E500421725
:100C00005307F9F29150E1F684E0089582E00895E7
:100C100083E0089581E00895EF92FF920F931F9370
:100C2000CF937C018B010E94DB05C82F882371F0D4
:100C30008C2FCF911F910F91FF90EF900895F701A6
:100C400081917F018093F100015011090115110577
:100C500079F38091E80085FDF2CF8091E8008E77EE
:100C60008093E8000E94DB05882381F3C82FE0CF42
:100C7000CF93FC0180918E05843031F5C091E9005D
:100C8000CF702091EC00922F917020FD90E8C92B3D
:100C900082E08093E9008091E80080FF12C050E07C
:100CA00040E060E270E0CF010E940C06882321F052
:100CB00010928C0510928D058091E8008E778093BC
:100CC000E800CF70C093E900CF910895EF92FF92B2
:100CD0000F931F93CF937C018B010E94DB05C82FDC
:100CE000811117C08091E80085FD0BC08091E8005C
:100CF0008B778093E8000E94DB05882399F3C82F47
:100D000008C08091F100F70181937F010150110922
:100D100049F78C2FCF911F910F91FF90EF9008957D
:100D20008091760587FF13C08091E80082FF06C09E
:100D30008091E8008B778093E80004C080918E0555
:100D40008111F2CF089580918E058823D9F3809187
:100D5000E80080FFF8CF8091E8008E77ECCF982FE5
:100D60009093E900242F762F50E0891731F070918D
:100D7000EC002091ED005091F00021FD07C09F5F35
:100D8000973071F78093E90081E008953091EB008E
:100D90003E7F3093EB003091ED003D7F3093ED00CE
:100DA0003091EB0031603093EB007093EC002093B6
:100DB000ED005093F0002091EE0027FDE0CF80E0A1
:100DC0000895B0E0A0E0E7EEF6E00C949636C8EDAA
:100DD000D0E088818F7E8883E7EDF0E080818160BC
:100DE000808384E082BF81E080934F0588818E7F7D
:100DF000888302EE10E0F80110821092DA0081EE92
:100E0000C82ED12CF601108288818F778883888143
:100E10008068888388818F7D888319BC10928E05B5
:100E200010927505109274051092730590EEE92EDC
:100E3000F12CF70180818B7F80838881816088839A
:100E400042E060E080E00E94AF06F60180818E7F84
:100E50008083F801808181608083808188608083C5
:100E6000F70180818E7F8083888180618883CDB700
:100E7000DEB7E8E00C94B236FC0180917C059091DD
:100E80007D0586179707A0F06115710529F48091FB
:100E9000E8008E778093E80090E06115710551F4C9
:100EA000911108C08091E80082FF35C080E008956C
:100EB000BC01F2CF80918E058823C9F18530C9F13C
:100EC0008091E80083FD31C08091E80082FDEACF87
:100ED0008091E80080FFE1CF8091F3002091F20043
:100EE000382F6115710519F02830310558F091E05F
:100EF0002830310509F090E08091E8008E778093EA
:100F0000E800CBCF84918093F10031966150710954
:100F10002F5F3F4FE6CF80918E05882341F08530CB
:100F200041F08091E80083FFBDCF81E0089582E029
:100F3000089583E00895FC0180917C0590917D05E2
:100F400086179707A0F06115710529F49091E800C4
:100F50009E779093E80090E06115710551F491112E
:100F600008C08091E80082FF34C080E00895BC0191
:100F7000F2CF80918E058823C1F18530C1F1809137
:100F8000E80083FD30C08091E80082FDEACF8091C7
:100F9000E80080FFE1CF8091F3002091F200382F2C
:100FA0006115710519F02830310558F091E02830AD
:100FB000310509F090E02091E8002E772093E800B9
:100FC000CBCF81918093F100615071092F5F3F4F2A
:100FD000E7CF80918E05882341F0853041F08091E4
:100FE000E80083FFBECF81E0089582E0089583E0AA
:100FF0000895089580915205089520918E0524301A
:1010000099F425E02093E90070E050E040E00E9470
:101010000C06882321F01092480510924905809112
:10102000E8008E778093E800089520915E012223E6
:10103000C9F020914A0527FF15C0E62FE695E695F1
:10104000E695EE31D8F4E80FF92FF11D677021E035
:1010500030E001C0220F6A95EAF7209582812823AB
:1010600022830895FC01329608962191621303C0F1
:10107000DF0111971C92E817F907B9F7089520913D
:101080004105309142052817390771F090934205C8
:1010900080934105E0913F05F0914005309721F0A4
:1010A0000084F185E02D0995089520913D0530914A
:1010B0003E052817390771F090933E0580933D0552
:1010C000E0913F05F0914005309721F00680F781CF
:1010D000E02D09950895E0913F05F0914005309786
:1010E00029F00190F081E02D0995089580E00895A0
:1010F000FA01811101C0FB0109950895E6E8F5E0C8
:10110000248130E1231B08F420E0248380918505AD
:101110008160809385050895E6E8F5E0248130E15B
:10112000230F08F42FEF248380918505816080933D
:1011300085050895E6E8F5E0438120E1421B08F4C7
:1011400040E08181628190E00E94AC050895E6E86C
:10115000F5E0438120E1420F08F44FEF8181628185
:1011600090E00E94AC050895E6E8F5E0628120E198
:10117000621B08F460E08181438190E00E94AC052D
:101180000895E6E8F5E0628120E1620F08F46FEF70
:101190008181438190E00E94AC050895E6E8F5E086
:1011A0008181438162818850990B0E94AC0508952A
:1011B000E6E8F5E0818190E04381628108960E9433
:1011C000AC0508958091860586958695815009F431
:1011D00087E10E94930508958091860586958695FE
:1011E0008F5F883108F081E00E94930508950F9386
:1011F0001F9310E0F801EE0FFF1FE25FFD4F90819B
:10120000905797FD9195000F111FF801E15FFD4F79
:1012100000810052110B2003F001219FF00D1124D9
:1012200008E310E0091B110997FD13954003900195
:10123000419F300D1124E20FF31F9F01220F331F36
:101240002E0F3F1F37FF02C021583F4F220F232F81
:10125000221F330B620F1F910F9108950F931F935D
:10126000522F10E0F801EE0FFF1FE15FFD4FA0814C
:10127000A052BB0B9D015203F001539FF00D1124AE
:10128000000F111FD801A25FBD4F0C910057110B29
:1012900040039001419F300D11242E0F3F1F37FF57
:1012A00002C0215C3F4F96E0359527959A95E1F76E
:1012B000620F1F910F9108950F931F93522F10E00B
:1012C000F801EE0FFF1FE15FFD4FA081A052BB0BA5
:1012D0009D015203F001539FF00D1124000F111FC7
:1012E000D801A25FBD4F0C910057110B4003900134
:1012F000419F300D11242E0F3F1F37FF02C0215890
:101300003F4F220F232F221F330B620F1F910F918C
:101310000895EF920F93972F23E0029FB0011124BD
:10132000759567956E0D792F0F91EF900895322F77
:1013300050E0FA01EE0FFF1FE15FFD4F90819052E8
:1013400097FD9195440F551FFA01E25FFD4F2081F3
:10135000231B330B290F311D97FD3A95620F08951A
:10136000E42FF0E0EE0FFF1FE15FFD4F6081621B95
:101370000895E42FF0E0EE0FFF1FE25FFD4F608164
:10138000621B0895E42FF0E0EE0FFF1FE25FFD4FB8
:10139000408134EE439F412D1124E82FF0E050E0CE
:1013A000445E5F4FDA01A21BB1099D01B7FF03C084
:1013B00031952195310993E0220F331F9A95E1F77A
:1013C000AF01421B530B9A0157FD20E0582F259F78
:1013D000212D1124822F0895E42FF0E0EE0FFF1F3E
:1013E000E25FFD4F408134EE439F412D1124E72FF2
:1013F000F0E050E0445E5F4FDA01A21BB1099D01AD
:10140000B7FF03C031952195310993E0220F331FB7
:101410009A95E1F7AF01421B530B9A0157FD20E06B
:10142000279F212D1124722F08950E94741308956F
:101430000E9436130895FC019B01009729F480E077
:1014400077FF2BC080E80895AC0197FF04C04427C4
:101450005527481B590BB901640F751F37FD10C084
:10146000241B350BC901A5E0880F991FAA95E1F748
:101470000E94C33680E2861BF7FF0FC08195089556
:10148000CB0165E0880F991F6A95E1F7BA01621BED
:10149000730B0E94C33680E6EECF0895EF920F9350
:1014A000CF93DF93D72FC82FC9010E19BA010E941D
:1014B0001B0A602F681B7D2F8C2FDF91CF910F911E
:1014C000EF9008950F93CF93DF93D72FC82FC901C3
:1014D000BA010E941B0A682F600F7D2F8C2FDF91AD
:1014E000CF910F910895EF920F931F93CF93DF93B6
:1014F000D62FC72F182FC9010E19010FBA010E944C
:101500001B0A081B202F219F212D1124822F6D2FB4
:101510007C2FDF91CF911F910F91EF900895EF9263
:101520000F931F93CF93DF93D62F172FC82FC90187
:101530000E19070FBA010E941B0A702F781B719FAA
:10154000712D11246D2F8C2FDF91CF911F910F9151
:10155000EF9008950F931F93CF93DF93D62FC72F4C
:10156000182FC901212F201B022FBA010E941B0A2C
:10157000982F990F990F891B800F282F219F212DBC
:101580001124822F6D2F7C2FDF91CF911F910F910E
:1015900008950F931F93CF93DF93D62F172FC82F44
:1015A000C901272F201B022FBA010E941B0A982F66
:1015B000990F990F782F791B700F719F712D11243E
:1015C0006D2F8C2FDF91CF911F910F910895E82FF0
:1015D00086FDE0952E2F2F7086FD2F5FE695E69510
:1015E000E695E670F0E0ED55FE4F9181929F902DCB
:1015F000212D112492959F702295207F922B20817E
:10160000920F87FD919580E8890F0895AC01823093
:10161000910508F408959FEF413E8EE1580740F48C
:101620009A0195E0369527959A95E1F798E0920F03
:1016300061E0E62FE90FFF27FF1F9F0135952795F2
:10164000822F229FF001239FF00DF00D11244E17E1
:101650005F0738F49FEF920F961758F78FEF860FBA
:1016600008952F3FE9F361E0620FF6CF0F93CF9318
:10167000DF93D72FC82F47FD419588E390E0841B67
:10168000910947FD9395889FB001899F700D700D5A
:101690001124229FC001239F900D900D1124860FCD
:1016A000971F0E94060B982F990F890F682F600FC4
:1016B0007D2F8C2FDF91CF910F91089530E020E0A6
:1016C000869F212D969F200D311D1124C90108955B
:1016D000AF92BF92CF92DF92FF920F931F93CF935F
:1016E000DF93362F472FE82FF0E0E65AF84F7111BD
:1016F0000FC0E4918E2F2E2F6E2F722FDF91CF917E
:101700001F910F91FF90DF90CF90BF90AF90089501
:10171000C72FD0E02491F22E022F10E056E0659FF3
:10172000C0011124EFEFF0E0BF010E947836832F53
:1017300090E0880F991F35E5369FD001379FB00D97
:1017400011248A1B9B0B982F990F980F6F01CC1AAD
:10175000DD0AC09ED001C19EB00DD09EB00D1124F7
:101760008B2F499FA0011124452F55276F01C41AC3
:10177000D50AC09EA001C19E500DD09E500D1124CF
:101780005F01A91AB108AC9E6001AD9ED00CBC9E51
:10179000D00C1124CD2CDD24EC19FD09E09FE001D3
:1017A000E19FD00DF09FD00D1124ED2F6230710517
:1017B000A1F050F46115710509F49ECF61307105F7
:1017C00081F0EB2F852F98CF6430710569F080F0A0
:1017D0006630710509F490CFF4CFE22F2B2F8D2FB7
:1017E0008BCFE22F252F88CFEB2F822F2D2F84CF69
:1017F0002B2F8F2DE52F80CFB0E0A0E0E2E0FCE0C2
:101800000C9493366C0180915F01C82FCC0FCC0FE4
:10181000C80F15E01C0FB12E113310F030E3B32EBA
:1018200060918A056695669580917E0590917F0509
:101830000E945E0BF82E80E48F0D0E94E70A90E86C
:10184000A92EA80E8F2D0E94E70A20E8922E980E4E
:10185000D0E0CB1548F081E0103308F080E0CDB740
:10186000DEB7EBE00C94AF36FE01E259FD4F80810C
:10187000909160018923A1F060918705709188059E
:1018800080918905EF2C0C2F292D4A2DF601099501
:101890000E94680B462F282F672FCE010E94180A3E
:1018A0002196D7CFB0E0A0E0E8E5FCE00C949136BB
:1018B0005C0180915F01C82FCC0FCC0FC80F15E0E1
:1018C0001C0FF12E113310F030E3F32E60918A05D6
:1018D000669580917E0590917F050E945E0B782E23
:1018E000D0E0CF1548F081E0103308F080E0CDB7AC
:1018F000DEB7EDE00C94AD36FE01E259FD4F80817C
:10190000909160018923C9F1CE01880F991F8654F7
:101910009E4FFC01EC5AFF4F2081422F4057550B40
:101920006A018B5A9F4FFC018081282F2052330B74
:101930004901449F9001459F300D300D1124889C32
:10194000C001899C900D900D1124820F931F0E945D
:10195000060B082F60918705709188058091890595
:10196000E72C9401A601F50109950E94680B462F0A
:10197000282F672FCE010E94180A2196B2CFB0E01F
:10198000A0E0E5ECFCE00C9496367C0180915F01D0
:10199000C82FCC0FCC0FC80F15E01C0FD12E113360
:1019A00010F030E3D32E60918A05669580917E0514
:1019B00090917F050E945E0BC82ED0E0CD1548F0B7
:1019C00081E0103308F080E0CDB7DEB7E8E00C949A
:1019D000B236FE01E259FD4F80819091600189236A
:1019E00011F1CE01880F991F86549E4FFC01EB5ACE
:1019F000FF4F20812052330B8C5A9F4FFC014081B6
:101A00004057550B60918705709188058091890535
:101A10000C2DF70109950E94680B462F282F672F80
:101A2000CE010E94180A2196C9CFB0E0A0E0EBE1F8
:101A3000FDE00C9497367C0180915F01C82FCC0F9C
:101A4000CC0FC80F15E01C0F012F113308F000E375
:101A500060918A056695669521E0620F08F46FEF44
:101A600080917E0590917F050E945E0BD82ED0E07C
:101A7000C01748F081E0103308F080E0CDB7DEB742
:101A8000E7E00C94B336FE01E259FD4F808190915E
:101A90006001892391F0609187057091880580919C
:101AA00089052D2D4C2FF70109950E94680B462FB3
:101AB000282F672FCE010E94180A2196D9CF409176
:101AC000D4038D3E59F48091D50387FF0DC0109249
:101AD000D50341110BC01092CC0308C08E3E81F497
:101AE0008091D50318169CF3442381F08091D6038E
:101AF0009091D703892B09F05AC01092CB03089517
:101B00008F3E49F447FFF0CF1092D4038091D50364
:101B10008111ECCFE0CF803F19F41416ACF3E4CF81
:101B20009091D603893F29F41916F4F61092D60342
:101B3000DBCF8A3F19F497FFD7CFF8CF9091D70327
:101B40008B3F29F497FFD0CF1092D703CDCF8C3F96
:101B500019F41916CCF3C8CF9FE0980F983090F481
:101B6000815F990B21E030E0B90102C0660F771F59
:101B70008A95E2F7CB0180959091D30389238093D6
:101B8000D303B2CF8D3F31F48091CD038E7F80930C
:101B9000CD03AACF8E3F21F48091CD038D7FF7CF67
:101BA0008F3F09F0A1CF8091CD038B7FF0CF0895B7
:101BB0008091CD0380FD1AC081FD14C082FD14C048
:101BC0008091CB03882391F08C3370F425E0829FC1
:101BD000C00111246CE370E00E94C336862F672B8E
:101BE00029F0089582E0089585E0089581E0089540
:101BF0008091CD0380FD16C081FD16C082FD18C006
:101C00008091CC03882391F08C3390F428E2829F5A
:101C1000C00111246CE370E00E94C336862F672B4D
:101C200049F008958AE0089584E1089588E00895D0
:101C300088E2089581E008958D3E31F40E94F80D08
:101C400081958093D50308958E3E19F40E94F80D76
:101C5000F8CF8F3E31F40E94F80D81958093D40324
:101C60000895803F19F40E94F80DF8CF893F29F4B8
:101C70000E94D80D8093D60308958A3F21F40E94D4
:101C8000D80D8195F7CF8B3F31F40E94D80D819507
:101C90008093D70308958C3F19F40E94D80DF8CF94
:101CA0009FE0980F983070F4815F990B21E030E04D
:101CB00001C0220F8A95EAF78091D303822B80938B
:101CC000D30308958D3F31F48091CD0381608093DB
:101CD000CD0308958E3F21F48091CD038260F7CF2C
:101CE0008F3FB9F78091CD038460F1CF80E00895F4
:101CF00090914A0592FF06C0282F28712830F9F4E8
:101D0000877F846093FF06C0282F28712831F1F463
:101D1000877E846120914B0520FF06C0382F3871E3
:101D20003830D9F4877F816021FF06C0282F2871C1
:101D30002831D1F4877E816194FD877E0895282F14
:101D400024712430F9F68B7F8860DCCF282F247132
:101D5000243101F78B7E8861DDCF382F317131302E
:101D600019F78E7F8860E0CF282F2171213121F76C
:101D70008E7E8861E1CF972F7E30A8F4663098F48C
:101D800070E026E0929F600D711D1124FB0194E527
:101D9000899FE00DF11D1124EE0FFF1FEE5EFB4F3A
:101DA00085919491089580E090E00895CF93DF931A
:101DB000EC0182389105A9F1D8F58133910509F438
:101DC00096C048F58932910509F48AC08A9709F4CA
:101DD00095C0C11521E5D20708F0BCC0C11530E59A
:101DE000D30708F014C1C83ED10508F09CC0C03E1E
:101DF000D10560F5C83AD10508F087C0C53AD105CC
:101E000008F0FDC0C130D10509F12097F9F0C430C8
:101E1000D105E0F440C08533910509F45AC0C99753
:101E2000C1F680914A05837089F0C0EED0E00EC003
:101E3000833E910599F170F4803E910501F1823E57
:101E4000910539F680914A0582FD21C0CE01DF91CE
:101E5000CF910895863E910561F1873E910571F11C
:101E6000843E910509F0B5CF80914B0581FFEECFFF
:101E700080914A05C7EED0E084FD0DC0E7CF809188
:101E80004A0580FD12C190914B0590FFDFCFC3EE54
:101E9000D0E084FFDBCFD0E0C0E0D8CF80914A050E
:101EA00082FD06C190914B0590FDBFCF84FFCECF40
:101EB000F2CF80914A0583FDDDCFC8CF80914A05DE
:101EC00083FDF9C090914B0591FFF0CFC4EED0E0B7
:101ED000BDCF80914A0585FFB9CFC9E2D0E0B6CF2A
:101EE00080914A0585FFB2CFC5E3D0E0AFCF8091A6
:101EF0004A0586FFABCFCAE2D0E0A8CF80914A0561
:101F000086FFA4CFC1E3D0E0A1CFCF3BD10518F627
:101F1000C85AD0E0CC0FDD1FCB58DE4F0990D881D6
:101F2000C02DD46493CFC11540E2D40758F4C11535
:101F300081E0D80708F08ACFCD3ED10508F4ABCFB9
:101F4000D06584CFC11590E4D90708F4A4CFDF7021
:101F5000D06A7CCFC11525E5D20700F5C11534E55F
:101F6000D30708F08AC0C11543E5D40708F071C053
:101F7000C11582E5D80708F467C0CE0183709927A0
:101F800021E030E002C0220F331F8A95E2F7C695A8
:101F9000C69580E2C89FE001112452C0C11599E5A1
:101FA000D907A8F4C11528E5D20708F06BC0C11500
:101FB00036E5D30708F06FCF8C2F0E94780EC82F1C
:101FC000D0E0DC2FCC27CC27DF71D0623FCFC1150A
:101FD0004AE5D40708F45BC0CE01905681159042C3
:101FE00008F059CF8D2F8F710E94780E90E0982FB6
:101FF000882788279F719C012C2BE901E6CFC55AC1
:10200000D0E0CE58DE4FC881D0E0D0641FCFCE01E3
:10201000E4E096958795EA95E1F783702C2F269555
:102020002695237040E2249F90011124382B8C2F99
:102030008370C1E0D0E002C0CC0FDD1F8A95E2F7CB
:10204000C22BD32BDC6802CFDC2FCC27C16FD06A28
:10205000FDCECE018370992721E030E002C0220F2F
:10206000331F8A95E2F7C695C69590E2C99FE001B5
:102070001124C22BD32BDA68E9CEDC2FCC27C46F16
:10208000D06AE4CEDC2FCC27C06FD06ADFCE8C2F95
:102090008F700E94780E34E0D695C7953A95E1F797
:1020A000CF709C2FEC01D069D1CEC9E3D0E0CECE69
:1020B000C2EED0E0CBCEC6EED0E0C8CE80917A039F
:1020C000811110927A030895809590913C05982390
:1020D00090933C0508958095909150059823909396
:1020E000500508958091580390912703981301C0DB
:1020F00008958F5F8770FACFB0E0A0E0E2E8F0E1EA
:102100000C9495368C01C0909B03D0909C03E0907A
:102110009D03F0909E0380917B0390917C03A0919E
:102120007D03B0917E03C82AD92AEA2AFB2ACFE18F
:10213000D0E0BC2ED701C6010C2E04C0B695A795E1
:10214000979587950A94D2F780FD09C0219788F763
:10215000B12C8B2DCDB7DEB7E9E00C94B136B801C8
:102160008C2F0E94BB0E0E94D60E019779F3F1CFFF
:10217000CF93DF93EC010E947C10BE010E94BB0E46
:102180000E94D60EDF91CF910895292F9E3080F5C1
:10219000863070F590E036E0239F800D911D11246C
:1021A000682F677023E0969587952A95E1F725E0DB
:1021B000289FF001299FF00D1124E651FD4F50E0BA
:1021C00040E080E0219130E0062E02C03695279550
:1021D0000A94E2F721703327042E01C0220F0A94DB
:1021E000EAF7822B4F5F5F4F4530510559F708954D
:1021F00080E00895292F9E30A0F5863090F590E07C
:1022000036E0239F800D911D1124282F277041E077
:1022100001C0440F2A95EAF723E0969587952A9501
:10222000E1F725E0289FF001299FF00D1124E651E8
:10223000FD4F30E020E070E05191DF011197CB01BC
:10224000022E02C0969587950A94E2F781708195D7
:102250008527842385278C932F5F3F4F25303105B9
:1022600059F70895FC01808191810E94B8109295E0
:102270009F70963091F058F4925F9F70923058F4AE
:10228000803F19F030F4883E30F481E008959A5F81
:10229000F4CF843FD1F380E00895883EB0F3813FCE
:1022A000D1F7F3CFCF92DF92EF92FF926C01EE2441
:1022B000FF2420E0C114D104E104F10419F0C701A6
:1022C000B60120E1C72ED82EE92EFF24C114D10477
:1022D000E104F10419F0285FC701B6016B017C012C
:1022E00054E0F694E794D794C7945A95D1F7C11463
:1022F000D104E104F10419F02C5FC701B6016B01B0
:102300007C0142E0F694E794D794C7944A95D1F7BC
:10231000C114D104E104F10419F02E5FC701B60124
:102320009695879577956795672B682B692B09F0AC
:102330002F5F822FFF90EF90DF90CF9008959C0148
:102340009A9581159F4130F4832F817031FF03C02E
:102350008260089580E00895FC018081813041F41D
:102360009185911114C09285992389F082E0089596
:10237000823041F48185811107C08285811106C0B8
:1023800083E0089586E0089585E0089584E0089547
:1023900027982F98089526982E98089525982D9877
:1023A000089556985E980895279A2F9A0895269A28
:1023B0002E9A0895259A2D9A0895CF92DF92EF9242
:1023C000FF92CF936B017C010E945211C82F0E9493
:1023D000D1110E94CE110E94CB110E94C811C15090
:1023E000C73040F4EC2FF0E0E75AF64C0C94D736A7
:1023F0000E94DA11C701B601CF91FF90EF90DF90F4
:10240000CF9008950E94DA110E94D7110E94D41132
:10241000F1CF0E94DA11FACF2098289821982998B4
:1024200022982A9823982B9852985A9853985B98F8
:102430003E98469808958098889A8198899A8498B9
:102440008C9A85988D9A86988E9A87988F9A0895F7
:1024500080934C0570934E0560934D0580918E05D9
:102460008430F9F48093E9008FEF9091E800815077
:1024700095FD06C095ED9A95F1F700008111F5CF15
:102480008091E80085FF0DC050E040E063E070E01F
:102490008CE495E00E940C068091E8008E77809392
:1024A000E8000895BC0184E00E9428120895BC0150
:1024B00083E00E94281208959C0184E08093E90043
:1024C0009FEF8091E800915085FD06C085ED8A95CB
:1024D000F1F700009111F5CF8091E80085FF0CC065
:1024E00050E040E066E070E0C9010E940C06809177
:1024F000E8008E778093E8000895CF93DF93EC0196
:1025000080915E018823B1F180914A0587FF32C036
:1025100060E284E08093E9008FEF9091E8008150C1
:1025200095FD06C095ED9A95F1F700008111F5CF64
:102530008091E80085FF1BC080915E0170E050E053
:1025400040E0811104C050E040E068E070E0CE015E
:102550000E940C068091E8008E778093E80080E26C
:10256000FE01A3E5B5E001900D928A95E1F7DF91B8
:10257000CF91089568E081E0CDCFEF92FF920F9365
:102580001F93CF93DF930E94D1110E94CE110E941E
:10259000CB110E94C81188E8E82EF12C8FEF90E053
:1025A000F701918380830AE810E0F801918380832A
:1025B000CCE8D0E0998388830E94DA11FFEF20E70E
:1025C00082E0F15020408040E1F700C000000E940E
:1025D000D7119FEFE0E7F2E09150E040F040E1F7E3
:1025E00000C000000E94D4112FEF80E792E021503C
:1025F00080409040E1F700C000000E94CE11EFEF54
:10260000F0E722E0E150F0402040E1F700C0000098
:102610000E94CB118FEF90E7E2E081509040E040C4
:10262000E1F700C000000E94C81180918903877003
:10263000FFEF8F9FC00111249595879595958795FC
:102640009927F70191838083F8019183808399838F
:1026500088830E94D1110E94CE110E94CB110E944A
:10266000C811CDB7DEB7E6E00C94B436A4E0B0E014
:10267000ECE3F3E10C949936F62E042F122F8033FD
:10268000910570F5880F991F880F991FBC01665A34
:10269000774F44E050E0CE0101960E945B3789817C
:1026A0008370EA81282F30E040E9849FC001112423
:1026B0008D509C4FE80FF92FF11DB497F082EB81FC
:1026C000E80FF92FF11DB4970083EC81E80FF92F83
:1026D000F11DB49710832F503C4F81E0F9018083A6
:1026E0002496E5E00C94B536FF920F931F93CF9399
:1026F000DF93182F062FF42ED0E0C0E02F2D402FAF
:10270000612FCE010E9436132196C033D105B1F757
:10271000CDB7DEB7E5E00C94B5360F931F93CF939A
:10272000DF93082F000FEB0114E21093DD03EEEDB1
:10273000F3E0DE018D91819383E0EE3EF807D1F75F
:1027400024E630E041E150E06DED73E0802F0E941F
:102750005336105F6096143B41F7DF91CF911F9184
:102760000F9108958091F103882329F063EF73E0BE
:1027700084E70E948D131092F1038091F203882365
:1027800029F063E874E087E70E948D131092F2034A
:102790000895EDEDF3E06083418324E630E042E00C
:1027A00050E0BF01880F0E9453360895EF92FF92C8
:1027B0000F931F93CF93DF93E82E062F10E0095C51
:1027C0001A4FF8018081882381F0F2E16F9FE001C8
:1027D0001124CD5EDA4FF12C49916F2D8E2D0E9480
:1027E000C913F39482E1F812F7CFF8011082CDB744
:1027F000DEB7E6E00C94B436CF93DF93C82F4BE0FE
:102800006DEF0E94C91340E06AE08C2F0E94C9134B
:102810008FE39CE90197F1F700C0000040E060E021
:102820008C2F0E94C91340E061E08C2F0E94C913D5
:1028300040E066E08C2F0E94C91340E06DEF8C2FC2
:102840000E94C913D0E040E06D2F8C2F0E94C91365
:10285000DF5FD231C1F740E06D2F8C2F0E94C9138A
:10286000DF5FD432C1F740E06D2F8C2F0E94C91377
:10287000DF5FD43BC1F74BE06DEF8C2F0E94C91393
:1028800041E06AE08C2F0E94C91340E06DEF8C2F6D
:102890000E94C913DF91CF910895A4E0B0E0E3E571
:1028A000F4E10C9490360E948C3584E70E94FC136E
:1028B00087E70E94FC130AE518E052E1752E68E0F4
:1028C000C62ED12CEE24E394F12C6624639444E0CC
:1028D00050E0B801CE0101960E945B374A8150E07A
:1028E000CA0184972B81622F6452770B4B012C8194
:1028F000E22FE452FF0B5F012981237030E0FC01DD
:1029000097FD379643E0F595E7954A95E1F7729E76
:10291000A001739E500D11244D5E5A4FE40FF52F08
:10292000F11DB6010E94C336A70101C0440F8A956C
:10293000EAF78081842B8083F40197FC379693E03B
:10294000F595E7959A95E1F7729EC001739E900DFB
:1029500011248D5E9A4FE80FF92FF11DC401B601C5
:102960000E94C336A70101C0440F8A95EAF780810F
:10297000842B8083F501B7FC379683E0F595E795C6
:102980008A95E1F7729EC001739E900D11248D5EB1
:102990009A4FE80FF92FF11DC501B6010E94C33609
:1029A000A70101C0440F8A95EAF78081842B8083B8
:1029B000295C3A4FF90160820C5F1F4FF9E00A3140
:1029C0001F0709F084CF60E084E70E94D61361E01E
:1029D00087E70E94D6132496EEE00C94AC361F9342
:1029E000CF93DF93EC01FC01E259FD4F8081682316
:1029F000B1F00E944B37182F0E944B378F77782FFA
:102A000020E8720F08F47FEF612F809189050E9402
:102A1000680B462F282F672FCE010E94180ADF91DE
:102A2000CF911F910895B0E0A0E0E9E1F5E10C94A9
:102A300097368C01FC01E259FD4F8081682349F1F2
:102A4000D0908805D0918905C0918705EC2EF12C96
:102A50000E944B37282FC7018C549F4F68E671E0C6
:102A60000E94C3368E199F0997FD03969595879509
:102A70009595879523706C2F289F600D11247D2DCF
:102A80008D2F0E94680B462F282F672FC8010E94A8
:102A9000180ACDB7DEB7E7E00C94B336B0E0A0E09B
:102AA000E4E5F5E10C949336182F80911B01811316
:102AB00023C090918605937020911A0130E081E047
:102AC0009217130609F480E0817080936101809170
:102AD0008B0590916001981739F08093600140E078
:102AE00060E080E00E94150A183160F4E12FF0E008
:102AF000E05AF64C0C94D73681E0E6CF8091610124
:102B0000811102C0C0E03FC140E060E080E00E946F
:102B1000150AF8CF80915F01C82FCC0FCC0FC80FDA
:102B200005E00C0FF02E013310F0F0E3FF2E609162
:102B3000870570918805809189050E94680BE62EB3
:102B4000D72EC82ED0E0CF1528F0C1E0003308F40E
:102B50001AC1D8CFFE01E259FD4F808190916001EA
:102B6000892331F02C2D4E2D6D2DCE010E94180A97
:102B70002196E9CF80915F01C82FCC0FCC0FC80FF1
:102B800005E00C0FF02E013310F0E0E3FE2ED090A4
:102B90008805E0908905D09187056D2F7D2D8E2DBC
:102BA0000E94680BC62EB72EA82E60918A056D0F65
:102BB0007D2D8E2D0E94680BE62ED72E982ED0E00C
:102BC000CF1518F6FE01E259FD4F9081809160010A
:102BD000892359F0292D4E2D6D2D90FD03C02A2DEE
:102BE0004C2D6B2DCE010E94180A2196E9CF8091C1
:102BF0005F01C82FCC0FCC0FC80F05E00C0FE02EE3
:102C0000013310F070E3E72ED0908805C09089055D
:102C100020918A0560E4F62E3F2D329F312D11243C
:102C2000F32ED0E0CE1508F090CFFE01E259FD4F13
:102C30008081909160018923B9F0FE01EE0FFF1FA2
:102C4000E15FFD4F808182958F70609187058F9D38
:102C5000600D11247D2D8C2D0E94680B462F282F8E
:102C6000672FCE010E94180A2196DCCF80915F0168
:102C7000C82FCC0FCC0FC80F05E00C0FE02E01338E
:102C800010F040E3E42ED0908805C0908905209193
:102C90008A0530E4F32E3F2D329F312D1124F32E7F
:102CA000D0E0CE1508F051CFFE01E259FD4F8081F2
:102CB000909160018923D9F0FE01EE0FFF1FE25FC2
:102CC000FD4F6081F69EB001112425E07595679552
:102CD0002A95E1F780918705680F7D2D8C2D0E9444
:102CE000680B462F282F672FCE010E94180A2196C5
:102CF000D8CF80915F01C82FCC0FCC0FC80F05E053
:102D00000C0FF02E013310F080E3F82EE0908705D1
:102D1000D0918805D090890560918A056695669561
:102D2000669580917E0590917F050E945E0B0E94C2
:102D3000E70A805887FD8195880F282F3D2D239F16
:102D4000212D1124822F6E2D7D2F0E94680BE62EDF
:102D5000D72EC82ED0E0CF1508F0F7CEFE01E259ED
:102D6000FD4F808190916001892331F02C2D4E2DF3
:102D70006D2DCE010E94180A2196EDCF8CEE99E0C0
:102D80000E94150DC82F80915F018F5F80935F01B6
:102D9000C1110CC082E080936201809161018111B8
:102DA00005C0111103C083E080936201CDB7DEB787
:102DB000EBE00C94AF3682EC99E0E2CF89EC9AE03C
:102DC0000E94BF0CDFCF8AEA9AE0FACF8FE89AE040
:102DD0000E94520CD7CF83E79AE0FACF89EB99E0B3
:102DE000CFCF80EB99E0CCCF87E999E0C9CF89E8D4
:102DF00099E0EECF86E39BE0E3CF82E69AE0E0CF76
:102E00008EE49AE0E5CF8CE599E00E94FC0BBACF06
:102E10008EE299E0FACF87EF98E0F7CFC091610199
:102E2000C1111EC060918A0520E1620F08F46FEFA6
:102E300080917E0590917F050E945E0B6AE070E0B4
:102E40000E947836892B09F05DCE0E944B3760E3F3
:102E500070E00E94C336609160010E94131593CF09
:102E600080915F01C82FCC0FCC0FC80F05E00C0F6D
:102E7000802F013308F080E3D0E0E82EF12CCE154E
:102E8000DF050CF062CE60916001CE010E94131547
:102E90002196F5CFC0916101C1111EC060918A05D4
:102EA00020E1620F08F46FEF80917E0590917F051D
:102EB0000E945E0B65E070E00E947836892B09F075
:102EC00021CE0E944B3760E370E00E94C3366091D0
:102ED00060010E94EF1457CF80915F01C82FCC0F83
:102EE000CC0FC80F05E00C0F802F013308F080E3F2
:102EF000D0E0E82EF12CCE15DF050CF026CE609147
:102F00006001CE010E94EF142196F5CF8FB7F8949F
:102F100040914405509145056091460570914705E3
:102F20008FBF4093D8035093D9036093DA03709313
:102F3000DB038091DC03811113C090918605892FFA
:102F4000837019F0892F8695869590916201913052
:102F5000B9F0992339F09230B1F09330F9F0089537
:102F600080E0F3CF10925F0140937E0550937F0580
:102F7000609380057093810581E0809362010895DC
:102F80000E944E15089580931B01809186058370E1
:102F900080931A010E94B21383E0EFCF80918505E0
:102FA000882351F046E050E06CE170E086E895E05F
:102FB0000E94C0381092850540917E0550917F0592
:102FC00060918005709181052FB7F8948091440538
:102FD00090914505A0914605B09147052FBF841BF0
:102FE000950BA60BB70B4A97A105B10510F01092EF
:102FF00062010895E6E8F5E081E380838091630152
:1030000090916401A091650181839283A3838FE7EE
:1030100084838FEF858346E050E06CE170E0CF0160
:103020000E94C038109285050895809150059091B6
:103030003C05892B8093A00290917A039923A1F0FB
:10304000892B8093A00280915E018823E1F1809119
:103050004A0587FF38C08EE1E2EAF2E090E0815055
:10306000A0F591110E945E1040E250E06AE573E025
:1030700080EA92E00E948F38892B21F180E2E0EA19
:10308000F2E0AAE5B3E001900D928A95E1F7E091B4
:103090003F05F09140053097A9F080915E018823AB
:1030A00059F080914A0587FF07C08091A002809364
:1030B000A10286E08093A0020280F381E02D80EAE5
:1030C00092E00995089586E0C7CF2191222339F235
:1030D0009F5FC5CFCF93DF93EC0181E0898B809117
:1030E00050059F81892B8093500580913C059885E0
:1030F000892B80933C050E941518EA81FB8130974B
:1031000029F06C897D89CE0106960995DF91CF91D2
:103110000895EF92FF920F931F93CF93DF93EC01EB
:103120008A85811134C0EB80FC8087E5F81A26E19E
:103130002E9DC0012F9D900D1124DC01A45EBE4F79
:103140001496ED91FC911597309731F054966D914E
:103150007C918E5D9E4F099586E18E9D80018F9DAD
:10316000100D1124045E1E4FF80187810E946B1020
:10317000F80180850E9464100E9415181882198633
:103180001B861E821D8210923B0510923A05CDB718
:10319000DEB7E6E00C94B436882321F00E94641078
:1031A0000E941518089580913905882329F082E23C
:1031B0000E94CC18109239050895882339F0909117
:1031C0003C05982B90933C050E9415180895882380
:1031D00021F00E946B100E9415180895882339F081
:1031E00090915005982B909350050E9415180895C2
:1031F00068EE7EEF90E080E00E94EE3860E082E0D2
:1032000090E00E94D03860E083E090E00E94D038E7
:1032100010927B0310927C0310927D0310927E0328
:1032200060E084E090E00E94D03864E082E290E0C8
:103230000E94D03860E085E090E00E94D03860E0E5
:1032400086E090E00E94D0386FEF87E090E00E9427
:10325000D03840E050E0BA0188E090E00E94E238C7
:1032600060E08DE090E00E94D03840E050E0BA018C
:1032700088E190E00E94E23860E087E190E00E94FF
:10328000D03840E050E0BA018CE190E00E94E23892
:1032900070E060E080E290E00E94EE3840E050E0B4
:1032A000BA0188E190E00E94E238109289031092FE
:1032B0008A0310928B0310928C0384E0809389031D
:1032C0004091890350918A0360918B0370918C0324
:1032D0008FE090E00E94E23840E050E0BA0183E1E4
:1032E00090E00E94E23808950E944D1490E080E042
:1032F0000E94BA38883E9E4F21F00E94F8180E9422
:10330000FA1746E050E06CE170E086E895E00E9434
:103310009C3810928505809186058C7F11F40E945F
:10332000FA17089580E290E09093170180931601B8
:103330008091C00281110EC00E948C3581E0809383
:10334000C0022FEF83ED90E3215080409040E1F7E1
:1033500000C0000064E670E080E40E949235909323
:10336000170180931601892B09F04EC064E670E0C6
:1033700080E00E9400369093170180931601892BFC
:1033800009F042C064E670E080E00E94003690934D
:10339000170180931601892BB9F564E670E08FE37D
:1033A0000E9400369093170180931601892B61F5D6
:1033B0000E94743664E670E080E40E949235909337
:1033C000170180931601892BF9F464E670E08CE014
:1033D0000E9400369093170180931601892BA1F467
:1033E00064E670E080E00E940036909317018093BD
:1033F0001601892B49F464E670E08FE30E940036E1
:1034000090931701809316010E94743680911601E3
:103410000895CF93C82F873078F580911601909149
:103420001701892B39F564E670E080E40E9492353B
:103430009093170180931601892BD1F464E670E014
:1034400082E10E9400369093170180931601892B28
:1034500079F481E090E001C0880FCA95EAF764E64C
:1034600070E080950E9400369093170180931601BA
:103470000E947436CF9108958A30B1F038F48830C4
:1034800069F0893071F0209A2898F4CF8C3091F04F
:1034900070F08D30C1F73E9A4698ECCF219A29986A
:1034A000E9CF229A2A98E6CF239A2B98E3CF529A13
:1034B0005A98E0CF539A5B98DDCFCF93873050F581
:1034C0008091160190911701C0E0892B71F464E698
:1034D00070E081E40E949235909317018093160169
:1034E000892B31F0C0E00E9474368C2FCF91089563
:1034F00084E690E00E942F3697FF05C09093170155
:1035000080931601EFCFC82FC0951092170110922B
:103510001601E9CFCFB18FB1869586958C73C370B4
:103520008C2BC82FC095E1CF1F920F920FB60F9230
:1035300011242F933F934F935F936F937F938F93B8
:103540009F93AF93BF93EF93FF938091E10082FF2E
:1035500009C08091E20082FF05C08091E1008B7F6D
:103560008093E1008091DA0080FF24C08091D80030
:1035700080FF20C08091DA008E7F8093DA008091F6
:10358000D90080FF9DC080E189BD82E189BD09B479
:1035900000FEFDCF81E080938E0580914F05811163
:1035A00009C00E94BC050E94E1068091E20084608F
:1035B0008093E2008091E10080FF17C08091E200DB
:1035C00080FF13C08091E2008E7F8093E2008091A3
:1035D000E20080618093E2008091D8008062809355
:1035E000D80019BC85E080938E058091E10084FFAE
:1035F0002BC08091E20084FF27C080E189BD82E179
:1036000089BD89B5982F917080FFFBCF8091D8003C
:103610008F7D8093D8008091E1008F7E8093E100C0
:103620008091E2008F7E8093E2008091E2008160D1
:103630008093E20080917505882309F447C084E0F7
:1036400080938E0580918E058091E10083FF27C0D5
:103650008091E20083FF23C08091E100877F809307
:10366000E10082E080938E05109275058091E10063
:103670008E7F8093E1008091E2008E7F8093E20054
:103680008091E20080618093E20042E060E080E0AF
:103690000E94AF068091F00088608093F000FF9157
:1036A000EF91BF91AF919F918F917F916F915F91BA
:1036B0004F913F912F910F900FBE0F901F90189533
:1036C00019BC10928E0510924F0574CF8091E300C3
:1036D00087FD93E090938E05B5CF78941F921FB627
:1036E0001F9211248F939F93AF93BF9380914405B2
:1036F00090914505A0914605B09147050196A11D01
:10370000B11D8093440590934505A0934605B09361
:103710004705BF91AF919F918F911F901FBE1F9042
:1037200018959C014FB7F8948091440590914505F8
:10373000A0914605B09147054FBF821B930B08959A
:103740002FB7F8948091440590914505A0914605C6
:10375000B09147052FBF08950E94A01B9C01909136
:10376000D4038091D503982B21F03093D10320937B
:10377000D0039091D6038091D703982B21F03093FA
:10378000CF032093CE03E0913F05F09140053097A1
:1037900049F082E08093D2030480F581E02D82ED30
:1037A00093E00995089590E080E00E94550890E02C
:1037B00080E00E943F0810923C050E94151886E0A8
:1037C000E2EDF3E0DF011D928A95E9F71092CC0358
:1037D0001092CB031092CD030E94AC1B0895CF92A0
:1037E000DF92EF92FF92CF93DF93CDB7DEB7A09732
:1037F0000FB6F894DEBF0FBECDBF0E94DD116B0186
:103800007C0180918D058823B1F02FEF80E792E055
:10381000215080409040E1F700C0000085E089839E
:10382000C701B6010E9452118A838EEF8B83CE01AD
:1038300001960E943806C0929B03D0929C03E092AE
:103840009D03F0929E030E94D31BA0960FB6F8949E
:10385000DEBF0FBECDBFDF91CF91FF90EF90DF9025
:10386000CF9008950F931F9341E050E060E070E027
:1038700004C0440F551F661F771F8A95D2F78091A9
:103880009B0390919C03A0919D03B0919E038A019C
:103890009B01082719272A273B27C901B8010E9445
:1038A000EF1B1F910F9108950F931F9341E050E07C
:1038B00060E070E004C0440F551F661F771F8A95B3
:1038C000D2F7CB01BA0160957095809590950091E3
:1038D0009B0310919C0320919D0330919E036023D4
:1038E0007123822393230E94EF1B1F910F91089550
:1038F000909159038095892380935903282F27702D
:1039000091F4282F082E000C330B9217130659F050
:1039100090914B0592FF07C08595859585950E94EE
:10392000541C109259030895CF93C0914B05C2FBCC
:10393000992790F9981791F080FBC2F9C0934B0535
:1039400060914A0584E090E00E94D0386C2F82E2BA
:1039500090E00E94D03882E00E94781CCF910895B8
:103960000F931F9341E050E060E070E004C0440F0B
:10397000551F661F771F8A95D2F780919B03909100
:103980009C03A0919D03B0919E038A019B01082B8B
:10399000192B2A2B3B2BC901B8010E94EF1B1F9149
:1039A0000F91089560937B0370937C0380937D0354
:1039B00090937E030E94D31B089580915E01E2EAFA
:1039C000F2E0882361F080914A0587FF08C08EE10C
:1039D000DF011D928A95E9F70E94D31B089586E0C6
:1039E000F7CFAAE2B0E0E7EFFCE10C949B3686E764
:1039F00095E02091F100FC012193CF01F5E08E3795
:103A00009F07B9F780917705893009F444C018F50C
:103A1000823009F4BCC0833009F46FC0813031F5C5
:103A200080917605813A11F58091E800877F809337
:103A3000E80080917A0590917B05892B41F560E241
:103A400083E595E070E00E949B078091E8008B770A
:103A50008093E8000BC08B3009F46CC008F486C07A
:103A6000823409F4A5C0853409F4BFC08091E80010
:103A700083FF5AC280917605909177059A3008F0BD
:103A800053C2E92FF0E0E858F64C0C94D73660E0CA
:103A900090E080E0D7CF80917605813239F7809130
:103AA0007A0590917B05009711F00297F9F68091C5
:103AB000E800877F8093E8008091E80082FF18C0CB
:103AC0009091F3008091F200029731F48091F1001F
:103AD000813011F0863021F48091F10080935205FD
:103AE0008091E8008B778093E8000E949006BECF1B
:103AF00080918E058111E0CFB9CF80917605813A12
:103B000009F0B4CF80917A0590917B05892B09F05B
:103B1000ADCF8091E800877F8093E8008091E80036
:103B200080FFFCCF80915E018093F1008091E800DE
:103B30008E77D9CF80917605813209F097CF809129
:103B40007A0590917B05892B09F090CF8091E80050
:103B5000877F8093E8000E9490068091780580938B
:103B60005E01109250050E94DD1C80CF8091760589
:103B7000813209F07BCF8091E800877F8093E80055
:103B80000E94900680917905809351056FCF8091B6
:103B90007605813A09F06ACF8091E800877F8093AB
:103BA000E8008091E80080FFFCCF80915105BCCFF8
:103BB00080917605803C09F059CF80917A059091EB
:103BC0007B05029739F58091780590917905892BCD
:103BD00009F58091E800877F8093E8006EE070E04F
:103BE0008CEC99E00E943C0780CF80917605803C68
:103BF00009F03CCF80917A0590917B05079751F4AD
:103C00008091E800877F8093E80062EB70E08AE1B2
:103C100099E0E8CF8091EB0080628093EB0026CFA3
:103C2000803899F0823809F07FC180917A058F70D1
:103C3000873008F079C18093E9008091EB0085FB23
:103C4000882780F91092E90006C080917305909151
:103C50007405911182609091E800977F9093E8003D
:103C60008093F1001092F1008091E8008E7758C1A6
:103C7000882309F446C1823009F056C18091780545
:103C8000811149C180917A058F702FEF280F26305E
:103C900008F04AC18093E9002091EB0020FF3BC16E
:103CA000933031F48091EB0080628093EB0033C15C
:103CB0009091EB0090619093EB0021E030E001C027
:103CC000220F8A95EAF72093EA001092EA00809189
:103CD000EB008860EACF811127C1109178051F772A
:103CE0008091E3008078812B8093E3008091E8004D
:103CF000877F8093E8000E9490068091E80080FF13
:103D0000FCCF8091E30080688093E30082E0111192
:103D100083E080938E0508C18058823008F004C18A
:103D200080917805909179058C3D23E09207A1F56B
:103D300083E08A838AE289834FB7F894DE01139681
:103D400020E03EE051E2E32FF0E050935700E49191
:103D500020FF03C0E295EF703F5FEF708E2F90E081
:103D6000EA30C0F0C7968D939D932F5F243159F7A9
:103D70004FBF8091E800877F8093E8006AE270E09F
:103D8000CE0101960E949B078091E8008B7780937B
:103D9000E800CAC0C096E7CF20917A0530917B0534
:103DA000492F55274330510551F1A0F441305105B9
:103DB00009F459C062E770E08BED99E0423051059B
:103DC00009F0B2C02091E800277F2093E8000E940C
:103DD0003C07DACF4132510539F14232510591F1B8
:103DE0004F30510509F0A0C0E1EBFAE0649170E0BA
:103DF0008FEA9AE06115710509F496C0E3CF99271F
:103E00008130910571F0009731F0029709F08CC074
:103E1000EFE5FAE002C0EBEAFAE0649170E0CF016E
:103E2000E9CFE1E8FAE0F9CF2330310508F07CC0B2
:103E3000220F331FF901EC54FE4F8081918169E01C
:103E400070E0C0CF2330310508F06EC0F901EE0FED
:103E5000FF1FE255FE4F8081918125553E4FF901AC
:103E6000608170E0C7CF62E170E08DE49AE0AACF94
:103E7000803809F059C08091E800877F8093E8007E
:103E8000809175058093F100EFCE81114DC01091A6
:103E90007805123008F048C08091E800877F809351
:103EA000E800109375050E949006112311F084E03C
:103EB00005C08091E30087FDFACF81E080938E05F5
:103EC00042E061EC81E00E94AF0642E261EC84E0F6
:103ED0000E94AF0642E261EC82E00E94AF0642E23D
:103EE00060EC83E00E94AF0642E361EC85E00E9453
:103EF000AF0642E360EC86E00E94AF0680918E053B
:103F000013C080917805813079F481E0933009F015
:103F100080E0809374051092E9008091E800877F2B
:103F20008093E8000E9490068091E80083FF0AC019
:103F30008091E800877F8093E8008091EB008062A9
:103F40008093EB00AA96E3E00C94B7361F920F9291
:103F50000FB60F9211242F933F934F935F936F935C
:103F60007F938F939F93AF93BF93CF93DF93EF9301
:103F7000FF93D091E900DF708091EC00C82FC170F1
:103F800080FDC0E81092E9008091F000877F809367
:103F9000F00078940E94F11C1092E9008091F000EA
:103FA00088608093F000CD2BCF70C093E900FF9123
:103FB000EF91DF91CF91BF91AF919F918F917F91C1
:103FC0006F915F914F913F912F910F900FBE0F9086
:103FD0001F901895109250050E94DD1C2FEF84E36E
:103FE0009CE0215080409040E1F700C0000088E153
:103FF0009AE00FB6F894A895809360000FBE909356
:104000006000FFCF882391F19CEF980F913A40F424
:10401000682F80EA92E00E9415080E941518089502
:1040200090E2980F983050F4877091E001C0990F9A
:104030008A95EAF7892F0E946B10EFCF9BE5980FC6
:10404000933028F490E080E00E945508089598E5A8
:10405000980F973128F490E080E00E943F0808957F
:104060008D3E20F00E945F0D0E94AC1B0895CF93FF
:10407000DF93EC010E940220CE010E949F11C05EDE
:10408000D109289728F40E94E718DF91CF9108956D
:104090000E94CC18FACF8FE39CE90197F1F700C09A
:1040A00000008091C602833059F0853011F08130D4
:1040B00021F48DE491E00E9437201092C602089509
:1040C0008AE491E0F8CF8FE39CE90197F1F700C013
:1040D00000008091C402833059F0853011F08130A6
:1040E00021F48DE491E00E9437201092C4020895DB
:1040F0008AE491E0F8CF8FE39CE90197F1F700C0E3
:1041000000008091C202833059F0853011F0813077
:1041100021F485E390E00E9437201092C2020895B6
:1041200082E392E0F8CFCF93C82F882309F442C0EE
:104130008CEF8C0F813A08F065C080915E01882376
:10414000D9F180914A0587FF37C0EC2FE695E695B7
:10415000E695F0E0E056FD4F828190E04C2F4770ED
:1041600021E030E002C0220F331F4A95E2F782239C
:104170009323892B61F06C2F80EA92E00E9415084E
:104180000E94151823C080914A0587FF23C0EC2F99
:10419000E695E695E695F0E0E056FD4FC77021E024
:1041A00030E001C0220FCA95EAF78281822B828318
:1041B0000E941518CF910895E2EAF2E088EA92E0B1
:1041C0002191C217C1F28E179F07D1F780915E012E
:1041D0008111D9CFA2EAB2E0EFEF80E09D91C9173B
:1041E00039F3EF3F19F4911101C0E82F8F5F86304A
:1041F000A9F7EF3FE9F20E2E000CFF0BE056FD4F42
:10420000C283D6CF80E28C0F883068F4C77021E07B
:1042100030E001C0220FCA95EAF780915005822B49
:1042200080935005C5CFEBE5EC0FE33040F4F0E0B0
:10423000EE58FE4F808190E00E945508BBCFE8E524
:10424000EC0FE73150F4F0E0EE0FFF1FEB58FE4F9C
:10425000808191810E943F08ADCFCD3E08F4AACF66
:104260008C2F0E941C0E0E94AC1BA4CF1F93CF93D7
:10427000DF93182FD0E0C0E0893311F4C0E5D0E01F
:10428000812F0E949320209739F4812F0E940220D1
:10429000DF91CF911F9108958FE99FE00197F1F78A
:1042A00000C000002197EFCF0F931F93CF93DF93B0
:1042B000C62FD42F022FFC0182818823A9F060939E
:1042C00084050E94A01B9093830580938205C7708C
:1042D00081E001C0880FCA95EAF70E94EE18DF91CD
:1042E000CF911F910F91089580918405681332C07A
:1042F00080918205909183050E94911B853A9105DA
:1043000048F510E21D0FCD17B9F080E28C0F883010
:1043100040F4C77081E001C0880FCA95EAF70E9497
:10432000E718183048F481E09D2F977001C0880F7E
:104330009A95EAF70E94EE18802F0E9436211830D5
:1043400070F6D77081E001C0880FDA95EAF70E9415
:10435000E718C5CFC77081E001C0880FCA95EAF79A
:10436000F6CFB0E0A0E0E7EBF1E20C949436EC017C
:104370008AE0A82EFE012491222309F497C021305F
:1043800009F03EC031968491813031F42296FE01CD
:1043900084910E94362107C0823039F42296FE01B2
:1043A00084910E9493202196E5CF833031F42296A8
:1043B000FE0184910E940220F6CF843009F074C07F
:1043C0002296FE01249190E080E0FE013196205378
:1043D000330B2A30310548F0019728F3EFE9FFE06D
:1043E0003197F1F700C00000F7CFA89EA001A99E69
:1043F000500D1124C901840F951F2491EF01E5CFC1
:10440000E22FF0E0E850FE4FB490822F869586951B
:10441000869590E0FC01E851FE4FE4902770F12C66
:10442000022E02C0F594E7940A94E2F731E0E32209
:10443000FF24FC01E852FE4FC490D12C022E02C092
:10444000D594C7940A94E2F7E1E0CE22DD24FC0182
:10445000E853FE4F049110E002C0159507952A9588
:10446000E2F701701127E114F10419F081EE0E94C6
:104470009320C114D10419F086EE0E9493208B2D55
:104480000E943621C114D10419F086EE0E94022048
:10449000E114F10419F081EE0E94022001151105CA
:1044A00009F481CF8CE275CFEF017DCFCDB7DEB7B8
:1044B000EAE00C94B036CF93C82F84EC91E00E94D0
:1044C000B1218C2F0E94321C1092E902CF910895E5
:1044D000CF93DF93EC010E949F119E01205E310972
:1044E0002830310540F40E94EE188C2F0E94932052
:1044F000DF91CF9108950E94DD18F7CFCF93DF931E
:10450000EC010E946822C933D10549F42FEF87EEF0
:1045100093E0215080409040E1F700C00000CE01C0
:104520000E943720DF91CF910895CF93DF93EC0164
:104530008881833061F48DE491E00E947E228DE4D5
:1045400091E00E947E228DE491E00E947E2288818B
:10455000843020F08DE491E00E947E22DF91CF91A3
:1045600008950E9495220895CF93DF93EC018881EE
:10457000833061F485E390E00E947E2285E390E041
:104580000E947E2285E390E00E947E228881843012
:1045900020F085E390E00E947E22DF91CF91089584
:1045A0000E94AC118093C602833039F0853051F0FF
:1045B000813039F48DE491E002C08AE491E00E94F8
:1045C000682208958DE491E00E947E22F3CF0E943C
:1045D000AC118093C402833039F0853051F08130C2
:1045E00039F48DE491E002C08AE491E00E946822EF
:1045F00008958DE491E00E947E22F3CF0E94AC11D9
:104600008093C202833039F0853051F0813039F423
:1046100085E390E002C082E392E00E946822089560
:1046200085E390E00E947E22F3CFB0E0A0E0EBE1D2
:10463000F3E20C9495368091160190911701892B25
:10464000A1F080917F038F5F80937F0381110DC064
:104650000E94921990E09093170180931601892B84
:1046600021F40E94BD120E9474190DE813E0780134
:10467000B12CD0E087E0C82ECD0E8D2F0E94091AF4
:104680008C2D0E94091A8D2F0E945D1A8F73F701DD
:104690009081D12C891719F08083DD24D3948C2D3F
:1046A0000E945D1A8F73F7019781891709F444C03E
:1046B000878381E08D29B82A0E940C12DF5FFFEF0B
:1046C000EF1AFF0AD730B1F6D0918303DD2309F446
:1046D0007AC00E94A01B2091810330918203AC011B
:1046E000421B530B9A0190938203809381034F3FA7
:1046F000510509F018F5452BE1F010928303109253
:104700008003E0918703F0918803AF01425F5F4F20
:1047100090E030E08081882321F0281790F010820B
:104720009D2F3196E417F507A9F7309383039093F3
:104730008003B11057C04AC080E0BCCF2FEF30E0FB
:10474000DCCF821B80833D2FECCF9170892B09F445
:104750007CC080918503909186038130984780F0DA
:1047600010928C0560919B0370919C0380919D0336
:1047700090919E030E94DD11109286031092850392
:104780008091850390918603019690938603809390
:1047900085038B2DCDB7DEB7E9E00C94B1360E94CE
:1047A000D7115AC0892BA9F3109286031092850362
:1047B00060919B0370919C0380919D0390919E0357
:1047C0000E94DD11E6CFDB2DB11006C08091800381
:1047D000882349F1D11106C00E94A01B9093820347
:1047E00080938103A0918703B09188038091830314
:1047F000EFE9F3E02DEA33E04EE15191E8019991C0
:104800008E01591751F05C91511107C04C93BF01B3
:1048100061507109EB01988381E011962E173F07D3
:1048200061F78093830380918503909186032091A3
:104830008C05222309F4B6CF009709F086CF0E9499
:10484000CE110E94CB110E94C811D0918403DD23A8
:1048500009F4A5CF0E94CB1181E0D827D09384031F
:1048600078CFA3E2B0E0E7E3F4E20C948C363C01AD
:10487000DC0113968D919C911497892B41F08C91BA
:1048800011969C9189238F3F11F00C94E12DA396F2
:10489000E2E10C94A8360E947C10182F682F8981C1
:1048A0009A810E94FA1069817A81812F0E94BB0E41
:1048B0004C01F3018281811181C0C4018150954571
:1048C000D4018F3F910508F4B7C0F301F281FBA337
:1048D000FF2309F41EC3AF3FB10509F008F4C8C0B7
:1048E000AC32BD4509F4ABC01092E702D0908C0504
:1048F000DD2009F48AC3ABA1A111A7C0E091E802B1
:10490000E330A0F481E08E0F8093E802F0E0EE0F38
:10491000FF1FE154FC4FD3018D919C9191838083C3
:1049200082E08983CE0101960E943806BFEFE3ED55
:10493000F0E3B150E040F040E1F700C000008091AA
:10494000E802833009F081C010928C051092E802D1
:104950009091C0038091C60398130C94DB2D909125
:10496000BF038091C50398130C94DB2D9091C20373
:104970008091C80398130C94DB2D9091C103809112
:10498000C70398130C94DB2D9091CA038091C40344
:1049900098130C94DB2D9091C9038091C303981355
:1049A0000C94DB2D84E0898381E080938D058EEF6C
:1049B0008A83CE0101960E94380647C08091180173
:1049C00090911901019609F478CF0CE111E0F12CD6
:1049D000E12CDD24D39480911801909119018E155A
:1049E0009F050CF46ACFD80116968C9116978823F0
:1049F000E9F019968D919C918815990539F480916B
:104A00003A0590913B058815990581F0F801D78604
:104A1000948683868189811103C0C8010E946A1827
:104A2000C80106960E94891810923C05FFEFEF1A04
:104A3000FF0A0A5E1F4FCFCF25E5B22746CF8091F0
:104A4000E70291E089278093E702809159038770FC
:104A500009F41DCFD30112968C91882309F417CF46
:104A600080914B0582FF13CF82E00E94781C0FCF0C
:104A70008091E702882309F4E8C01092E702A03C85
:104A8000B105E8F5A038B10508F0A9C0A034B1051A
:104A900008F06FC021E030E040E050E060E070E0FE
:104AA00080E090E00A2F0E94DD36E091C7022E2BB5
:104AB000E091C8023E2BE091C9024E2BE091CA0260
:104AC0005E2BE091CB026E2BE091CC027E2BE0912D
:104AD000CD028E2BE091CE029E2B2093C702309305
:104AE000C8024093C9025093CA026093CB027093EC
:104AF000CC028093CD029093CE024D01F7CEAF3F12
:104B0000B10509F038F68D01005C110921E030E0B3
:104B100040E050E060E070E080E090E00E94DD3630
:104B2000E091DF022E2BE091E0023E2BE091E102CA
:104B30004E2BE091E2025E2BE091E3026E2BE091BE
:104B4000E4027E2BE091E5028E2BE091E6029E2BA3
:104B50002093DF023093E0024093E1025093E2029F
:104B60006093E3027093E4028093E5029093E6027F
:104B7000C4CF8D010054110921E030E040E050E045
:104B800060E070E080E090E00E94DD36E091CF02CE
:104B90002E2BE091D0023E2BE091D1024E2BE091E2
:104BA000D2025E2BE091D3026E2BE091D4027E2BD9
:104BB000E091D5028E2BE091D6029E2B2093CF025E
:104BC0003093D0024093D1025093D2026093D3022B
:104BD0007093D4028093D5029093D6028ECF8D012C
:104BE0000058110921E030E040E050E060E070E062
:104BF00080E090E00E94DD36E091D7022E2BE0911C
:104C0000D8023E2BE091D9024E2BE091DA025E2BC6
:104C1000E091DB026E2BE091DC027E2BE091DD0265
:104C20008E2BE091DE029E2B2093D7023093D80288
:104C30004093D9025093DA026093DB027093DC0256
:104C40008093DD029093DE0258CFA034B10508F0C6
:104C50006BC0E091C702F091C8025090C902409029
:104C6000CA023090CB022090CC023091CD0239A301
:104C70008091CE028AA321E030E040E050E060E085
:104C800070E080E090E00A2F0E94DD36A22EAE2276
:104C9000B32EBF22C42EC520D52ED420E62EE3206D
:104CA000F72EF22009A108231AA119230E94F63633
:104CB00009F01CCEA03CB10508F096C0A038B105A3
:104CC00008F0F7C0A034B10508F0C3C021E030E01F
:104CD00040E050E060E070E080E090E00A2F0E9449
:104CE000DD3620953095409550956095709580956E
:104CF00090952E233F234521542163217221A9A1A0
:104D00008A23BAA19B232093C7023093C802409301
:104D1000C9025093CA026093CB027093CC02809375
:104D2000CD029093CE0291CEA038B105F0F4E0917F
:104D3000CF02F091D0025090D1024090D202309038
:104D4000D3022090D4029091D50299A32091D6024B
:104D50002AA321E030E040E050E060E070E080E035
:104D600090E08D01005411098FCFA03CB105F0F403
:104D7000E091D702F091D8025090D9024090DA0227
:104D80003090DB022090DC023091DD0239A380916B
:104D9000DE028AA321E030E040E050E060E070E015
:104DA00080E090E08D01005811096ECFE091DF02A4
:104DB000F091E0025090E1024090E2023090E30274
:104DC0002090E4029091E50299A32091E6022AA3A3
:104DD00021E030E040E050E060E070E080E090E012
:104DE0008D01005C110950CFAF3FB10511F008F003
:104DF0006DCF8D01005C110921E030E040E050E012
:104E000060E070E080E090E00E94DD362095309513
:104E10004095509560957095809590952E233F23F1
:104E20004521542163217221E9A18E23FAA19F23F8
:104E30002093DF023093E0024093E1025093E202BC
:104E40006093E3027093E4028093E5029093E6029C
:104E5000FCCD8D010054110921E030E040E050E02C
:104E600060E070E080E090E00E94DD3620953095B3
:104E70004095509560957095809590952E233F2391
:104E80004521542163217221E9A18E23FAA19F2398
:104E90002093CF023093D0024093D1025093D2029C
:104EA0006093D3027093D4028093D5029093D6027C
:104EB000CCCD8D010058110921E030E040E050E0F8
:104EC00060E070E080E090E00E94DD362095309553
:104ED0004095509560957095809590952E233F2331
:104EE0004521542163217221A9A18A23BAA19B23C0
:104EF0002093D7023093D8024093D9025093DA021C
:104F00006093DB027093DC028093DD029093DE02FB
:104F10009CCDAF3FB10511F008F0E8CCA034B1054D
:104F200050F5A090C702B090C802C090C902D090BE
:104F3000CA02E090CB02F090CC02F091CD02E09159
:104F4000CE0221E030E040E050E060E070E080E040
:104F500090E00A2F0E94DD36A222B322C422D5227D
:104F6000E622F722082F0F23192F1E230E94F63660
:104F700009F0BCCC6ACDA038B105E0F4A090CF0216
:104F8000B090D002C090D102D090D202E090D30273
:104F9000F090D402F091D502E091D6028D01005438
:104FA000110921E030E040E050E060E070E080E096
:104FB00090E0D0CFA03CB105A0F4A090D702B09073
:104FC000D802C090D902D090DA02E090DB02F090D3
:104FD000DC02F091DD02E091DE028D010058110942
:104FE000E0CFA090DF02B090E002C090E102D0904C
:104FF000E202E090E302F090E402F091E502E09139
:10500000E6028D01005C1109CCCF80918D058823CB
:1050100081F0ABA187E0A11186E08983F301808153
:105020008A8381818B838EEF8C83CE0101960E94CF
:105030003806FFEA8F16FDE59F0621F120EB821668
:105040002DE5920609F4DFC033EC83163CE59306A8
:1050500009F000C1D30112968C91882309F4F5CC94
:1050600080918505816090918B059F3F09F0ECC090
:1050700010928B058093850540E060E080E00E94FF
:10508000150AE3CCD30112968C918823C9F1809143
:10509000890391E0980F9770887F953008F4892BE9
:1050A00080938903809189038770BFEF8B9FC00134
:1050B00011249595879595958795992790938900C3
:1050C0008093880090938B0080938A0090938D004A
:1050D00080938C004091890350918A0360918B03E7
:1050E00070918C038FE090E00E94E23860919B0306
:1050F00070919C0380919D0390919E030E94DD110D
:10510000C40197558F3F910511F008F055C12091CA
:105110001801309119012817390724F490931901C7
:1051200080931801F301228136E1389F7001399F85
:10513000F00C11248701045E1E4FD80150962C9369
:105140005097928116968C911697992309F426C14F
:105150001A969C928E9219978F5F16968C930E9446
:10516000A01BF8019687858780917A0387838091B9
:105170003C0590915005892B80870190F081E02DAE
:10518000309741F0D80154966D917C91C7018E5DA6
:105190009E4F099590923B0580923A058091390582
:1051A000882309F4D2C10091500510917A030E941E
:1051B000A01B8854944F9093BD038093BC03F301CC
:1051C0008281882309F4C1C1102B1D7909F09CC18B
:1051D0008114F5E59F0608F07CC1811423E5920651
:1051E00008F012C1811430E5930608F008C181145B
:1051F00080E4980608F08BC196EE8916910409F4B4
:1052000003C1C4018AC1F3018281882309F478CFE4
:1052100090918903892F877F93FF8860809389030A
:1052200083FF05C040E060E080E00E94150A4091E5
:10523000890350918A0360918B0370918C038FE0F6
:1052400090E00E94E2385CCF9FEF90938B058093B3
:105250008505FBCBF401E25BFD45E431F10508F087
:105260004FCFEE57F64CD30112968C910C94D73653
:10527000882309F4EACB80E094E00E94B12181E028
:1052800090E00E945B22E1CB882309F4DECB84EF1F
:1052900093E0F3CF882309F433CF8AED93E00E94A3
:1052A000B1212ECF882309F42BCF80EC93E0F7CFE8
:1052B000882309F4CACB86EA93E00E94B12182E0F8
:1052C00090E0DFCF882309F41BCF86E893E0E7CF97
:1052D000882309F4BACB82E793E0EFCF882309F45F
:1052E0000FCF80E593E0DBCF882309F4AECB8CE4CD
:1052F00093E0C3CF882309F4A8CB88E493E0BDCF23
:10530000882309F4A2CB84E493E0B7CF882309F47F
:105310009CCB80E493E0D1CF882309F496CB80E244
:1053200093E00E94B12191CB882309F48ECB8CE0CD
:1053300093E0F7CF882309F488CB8CEE92E0F1CF8D
:10534000882309F482CB8CEC92E0EBCF882309F41C
:105350007CCB88EB92E0E5CF882309F476CB88E913
:1053600092E0DFCF882309F470CB80E892E085CF0C
:10537000882309F46ACB8091E902811108C08CE787
:1053800092E00E94B12181E08093E9025ECB88E740
:1053900092E00E94B1211092E90257CB882309F4D0
:1053A000FDCEF8018189882309F4F8CEC7018E5D0E
:1053B0009E4F0E948918F2CEFEEA8F16FDE59F06E9
:1053C00009F0ECCED30112968C91882309F43DCBE1
:1053D00080913905882319F00E94D31836CB10929A
:1053E00050050E945E100E94A01B8854944F909319
:1053F000BD038093BC0381E08093390526CB8114E3
:10540000A2E59A0608F0FDCED30112968C9188236E
:1054100009F4ECC310928405BCE58B16BDE59B0630
:1054200009F46BC108F0D8C08114FCE59F0609F4AB
:1054300018C12FED82162CE5920609F451C1F30133
:10544000828100811181882309F45BC1C8010E9417
:105450007C10F82E682FC8010E94FA10B8018F2D19
:105460000E94BB0E0E94D60E8C01A82ED30112966C
:10547000FC9012971596BC90B2943FE0B3228091B5
:1054800059038770C1F0FF20A9F0812F807F8034FD
:1054900021F080E2800F883070F080914B0582FF10
:1054A0000AC082E00E94781C809159038770DD2435
:1054B000D3948111D12CC12EC2942FE0C222BBE023
:1054C000BC1508F47FC1EC2DF0E0EA56F64C0C94C4
:1054D000D7368114B9E59B0660F48114E8E59E0691
:1054E00008F092CFF4E18F16F5E59F0609F089CE1A
:1054F0008BCFC40190568115904208F082CED30123
:1055000015968C91807F39F40E94D3181EC0F30148
:105510008581807FD1F0C401992710923C058832A3
:10552000910558F48E31910570F4049768F382E088
:1055300080933C050E94151806C08D329105B9F381
:10554000F0F48A9709F70E94151824EF82162CE5CB
:10555000920699F1D8F489ED88168CE5980649F100
:105560009AED89169CE59906A1F1A8ED8A16ACE59D
:105570009A0609F049CF26E241EE61EE16C08C345E
:10558000910509F38D329240F1F2BECFB6EF8B1642
:10559000BCE59B06D1F0A8F027E245EE66EEF7EFFA
:1055A0008F16FCE59F0609F02FCFC3010E945421FE
:1055B0004CCA27E245EE65EEF8CF26E241EE60EEFA
:1055C000F4CF27E245EE64EEF0CF26E241EE62EE44
:1055D000ECCF28E241E0EFCF3EE583163DE59306B0
:1055E00009F481C008F48BC099EA89169DE59906F3
:1055F00009F025CF0E94EA1F42EE58E06CEE78E0F9
:105600000E94780822CA4CEE58E062EE78E0F8CFAB
:105610004EEC58E068ED78E0F3CF48ED58E06EECE2
:1056200078E0EECF44EB58E061EC78E0E9CF41EC74
:1056300058E064EB78E0E4CF47EA58E06AE978E0C4
:10564000DFCF4EE758E06CE878E0DACF4CE858E07E
:105650006EE778E0D5CF81E00E949305F6C98CE033
:10566000FBCF109250050E94DD1CAFEFB4E3ECE0DD
:10567000A150B040E040E1F700C00000F89481E0A4
:105680008093E00080E28093D8001092C9008FE1FF
:105690009EE40197F1F700C000001DBA1092680067
:1056A0001CBC10BE1FBA10927A0010926E001092AD
:1056B0006F0010927100109272001092C900109247
:1056C000BC0014B817B81AB81DB810BA1092BC00B4
:1056D00015B818B81BB81EB811BA0C94003FB5C95C
:1056E0000E94F81887CF80914B0582FB882780F9AC
:1056F00091E089270E94941CA2CE81E0FBCF80E03C
:10570000F9CFC8010E94C510F82EA8CEE12FEF7086
:10571000EE2E107F19F0E29490EFE922FF20B9F00D
:10572000EE2069F080E2800F883010F0A11009C0EF
:1057300080915005E82AE09250050E941518802FAC
:105740003FC080913C05E82AE0923C05F6CF802FCF
:105750000E940220EE20B1F1005E8E2D083010F084
:10576000A11003C00E946B1002C00E9464100E942E
:10577000151828C0F12FFF70EF2E107F103219F08E
:10578000E29480EFE822AA2059F021E0A21609F461
:1057900072C0FF2009F47AC0BB2009F472C0CFCFD9
:1057A00020914B0522FD44C0FF20D9F1EE2039F0B5
:1057B00080915005E82AE09250050E94151880E07B
:1057C0000E949320AC2DA850BB0B149710F40E949C
:1057D0006B08DD20A9F08091590380FD11C0F30111
:1057E00012828595859585950E94B01CC3010E9403
:1057F0003124809159038595859585950E94541C87
:1058000085E0F301DE01119601900D928A95E1F792
:1058100009811A81C8010E94C510B8010E94BB0EFF
:1058200036C880E00E940220EE2061F28E2D9ACFD1
:10583000FF20A1F090917A03892F8E29B11003C027
:105840000E94EE18BFCF31E0B312FACF22FFBACFD9
:10585000981709F4B7CF80937A03B4CFB11006C07C
:105860000E945E108E2D0E94E718ACCF81E0B81622
:1058700009F4A8CFF5CFFF2031F091E09B1508F493
:10588000A1CF8E2DDDCFB1109DCFECCFBB2051F33A
:10589000A9E3AA1209C0BFEFE7EEF3E0B150E04080
:1058A000F040E1F700C00000802F0E9402208ACF64
:1058B000812F86958695837061F0813009F082CFC3
:1058C000C8019370F11002C090E080E00E943F0890
:1058D00079CFC8019370F11002C090E080E00E947F
:1058E000550870CF802FFF2029F00E941C0E0E94C7
:1058F000AC1B68CF0E945F0DFACF812F837009F037
:1059000066C0F1105FCF802F829586958770880FD3
:10591000880F602F6F70862E912CB12CA12C082E31
:1059200004C0880C991CAA1CBB1C0A94D2F740E046
:1059300050E0BA0104FF0FC04FE050E060E070E0BB
:1059400004C0440F551F661F771F8A95D2F74095F4
:10595000509560957095812F8695869583708230DD
:1059600019F1D8F400917B0310917C0320917D0301
:1059700030917E03813069F0482959296A297B29B1
:10598000CB01BA0160237123822393230E94D21C8E
:1059900019CF802A912AA22AB32ACB01BA016829F9
:1059A00079298A299B29F2CF482959296A297B29F3
:1059B00000917B0310917C0320917D0330917E0345
:1059C000CB01BA016027712782279327DFCF869505
:1059D000FF2011F0812F8170882309F4F3CE802FEE
:1059E000829586958770880F880F602F6F70862E3E
:1059F000912CB12CA12C082E04C0880C991CAA1C37
:105A0000BB1C0A94D2F740E050E0BA0104FF0FC07B
:105A10004FE050E060E070E004C0440F551F661F87
:105A2000771F8A95D2F74095509560957095812F94
:105A3000869586958370823019F1D8F400919B0386
:105A400010919C0320919D0330919E03813069F059
:105A5000482959296A297B29CB01BA01602371237E
:105A6000822393230E94EF1BADCE802A912AA22A83
:105A7000B32ACB01BA01682979298A299B29F2CF57
:105A8000482959296A297B2900919B0310919C037D
:105A900020919D0330919E03CB01BA0160277127AD
:105AA00082279327DFCF1F70FF2029F0812F0E94CC
:105AB000B01C802FC5CE802F0E94E718812F0E9436
:105AC000541C80CE802F22EFA21669F12A1570F0A7
:105AD00030EFA316D1F091EFA91691F0FF2009F451
