:100000000C94DF050C94FC050C94FC050C94FC0589
:100010000C94FC050C94FC050C94FC050C94FC055C
:100020000C94FC050C94FC050C9469150C94FB1BBA
:100030000C94C72D0C94FC050C94FC050C94FC0549
:100040000C94FC050C94FC050C94FC050C94FC052C
:100050000C94FC050C9442160C94FC050C94FC05C5
:100060000C94FC050C94FC050C94FC050C94FC050C
:100070000C94FC050C94FC050C94FC050C94FC05FC
:100080000C94FC050C94FC050C94FC050C94FC05EC
:100090000C94FC050C94FC050C94FC050C94FC05DC
:1000A0000C94FC050C94FC050C94FC05050109025C
:1000B000A10185020901A1000509190129081500FE
:1000C0002501950875018102050109300931158165
:1000D000257F95027508810609381581257F9501D0
:1000E00075088106050C0A38021581257F95017572
:1000F000088106C0C005010980A101850319012AF4
:10010000B700150126B700950175108100C0050CD8
:100110000901A101850419012AA002150126A002E6
:10012000950175108100C005010906A1018506052C
:100130000719E029E71500250195087501810205D9
:1001400007190029EF1500250195F07501810205B9
:10015000081901290595057501910295017503910D
:1001600001C00660FF0961A1010962150026FF00B8
:100170009520750881020963150026FF00952075FA
:10018000089102C005010906A101050719E029E748
:1001900015002501950875018102950175088101F9
:1001A0000507190029FF150026FF0095067508812F
:1001B000000508190129059505750191029501753C
:1001C000039101C0000000000000000000000000DA
:1001D000000000000000000000000000000000001F
:1001E00000000000000000007E0F00D4FFFFFFC7EA
:1001F0000000007800000000000000002A2B28000A
:1002000000000000000000000000000000000029C5
:10021000000000002C1E3420212224342627252E05
:10022000362D3738271E1F2021222324252633333D
:10023000362E37381F0405060708090A0B0C0D0E69
:100240000F101112131415161718191A1B1C1D2F35
:100250003130232D350405060708090A0B0C0D0E55
:100260000F101112131415161718191A1B1C1D2F15
:100270003130354C0103E1000102E1000102E101EE
:10028000011F0103E1010436307C0102E101011F7D
:100290000103E1010436307C010150000101340109
:1002A0000436307C010134010436307C01015000F9
:1002B0000102E10101360103E1010436307C010253
:1002C000E10101370103E1010436307C01015000F6
:1002D0000102E101012F0103E1010436307C01023A
:1002E000E10101300103E1010436307C01015000DD
:1002F00001012F010436307C010130010436307CCD
:10030000010150000102E10101260103E10104366F
:10031000307C0102E10101270103E1010436307C58
:10032000010150000102E101014F0103E101043626
:10033000307C0102E001011B0103E0010436307C46
:1003400001014F010436307C0102E0010119010373
:10035000E00001014C0001014A010436307C010239
:10036000E101014D0103E1010436307C0102E001AD
:1003700001060103E00001014D010436307C01015A
:1003800028010436307C0102E00101190103E0007C
:1003900001014D010436307C010128000102E10118
:1003A000014D0103E1010436307C01014C000102E2
:1003B000E101014A0103E1010436307C01014C00F6
:1003C00001014A010436307C0102E101014D0103C3
:1003D000E1010436307C01014C0001014D000101B6
:1003E0004A002B042B012961E100E00000001E00FF
:1003F000140004001D00640036021F001A001600DD
:100400001B0035002B002000080007000600E2005A
:100410002C00210015000900190001582F022200AC
:1004200017000A0005000000260223004600000015
:10043000B05D00002F002400AE5D000014500000ED
:10044000300025001C000B001100000027022600D0
:1004500018000D0010000258300227000C000E009A
:10046000360034002A002D0012000F0037001F0252
:1004700028002E00130033003800320037022B060C
:100480000007E300E1004C0000000100AC000100A7
:100490000100010000003A00B55DB35D01000100FC
:1004A000BF5D3B004F01BA5DBB5D010001003C0038
:1004B0000F014C01B65D010001003D001C0101006F
:1004C000C25D0100BE5D3E0001004D015001000013
:1004D000BC5D3F000100000001000000BD5D400068
:1004E0000100000001000000010041000601500071
:1004F00001000000010042001D01510001000351F4
:1005000001004300B25D52000100C05D2A014400B9
:10051000B75D4F000100C15D010045001901AE004B
:100520000901C35D01000100AB0001000100C35CD3
:1005300000000100AC0001000100010000006800A3
:100540001A014D000100FD004E0069004F01160127
:100550000100FE0050096A000F01B45D0100FF00B8
:10056000F1006B00150101004900035101006C000E
:1005700001004A0150010000FB006D00160A000056
:1005800001000000FA006E00010000000100000000
:10059000F9006F00B95DEF0001000000FC00700081
:1005A0001D01EE00010001000100A8004A00ED005D
:1005B00001000100F200AA000100F00001000100AA
:1005C0004F09A900B85DAE00090101004B00010010
:1005D000AB0001000100C35C0000C75CC95C010006
:1005E00001000100000059000100010001000100AC
:1005F00001005A00010001000100010001005B0040
:10060000010001000100010001005C000100010087
:100610000100010001005D00010001000100000077
:10062000FB005E000100000001000000FA005F0016
:100630000100000001000000F9006000010001005D
:1006400001000000FC006100010001000100010048
:100650000100620001000100010001000100010031
:100660000100010001000100010053000100C45C11
:100670000100AF5D0100C65CC85C15500100005C64
:10068000000001000100290001000100000001003C
:100690000100010001000100010001000100010052
:1006A0000100010001000100010001000100010042
:1006B0002B0001000100010001002C0001000100DD
:1006C0000100010001000000010001000100000024
:1006D00001000000010001000100000010500000B6
:1006E0000100010001000100010000000100010003
:1006F00001000100010001000100010001000100F2
:1007000001000100010001000100010001000100E1
:1007100001000100010001000100010001000100D1
:1007200001000100010001000000000000000000C5
:1007300000000000000000000000000000000000B9
:1007400000000000000000000000000000000000A9
:100750000000000000000000000000000000000099
:100760000000000000000000000000000000000089
:100770000000000000000000000000000000000079
:100780000000000000000000000000000000000069
:100790000000000000000000000000000000000059
:1007A0000000000000000000000000000000000049
:1007B0000000000000000000000000000000000039
:1007C00000000000000000000000000000001050C9
:1007D000000000047F3F1F643214643214783C1E12
:1007E0001E140A05000101010101010101010202BB
:1007F00002020202020202030303030303030304CF
:100800000404040404040505050505060606060699
:10081000070707070708080808090909090A0A0A53
:100820000B0B0B0C0C0C0D0D0D0E0E0E0F0F0F10F5
:10083000101111111212131314141515161617177F
:10084000181819191A1A1B1B1C1D1D1E1E1F2020EB
:10085000212222232424252626272829292A2B2C35
:100860002D2D2E2F30313232333435363738393A58
:100870003B3C3D3E3F404142434445464748494A50
:100880004C4D4E4F50515354555658595A5B5D5E1E
:100890005F616264656668696B6C6D6F70727375B9
:1008A00077787A7B7D7E8082838587888A8C8E8F1D
:1008B00091939596989A9C9EA0A2A3A5A7A9ABAD4B
:1008C000AFB1B3B5B7BABCBEC0C2C4C6C9CBCDCF39
:1008D000D1D4D6D8DBDDDFE2E4E7E9EBEEF0F3F5E7
:1008E000F8FAFDFFFFAA7F55402223252628292A52
:1008F0002C2D2F3032333536383A3B3D3E40424383
:100900004547494A4C4E5051535557595A5C5E60C1
:1009100062646668696B6D6F71737577797B7D7FD3
:1009200081838587898A8C8E90929496989A9C9ED2
:100930009FA1A3A5A7A8AAACAEAFB1B3B4B6B8B9EE
:10094000BBBCBEBFC1C2C3C5C6C7C9CACBCCCDCE56
:10095000D0D1D2D2D3D4D5D6D7D7D8D9D9DADADB39
:10096000DBDBDCDCDCDCDCDDDDDDDDDCDCDCDCDCC5
:10097000DBDBDBDADAD9D9D8D7D7D6D5D4D3D2D204
:10098000D1D0CECDCCCBCAC9C7C6C5C3C2C1BFBEEC
:10099000BCBBB9B8B6B4B3B1AFAEACAAA8A7A5A357
:1009A000A19F9E9C9A98969492908E8C8A89878516
:1009B00083817F7D7B79777573716F6D6B696866F5
:1009C0006462605E5C5A5957555351504E4C4A49C7
:1009D00047454342403E3D3B3A3836353332302F6F
:1009E0002D2C2A2928262523220A00000000000396
:1009F00006B200080001000000A800080002000381
:100A000000A0001400030057494E55534200000057
:100A1000000000000000008400040007002A0044D9
:100A2000006500760069006300650049006E00748F
:100A300000650072006600610063006500470055B4
:100A400000490044007300000050007B003900445E
:100A5000004200370046003100460044002D0037B8
:100A6000004500370041002D0034003000300038D0
:100A7000002D0039003300360042002D00360042C0
:100A8000004100360043003100390041003300309E
:100A900000380063007D00000000000E0301646F59
:100AA00063732E716D6B2E666D0009027200040176
:100AB00000A0FA090400000103010100092111014D
:100AC000000122400007058103080001090401001C
:100AD0000203000000092111010001222200070584
:100AE000820320000107050303200001090402001E
:100AF000010300000009211101000122B6000705D1
:100B000084032000010904030002FF000000070520
:100B10008503400005070506034000051201100289
:100B2000000000089732754901000102000122030C
:100B30004500720067006F0044006F0078002000DD
:100B400045005A0020005300680069006E006500EF
:100B5000000028035A0053004100200054006500A3
:100B6000630068006E006F006C006F006700790022
:100B700020004C00610062007300000004030904BF
:100B8000050F3900021C100500DF60DDD88945C75C
:100B90004C9CD2659D9E648A9F00000306B200456E
:100BA000001810050038B60834A909A0478BFDA02D
:100BB000768815B665000142000103E100001124AA
:100BC0001FBECFEFDAE0DEBFCDBF23E0A0EEB1E085
:100BD00001C01D92A73FB207E1F711E0A0E0B1E02C
:100BE000E0E6FEE602C005900D92A03EB107D9F7FF
:100BF0000E94EE2D0C9411370C940000E8EDF0E00B
:100C000080818E7F80831092E2001092DA00109231
:100C1000E100A0EEB0E08C9181608C9380818F77B1
:100C2000808319BCA7EDB0E08C918E7F8C9380817E
:100C30008F7E808310923F0308952091E4003091CD
:100C4000E50095E6A9012091EC00822F817020FF3C
:100C500006C08091E80080FF06C080E008952091E2
:100C6000E80022FD1AC08091F203882389F08530C4
:100C700089F08091EB0085FD0FC02091E400309158
:100C8000E50042175307F9F29150E1F684E0089528
:100C900082E0089583E0089581E00895EF92FF9245
:100CA0000F931F93CF937C018B010E941D06C82FC9
:100CB000882371F08C2FCF911F910F91FF90EF90AF
:100CC0000895F70181917F018093F100015011098E
:100CD0000115110579F38091E80085FDF2CF80912F
:100CE000E8008E778093E8000E941D06882381F338
:100CF000C82FE0CFCF93FC018091F203843031F50F
:100D0000C091E900CF702091EC00922F917020FDEE
:100D100090E8C92B82E08093E9008091E80080FF91
:100D200012C050E040E060E270E0CF010E944E0649
:100D3000882321F01092F0031092F1038091E800D3
:100D40008E778093E800CF70C093E900CF9108952B
:100D5000EF92FF920F931F93CF937C018B010E9420
:100D60001D06C82F811117C08091E80085FD0BC0BA
:100D70008091E8008B778093E8000E941D0688230D
:100D800099F3C82F08C08091F100F70181937F018A
:100D90000150110949F78C2FCF911F910F91FF90AE
:100DA000EF9008958091660387FF13C08091E8005B
:100DB00082FF06C08091E8008B778093E80004C032
:100DC0008091F2038111F2CF08958091F20388237C
:100DD000D9F38091E80080FFF8CF8091E8008E770A
:100DE000ECCF982F9093E900242F762F50E08917AD
:100DF00031F07091EC002091ED005091F00021FD58
:100E000007C09F5F973071F78093E90081E00895F4
:100E10003091EB003E7F3093EB003091ED003D7F51
:100E20003093ED003091EB0031603093EB00709324
:100E3000EC002093ED005093F0002091EE0027FD90
:100E4000E0CF80E00895B0E0A0E0E9E2F7E00C94A4
:100E50002334C8EDD0E088818F7E8883E7EDF0E011
:100E600080818160808384E082BF81E080933F0342
:100E700088818E7F888302EE10E0F8011082109244
:100E8000DA0081EEC82ED12CF601108288818F778E
:100E9000888388818068888388818F7D888319BC56
:100EA0001092F20310926503109264031092630390
:100EB00090EEE92EF12CF70180818B7F8083888171
:100EC0008160888342E060E080E00E94F106F601E4
:100ED00080818E7F8083F801808181608083808122
:100EE00088608083F70180818E7F80838881806124
:100EF0008883CDB7DEB7E8E00C943F34FC018091E5
:100F00006C0390916D0386179707A0F0611571052A
:100F100029F48091E8008E778093E80090E06115D5
:100F2000710551F4911108C08091E80082FF35C02D
:100F300080E00895BC01F2CF8091F2038823C9F1CB
:100F40008530C9F18091E80083FD31C08091E800CF
:100F500082FDEACF8091E80080FFE1CF8091F3002D
:100F60002091F200382F6115710519F028303105F4
:100F700058F091E02830310509F090E08091E800C8
:100F80008E778093E800CBCF84918093F1003196E7
:100F9000615071092F5F3F4FE6CF8091F2038823A4
:100FA00041F0853041F08091E80083FFBDCF81E0C2
:100FB000089582E0089583E00895FC0180916C0318
:100FC00090916D0386179707A0F06115710529F4BC
:100FD0009091E8009E779093E80090E0611571058C
:100FE00051F4911108C08091E80082FF34C080E084
:100FF0000895BC01F2CF8091F2038823C1F18530BE
:10100000C1F18091E80083FD30C08091E80082FD4D
:10101000EACF8091E80080FFE1CF8091F30020913A
:10102000F200382F6115710519F02830310558F09C
:1010300091E02830310509F090E02091E8002E770A
:101040002093E800CBCF81918093F100615071092A
:101050002F5F3F4FE7CF8091F203882341F0853027
:1010600041F08091E80083FFBECF81E0089582E0E7
:10107000089583E008950895809142030895209192
:10108000F203243099F425E02093E90070E050E069
:1010900040E00E944E06882321F0109238031092FF
:1010A00039038091E8008E778093E80008952091BD
:1010B0006D012223C9F020913A0327FF15C0E62FC6
:1010C000E695E695E695EE31D8F4E80FF92FF11D97
:1010D000677021E030E001C0220F6A95EAF72095A1
:1010E0008281282322830895FC013296089621915B
:1010F000621303C0DF0111971C92E817F907B9F7D3
:10110000089520913103309132032817390771F087
:101110009093320380933103E0912F03F0913003D9
:10112000309721F00084F185E02D099508952091F4
:101130002D0330912E032817390771F090932E0359
:1011400080932D03E0912F03F0913003309721F02D
:101150000680F781E02D09950895E0912F03F09125
:101160003003309729F00190F081E02D0995089522
:1011700080E00895FA01811101C0FB0109950895ED
:1011800008958091EB03982F9E7F29F481708260EF
:101190008093EB0308958A34E8F381708864F8CF74
:1011A000AF92BF92DF92EF92FF920F931F93CF9374
:1011B000DF93082F162FE901E42FF0E0EC51F84FF0
:1011C000611111C0E4915E2F4E2F4983E8835A8349
:1011D0001B82DF91CF911F910F91FF90EF90DF90D5
:1011E000BF90AF900895E62EF12C4491D42EE42FB9
:1011F000F0E026E0829FC00111242FEF30E0B9011A
:101200000E940534802F90E0880F991F55E5569F66
:10121000D001579FB00D11248A1B9B0B982F990F5B
:10122000890F5901AE18BF08AE9ED001AF9EB00D18
:10123000BE9EB00D11245B2F189F80011124012F39
:1012400011275901A01AB10AAE9E8001AF9E100D60
:10125000BE9E100D11245901A81AB108AE9CC00100
:10126000AF9C900DBE9C900D1124892F9927281BAF
:10127000390B2E9FC0012F9F900D3E9F900D112482
:10128000E92F62307105A1F050F46115710509F480
:101290009CCF6130710581F0EB2F512F96CF6430D8
:1012A000710569F080F06630710509F48ECFF4CFD6
:1012B000E42F4B2F592F89CFE42F412F86CFEB2FCF
:1012C000542F492F82CF4B2F5D2DE12F7ECF4091A0
:1012D00017038D3E59F48091180387FF0DC01092BB
:1012E000180341110BC010920F0308C08E3E81F409
:1012F0008091180318169CF3442381F08091190300
:1013000090911A03892B09F05AC010920E03089588
:101310008F3E49F447FFF0CF1092170380911803D6
:101320008111ECCFE0CF803F19F41416ACF3E4CF79
:1013300090911903893F29F41916F4F610921903B4
:10134000DBCF8A3F19F497FFD7CFF8CF90911A03DC
:101350008B3F29F497FFD0CF10921A03CDCF8C3F4B
:1013600019F41916CCF3C8CF9FE0980F983090F479
:10137000815F990B21E030E0B90102C0660F771F51
:101380008A95E2F7CB01809590911603892380938B
:101390001603B2CF8D3F31F4809110038E7F80937E
:1013A0001003AACF8E3F21F4809110038D7FF7CFD9
:1013B0008F3F09F0A1CF809110038B7FF0CF08956C
:1013C0008091100380FD1AC081FD14C082FD14C0FD
:1013D00080910E03882391F08C3370F425E0829F76
:1013E000C00111246CE370E00E945E34862F672BED
:1013F00029F0089582E0089585E0089581E0089538
:101400008091100380FD16C081FD16C082FD18C0BA
:1014100080910F03882391F08C3390F428E2829F0F
:10142000C00111246CE370E00E945E34862F672BAC
:1014300049F008958AE0089584E1089588E00895C8
:1014400088E2089581E008958D3E31F40E94000AFB
:1014500081958093180308958E3E19F40E94000A26
:10146000F8CF8F3E31F40E94000A819580931703D4
:101470000895803F19F40E94000AF8CF893F29F4AB
:101480000E94E0098093190308958A3F21F40E9485
:10149000E0098195F7CF8B3F31F40E94E0098195F7
:1014A00080931A0308958C3F19F40E94E009F8CF45
:1014B0009FE0980F983070F4815F990B21E030E045
:1014C00001C0220F8A95EAF780911603822B809340
:1014D000160308958D3F31F480911003816080934D
:1014E000100308958E3F21F4809110038260F7CF9E
:1014F0008F3FB9F7809110038460F1CF80E00895A9
:1015000090913A0392FF06C0282F28712830F9F4F1
:10151000877F846093FF06C0282F28712831F1F45B
:10152000877E846120913B0320FF06C0382F3871ED
:101530003830D9F4877F816021FF06C0282F2871B9
:101540002831D1F4877E816194FD877E0895282F0C
:1015500024712430F9F68B7F8860DCCF282F24712A
:10156000243101F78B7E8861DDCF382F3171313026
:1015700019F78E7F8860E0CF282F2171213121F764
:101580008E7E8861E1CF972F7E30A8F4663098F484
:1015900070E026E0929F600D711D1124FB0194E51F
:1015A000899FE00DF11D1124EE0FFF1FEE51FC4F3E
:1015B00085919491089580E090E00895CF93DF9312
:1015C000EC0182389105A9F1D8F58133910509F430
:1015D00096C048F58932910509F48AC08A9709F4C2
:1015E00095C0C11521E5D20708F0BCC0C11530E592
:1015F000D30708F014C1C83ED10508F09CC0C03E16
:10160000D10560F5C83AD10508F087C0C53AD105C3
:1016100008F0FDC0C130D10509F12097F9F0C430C0
:10162000D105E0F440C08533910509F45AC0C9974B
:10163000C1F680913A03837089F0C0EED0E00EC00D
:10164000833E910599F170F4803E910501F1823E4F
:10165000910539F680913A0382FD21C0CE01DF91D8
:10166000CF910895863E910561F1873E910571F114
:10167000843E910509F0B5CF80913B0381FFEECF09
:1016800080913A03C7EED0E084FD0DC0E7CF809192
:101690003A0380FD12C190913B0390FFDFCFC3EE70
:1016A000D0E084FFDBCFD0E0C0E0D8CF80913A0318
:1016B00082FD06C190913B0390FDBFCF84FFCECF4A
:1016C000F2CF80913A0383FDDDCFC8CF80913A03FA
:1016D00083FDF9C090913B0391FFF0CFC4EED0E0C1
:1016E000BDCF80913A0385FFB9CFC9E2D0E0B6CF34
:1016F00080913A0385FFB2CFC5E3D0E0AFCF8091B0
:101700003A0386FFABCFCAE2D0E0A8CF80913A037C
:1017100086FFA4CFC1E3D0E0A1CFCF3BD10518F61F
:10172000C85AD0E0CC0FDD1FC358DE4F0990D881D6
:10173000C02DD46493CFC11540E2D40758F4C1152D
:1017400081E0D80708F08ACFCD3ED10508F4ABCFB1
:10175000D06584CFC11590E4D90708F4A4CFDF7019
:10176000D06A7CCFC11525E5D20700F5C11534E557
:10177000D30708F08AC0C11543E5D40708F071C04B
:10178000C11582E5D80708F467C0CE018370992798
:1017900021E030E002C0220F331F8A95E2F7C695A0
:1017A000C69580E2C89FE001112452C0C11599E599
:1017B000D907A8F4C11528E5D20708F06BC0C115F8
:1017C00036E5D30708F06FCF8C2F0E94800AC82F10
:1017D000D0E0DC2FCC27CC27DF71D0623FCFC11502
:1017E0004AE5D40708F45BC0CE01905681159042BB
:1017F00008F059CF8D2F8F710E94800A90E0982FAA
:10180000882788279F719C012C2BE901E6CFC55AB8
:10181000D0E0C658DE4FC881D0E0D0641FCFCE01E3
:10182000E4E096958795EA95E1F783702C2F26954D
:101830002695237040E2249F90011124382B8C2F91
:101840008370C1E0D0E002C0CC0FDD1F8A95E2F7C3
:10185000C22BD32BDC6802CFDC2FCC27C16FD06A20
:10186000FDCECE018370992721E030E002C0220F27
:10187000331F8A95E2F7C695C69590E2C99FE001AD
:101880001124C22BD32BDA68E9CEDC2FCC27C46F0E
:10189000D06AE4CEDC2FCC27C06FD06ADFCE8C2F8D
:1018A0008F700E94800A34E0D695C7953A95E1F78B
:1018B000CF709C2FEC01D069D1CEC9E3D0E0CECE61
:1018C000C2EED0E0CBCEC6EED0E0C8CE8091BB0257
:1018D00081111092BB020895809590912C0398235A
:1018E00090932C03089580959091400398239093B2
:1018F000400308958091990290916802981301C065
:1019000008958F5F8770FACFB0E0A0E0EAE8FCE0CE
:101910000C9422348C01C090DC02D090DD02E09067
:10192000DE02F090DF028091BC029091BD02A09196
:10193000BE02B091BF02C82AD92AEA2AFB2ACFE107
:10194000D0E0BC2ED701C6010C2E04C0B695A795D9
:10195000979587950A94D2F780FD09C0219788F75B
:10196000B12C8B2DCDB7DEB7E9E00C943E34B80135
:101970008C2F0E94C30A0E94DE0A019779F3F1CFEF
:10198000CF93DF93EC010E94840CBE010E94C30A36
:101990000E94DE0ADF91CF910895292F9E3080F5B5
:1019A000863070F590E036E0239F800D911D112464
:1019B000682F677023E0969587952A95E1F725E0D3
:1019C000289FF001299FF00D1124E55DFD4F50E0A7
:1019D00040E080E0219130E0062E02C03695279548
:1019E0000A94E2F721703327042E01C0220F0A94D3
:1019F000EAF7822B4F5F5F4F4530510559F7089545
:101A000080E00895292F9E30A0F5863090F590E073
:101A100036E0239F800D911D1124282F277041E06F
:101A200001C0440F2A95EAF723E0969587952A95F9
:101A3000E1F725E0289FF001299FF00D1124E55DD5
:101A4000FD4F30E020E070E05191DF011197CB01B4
:101A5000022E02C0969587950A94E2F781708195CF
:101A60008527842385278C932F5F3F4F25303105B1
:101A700059F70895FC01808191810E94C00C9295D4
:101A80009F70963091F058F4925F9F70923058F4A6
:101A9000803F19F030F4883E30F481E008959A5F79
:101AA000F4CF843FD1F380E00895883EB0F3813FC6
:101AB000D1F7F3CFCF92DF92EF92FF926C01EE2439
:101AC000FF2420E0C114D104E104F10419F0C7019E
:101AD000B60120E1C72ED82EE92EFF24C114D1046F
:101AE000E104F10419F0285FC701B6016B017C0124
:101AF00054E0F694E794D794C7945A95D1F7C1145B
:101B0000D104E104F10419F02C5FC701B6016B01A7
:101B10007C0142E0F694E794D794C7944A95D1F7B4
:101B2000C114D104E104F10419F02E5FC701B6011C
:101B30009695879577956795672B682B692B09F0A4
:101B40002F5F822FFF90EF90DF90CF9008959C0140
:101B50009A9581159F4130F4832F817031FF03C026
:101B60008260089580E00895FC018081813041F415
:101B70009185911114C09285992389F082E008958E
:101B8000823041F48185811107C08285811106C0B0
:101B900083E0089586E0089585E0089584E008953F
:101BA00027982F98089526982E98089525982D986F
:101BB000089556985E980895279A2F9A0895269A20
:101BC0002E9A0895259A2D9A08952098289821985C
:101BD000299822982A9823982B9852985A98539883
:101BE0005B983E98469808958098889A8198899A3B
:101BF00084988C9A85988D9A86988E9A87988F9AD1
:101C0000089580933C0370933E0360933D0380915D
:101C1000F2038430F9F48093E9008FEF9091E800AB
:101C2000815095FD06C095ED9A95F1F70000811160
:101C3000F5CF8091E80085FF0DC050E040E063E003
:101C400070E08CE393E00E944E068091E8008E776E
:101C50008093E8000895BC0184E00E94010E08957D
:101C6000BC0183E00E94010E08959C0184E08093F2
:101C7000E9009FEF8091E800915085FD06C085ED59
:101C80008A95F1F700009111F5CF8091E80085FF6A
:101C90000CC050E040E066E070E0C9010E944E06D2
:101CA0008091E8008E778093E8000895CF93DF93CA
:101CB000EC0180916D018823B1F180913A0387FF97
:101CC00032C060E284E08093E9008FEF9091E800F9
:101CD000815095FD06C095ED9A95F1F700008111B0
:101CE000F5CF8091E80085FF1BC080916D0170E009
:101CF00050E040E0811104C050E040E068E070E056
:101D0000CE010E944E068091E8008E778093E80015
:101D100080E2FE01A3E4B3E001900D928A95E1F721
:101D2000DF91CF91089568E081E0CDCFEF92FF92EF
:101D30000F931F93CF93DF930E94D90D0E94D60D6E
:101D40000E94D30D0E94D00D88E8E82EF12C8FEF71
:101D500090E0F701918380830AE810E0F801918315
:101D60008083CCE8D0E0998388830E94E20DFFEF66
:101D700020E782E0F15020408040E1F700C0000001
:101D80000E94DF0D9FEFE0E7F2E09150E040F0406D
:101D9000E1F700C000000E94DC0D2FEF80E792E029
:101DA000215080409040E1F700C000000E94D60D15
:101DB000EFEFF0E722E0E150F0402040E1F700C013
:101DC00000000E94D30D8FEF90E7E2E08150904039
:101DD000E040E1F700C000000E94D00D8091CA02EF
:101DE0008770FFEF8F9FC00111249595879595957A
:101DF00087959927F70191838083F80191838083E8
:101E0000998388830E94D90D0E94D60D0E94D30D1C
:101E10000E94D00DCDB7DEB7E6E00C944134CF93ED
:101E2000C82F873078F580911B0190911C01892B78
:101E300039F564E670E080E40E94403390931C0121
:101E400080931B01892BD1F464E670E082E10E944B
:101E5000AE3390931C0180931B01892B79F481E0B0
:101E600090E001C0880FCA95EAF764E670E08095BB
:101E70000E94AE3390931C0180931B010E94013499
:101E8000CF9108958A30B1F038F4883069F0893004
:101E900071F0209A2898F4CF8C3091F070F08D304A
:101EA000C1F73E9A4698ECCF219A2998E9CF229A19
:101EB0002A98E6CF239A2B98E3CF529A5A98E0CFEC
:101EC000539A5B98DDCF0F931F93CF93DF9380914D
:101ED000EB0380FD0BC0E3E7F3E011821082128276
:101EE0001382349653E0EB3EF507B9F7E3E7F3E0EE
:101EF000928120813181892F291708F4822F381788
:101F000008F4832F8383381B3183281B2083981B7D
:101F10009283349683E0EB3EF80751F780911C03DF
:101F20008823D1F080911B0190911C01892BA1F491
:101F300080911A01882381F064E670E084E80E94B1
:101F40004033C7EED3E00BEA13E0892B09F42FC02E
:101F500010921A010E940134579A3BB13F772BB17E
:101F600020684FB7F89483E793E0FC015191CF01CB
:101F700068E02BB9000000C057FF3BB9550F0000C7
:101F800000C000C000C03BB900C06A9591F7F3E003
:101F90008B3E9F0751F74FBF8FE594E00197F1F714
:101FA00000C00000DF91CF911F910F91089564E66A
:101FB00070E088810E94AE3364E670E089810E94FF
:101FC000AE3364E670E08A810E94AE3364E670E06E
:101FD0008B810E94AE3324970C171D0741F7BACFAF
:101FE000A4E0B0E0E6EFFFE00C942734162F042FB6
:101FF0009091EB0390FF22C09E012F5F3F4F4FEF68
:102000006FEF0E94D0081017C8F48B8199812A8144
:1020100034E0139FF0011124ED58FC4F218390838D
:10202000828313821F5F34960113F8CF0E94630FDF
:102030008FE99FE00197F1F700C000002496E4E0EB
:102040000C944334EF92FF920F931F93CF93DF933F
:102050008C01C3E7D3E0F12CE12CF801948160916D
:10206000ED038091EC03FFE0EF16F104ECF499230B
:10207000E9F09E014091EE030E94D0082FEFE21A92
:10208000F20A24968EE1E816F10439F70E94630FF4
:10209000F801848190E00196817099278483CDB7FF
:1020A000DEB7E6E00C944134992319F39E0140E039
:1020B000E3CFB0E0A0E0EFE5F0E10C941F34EC01D9
:1020C0004C81042F10E09801D8010E9402379B0137
:1020D000AC010E94CD364B015C01E0E2F0E0E01B78
:1020E000F10BA5E5B0E0AC019B010E94CD366B0180
:1020F0007C019F01DF010E9478349B01AC010E94AA
:10210000D8369B01AC01280D391D4A1D5B1DC70146
:10211000B6010E94E036F22E822F90E039E23F15A0
:1021200098F143E0249F9001112435952795122FB3
:10213000109593E7C92E93E0D92E00E085E5E82EAF
:10214000EF188E2D01FD8F2D9601412F6091ED032B
:102150000E94D0080F5F54E0C50ED11C0E3189F7E4
:102160000E94630F9C8181E0992319F0903219F449
:102170008FEF80932A0180912A01890F8C83CDB73C
:10218000DEB7ECE00C943B3425E530E0A901481BB8
:10219000590BCA019A01220F331F280F391F37FF2D
:1021A000C4CF2F5F3F4FC1CF0F931F93CF93DF93C8
:1021B000C3E7D3E0FE0111821082128213823496AB
:1021C00083E0EB3EF807B9F710E000E080912703C9
:1021D000082E000C990B081719078CF18091290122
:1021E000082E000C990B801791074CF19E0140912D
:1021F000EE036091ED038091EC030E94D0080F5F25
:102200001F4F24960E31110509F70E94630F80912C
:10221000280190912703980F90932703209129017B
:10222000280F20932901121614F49D311CF081957A
:1022300080932801DF91CF911F910F91089519820A
:1022400018821A821B82DBCFB0E0A0E0EAE2F1E163
:102250000C942234FC018281DD24DA9480FD02C0DA
:10226000DD24D39403E713E0D0E0C0E02EE1B22EEA
:10227000F801118210821282138294E0E92EF12C6F
:10228000C12C809126038C0D8F31C4F16B2D0E94DF
:102290005034892F082E000C990B8C179D0791F450
:1022A0008091EE038E9DA0018F9D500D11245595B8
:1022B00047955595479598016091ED038091EC0302
:1022C0000E94D008CD0CF1E0EF1AF108D1F621966A
:1022D0000C5F1F4FCE31D10559F60E94630F8091DC
:1022E000260391E0D91210C081110CC08DE18093BA
:1022F0002603CDB7DEB7E9E00C943E3487FFCACFA2
:10230000825EC8CF8150F3CF90E00196BE010E945B
:102310005E34EDCFEF92FF921F93CF93DF93EC01EA
:1023200083E7E82E83E0F82E10E08C81970140913E
:10233000EE036091ED03810F0E94D008185F84E0E6
:10234000E80EF11C103F89F70E94630F9A818C817F
:1023500090FF08C08F5F8C83DF91CF911F91FF901A
:10236000EF9008958150F7CF9091EB0390FF0DC04F
:10237000E3E7F3E08183608342831382349693E042
:10238000EB3EF907B9F70E94630F0895A4E0B0E0AF
:10239000ECECF1E10C9427348C018091280381113D
:1023A0000AC09E012F5F3F4F4FEF6FEF0E94D00892
:1023B0008A8180932803F8016481613069F08091FB
:1023C000280340E0662361F040E0623011F4409160
:1023D000280380E060E004C06091280340E080E0D2
:1023E0000E94B411F801848190E0019663E070E0EE
:1023F0000E945E3484832496E4E00C944334A4E089
:10240000B0E0E5E0F2E10C9429349091EB0390FF09
:102410000AC09E012F5F3F4F0E94D0084B81698107
:102420008A810E94B4112496E2E00C944534CF9343
:10243000DF93EC01EBEEF3E0438162818C810E943B
:10244000FF118C818F5F8C83DF91CF910895CF93A3
:10245000DF93EC01EC81F0E0E751F74F4491EBEEB4
:10246000F3E0628181810E94FF118C818F5F8C83F8
:10247000DF91CF910895CF92DF92EF92FF926B019F
:102480007C010E94C108B701A60188E090E00E948B
:102490009C36FF90EF90DF90CF900895A4E0B0E0DD
:1024A000E4E5F2E10C941C34F82E762EE42E622E34
:1024B0009091EB0390FF29C0E92FE695AE2FB0E095
:1024C000A555BE4F8C91809323039E7F923009F5D2
:1024D0009E012F5F3F4F8F2D0E94D0084B81698155
:1024E0008A810E94B411F092EC037092ED03E092A5
:1024F000EE03662051F06091EB037091EC03809144
:10250000ED039091EE030E943B122496EFE00C94B1
:102510003834823019F4E090EE03E5CF863019F4B8
:10252000F090EC03E0CF8930D9F38931E1F6E9513D
:102530008E2F8170582EE695F0E0EC51F74FE49124
:102540000E2F10E083E7C82E83E0D82EB12CA12CEB
:102550009EE1892E912CC501B4010E9405348F2D76
:10256000511013C0860F96014E2D672D0E94D00882
:10257000A00EB11E84E0C80ED11C8BEEC81683E0FD
:10258000D80649F70E94630FAECF861BECCFEBEE67
:10259000F3E0438125E0421B08F440E021E0628142
:1025A00081810E944E120895EBEEF3E0438125E015
:1025B000420F08F44FEF21E0628181810E944E12A8
:1025C0000895EBEEF3E0628125E0621B08F460E021
:1025D00021E0438181810E944E120895EBEEF3E0E9
:1025E000628125E0620F08F46FEF21E04381818171
:1025F0000E944E120895EBEEF3E0818121E04381C9
:10260000628185500E944E120895EBEEF3E08181C5
:1026100021E0438162818B5F0E944E120895809178
:10262000EF03882319F081508093EF036091EB034F
:102630007091EC038091ED039091EE030E943B12A8
:1026400008958091EF03833018F48F5F8093EF0338
:102650006091EB037091EC038091ED039091EE0398
:102660000E943B120895EBEEF3E080818E7F808321
:1026700060817181828193810E943B1210922403B8
:102680002FEF80E792E0215080409040E1F700C0BA
:1026900000000E94630F0895EBEEF3E083E0808377
:1026A00011828FEF828383831482608171818281A2
:1026B00093810E943B1208958091400390912C03D6
:1026C000892B8093E2019091BB029923A1F0892B81
:1026D0008093E20180916D018823E1F180913A03BA
:1026E00087FF38C08EE1E4EEF1E090E08150A0F584
:1026F00091110E94660C40E250E06BE972E082EEBC
:1027000091E00E944936892B21F180E2E2EEF1E06E
:10271000ABE9B2E001900D928A95E1F7E0912F03C9
:10272000F09130033097A9F080916D01882359F022
:1027300080913A0387FF07C08091E2018093E30113
:1027400086E08093E2010280F381E02D82EE91E049
:102750000995089586E0C7CF2191222339F29F5F22
:10276000C5CFCF93DF93EC0181E0898B809140034B
:102770009F81892B8093400380912C039885892B1E
:1027800080932C030E945C13EA81FB81309729F02F
:102790006C897D89CE0106960995DF91CF910895C8
:1027A000EF92FF920F931F93CF93DF93EC018A85F3
:1027B000811134C0EB80FC8087E5F81A26E12E9D5C
:1027C000C0012F9D900D1124DC01A55DBE4F149614
:1027D000ED91FC911597309731F054966D917C9165
:1027E0008F5C9E4F099586E18E9D80018F9D100D17
:1027F0001124055D1E4FF80187810E94730CF801BA
:1028000080850E946C0C0E945C13188219861B86BE
:102810001E821D8210922B0310922A03CDB7DEB7C1
:10282000E6E00C944134882321F00E946C0C0E9455
:102830005C13089580912903882329F082E20E9485
:102840001314109229030895882339F090912C03D2
:10285000982B90932C030E945C130895882321F0F9
:102860000E94730C0E945C130895882339F09091A4
:102870004003982B909340030E945C13089568EEE8
:102880007EEF90E080E00E94A83660E082E090E079
:102890000E948A3660E083E090E00E948A361092BF
:1028A000BC021092BD021092BE021092BF0260E004
:1028B00084E090E00E948A3664E082E290E00E9428
:1028C0008A3660E085E090E00E948A3660E086E02B
:1028D00090E00E948A366FEF87E090E00E948A368F
:1028E00040E050E0BA0188E090E00E949C3660E051
:1028F0008DE090E00E948A3640E050E0BA0188E125
:1029000090E00E949C3660E087E190E00E948A3669
:1029100040E050E0BA018CE190E00E949C3670E00B
:1029200060E080E290E00E94A83640E050E0BA010A
:1029300088E190E00E949C361092CA021092CB026D
:102940001092CC021092CD0284E08093CA02409192
:10295000CA025091CB026091CC027091CD028FE0FF
:1029600090E00E949C3640E050E0BA0183E190E0A4
:102970000E949C36089580E290E090931C01809321
:102980001B0180911C0381110EC00E943A3381E02B
:1029900080931C032FEF83ED90E321508040904003
:1029A000E1F700C0000064E670E080E40E9440337C
:1029B00090931C0180931B01892B09F04EC064E6A3
:1029C00070E080E00E94AE3390931C0180931B0165
:1029D000892B09F042C064E670E080E00E94AE33CB
:1029E00090931C0180931B01892BB9F564E670E07C
:1029F0008FE30E94AE3390931C0180931B01892BBF
:102A000061F50E94013464E670E080E40E94403386
:102A100090931C0180931B01892BF9F464E670E00C
:102A20008CE00E94AE3390931C0180931B01892B94
:102A3000A1F464E670E080E00E94AE3390931C0144
:102A400080931B01892B49F464E670E08FE30E94B8
:102A5000AE3390931C0180931B010E94013480913E
:102A60001B010895CF93873050F580911B01909101
:102A70001C01C0E0892B71F464E670E081E40E94DF
:102A8000403390931C0180931B01892B31F0C0E0EF
:102A90000E9401348C2FCF91089584E690E00E942B
:102AA000DD3397FF05C090931C0180931B01EFCF8E
:102AB000C82FC09510921C0110921B01E9CFCFB115
:102AC0008FB1869586958C73C3708C2BC82FC0955B
:102AD000E1CF1F920F920FB60F9211242F933F93C5
:102AE0004F935F936F937F938F939F93AF93BF9316
:102AF000EF93FF938091E10082FF09C08091E20093
:102B000082FF05C08091E1008B7F8093E10080917E
:102B1000DA0080FF24C08091D80080FF20C080911F
:102B2000DA008E7F8093DA008091D90080FF9DC00B
:102B300080E189BD82E189BD09B400FEFDCF81E05D
:102B40008093F20380913F03811109C00E94FE052A
:102B50000E9423078091E20084608093E2008091CC
:102B6000E10080FF17C08091E20080FF13C08091D8
:102B7000E2008E7F8093E2008091E200806180938A
:102B8000E2008091D80080628093D80019BC85E073
:102B90008093F2038091E10084FF2BC08091E200DA
:102BA00084FF27C080E189BD82E189BD89B5982F66
:102BB000917080FFFBCF8091D8008F7D8093D800EB
:102BC0008091E1008F7E8093E1008091E2008F7E12
:102BD0008093E2008091E20081608093E200809126
:102BE0006503882309F447C084E08093F203809151
:102BF000F2038091E10083FF27C08091E20083FF10
:102C000023C08091E100877F8093E10082E0809380
:102C1000F203109265038091E1008E7F8093E100C2
:102C20008091E2008E7F8093E2008091E2008061DB
:102C30008093E20042E060E080E00E94F106809133
:102C4000F00088608093F000FF91EF91BF91AF9109
:102C50009F918F917F916F915F914F913F912F91B4
:102C60000F900FBE0F901F90189519BC1092F20391
:102C700010923F0374CF8091E30087FD93E090931F
:102C8000F203B5CF78941F921FB61F9211248F9331
:102C90009F93AF93BF938091340390913503A0919C
:102CA0003603B09137030196A11DB11D8093340303
:102CB00090933503A0933603B0933703BF91AF9140
:102CC0009F918F911F901FBE1F9018959C014FB729
:102CD000F8948091340390913503A0913603B0911C
:102CE00037034FBF821B930B08952FB7F894809141
:102CF000340390913503A0913603B09137032FBF71
:102D000008956091EB03669570E04BE050E08DE133
:102D100091E00E943C36892B19F481E080932403D2
:102D20000E94751690931E0380931D030895909141
:102D3000EB0390FF2CC0917081112AC09260909398
:102D4000EB03662351F06091EB037091EC038091EB
:102D5000ED039091EE030E943B126091EB036695A8
:102D600070E04BE050E08DE191E00E943C36892B11
:102D7000B1F01092240381E08093200320E0409181
:102D8000EE036091ED038091EC030E944E120895D2
:102D9000853210F09864D3CF880F982BD0CF0E9443
:102DA0008116E9CF60E00E9497160895EBEEF3E0FC
:102DB00080818160808386950E94D21608958091DB
:102DC0001B03811135C090E080E00E947436883E7C
:102DD0009E4F21F00E943F140E944C1388E090E027
:102DE0000E946E366093EB037093EC038093ED03C7
:102DF0009093EE036E7F71F40E944C1388E090E094
:102E00000E946E366093EB037093EC038093ED03A6
:102E10009093EE030E94C108109224038091EB036B
:102E200080FF03C086950E94D21681E080931B0329
:102E3000089561E00E9497160895CF92DF92EF9275
:102E4000FF92CF93DF936B017C010E945A0DD82F24
:102E50000E94D90D0E94D60D80917203811102C08B
:102E60000E94D30D0E94D00DC0912A02EFEFED0F0A
:102E7000E73008F085C0F0E0ED5EF84C0C94723459
:102E80000E94E20DC1110FC00E94D61681E00E947F
:102E9000D2164EE16FE088E70E94F00F4FE060E04D
:102EA00085ED0E94F00FC701B601DF91CF91FF9031
:102EB000EF90DF90CF9008950E94DC0DC111F3CF09
:102EC0000E94D61681E00E94D2164EE16FE085ED99
:102ED0000E94F00F4FE060E088E7E3CF0E94E20D30
:102EE0000E94DC0DC111DFCF0E94D61681E00E9446
:102EF000D21620E04FEF6FEF88E759C00E94E20D35
:102F00000E94DF0D0E94DC0DC111CDCF0E94D616AC
:102F100080910A0142C00E94DF0DC111C4CF0E94FE
:102F2000D61620E040E060E080E041C00E94E20D63
:102F30000E94DF0D0E94DC0DC111B5CF88E090E04A
:102F40000E946E366093EB037093EC038093ED0365
:102F50009093EE0360FF2EC0862F81608093EB0379
:102F600086950E9419178091EB0386950E94191788
:102F700021E04091EE036091ED038091EC0317C0D6
:102F8000D111DACFC1118FCF0E94D61680910A01DC
:102F900090910B01089721F488E00E94D21683CF0C
:102FA00081E00E94D21620E04FEF6FEF85ED0E9486
:102FB0004E1279CF0E94331376CF8091EB03869522
:102FC000815009F484E261E00E949716089580918F
:102FD000EB0386958F5F853208F081E061E00E9407
:102FE000971608959091EB0390FF08C09695981757
:102FF00028F0961718F40E94E71708950E941917F1
:1030000008950E9475169C019091170380911803F2
:10301000982B21F0309314032093130390911903FC
:1030200080911A03982B21F03093120320931103FF
:10303000E0912F03F0913003309749F082E08093C4
:1030400015030480F581E02D85E193E0099508954D
:1030500090E080E00E94970890E080E00E94810864
:1030600010922C030E945C1386E0E5E1F3E0DF019F
:103070001D928A95E9F710920F0310920E03109299
:1030800010030E9401180895CF92DF92EF92FF92F1
:10309000CF93DF93CDB7DEB7A0970FB6F894DEBF1E
:1030A0000FBECDBF0E941D176B017C018091F10303
:1030B0008823B1F02FEF80E792E0215080409040CC
:1030C000E1F700C0000085E08983C701B6010E94D6
:1030D0005A0D8A838EEF8B83CE0101960E947A0669
:1030E000C092DC02D092DD02E092DE02F092DF02BA
:1030F0000E942818A0960FB6F894DEBF0FBECDBF71
:10310000DF91CF91FF90EF90DF90CF9008950F93D4
:103110001F9341E050E060E070E004C0440F551F91
:10312000661F771F8A95D2F78091DC029091DD02AD
:10313000A091DE02B091DF028A019B0108271927C6
:103140002A273B27C901B8010E9444181F910F91FB
:1031500008950F931F9341E050E060E070E004C0D9
:10316000440F551F661F771F8A95D2F7CB01BA010E
:1031700060957095809590950091DC021091DD022C
:103180002091DE023091DF0260237123822393239A
:103190000E9444181F910F91089590919A02809572
:1031A000892380939A02282F277091F4282F082EC4
:1031B000000C330B9217130659F090913B0392FFCA
:1031C00007C08595859585950E94A91810929A0249
:1031D0000895CF93C0913B03C2FB992790F99817AC
:1031E00091F080FBC2F9C0933B0360913A0384E005
:1031F00090E00E948A366C2F82E290E00E948A362C
:1032000082E00E94CD18CF9108950F931F9341E063
:1032100050E060E070E004C0440F551F661F771F48
:103220008A95D2F78091DC029091DD02A091DE02B6
:10323000B091DF028A019B01082B192B2A2B3B2B13
:10324000C901B8010E9444181F910F91089560931D
:10325000BC027093BD028093BE029093BF020E9495
:103260002818089580916D01E4EEF1E0882361F063
:1032700080913A0387FF08C08EE1DF011D928A9595
:10328000E9F70E942818089586E0F7CFAAE2B0E097
:10329000ECE4F9E10C94283486E693E02091F10007
:1032A000FC012193CF01F3E08E369F07B9F780919F
:1032B0006703893009F444C018F5823009F4BCC0B2
:1032C000833009F46FC0813031F580916603813A13
:1032D00011F58091E800877F8093E80080916A0370
:1032E00090916B03892B41F560E283E493E070E0F9
:1032F0000E94DD078091E8008B778093E8000BC087
:103300008B3009F46CC008F486C0823409F4A5C07F
:10331000853409F4BFC08091E80083FF5AC28091D0
:103320006603909167039A3008F053C2E92FF0E0EA
:10333000E65EF84C0C94723460E090E080E0D7CF09
:1033400080916603813239F780916A0390916B0313
:10335000009711F00297F9F68091E800877F80933B
:10336000E8008091E80082FF18C09091F3008091FE
:10337000F200029731F48091F100813011F0863033
:1033800021F48091F100809342038091E8008B77D3
:103390008093E8000E94D206BECF8091F203811193
:1033A000E0CFB9CF80916603813A09F0B4CF809124
:1033B0006A0390916B03892B09F0ADCF8091E800EF
:1033C000877F8093E8008091E80080FFFCCF8091A8
:1033D0006D018093F1008091E8008E77D9CF8091C4
:1033E0006603813209F097CF80916A0390916B0355
:1033F000892B09F090CF8091E800877F8093E800C7
:103400000E94D2068091680380936D011092400360
:103410000E94321980CF80916603813209F07BCF00
:103420008091E800877F8093E8000E94D206809117
:103430006903809341036FCF80916603813A09F05D
:103440006ACF8091E800877F8093E8008091E80050
:1034500080FFFCCF80914103BCCF80916603803C0C
:1034600009F059CF80916A0390916B03029739F567
:103470008091680390916903892B09F58091E80098
:10348000877F8093E8006EE070E08BE99AE00E940D
:103490007E0780CF80916603803C09F03CCF80910D
:1034A0006A0390916B03079751F48091E800877F3E
:1034B0008093E80062EB70E089EE99E0E8CF8091BC
:1034C000EB0080628093EB0026CF803899F0823841
:1034D00009F07FC180916A038F70873008F079C14D
:1034E0008093E9008091EB0085FB882780F910929A
:1034F000E90006C08091630390916403911182609A
:103500009091E800977F9093E8008093F1001092EB
:10351000F1008091E8008E7758C1882309F446C1F4
:10352000823009F056C180916803811149C18091B0
:103530006A038F702FEF280F263008F04AC180935E
:10354000E9002091EB0020FF3BC1933031F48091E2
:10355000EB0080628093EB0033C19091EB009061AF
:103560009093EB0021E030E001C0220F8A95EAF74A
:103570002093EA001092EA008091EB008860EACF85
:10358000811127C1109168031F778091E300807833
:10359000812B8093E3008091E800877F8093E8008F
:1035A0000E94D2068091E80080FFFCCF8091E3006A
:1035B00080688093E30082E0111183E08093F2033E
:1035C00008C18058823008F004C18091680390914E
:1035D00069038C3D23E09207A1F583E08A838AE2A8
:1035E00089834FB7F894DE01139620E03EE051E264
:1035F000E32FF0E050935700E49120FF03C0E295E1
:10360000EF703F5FEF708E2F90E0EA30C0F0C7960A
:103610008D939D932F5F243159F74FBF8091E80020
:10362000877F8093E8006AE270E0CE0101960E94F5
:10363000DD078091E8008B778093E800CAC0C096D0
:10364000E7CF20916A0330916B03492F5527433010
:10365000510551F1A0F44130510509F459C062E718
:1036600070E08AEA9AE04230510509F0B2C0209138
:10367000E800277F2093E8000E947E07DACF4132DE
:10368000510539F14232510591F14F30510509F0A0
:10369000A0C0E2E8FBE0649170E080E89BE0611587
:1036A000710509F496C0E3CF99278130910571F037
:1036B000009731F0029709F08CC0EEE2FBE002C007
:1036C000ECE7FBE0649170E0CF01E9CFE2E5FBE0DD
:1036D000F9CF2330310508F07CC0220F331FF901E8
:1036E000E752FE4F8081918169E070E0C0CF2330C6
:1036F000310508F06EC0F901EE0FFF1FED52FE4FCD
:103700008081918120533E4FF901608170E0C7CFE5
:1037100062E170E08CE19BE0AACF803809F059C0EB
:103720008091E800877F8093E80080916503809313
:10373000F100EFCE81114DC010916803123008F0F6
:1037400048C08091E800877F8093E800109365036C
:103750000E94D206112311F084E005C08091E3009D
:1037600087FDFACF81E08093F20342E061EC81E0D3
:103770000E94F10642E261EC84E00E94F10642E21E
:1037800061EC82E00E94F10642E260EC83E00E947C
:10379000F10642E361EC85E00E94F10642E360EC51
:1037A00086E00E94F1068091F20313C080916803C5
:1037B000813079F481E0933009F080E080936403F4
:1037C0001092E9008091E800877F8093E8000E94D2
:1037D000D2068091E80083FF0AC08091E800877FCD
:1037E0008093E8008091EB0080628093EB00AA96C2
:1037F000E3E00C9444341F920F920FB60F92112401
:103800002F933F934F935F936F937F938F939F93E8
:10381000AF93BF93CF93DF93EF93FF93D091E900E2
:10382000DF708091EC00C82FC17080FDC0E810925D
:10383000E9008091F000877F8093F00078940E94E7
:1038400046191092E9008091F00088608093F000A2
:10385000CD2BCF70C093E900FF91EF91DF91CF9115
:10386000BF91AF919F918F917F916F915F914F9198
:103870003F912F910F900FBE0F901F9018951092AF
:1038800040030E9432192FEF84E39CE021508040D6
:103890009040E1F700C0000088E19AE00FB6F8948C
:1038A000A895809360000FBE90936000FFCF88239F
:1038B00091F19CEF980F913A40F4682F82EE91E0DD
:1038C0000E9457080E945C13089590E2980F983068
:1038D00050F4877091E001C0990F8A95EAF7892F1B
:1038E0000E94730CEFCF9BE5980F933028F490E083
:1038F00080E00E949708089598E5980F973128F482
:1039000090E080E00E94810808958D3E20F00E94A2
:1039100067090E9401180895CF93DF93EC010E947C
:10392000571CCE010E94A70DC05ED109289728F42C
:103930000E942E14DF91CF9108950E941314FACFA4
:103940008FE39CE90197F1F700C000008091070226
:10395000833059F0853011F0813021F48DE491E00D
:103960000E948C1C1092070208958AE491E0F8CF1F
:103970008FE39CE90197F1F700C0000080910502F8
:10398000833059F0853011F0813021F48DE491E0DD
:103990000E948C1C1092050208958AE491E0F8CFF1
:1039A0008FE39CE90197F1F700C0000080910302CA
:1039B000833059F0853011F0813021F485E390E0B7
:1039C0000E948C1C10920302089582E392E0F8CFCB
:1039D000CF93C82F882309F442C08CEF8C0F813A13
:1039E00008F065C080916D018823D9F180913A0378
:1039F00087FF37C0EC2FE695E695E695F0E0EE51AF
:103A0000FE4F828190E04C2F477021E030E002C0F1
:103A1000220F331F4A95E2F782239323892B61F00B
:103A20006C2F82EE91E00E9457080E945C1323C025
:103A300080913A0387FF23C0EC2FE695E695E69543
:103A4000F0E0EE51FE4FC77021E030E001C0220FE0
:103A5000CA95EAF78281822B82830E945C13CF9100
:103A60000895E4EEF1E08AEE91E02191C217C1F2EF
:103A70008E179F07D1F780916D018111D9CFA4EEE8
:103A8000B1E0EFEF80E09D91C91739F3EF3F19F4F2
:103A9000911101C0E82F8F5F8630A9F7EF3FE9F25F
:103AA0000E2E000CFF0BEE51FE4FC283D6CF80E2EC
:103AB0008C0F883068F4C77021E030E001C0220F1D
:103AC000CA95EAF780914003822B80934003C5CFCB
:103AD000EBE5EC0FE33040F4F0E0E658FE4F808178
:103AE00090E00E949708BBCFE8E5EC0FE73150F477
:103AF000F0E0EE0FFF1FE358FE4F808191810E949E
:103B00008108ADCFCD3E08F4AACF8C2F0E94240AA5
:103B10000E940118A4CF1F93CF93DF93182FD0E0FA
:103B2000C0E0893311F4C0E5D0E0812F0E94E81C89
:103B3000209739F4812F0E94571CDF91CF911F915C
:103B400008958FE99FE00197F1F700C000002197E9
:103B5000EFCF0F931F93CF93DF93C62FD42F022F56
:103B6000FC0182818823A9F0609370030E9475167E
:103B700090936F0380936E03C77081E001C0880F3C
:103B8000CA95EAF70E943514DF91CF911F910F91EA
:103B9000089580917003681332C080916E039091F4
:103BA0006F030E9466168D37910548F510E21D0FD0
:103BB000CD17B9F080E28C0F883040F4C77081E0F7
:103BC00001C0880FCA95EAF70E942E14183048F4F5
:103BD00081E09D2F977001C0880F9A95EAF70E94A7
:103BE0003514802F0E948B1D183070F6D77081E03D
:103BF00001C0880FDA95EAF70E942E14C5CFC7706E
:103C000081E001C0880FCA95EAF7F6CFB0E0A0E0E6
:103C1000ECE0FEE10C942134EC018AE0A82EFE01D8
:103C20002491222309F497C0213009F03EC0319637
:103C30008491813031F42296FE0184910E948B1D83
:103C400007C0823039F42296FE0184910E94E81C5C
:103C50002196E5CF833031F42296FE0184910E94B3
:103C6000571CF6CF843009F074C02296FE012491CF
:103C700090E080E0FE0131962053330B2A3031056D
:103C800048F0019728F3EFE9FFE03197F1F700C022
:103C90000000F7CFA89EA001A99E500D1124C901D4
:103CA000840F951F2491EF01E5CFE22FF0E0EC5057
:103CB000FE4FB490822F86958695869590E0FC0104
:103CC000EC51FE4FE4902770F12C022E02C0F594C7
:103CD000E7940A94E2F731E0E322FF24FC01EC527E
:103CE000FE4FC490D12C022E02C0D594C7940A94E2
:103CF000E2F7E1E0CE22DD24FC01EC53FE4F04911B
:103D000010E002C0159507952A95E2F7017011277A
:103D1000E114F10419F081EE0E94E81CC114D104F1
:103D200019F086EE0E94E81C8B2D0E948B1DC11499
:103D3000D10419F086EE0E94571CE114F10419F029
:103D400081EE0E94571C0115110509F481CF8CE208
:103D500075CFEF017DCFCDB7DEB7EAE00C943D34EF
:103D60001092720389EB9BE00E94061E8091710302
:103D7000811103C081E00E9487180895CF93DF93DB
:103D8000EC010E94A70D9E01205E3109283031050B
:103D900040F40E9435148C2F0E94E81CDF91CF91D3
:103DA00008950E942414F7CFCF93DF93EC010E9473
:103DB000BE1EC933D10549F42FEF87EE93E02150A1
:103DC00080409040E1F700C00000CE010E948C1CB2
:103DD000DF91CF910895CF93DF93EC0188818330F9
:103DE00061F48DE491E00E94D41E8DE491E00E9484
:103DF000D41E8DE491E00E94D41E8881843020F08E
:103E00008DE491E00E94D41EDF91CF9108950E942D
:103E1000EB1E0895CF93DF93EC018881833061F42A
:103E200085E390E00E94D41E85E390E00E94D41EBA
:103E300085E390E00E94D41E8881843020F085E3E1
:103E400090E00E94D41EDF91CF9108950E94B40D9E
:103E500080930702833039F0853051F0813039F496
:103E60008DE491E002C08AE491E00E94BE1E0895B4
:103E70008DE491E00E94D41EF3CF0E94B40D809394
:103E80000502833039F0853051F0813039F48DE40A
:103E900091E002C08AE491E00E94BE1E08958DE484
:103EA00091E00E94D41EF3CF0E94B40D80930302D0
:103EB000833039F0853051F0813039F485E390E07A
:103EC00002C082E392E00E94BE1E089585E390E066
:103ED0000E94D41EF3CFB0E0A0E0E1E7FFE10C9434
:103EE000223480911B0190911C01892BB9F08091A3
:103EF000C0028F5F8093C002811110C00E94BB146A
:103F000090E090931C0180931B01892B39F40E944F
:103F1000960E81E080931A010E94DF160EEC12E0EB
:103F20007801B12CD0E087E0C82ECD0E8D2F0E94F5
:103F30000F0F8C2D0E940F0F8D2F0E9432158F7343
:103F4000F7019081D12C891719F08083DD24D39457
:103F50008C2D0E9432158F73F7019781891709F410
:103F600044C0878381E08D29B82A0E94E50DDF5F78
:103F7000FFEFEF1AFF0AD730B1F6D091C402DD236C
:103F800009F47AC00E9475162091C2023091C302D2
:103F9000AC01421B530B9A019093C3028093C2025F
:103FA0004F3F510509F018F5452BE1F01092C4027E
:103FB0001092C102E091C802F091C902AF01425FC4
:103FC0005F4F90E030E08081882321F0281790F047
:103FD00010829D2F3196E417F507A9F73093C4029C
:103FE0009093C102B11057C04AC080E0BCCF2FEF00
:103FF00030E0DCCF821B80833D2FECCF9170892B8A
:1040000009F47CC08091C6029091C7028130984724
:1040100080F01092F0036091DC027091DD028091DB
:10402000DE029091DF020E941D171092C7021092CB
:10403000C6028091C6029091C70201969093C70272
:104040008093C6028B2DCDB7DEB7E9E00C943E34E9
:104050000E94DF0D5AC0892BA9F31092C70210925B
:10406000C6026091DC027091DD028091DE029091C7
:10407000DF020E941D17E6CFDB2DB11006C0809134
:10408000C102882349F1D11106C00E947516909390
:10409000C3028093C202A091C802B091C90280916C
:1040A000C402E2EEF2E020EF32E04EE15191E8018D
:1040B00099918E01591751F05C91511107C04C93A1
:1040C000BF0161507109EB01988381E011962E17B1
:1040D0003F0761F78093C4028091C6029091C702A6
:1040E0002091F003222309F4B6CF009709F086CF80
:1040F0000E94D60D0E94D30D0E94D00DD091C50212
:10410000DD2309F4A5CF0E94D30D81E0D827D093F9
:10411000C50278CFA3E2B0E0E0E9F0E20C941934F4
:104120003C01DC0113968D919C911497892B41F0F1
:104130008C9111969C9189238F3F11F00C94D32A76
:10414000A396E2E10C9435340E94840C182F682F5A
:1041500089819A810E94020D69817A81812F0E9452
:10416000C30A4C01F3018281811181C0C4018150D5
:104170009545D4018F3F910508F4B7C0F301F28152
:10418000FBA3FF2309F41EC3AF3FB10509F008F4F8
:10419000C8C0AC32BD4509F4ABC010922802D09023
:1041A000F003DD2009F48AC3ABA1A111A7C0E091FF
:1041B0002902E330A0F481E08E0F80932902F0E021
:1041C000EE0FFF1FEE5FFC4FD3018D919C91918309
:1041D000808382E08983CE0101960E947A06BFEF38
:1041E000E3EDF0E3B150E040F040E1F700C0000043
:1041F00080912902833009F081C01092F00310925F
:104200002902909103038091090398130C94CD2AFD
:10421000909102038091080398130C94CD2A9091F9
:10422000050380910B0398130C94CD2A90910403FD
:1042300080910A0398130C94CD2A90910D038091DC
:10424000070398130C94CD2A90910C0380910603D8
:1042500098130C94CD2A84E0898381E08093F10344
:104260008EEF8A83CE0101960E947A0647C0809124
:10427000180190911901019609F478CF0BE211E031
:10428000F12CE12CDD24D394809118019091190137
:104290008E159F050CF46ACFD80116968C9116974F
:1042A0008823E9F019968D919C918815990539F428
:1042B00080912A0390912B038815990581F0F801CC
:1042C000D786948683868189811103C0C8010E94A4
:1042D000B113C80106960E94D01310922C03FFEF71
:1042E000EF1AFF0A0A5E1F4FCFCF25E5B22746CF50
:1042F0008091280291E089278093280280919A0278
:10430000877009F41DCFD30112968C91882309F48C
:1043100017CF80913B0382FF13CF82E00E94CD181C
:104320000FCF80912802882309F4E8C01092280258
:10433000A03CB105E8F5A038B10508F0A9C0A0344B
:10434000B10508F06FC021E030E040E050E060E0EF
:1043500070E080E090E00A2F0E948734E09108022C
:104360002E2BE09109023E2BE0910A024E2BE091A8
:104370000B025E2BE0910C026E2BE0910D027E2B66
:10438000E0910E028E2BE0910F029E2B20930802EB
:104390003093090240930A0250930B0260930C027F
:1043A00070930D0280930E0290930F024D01F7CE91
:1043B000AF3FB10509F038F68D01005C110921E02D
:1043C00030E040E050E060E070E080E090E00E948B
:1043D0008734E09120022E2BE09121023E2BE091C8
:1043E00022024E2BE09123025E2BE09124026E2BE1
:1043F000E09125027E2BE09126028E2BE091270290
:104400009E2B20932002309321024093220250934E
:1044100023026093240270932502809326029093D6
:104420002702C4CF8D010054110921E030E040E0A3
:1044300050E060E070E080E090E00E948734E0911E
:1044400010022E2BE09111023E2BE09112024E2B16
:10445000E09113025E2BE09114026E2BE0911502A5
:104460007E2BE09116028E2BE09117029E2B20935B
:104470001002309311024093120250931302609382
:1044800014027093150280931602909317028ECF38
:104490008D010058110921E030E040E050E060E07B
:1044A00070E080E090E00E948734E09118022E2BAB
:1044B000E09119023E2BE0911A024E2BE0911B0273
:1044C0005E2BE0911C026E2BE0911D027E2BE09191
:1044D0001E028E2BE0911F029E2B20931802309318
:1044E000190240931A0250931B0260931C027093AE
:1044F0001D0280931E0290931F0258CFA034B10575
:1045000008F06BC0E0910802F091090250900A0295
:1045100040900B0230900C0220900D0230910E0260
:1045200039A380910F028AA321E030E040E050E0FF
:1045300060E070E080E090E00A2F0E948734A22EB5
:10454000AE22B32EBF22C42EC520D52ED420E62EF7
:10455000E320F72EF22009A108231AA119230E94B3
:10456000A03409F01CCEA03CB10508F096C0A038DC
:10457000B10508F0F7C0A034B10508F0C3C021E0D0
:1045800030E040E050E060E070E080E090E00A2F32
:104590000E94873420953095409550956095709590
:1045A000809590952E233F2345215421632172212C
:1045B000A9A18A23BAA19B23209308023093090260
:1045C00040930A0250930B0260930C0270930D0209
:1045D00080930E0290930F0291CEA038B105F0F4B3
:1045E000E0911002F09111025090120240901302DB
:1045F00030901402209015029091160299A32091F8
:1046000017022AA321E030E040E050E060E070E0D3
:1046100080E090E08D01005411098FCFA03CB105DE
:10462000F0F4E0911802F091190250901A024090B3
:104630001B0230901C0220901D0230911E0239A3F3
:1046400080911F028AA321E030E040E050E060E06A
:1046500070E080E090E08D01005811096ECFE0918C
:104660002002F091210250902202409023023090CB
:104670002402209025029091260299A320912702DE
:104680002AA321E030E040E050E060E070E080E00C
:1046900090E08D01005C110950CFAF3FB10511F0E2
:1046A00008F06DCF8D01005C110921E030E040E0A1
:1046B00050E060E070E080E090E00E948734209558
:1046C00030954095509560957095809590952E23E6
:1046D0003F234521542163217221E9A18E23FAA1B0
:1046E0009F23209320023093210240932202509373
:1046F00023026093240270932502809326029093F4
:104700002702FCCD8D010054110921E030E040E08A
:1047100050E060E070E080E090E00E9487342095F7
:1047200030954095509560957095809590952E2385
:104730003F234521542163217221E9A18E23FAA14F
:104740009F23209310023093110240931202509342
:1047500013026093140270931502809316029093D3
:104760001702CCCD8D010058110921E030E040E066
:1047700050E060E070E080E090E00E948734209597
:1047800030954095509560957095809590952E2325
:104790003F234521542163217221A9A18A23BAA173
:1047A0009B23209318023093190240931A025093CE
:1047B0001B0260931C0270931D0280931E02909353
:1047C0001F029CCDAF3FB10511F008F0E8CCA0343A
:1047D000B10550F5A0900802B0900902C0900A02FD
:1047E000D0900B02E0900C02F0900D02F0910E02BE
:1047F000E0910F0221E030E040E050E060E070E046
:1048000080E090E00A2F0E948734A222B322C422C3
:10481000D522E622F722082F0F23192F1E230E94EC
:10482000A03409F0BCCC6ACDA038B105E0F4A0906A
:104830001002B0901102C0901202D0901302E090CA
:104840001402F0901502F0911602E09117028D010A
:104850000054110921E030E040E050E060E070E0F9
:1048600080E090E0D0CFA03CB105A0F4A090180269
:10487000B0901902C0901A02D0901B02E0901C0266
:10488000F0901D02F0911E02E0911F028D01005870
:104890001109E0CFA0902002B0902102C090220226
:1048A000D0902302E0902402F0902502F09126029D
:1048B000E09127028D01005C1109CCCF8091F103BA
:1048C000882381F0ABA187E0A11186E08983F30101
:1048D00080818A8381818B838EEF8C83CE010196C8
:1048E0000E947A06FFEA8F16FDE59F0609F0C2C016
:1048F000D30112968C918823C9F18091CA0291E06C
:10490000980F9770887F953008F4892B8093CA029E
:104910008091CA028770BFEF8B9FC00111249595CB
:10492000879595958795992790938900809388001E
:1049300090938B0080938A0090938D0080938C00DD
:104940004091CA025091CB026091CC027091CD028D
:104950008FE090E00E949C366091DC027091DD0255
:104960008091DE029091DF020E941D17C4019755CD
:104970008F3F910511F008F006C220911801309187
:1049800019012817390724F490931901809318010D
:10499000D30112962C91129736E1389F7001399FFE
:1049A000F00C11248701055D1E4FF801208B129633
:1049B0009C918681992309F4D9C1928681868F5F63
:1049C00086830E947516D8011E969C938E931D9720
:1049D0008091BB0217968C93179780912C0390912E
:1049E0004003892B18968C931897ED91FC911197A1
:1049F000309739F054966D917C91C7018F5C9E4F32
:104A0000099590922B0380922A0380912903882391
:104A100009F482C2009140031091BB020E947516F6
:104A20008854944F909300038093FF02F301828196
:104A3000882309F471C2102B1D7909F04CC281142E
:104A4000F5E59F0608F02CC2811423E5920608F0D4
:104A5000C2C1811430E5930608F0B8C1811480E426
:104A6000980608F03BC296EE8916910409F4B3C18A
:104A7000C4013AC2E8EB8E16EDE59E0609F409C1C1
:104A800008F069C022EB82162DE5920609F4DBC01E
:104A900080F581E0881688E5980679F0B0F4A1EEFB
:104AA0008A16910409F062CFD30112968C91882363
:104AB00021F0109272030E94D30DF3018581807F53
:104AC00009F450C11092710351CFB0EB8B16BDE5C4
:104AD0009B0609F43BC1E1EB8E16EDE59E0609F05D
:104AE00045CFD30112968C91882309F407CC81E03D
:104AF0006EC2F5EB8F16FDE59F0609F4B9C0B8F458
:104B000033EB83163DE5930609F4AAC084EB8816BF
:104B10008DE5980609F02ACFD30112968C9188234F
:104B200009F424CF80EC93E00E94061E1FCF96EB81
:104B300089169DE5990609F4A3C0A7EB8A16ADE591
:104B40009A0609F013CFF3018281882309F4D6CBAA
:104B500080E993E080C0BEEB8B16BDE59B0609F4AF
:104B6000BCC080F5FBEB8F16FDE59F0609F4A2C0E3
:104B7000A8F439EB83163DE5930609F493C08AEB5C
:104B800088168DE5980609F0F1CED30112968C9126
:104B9000882309F4B3CB82E593E05DC09CEB8916D2
:104BA0009DE5990609F48EC0ADEB8A16ADE59A062F
:104BB00009F0DCCEF3018281882309F49FCB80EFDA
:104BC00092E088C0B1EC8B16BDE59B0609F496C057
:104BD000A8F4FFEB8F16FDE59F0609F487C020ECD3
:104BE00082162DE5920609F0C1CED30112968C9162
:104BF000882309F483CB8CE992E06CC032EC8316F5
:104C00003DE5930609F482C083EC88168DE598068D
:104C100009F0ACCEF3018281882309F46FCB809137
:104C20000A0190910B010D9709F08DC088E090E08A
:104C300090930B0180930A010E94D61680910A017D
:104C40000E94D2165BCBD30112968C91882309F473
:104C500055CB8EED93E00E94061E0E94B01E4ECBF7
:104C6000F3018281882309F449CB8AED93E0F3CFE5
:104C7000F3018281882309F441CB8EEA93E0EBCFE4
:104C8000D30112968C91882309F438CB8CE993E0F8
:104C9000E2CFD30112968C91882309F467CE86E780
:104CA00093E042CFF3018281882309F45FCE86E549
:104CB00093E03ACFF3018281882309F41FCB84E289
:104CC00093E0C9CFD30112968C91882309F416CBB7
:104CD00084E093E00E94061E11CBD30112968C91C2
:104CE000882309F40BCB80ED92E0F4CFF3018281AD
:104CF000882309F403CB80EB92E0ECCFF3018281AF
:104D0000882309F4FBCA8CE792E0E4CFD301129622
:104D10008C91882309F4F2CA8091720381110AC030
:104D200088E792E00E94061E81E0809372030E9451
:104D3000DF0DE4CA84E792E00E94061E109272031F
:104D40000E94D30DDBCA8DE090E072CFF301828127
:104D5000882309F4D3CA80912A0291E0892780939D
:104D60002A02CCCA81E08093710300CE882309F423
:104D70004CCE8189882309F448CEC7018F5C9E4FB1
:104D80000E94D01342CEFEEA8F16FDE59F0609F081
:104D90003CCED30112968C91882309F4AFCA80913E
:104DA0002903882319F00E941A14A8CA10924003FC
:104DB0000E94660C0E9475168854944F90930003CD
:104DC0008093FF0281E08093290398CA8114A2E5B1
:104DD0009A0608F04DCED30112968C91882309F4DF
:104DE000F7C310927003BCE58B16BDE59B0609F472
:104DF00075C108F0D8C08114FCE59F0609F422C1F2
:104E00002FED82162CE5920609F45BC1F301828135
:104E100000811181882309F465C1C8010E94840CB6
:104E2000F82E682FC8010E94020DB8018F2D0E9434
:104E3000C30A0E94DE0A8C01A82ED3011296FC90B0
:104E400012971596BC90B2943FE0B32280919A02DB
:104E50008770C1F0FF20A9F0812F807F803421F07E
:104E600080E2800F883070F080913B0382FF0AC09F
:104E700082E00E94CD1880919A028770DD24D3943D
:104E80008111D12CC12EC2942FE0C222BBE0BC15EF
:104E900008F489C1EC2DF0E0EC5DF84C0C94723410
:104EA0008114B9E59B0660F48114E8E59E0608F0DC
:104EB00092CFF4E18F16F5E59F0609F0D9CD8BCF9F
:104EC000C40190568115904208F0D2CDD3011596B9
:104ED0008C91807F39F40E941A141EC0F3018581E1
:104EE000807FD1F0C401992710922C03883291055C
:104EF00058F48E31910570F4049768F382E0809342
:104F00002C030E945C1306C08D329105B9F3F0F4B6
:104F10008A9709F70E945C1324EF82162CE592060B
:104F200099F1D8F489ED88168CE5980649F19AED47
:104F300089169CE59906A1F1A8ED8A16ACE59A06BA
:104F400009F049CF26E241EE61EE16C08C3491059E
:104F500009F38D329240F1F2BECFB6EF8B16BCE56D
:104F60009B06D1F0A8F027E245EE66EEF7EF8F162C
:104F7000FCE59F0609F02FCFC3010E94A91DBEC901
:104F800027E245EE65EEF8CF26E241EE60EEF4CF83
:104F900027E245EE64EEF0CF26E241EE62EEECCF82
:104FA00028E241E0EFCF3EE583163DE5930609F4A4
:104FB0008BC008F495C099EA89169DE5990609F019
:104FC00025CF0E943F1C81608093EB0386950E9451
:104FD000191794C94DED57E167EE77E10E94BA08C1
:104FE0008DC947EE57E16DED77E1F8CF45E053E12C
:104FF0006BEF72E1F3CF41EE52E16EEE72E1EECF74
:1050000047EC52E164ED72E1E9CF44ED52E167EC27
:1050100072E1E4CF41E253E16FE073E1DFCF65E09D
:1050200082E00E94F2176AC968E086E0FACF64E184
:105030008FE0F7CF67E185E1F4CF62E289E1F1CF5C
:1050400083E2C5CF109240030E943219AFEFB4E360
:10505000ECE0A150B040E040E1F700C00000F8945F
:1050600081E08093E00080E28093D8001092C90034
:105070008FE19EE40197F1F700C000001DBA109285
:1050800068001CBC10BE1FBA10927A0010926E000D
:1050900010926F0010927100109272001092C9006D
:1050A0001092BC0014B817B81AB81DB810BA1092F4
:1050B000BC0015B818B81BB81EB811BA0C94003F44
:1050C0001DC90E943F147DCF80913B0382FB88273E
:1050D00080F991E089270E94E91898CE81E0FBCF02
:1050E00080E0F9CFC8010E94CD0CF82E9ECEE12FB2
:1050F000EF70EE2E107F19F0E29490EFE922FF207E
:10510000B9F0EE2069F080E2800F883010F0A11035
:1051100009C080914003E82AE09240030E945C139A
:10512000802F3FC080912C03E82AE0922C03F6CF19
:10513000802F0E94571CEE20B1F1005E8E2D0830AA
:1051400010F0A11003C00E94730C02C00E946C0CEE
:105150000E945C1328C0F12FFF70EF2E107F1032D9
:1051600019F0E29480EFE822AA2059F021E0A2167B
:1051700009F473C0FF2009F47BC0BB2009F473C09D
:10518000CFCF20913B0322FD45C0FF20E1F1EE206F
:1051900039F080914003E82AE09240030E945C13BA
:1051A00080E00E94E81CAC2DA850BB0B149710F4B3
:1051B0000E94AD08DD20A9F080919A0280FD11C007
:1051C000F30112828595859585950E940519C30185
:1051D0000E948A2080919A028595859585950E94E6
:1051E000A91885E0F301DE01119601900D928A95D0
:1051F000E1F709811A81C8010E94CD0CB8010E9413
:10520000C30A0C94A02080E00E94571CEE2059F2A3
:105210008E2D99CFFF20A1F09091BB028E2D892B6E
:10522000B11003C00E943514BECF31E0B312FACFE3
:1052300022FFB9CF891709F4B6CF8093BB02B3CF51
:10524000B11006C00E94660C8E2D0E942E14ABCFAA
:1052500081E0B81609F4A7CFF5CFFF2031F091E037
:105260009B1508F4A0CF8E2DDDCFB1109CCFECCFD5
:10527000BB2051F3A9E3AA1209C0BFEFE7EEF3E0A8
:10528000B150E040F040E1F700C00000802F0E94E4
:10529000571C89CF812F86958695837061F0813068
:1052A00009F081CFC8019370F11002C090E080E056
:1052B0000E94810878CFC8019370F11002C090E07D
:1052C00080E00E9497086FCF802FFF2029F00E9476
:1052D000240A0E94011867CF0E946709FACF812F24
:1052E000837009F066C0F1105ECF802F829586959D
:1052F0008770880F880F602F6F70862E912CB12CCD
:10530000A12C082E04C0880C991CAA1CBB1C0A9452
:10531000D2F740E050E0BA0104FF0FC04FE050E088
:1053200060E070E004C0440F551F661F771F8A9528
:10533000D2F74095509560957095812F869586950A
:105340008370823019F1D8F40091BC021091BD0233
:105350002091BE023091BF02813069F0482959295D
:105360006A297B29CB01BA0160237123822393230D
:105370000E94271918CF802A912AA22AB32ACB018A
:10538000BA01682979298A299B29F2CF4829592904
:105390006A297B290091BC021091BD022091BE02B6
:1053A0003091BF02CB01BA01602771278227932772
:1053B000DFCF8695FF2011F0812F8170882309F4BB
:1053C000F2CE802F829586958770880F880F602F88
:1053D0006F70862E912CB12CA12C082E04C0880C45
:1053E000991CAA1CBB1C0A94D2F740E050E0BA01F9
:1053F00004FF0FC04FE050E060E070E004C0440FD5
:10540000551F661F771F8A95D2F740955095609576
:105410007095812F869586958370823019F1D8F426
:105420000091DC021091DD022091DE023091DF025A
:10543000813069F0482959296A297B29CB01BA01B1
:1054400060237123822393230E944418ACCE802AC8
:10545000912AA22AB32ACB01BA01682979298A297B
:105460009B29F2CF482959296A297B290091DC021E
:105470001091DD022091DE023091DF02CB01BA01F2
:105480006027712782279327DFCF1F70FF2029F025
:10549000812F0E940519802FC5CE802F0E942E14C7
:1054A000812F0E94A9187FCE802F22EFA21669F1CA
:1054B0002A1570F030EFA316D1F091EFA91691F0F4
:1054C000FF2009F45AC0B1102BCE812F8F7121C05B
:1054D000A3EFAA1609F1B4EFAB12F2CF80913B0310
:1054E00082FD2DC0812F8F71FF20D9F212C0FF20C5
:1054F00039F0B11058CE812F8F710E94871853CE8A
:10550000E1E0EB1508F44FCEF6CF812F8F71F1104B
:10551000C8CF0E94051947CE60E070E0CB01FF20A4
:1055200009F492CF1F7161E070E080E090E004C068
:10553000660F771F881F991F1A95D2F785CFFF2016
:1055400089F01F71812F0E94051980913B0382FF12
:1055500007C0F8E01F9FC0011124836080939A0266
:10556000812FD7CF81E00E94CD1821E02B1508F0C4
:105570001ACE82E00E94CD1816CEBB2059F0893396
:1055800009F084CE3FEF87EE93E0315080409040A9
:10559000E1F77ACE812F8F7184CF83E089831092D7
:1055A000F1030C94302185E0F301DE0111960190A6
:1055B0000D928A95E1F7D30112962C9189819A81F7
:1055C00021110C94A4200E94CD0C182F0C94AC2017
:1055D000809140038272BDEC8B16BCE59B0609F4FA
:1055E00019CD08F056C0F7EC8F16FCE59F0609F4BC
:1055F000FDCC30F534EC83163CE5930609F4EACC97
:1056000070F4A3EC8A16ACE59A0609F0FFCB809102
:10561000EB0380FFD8CC0E9433130C947E21B5ECB1
:105620008B16BCE59B0609F4DCCC4BEF52E165E040
:1056300073E1E6EC8E16ECE59E0609F4CFCCE6CBE2
:10564000FAEC8F16FCE59F0609F4DACC88F438EC06
:1056500083163CE5930609F4CECC4EEE52E161EEA2
:1056600072E199EC89169CE5990609F4B7CCCECB8A
:10567000ABEC8A16ACE59A0609F4C7CC4FE053E1CF
:1056800061E273E1BCEC8B16BCE59B0609F4A6CC89
:10569000BDCBE2ED8E16ECE59E0609F4C8CCB8F45D
:1056A0002FEC82162CE5920609F4B9CC08F41FCA37
:1056B00080ED88168CE5980609F4B6CC6EE089E09A
:1056C00091ED89169CE5990609F4ABCC9FCBA5ED2D
:1056D0008A16ACE59A0609F4B0CC70F4E3ED8E16A8
:1056E000ECE59E0609F4A6CC88E1F4ED8F16FCE506
:1056F0009F0609F46CCC8ACB26ED82162CE5920627
:1057000009F49ECC3FE583163DE5930611F40C9415
:105710007E217CCB1F93CF93DF9380916702807FA4
:1057200009F049C080916402882309F444C0809143
:105730009902D09168026091620270916302A09117
:105740006502B0916602C62FC72316E0D81799F1FB
:1057500090E0109711F0CF3F19F401968770F6CFC3
:10576000189F9001199F300D1124F901E759FD4F41
:1057700041814713F2CF40814613EFCF428141115F
:10578000ECCF438154814A1B5B0B4D37510528F701
:10579000809167028F70806180936702F901E259FE
:1057A000FD4F80818F708061808382E692E00E944D
:1057B0008A200E947A0CDF91CF911F910895A1E178
:1057C000B0E0E5EEFBE20C9421348C0185E0F801B9
:1057D000DE011D9601900D928A95E1F7F801E280B5
:1057E00082E6A82E82E0B82E609165027091660272
:1057F0006115710509F426C190916202409163021E
:10580000892F84238F3F09F41DC120813181C380FA
:10581000D480F0906402F601E61BF70BFF2009F438
:10582000DCC080916702582F507FED37F10508F0FA
:105830009FC051116BC0FE2C431314C0921312C0B1
:10584000E11010C08F70806180936702C5010E94D3
:105850008A2080916702F80185838F2D6196EAE0A6
:105860000C943D34C114D10429F0822F83238F3F3F
:1058700009F003C180E0F82FF170DF2E80FF3CC0FB
:10588000809199024091680256E0841315C02D87DB
:105890003E878D859E850E94C00C292F22952F70F2
:1058A0002230F0F0243018F59F70F1F0F801958166
:1058B000907FD1F4D12C1EC090E0589FF001599FE9
:1058C000F00D1124E759FD4F6181361306C0608148
:1058D000261303C06281E6120FC001968770D5CFF0
:1058E0009F7011F0882331F3805E883018F3C8016F
:1058F0000E948A20FD2CB1CFEE2009F4AECF80911A
:105900006702816080936702F12CA7CF431306C022
:10591000921304C0F801EE2009F479C0C8010E9476
:105920003A0D882309F1EE20F9F080916702803268
:1059300070F0209162023091630238872F831986BC
:10594000DB86CA868C87CE0107960E948A2086E075
:10595000F801A2E6B2E001900D928A95E1F70E946B
:105960008A2BFF24F39479CFC8010E948A20F9CFB3
:1059700051110AC082E692E00E948A2086E0F50179
:1059800011928A95E9F7C0CF43130FC092130DC04F
:10599000E1100BC0F8018583C8010E948A2086E0CF
:1059A000F50111928A95E9F758CFC8010E943A0D86
:1059B0008823D1F2EE20C1F280916702803238F262
:1059C00020916202309163023A8329831B82DD8237
:1059D000CC828E83CE010196B8CFED37F105F8F673
:1059E000FE2CEE2009F243131FC092131DC08091BC
:1059F000670280FD10C0982F907F69F0F8018583C1
:105A0000903F31F0982F907F905F8F70892B858326
:105A1000C8010E948A2086E0F801A2E6B2E0019067
:105A20000D928A95E1F719CFC8010E943A0D8111B4
:105A30008ECF80916702816080936702C8010E94C7
:105A40008A200BCFEE2009F48FCFC8010E943A0DB7
:105A5000F82E882309F488CF86E0F801A2E6B2E0A8
:105A600001900D928A95E1F7809162029091630214
:105A70000E94C00C0E948A2BF0CE81E08E25FBCEC6
:105A8000A7E1B0E0E6E4FDE20C9428344B8B5C8B9C
:105A90006D8B7E8B8F8B611110922C031A8A198A61
:105AA00085E0FE017396DE011D9601900D928A95A8
:105AB000E1F786E0FE013D96DE01179601900D921A
:105AC0008A95E1F7CE0107960E94DF2B882359F0D3
:105AD00016E08091990290916802891345C06796FB
