:100000000C94A1050C94BE050C94BE050C94BE0581
:100010000C94BE050C94BE050C94BE050C94BE0554
:100020000C94BE050C94BE050C942C150C949E1BD0
:100030000C94B82C0C94BE050C94BE050C94BE0513
:100040000C94BE050C94BE050C94BE050C94BE0524
:100050000C94BE050C9405160C94BE050C94BE05BC
:100060000C94BE050C94BE050C94BE050C94BE0504
:100070000C94BE050C94BE050C94BE050C94BE05F4
:100080000C94BE050C94BE050C94BE050C94BE05E4
:100090000C94BE050C94BE050C94BE050C94BE05D4
:1000A0000C94BE050C94BE050C94BE050501090216
:1000B000A10185020901A1000509190129081500FE
:1000C0002501950875018102050109300931158165
:1000D000257F95027508810609381581257F9501D0
:1000E00075088106050C0A38021581257F95017572
:1000F000088106C0C005010980A101850319012AF4
:10010000B700150126B700950175108100C0050CD8
:100110000901A101850419012AA002150126A002E6
:10012000950175108100C005010906A1018506052C
:100130000719E029E71500250195087501810205D9
:1001400007190029EF1500250195F07501810205B9
:10015000081901290595057501910295017503910D
:1001600001C00660FF0961A1010962150026FF00B8
:100170009520750881020963150026FF00952075FA
:10018000089102C005010906A101050719E029E748
:1001900015002501950875018102950175088101F9
:1001A0000507190029FF150026FF0095067508812F
:1001B000000508190129059505750191029501753C
:1001C000039101C00103E1000000000000000000F5
:1001D000000000000000000000000000000000001F
:1001E0000000000000000000000000007E0F00D4AE
:1001F000FFFFFFC7000000780000000000000000C3
:100200002A2B280000000000000000000000000071
:1002100000000029000000002C1E3420212224347C
:100220002627252E362D3738271E1F20212223244E
:1002300025263333362E37381F0405060708090AEA
:100240000B0C0D0E0F101112131415161718191A86
:100250001B1C1D2F3130232D350405060708090A04
:100260000B0C0D0E0F101112131415161718191A66
:100270001B1C1D2F3130354C0103E1000102E10050
:100280000102E00101170103E0010435307C0102A5
:10029000E001010F0103E0000102E101011F010380
:1002A000E1010435307C0102E101011F0103E1019C
:1002B0000435307C01015000010134010435307CEB
:1002C000010134010435307C010150000102E101DB
:1002D00001360103E1010435307C0102E1010137FF
:1002E0000103E1010435307C010150000102E1010C
:1002F000012F0103E1010435307C0102E1010130ED
:100300000103E1010435307C0101500001012F019E
:100310000435307C010130010435307C010150008E
:100320000102E10101260103E1010435307C0102F3
:10033000E10101270103E1010435307C0101500096
:1003400001014C0001014C0001014D0001014A0076
:1003500001014A010436307C010128010436307C59
:10036000010152010436307C0102E0010119010350
:10037000E00001014A010436307C01012801043605
:10038000307C0101520001014A010436307C010237
:10039000E101014D0103E1010436307C0102E0017D
:1003A00001060103E00001014A010436307C01022C
:1003B000E101014D0103E1010436307C01012A0015
:1003C00001014A010436307C0102E101014D0103C3
:1003D000E1010436307C01012A0001014D0104369F
:1003E000307C010128010436307C0102E001011952
:1003F0000103E00001014D010436307C01012800B9
:100400000102E101014D0103E1010436307C0101EB
:100410002A002B042B012961E100E00000001E00EE
:10042000140004001D00640036021F001A001600AC
:100430001B0035002B002000080007000600E2002A
:100440002C00210015000900190001582F0222007C
:1004500017000A00050000002602230046000000E5
:10046000B05D00002F002400AE5D000014500000BD
:10047000300025001C000B001100000027022600A0
:1004800018000D0010000258300227000C000E006A
:10049000360034002A002D0012000F0037001F0222
:1004A00028002E00130033003800320037020353B7
:1004B0000007E300E1004C0000000100AC00010077
:1004C0000100010000003A001A01BB5D01000100BB
:1004D000C15D3B004F011601BC5D010001003C0005
:1004E0000F014C01B25D010001003D001C01010043
:1004F000C55D0100C05D3E00C45D015750010000B4
:10050000BE5D3F000100000001000000BF5D400033
:100510000100000001000000010041000601500040
:1005200001000000010042001D0151000100010016
:1005300001004300BA5D52000100C25D2A0144007F
:10054000B35D4F000100C35D010045001901AE001D
:100550000901C45C01000100AB0001000100C35CA3
:1005600000000100AC0001000100010000001E01BC
:100570001A014D000100FD004E001F014F01160140
:10058000BD5DFE00500920010F01B55DB65DFF00A5
:10059000F1002101150101004900010001002201C3
:1005A0000100025750010000FB002301160A000061
:1005B00001000000FA002401010000000100000019
:1005C000F9002501B75DEF0001000000FC002601E5
:1005D0001D01EE00010001000100A8004A00ED002D
:1005E00001000100F200AA00B85DF0000100010066
:1005F0004F09A900B45DAE000901C65D4B000100C2
:10060000AB0001000100C35C00000100010001001B
:100610000100CD5C000059004C0001000100CC5CE1
:10062000C75C5A00F10016011B01C95C01005B00A8
:100630000F05F200FD00010001005C00150105013D
:10064000FE00C85CCB5C5D0001000100FF00000003
:10065000FB005E000100000001000000FA005F00E6
:100660000100000001000000F90060000601EF0039
:10067000AC000000FC0061001D01EE00AA000100BA
:10068000CA5C62000100ED00A90001000100010048
:100690000100F000AB00010001005300190101004E
:1006A000A800AF5DC65C01000100C35C0100005CF6
:1006B000000001000100290001000100000001000C
:1006C0000100010001000100010001000100010022
:1006D0000100010001000100010001000100010012
:1006E0002B0001000100010001002C0001000100AD
:1006F00001000100010000000100010001000000F4
:100700000100000001000100010000001050000085
:1007100001000100010001000100000001000100D2
:1007200001000100010001000100010001000100C1
:1007300001000100010001000100010001000100B1
:1007400001000100010001000100010001000100A1
:100750000100010001000100000000047F3F1F6450
:100760003214643214783C1E1E140A050001010183
:10077000010101010101020202020202020202035E
:10078000030303030303030404040404040405052E
:1007900005050506060606060707070707080808F1
:1007A00008090909090A0A0A0B0B0B0C0C0C0D0DA0
:1007B0000D0E0E0E0F0F0F10101111111212131338
:1007C0001414151516161717181819191A1A1B1BB1
:1007D0001C1D1D1E1E1F202021222223242425260D
:1007E00026272829292A2B2C2D2D2E2F3031323245
:1007F000333435363738393A3B3C3D3E3F40414251
:10080000434445464748494A4C4D4E4F5051535436
:10081000555658595A5B5D5E5F61626465666869EA
:100820006B6C6D6F7072737577787A7B7D7E80826A
:10083000838587888A8C8E8F91939596989A9C9EB3
:10084000A0A2A3A5A7A9ABADAFB1B3B5B7BABCBEC3
:10085000C0C2C4C6C9CBCDCFD1D4D6D8DBDDDFE290
:10086000E4E7E9EBEEF0F3F5F8FAFDFFFFAA7F55B8
:10087000402223252628292A2C2D2F3032333536A5
:10088000383A3B3D3E4042434547494A4C4E505121
:10089000535557595A5C5E6062646668696B6D6F48
:1008A00071737577797B7D7F81838587898A8C8E4B
:1008B00090929496989A9C9E9FA1A3A5A7A8AAAC53
:1008C000AEAFB1B3B4B6B8B9BBBCBEBFC1C2C3C58D
:1008D000C6C7C9CACBCCCDCED0D1D2D2D3D4D5D62F
:1008E000D7D7D8D9D9DADADBDBDBDCDCDCDCDCDD62
:1008F000DDDDDDDCDCDCDCDCDBDBDBDADAD9D9D846
:10090000D7D7D6D5D4D3D2D2D1D0CECDCCCBCAC9DD
:10091000C7C6C5C3C2C1BFBEBCBBB9B8B6B4B3B10C
:10092000AFAEACAAA8A7A5A3A19F9E9C9A989694A7
:1009300092908E8C8A89878583817F7D7B7977757C
:1009400073716F6D6B6968666462605E5C5A59575B
:10095000555351504E4C4A4947454342403E3D3B1A
:100960003A3836353332302F2D2C2A2928262523A4
:10097000220A00000000000306B200080001000087
:1009800000A800080002000300A0001400030057A4
:10099000494E555342000000000000000000008452
:1009A00000040007002A0044006500760069006327
:1009B00000650049006E0074006500720066006109
:1009C00000630065004700550049004400730000C3
:1009D0000050007B003900440042003700460031DF
:1009E00000460044002D0037004500370041002D2F
:1009F0000034003000300038002D0039003300365C
:100A00000042002D00360042004100360043003114
:100A1000003900410033003000380063007D0000E1
:100A20000000000E0301646F63732E716D6B2E6600
:100A30006D0009027200040100A0FA09040000011F
:100A40000301010009211101000122400007058175
:100A5000030800010904010002030000000921113C
:100A6000010001222200070582032000010705037F
:100A70000320000109040200010300000009211104
:100A800001000122B60007058403200001090403C8
:100A90000002FF000000070585034000050705066A
:100AA000034000051201100200000008973275494A
:100AB00001000102000122034500720067006F007F
:100AC00044006F007800200045005A0020005300C9
:100AD000680069006E006500000028035A0053009A
:100AE0004100200054006500630068006E006F0044
:100AF0006C006F006700790020004C00610062000C
:100B00007300000004030904050F3900021C1005DE
:100B100000DF60DDD88945C74C9CD2659D9E648A04
:100B20009F00000306B20045001810050038B60803
:100B300034A909A0478BFDA0768815B6650001424F
:100B4000000011241FBECFEFDAE0DEBFCDBF23E0EF
:100B5000A0EEB1E001C01D92A53FB207E1F711E0A0
:100B6000A0E0B1E0E0E7FCE602C005900D92A03EF7
:100B7000B107D9F70E94DF2C0C9402360C940000C8
:100B8000E8EDF0E080818E7F80831092E200109289
:100B9000DA001092E100A0EEB0E08C9181608C93BD
:100BA00080818F77808319BCA7EDB0E08C918E7F18
:100BB0008C9380818F7E808310923F0308952091D3
:100BC000E4003091E50095E6A9012091EC00822F28
:100BD000817020FF06C08091E80080FF06C080E0A1
:100BE00008952091E80022FD1AC08091F003882327
:100BF00089F0853089F08091EB0085FD0FC0209150
:100C0000E4003091E50042175307F9F29150E1F604
:100C100084E0089582E0089583E0089581E00895D6
:100C2000EF92FF920F931F93CF937C018B010E9451
:100C3000DF05C82F882371F08C2FCF911F910F9162
:100C4000FF90EF900895F70181917F018093F1006B
:100C5000015011090115110579F38091E80085FD16
:100C6000F2CF8091E8008E778093E8000E94DF0544
:100C7000882381F3C82FE0CFCF93FC018091F0034C
:100C8000843031F5C091E900CF702091EC00922FB3
:100C9000917020FD90E8C92B82E08093E90080915B
:100CA000E80080FF12C050E040E060E270E0CF0159
:100CB0000E941006882321F01092EE031092EF0399
:100CC0008091E8008E778093E800CF70C093E900B0
:100CD000CF910895EF92FF920F931F93CF937C01D2
:100CE0008B010E94DF05C82F811117C08091E80099
:100CF00085FD0BC08091E8008B778093E8000E940F
:100D0000DF05882399F3C82F08C08091F100F7010F
:100D100081937F010150110949F78C2FCF911F91C9
:100D20000F91FF90EF9008958091660387FF13C0A5
:100D30008091E80082FF06C08091E8008B77809365
:100D4000E80004C08091F0038111F2CF08958091F2
:100D5000F0038823D9F38091E80080FFF8CF8091D9
:100D6000E8008E77ECCF982F9093E900242F762F10
:100D700050E0891731F07091EC002091ED00509116
:100D8000F00021FD07C09F5F973071F78093E90065
:100D900081E008953091EB003E7F3093EB0030917D
:100DA000ED003D7F3093ED003091EB0031603093EA
:100DB000EB007093EC002093ED005093F000209135
:100DC000EE0027FDE0CF80E00895B0E0A0E0EBEE7C
:100DD000F6E00C941433C8EDD0E088818F7E8883D0
:100DE000E7EDF0E080818160808384E082BF81E074
:100DF00080933F0388818E7F888302EE10E0F801A4
:100E000010821092DA0081EEC82ED12CF6011082E9
:100E100088818F77888388818068888388818F7DA7
:100E2000888319BC1092F00310926503109264033A
:100E30001092630390EEE92EF12CF70180818B7FF5
:100E4000808388818160888342E060E080E00E9446
:100E5000B306F60180818E7F8083F80180818160F6
:100E60008083808188608083F70180818E7F80838A
:100E7000888180618883CDB7DEB7E8E00C94303399
:100E8000FC0180916C0390916D0386179707A0F089
:100E90006115710529F48091E8008E778093E80050
:100EA00090E06115710551F4911108C08091E8003E
:100EB00082FF35C080E00895BC01F2CF8091F0033D
:100EC0008823C9F18530C9F18091E80083FD31C0E4
:100ED0008091E80082FDEACF8091E80080FFE1CFB9
:100EE0008091F3002091F200382F6115710519F0FF
:100EF0002830310558F091E02830310509F090E0B4
:100F00008091E8008E778093E800CBCF8491809326
:100F1000F1003196615071092F5F3F4FE6CF80910C
:100F2000F003882341F0853041F08091E80083FF91
:100F3000BDCF81E0089582E0089583E00895FC012B
:100F400080916C0390916D0386179707A0F061154F
:100F5000710529F49091E8009E779093E80090E065
:100F60006115710551F4911108C08091E80082FF6C
:100F700034C080E00895BC01F2CF8091F003882353
:100F8000C1F18530C1F18091E80083FD30C08091CE
:100F9000E80082FDEACF8091E80080FFE1CF8091F8
:100FA000F3002091F200382F6115710519F02830F7
:100FB000310558F091E02830310509F090E020919A
:100FC000E8002E772093E800CBCF81918093F10049
:100FD000615071092F5F3F4FE7CF8091F003882365
:100FE00041F0853041F08091E80083FFBECF81E081
:100FF000089582E0089583E0089508958091420362
:1010000008952091F003243099F425E02093E9001D
:1010100070E050E040E00E941006882321F010921A
:101020003803109239038091E8008E778093E800AE
:10103000089520916D012223C9F020913A0327FFE2
:1010400015C0E62FE695E695E695EE31D8F4E80F63
:10105000F92FF11D677021E030E001C0220F6A9581
:10106000EAF720958281282322830895FC01329695
:1010700008962191621303C0DF0111971C92E817B3
:10108000F907B9F7089520913103309132032817F9
:10109000390771F09093320380933103E0912F036D
:1010A000F0913003309721F00084F185E02D09950F
:1010B000089520912D0330912E032817390771F0E0
:1010C00090932E0380932D03E0912F03F091300332
:1010D000309721F00680F781E02D09950895E09181
:1010E0002F03F0913003309729F00190F081E02D2B
:1010F0000995089580E00895FA01811101C0FB016E
:101100000995089508958091E903982F9E7F29F409
:10111000817082608093E90308958A34E8F38170D6
:101120008864F8CFAF92BF92DF92EF92FF920F9355
:101130001F93CF93DF93082F162FE901E42FF0E0E0
:10114000E459F84F611111C0E4915E2F4E2F49838D
:10115000E8835A831B82DF91CF911F910F91FF90FB
:10116000EF90DF90BF90AF900895E62EF12C449160
:10117000D42EE42FF0E026E0829FC00111242FEF4F
:1011800030E0B9010E94F632802F90E0880F991F5D
:1011900055E5569FD001579FB00D11248A1B9B0B1C
:1011A000982F990F890F5901AE18BF08AE9ED00134
:1011B000AF9EB00DBE9EB00D11245B2F189F800115
:1011C0001124012F11275901A01AB10AAE9E8001E6
:1011D000AF9E100DBE9E100D11245901A81AB10822
:1011E000AE9CC001AF9C900DBE9C900D1124892F28
:1011F0009927281B390B2E9FC0012F9F900D3E9FD2
:10120000900D1124E92F62307105A1F050F46115A1
:10121000710509F49CCF6130710581F0EB2F512FDE
:1012200096CF6430710569F080F06630710509F47D
:101230008ECFF4CFE42F4B2F592F89CFE42F412F9E
:1012400086CFEB2F542F492F82CF4B2F5D2DE12FCF
:101250007ECF409118038D3E59F48091190387FF8A
:101260000DC01092190341110BC01092100308C059
:101270008E3E81F48091190318169CF3442381F06B
:1012800080911A0390911B03892B09F05AC0109288
:101290000F0308958F3E49F447FFF0CF10921803D3
:1012A000809119038111ECCFE0CF803F19F414161F
:1012B000ACF3E4CF90911A03893F29F41916F4F6A0
:1012C00010921A03DBCF8A3F19F497FFD7CFF8CFDC
:1012D00090911B038B3F29F497FFD0CF10921B03F3
:1012E000CDCF8C3F19F41916CCF3C8CF9FE0980FDF
:1012F000983090F4815F990B21E030E0B90102C091
:10130000660F771F8A95E2F7CB01809590911703BE
:10131000892380931703B2CF8D3F31F4809111035D
:101320008E7F80931103AACF8E3F21F48091110309
:101330008D7FF7CF8F3F09F0A1CF809111038B7F75
:10134000F0CF08958091110380FD1AC081FD14C073
:1013500082FD14C080910F03882391F08C3370F4C8
:1013600025E0829FC00111246CE370E00E944F339E
:10137000862F672B29F0089582E0089585E008956F
:1013800081E008958091110380FD16C081FD16C093
:1013900082FD18C080911003882391F08C3390F463
:1013A00028E2829FC00111246CE370E00E944F3359
:1013B000862F672B49F008958AE0089584E1089507
:1013C00088E0089588E2089581E008958D3E31F423
:1013D0000E94C20981958093190308958E3E19F4E5
:1013E0000E94C209F8CF8F3E31F40E94C209819554
:1013F000809318030895803F19F40E94C209F8CF22
:10140000893F29F40E94A20980931A0308958A3F14
:1014100021F40E94A2098195F7CF8B3F31F40E94FD
:10142000A209819580931B0308958C3F19F40E94B3
:10143000A209F8CF9FE0980F983070F4815F990B64
:1014400021E030E001C0220F8A95EAF7809117036E
:10145000822B8093170308958D3F31F480911103FF
:1014600081608093110308958E3F21F480911103D0
:101470008260F7CF8F3FB9F7809111038460F1CF7D
:1014800080E0089590913A0392FF06C0282F2871BA
:101490002830F9F4877F846093FF06C0282F2871D5
:1014A0002831F1F4877E846120913B0320FF06C040
:1014B000382F38713830D9F4877F816021FF06C01A
:1014C000282F28712831D1F4877E816194FD877E91
:1014D0000895282F24712430F9F68B7F8860DCCFA3
:1014E000282F2471243101F78B7E8861DDCF382FBE
:1014F0003171313019F78E7F8860E0CF282F21714C
:10150000213121F78E7E8861E1CF972F7E30A8F4BC
:10151000663098F470E026E0929F600D711D1124F2
:10152000FB0194E5899FE00DF11D1124EE0FFF1FD3
:10153000EE5EFB4F85919491089580E090E00895D0
:10154000CF93DF93EC0182389105A9F1D8F581336F
:10155000910509F496C048F58932910509F48AC0CD
:101560008A9709F495C0C11521E5D20708F0BCC0DF
:10157000C11530E5D30708F014C1C83ED10508F005
:101580009CC0C03ED10560F5C83AD10508F087C0BF
:10159000C53AD10508F0FDC0C130D10509F1209749
:1015A000F9F0C430D105E0F440C08533910509F469
:1015B0005AC0C997C1F680913A03837089F0C0EE92
:1015C000D0E00EC0833E910599F170F4803E910504
:1015D00001F1823E910539F680913A0382FD21C0E6
:1015E000CE01DF91CF910895863E910561F1873E4E
:1015F000910571F1843E910509F0B5CF80913B03CF
:1016000081FFEECF80913A03C7EED0E084FD0DC09C
:10161000E7CF80913A0380FD12C190913B0390FF88
:10162000DFCFC3EED0E084FFDBCFD0E0C0E0D8CF87
:1016300080913A0382FD06C190913B0390FDBFCF9C
:1016400084FFCECFF2CF80913A0383FDDDCFC8CFA8
:1016500080913A0383FDF9C090913B0391FFF0CF55
:10166000C4EED0E0BDCF80913A0385FFB9CFC9E287
:10167000D0E0B6CF80913A0385FFB2CFC5E3D0E08A
:10168000AFCF80913A0386FFABCFCAE2D0E0A8CFBC
:1016900080913A0386FFA4CFC1E3D0E0A1CFCF3B36
:1016A000D10518F6C85AD0E0CC0FDD1FC358DE4F65
:1016B0000990D881C02DD46493CFC11540E2D407DE
:1016C00058F4C11581E0D80708F08ACFCD3ED10586
:1016D00008F4ABCFD06584CFC11590E4D90708F4E6
:1016E000A4CFDF70D06A7CCFC11525E5D20700F505
:1016F000C11534E5D30708F08AC0C11543E5D40706
:1017000008F071C0C11582E5D80708F467C0CE01A2
:101710008370992721E030E002C0220F331F8A95A1
:10172000E2F7C695C69580E2C89FE001112452C039
:10173000C11599E5D907A8F4C11528E5D20708F025
:101740006BC0C11536E5D30708F06FCF8C2F0E9410
:10175000420AC82FD0E0DC2FCC27CC27DF71D06223
:101760003FCFC1154AE5D40708F45BC0CE019056BF
:101770008115904208F059CF8D2F8F710E94420A37
:1017800090E0982F882788279F719C012C2BE901D6
:10179000E6CFC55AD0E0C658DE4FC881D0E0D0644D
:1017A0001FCFCE01E4E096958795EA95E1F7837027
:1017B0002C2F26952695237040E2249F900111241A
:1017C000382B8C2F8370C1E0D0E002C0CC0FDD1F1E
:1017D0008A95E2F7C22BD32BDC6802CFDC2FCC2713
:1017E000C16FD06AFDCECE018370992721E030E031
:1017F00002C0220F331F8A95E2F7C695C69590E284
:10180000C99FE0011124C22BD32BDA68E9CEDC2F6B
:10181000CC27C46FD06AE4CEDC2FCC27C06FD06A4F
:10182000DFCE8C2F8F700E94420A34E0D695C79588
:101830003A95E1F7CF709C2FEC01D069D1CEC9E386
:10184000D0E0CECEC2EED0E0CBCEC6EED0E0C8CE59
:101850008091BC0281111092BC02089580959091F4
:101860002C03982390932C03089580959091400326
:10187000982390934003089580919A029091690271
:10188000981301C008958F5F8770FACFB0E0A0E091
:10189000ECE4FCE00C9413338C01C090DD02D0909A
:1018A000DE02E090DF02F090E0028091BD029091B4
:1018B000BE02A091BF02B091C002C82AD92AEA2A6A
:1018C000FB2ACFE1D0E0BC2ED701C6010C2E04C00C
:1018D000B695A795979587950A94D2F780FD09C08C
:1018E000219788F7B12C8B2DCDB7DEB7E9E00C94AA
:1018F0002F33B8018C2F0E94850A0E94A00A0197FD
:1019000079F3F1CFCF93DF93EC010E94460CBE0137
:101910000E94850A0E94A00ADF91CF910895292F85
:101920009E3080F5863070F590E036E0239F800D84
:10193000911D1124682F677023E0969587952A954D
:10194000E1F725E0289FF001299FF00D1124E45DC7
:10195000FD4F50E040E080E0219130E0062E02C0D3
:10196000369527950A94E2F721703327042E01C09B
:10197000220F0A94EAF7822B4F5F5F4F45305105E3
:1019800059F7089580E00895292F9E30A0F58630FC
:1019900090F590E036E0239F800D911D1124282FB3
:1019A000277041E001C0440F2A95EAF723E096959D
:1019B00087952A95E1F725E0289FF001299FF00DF2
:1019C0001124E45DFD4F30E020E070E05191DF0133
:1019D0001197CB01022E02C0969587950A94E2F7E3
:1019E000817081958527842385278C932F5F3F4FB6
:1019F0002530310559F70895FC01808191810E94BD
:101A0000820C92959F70963091F058F4925F9F707F
:101A1000923058F4803F19F030F4883E30F481E081
:101A200008959A5FF4CF843FD1F380E00895883E13
:101A3000B0F3813FD1F7F3CFCF92DF92EF92FF92D5
:101A40006C01EE24FF2420E0C114D104E104F10470
:101A500019F0C701B60120E1C72ED82EE92EFF24C8
:101A6000C114D104E104F10419F0285FC701B601E3
:101A70006B017C0154E0F694E794D794C7945A958F
:101A8000D1F7C114D104E104F10419F02C5FC701AE
:101A9000B6016B017C0142E0F694E794D794C794B9
:101AA0004A95D1F7C114D104E104F10419F02E5F75
:101AB000C701B6019695879577956795672B682B33
:101AC000692B09F02F5F822FFF90EF90DF90CF906E
:101AD00008959C019A9581159F4130F4832F817060
:101AE00031FF03C08260089580E00895FC01808189
:101AF000813041F49185911114C09285992389F028
:101B000082E00895823041F48185811107C0828589
:101B1000811106C083E0089586E0089585E0089568
:101B200084E0089527982F98089526982E98089570
:101B300025982D98089556985E980895279A2F9A7B
:101B40000895269A2E9A0895259A2D9A08952098F8
:101B500028982198299822982A9823982B98529867
:101B60005A9853985B983E98469808958098889A1A
:101B70008198899A84988C9A85988D9A86988E9A5D
:101B800087988F9A089580933C0370933E036093E7
:101B90003D038091F0038430F9F48093E9008FEFE6
:101BA0009091E800815095FD06C095ED9A95F1F76A
:101BB00000008111F5CF8091E80085FF0DC050E055
:101BC00040E063E070E08CE393E00E9410068091B7
:101BD000E8008E778093E8000895BC0184E00E94BD
:101BE000C30D0895BC0183E00E94C30D08959C01BC
:101BF00084E08093E9009FEF8091E800915085FD9B
:101C000006C085ED8A95F1F700009111F5CF80911E
:101C1000E80085FF0CC050E040E066E070E0C901DC
:101C20000E9410068091E8008E778093E800089566
:101C3000CF93DF93EC0180916D018823B1F1809106
:101C40003A0387FF32C060E284E08093E9008FEFBF
:101C50009091E800815095FD06C095ED9A95F1F7B9
:101C600000008111F5CF8091E80085FF1BC08091B5
:101C70006D0170E050E040E0811104C050E040E0B0
:101C800068E070E0CE010E9410068091E8008E7737
:101C90008093E80080E2FE01A3E4B3E001900D929E
:101CA0008A95E1F7DF91CF91089568E081E0CDCF8B
:101CB000EF92FF920F931F93CF93DF930E949B0DA0
:101CC0000E94980D0E94950D0E94920D88E8E82EC2
:101CD000F12C8FEF90E0F701918380830AE810E008
:101CE000F80191838083CCE8D0E0998388830E94B7
:101CF000A40DFFEF20E782E0F15020408040E1F7A3
:101D000000C000000E94A10D9FEFE0E7F2E09150BB
:101D1000E040F040E1F700C000000E949E0D2FEF70
:101D200080E792E0215080409040E1F700C0000041
:101D30000E94980DEFEFF0E722E0E150F0402040E4
:101D4000E1F700C000000E94950D8FEF90E7E2E000
:101D500081509040E040E1F700C000000E94920DE9
:101D60008091CB028770FFEF8F9FC0011124959562
:101D70008795959587959927F70191838083F80139
:101D800091838083998388830E949B0D0E94980D84
:101D90000E94950D0E94920DCDB7DEB7E6E00C943F
:101DA00032330F931F93CF93DF938091E90380FD2C
:101DB0000BC0E1E7F3E011821082128213823496A5
:101DC00053E0E93EF507B9F7E1E7F3E092812081BE
:101DD0003181892F291708F4822F381708F4832FAF
:101DE0008383381B3183281B2083981B928334966E
:101DF00083E0E93EF80751F780911D038823D1F075
:101E000080911B0190911C01892BA1F480911A01F2
:101E1000882381F064E670E084E80E943132C5EEE8
:101E2000D3E009EA13E0892B09F42FC010921A01BC
:101E30000E94F232579A3BB13F772BB120684FB7DF
:101E4000F89481E793E0FC015191CF0168E02BB950
:101E5000000000C057FF3BB9550F000000C000C094
:101E600000C03BB900C06A9591F7F3E0893E9F0737
:101E700051F74FBF8FE594E00197F1F700C00000E4
:101E8000DF91CF911F910F91089564E670E08881F2
:101E90000E949F3264E670E089810E949F3264E66E
:101EA00070E08A810E949F3264E670E08B810E941C
:101EB0009F3224970C171D0741F7BACFA4E0B0E07A
:101EC000E4E6FFE00C941833182F062F8091E90305
:101ED00080FF23C09E012F5F3F4F4FEF6FEF88E7DA
:101EE0000E9492081017C8F48B8199812A8134E0EE
:101EF000139FF0011124EF58FC4F218390838283BC
:101F000013821F5F34960113F8CF0E94D10E8FE920
:101F10009FE00197F1F700C000002496E4E00C94E4
:101F20003433EF92FF920F931F93CF93DF938C0183
:101F3000C1E7D3E0F12CE12CF80194816091EB032F
:101F40008091EA03FFE0EF16F104ECF49923E9F045
:101F50009E014091EC030E9492082FEFE21AF20AD0
:101F600024968EE1E816F10439F70E94D10EF801AB
:101F7000848190E00196817099278483CDB7DEB784
:101F8000E6E00C943233992319F39E0140E0E3CF4D
:101F9000B0E0A0E0EEECFFE00C941033EC014C81DB
:101FA000042F10E09801D8010E94F3359B01AC0189
:101FB0000E94BE354B015C01E0E2F0E0E01BF10B5A
:101FC000A5E5B0E0AC019B010E94BE356B017C0130
:101FD0009F01DF010E9469339B01AC010E94C9355A
:101FE0009B01AC01280D391D4A1D5B1DC701B601BF
:101FF0000E94D135F22E822F90E039E23F1598F100
:1020000043E0249F9001112435952795122F1095B8
:1020100091E7C92E93E0D92E00E085E5E82EEF1870
:102020008E2D01FD8F2D9601412F6091EB030E94B3
:1020300092080F5F54E0C50ED11C0E3189F70E9443
:10204000D10E9C8181E0992319F0903219F48FEF21
:1020500080932A0180912A01890F8C83CDB7DEB746
:10206000ECE00C942C3325E530E0A901481B590B1A
:10207000CA019A01220F331F280F391F37FFC4CF1F
:102080002F5F3F4FC1CF0F931F93CF93DF93C1E7D4
:10209000D3E0FE011182108212821382349683E013
:1020A000E93EF807B9F710E000E080912703082E19
:1020B000000C990B081719078CF180912901082E43
:1020C000000C990B801791074CF19E014091EC0395
:1020D0006091EB038091EA030E9492080F5F1F4F0B
:1020E00024960E31110509F70E94D10E8091280126
:1020F00090912703980F9093270320912901280F8F
:1021000020932901121614F49D311CF081958093BF
:102110002801DF91CF911F910F91089519821882A4
:102120001A821B82DBCFB0E0A0E0E9E9F0E10C9479
:102130001333FC018281DD24DA9480FD02C0DD24AA
:10214000D39401E713E0D0E0C0E02EE1B22EF80115
:10215000118210821282138294E0E92EF12CC12C9C
:10216000809126038C0D8F31C4F16B2D0E94413379
:10217000892F082E000C990B8C179D0791F48091E4
:10218000EC038E9DA0018F9D500D11245595479510
:102190005595479598016091EB038091EA030E9461
:1021A0009208CD0CF1E0EF1AF108D1F621960C5F00
:1021B0001F4FCE31D10559F60E94D10E80912603D2
:1021C00091E0D91210C081110CC08DE180932603DB
:1021D000CDB7DEB7E9E00C942F3387FFCACF825E1C
:1021E000C8CF8150F3CF90E00196BE010E944F33DB
:1021F000EDCFEF92FF921F93CF93DF93EC0181E736
:10220000E82E83E0F82E10E08C8197014091EC03DA
:102210006091EB03810F0E949208185F84E0E80E42
:10222000F11C103F89F70E94D10E9A818C8190FF9A
:1022300008C08F5F8C83DF91CF911F91FF90EF904B
:1022400008958150F7CF9091E90390FF0DC0E1E729
:10225000F3E08183608342831382349693E0E93E06
:10226000F907B9F70E94D10E0895A4E0B0E0EBE3BE
:10227000F1E10C9418338C018091280381110AC07C
:102280009E012F5F3F4F4FEF6FEF0E9492088A81B0
:1022900080932803F8016481613069F080912803FC
:1022A00040E0662361F040E0623011F44091280381
:1022B00080E060E004C06091280340E080E00E947C
:1022C0002311F801848190E0019663E070E00E94A0
:1022D0004F3384832496E4E00C943433A4E0B0E0DC
:1022E000E4E7F1E10C941A339091E90390FF0AC0FE
:1022F0009E012F5F3F4F0E9492084B8169818A8126
:102300000E9423112496E2E00C943633CF93DF939E
:10231000EC01E9EEF3E0438162818C810E946E1151
:102320008C818F5F8C83DF91CF910895CF93DF9362
:10233000EC01EC81F0E0EF58F74F4491E9EEF3E067
:10234000628181810E946E118C818F5F8C83DF910D
:10235000CF910895CF93C82F873078F580911B01D6
:1023600090911C01892B39F564E670E080E40E94AD
:10237000313290931C0180931B01892BD1F464E6C8
:1023800070E082E10E949F3290931C0180931B01B8
:10239000892B79F481E090E001C0880FCA95EAF7B3
:1023A00064E670E080950E949F3290931C018093B8
:1023B0001B010E94F232CF9108958A30B1F038F4B7
:1023C000883069F0893071F0209A2898F4CF8C30E9
:1023D00091F070F08D30C1F73E9A4698ECCF219A7B
:1023E0002998E9CF229A2A98E6CF239A2B98E3CF0F
:1023F000529A5A98E0CF539A5B98DDCFCF92DF92F2
:10240000EF92FF926B017C010E948308B701A60145
:1024100088E090E00E948D35FF90EF90DF90CF90A4
:102420000895A4E0B0E0E7E1F2E10C940D33F82E5A
:10243000762EE42E622E9091E90390FF29C0E92FB9
:10244000E695AE2FB0E0A555BE4F8C918093240346
:102450009E7F923009F59E012F5F3F4F8F2D0E9486
:1024600092084B8169818A810E942311F092EA03CC
:102470007092EB03E092EC03662051F06091E90367
:102480007091EA038091EB039091EC030E94FE119E
:102490002496EFE00C942933823019F4E090EC0399
:1024A000E5CF863019F4F090EA03E0CF8930D9F314
:1024B0008931E1F6E9518E2F8170582EE695F0E0D2
:1024C000E459F74FE4910E2F10E081E7C82E83E026
:1024D000D82EB12CA12C9EE1892E912CC501B401DE
:1024E0000E94F6328F2D511013C0860F96014E2D8B
:1024F000672D0E949208A00EB11E84E0C80ED11C68
:1025000089EEC81683E0D80649F70E94D10EAECFF7
:10251000861BECCFE9EEF3E0438125E0421B08F493
:1025200040E021E0628181810E9411120895E9EE6C
:10253000F3E0438125E0420F08F44FEF21E0628190
:1025400081810E9411120895E9EEF3E0628125E095
:10255000621B08F460E021E0438181810E94111236
:102560000895E9EEF3E0628125E0620F08F46FEF71
:1025700021E0438181810E9411120895E9EEF3E088
:10258000818121E04381628185500E94111208956A
:10259000E9EEF3E0818121E0438162818B5F0E945B
:1025A000111208958091ED03882319F081508093D2
:1025B000ED036091E9037091EA038091EB03909140
:1025C000EC030E94FE1108958091ED03833018F40E
:1025D0008F5F8093ED036091E9037091EA0380912E
:1025E000EB039091EC030E94FE110895E9EEF3E0F5
:1025F00080818E7F808360817181828193810E943E
:10260000FE11109225032FEF80E792E021508040C9
:102610009040E1F700C000000E94D10E0895E9EE5D
:10262000F3E083E0808311828FEF828383831482BF
:1026300060817181828193810E94FE110895809151
:10264000400390912C03892B8093E2019091BC026E
:102650009923A1F0892B8093E20180916D01882359
:10266000E1F180913A0387FF38C08EE1E4EEF1E0BA
:1026700090E08150A0F591110E94280C40E250E0BA
:102680006CE972E082EE91E00E943A35892B21F1EB
:1026900080E2E2EEF1E0ACE9B2E001900D928A95C1
:1026A000E1F7E0912F03F09130033097A9F080918A
:1026B0006D01882359F080913A0387FF07C080910C
:1026C000E2018093E30186E08093E2010280F381DE
:1026D000E02D82EE91E00995089586E0C7CF219123
:1026E000222339F29F5FC5CFCF93DF93EC0181E0C6
:1026F000898B809140039F81892B80934003809137
:102700002C039885892B80932C030E941F13EA8148
:10271000FB81309729F06C897D89CE010696099559
:10272000DF91CF910895EF92FF920F931F93CF9374
:10273000DF93EC018A85811134C0EB80FC8087E552
:10274000F81A26E12E9DC0012F9D900D1124DC0169
:10275000A55DBE4F1496ED91FC911597309731F021
:1027600054966D917C918F5C9E4F099586E18E9D6C
:1027700080018F9D100D1124055D1E4FF80187818A
:102780000E94350CF80180850E942E0C0E941F13B8
:10279000188219861B861E821D8210922B031092AE
:1027A0002A03CDB7DEB7E6E00C943233882321F05C
:1027B0000E942E0C0E941F130895809129038823E4
:1027C00029F082E20E94D6131092290308958823EB
:1027D00039F090912C03982B90932C030E941F1397
:1027E0000895882321F00E94350C0E941F1308953C
:1027F000882339F090914003982B909340030E94D6
:102800001F13089568EE7EEF90E080E00E949935F6
:1028100060E082E090E00E947B3560E083E090E041
:102820000E947B351092BD021092BE021092BF0230
:102830001092C00260E084E090E00E947B3564E08A
:1028400082E290E00E947B3560E085E090E00E94AB
:102850007B3560E086E090E00E947B356FEF87E09B
:1028600090E00E947B3540E050E0BA0188E090E0C3
:102870000E948D3560E08DE090E00E947B3540E065
:1028800050E0BA0188E190E00E948D3560E087E178
:1028900090E00E947B3540E050E0BA018CE190E08E
:1028A0000E948D3570E060E080E290E00E949935F2
:1028B00040E050E0BA0188E190E00E948D3510922E
:1028C000CB021092CC021092CD021092CE0284E084
:1028D0008093CB024091CB025091CC026091CD020B
:1028E0007091CE028FE090E00E948D3540E050E084
:1028F000BA0183E190E00E948D35089580E290E076
:1029000090931C0180931B0180911D0381110EC0C7
:102910000E942B3281E080931D032FEF83ED90E323
:10292000215080409040E1F700C0000064E670E074
:1029300080E40E94313290931C0180931B01892B0B
:1029400009F04EC064E670E080E00E949F329093F0
:102950001C0180931B01892B09F042C064E670E0E2
:1029600080E00E949F3290931C0180931B01892B71
:10297000B9F564E670E08FE30E949F3290931C01EA
:1029800080931B01892B61F50E94F23264E670E0AE
:1029900080E40E94313290931C0180931B01892BAB
:1029A000F9F464E670E08CE00E949F3290931C0181
:1029B00080931B01892BA1F464E670E080E00E9403
:1029C0009F3290931C0180931B01892B49F464E68C
:1029D00070E08FE30E949F3290931C0180931B0153
:1029E0000E94F23280911B010895CF93873050F5F9
:1029F00080911B0190911C01C0E0892B71F464E669
:102A000070E081E40E94313290931C0180931B019D
:102A1000892B31F0C0E00E94F2328C2FCF910895C3
:102A200084E690E00E94CE3297FF05C090931C018F
:102A300080931B01EFCFC82FC09510921C011092FC
:102A40001B01E9CFCFB18FB1869586958C73C3708A
:102A50008C2BC82FC095E1CF1F920F920FB60F920B
:102A600011242F933F934F935F936F937F938F9393
:102A70009F93AF93BF93EF93FF938091E10082FF09
:102A800009C08091E20082FF05C08091E1008B7F48
:102A90008093E1008091DA0080FF24C08091D8000B
:102AA00080FF20C08091DA008E7F8093DA008091D1
:102AB000D90080FF9DC080E189BD82E189BD09B454
:102AC00000FEFDCF81E08093F00380913F038111F0
:102AD00009C00E94C0050E94E5068091E200846062
:102AE0008093E2008091E10080FF17C08091E200B6
:102AF00080FF13C08091E2008E7F8093E20080917E
:102B0000E20080618093E2008091D800806280932F
:102B1000D80019BC85E08093F0038091E10084FF28
:102B20002BC08091E20084FF27C080E189BD82E153
:102B300089BD89B5982F917080FFFBCF8091D80017
:102B40008F7D8093D8008091E1008F7E8093E1009B
:102B50008091E2008F7E8093E2008091E2008160AC
:102B60008093E20080916503882309F447C084E0E4
:102B70008093F0038091F0038091E10083FF27C0F0
:102B80008091E20083FF23C08091E100877F8093E2
:102B9000E10082E08093F003109265038091E100F0
:102BA0008E7F8093E1008091E2008E7F8093E2002F
:102BB0008091E20080618093E20042E060E080E08A
:102BC0000E94B3068091F00088608093F000FF912E
:102BD000EF91BF91AF919F918F917F916F915F9195
:102BE0004F913F912F910F900FBE0F901F9018950E
:102BF00019BC1092F00310923F0374CF8091E30050
:102C000087FD93E09093F003B5CF78941F921FB6A1
:102C10001F9211248F939F93AF93BF93809134039E
:102C200090913503A0913603B09137030196A11D11
:102C3000B11D8093340390933503A0933603B09372
:102C40003703BF91AF919F918F911F901FBE1F902F
:102C500018959C014FB7F8948091340390913503F7
:102C6000A0913603B09137034FBF821B930B089599
:102C70002FB7F8948091340390913503A0913603D7
:102C8000B09137032FBF08956091E903669570E016
:102C90004BE050E08DE191E00E942D35892B19F435
:102CA00081E0809325030E94381690931F03809340
:102CB0001E0308959091E90390FF2CC0917081113B
:102CC0002AC092609093E903662351F06091E90372
:102CD0007091EA038091EB039091EC030E94FE1146
:102CE0006091E903669570E04BE050E08DE191E082
:102CF0000E942D35892BB1F01092250381E080933D
:102D0000210320E04091EC036091EB038091EA0302
:102D10000E9411120895853210F09864D3CF880F65
:102D2000982BD0CF0E944416E9CF60E00E945A163B
:102D30000895E9EEF3E080818160808386950E94AA
:102D40009516089580911C03811135C090E080E0B4
:102D50000E946535883E9E4F21F00E9402140E9419
:102D60000F1388E090E00E945F356093E903709351
:102D7000EA038093EB039093EC036E7F71F40E945F
:102D80000F1388E090E00E945F356093E903709331
:102D9000EA038093EB039093EC030E948308109264
:102DA00025038091E90380FF03C086950E94951654
:102DB00081E080931C03089561E00E945A160895F3
:102DC000CF92DF92EF92FF92CF93DF936B017C0162
:102DD0000E941C0DD82F0E949B0D0E94980D0E94EE
:102DE000950D0E94920DC0912A02EFEFED0FE73092
:102DF00008F073C0F0E0EC5FF94C0C9463330E9470
:102E0000A40DC11109C00E94991681E00E94951677
:102E10006EE18FE00E945E0FC701B601DF91CF9196
:102E2000FF90EF90DF90CF9008950E949E0DC1110A
:102E3000F3CF0E94991681E00E9495166FE080E022
:102E4000E9CF0E94A10D0E949E0DC111E5CF0E9405
:102E5000991681E00E94951620E04FEF6FEF86E50E
:102E600049C00E94A40D0E94A10D0E949E0DC11197
:102E7000D3CF0E94991680910A010E949516CCCF5B
:102E80000E94A40D0E949E0DC111C6CF88E090E063
:102E90000E945F356093E9037093EA038093EB032C
:102EA0009093EC0360FF29C0862F81608093E90333
:102EB00086950E94DC168091E90386950E94DC16B7
:102EC00021E04091EC036091EB038091EA0312C092
:102ED0000E94A40D0E94A10DD5CFD111D5CFC11153
:102EE0009BCF0E94991681E00E94951620E04FEF3B
:102EF0006FEF85ED0E9411128FCF0E94F6128CCFDA
:102F00008091E9038695815009F484E261E00E9492
:102F10005A1608958091E90386958F5F853208F0EF
:102F200081E061E00E945A1608959091E90390FFB4
:102F300008C09695981728F0961718F40E948A17DB
:102F400008950E94DC1608950E9438169C01909105
:102F5000180380911903982B21F0309315032093C7
:102F6000140390911A0380911B03982B21F0309346
:102F7000130320931203E0912F03F0913003309755
:102F800049F082E0809316030480F581E02D86E10C
:102F900093E00995089590E080E00E94590890E040
:102FA00080E00E94430810922C030E941F1386E0C9
:102FB000E6E1F3E0DF011D928A95E9F71092100334
:102FC00010920F03109211030E94A4170895CF923C
:102FD000DF92EF92FF92CF93DF93CDB7DEB7A0974A
:102FE0000FB6F894DEBF0FBECDBF0E94E0166B0196
:102FF0007C018091EF038823B1F02FEF80E792E00E
:10300000215080409040E1F700C0000085E08983B6
:10301000C701B6010E941C0D8A838EEF8B83CE01FF
:1030200001960E943C06C092DD02D092DE02E09240
:10303000DF02F092E0020E94CB17A0960FB6F89440
:10304000DEBF0FBECDBFDF91CF91FF90EF90DF903D
:10305000CF9008950F931F9341E050E060E070E03F
:1030600004C0440F551F661F771F8A95D2F78091C1
:10307000DD029091DE02A091DF02B091E0028A01B0
:103080009B01082719272A273B27C901B8010E945D
:10309000E7171F910F9108950F931F9341E050E0A0
:1030A00060E070E004C0440F551F661F771F8A95CB
:1030B000D2F7CB01BA0160957095809590950091FB
:1030C000DD021091DE022091DF023091E0026023E8
:1030D0007123822393230E94E7171F910F91089574
:1030E00090919B028095892380939B02282F2770C3
:1030F00091F4282F082E000C330B9217130659F069
:1031000090913B0392FF07C08595859585950E9418
:103110004C1810929B020895CF93C0913B03C2FBC1
:10312000992790F9981791F080FBC2F9C0933B035F
:1031300060913A0384E090E00E947B356C2F82E23C
:1031400090E00E947B3582E00E947018CF91089534
:103150000F931F9341E050E060E070E004C0440F23
:10316000551F661F771F8A95D2F78091DD029091D7
:10317000DE02A091DF02B091E0028A019B01082BE0
:10318000192B2A2B3B2BC901B8010E94E7171F916D
:103190000F9108956093BD027093BE028093BF02A9
:1031A0009093C0020E94CB17089580916D01E4EEC8
:1031B000F1E0882361F080913A0387FF08C08EE137
:1031C000DF011D928A95E9F70E94CB17089586E0EA
:1031D000F7CFAAE2B0E0EFEEF8E10C94193386E6FF
:1031E00093E02091F100FC012193CF01F3E08E36B2
:1031F0009F07B9F780916703893009F444C018F537
:10320000823009F4BCC0833009F46FC0813031F5DD
:1032100080916603813A11F58091E800877F809361
:10322000E80080916A0390916B03892B41F560E27D
:1032300083E493E070E00E949F078091E8008B7721
:103240008093E8000BC08B3009F46CC008F486C092
:10325000823409F4A5C0853409F4BFC08091E80028
:1032600083FF5AC280916603909167039A3008F0F9
:1032700053C2E92FF0E0E55FF94C0C94633360E052
:1032800090E080E0D7CF80916603813239F780915A
:103290006A0390916B03009711F00297F9F6809101
:1032A000E800877F8093E8008091E80082FF18C0E3
:1032B0009091F3008091F200029731F48091F10037
:1032C000813011F0863021F48091F1008093420327
:1032D0008091E8008B778093E8000E949406BECF2F
:1032E0008091F0038111E0CFB9CF80916603813ADC
:1032F00009F0B4CF80916A0390916B03892B09F098
:10330000ADCF8091E800877F8093E8008091E8004E
:1033100080FFFCCF80916D018093F1008091E800E7
:103320008E77D9CF80916603813209F097CF809153
:103330006A0390916B03892B09F090CF8091E8008C
:10334000877F8093E8000E949406809168038093B1
:103350006D01109240030E94D51880CF80916603C2
:10336000813209F07BCF8091E800877F8093E8006D
:103370000E94940680916903809341036FCF8091EE
:103380006603813A09F06ACF8091E800877F8093D5
:10339000E8008091E80080FFFCCF80914103BCCF22
:1033A00080916603803C09F059CF80916A03909127
:1033B0006B03029739F58091680390916903892B1B
:1033C00009F58091E800877F8093E8006EE070E067
:1033D00083E29AE00E94400780CF80916603803CA0
:1033E00009F03CCF80916A0390916B03079751F4E9
:1033F0008091E800877F8093E80062EB70E081E7CE
:1034000099E0E8CF8091EB0080628093EB0026CFBB
:10341000803899F0823809F07FC180916A038F70FB
:10342000873008F079C18093E9008091EB0085FB3B
:10343000882780F91092E90006C08091630390917B
:103440006403911182609091E800977F9093E80067
:103450008093F1001092F1008091E8008E7758C1BE
:10346000882309F446C1823009F056C1809168036F
:10347000811149C180916A038F702FEF280F263088
:1034800008F04AC18093E9002091EB0020FF3BC186
:10349000933031F48091EB0080628093EB0033C174
:1034A0009091EB0090619093EB0021E030E001C03F
:1034B000220F8A95EAF72093EA001092EA008091A1
:1034C000EB008860EACF811127C1109168031F7754
:1034D0008091E3008078812B8093E3008091E80065
:1034E000877F8093E8000E9494068091E80080FF27
:1034F000FCCF8091E30080688093E30082E01111AB
:1035000083E08093F00308C18058823008F004C142
:1035100080916803909169038C3D23E09207A1F5A7
:1035200083E08A838AE289834FB7F894DE01139699
:1035300020E03EE051E2E32FF0E050935700E491A9
:1035400020FF03C0E295EF703F5FEF708E2F90E099
:10355000EA30C0F0C7968D939D932F5F243159F7C1
:103560004FBF8091E800877F8093E8006AE270E0B7
:10357000CE0101960E949F078091E8008B7780938F
:10358000E800CAC0C096E7CF20916A0330916B0370
:10359000492F55274330510551F1A0F441305105D1
:1035A00009F459C062E770E082E39AE042305105C5
:1035B00009F0B2C02091E800277F2093E8000E9424
:1035C0004007DACF4132510539F14232510591F1CC
:1035D0004F30510509F0A0C0EAE0FBE0649170E0D3
:1035E00088E09BE06115710509F496C0E3CF992747
:1035F0008130910571F0009731F0029709F08CC08D
:10360000E6EBFAE002C0E4E0FBE0649170E0CF0199
:10361000E9CFEAEDFAE0F9CF2330310508F07CC0BC
:10362000220F331FF901E752FE4F8081918169E03B
:1036300070E0C0CF2330310508F06EC0F901EE0F05
:10364000FF1FED52FE4F8081918120533E4FF901C3
:10365000608170E0C7CF62E170E084EA9AE0AACFAF
:10366000803809F059C08091E800877F8093E80096
:10367000809165038093F100EFCE81114DC01091D0
:103680006803123008F048C08091E800877F80937B
:10369000E800109365030E949406112311F084E062
:1036A00005C08091E30087FDFACF81E08093F003AD
:1036B00042E061EC81E00E94B30642E261EC84E00A
:1036C0000E94B30642E261EC82E00E94B30642E24D
:1036D00060EC83E00E94B30642E361EC85E00E9467
:1036E000B30642E360EC86E00E94B3068091F003EB
:1036F00013C080916803813079F481E0933009F040
:1037000080E0809364031092E9008091E800877F55
:103710008093E8000E9494068091E80083FF0AC02D
:103720008091E800877F8093E8008091EB008062C1
:103730008093EB00AA96E3E00C9435331F920F922E
:103740000FB60F9211242F933F934F935F936F9374
:103750007F938F939F93AF93BF93CF93DF93EF9319
:10376000FF93D091E900DF708091EC00C82FC17009
:1037700080FDC0E81092E9008091F000877F80937F
:10378000F00078940E94E9181092E9008091F0000E
:1037900088608093F000CD2BCF70C093E900FF913B
:1037A000EF91DF91CF91BF91AF919F918F917F91D9
:1037B0006F915F914F913F912F910F900FBE0F909E
:1037C0001F901895109240030E94D5182FEF84E3A4
:1037D0009CE0215080409040E1F700C0000088E16B
:1037E0009AE00FB6F894A895809360000FBE90936E
:1037F0006000FFCF882391F19CEF980F913A40F43D
:10380000682F82EE91E00E9419080E941F1308950C
:1038100090E2980F983050F4877091E001C0990FB2
:103820008A95EAF7892F0E94350CEFCF9BE5980F18
:10383000933028F490E080E00E945908089598E5BC
:10384000980F973128F490E080E00E944308089593
:103850008D3E20F00E9429090E94A4170895CF935D
:10386000DF93EC010E94FA1BCE010E94690DC05E3D
:10387000D109289728F40E94F113DF91CF91089580
:103880000E94D613FACF8FE39CE90197F1F700C0AD
:10389000000080910702833059F0853011F08130AB
:1038A00021F48DE491E00E942F1C109207020895EC
:1038B0008AE491E0F8CF8FE39CE90197F1F700C02B
:1038C000000080910502833059F0853011F081307D
:1038D00021F48DE491E00E942F1C109205020895BE
:1038E0008AE491E0F8CF8FE39CE90197F1F700C0FB
:1038F000000080910302833059F0853011F081304F
:1039000021F485E390E00E942F1C10920302089599
:1039100082E392E0F8CFCF93C82F882309F442C006
:103920008CEF8C0F813A08F065C080916D0188237F
:10393000D9F180913A0387FF37C0EC2FE695E695E1
:10394000E695F0E0EE51FE4F828190E04C2F4770FB
:1039500021E030E002C0220F331F4A95E2F78223B4
:103960009323892B61F06C2F82EE91E00E9419085D
:103970000E941F1323C080913A0387FF23C0EC2FBE
:10398000E695E695E695F0E0EE51FE4FC77021E032
:1039900030E001C0220FCA95EAF78281822B828330
:1039A0000E941F13CF910895E4EEF1E08AEE91E0BA
:1039B0002191C217C1F28E179F07D1F780916D0137
:1039C0008111D9CFA4EEB1E0EFEF80E09D91C9174E
:1039D00039F3EF3F19F4911101C0E82F8F5F863062
:1039E000A9F7EF3FE9F20E2E000CFF0BEE51FE4F50
:1039F000C283D6CF80E28C0F883068F4C77021E094
:103A000030E001C0220FCA95EAF780914003822B73
:103A100080934003C5CFEBE5EC0FE33040F4F0E0DA
:103A2000E658FE4F808190E00E945908BBCFE8E540
:103A3000EC0FE73150F4F0E0EE0FFF1FE358FE4FBC
:103A4000808191810E944308ADCFCD3E08F4AACF7A
:103A50008C2F0E94E6090E94A417A4CF1F93CF9336
:103A6000DF93182FD0E0C0E0893311F4C0E5D0E037
:103A7000812F0E948B1C209739F4812F0E94FA1B02
:103A8000DF91CF911F9108958FE99FE00197F1F7A2
:103A900000C000002197EFCF0F931F93CF93DF93C8
:103AA000C62FD42F022FFC0182818823A9F06093B6
:103AB00070030E94381690936F0380936E03C77053
:103AC00081E001C0880FCA95EAF70E94F813DF91E0
:103AD000CF911F910F91089580917003681332C0A8
:103AE00080916E0390916F030E9429168D37910586
:103AF00048F510E21D0FCD17B9F080E28C0F883029
:103B000040F4C77081E001C0880FCA95EAF70E94AF
:103B1000F113183048F481E09D2F977001C0880F91
:103B20009A95EAF70E94F813802F0E942E1D1830F4
:103B300070F6D77081E001C0880FDA95EAF70E942D
:103B4000F113C5CFC77081E001C0880FCA95EAF7AD
:103B5000F6CFB0E0A0E0EFEAFDE10C941233EC0107
:103B60008AE0A82EFE012491222309F497C0213077
:103B700009F03EC031968491813031F42296FE01E5
:103B800084910E942E1D07C0823039F42296FE01D6
:103B900084910E948B1C2196E5CF833031F42296CC
:103BA000FE0184910E94FA1BF6CF843009F074C0A4
:103BB0002296FE01249190E080E0FE013196205390
:103BC000330B2A30310548F0019728F3EFE9FFE085
:103BD0003197F1F700C00000F7CFA89EA001A99E81
:103BE000500D1124C901840F951F2491EF01E5CFD9
:103BF000E22FF0E0E850FE4FB490822F8695869534
:103C0000869590E0FC01E851FE4FE4902770F12C7E
:103C1000022E02C0F594E7940A94E2F731E0E32221
:103C2000FF24FC01E852FE4FC490D12C022E02C0AA
:103C3000D594C7940A94E2F7E1E0CE22DD24FC019A
:103C4000E853FE4F049110E002C0159507952A95A0
:103C5000E2F701701127E114F10419F081EE0E94DE
:103C60008B1CC114D10419F086EE0E948B1C8B2D85
:103C70000E942E1DC114D10419F086EE0E94FA1B79
:103C8000E114F10419F081EE0E94FA1B01151105EF
:103C900009F481CF8CE275CFEF017DCFCDB7DEB7D0
:103CA000EAE00C942E33CF93C82F84EC91E00E946D
:103CB000A91D8C2F0E942A1810922B02CF910895D3
:103CC000CF93DF93EC010E94690D9E01205E3109C4
:103CD0002830310540F40E94F8138C2F0E948B1C71
:103CE000DF91CF9108950E94E713F7CFCF93DF9331
:103CF000EC010E94601EC933D10549F42FEF87EE15
:103D000093E0215080409040E1F700C00000CE01D8
:103D10000E942F1CDF91CF910895CF93DF93EC0188
:103D20008881833061F48DE491E00E94761E8DE4F9
:103D300091E00E94761E8DE491E00E94761E8881BB
:103D4000843020F08DE491E00E94761EDF91CF91C7
:103D500008950E948D1E0895CF93DF93EC01888112
:103D6000833061F485E390E00E94761E85E390E065
:103D70000E94761E85E390E00E94761E8881843042
:103D800020F085E390E00E94761EDF91CF910895A8
:103D90000E94760D80930702833039F0853051F010
:103DA000813039F48DE491E002C08AE491E00E9410
:103DB000601E08958DE491E00E94761EF3CF0E946C
:103DC000760D80930502833039F0853051F08130D3
:103DD00039F48DE491E002C08AE491E00E94601E13
:103DE00008958DE491E00E94761EF3CF0E94760D37
:103DF00080930302833039F0853051F0813039F4FB
:103E000085E390E002C082E392E00E94601E089584
:103E100085E390E00E94761EF3CFB0E0A0E0E3E1FE
:103E2000FFE10C94133380911B0190911C01892BAD
:103E3000B9F08091C1028F5F8093C102811110C0DF
:103E40000E947E1490E090931C0180931B01892BAB
:103E500039F40E94580E81E080931A010E94A21644
:103E60000FEC12E07801B12CD0E087E0C82ECD0E27
:103E70008D2F0E94AA118C2D0E94AA118D2F0E94B5
:103E8000F5148F73F7019081D12C891719F0808375
:103E9000DD24D3948C2D0E94F5148F73F701978144
:103EA000891709F444C0878381E08D29B82A0E94CC
:103EB000A70DDF5FFFEFEF1AFF0AD730B1F6D09101
:103EC000C502DD2309F47AC00E9438162091C3028E
:103ED0003091C402AC01421B530B9A019093C4026F
:103EE0008093C3024F3F510509F018F5452BE1F0CF
:103EF0001092C5021092C202E091C902F091CA026A
:103F0000AF01425F5F4F90E030E08081882321F075
:103F1000281790F010829D2F3196E417F507A9F726
:103F20003093C5029093C202B11057C04AC080E0DE
:103F3000BCCF2FEF30E0DCCF821B80833D2FECCF56
:103F40009170892B09F47CC08091C7029091C802BE
:103F50008130984780F01092EE036091DD027091FD
:103F6000DE028091DF029091E0020E94E016109242
:103F7000C8021092C7028091C7029091C8020196B0
:103F80009093C8028093C7028B2DCDB7DEB7E9E0CE
:103F90000C942F330E94A10D5AC0892BA9F31092C3
:103FA000C8021092C7026091DD027091DE0280911A
:103FB000DF029091E0020E94E016E6CFDB2DB11007
:103FC00006C08091C202882349F1D11106C00E9427
:103FD00038169093C4028093C302A091C902B09195
:103FE000CA028091C502E3EEF2E021EF32E04EE139
:103FF0005191E80199918E01591751F05C9151113D
:1040000007C04C93BF0161507109EB01988381E0B7
:1040100011962E173F0761F78093C5028091C70262
:104020009091C8022091EE03222309F4B6CF0097A5
:1040300009F086CF0E94980D0E94950D0E94920D66
:10404000D091C602DD2309F4A5CF0E94950D81E031
:10405000D827D093C60278CFA3E2B0E0E2E3F0E243
:104060000C940A333C01DC0113968D919C911497BA
:10407000892B41F08C9111969C9189238F3F11F0EF
:104080000C94C429A396E2E10C9426330E94460CBA
:10409000182F682F89819A810E94C40C69817A81C6
:1040A000812F0E94850A4C01F3018281811181C018
:1040B000C40181509545D4018F3F910508F4B7C0E4
:1040C000F301F281FBA3FF2309F41EC3AF3FB10547
:1040D00009F008F4C8C0AC32BD4509F4ABC0109279
:1040E0002802D090EE03DD2009F48AC3ABA1A11110
:1040F000A7C0E0912902E330A0F481E08E0F809305
:104100002902F0E0EE0FFF1FED5FFC4FD3018D9110
:104110009C919183808382E08983CE0101960E94E5
:104120003C06BFEFE3EDF0E3B150E040F040E1F7D3
:1041300000C0000080912902833009F081C01092F4
:10414000EE03109229029091040380910A039813C0
:104150000C94BE29909103038091090398130C9449
:10416000BE299091060380910C0398130C94BE29EC
:104170009091050380910B0398130C94BE299091A4
:104180000E038091080398130C94BE2990910D039F
:104190008091070398130C94BE2984E0898381E001
:1041A0008093EF038EEF8A83CE0101960E943C0636
:1041B00047C08091180190911901019609F478CFB8
:1041C0000BE211E0F12CE12CDD24D3948091180155
:1041D000909119018E159F050CF46ACFD80116969F
:1041E0008C9116978823E9F019968D919C918815EA
:1041F000990539F480912A0390912B03881599052C
:1042000081F0F801D786948683868189811103C065
:10421000C8010E947413C80106960E94931310925D
:104220002C03FFEFEF1AFF0A0A5E1F4FCFCF25E5E1
:10423000B22746CF8091280291E0892780932802F7
:1042400080919B02877009F41DCFD30112968C9147
:10425000882309F417CF80913B0382FF13CF82E0BC
:104260000E9470180FCF80912802882309F4E8C0BB
:1042700010922802A03CB105E8F5A038B10508F07D
:10428000A9C0A034B10508F06FC021E030E040E0E3
:1042900050E060E070E080E090E00A2F0E94783308
:1042A000E09108022E2BE09109023E2BE0910A02D8
:1042B0004E2BE0910B025E2BE0910C026E2BE091F5
:1042C0000D027E2BE0910E028E2BE0910F029E2BB1
:1042D000209308023093090240930A0250930B0284
:1042E00060930C0270930D0280930E0290930F0264
:1042F0004D01F7CEAF3FB10509F038F68D01005CF6
:10430000110921E030E040E050E060E070E080E042
:1043100090E00E947833E09120022E2BE091210260
:104320003E2BE09122024E2BE09123025E2BE09186
:1043300024026E2BE09125027E2BE09126028E2B2B
:10434000E09127029E2B209320023093210240937C
:1043500022025093230260932402709325028093DB
:10436000260290932702C4CF8D010054110921E049
:1043700030E040E050E060E070E080E090E00E94DB
:104380007833E09110022E2BE09111023E2BE09148
:1043900012024E2BE09113025E2BE09114026E2B61
:1043A000E09115027E2BE09116028E2BE091170210
:1043B0009E2B2093100230931102409312025093CF
:1043C0001302609314027093150280931602909367
:1043D00017028ECF8D010058110921E030E040E036
:1043E00050E060E070E080E090E00E947833E0917F
:1043F00018022E2BE09119023E2BE0911A024E2B4F
:10440000E0911B025E2BE0911C026E2BE0911D02DD
:104410007E2BE0911E028E2BE0911F029E2B20939B
:1044200018023093190240931A0250931B026093B2
:104430001C0270931D0280931E0290931F0258CF9E
:10444000A034B10508F06BC0E0910802F0910902B8
:1044500050900A0240900B0230900C0220900D0206
:1044600030910E0239A380910F028AA321E030E03F
:1044700040E050E060E070E080E090E00A2F0E94B1
:104480007833A22EAE22B32EBF22C42EC520D52E45
:10449000D420E62EE320F72EF22009A108231AA14A
:1044A00019230E94913309F01CCEA03CB10508F0FD
:1044B00096C0A038B10508F0F7C0A034B10508F0E7
:1044C000C3C021E030E040E050E060E070E080E018
:1044D00090E00A2F0E9478332095309540955095B2
:1044E00060957095809590952E233F23452154210A
:1044F00063217221A9A18A23BAA19B2320930802D8
:104500003093090240930A0250930B0260930C020D
:1045100070930D0280930E0290930F0291CEA038FB
:10452000B105F0F4E0911002F091110250901202E6
:1045300040901302309014022090150290911602C0
:1045400099A3209117022AA321E030E040E050E037
:1045500060E070E080E090E08D01005411098FCFA1
:10456000A03CB105F0F4E0911802F09119025090CE
:104570001A0240901B0230901C0220901D023091C4
:104580001E0239A380911F028AA321E030E040E09F
:1045900050E060E070E080E090E08D01005811098B
:1045A0006ECFE0912002F0912102509022024090C3
:1045B000230230902402209025029091260299A394
:1045C000209127022AA321E030E040E050E060E0A3
:1045D00070E080E090E08D01005C110950CFAF3FAA
:1045E000B10511F008F06DCF8D01005C110921E0DB
:1045F00030E040E050E060E070E080E090E00E9459
:1046000078332095309540955095609570958095BC
:1046100090952E233F234521542163217221E9A146
:104620008E23FAA19F2320932002309321024093EE
:1046300022025093230260932402709325028093F8
:10464000260290932702FCCD8D010054110921E030
:1046500030E040E050E060E070E080E090E00E94F8
:10466000783320953095409550956095709580955C
:1046700090952E233F234521542163217221E9A1E6
:104680008E23FAA19F2320931002309311024093AE
:1046900012025093130260931402709315028093D8
:1046A000160290931702CCCD8D010058110921E01C
:1046B00030E040E050E060E070E080E090E00E9498
:1046C00078332095309540955095609570958095FC
:1046D00090952E233F234521542163217221A9A1C6
:1046E0008A23BAA19B232093180230931902409386
:1046F0001A0250931B0260931C0270931D02809358
:104700001E0290931F029CCDAF3FB10511F008F03F
:10471000E8CCA034B10550F5A0900802B090090291
:10472000C0900A02D0900B02E0900C02F0900D02B3
:10473000F0910E02E0910F0221E030E040E050E005
:1047400060E070E080E090E00A2F0E947833A222BF
:10475000B322C422D522E622F722082F0F23192FD5
:104760001E230E94913309F0BCCC6ACDA038B1055C
:10477000E0F4A0901002B0901102C0901202D0900C
:104780001302E0901402F0901502F0911602E091ED
:1047900017028D010054110921E030E040E050E0A3
:1047A00060E070E080E090E0D0CFA03CB105A0F4E4
:1047B000A0901802B0901902C0901A02D0901B026B
:1047C000E0901C02F0901D02F0911E02E0911F0289
:1047D0008D0100581109E0CFA0902002B090210275
:1047E000C0902202D0902302E0902402F090250293
:1047F000F0912602E09127028D01005C1109CCCFD7
:104800008091EF03882381F0ABA187E0A11186E0BE
:104810008983F30180818A8381818B838EEF8C83EE
:10482000CE0101960E943C06FFEA8F16FDE59F0629
:1048300009F0C1C0D30112968C918823C9F18091EF
:10484000CB0291E0980F9770887F953008F4892B00
:104850008093CB028091CB028770BFEF8B9FC0010A
:10486000112495958795959587959927909389001B
:104870008093880090938B0080938A0090938D00A2
:1048800080938C004091CB025091CC026091CD027C
:104890007091CE028FE090E00E948D356091DD0234
:1048A0007091DE028091DF029091E0020E94E0169A
:1048B000C40197558F3F910511F008F056C1209122
:1048C0001801309119012817390724F49093190120
:1048D00080931801F301228136E1389F7001399FDE
:1048E000F00C11248701055D1E4FD80150962C93C2
:1048F0005097928116968C911697992309F427C1A7
:104900001A969C928E9219978F5F16968C930E949E
:104910003816F801968785878091BC02878380913D
:104920002C0390914003892B80870190F081E02D2A
:10493000309741F0D80154966D917C91C7018F5CFE
:104940009E4F099590922B0380922A038091290310
:10495000882309F4D3C1009140031091BC020E9446
:1049600038168854944F9093010380930003F30109
:104970008281882309F4C2C1102B1D7909F09DC1E1
:104980008114F5E59F0608F07DC1811423E59206A8
:1049900008F013C1811430E5930608F009C18114B1
:1049A00080E4980608F08CC196EE8916910409F40B
:1049B00004C1C4018BC1F401E05BFD45E731F105A1
:1049C00008F076CFEB5EF94CD30112968C910C94E3
:1049D0006333882309F434CC80E094E00E94A91D5D
:1049E00081E090E01DC0882309F42ACC84EF93E095
:1049F000F5CF882309F45CCF8AED93E00E94A91DCE
:104A000057CF882309F454CF80EC93E0F7CF882365
:104A100009F416CC86EA93E00E94A91D82E090E09A
:104A20000E94531E0DCC882309F442CF86E893E000
:104A3000E5CF882309F404CC82E793E0EDCF882307
:104A400009F436CF80E593E0D9CF882309F4F8CB79
:104A50008CE493E0C3CF882309F4F2CB88E493E09D
:104A6000BDCF882309F4ECCB84E493E0B7CF88234F
:104A700009F4E6CB80E493E0CFCF882309F4E0CBC0
:104A800080E293E00E94A91DDBCB882309F4D8CBF8
:104A90008CE093E0F7CF882309F4D2CB8CEE92E040
:104AA000F1CF882309F4CCCB8CEC92E0EBCF8823B8
:104AB00009F4C6CB88EB92E0E5CF882309F4C0CB9C
:104AC00088E992E0DFCF882309F4BACB80E892E04E
:104AD00085CF882309F4B4CB80912B02811108C0C3
:104AE0008CE792E00E94A91D81E080932B02A8CB65
:104AF00088E792E00E94A91D10922B02A1CB882387
:104B000009F49ECB80910A0190910B010D9769F4F5
:104B100088E090E090930B0180930A010E9499161F
:104B200080910A010E9495168BCB8DE090E0F2CF28
:104B3000882309F485CB81E03CC1882309F480CB2C
:104B400080912A0291E0892780932A0279CB8823D9
:104B500009F4FCCEF8018189882309F4F7CEC70156
:104B60008F5C9E4F0E949313F1CEFEEA8F16FDE5F7
:104B70009F0609F0EBCED30112968C91882309F49D
:104B80005FCB80912903882319F00E94DD1358CB55
:104B9000109240030E94280C0E9438168854944FAB
:104BA000909301038093000381E08093290348CB15
:104BB0008114A2E59A0608F0FCCED30112968C91DE
:104BC000882309F4F6C310927003BCE58B16BDE58B
:104BD0009B0609F475C108F0D8C08114FCE59F0656
:104BE00009F422C12FED82162CE5920609F45BC16F
:104BF000F301828100811181882309F465C1C80114
:104C00000E94460CF82E682FC8010E94C40CB801FF
:104C10008F2D0E94850A0E94A00A8C01A82ED30124
:104C20001296FC9012971596BC90B2943FE0B32276
:104C300080919B028770C1F0FF20A9F0812F807FB7
:104C4000803421F080E2800F883070F080913B0347
:104C500082FF0AC082E00E94701880919B028770D8
:104C6000DD24D3948111D12CC12EC2942FE0C22215
:104C7000BBE0BC1508F489C1EC2DF0E0E45DF94C13
:104C80000C9463338114B9E59B0660F48114E8E564
:104C90009E0608F092CFF4E18F16F5E59F0609F025
:104CA00088CE8BCFC40190568115904208F081CEFA
:104CB000D30115968C91807F39F40E94DD131EC0BC
:104CC000F3018581807FD1F0C401992710922C03D4
:104CD0008832910558F48E31910570F4049768F389
:104CE00082E080932C030E941F1306C08D32910531
:104CF000B9F3F0F48A9709F70E941F1324EF821684
:104D00002CE5920699F1D8F489ED88168CE5980681
:104D100049F19AED89169CE59906A1F1A8ED8A164C
:104D2000ACE59A0609F049CF26E241EE61EE16C0E5
:104D30008C34910509F38D329240F1F2BECFB6EF7B
:104D40008B16BCE59B06D1F0A8F027E245EE66EE97
:104D5000F7EF8F16FCE59F0609F02FCFC3010E94E5
:104D60004C1D6ECA27E245EE65EEF8CF26E241EE15
:104D700060EEF4CF27E245EE64EEF0CF26E241EE9E
:104D800062EEECCF28E241E0EFCF3EE583163DE551
:104D9000930609F48BC008F495C099EA89169DE53D
:104DA000990609F025CF0E94E21B81608093E903F8
:104DB00086950E94DC1644CA40E857E16AE877E12C
:104DC0000E947C083DCA4AE857E160E877E1F8CFE5
:104DD00048EC52E16EEB72E1F3CF44EA52E161EB51
:104DE00072E1EECF4AE852E167E972E1E9CF47E9C3
:104DF00052E16AE872E1E4CF44EE52E162ED72E121
:104E0000DFCF65E082E00E9495171ACA68E086E06D
:104E1000FACF64E18FE0F7CF67E185E1F4CF62E29A
:104E200089E1F1CF83E2C5CF109240030E94D518EB
:104E3000AFEFB4E3ECE0A150B040E040E1F700C0D8
:104E40000000F89481E08093E00080E28093D80035
:104E50001092C9008FE19EE40197F1F700C00000B5
:104E60001DBA109268001CBC10BE1FBA10927A00C6
:104E700010926E0010926F001092710010927200EA
:104E80001092C9001092BC0014B817B81AB81DB817
:104E900010BA1092BC0015B818B81BB81EB811BAD9
:104EA0000C94003FCDC90E9402147DCF80913B033A
:104EB00082FB882780F991E089270E948C1898CE80
:104EC00081E0FBCF80E0F9CFC8010E948F0CF82E63
:104ED0009ECEE12FEF70EE2E107F19F0E29490EF4E
:104EE000E922FF20B9F0EE2069F080E2800F8830DF
:104EF00010F0A11009C080914003E82AE09240031D
:104F00000E941F13802F3FC080912C03E82AE0925B
:104F10002C03F6CF802F0E94FA1BEE20B1F1005E29
:104F20008E2D083010F0A11003C00E94350C02C075
:104F30000E942E0C0E941F1328C0F12FFF70EF2E2D
:104F4000107F103219F0E29480EFE822AA2059F085
:104F500021E0A21609F472C0FF2009F47AC0BB2038
:104F600009F472C0CFCF20913B0322FD44C0FF2043
:104F7000D9F1EE2039F080914003E82AE092400315
:104F80000E941F1380E00E948B1CAC2DA850BB0B0D
:104F9000149710F40E946F08DD20A9F080919B0205
:104FA00080FD11C0F30112828595859585950E943B
:104FB000A818C3010E942C2080919B02859585959D
:104FC00085950E944C1885E0F301DE011196019051
:104FD0000D928A95E1F709811A81C8010E948F0C10
:104FE000B8010E94850A4EC880E00E94FA1BEE209C
:104FF00061F28E2D9ACFFF20A1F09091BC028E2DF0
:10500000892BB11003C00E94F813BFCF31E0B31257
:10501000FACF22FFBACF891709F4B7CF8093BC0229
:10502000B4CFB11006C00E94280C8E2D0E94F1133F
:10503000ACCF81E0B81609F4A8CFF5CFFF2031F04E
:1050400091E09B1508F4A1CF8E2DDDCFB1109DCF3F
:10505000ECCFBB2051F3A9E3AA1209C0BFEFE7EEE2
:10506000F3E0B150E040F040E1F700C00000802FD5
:105070000E94FA1B8ACF812F86958695837061F0F6
:10508000813009F082CFC8019370F11002C090E026
:1050900080E00E94430879CFC8019370F11002C0EC
:1050A00090E080E00E94590870CF802FFF2029F007
:1050B0000E94E6090E94A41768CF0E942909FACF2E
:1050C000812F837009F066C0F1105FCF802F829529
:1050D00086958770880F880F602F6F70862E912CB1
:1050E000B12CA12C082E04C0880C991CAA1CBB1C36
:1050F0000A94D2F740E050E0BA0104FF0FC04FE03D
:1051000050E060E070E004C0440F551F661F771F39
:105110008A95D2F74095509560957095812F869528
:1051200086958370823019F1D8F40091BD021091F8
:10513000BE022091BF023091C002813069F048293F
:1051400059296A297B29CB01BA0160237123822363
:1051500093230E94CA1819CF802A912AA22AB32A1F
:10516000CB01BA01682979298A299B29F2CF4829DC
:1051700059296A297B290091BD021091BE02209114
:10518000BF023091C002CB01BA016027712782278C
:105190009327DFCF8695FF2011F0812F8170882320
:1051A00009F4F3CE802F829586958770880F880F3B
:1051B000602F6F70862E912CB12CA12C082E04C06C
:1051C000880C991CAA1CBB1C0A94D2F740E050E042
:1051D000BA0104FF0FC04FE050E060E070E004C08F
:1051E000440F551F661F771F8A95D2F7409550953B
:1051F00060957095812F869586958370823019F120
:10520000D8F40091DD021091DE022091DF0230918E
:10521000E002813069F0482959296A297B29CB01AC
:10522000BA0160237123822393230E94E717ADCE36
:10523000802A912AA22AB32ACB01BA0168297929A6
:105240008A299B29F2CF482959296A297B2900916B
:10525000DD021091DE022091DF023091E002CB01ED
:10526000BA016027712782279327DFCF1F70FF20A5
:1052700029F0812F0E94A818802FC5CE802F0E9470
:10528000F113812F0E944C1880CE802F22EFA2169E
:1052900069F12A1570F030EFA316D1F091EFA9163D
:1052A00091F0FF2009F45AC0B1102CCE812F8F71DC
:1052B00021C0A3EFAA1609F1B4EFAB12F2CF80918F
:1052C0003B0382FD2DC0812F8F71FF20D9F212C0C8
:1052D000FF2039F0B11059CE812F8F710E942A180A
:1052E00054CEE1E0EB1508F450CEF6CF812F8F714C
:1052F000F110C8CF0E94A81848CE60E070E0CB0142
:10530000FF2009F492CF1F7161E070E080E090E02F
:1053100004C0660F771F881F991F1A95D2F785CF93
:10532000FF2089F01F71812F0E94A81880913B03F4
:1053300082FF07C0F8E01F9FC001112483608093A3
:105340009B02812FD7CF81E00E94701821E02B159E
:1053500008F01BCE82E00E94701817CEBB2059F0D7
:10536000893309F084CE3FEF87EE93E031508040DF
:105370009040E1F77ACE812F8F7184CF83E08983CB
:105380001092EF030C94D22085E0F301DE01119618
:1053900001900D928A95E1F7D30112962C918981A3
:1053A0009A8121110C9446200E948F0C182F0C9486
:1053B0004E20809140038272BDEC8B16BCE59B06AB
:1053C00009F41ACD08F056C0F7EC8F16FCE59F06DD
:1053D00009F4FECC30F534EC83163CE5930609F471
:1053E000EBCC70F4A3EC8A16ACE59A0609F000CC7D
:1053F0008091E90380FFD9CC0E94F6120C94202101
:10540000B5EC8B16BCE59B0609F4DDCC4EEB52E106
:1054100068EC72E1E6EC8E16ECE59E0609F4D0CC61
:10542000E7CBFAEC8F16FCE59F0609F4DBCC88F499
:1054300038EC83163CE5930609F4CFCC41EB52E1FE
:1054400064EA72E199EC89169CE5990609F4B8CCF6
:10545000CFCBABEC8A16ACE59A0609F4C8CC42ED8A
:1054600052E164EE72E1BCEC8B16BCE59B0609F4DC
:10547000A7CCBECBE2ED8E16ECE59E0609F4C9CCB6
:10548000B8F42FEC82162CE5920609F4BACC08F495
:1054900052CB80ED88168CE5980609F4B7CC6EE007
:1054A00089E091ED89169CE5990609F4ACCCA0CB76
:1054B000A5ED8A16ACE59A0609F4B1CC70F4E3EDDB
:1054C0008E16ECE59E0609F4A7CC88E1F4ED8F1664
:1054D000FCE59F0609F46DCC8BCB26ED82162CE5FE
:1054E000920609F49FCC3FE583163DE5930611F43F
:1054F0000C9420217DCB1F93CF93DF938091680282
:10550000807F09F049C080916502882309F444C076
:1055100080919A02D0916902609163027091640255
:10552000A0916602B0916702C62FC72316E0D81774
:1055300099F190E0109711F0CF3F19F40196877020
:10554000F6CF189F9001199F300D1124F901E659EB
:10555000FD4F41814713F2CF40814613EFCF428187
:105560004111ECCF438154814A1B5B0B4D375105F0
:1055700028F7809168028F70806180936802F9013A
:10558000E159FD4F80818F708061808383E692E0D6
:105590000E942C200E943C0CDF91CF911F91089516
:1055A000A1E1B0E0E6EDFAE20C9412338C0185E063
:1055B000F801DE011D9601900D928A95E1F7F80140
:1055C000E28083E6A82E82E0B82E60916602709198
:1055D00067026115710509F426C19091630240913B
:1055E0006402892F84238F3F09F41DC120813181FA
:1055F000C380D480F0906502F601E61BF70BFF2014
:1056000009F4DCC080916802582F507FED37F10516
:1056100008F09FC051116BC0FE2C431314C09213AD
:1056200012C0E11010C08F70806180936802C501C4
:105630000E942C2080916802F80185838F2D61964D
:10564000EAE00C942E33C114D10429F0822F832375
:105650008F3F09F003C180E0F82FF170DF2E80FF4B
:105660003CC080919A024091690256E0841315C0B3
:105670002D873E878D859E850E94820C292F22953D
:105680002F702230F0F0243018F59F70F1F0F801FF
:105690009581907FD1F4D12C1EC090E0589FF001ED
:1056A000599FF00D1124E659FD4F6181361306C054
:1056B0006081261303C06281E6120FC001968770D5
:1056C000D5CF9F7011F0882331F3805E883018F3B6
:1056D000C8010E942C20FD2CB1CFEE2009F4AECFE2
:1056E00080916802816080936802F12CA7CF4313F8
:1056F00006C0921304C0F801EE2009F479C0C80175
:105700000E94FC0C882309F1EE20F9F080916802D8
:10571000803270F0209163023091640238872F83C9
:105720001986DB86CA868C87CE0107960E942C20BC
:1057300086E0F801A3E6B2E001900D928A95E1F7C8
:105740000E947B2AFF24F39479CFC8010E942C2069
:10575000F9CF51110AC083E692E00E942C2086E026
:10576000F50111928A95E9F7C0CF43130FC0921348
:105770000DC0E1100BC0F8018583C8010E942C20E8
:1057800086E0F50111928A95E9F758CFC8010E9489
:10579000FC0C8823D1F2EE20C1F2809168028032A5
:1057A00038F220916302309164023A8329831B828C
:1057B000DD82CC828E83CE010196B8CFED37F10524
:1057C000F8F6FE2CEE2009F243131FC092131DC001
:1057D0008091680280FD10C0982F907F69F0F801D9
:1057E0008583903F31F0982F907F905F8F70892B49
:1057F0008583C8010E942C2086E0F801A3E6B2E070
:1058000001900D928A95E1F719CFC8010E94FC0C16
:1058100081118ECF80916802816080936802C801F7
:105820000E942C200BCFEE2009F48FCFC8010E94DC
:10583000FC0CF82E882309F488CF86E0F801A3E653
:10584000B2E001900D928A95E1F780916302909108
:1058500064020E94820C0E947B2AF0CE81E08E2599
:10586000FBCEA7E1B0E0E7E3FCE20C9419334B8BED
:105870005C8B6D8B7E8B8F8B611110922C031A8A3F
:10588000198A85E0FE017396DE011D9601900D9246
:105890008A95E1F786E0FE013D96DE0117960190BC
:1058A0000D928A95E1F7CE0107960E94D02A8823AF
:1058B00059F016E080919A0290916902891345C0CF
:1058C0006796E3E00C94353386E0FE013796DE01FF
:1058D000119601900D928A95E1F78A859B85892B17
:1058E00041F38F81988589238F3F19F320916902B5
:1058F00030E0C90101968770992740919A024817B4
:10590000190681F4109240030E94D5181092690282
:1059100010929A0286E0E3E6F2E0DF011D928A959A
:10592000E9F7C7CF96E0929FD001939FB00D112465
:10593000A659BD4FFE01319601900D929A95E1F75F
:10594000809369020E943C0CB4CF819FC001112456
:1059500086599D4F0E94D02A882309F4B1CF8091A7
:105960009A0290E001968770992780939A02A2CFBD
:105970001F921FB61F9211248F939F93AF93BF93D3
:1059800080913303811113C08091340390913503CA
:10599000A0913603B09137034196A11DB11D8093AC
:1059A000340390933503A0933603B0933703BF912C
:1059B000AF919F918F911F901FBE1F901895CDB7EB
:1059C000DEB7CC57D1090FB6F894DEBF0FBECDBFFE
:1059D00085B7806885BF85B7806885BF84B7877FB6
:1059E00084BF0FB6F894A895809160008861809379
:1059F0006000109260000FBE80E890E00FB6F8944F
:105A000080936100909361000FBE80E49AE09093D0
:105A1000E1018093E0010E94C0050E94E5068091AB
:105A2000E20084608093E20078948091F003882300
:105A3000A1F01091E9001F709091EC00892F817006
:105A400090FD80E8182B1092E9008091E80083FD1A
:105A50000E94E9181F701093E90082E084BD93E072
:105A600095BD9AEF97BD80936E000E947E1490E0E2
:105A700090931C0180931B010E94A70D0E94B60DFC
:105A8000EFECF2E08DED92E0A3EEB2E011921D9208
:105A90008E179F07D9F78EE090E00E940234809322
:105AA000C9029093CA02FC010E961192E817F907F9
:105AB000E1F789EA8093800089E08093810024984F
:105AC0002C983F988AB18F7C8AB96E98479A8BB18F
:105AD00080638BB9769A8FE090E00E945F35609387
