:100000000C9411060C942E060C942E060C942E06BD
:100010000C942E060C942E060C942E060C942E0690
:100020000C942E060C942E060C949B150C942D1CEF
:100030000C941C2E0C942E060C942E060C942E065A
:100040000C942E060C942E060C942E060C942E0660
:100050000C942E060C9474160C942E060C942E06FA
:100060000C942E060C942E060C942E060C942E0640
:100070000C942E060C942E060C942E060C942E0630
:100080000C942E060C942E060C942E060C942E0620
:100090000C942E060C942E060C942E060C942E0610
:1000A0000C942E060C942E060C942E0605010902C3
:1000B000A10185020901A1000509190129081500FE
:1000C0002501950875018102050109300931158165
:1000D000257F95027508810609381581257F9501D0
:1000E00075088106050C0A38021581257F95017572
:1000F000088106C0C005010980A101850319012AF4
:10010000B700150126B700950175108100C0050CD8
:100110000901A101850419012AA002150126A002E6
:10012000950175108100C005010906A1018506052C
:100130000719E029E71500250195087501810205D9
:1001400007190029EF1500250195F07501810205B9
:10015000081901290595057501910295017503910D
:1001600001C00660FF0961A1010962150026FF00B8
:100170009520750881020963150026FF00952075FA
:10018000089102C005010906A101050719E029E748
:1001900015002501950875018102950175088101F9
:1001A0000507190029FF150026FF0095067508812F
:1001B000000508190129059505750191029501753C
:1001C000039101C00103E1000000000000000000F5
:1001D000000000000000000000000000000000001F
:1001E0000000000000000000000000007E0F00D4AE
:1001F000FFFFFFC7000000780000000000000000C3
:100200002A2B280000000000000000000000000071
:1002100000000029000000002C1E3420212224347C
:100220002627252E362D3738271E1F20212223244E
:1002300025263333362E37381F0405060708090AEA
:100240000B0C0D0E0F101112131415161718191A86
:100250001B1C1D2F3130232D350405060708090A04
:100260000B0C0D0E0F101112131415161718191A66
:100270001B1C1D2F3130354C0102E101014F0103E0
:10028000E1010435307C0102E001011B0103E001C2
:100290000435307C01014F010435307C0102E0015E
:1002A00001190103E0000103E1000102E100010284
:1002B000E00101170103E0010435307C0102E00197
:1002C000010F0103E0000102E101011F0103E1014F
:1002D0000435307C0102E101011F0103E101043515
:1002E000307C01015000010134010435307C0101F2
:1002F00034010435307C010150000102E101013676
:100300000103E1010435307C0102E1010137010301
:10031000E1010435307C010150000102E101012FAF
:100320000103E1010435307C0102E10101300103E8
:10033000E1010435307C0101500001012F01043539
:10034000307C010130010435307C01015000010294
:10035000E10101260103E1010435307C0102E101E4
:1003600001270103E1010435307C01015000010245
:10037000E101014A0103E1010435307C01014C0037
:1003800001014C0001014D0001014A0001014A0137
:100390000436307C010128010436307C0101520111
:1003A0000436307C0102E00101190103E000010183
:1003B0004A010436307C010128010436307C0101F9
:1003C000520001014A010436307C0102E101014D75
:1003D0000103E1010436307C0102E0010106010362
:1003E000E00001014A010436307C0102E10102E033
:1003F00001014C0103E00103E10001014A0104365F
:10040000307C0102E10102E001014C0103E0010343
:10041000E10001014D010436307C01012801043660
:10042000307C0102E00101190103E00001014D01EE
:100430000436307C010128000102E101014D010375
:10044000E1010436307C01014C002B042B012961B1
:10045000E100E00000001E00140004001D00640024
:1004600036021F001A0016001B0035002B0020006A
:10047000080007000600E2002C002100150009001A
:10048000190001582F02220017000A000500000081
:100490002602230046000000B05D00002F0024006B
:1004A000AE5D000014500000300025001C000B0061
:1004B000110000002702260018000D00100002584D
:1004C000300227000C000E00360034002A002D00F8
:1004D00012000F0037001F0228002E001300330007
:1004E0003800320037022B060007E300E1004C0021
:1004F00000000100AC0001000100010000003A0012
:10050000BD5DBB5D01000100C15D3B004F01BC5DF5
:10051000C75D010001003C000F014C01B25D01000C
:1005200001003D001C010100C55D0100C05D3E00F1
:10053000C45D015750010000BE5D3F000100000096
:1005400001000000BF5D400001000000010000004C
:1005500001004100060150000100000001004200BE
:100560001D0151000100035101004300BA5D52001A
:100570000100C25D2A014400B35D4F000100C35D6C
:10058000010045001901AE000901C65D010001002E
:10059000AB0001000100C35C00000100AC000100E1
:1005A00001000100000068001A014D000100FD007B
:1005B0004E0069004F0116010100FE0050096A005B
:1005C0000F01B55DB65DFF00F1006B001501010084
:1005D0004900035101006C00010002575001000066
:1005E000FB006D00160A000001000000FA006E001A
:1005F0000100000001000000F9006F00B75DEF008E
:1006000001000000FC0070001D01EE00010001006F
:100610000100A8004A00ED0001000100F200AA005C
:10062000B85DF000010001004F09A900B45DAE0003
:100630000901C65D4B000100AB0001000100C35C75
:100640000000C75CC95C0100010001000000590006
:10065000010001000100010001005A000100010039
:100660000100010001005B00010001000100010028
:1006700001005C00010001000100010001005D00BB
:100680000100010001000000FB005E00010000000D
:1006900001000000FA005F000100000001000000FE
:1006A000F90060000100010001000000FC00610091
:1006B00001000100010001000100620001000100D1
:1006C0000100010001000100010001000100010022
:1006D000010053000100C45C0100AF5D0100C65C75
:1006E000C85C15500100005C0000010001002900F9
:1006F00001000100000001000100010001000100F3
:1007000001000100010001000100010001000100E1
:1007100001000100010001002B00010001000100A7
:1007200001002C0001000100010001000100000097
:1007300001000100010000000100000001000100B3
:100740000100000010500000010001000100010044
:100750000100000001000100010001000100010092
:100760000100010001000100010001000100010081
:100770000100010001000100010001000100010071
:100780000100010001000100010001000100010061
:100790000000000000000000000000000000000059
:1007A0000000000000000000000000000000000049
:1007B0000000000000000000000000000000000039
:1007C0000000000000000000000000000000000029
:1007D0000000000000000000000000000000000019
:1007E0000000000000000000000000000000000009
:1007F00000000000000000000000000000000000F9
:1008000000000000000000000000000000000000E8
:1008100000000000000000000000000000000000D8
:1008200000000000000000000000000000000000C8
:100830000000000000001050000000047F3F1F6413
:100840003214643214783C1E1E140A0500010101A2
:10085000010101010101020202020202020202037D
:10086000030303030303030404040404040405054D
:100870000505050606060606070707070708080810
:1008800008090909090A0A0A0B0B0B0C0C0C0D0DBF
:100890000D0E0E0E0F0F0F10101111111212131357
:1008A0001414151516161717181819191A1A1B1BD0
:1008B0001C1D1D1E1E1F202021222223242425262C
:1008C00026272829292A2B2C2D2D2E2F3031323264
:1008D000333435363738393A3B3C3D3E3F40414270
:1008E000434445464748494A4C4D4E4F5051535456
:1008F000555658595A5B5D5E5F616264656668690A
:100900006B6C6D6F7072737577787A7B7D7E808289
:10091000838587888A8C8E8F91939596989A9C9ED2
:10092000A0A2A3A5A7A9ABADAFB1B3B5B7BABCBEE2
:10093000C0C2C4C6C9CBCDCFD1D4D6D8DBDDDFE2AF
:10094000E4E7E9EBEEF0F3F5F8FAFDFFFFAA7F55D7
:10095000402223252628292A2C2D2F3032333536C4
:10096000383A3B3D3E4042434547494A4C4E505140
:10097000535557595A5C5E6062646668696B6D6F67
:1009800071737577797B7D7F81838587898A8C8E6A
:1009900090929496989A9C9E9FA1A3A5A7A8AAAC72
:1009A000AEAFB1B3B4B6B8B9BBBCBEBFC1C2C3C5AC
:1009B000C6C7C9CACBCCCDCED0D1D2D2D3D4D5D64E
:1009C000D7D7D8D9D9DADADBDBDBDCDCDCDCDCDD81
:1009D000DDDDDDDCDCDCDCDCDBDBDBDADAD9D9D865
:1009E000D7D7D6D5D4D3D2D2D1D0CECDCCCBCAC9FD
:1009F000C7C6C5C3C2C1BFBEBCBBB9B8B6B4B3B12C
:100A0000AFAEACAAA8A7A5A3A19F9E9C9A989694C6
:100A100092908E8C8A89878583817F7D7B7977759B
:100A200073716F6D6B6968666462605E5C5A59577A
:100A3000555351504E4C4A4947454342403E3D3B39
:100A40003A3836353332302F2D2C2A2928262523C3
:100A5000220A00000000000306B2000800010000A6
:100A600000A800080002000300A0001400030057C3
:100A7000494E555342000000000000000000008471
:100A800000040007002A0044006500760069006346
:100A900000650049006E0074006500720066006128
:100AA00000630065004700550049004400730000E2
:100AB0000050007B003900440042003700460031FE
:100AC00000460044002D0037004500370041002D4E
:100AD0000034003000300038002D0039003300367B
:100AE0000042002D00360042004100360043003134
:100AF000003900410033003000380063007D000001
:100B00000000000E0301646F63732E716D6B2E661F
:100B10006D0009027200040100A0FA09040000013E
:100B20000301010009211101000122400007058194
:100B3000030800010904010002030000000921115B
:100B4000010001222200070582032000010705039E
:100B50000320000109040200010300000009211123
:100B600001000122B60007058403200001090403E7
:100B70000002FF0000000705850340000507050689
:100B80000340000512011002000000089732754969
:100B900001000102000122034500720067006F009E
:100BA00044006F007800200045005A0020005300E8
:100BB000680069006E006500000028035A005300B9
:100BC0004100200054006500630068006E006F0063
:100BD0006C006F006700790020004C00610062002B
:100BE0007300000004030904050F3900021C1005FE
:100BF00000DF60DDD88945C74C9CD2659D9E648A24
:100C00009F00000306B20045001810050038B60822
:100C100034A909A0478BFDA0768815B6650001426E
:100C2000000011241FBECFEFDAE0DEBFCDBF23E00E
:100C3000A0EEB1E001C01D92A73FB207E1F711E0BD
:100C4000A0E0B1E0EAE0FFE602C005900D92A03E10
:100C5000B107D9F70E94432E0C9466370C9400001C
:100C6000E8EDF0E080818E7F80831092E2001092A8
:100C7000DA001092E100A0EEB0E08C9181608C93DC
:100C800080818F77808319BCA7EDB0E08C918E7F37
:100C90008C9380818F7E80831092410308952091F0
:100CA000E4003091E50095E6A9012091EC00822F47
:100CB000817020FF06C08091E80080FF06C080E0C0
:100CC00008952091E80022FD1AC08091F203882344
:100CD00089F0853089F08091EB0085FD0FC020916F
:100CE000E4003091E50042175307F9F29150E1F624
:100CF00084E0089582E0089583E0089581E00895F6
:100D0000EF92FF920F931F93CF937C018B010E9470
:100D10004F06C82F882371F08C2FCF911F910F9110
:100D2000FF90EF900895F70181917F018093F1008A
:100D3000015011090115110579F38091E80085FD35
:100D4000F2CF8091E8008E778093E8000E944F06F2
:100D5000882381F3C82FE0CFCF93FC018091F20369
:100D6000843031F5C091E900CF702091EC00922FD2
:100D7000917020FD90E8C92B82E08093E90080917A
:100D8000E80080FF12C050E040E060E270E0CF0178
:100D90000E948006882321F01092F0031092F10344
:100DA0008091E8008E778093E800CF70C093E900CF
:100DB000CF910895EF92FF920F931F93CF937C01F1
:100DC0008B010E944F06C82F811117C08091E80047
:100DD00085FD0BC08091E8008B778093E8000E942E
:100DE0004F06882399F3C82F08C08091F100F701BE
:100DF00081937F010150110949F78C2FCF911F91E9
:100E00000F91FF90EF9008958091680387FF13C0C2
:100E10008091E80082FF06C08091E8008B77809384
:100E2000E80004C08091F2038111F2CF089580910F
:100E3000F2038823D9F38091E80080FFF8CF8091F6
:100E4000E8008E77ECCF982F9093E900242F762F2F
:100E500050E0891731F07091EC002091ED00509135
:100E6000F00021FD07C09F5F973071F78093E90084
:100E700081E008953091EB003E7F3093EB0030919C
:100E8000ED003D7F3093ED003091EB003160309309
:100E9000EB007093EC002093ED005093F000209154
:100EA000EE0027FDE0CF80E00895B0E0A0E0EBE5A4
:100EB000F7E00C947834C8EDD0E088818F7E888389
:100EC000E7EDF0E080818160808384E082BF81E093
:100ED0008093410388818E7F888302EE10E0F801C1
:100EE00010821092DA0081EEC82ED12CF601108209
:100EF00088818F77888388818068888388818F7DC7
:100F0000888319BC1092F203109267031092660353
:100F10001092650390EEE92EF12CF70180818B7F12
:100F2000808388818160888342E060E080E00E9465
:100F30002307F60180818E7F8083F80180818160A4
:100F40008083808188608083F70180818E7F8083A9
:100F5000888180618883CDB7DEB7E8E00C94943453
:100F6000FC0180916E0390916F0386179707A0F0A4
:100F70006115710529F48091E8008E778093E8006F
:100F800090E06115710551F4911108C08091E8005D
:100F900082FF35C080E00895BC01F2CF8091F2035A
:100FA0008823C9F18530C9F18091E80083FD31C003
:100FB0008091E80082FDEACF8091E80080FFE1CFD8
:100FC0008091F3002091F200382F6115710519F01E
:100FD0002830310558F091E02830310509F090E0D3
:100FE0008091E8008E778093E800CBCF8491809346
:100FF000F1003196615071092F5F3F4FE6CF80912C
:10100000F203882341F0853041F08091E80083FFAE
:10101000BDCF81E0089582E0089583E00895FC014A
:1010200080916E0390916F0386179707A0F061156A
:10103000710529F49091E8009E779093E80090E084
:101040006115710551F4911108C08091E80082FF8B
:1010500034C080E00895BC01F2CF8091F203882370
:10106000C1F18530C1F18091E80083FD30C08091ED
:10107000E80082FDEACF8091E80080FFE1CF809117
:10108000F3002091F200382F6115710519F0283016
:10109000310558F091E02830310509F090E02091B9
:1010A000E8002E772093E800CBCF81918093F10068
:1010B000615071092F5F3F4FE7CF8091F203882382
:1010C00041F0853041F08091E80083FFBECF81E0A0
:1010D000089582E0089583E008950895809144037F
:1010E00008952091F203243099F425E02093E9003B
:1010F00070E050E040E00E948006882321F01092CA
:101100003A0310923B038091E8008E778093E800C9
:10111000089520916D012223C9F020913C0327FFFF
:1011200015C0E62FE695E695E695EE31D8F4E80F82
:10113000F92FF11D677021E030E001C0220F6A95A0
:10114000EAF720958281282322830895FC013296B4
:1011500008962191621303C0DF0111971C92E817D2
:10116000F907B9F708952091330330913403281714
:10117000390771F09093340380933303E091310386
:10118000F0913203309721F00084F185E02D09952C
:10119000089520912F03309130032817390771F0FB
:1011A0009093300380932F03E0913103F091320349
:1011B000309721F00680F781E02D09950895E091A0
:1011C0003103F0913203309729F00190F081E02D46
:1011D0000995089580E00895FA01811101C0FB018D
:1011E0000995089508958091EB03982F9E7F29F427
:1011F000817082608093EB0308958A34E8F38170F4
:101200008864F8CFAF92BF92DF92EF92FF920F9374
:101210001F93CF93DF93082F162FE901E42FF0E0FF
:10122000E45BF74F611111C0E4915E2F4E2F4983AB
:10123000E8835A831B82DF91CF911F910F91FF901A
:10124000EF90DF90BF90AF900895E62EF12C44917F
:10125000D42EE42FF0E026E0829FC00111242FEF6E
:1012600030E0B9010E945A34802F90E0880F991F16
:1012700055E5569FD001579FB00D11248A1B9B0B3B
:10128000982F990F890F5901AE18BF08AE9ED00153
:10129000AF9EB00DBE9EB00D11245B2F189F800134
:1012A0001124012F11275901A01AB10AAE9E800105
:1012B000AF9E100DBE9E100D11245901A81AB10841
:1012C000AE9CC001AF9C900DBE9C900D1124892F47
:1012D0009927281B390B2E9FC0012F9F900D3E9FF1
:1012E000900D1124E92F62307105A1F050F46115C1
:1012F000710509F49CCF6130710581F0EB2F512FFE
:1013000096CF6430710569F080F06630710509F49C
:101310008ECFF4CFE42F4B2F592F89CFE42F412FBD
:1013200086CFEB2F542F492F82CF4B2F5D2DE12FEE
:101330007ECF409119038D3E59F480911A0387FFA7
:101340000DC010921A0341110BC01092110308C076
:101350008E3E81F480911A0318169CF3442381F089
:1013600080911B0390911C03892B09F05AC01092A5
:10137000100308958F3E49F447FFF0CF10921903F0
:1013800080911A038111ECCFE0CF803F19F414163D
:10139000ACF3E4CF90911B03893F29F41916F4F6BE
:1013A00010921B03DBCF8A3F19F497FFD7CFF8CFFA
:1013B00090911C038B3F29F497FFD0CF10921C0310
:1013C000CDCF8C3F19F41916CCF3C8CF9FE0980FFE
:1013D000983090F4815F990B21E030E0B90102C0B0
:1013E000660F771F8A95E2F7CB01809590911803DD
:1013F000892380931803B2CF8D3F31F4809112037B
:101400008E7F80931203AACF8E3F21F48091120326
:101410008D7FF7CF8F3F09F0A1CF809112038B7F93
:10142000F0CF08958091120380FD1AC081FD14C091
:1014300082FD14C080911003882391F08C3370F4E6
:1014400025E0829FC00111246CE370E00E94B33458
:10145000862F672B29F0089582E0089585E008958E
:1014600081E008958091120380FD16C081FD16C0B1
:1014700082FD18C080911103882391F08C3390F481
:1014800028E2829FC00111246CE370E00E94B33413
:10149000862F672B49F008958AE0089584E1089526
:1014A00088E0089588E2089581E008958D3E31F442
:1014B0000E94320A819580931A0308958E3E19F492
:1014C0000E94320AF8CF8F3E31F40E94320A819591
:1014D000809319030895803F19F40E94320AF8CFCF
:1014E000893F29F40E94120A80931B0308958A3FC2
:1014F00021F40E94120A8195F7CF8B3F31F40E94AC
:10150000120A819580931C0308958C3F19F40E9460
:10151000120AF8CF9FE0980F983070F4815F990B12
:1015200021E030E001C0220F8A95EAF7809118038C
:10153000822B8093180308958D3F31F4809112031C
:1015400081608093120308958E3F21F480911203ED
:101550008260F7CF8F3FB9F7809112038460F1CF9B
:1015600080E0089590913C0392FF06C0282F2871D7
:101570002830F9F4877F846093FF06C0282F2871F4
:101580002831F1F4877E846120913D0320FF06C05D
:10159000382F38713830D9F4877F816021FF06C039
:1015A000282F28712831D1F4877E816194FD877EB0
:1015B0000895282F24712430F9F68B7F8860DCCFC2
:1015C000282F2471243101F78B7E8861DDCF382FDD
:1015D0003171313019F78E7F8860E0CF282F21716B
:1015E000213121F78E7E8861E1CF972F7E30A8F4DC
:1015F000663098F470E026E0929F600D711D112412
:10160000FB0194E5899FE00DF11D1124EE0FFF1FF2
:10161000E65BFB4F85919491089580E090E00895FA
:10162000CF93DF93EC0182389105A9F1D8F581338E
:10163000910509F496C048F58932910509F48AC0EC
:101640008A9709F495C0C11521E5D20708F0BCC0FE
:10165000C11530E5D30708F014C1C83ED10508F024
:101660009CC0C03ED10560F5C83AD10508F087C0DE
:10167000C53AD10508F0FDC0C130D10509F1209768
:10168000F9F0C430D105E0F440C08533910509F488
:101690005AC0C997C1F680913C03837089F0C0EEAF
:1016A000D0E00EC0833E910599F170F4803E910523
:1016B00001F1823E910539F680913C0382FD21C003
:1016C000CE01DF91CF910895863E910561F1873E6D
:1016D000910571F1843E910509F0B5CF80913D03EC
:1016E00081FFEECF80913C03C7EED0E084FD0DC0BA
:1016F000E7CF80913C0380FD12C190913D0390FFA4
:10170000DFCFC3EED0E084FFDBCFD0E0C0E0D8CFA6
:1017100080913C0382FD06C190913D0390FDBFCFB7
:1017200084FFCECFF2CF80913C0383FDDDCFC8CFC5
:1017300080913C0383FDF9C090913D0391FFF0CF70
:10174000C4EED0E0BDCF80913C0385FFB9CFC9E2A4
:10175000D0E0B6CF80913C0385FFB2CFC5E3D0E0A7
:10176000AFCF80913C0386FFABCFCAE2D0E0A8CFD9
:1017700080913C0386FFA4CFC1E3D0E0A1CFCF3B53
:10178000D10518F6C85AD0E0CC0FDD1FC358DE4F84
:101790000990D881C02DD46493CFC11540E2D407FD
:1017A00058F4C11581E0D80708F08ACFCD3ED105A5
:1017B00008F4ABCFD06584CFC11590E4D90708F405
:1017C000A4CFDF70D06A7CCFC11525E5D20700F524
:1017D000C11534E5D30708F08AC0C11543E5D40725
:1017E00008F071C0C11582E5D80708F467C0CE01C2
:1017F0008370992721E030E002C0220F331F8A95C1
:10180000E2F7C695C69580E2C89FE001112452C058
:10181000C11599E5D907A8F4C11528E5D20708F044
:101820006BC0C11536E5D30708F06FCF8C2F0E942F
:10183000B20AC82FD0E0DC2FCC27CC27DF71D062D2
:101840003FCFC1154AE5D40708F45BC0CE019056DE
:101850008115904208F059CF8D2F8F710E94B20AE6
:1018600090E0982F882788279F719C012C2BE901F5
:10187000E6CFC55AD0E0C658DE4FC881D0E0D0646C
:101880001FCFCE01E4E096958795EA95E1F7837046
:101890002C2F26952695237040E2249F9001112439
:1018A000382B8C2F8370C1E0D0E002C0CC0FDD1F3D
:1018B0008A95E2F7C22BD32BDC6802CFDC2FCC2732
:1018C000C16FD06AFDCECE018370992721E030E050
:1018D00002C0220F331F8A95E2F7C695C69590E2A3
:1018E000C99FE0011124C22BD32BDA68E9CEDC2F8B
:1018F000CC27C46FD06AE4CEDC2FCC27C06FD06A6F
:10190000DFCE8C2F8F700E94B20A34E0D695C79537
:101910003A95E1F7CF709C2FEC01D069D1CEC9E3A5
:10192000D0E0CECEC2EED0E0CBCEC6EED0E0C8CE78
:101930008091BD0281111092BD0208958095909111
:101940002E03982390932E0308958095909142033F
:10195000982390934203089580919B0290916A028C
:10196000981301C008958F5F8770FACFB0E0A0E0B0
:10197000ECEBFCE00C9477348C01C090DE02D0904C
:10198000DF02E090E002F090E1028091BE029091CF
:10199000BF02A091C002B091C102C82AD92AEA2A86
:1019A000FB2ACFE1D0E0BC2ED701C6010C2E04C02B
:1019B000B695A795979587950A94D2F780FD09C0AB
:1019C000219788F7B12C8B2DCDB7DEB7E9E00C94C9
:1019D0009334B8018C2F0E94F50A0E94100B0197D6
:1019E00079F3F1CFCF93DF93EC010E94B60CBE01E7
:1019F0000E94F50A0E94100BDF91CF910895292FC4
:101A00009E3080F5863070F590E036E0239F800DA3
:101A1000911D1124682F677023E0969587952A956C
:101A2000E1F725E0289FF001299FF00D1124E35DE7
:101A3000FD4F50E040E080E0219130E0062E02C0F2
:101A4000369527950A94E2F721703327042E01C0BA
:101A5000220F0A94EAF7822B4F5F5F4F4530510502
:101A600059F7089580E00895292F9E30A0F586301B
:101A700090F590E036E0239F800D911D1124282FD2
:101A8000277041E001C0440F2A95EAF723E09695BC
:101A900087952A95E1F725E0289FF001299FF00D11
:101AA0001124E35DFD4F30E020E070E05191DF0153
:101AB0001197CB01022E02C0969587950A94E2F702
:101AC000817081958527842385278C932F5F3F4FD5
:101AD0002530310559F70895FC01808191810E94DC
:101AE000F20C92959F70963091F058F4925F9F702F
:101AF000923058F4803F19F030F4883E30F481E0A1
:101B000008959A5FF4CF843FD1F380E00895883E32
:101B1000B0F3813FD1F7F3CFCF92DF92EF92FF92F4
:101B20006C01EE24FF2420E0C114D104E104F1048F
:101B300019F0C701B60120E1C72ED82EE92EFF24E7
:101B4000C114D104E104F10419F0285FC701B60102
:101B50006B017C0154E0F694E794D794C7945A95AE
:101B6000D1F7C114D104E104F10419F02C5FC701CD
:101B7000B6016B017C0142E0F694E794D794C794D8
:101B80004A95D1F7C114D104E104F10419F02E5F94
:101B9000C701B6019695879577956795672B682B52
:101BA000692B09F02F5F822FFF90EF90DF90CF908D
:101BB00008959C019A9581159F4130F4832F81707F
:101BC00031FF03C08260089580E00895FC018081A8
:101BD000813041F49185911114C09285992389F047
:101BE00082E00895823041F48185811107C08285A9
:101BF000811106C083E0089586E0089585E0089588
:101C000084E0089527982F98089526982E9808958F
:101C100025982D98089556985E980895279A2F9A9A
:101C20000895269A2E9A0895259A2D9A0895209817
:101C300028982198299822982A9823982B98529886
:101C40005A9853985B983E98469808958098889A39
:101C50008198899A84988C9A85988D9A86988E9A7C
:101C600087988F9A089580933E0370934003609302
:101C70003F038091F2038430F9F48093E9008FEF01
:101C80009091E800815095FD06C095ED9A95F1F789
:101C900000008111F5CF8091E80085FF0DC050E074
:101CA00040E063E070E08EE393E00E948006809164
:101CB000E8008E778093E8000895BC0184E00E94DC
:101CC000330E0895BC0183E00E94330E08959C01F9
:101CD00084E08093E9009FEF8091E800915085FDBA
:101CE00006C085ED8A95F1F700009111F5CF80913E
:101CF000E80085FF0CC050E040E066E070E0C901FC
:101D00000E9480068091E8008E778093E800089515
:101D1000CF93DF93EC0180916D018823B1F1809125
:101D20003C0387FF32C060E284E08093E9008FEFDC
:101D30009091E800815095FD06C095ED9A95F1F7D8
:101D400000008111F5CF8091E80085FF1BC08091D4
:101D50006D0170E050E040E0811104C050E040E0CF
:101D600068E070E0CE010E9480068091E8008E77E6
:101D70008093E80080E2FE01A5E4B3E001900D92BB
:101D80008A95E1F7DF91CF91089568E081E0CDCFAA
:101D9000EF92FF920F931F93CF93DF930E940B0E4E
:101DA0000E94080E0E94050E0E94020E88E8E82E8E
:101DB000F12C8FEF90E0F701918380830AE810E027
:101DC000F80191838083CCE8D0E0998388830E94D6
:101DD000140EFFEF20E782E0F15020408040E1F751
:101DE00000C000000E94110E9FEFE0E7F2E091506A
:101DF000E040F040E1F700C000000E940E0E2FEF1F
:101E000080E792E0215080409040E1F700C0000060
:101E10000E94080EEFEFF0E722E0E150F040204092
:101E2000E1F700C000000E94050E8FEF90E7E2E0AE
:101E300081509040E040E1F700C000000E94020E97
:101E40008091CC028770FFEF8F9FC0011124959580
:101E50008795959587959927F70191838083F80158
:101E600091838083998388830E940B0E0E94080EC1
:101E70000E94050E0E94020ECDB7DEB7E6E00C947C
:101E80009634CF93C82F873078F580911B019091BD
:101E90001C01892B39F564E670E080E40E949533DB
:101EA00090931C0180931B01892BD1F464E670E0B0
:101EB00082E10E94033490931C0180931B01892BC3
:101EC00079F481E090E001C0880FCA95EAF764E6F2
:101ED00070E080950E94033490931C0180931B0155
:101EE0000E945634CF9108958A30B1F038F488308A
:101EF00069F0893071F0209A2898F4CF8C3091F0F5
:101F000070F08D30C1F73E9A4698ECCF219A29980F
:101F1000E9CF229A2A98E6CF239A2B98E3CF529AB8
:101F20005A98E0CF539A5B98DDCF0F931F93CF93CE
:101F3000DF938091EB0380FD0BC0E3E7F3E01182B8
:101F4000108212821382349653E0EB3EF507B9F704
:101F5000E3E7F3E0928120813181892F291708F48A
:101F6000822F381708F4832F8383381B3183281B73
:101F70002083981B9283349683E0EB3EF80751F759
:101F800080911E038823D1F080911B0190911C0148
:101F9000892BA1F480911A01882381F064E670E016
:101FA00084E80E949533C7EED3E00BEA13E0892B57
:101FB00009F42FC010921A010E945634579A3BB16F
:101FC0003F772BB120684FB7F89483E793E0FC018B
:101FD0005191CF0168E02BB9000000C057FF3BB919
:101FE000550F000000C000C000C03BB900C06A959A
:101FF00091F7F3E08B3E9F0751F74FBF8FE594E0D9
:102000000197F1F700C00000DF91CF911F910F9170
:10201000089564E670E088810E94033464E670E00D
:1020200089810E94033464E670E08A810E9403344F
:1020300064E670E08B810E94033424970C171D071F
:1020400041F7BACFA4E0B0E0E8E2F0E10C947C34D0
:10205000162F042F9091EB0390FF22C09E012F5F5B
:102060003F4F4FEF6FEF0E9402091017C8F48B81AA
:1020700099812A8134E0139FF0011124ED58FC4F1F
:1020800021839083828313821F5F34960113F8CFDC
:102090000E94950F8FE99FE00197F1F700C00000C3
:1020A0002496E4E00C949834EF92FF920F931F93E0
:1020B000CF93DF938C01C3E7D3E0F12CE12CF8013F
:1020C00094816091ED038091EC03FFE0EF16F10441
:1020D000ECF49923E9F09E014091EE030E9402097D
:1020E0002FEFE21AF20A24968EE1E816F10439F78E
:1020F0000E94950FF801848190E0019681709927E4
:102100008483CDB7DEB7E6E00C949634992319F3B7
:102110009E0140E0E3CFB0E0A0E0E1E9F0E10C9403
:102120007434EC014C81042F10E09801D8010E9416
:1021300057379B01AC010E9422374B015C01E0E262
:10214000F0E0E01BF10BA5E5B0E0AC019B010E94C3
:1021500022376B017C019F01DF010E94CD349B017E
:10216000AC010E942D379B01AC01280D391D4A1D81
:102170005B1DC701B6010E943537F22E822F90E019
:1021800039E23F1598F143E0249F900111243595E1
:102190002795122F109593E7C92E93E0D92E00E0D2
:1021A00085E5E82EEF188E2D01FD8F2D9601412F2C
:1021B0006091ED030E9402090F5F54E0C50ED11C2F
:1021C0000E3189F70E94950F9C8181E0992319F0C7
:1021D000903219F48FEF80932A0180912A01890FA0
:1021E0008C83CDB7DEB7ECE00C94903425E530E07D
:1021F000A901481B590BCA019A01220F331F280F4E
:10220000391F37FFC4CF2F5F3F4FC1CF0F931F93AD
:10221000CF93DF93C3E7D3E0FE01118210821282D5
:102220001382349683E0EB3EF807B9F710E000E044
:1022300080912903082E000C990B081719078CF1BF
:1022400080912901082E000C990B801791074CF101
:102250009E014091EE036091ED038091EC030E949A
:1022600002090F5F1F4F24960E31110509F70E94D6
:10227000950F8091280190912903980F909329033D
:1022800020912901280F20932901121614F49D3161
:102290001CF0819580932801DF91CF911F910F91C0
:1022A0000895198218821A821B82DBCFB0E0A0E069
:1022B000ECE5F1E10C947734FC018281DD24DA94C1
:1022C00080FD02C0DD24D39403E713E0D0E0C0E03A
:1022D0002EE1B22EF801118210821282138294E054
:1022E000E92EF12CC12C809128038C0D8F31C4F183
:1022F0006B2D0E94A534892F082E000C990B8C178A
:102300009D0791F48091EE038E9DA0018F9D500D4D
:102310001124559547955595479598016091ED0382
:102320008091EC030E940209CD0CF1E0EF1AF10854
:10233000D1F621960C5F1F4FCE31D10559F60E9480
:10234000950F8091280391E0D91210C081110CC023
:102350008DE180932803CDB7DEB7E9E00C94933488
:1023600087FFCACF825EC8CF8150F3CF90E001963D
:10237000BE010E94B334EDCFEF92FF921F93CF9333
:10238000DF93EC0183E7E82E83E0F82E10E08C81E8
:1023900097014091EE036091ED03810F0E940209C5
:1023A000185F84E0E80EF11C103F89F70E94950F3A
:1023B0009A818C8190FF08C08F5F8C83DF91CF91D1
:1023C0001F91FF90EF9008958150F7CF9091EB030C
:1023D00090FF0DC0E3E7F3E08183608342831382C3
:1023E000349693E0EB3EF907B9F70E94950F0895F4
:1023F000A4E0B0E0EEEFF1E10C947C348C0180912C
:102400002A0381110AC09E012F5F3F4F4FEF6FEFEC
:102410000E9402098A8180932A03F8016481613055
:1024200069F080912A0340E0662361F040E0623069
:1024300011F440912A0380E060E004C060912A0317
:1024400040E080E00E94E611F801848190E001966E
:1024500063E070E00E94B33484832496E4E00C943B
:102460009834A4E0B0E0E7E3F2E10C947E3490917C
:10247000EB0390FF0AC09E012F5F3F4F0E940209AD
:102480004B8169818A810E94E6112496E2E00C94D6
:102490009A34CF93DF93EC01EBEEF3E0438162815A
:1024A0008C810E9431128C818F5F8C83DF91CF9160
:1024B0000895CF93DF93EC01EC81F0E0EF5AF64FF3
:1024C0004491EBEEF3E0628181810E9431128C81B4
:1024D0008F5F8C83DF91CF910895CF92DF92EF923F
:1024E000FF926B017C010E94F308B701A60188E00E
:1024F00090E00E94F136FF90EF90DF90CF9008952A
:10250000A4E0B0E0E6E8F2E10C947134F82E762E07
:10251000E42E622E9091EB0390FF29C0E92FE695FF
:10252000AE2FB0E0A555BE4F8C91809325039E7FC2
:10253000923009F59E012F5F3F4F8F2D0E940209B7
:102540004B8169818A810E94E611F092EC037092BE
:10255000ED03E092EE03662051F06091EB03709181
:10256000EC038091ED039091EE030E946D1224968E
:10257000EFE00C948D34823019F4E090EE03E5CF57
:10258000863019F4F090EC03E0CF8930D9F389312B
:10259000E1F6E9518E2F8170582EE695F0E0E45B6C
:1025A000F64FE4910E2F10E083E7C82E83E0D82E7B
:1025B000B12CA12C9EE1892E912CC501B4010E9461
:1025C0005A348F2D511013C0860F96014E2D672D52
:1025D0000E940209A00EB11E84E0C80ED11C8BEE31
:1025E000C81683E0D80649F70E94950FAECF861B28
:1025F000ECCFEBEEF3E0438125E0421B08F440E032
:1026000021E0628181810E9480120895EBEEF3E067
:10261000438125E0420F08F44FEF21E06281818180
:102620000E9480120895EBEEF3E0628125E0621BC8
:1026300008F460E021E0438181810E9480120895C6
:10264000EBEEF3E0628125E0620F08F46FEF21E02A
:10265000438181810E9480120895EBEEF3E0818135
:1026600021E04381628185500E9480120895EBEE43
:10267000F3E0818121E0438162818B5F0E948012BF
:1026800008958091EF03882319F081508093EF0320
:102690006091EB037091EC038091ED039091EE0358
:1026A0000E946D1208958091EF03833018F48F5FBC
:1026B0008093EF036091EB037091EC038091ED0345
:1026C0009091EE030E946D120895EBEEF3E080818D
:1026D0008E7F808360817181828193810E946D12DF
:1026E000109226032FEF80E792E021508040904027
:1026F000E1F700C000000E94950F0895EBEEF3E0B3
:1027000083E0808311828FEF8283838314826081D0
:102710007181828193810E946D120895809142039C
:1027200090912E03892B8093E2019091BD02992311
:10273000A1F0892B8093E20180916D018823E1F162
:1027400080913C0387FF38C08EE1E4EEF1E090E039
:102750008150A0F591110E94980C40E250E06DE983
:1027600072E082EE91E00E949E36892B21F180E298
:10277000E2EEF1E0ADE9B2E001900D928A95E1F769
:10278000E0913103F09132033097A9F080916D010F
:10279000882359F080913C0387FF07C08091E201B4
:1027A0008093E30186E08093E2010280F381E02DD3
:1027B00082EE91E00995089586E0C7CF219122230A
:1027C00039F29F5FC5CFCF93DF93EC0181E0898B16
:1027D000809142039F81892B8093420380912E0335
:1027E0009885892B80932E030E948E13EA81FB81AA
:1027F000309729F06C897D89CE0106960995DF9185
:10280000CF910895EF92FF920F931F93CF93DF9391
:10281000EC018A85811134C0EB80FC8087E5F81AD1
:1028200026E12E9DC0012F9D900D1124DC01A55D98
:10283000BE4F1496ED91FC911597309731F0549658
:102840006D917C918F5C9E4F099586E18E9D8001F4
:102850008F9D100D1124055D1E4FF80187810E9488
:10286000A50CF80180850E949E0C0E948E13188290
:1028700019861B861E821D8210922D0310922C0336
:10288000CDB7DEB7E6E00C949634882321F00E94A1
:102890009E0C0E948E13089580912B03882329F0AB
:1028A00082E20E94451410922B030895882339F088
:1028B00090912E03982B90932E030E948E130895CF
:1028C000882321F00E94A50C0E948E13089588236E
:1028D00039F090914203982B909342030E948E13FB
:1028E000089568EE7EEF90E080E00E94FD3660E0A3
:1028F00082E090E00E94DF3660E083E090E00E949A
:10290000DF361092BE021092BF021092C0021092E7
:10291000C10260E084E090E00E94DF3664E082E281
:1029200090E00E94DF3660E085E090E00E94DF36B4
:1029300060E086E090E00E94DF366FEF87E090E095
:102940000E94DF3640E050E0BA0188E090E00E944B
:10295000F13660E08DE090E00E94DF3640E050E02C
:10296000BA0188E190E00E94F13660E087E190E0F2
:102970000E94DF3640E050E0BA018CE190E00E9416
:10298000F13670E060E080E290E00E94FD3640E0C9
:1029900050E0BA0188E190E00E94F1361092CC023A
:1029A0001092CD021092CE021092CF0284E080935A
:1029B000CC024091CC025091CD026091CE02709138
:1029C000CF028FE090E00E94F13640E050E0BA0183
:1029D00083E190E00E94F136089580E290E09093C8
:1029E0001C0180931B0180911E0381110EC00E9467
:1029F0008F3381E080931E032FEF83ED90E321500E
:102A000080409040E1F700C0000064E670E080E4A0
:102A10000E94953390931C0180931B01892B09F030
:102A20004EC064E670E080E00E94033490931C0185
:102A300080931B01892B09F042C064E670E080E0BE
:102A40000E94033490931C0180931B01892BB9F5DC
:102A500064E670E08FE30E94033490931C0180933E
:102A60001B01892B61F50E94563464E670E080E416
:102A70000E94953390931C0180931B01892BF9F4DC
:102A800064E670E08CE00E94033490931C01809314
:102A90001B01892BA1F464E670E080E00E940334FE
:102AA00090931C0180931B01892B49F464E670E02C
:102AB0008FE30E94033490931C0180931B010E94BA
:102AC000563480911B010895CF93873050F5809143
:102AD0001B0190911C01C0E0892B71F464E670E049
:102AE00081E40E94953390931C0180931B01892BF4
:102AF00031F0C0E00E9456348C2FCF91089584E6C7
:102B000090E00E94323497FF05C090931C0180939F
:102B10001B01EFCFC82FC09510921C0110921B0112
:102B2000E9CFCFB18FB1869586958C73C3708C2B0E
:102B3000C82FC095E1CF1F920F920FB60F921124AC
:102B40002F933F934F935F936F937F938F939F93B5
:102B5000AF93BF93EF93FF938091E10082FF09C091
:102B60008091E20082FF05C08091E1008B7F80931D
:102B7000E1008091DA0080FF24C08091D80080FFBE
:102B800020C08091DA008E7F8093DA008091D90096
:102B900080FF9DC080E189BD82E189BD09B400FE4E
:102BA000FDCF81E08093F20380914103811109C040
:102BB0000E9430060E9455078091E2008460809355
:102BC000E2008091E10080FF17C08091E20080FF69
:102BD00013C08091E2008E7F8093E2008091E2003A
:102BE00080618093E2008091D80080628093D80059
:102BF00019BC85E08093F2038091E10084FF2BC033
:102C00008091E20084FF27C080E189BD82E189BD17
:102C100089B5982F917080FFFBCF8091D8008F7D70
:102C20008093D8008091E1008F7E8093E1008091B5
:102C3000E2008F7E8093E2008091E20081608093C9
:102C4000E20080916703882309F447C084E0809301
:102C5000F2038091F2038091E10083FF27C080910D
:102C6000E20083FF23C08091E100877F8093E10031
:102C700082E08093F203109267038091E1008E7FDF
:102C80008093E1008091E2008E7F8093E20080914A
:102C9000E20080618093E20042E060E080E00E9418
:102CA00023078091F00088608093F000FF91EF91FE
:102CB000BF91AF919F918F917F916F915F914F9154
:102CC0003F912F910F900FBE0F901F90189519BC38
:102CD0001092F2031092410374CF8091E30087FDBC
:102CE00093E09093F203B5CF78941F921FB61F9292
:102CF00011248F939F93AF93BF938091360390914C
:102D00003703A0913803B09139030196A11DB11D7D
:102D10008093360390933703A0933803B09339031D
:102D2000BF91AF919F918F911F901FBE1F901895DB
:102D30009C014FB7F8948091360390913703A0918E
:102D40003803B09139034FBF821B930B08952FB7FF
:102D5000F8948091360390913703A0913803B09195
:102D600039032FBF08956091EB03669570E04BE047
:102D700050E08DE191E00E949136892B19F481E0B9
:102D8000809326030E94A7169093200380931F032D
:102D900008959091EB0390FF2CC0917081112AC08F
:102DA00092609093EB03662351F06091EB03709176
:102DB000EC038091ED039091EE030E946D126091FF
:102DC000EB03669570E04BE050E08DE191E00E94EE
:102DD0009136892BB1F01092260381E08093220373
:102DE00020E04091EE036091ED038091EC030E949E
:102DF00080120895853210F09864D3CF880F982BF5
:102E0000D0CF0E94B316E9CF60E00E94C9160895A2
:102E1000EBEEF3E080818160808386950E94041749
:102E2000089580911D03811135C090E080E00E94DB
:102E3000C936883E9E4F21F00E9471140E947E1375
:102E400088E090E00E94C3366093EB037093EC033C
:102E50008093ED039093EE036E7F71F40E947E13D6
:102E600088E090E00E94C3366093EB037093EC031C
:102E70008093ED039093EE030E94F30810922603D3
:102E80008091EB0380FF03C086950E94041781E0C8
:102E900080931D03089561E00E94C9160895CF92A2
:102EA000DF92EF92FF92CF93DF936B017C010E9440
:102EB0008C0DD82F0E940B0E0E94080E80912C02C0
:102EC000811102C00E94050E0E94020EC0912B02C9
:102ED000EFEFED0FE73008F085C0F0E0E859F84C6F
:102EE0000C94C7340E94140EC1110FC00E94081721
:102EF00081E00E9404174EE16FE088E70E942210F3
:102F00004FE060E085ED0E942210C701B601DF911D
:102F1000CF91FF90EF90DF90CF9008950E940E0E1A
:102F2000C111F3CF0E94081781E00E9404174EE1FF
:102F30006FE085ED0E9422104FE060E088E7E3CF6C
:102F40000E94140E0E940E0EC111DFCF0E940817BE
:102F500081E00E94041720E04FEF6FEF88E759C02F
:102F60000E94140E0E94110E0E940E0EC111CDCFB0
:102F70000E94081780910A0142C00E94110EC111DF
:102F8000C4CF0E94081720E040E060E080E041C02C
:102F90000E94140E0E94110E0E940E0EC111B5CF98
:102FA00088E090E00E94C3366093EB037093EC03DB
:102FB0008093ED039093EE0360FF2EC0862F816017
:102FC0008093EB0386950E944B178091EB038695C7
:102FD0000E944B1721E04091EE036091ED03809138
:102FE000EC0317C0D111DACFC1118FCF0E9408179F
:102FF00080910A0190910B01089721F488E00E94CA
:10300000041783CF81E00E94041720E04FEF6FEF99
:1030100085ED0E94801279CF0E94651376CF809152
:10302000EB038695815009F484E261E00E94C916A1
:1030300008958091EB0386958F5F853208F081E0DB
:1030400061E00E94C91608959091EB0390FF08C0BB
:103050009695981728F0961718F40E941918089555
:103060000E944B1708950E94A7169C019091190386
:1030700080911A03982B21F03093160320931503A7
:1030800090911B0380911C03982B21F03093140323
:1030900020931303E0913103F0913203309749F00C
:1030A00082E0809317030480F581E02D87E193E0AF
:1030B0000995089590E080E00E94C90890E080E0C2
:1030C0000E94B30810922E030E948E1386E0E7E15F
:1030D000F3E0DF011D928A95E9F710921103109237
:1030E0001003109212030E9433180895CF92DF92BA
:1030F000EF92FF92CF93DF93CDB7DEB7A0970FB6D5
:10310000F894DEBF0FBECDBF0E944F176B017C014C
:103110008091F1038823B1F02FEF80E792E02150F6
:1031200080409040E1F700C0000085E08983C7013E
:10313000B6010E948C0D8A838EEF8B83CE0101969F
:103140000E94AC06C092DE02D092DF02E092E00262
:10315000F092E1020E945A18A0960FB6F894DEBFD2
:103160000FBECDBFDF91CF91FF90EF90DF90CF905A
:1031700008950F931F9341E050E060E070E004C0B9
:10318000440F551F661F771F8A95D2F78091DE0284
:103190009091DF02A091E002B091E1028A019B01CF
:1031A000082719272A273B27C901B8010E9476184A
:1031B0001F910F9108950F931F9341E050E060E03D
:1031C00070E004C0440F551F661F771F8A95D2F721
:1031D000CB01BA0160957095809590950091DE02C3
:1031E0001091DF022091E0023091E102602371230F
:1031F000822393230E9476181F910F910895909136
:103200009C028095892380939C02282F277091F43B
:10321000282F082E000C330B9217130659F09091AB
:103220003D0392FF07C08595859585950E94DB1823
:1032300010929C020895CF93C0913D03C2FB992741
:1032400090F9981791F080FBC2F9C0933D0360910B
:103250003C0384E090E00E94DF366C2F82E290E035
:103260000E94DF3682E00E94FF18CF9108950F93ED
:103270001F9341E050E060E070E004C0440F551F30
:10328000661F771F8A95D2F78091DE029091DF0248
:10329000A091E002B091E1028A019B01082B192B59
:1032A0002A2B3B2BC901B8010E9476181F910F9160
:1032B00008956093BE027093BF028093C002909302
:1032C000C1020E945A18089580916D01E4EEF1E068
:1032D000882361F080913C0387FF08C08EE1DF0105
:1032E0001D928A95E9F70E945A18089586E0F7CF53
:1032F000AAE2B0E0EEE7F9E10C947D3488E693E0D1
:103300002091F100FC012193CF01F3E080379F076A
:10331000B9F780916903893009F444C018F5823007
:1033200009F4BCC0833009F46FC0813031F580915D
:103330006803813A11F58091E800877F8093E80067
:1033400080916C0390916D03892B41F560E285E4D7
:1033500093E070E00E940F088091E8008B778093E3
:10336000E8000BC08B3009F46CC008F486C08234CE
:1033700009F4A5C0853409F4BFC08091E80083FF3B
:103380005AC280916803909169039A3008F053C241
:10339000E92FF0E0E159F84C0C94C73460E090E07C
:1033A00080E0D7CF80916803813239F780916C0338
:1033B00090916D03009711F00297F9F68091E80063
:1033C000877F8093E8008091E80082FF18C0909189
:1033D000F3008091F200029731F48091F100813086
:1033E00011F0863021F48091F100809344038091A4
:1033F000E8008B778093E8000E940407BECF80919D
:10340000F2038111E0CFB9CF80916803813A09F0CE
:10341000B4CF80916C0390916D03892B09F0ADCFEF
:103420008091E800877F8093E8008091E80080FF2A
:10343000FCCF80916D018093F1008091E8008E7740
:10344000D9CF80916803813209F097CF80916C03C6
:1034500090916D03892B09F090CF8091E800877FD0
:103460008093E8000E94040780916A0380936D01B5
:10347000109242030E94641980CF809168038132C8
:1034800009F07BCF8091E800877F8093E8000E945D
:10349000040780916B03809343036FCF809168038F
:1034A000813A09F06ACF8091E800877F8093E80035
:1034B0008091E80080FFFCCF80914303BCCF8091D6
:1034C0006803803C09F059CF80916C0390916D03A3
:1034D000029739F580916A0390916B03892B09F566
:1034E0008091E800877F8093E8006EE070E083E0E1
:1034F0009BE00E94B00780CF80916803803C09F078
:103500003CCF80916C0390916D03079751F48091AB
:10351000E800877F8093E80062EB70E081E59AE045
:10352000E8CF8091EB0080628093EB0026CF80385B
:1035300099F0823809F07FC180916C038F708730D9
:1035400008F079C18093E9008091EB0085FB882722
:1035500080F91092E90006C080916503909166039E
:10356000911182609091E800977F9093E80080939A
:10357000F1001092F1008091E8008E7758C1882305
:1035800009F446C1823009F056C180916A03811165
:1035900049C180916C038F702FEF280F263008F0FF
:1035A0004AC18093E9002091EB0020FF3BC193309A
:1035B00031F48091EB0080628093EB0033C19091F5
:1035C000EB0090619093EB0021E030E001C0220F0E
:1035D0008A95EAF72093EA001092EA008091EB00C6
:1035E0008860EACF811127C110916A031F7780910B
:1035F000E3008078812B8093E3008091E800877F4F
:103600008093E8000E9404078091E80080FFFCCFCF
:103610008091E30080688093E30082E0111183E0F1
:103620008093F20308C18058823008F004C1809171
:103630006A0390916B038C3D23E09207A1F583E030
:103640008A838AE289834FB7F894DE01139620E0DB
:103650003EE051E2E32FF0E050935700E49120FF69
:1036600003C0E295EF703F5FEF708E2F90E0EA307D
:10367000C0F0C7968D939D932F5F243159F74FBFAC
:103680008091E800877F8093E8006AE270E0CE01D5
:1036900001960E940F088091E8008B778093E800E4
:1036A000CAC0C096E7CF20916C0330916D03492FBB
:1036B00055274330510551F1A0F44130510509F42B
:1036C00059C062E770E082E19BE04230510509F0A9
:1036D000B2C02091E800277F2093E8000E94B00745
:1036E000DACF4132510539F14232510591F14F3073
:1036F000510509F0A0C0EAEEFBE0649170E088EEAD
:103700009BE06115710509F496C0E3CF99278130DC
:10371000910571F0009731F0029709F08CC0E6E94D
:10372000FBE002C0E4EEFBE0649170E0CF01E9CF82
:10373000EAEBFBE0F9CF2330310508F07CC0220F23
:10374000331FF901E752FE4F8081918169E070E0FB
:10375000C0CF2330310508F06EC0F901EE0FFF1F16
:10376000ED52FE4F8081918120533E4FF9016081DF
:1037700070E0C7CF62E170E084E89BE0AACF8038B8
:1037800009F059C08091E800877F8093E80080911C
:1037900067038093F100EFCE81114DC010916A0351
:1037A000123008F048C08091E800877F8093E800DD
:1037B000109367030E940407112311F084E005C0F1
:1037C0008091E30087FDFACF81E08093F20342E02D
:1037D00061EC81E00E94230742E261EC84E00E94F8
:1037E000230742E261EC82E00E94230742E260ECA0
:1037F00083E00E94230742E361EC85E00E942307F7
:1038000042E360EC86E00E9423078091F20313C03C
:1038100080916A03813079F481E0933009F080E08F
:10382000809366031092E9008091E800877F80937F
:10383000E8000E9404078091E80083FF0AC080919D
:10384000E800877F8093E8008091EB00806280939E
:10385000EB00AA96E3E00C9499341F920F920FB6F6
:103860000F9211242F933F934F935F936F937F9306
:103870008F939F93AF93BF93CF93DF93EF93FF9378
:10388000D091E900DF708091EC00C82FC17080FDFD
:10389000C0E81092E9008091F000877F8093F000EB
:1038A00078940E9478191092E9008091F000886065
:1038B0008093F000CD2BCF70C093E900FF91EF9182
:1038C000DF91CF91BF91AF919F918F917F916F9138
:1038D0005F914F913F912F910F900FBE0F901F90CE
:1038E0001895109242030E9464192FEF84E39CE024
:1038F000215080409040E1F700C0000088E19AE04C
:103900000FB6F894A895809360000FBE9093600066
:10391000FFCF882391F19CEF980F913A40F4682FE4
:1039200082EE91E00E9489080E948E13089590E231
:10393000980F983050F4877091E001C0990F8A95E4
:10394000EAF7892F0E94A50CEFCF9BE5980F9330E3
:1039500028F490E080E00E94C908089598E5980F47
:10396000973128F490E080E00E94B30808958D3EDE
:1039700020F00E9499090E9433180895CF93DF9395
:10398000EC010E94891CCE010E94D90DC05ED109B4
:10399000289728F40E946014DF91CF9108950E9427
:1039A0004514FACF8FE39CE90197F1F700C00000BE
:1039B00080910702833059F0853011F0813021F475
:1039C0008DE491E00E94BE1C1092070208958AE4E3
:1039D00091E0F8CF8FE39CE90197F1F700C0000078
:1039E00080910502833059F0853011F0813021F447
:1039F0008DE491E00E94BE1C1092050208958AE4B5
:103A000091E0F8CF8FE39CE90197F1F700C0000047
:103A100080910302833059F0853011F0813021F418
:103A200085E390E00E94BE1C10920302089582E399
:103A300092E0F8CFCF93C82F882309F442C08CEFCF
:103A40008C0F813A08F065C080916D018823D9F10F
:103A500080913C0387FF37C0EC2FE695E695E6950D
:103A6000F0E0EE51FE4F828190E04C2F477021E054
:103A700030E002C0220F331F4A95E2F782239323DE
:103A8000892B61F06C2F82EE91E00E9489080E94E0
:103A90008E1323C080913C0387FF23C0EC2FE69553
:103AA000E695E695F0E0EE51FE4FC77021E030E07C
:103AB00001C0220FCA95EAF78281822B82830E947D
:103AC0008E13CF910895E4EEF1E08AEE91E021911A
:103AD000C217C1F28E179F07D1F780916D01811136
:103AE000D9CFA4EEB1E0EFEF80E09D91C91739F393
:103AF000EF3F19F4911101C0E82F8F5F8630A9F7CD
:103B0000EF3FE9F20E2E000CFF0BEE51FE4FC28389
:103B1000D6CF80E28C0F883068F4C77021E030E0A7
:103B200001C0220FCA95EAF780914203822B80934D
:103B30004203C5CFEBE5EC0FE33040F4F0E0E6588C
:103B4000FE4F808190E00E94C908BBCFE8E5EC0FF2
:103B5000E73150F4F0E0EE0FFF1FE358FE4F808195
:103B600091810E94B308ADCFCD3E08F4AACF8C2F2F
:103B70000E94560A0E943318A4CF1F93CF93DF935D
:103B8000182FD0E0C0E0893311F4C0E5D0E0812FD8
:103B90000E941A1D209739F4812F0E94891CDF9101
:103BA000CF911F9108958FE99FE00197F1F700C031
:103BB00000002197EFCF0F931F93CF93DF93C62F72
:103BC000D42F022FFC0182818823A9F06093720315
:103BD0000E94A7169093710380937003C77081E0D1
:103BE00001C0880FCA95EAF70E946714DF91CF9150
:103BF0001F910F91089580917203681332C08091D4
:103C00007003909171030E9498168D37910548F5C5
:103C100010E21D0FCD17B9F080E28C0F883040F410
:103C2000C77081E001C0880FCA95EAF70E9460144E
:103C3000183048F481E09D2F977001C0880F9A9545
:103C4000EAF70E946714802F0E94BD1D183070F69D
:103C5000D77081E001C0880FDA95EAF70E946014FE
:103C6000C5CFC77081E001C0880FCA95EAF7F6CFCB
:103C7000B0E0A0E0EEE3FEE10C947634EC018AE0E3
:103C8000A82EFE012491222309F497C0213009F0C7
:103C90003EC031968491813031F42296FE018491A8
:103CA0000E94BD1D07C0823039F42296FE01849126
:103CB0000E941A1D2196E5CF833031F42296FE0131
:103CC00084910E94891CF6CF843009F074C022963A
:103CD000FE01249190E080E0FE0131962053330BE9
:103CE0002A30310548F0019728F3EFE9FFE03197DA
:103CF000F1F700C00000F7CFA89EA001A99E500DCB
:103D00001124C901840F951F2491EF01E5CFE22F03
:103D1000F0E0E850FE4FB490822F86958695869508
:103D200090E0FC01E851FE4FE4902770F12C022E48
:103D300002C0F594E7940A94E2F731E0E322FF240D
:103D4000FC01E852FE4FC490D12C022E02C0D59443
:103D5000C7940A94E2F7E1E0CE22DD24FC01E853A7
:103D6000FE4F049110E002C0159507952A95E2F7E1
:103D700001701127E114F10419F081EE0E941A1D5F
:103D8000C114D10419F086EE0E941A1D8B2D0E94D9
:103D9000BD1DC114D10419F086EE0E94891CE114E6
:103DA000F10419F081EE0E94891C0115110509F436
:103DB00081CF8CE275CFEF017DCFCDB7DEB7EAE0E2
:103DC0000C949234CF93C82F10922C0284EC91E083
:103DD0000E94381E80912A02811103C08C2F0E94FC
:103DE000B918CF910895CF93DF93EC010E94D90DBC
:103DF0009E01205E31092830310540F40E9467148D
:103E00008C2F0E941A1DDF91CF9108950E945614A5
:103E1000F7CFCF93DF93EC010E94F31EC933D10596
:103E200049F42FEF87EE93E0215080409040E1F776
:103E300000C00000CE010E94BE1CDF91CF9108950A
:103E4000CF93DF93EC018881833061F48DE491E0BE
:103E50000E94091F8DE491E00E94091F8DE491E00A
:103E60000E94091F8881843020F08DE491E00E9437
:103E7000091FDF91CF9108950E94201F0895CF93CD
:103E8000DF93EC018881833061F485E390E00E9448
:103E9000091F85E390E00E94091F85E390E00E94DE
:103EA000091F8881843020F085E390E00E94091F7B
:103EB000DF91CF9108950E94E60D80930702833031
:103EC00039F0853051F0813039F48DE491E002C051
:103ED0008AE491E00E94F31E08958DE491E00E942F
:103EE000091FF3CF0E94E60D80930502833039F05D
:103EF000853051F0813039F48DE491E002C08AE4DC
:103F000091E00E94F31E08958DE491E00E94091F44
:103F1000F3CF0E94E60D80930302833039F08530A1
:103F200051F0813039F485E390E002C082E392E001
:103F30000E94F31E089585E390E00E94091FF3CFCD
:103F4000B0E0A0E0E6EAFFE10C94773480911B0139
:103F500090911C01892BB9F08091C2028F5F8093F0
:103F6000C202811110C00E94ED1490E090931C01D8
:103F700080931B01892B39F40E94C80E81E0809345
:103F80001A010E94111700ED12E07801B12CD0E067
:103F900087E0C82ECD0E8D2F0E94410F8C2D0E94E0
:103FA000410F8D2F0E9464158F73F7019081D12CE2
:103FB000891719F08083DD24D3948C2D0E94641519
:103FC0008F73F7019781891709F444C0878381E0D3
:103FD0008D29B82A0E94170EDF5FFFEFEF1AFF0A44
:103FE000D730B1F6D091C602DD2309F47AC00E9421
:103FF000A7162091C4023091C502AC01421B530B9D
:104000009A019093C5028093C4024F3F510509F075
:1040100018F5452BE1F01092C6021092C302E09110
:10402000CA02F091CB02AF01425F5F4F90E030E0F7
:104030008081882321F0281790F010829D2F3196DF
:10404000E417F507A9F73093C6029093C302B110A5
:1040500057C04AC080E0BCCF2FEF30E0DCCF821BDE
:1040600080833D2FECCF9170892B09F47CC0809127
:10407000C8029091C9028130984780F01092F003F5
:104080006091DE027091DF028091E0029091E10286
:104090000E944F171092C9021092C8028091C80264
:1040A0009091C90201969093C9028093C8028B2D0A
:1040B000CDB7DEB7E9E00C9493340E94110E5AC0DC
:1040C000892BA9F31092C9021092C8026091DE02F6
:1040D0007091DF028091E0029091E1020E944F17FF
:1040E000E6CFDB2DB11006C08091C302882349F1D1
:1040F000D11106C00E94A7169093C5028093C402F6
:10410000A091CA02B091CB028091C602E4EEF2E027
:1041100022EF32E04EE15191E80199918E01591759
:1041200051F05C91511107C04C93BF01615071096E
:10413000EB01988381E011962E173F0761F780937A
:10414000C6028091C8029091C9022091F0032223F7
:1041500009F4B6CF009709F086CF0E94080E0E949E
:10416000050E0E94020ED091C702DD2309F4A5CFEF
:104170000E94050E81E0D827D093C70278CFA3E232
:10418000B0E0E5ECF0E20C946E343C01DC011396F7
:104190008D919C911497892B41F08C9111969C9153
:1041A00089238F3F11F00C94282BA396E2E10C9405
:1041B0008A340E94B60C182F682F89819A810E9438
:1041C000340D69817A81812F0E94F50A4C01F30137
:1041D0008281811181C0C40181509545D4018F3FF6
:1041E000910508F4B7C0F301F281FBA3FF2309F4A2
:1041F0001EC3AF3FB10509F008F4C8C0AC32BD45DD
:1042000009F4ABC010922802D090F003DD2009F42D
:104210008AC3ABA1A111A7C0E0912902E330A0F4A9
:1042200081E08E0F80932902F0E0EE0FFF1FEC5F1C
:10423000FC4FD3018D919C919183808382E089838F
:10424000CE0101960E94AC06BFEFE3EDF0E3B15062
:10425000E040F040E1F700C0000080912902833087
:1042600009F081C01092F003109229029091050389
:1042700080910B0398130C94222B9091040380914E
:104280000A0398130C94222B9091070380910D033D
:1042900098130C94222B9091060380910C03981391
:1042A0000C94222B90910F038091090398130C9486
:1042B000222B90910E038091080398130C94222BCB
:1042C00084E0898381E08093F1038EEF8A83CE01BD
:1042D00001960E94AC0647C0809118019091190187
:1042E000019609F478CF0BE211E0F12CE12CDD24EA
:1042F000D39480911801909119018E159F050CF4AB
:104300006ACFD80116968C9116978823E9F01996F2
:104310008D919C918815990539F480912C03909189
:104320002D038815990581F0F801D7869486838638
:104330008189811103C0C8010E94E313C801069658
:104340000E94021410922E03FFEFEF1AFF0A0A5E7A
:104350001F4FCFCF25E5B22746CF8091280291E0AD
:1043600089278093280280919C02877009F41DCFD1
:10437000D30112968C91882309F417CF80913D03C5
:1043800082FF13CF82E00E94FF180FCF8091280296
:10439000882309F4E8C010922802A03CB105E8F592
:1043A000A038B10508F0A9C0A034B10508F06FC06D
:1043B00021E030E040E050E060E070E080E090E03C
:1043C0000A2F0E94DC34E09108022E2BE0910902B2
:1043D0003E2BE0910A024E2BE0910B025E2BE09106
:1043E0000C026E2BE0910D027E2BE0910E028E2BC3
:1043F000E0910F029E2B2093080230930902409314
:104400000A0250930B0260930C0270930D0280938A
:104410000E0290930F024D01F7CEAF3FB10509F0A8
:1044200038F68D01005C110921E030E040E050E0F9
:1044300060E070E080E090E00E94DC34E0912002D7
:104440002E2BE09121023E2BE09122024E2BE09197
:1044500023025E2BE09124026E2BE09125027E2B3D
:10446000E09126028E2BE09127029E2B20932002C2
:10447000309321024093220250932302609324023E
:10448000709325028093260290932702C4CF8D015A
:104490000054110921E030E040E050E060E070E0BD
:1044A00080E090E00E94DC34E09110022E2BE0913D
:1044B00011023E2BE09112024E2BE09113025E2B73
:1044C000E09114026E2BE09115027E2BE091160212
:1044D0008E2BE09117029E2B209310023093110235
:1044E00040931202509313026093140270931502CA
:1044F00080931602909317028ECF8D0100581109F8
:1045000021E030E040E050E060E070E080E090E0EA
:104510000E94DC34E09118022E2BE09119023E2B10
:10452000E0911A024E2BE0911B025E2BE0911C02DF
:104530006E2BE0911D027E2BE0911E028E2BE091EE
:104540001F029E2B209318023093190240931A02E7
:1045500050931B0260931C0270931D0280931E02F5
:1045600090931F0258CFA034B10508F06BC0E091C2
:104570000802F091090250900A0240900B0230901C
:104580000C0220900D0230910E0239A380910F028F
:104590008AA321E030E040E050E060E070E080E09D
:1045A00090E00A2F0E94DC34A22EAE22B32EBF224E
:1045B000C42EC520D52ED420E62EE320F72EF220DF
:1045C00009A108231AA119230E94F53409F01CCE71
:1045D000A03CB10508F096C0A038B10508F0F7C0BE
:1045E000A034B10508F0C3C021E030E040E050E065
:1045F00060E070E080E090E00A2F0E94DC342095BB
:1046000030954095509560957095809590952E23A6
:104610003F234521542163217221A9A18A23BAA1F4
:104620009B23209308023093090240930A0250937F
:104630000B0260930C0270930D0280930E02909314
:104640000F0291CEA038B105F0F4E0911002F09184
:1046500011025090120240901302309014022090E8
:1046600015029091160299A3209117022AA321E026
:1046700030E040E050E060E070E080E090E08D01EC
:10468000005411098FCFA03CB105F0F4E09118025D
:10469000F091190250901A0240901B0230901C02B7
:1046A00020901D0230911E0239A380911F028AA31F
:1046B00021E030E040E050E060E070E080E090E039
:1046C0008D01005811096ECFE0912002F091210276
:1046D0005090220240902302309024022090250224
:1046E0009091260299A3209127022AA321E030E08D
:1046F00040E050E060E070E080E090E08D01005C20
:10470000110950CFAF3FB10511F008F06DCF8D0109
:10471000005C110921E030E040E050E060E070E032
:1047200080E090E00E94DC342095309540955095D3
:1047300060957095809590952E233F2345215421B7
:1047400063217221E9A18E23FAA19F2320932002E5
:10475000309321024093220250932302609324025B
:10476000709325028093260290932702FCCD8D0141
:104770000054110921E030E040E050E060E070E0DA
:1047800080E090E00E94DC34209530954095509573
:1047900060957095809590952E233F234521542157
:1047A00063217221E9A18E23FAA19F232093100295
:1047B000309311024093120250931302609314023B
:1047C000709315028093160290931702CCCD8D0141
:1047D0000058110921E030E040E050E060E070E076
:1047E00080E090E00E94DC34209530954095509513
:1047F00060957095809590952E233F2345215421F7
:1048000063217221A9A18A23BAA19B2320931802B4
:104810003093190240931A0250931B0260931C02BA
:1048200070931D0280931E0290931F029CCDAF3F98
:10483000B10511F008F0E8CCA034B10550F5A09016
:104840000802B0900902C0900A02D0900B02E090DA
:104850000C02F0900D02F0910E02E0910F0221E0A7
:1048600030E040E050E060E070E080E090E00A2F4F
:104870000E94DC34A222B322C422D522E622F722EF
:10488000082F0F23192F1E230E94F53409F0BCCCEA
:104890006ACDA038B105E0F4A0901002B0901102EA
:1048A000C0901202D0901302E0901402F090150212
:1048B000F0911602E09117028D010054110921E0D8
:1048C00030E040E050E060E070E080E090E0D0CF89
:1048D000A03CB105A0F4A0901802B0901902C090BD
:1048E0001A02D0901B02E0901C02F0901D02F09181
:1048F0001E02E0911F028D0100581109E0CFA09027
:104900002002B0902102C0902202D0902302E090B9
:104910002402F0902502F0912602E09127028D01F9
:10492000005C1109CCCF8091F103882381F0ABA109
:1049300087E0A11186E08983F30180818A838181E8
:104940008B838EEF8C83CE0101960E94AC06FFEA2A
:104950008F16FDE59F0609F0C2C0D30112968C9117
:104960008823C9F18091CC0291E0980F9770887FDD
:10497000953008F4892B8093CC028091CC0287700B
:10498000BFEF8B9FC00111249595879595958795CD
:104990009927909389008093880090938B0080934F
:1049A0008A0090938D0080938C004091CC025091AE
:1049B000CD026091CE027091CF028FE090E00E9414
:1049C000F1366091DE027091DF028091E0029091F9
:1049D000E1020E944F17C40197558F3F910511F0D6
:1049E00008F026C2209118013091190128173907C3
:1049F00024F49093190180931801D30112962C91FD
:104A0000129736E1389F7001399FF00C112487010D
:104A1000055D1E4FF801208B12969C91868199238B
:104A200009F4F9C1928681868F5F86830E94A7165A
:104A3000D8011E969C938E931D978091BD02179668
:104A40008C93179780912E0390914203892B18968F
:104A50008C931897ED91FC911197309739F05496FB
:104A60006D917C91C7018F5C9E4F099590922D03AB
:104A700080922C0380912B03882309F4A2C2009119
:104A800042031091BD020E94A7168854944F909340
:104A9000020380930103F3018281882309F491C208
:104AA000102B1D7909F06CC28114F5E59F0608F002
:104AB0004CC2811423E5920608F0E2C1811430E56E
:104AC000930608F0D8C1811480E4980608F05BC210
:104AD00096EE8916910409F4D3C1C4015AC2EAEBD7
:104AE0008E16EDE59E0609F4FBC008F068C023EBC6
:104AF00082162DE5920609F4C7C0A8F580EB88164A
:104B00008DE5980609F46CC198F4A1EE8A1691041B
:104B100009F472C1B1E08B16B8E59B0609F05BCFD2
:104B2000F3018581807F09F472C110922A0253CF6C
:104B3000E1EB8E16EDE59E0609F44AC1F2EB8F1605
:104B4000FDE59F0609F047CFD30112968C9188238B
:104B500009F409CC88E394E00E94381E81E090E0DB
:104B60000E94E21E00CC26EB82162DE5920609F487
:104B70009EC0A0F484EB88168DE5980609F48CC0DD
:104B800095EB89169DE5990609F025CFF301828101
:104B9000882309F420CF8AEF93E086C0D3011296D0
:104BA0008C91B8EB8B16BDE59B0609F48DC008F01F
:104BB00091C0882309F40FCF82EC93E075C0F1EC2B
:104BC0008F16FDE59F0609F4B1C068F53DEB83162D
:104BD0003DE5930609F495C0A0F49BEB89169DE58D
:104BE000990609F485C0ACEB8A16ADE59A0609F082
:104BF000F2CEF3018281882309F4B5CB80E893E0FB
:104C0000ABCFF3018281FFEB8F16FDE59F0609F420
:104C100081C008F085C0882309F4A5CB8EE493E019
:104C20000E94381EA0CB34EC83163DE5930609F4B0
:104C30008EC0A0F492EC89169DE5990609F47EC019
:104C4000A3EC8A16ADE59A0609F0C5CEF301828180
:104C5000882309F488CB86EC92E0E2CFB6EC8B1681
:104C6000BDE59B0609F498C008F47AC0F7EC8F16EE
:104C7000FDE59F0609F0AFCEF3018281882309F498
:104C800072CB88E792E068CFF3018281882309F430
:104C90006ACB8CE294E060CFD30112968C9188238A
:104CA00009F499CE82E194E00E94381E94CED3019B
:104CB00012968C91882309F456CB82EE93E00E94E1
:104CC000381E82E090E04CCF882309F44CCB8EEA6A
:104CD00093E0F5CF882309F47ECE8CE893E0E4CF0F
:104CE000F3018281882309F43ECB88E893E034CF36
:104CF000D30112968C91882309F435CB84E893E094
:104D00002BCFD30112968C91882309F42CCB8EE6FD
:104D100093E022CF882309F426CB8AE393E080CF67
:104D2000882309F420CB8AE193E07ACFF3018281D2
:104D3000882309F418CB8AEF92E072CFD301129640
:104D40008C91882309F40FCB86EE92E069CFD301D2
:104D500012968C91882309F406CB8EEA92E0FCCE61
:104D6000F3018281882309F4FECA80912C0281110B
:104D70000AC08AEA92E00E94381E81E080932C02E9
:104D80000E94110EF0CA86EA92E00E94381E10922C
:104D90002C020E94050EE7CAD30112968C9188233B
:104DA00009F4E1CA80910A0190910B010D9769F411
:104DB00088E090E090930B0180930A010E9408170D
:104DC00080910A010E940417CECA8DE090E0F2CFD4
:104DD000D30112968C91882309F4C5CA81E04CC195
:104DE000F3018281882309F4BECA80912B0291E0ED
:104DF000892780932B02B7CAD30112968C918823FE
:104E000009F48ECE10922C020E94050E89CE81E00C
:104E100080932A02E0CD882309F42CCE818988234F
:104E200009F428CEC7018F5C9E4F0E94021422CE47
:104E3000FEEA8F16FDE59F0609F01CCED3011296FF
:104E40008C91882309F48FCA80912B03882319F051
:104E50000E944C1488CA109242030E94980C0E942F
:104E6000A7168854944F909302038093010381E026
:104E700080932B0378CA8114A2E59A0608F02DCE00
:104E8000D30112968C91882309F4F7C31092720310
:104E9000BCE58B16BDE59B0609F475C108F0D8C0CA
:104EA0008114FCE59F0609F422C12FED82162CE542
:104EB000920609F45BC1F30182810081118188238C
:104EC00009F465C1C8010E94B60CF82E682FC8010C
:104ED0000E94340DB8018F2D0E94F50A0E94100B1C
:104EE0008C01A82ED3011296FC9012971596BC90B7
:104EF000B2943FE0B32280919C028770C1F0FF2002
:104F0000A9F0812F807F803421F080E2800F8830EB
:104F100070F080913D0382FF0AC082E00E94FF187A
:104F200080919C028770DD24D3948111D12CC12EF5
:104F3000C2942FE0C222BBE0BC1508F489C1EC2D5D
:104F4000F0E0E758F84C0C94C7348114B9E59B069F
:104F500060F48114E8E59E0608F092CFF4E18F1624
:104F6000F5E59F0609F0B9CD8BCFC40190568115A8
:104F7000904208F0B2CDD30115968C91807F39F420
:104F80000E944C141EC0F3018581807FD1F0C401C2
:104F9000992710922E038832910558F48E3191058D
:104FA00070F4049768F382E080932E030E948E13BE
:104FB00006C08D329105B9F3F0F48A9709F70E9483
:104FC0008E1324EF82162CE5920699F1D8F489ED20
:104FD00088168CE5980649F19AED89169CE59906A4
:104FE000A1F1A8ED8A16ACE59A0609F049CF26E2B0
:104FF00041EE61EE16C08C34910509F38D3292407A
:10500000F1F2BECFB6EF8B16BCE59B06D1F0A8F04F
:1050100027E245EE66EEF7EF8F16FCE59F0609F0F6
:105020002FCFC3010E94DB1D9EC927E245EE65EE2E
:10503000F8CF26E241EE60EEF4CF27E245EE64EED3
:10504000F0CF26E241EE62EEECCF28E241E0EFCF76
:105050003EE583163DE5930609F48BC008F495C040
:1050600099EA89169DE5990609F025CF0E94711CE1
:1050700081608093EB0386950E944B1774C94FE0C3
:1050800058E169E178E10E94EC086DC949E158E115
:105090006FE078E1F8CF47E353E16DE273E1F3CFDE
:1050A00043E153E160E273E1EECF49EF52E166E0A4
:1050B00073E1E9CF46E053E169EF72E1E4CF43E504
:1050C00053E161E473E1DFCF65E082E00E942418E0
:1050D0004AC968E086E0FACF64E18FE0F7CF67E184
:1050E00085E1F4CF62E289E1F1CF83E2C5CF10928E
:1050F00042030E946419AFEFB4E3ECE0A150B0406A
:10510000E040E1F700C00000F89481E08093E00007
:1051100080E28093D8001092C9008FE19EE401974D
:10512000F1F700C000001DBA109268001CBC10BE50
:105130001FBA10927A0010926E0010926F001092B7
:105140007100109272001092C9001092BC0014B845
:1051500017B81AB81DB810BA1092BC0015B818B814
:105160001BB81EB811BA0C94003FFDC80E94711400
:105170007DCF80913D0382FB882780F991E08927CC
:105180000E941B1998CE81E0FBCF80E0F9CFC801C7
:105190000E94FF0CF82E9ECEE12FEF70EE2E107FB6
:1051A00019F0E29490EFE922FF20B9F0EE2069F0C7
:1051B00080E2800F883010F0A11009C08091420376
:1051C000E82AE09242030E948E13802F3FC0809114
:1051D0002E03E82AE0922E03F6CF802F0E94891C2E
:1051E000EE20B1F1005E8E2D083010F0A11003C04A
:1051F0000E94A50C02C00E949E0C0E948E1328C023
:10520000F12FFF70EF2E107F103219F0E29480EF33
:10521000E822AA2059F021E0A21609F473C0FF2069
:1052200009F47BC0BB2009F473C0CFCF20913D03AC
:1052300022FD45C0FF20E1F1EE2039F080914203CC
:10524000E82AE09242030E948E1380E00E941A1D19
:10525000AC2DA850BB0B149710F40E94DF08DD2082
:10526000A9F080919C0280FD11C0F3011282859506
:10527000859585950E943719C3010E94BF208091B2
:105280009C028595859585950E94DB1885E0F30144
:10529000DE01119601900D928A95E1F709811A813C
:1052A000C8010E94FF0CB8010E94F50A0C94D52099
:1052B00080E00E94891CEE2059F28E2D99CFFF20AC
:1052C000A1F09091BD028E2D892BB11003C00E94D8
:1052D0006714BECF31E0B312FACF22FFB9CF8917DE
:1052E00009F4B6CF8093BD02B3CFB11006C00E94BF
:1052F000980C8E2D0E946014ABCF81E0B81609F493
:10530000A7CFF5CFFF2031F091E09B1508F4A0CF97
:105310008E2DDDCFB1109CCFECCFBB2051F3A9E394
:10532000AA1209C0BFEFE7EEF3E0B150E040F04051
:10533000E1F700C00000802F0E94891C89CF812FD7
:1053400086958695837061F0813009F081CFC80120
:105350009370F11002C090E080E00E94B30878CF13
:10536000C8019370F11002C090E080E00E94C9086B
:105370006FCF802FFF2029F00E94560A0E94331819
:1053800067CF0E949909FACF812F837009F066C018
:10539000F1105ECF802F829586958770880F880FD9
:1053A000602F6F70862E912CB12CA12C082E04C07A
:1053B000880C991CAA1CBB1C0A94D2F740E050E050
:1053C000BA0104FF0FC04FE050E060E070E004C09D
:1053D000440F551F661F771F8A95D2F74095509549
:1053E00060957095812F869586958370823019F12E
:1053F000D8F40091BE021091BF022091C0023091FA
:10540000C102813069F0482959296A297B29CB01D9
:10541000BA0160237123822393230E94591918CF64
:10542000802A912AA22AB32ACB01BA0168297929B4
:105430008A299B29F2CF482959296A297B29009179
:10544000BE021091BF022091C0023091C102CB0177
:10545000BA016027712782279327DFCF8695FF2027
:1054600011F0812F8170882309F4F2CE802F82956C
:1054700086958770880F880F602F6F70862E912C0D
:10548000B12CA12C082E04C0880C991CAA1CBB1C92
:105490000A94D2F740E050E0BA0104FF0FC04FE099
:1054A00050E060E070E004C0440F551F661F771F96
:1054B0008A95D2F74095509560957095812F869585
:1054C00086958370823019F1D8F40091DE02109134
:1054D000DF022091E0023091E102813069F0482939
:1054E00059296A297B29CB01BA01602371238223C0
:1054F00093230E947618ACCE802A912AA22AB32A3E
:10550000CB01BA01682979298A299B29F2CF482938
:1055100059296A297B290091DE021091DF0220912E
:10552000E0023091E102CB01BA01602771278227A6
:105530009327DFCF1F70FF2029F0812F0E9437199A
:10554000802FC5CE802F0E946014812F0E94DB180F
:105550007FCE802F22EFA21669F12A1570F030EF6E
:10556000A316D1F091EFA91691F0FF2009F45AC0CB
:10557000B1102BCE812F8F7121C0A3EFAA1609F194
:10558000B4EFAB12F2CF80913D0382FD2DC0812F8D
:105590008F71FF20D9F212C0FF2039F0B11058CE20
:1055A000812F8F710E94B91853CEE1E0EB1508F4FA
:1055B0004FCEF6CF812F8F71F110C8CF0E943719CF
:1055C00047CE60E070E0CB01FF2009F492CF1F715D
:1055D00061E070E080E090E004C0660F771F881FF4
:1055E000991F1A95D2F785CFFF2089F01F71812F5F
:1055F0000E94371980913D0382FF07C0F8E01F9F8A
:10560000C0011124836080939C02812FD7CF81E059
:105610000E94FF1821E02B1508F01ACE82E00E94AC
:10562000FF1816CEBB2059F0893309F084CE3FEF26
:1056300087EE93E0315080409040E1F77ACE812FA1
:105640008F7184CF83E089831092F1030C946521DC
:1056500085E0F301DE01119601900D928A95E1F744
:10566000D30112962C9189819A8121110C94D92011
:105670000E94FF0C182F0C94E1208091420382724B
:10568000BDEC8B16BCE59B0609F419CD08F056C09D
:10569000F7EC8F16FCE59F0609F4FDCC30F534ECF1
:1056A00083163CE5930609F4EACC70F4A3EC8A1661
:1056B000ACE59A0609F0FFCB8091EB0380FFD8CCD4
:1056C0000E9465130C94B321B5EC8B16BCE59B06C8
:1056D00009F4DCCC4DE253E167E373E1E6EC8E16AE
:1056E000ECE59E0609F4CFCCE6CBFAEC8F16FCE590
:1056F0009F0609F4DACC88F438EC83163CE593066F
:1057000009F4CECC40E253E163E173E199EC8916F0
:105710009CE5990609F4B7CCCECBABEC8A16ACE588
:105720009A0609F4C7CC41E453E163E573E1BCECAC
:105730008B16BCE59B0609F4A6CCBDCBE2ED8E161C
:10574000ECE59E0609F4C8CCB8F42FEC82162CE5E3
:10575000920609F4B9CC08F441CB80ED88168CE5AB
:10576000980609F4B6CC6EE089E091ED89169CE5C7
:10577000990609F4ABCC9FCBA5ED8A16ACE59A0649
:1057800009F4B0CC70F4E3ED8E16ECE59E0609F456
:10579000A6CC88E1F4ED8F16FCE59F0609F46CCCED
:1057A0008ACB26ED82162CE5920609F49ECC3FE5C5
:1057B00083163DE5930611F40C94B3217CCB1F9323
:1057C000CF93DF9380916902807F09F049C0809177
:1057D0006602882309F444C080919B02D0916A023A
:1057E0006091640270916502A0916702B0916802B5
:1057F000C62FC72316E0D81799F190E0109711F043
:10580000CF3F19F401968770F6CF189F9001199F2A
:10581000300D1124F901E559FD4F41814713F2CFB5
:1058200040814613EFCF42814111ECCF4381548137
:105830004A1B5B0B4D37510528F7809169028F7029
:10584000806180936902F901E059FD4F80818F707A
:105850008061808384E692E00E94BF200E94AC0CAD
:10586000DF91CF911F910895A1E1B0E0EAE3FCE25E
:105870000C9476348C0185E0F801DE011D960190D0
:105880000D928A95E1F7F801E28084E6A82E82E085
:10589000B82E60916702709168026115710509F474
:1058A00026C19091640240916502892F84238F3F25
:1058B00009F41DC120813181C380D480F09066023B
:1058C000F601E61BF70BFF2009F4DCC080916902AA
:1058D000582F507FED37F10508F09FC051116BC074
:1058E000FE2C431314C0921312C0E11010C08F702D
:1058F000806180936902C5010E94BF208091690286
:10590000F80185838F2D6196EAE00C949234C114DE
:10591000D10429F0822F83238F3F09F003C180E057
:10592000F82FF170DF2E80FF3CC080919B024091E8
:105930006A0256E0841315C02D873E878D859E85AB
:105940000E94F20C292F22952F702230F0F0243083
:1059500018F59F70F1F0F8019581907FD1F4D12C6A
:105960001EC090E0589FF001599FF00D1124E55999
:10597000FD4F6181361306C06081261303C062812A
:10598000E6120FC001968770D5CF9F7011F0882363
:1059900031F3805E883018F3C8010E94BF20FD2CCF
:1059A000B1CFEE2009F4AECF80916902816080937F
:1059B0006902F12CA7CF431306C0921304C0F8016B
:1059C000EE2009F479C0C8010E946C0D882309F10A
:1059D000EE20F9F080916902803270F0209164022B
:1059E0003091650238872F831986DB86CA868C87BB
:1059F000CE0107960E94BF2086E0F801A4E6B2E03F
:105A000001900D928A95E1F70E94DF2BFF24F39419
:105A100079CFC8010E94BF20F9CF51110AC084E696
:105A200092E00E94BF2086E0F50111928A95E9F785
:105A3000C0CF43130FC092130DC0E1100BC0F8018B
:105A40008583C8010E94BF2086E0F50111928A95E6
:105A5000E9F758CFC8010E946C0D8823D1F2EE20DF
:105A6000C1F280916902803238F220916402309153
:105A700065023A8329831B82DD82CC828E83CE012C
:105A80000196B8CFED37F105F8F6FE2CEE2009F2BD
:105A900043131FC092131DC08091690280FD10C086
:105AA000982F907F69F0F8018583903F31F0982F0F
:105AB000907F905F8F70892B8583C8010E94BF20E3
:105AC00086E0F801A4E6B2E001900D928A95E1F734
:105AD00019CFC8010E946C0D81118ECF809169028F
