:100000000C94DF050C94FC050C94FC050C94FC0589
:100010000C94FC050C94FC050C94FC050C94FC055C
:100020000C94FC050C94FC050C94CA140C94541B01
:100030000C945F2B0C94FC050C94FC050C94FC05B3
:100040000C94FC050C94FC050C94FC050C94FC052C
:100050000C94FC050C94A3150C94FC050C94FC0565
:100060000C94FC050C94FC050C94FC050C94FC050C
:100070000C94FC050C94FC050C94FC050C94FC05FC
:100080000C94FC050C94FC050C94FC050C94FC05EC
:100090000C94FC050C94FC050C94FC050C94FC05DC
:1000A0000C94FC050C94FC050C94FC05050109025C
:1000B000A10185020901A1000509190129081500FE
:1000C0002501950875018102050109300931158165
:1000D000257F95027508810609381581257F9501D0
:1000E00075088106050C0A38021581257F95017572
:1000F000088106C0C005010980A101850319012AF4
:10010000B700150126B700950175108100C0050CD8
:100110000901A101850419012AA002150126A002E6
:10012000950175108100C005010906A1018506052C
:100130000719E029E71500250195087501810205D9
:1001400007190029EF1500250195F07501810205B9
:10015000081901290595057501910295017503910D
:1001600001C00660FF0961A1010962150026FF00B8
:100170009520750881020963150026FF00952075FA
:10018000089102C005010906A101050719E029E748
:1001900015002501950875018102950175088101F9
:1001A0000507190029FF150026FF0095067508812F
:1001B000000508190129059505750191029501753C
:1001C000039101C0000000000000000000000000DA
:1001D000000000000000000000000000000000001F
:1001E00000000000000000007E0F00D4FFFFFFC7EA
:1001F0000000007800000000000000002A2B28000A
:1002000000000000000000000000000000000029C5
:10021000000000002C1E3420212224342627252E05
:10022000362D3738271E1F2021222324252633333D
:10023000362E37381F0405060708090A0B0C0D0E69
:100240000F101112131415161718191A1B1C1D2F35
:100250003130232D350405060708090A0B0C0D0E55
:100260000F101112131415161718191A1B1C1D2F15
:100270003130354C0103E1000102E1000102E101EE
:10028000011F0103E1010436307C0102E101011F7D
:100290000103E1010436307C010150000101340109
:1002A0000436307C010134010436307C01015000F9
:1002B0000102E10101360103E1010436307C010253
:1002C000E10101370103E1010436307C01015000F6
:1002D0000102E101012F0103E1010436307C01023A
:1002E000E10101300103E1010436307C01015000DD
:1002F00001012F010436307C010130010436307CCD
:10030000010150000102E10101260103E10104366F
:10031000307C0102E10101270103E1010436307C58
:10032000010150000102E101014F0103E101043626
:10033000307C0102E001011B0103E0010436307C46
:1003400001014F010436307C0102E0010119010373
:10035000E00001014C0001014A010436307C010239
:10036000E101014D0103E1010436307C0102E001AD
:1003700001060103E00001014D010436307C01015A
:1003800028010436307C0102E00101190103E0007C
:1003900001014D010436307C010128000102E10118
:1003A000014D0103E1010436307C01014C000102E2
:1003B000E101014A0103E1010436307C01014C00F6
:1003C00001014A010436307C0102E101014D0103C3
:1003D000E1010436307C01014C0001014D000101B6
:1003E0004A002B042B012900E100E00000001E0060
:1003F000140004001D00640036021F001A001600DD
:100400001B0035002B002000080007000600E2005A
:100410002C00210015000900190001582F022200AC
:1004200017000A0005000000260223004600000015
:10043000B05D00002F002400AE5D000014500000ED
:10044000300025001C000B001100000027022600D0
:1004500018000D0010000258300227000C000E009A
:10046000360034002A002D0012000F0037001F0252
:1004700028002E00130033003800320037022B060C
:100480000007E300E1004C0000000100AC00105048
:100490000100010000003A00B55DB35D01000100FC
:1004A000BF5D3B004F01BA5DBB5D010001003C0038
:1004B0000F014C01B65D010001003D001C0101006F
:1004C000C25D0100BE5D3E0001004D015001000013
:1004D000BC5D3F000100000001000000BD5D400068
:1004E0000100000001000000010041000601500071
:1004F00001000000010042001D01510001000358ED
:1005000001004300B25D52000100C05D2A014400B9
:10051000B75D4F000100C15D010045001901AE004B
:100520000901C35D01000100AB0001000100C35CD3
:1005300000000100AC001050010001000000680044
:100540002B034D00FD0001004E00690001002B014E
:10055000FE00010050096A002B01B45DFF0001009C
:10056000F1006B0001002B034900035801006C00EF
:1005700001004A0101000000FB006D00160A0000A6
:1005800001000000FA006E00010000000100000000
:10059000F9006F00B95DEF0001000000FC00700081
:1005A0000100EE00010001000100A8004A00ED007A
:1005B00001000100F200AA000100F00001000100AA
:1005C0004F09A900B85DAE000901C35D4B000100F1
:1005D000AB0001000100C35C0000C75CC95C1050A7
:1005E00001000100000001005F005C0059000100F3
:1005F0000100010060005D005A00010001000100DF
:1006000061005E005B00010001000100010062006A
:1006100001000100010001000100010001000000D3
:1006200001000100010000000100000001000100C4
:1006300001000000010000000100010001000100B4
:100640000100000001000100010053000100010051
:10065000010001000100290001000100010001006A
:100660000100010001000100010001000100C45C63
:100670000100AF5D0100C65CC85C1550CC5CCD5C70
:100680000000010001000100010001000000010064
:100690000100010001000100010001000100010052
:1006A000010001002800010001000100010001001B
:1006B0002B0001000100010001002C0001000100DD
:1006C0000100010001000000010001000100000024
:1006D00001000000010001000100000010500000B6
:1006E0000100010001000100010000000100010003
:1006F00001000100010001000100010001000100F2
:1007000001000100010001000100010001000100E1
:1007100001000100010001000100010001000100D1
:1007200001000100010001000000000000000000C5
:1007300000000000000000000000000000000000B9
:1007400000000000000000000000000000000000A9
:100750000000000000000000000000000000000099
:100760000000000000000000000000000000000089
:100770000000000000000000000000000000000079
:100780000000000000000000000000000000000069
:100790000000000000000000000000000000000059
:1007A0000000000000000000000000000000000049
:1007B0000000000000000000000000000000000039
:1007C0000000000000000000000010500000005C6D
:1007D000000000047F3F1F643214643214783C1E12
:1007E0001E140A05000101010101010101010202BB
:1007F00002020202020202030303030303030304CF
:100800000404040404040505050505060606060699
:10081000070707070708080808090909090A0A0A53
:100820000B0B0B0C0C0C0D0D0D0E0E0E0F0F0F10F5
:10083000101111111212131314141515161617177F
:10084000181819191A1A1B1B1C1D1D1E1E1F2020EB
:10085000212222232424252626272829292A2B2C35
:100860002D2D2E2F30313232333435363738393A58
:100870003B3C3D3E3F404142434445464748494A50
:100880004C4D4E4F50515354555658595A5B5D5E1E
:100890005F616264656668696B6C6D6F70727375B9
:1008A00077787A7B7D7E8082838587888A8C8E8F1D
:1008B00091939596989A9C9EA0A2A3A5A7A9ABAD4B
:1008C000AFB1B3B5B7BABCBEC0C2C4C6C9CBCDCF39
:1008D000D1D4D6D8DBDDDFE2E4E7E9EBEEF0F3F5E7
:1008E000F8FAFDFFFFAA7F55402223252628292A52
:1008F0002C2D2F3032333536383A3B3D3E40424383
:100900004547494A4C4E5051535557595A5C5E60C1
:1009100062646668696B6D6F71737577797B7D7FD3
:1009200081838587898A8C8E90929496989A9C9ED2
:100930009FA1A3A5A7A8AAACAEAFB1B3B4B6B8B9EE
:10094000BBBCBEBFC1C2C3C5C6C7C9CACBCCCDCE56
:10095000D0D1D2D2D3D4D5D6D7D7D8D9D9DADADB39
:10096000DBDBDCDCDCDCDCDDDDDDDDDCDCDCDCDCC5
:10097000DBDBDBDADAD9D9D8D7D7D6D5D4D3D2D204
:10098000D1D0CECDCCCBCAC9C7C6C5C3C2C1BFBEEC
:10099000BCBBB9B8B6B4B3B1AFAEACAAA8A7A5A357
:1009A000A19F9E9C9A98969492908E8C8A89878516
:1009B00083817F7D7B79777573716F6D6B696866F5
:1009C0006462605E5C5A5957555351504E4C4A49C7
:1009D00047454342403E3D3B3A3836353332302F6F
:1009E0002D2C2A2928262523220A00000000000396
:1009F00006B200080001000000A800080002000381
:100A000000A0001400030057494E55534200000057
:100A1000000000000000008400040007002A0044D9
:100A2000006500760069006300650049006E00748F
:100A300000650072006600610063006500470055B4
:100A400000490044007300000050007B003900445E
:100A5000004200370046003100460044002D0037B8
:100A6000004500370041002D0034003000300038D0
:100A7000002D0039003300360042002D00360042C0
:100A8000004100360043003100390041003300309E
:100A900000380063007D00000000000E0301646F59
:100AA00063732E716D6B2E666D0009027200040176
:100AB00000A0FA090400000103010100092111014D
:100AC000000122400007058103080001090401001C
:100AD0000203000000092111010001222200070584
:100AE000820320000107050303200001090402001E
:100AF000010300000009211101000122B6000705D1
:100B000084032000010904030002FF000000070520
:100B10008503400005070506034000051201100289
:100B2000000000089732754901000102000122030C
:100B30004500720067006F0044006F0078002000DD
:100B400045005A0020005300680069006E006500EF
:100B5000000028035A0053004100200054006500A3
:100B6000630068006E006F006C006F006700790022
:100B700020004C00610062007300000004030904BF
:100B8000050F3900021C100500DF60DDD88945C75C
:100B90004C9CD2659D9E648A9F00000306B200456E
:100BA000001810050038B60834A909A0478BFDA02D
:100BB000768815B665000142000103E100001124AA
:100BC0001FBECFEFDAE0DEBFCDBF23E0ACE9B1E07E
:100BD00001C01D92AA3AB207E1F711E0A0E0B1E02E
:100BE000E4E0F9E602C005900D92AC39B107D9F7FF
:100BF0000E94862B0C9463340C940000E8EDF0E026
:100C000080818E7F80831092E2001092DA00109231
:100C1000E100A0EEB0E08C9181608C9380818F77B1
:100C2000808319BCA7EDB0E08C918E7F8C9380817E
:100C30008F7E80831092F30208952091E40030911A
:100C4000E50095E6A9012091EC00822F817020FF3C
:100C500006C08091E80080FF06C080E008952091E2
:100C6000E80022FD1AC08091A503882389F0853011
:100C700089F08091EB0085FD0FC02091E400309158
:100C8000E50042175307F9F29150E1F684E0089528
:100C900082E0089583E0089581E00895EF92FF9245
:100CA0000F931F93CF937C018B010E941D06C82FC9
:100CB000882371F08C2FCF911F910F91FF90EF90AF
:100CC0000895F70181917F018093F100015011098E
:100CD0000115110579F38091E80085FDF2CF80912F
:100CE000E8008E778093E8000E941D06882381F338
:100CF000C82FE0CFCF93FC018091A503843031F55C
:100D0000C091E900CF702091EC00922F917020FDEE
:100D100090E8C92B82E08093E9008091E80080FF91
:100D200012C050E040E060E270E0CF010E944E0649
:100D3000882321F01092A3031092A4038091E8006D
:100D40008E778093E800CF70C093E900CF9108952B
:100D5000EF92FF920F931F93CF937C018B010E9420
:100D60001D06C82F811117C08091E80085FD0BC0BA
:100D70008091E8008B778093E8000E941D0688230D
:100D800099F3C82F08C08091F100F70181937F018A
:100D90000150110949F78C2FCF911F910F91FF90AE
:100DA000EF90089580911A0387FF13C08091E800A7
:100DB00082FF06C08091E8008B778093E80004C032
:100DC0008091A5038111F2CF08958091A503882316
:100DD000D9F38091E80080FFF8CF8091E8008E770A
:100DE000ECCF982F9093E900242F762F50E08917AD
:100DF00031F07091EC002091ED005091F00021FD58
:100E000007C09F5F973071F78093E90081E00895F4
:100E10003091EB003E7F3093EB003091ED003D7F51
:100E20003093ED003091EB0031603093EB00709324
:100E3000EC002093ED005093F0002091EE0027FD90
:100E4000E0CF80E00895B0E0A0E0E9E2F7E00C94A4
:100E50007531C8EDD0E088818F7E8883E7EDF0E0C2
:100E600080818160808384E082BF81E08093F3028F
:100E700088818E7F888302EE10E0F8011082109244
:100E8000DA0081EEC82ED12CF601108288818F778E
:100E9000888388818068888388818F7D888319BC56
:100EA0001092A503109219031092180310921703C1
:100EB00090EEE92EF12CF70180818B7F8083888171
:100EC0008160888342E060E080E00E94F106F601E4
:100ED00080818E7F8083F801808181608083808122
:100EE00088608083F70180818E7F80838881806124
:100EF0008883CDB7DEB7E8E00C949131FC01809196
:100F000020039091210386179707A0F061157105C2
:100F100029F48091E8008E778093E80090E06115D5
:100F2000710551F4911108C08091E80082FF35C02D
:100F300080E00895BC01F2CF8091A5038823C9F118
:100F40008530C9F18091E80083FD31C08091E800CF
:100F500082FDEACF8091E80080FFE1CF8091F3002D
:100F60002091F200382F6115710519F028303105F4
:100F700058F091E02830310509F090E08091E800C8
:100F80008E778093E800CBCF84918093F1003196E7
:100F9000615071092F5F3F4FE6CF8091A5038823F1
:100FA00041F0853041F08091E80083FFBDCF81E0C2
:100FB000089582E0089583E00895FC018091200364
:100FC0009091210386179707A0F06115710529F408
:100FD0009091E8009E779093E80090E0611571058C
:100FE00051F4911108C08091E80082FF34C080E084
:100FF0000895BC01F2CF8091A5038823C1F185300B
:10100000C1F18091E80083FD30C08091E80082FD4D
:10101000EACF8091E80080FFE1CF8091F30020913A
:10102000F200382F6115710519F02830310558F09C
:1010300091E02830310509F090E02091E8002E770A
:101040002093E800CBCF81918093F100615071092A
:101050002F5F3F4FE7CF8091A503882341F0853074
:1010600041F08091E80083FFBECF81E0089582E0E7
:10107000089583E0089508958091F60208952091DF
:10108000A503243099F425E02093E90070E050E0B6
:1010900040E00E944E06882321F01092EC0210924C
:1010A000ED028091E8008E778093E800089520910A
:1010B00029012223C9F02091EE0227FF15C0E62F57
:1010C000E695E695E695EE31D8F4E80FF92FF11D97
:1010D000677021E030E001C0220F6A95EAF72095A1
:1010E0008281282322830895FC013296089621915B
:1010F000621303C0DF0111971C92E817F907B9F7D3
:1011000008952091E5023091E6022817390771F021
:101110009093E6028093E502E091E302F091E4020D
:10112000309721F00084F185E02D099508952091F4
:10113000E1023091E2022817390771F09093E20240
:101140008093E102E091E302F091E402309721F014
:101150000680F781E02D09950895E091E302F09172
:10116000E402309729F00190F081E02D099508956F
:1011700080E00895FA01811101C0FB0109950895ED
:10118000089580919E03982F9E7F29F4817082603C
:1011900080939E0308958A34E8F381708864F8CFC1
:1011A000AF92BF92DF92EF92FF920F931F93CF9374
:1011B000DF93082F162FE901E42FF0E0EC51F84FF0
:1011C000611111C0E4915E2F4E2F4983E8835A8349
:1011D0001B82DF91CF911F910F91FF90EF90DF90D5
:1011E000BF90AF900895E62EF12C4491D42EE42FB9
:1011F000F0E026E0829FC00111242FEF30E0B9011A
:101200000E945731802F90E0880F991F55E5569F17
:10121000D001579FB00D11248A1B9B0B982F990F5B
:10122000890F5901AE18BF08AE9ED001AF9EB00D18
:10123000BE9EB00D11245B2F189F80011124012F39
:1012400011275901A01AB10AAE9E8001AF9E100D60
:10125000BE9E100D11245901A81AB108AE9CC00100
:10126000AF9C900DBE9C900D1124892F9927281BAF
:10127000390B2E9FC0012F9F900D3E9F900D112482
:10128000E92F62307105A1F050F46115710509F480
:101290009CCF6130710581F0EB2F512F96CF6430D8
:1012A000710569F080F06630710509F48ECFF4CFD6
:1012B000E42F4B2F592F89CFE42F412F86CFEB2FCF
:1012C000542F492F82CF4B2F5D2DE12F7ECF4091A0
:1012D000CD028D3E59F48091CE0287FF0DC0109251
:1012E000CE0241110BC01092C50208C08E3E81F49F
:1012F0008091CE0218169CF3442381F08091CF0296
:101300009091D002892B09F05AC01092C40208951E
:101310008F3E49F447FFF0CF1092CD028091CE026C
:101320008111ECCFE0CF803F19F41416ACF3E4CF79
:101330009091CF02893F29F41916F4F61092CF024A
:10134000DBCF8A3F19F497FFD7CFF8CF9091D00227
:101350008B3F29F497FFD0CF1092D002CDCF8C3F96
:1013600019F41916CCF3C8CF9FE0980F983090F479
:10137000815F990B21E030E0B90102C0660F771F51
:101380008A95E2F7CB0180959091CC0289238093D6
:10139000CC02B2CF8D3F31F48091C6028E7F809314
:1013A000C602AACF8E3F21F48091C6028D7FF7CF6F
:1013B0008F3F09F0A1CF8091C6028B7FF0CF0895B7
:1013C0008091C60280FD1AC081FD14C082FD14C048
:1013D0008091C402882391F08C3370F425E0829FC1
:1013E000C00111246CE370E00E94B031862F672B9E
:1013F00029F0089582E0089585E0089581E0089538
:101400008091C60280FD16C081FD16C082FD18C005
:101410008091C502882391F08C3390F428E2829F5A
:10142000C00111246CE370E00E94B031862F672B5D
:1014300049F008958AE0089584E1089588E00895C8
:1014400088E2089581E008958D3E31F40E94000AFB
:1014500081958093CE0208958E3E19F40E94000A71
:10146000F8CF8F3E31F40E94000A81958093CD021F
:101470000895803F19F40E94000AF8CF893F29F4AB
:101480000E94E0098093CF0208958A3F21F40E94D0
:10149000E0098195F7CF8B3F31F40E94E0098195F7
:1014A0008093D00208958C3F19F40E94E009F8CF90
:1014B0009FE0980F983070F4815F990B21E030E045
:1014C00001C0220F8A95EAF78091CC02822B80938B
:1014D000CC0208958D3F31F48091C60281608093E3
:1014E000C60208958E3F21F48091C6028260F7CF34
:1014F0008F3FB9F78091C6028460F1CF80E00895F4
:101500009091EE0292FF06C0282F28712830F9F43E
:10151000877F846093FF06C0282F28712831F1F45B
:10152000877E84612091EF0220FF06C0382F38713A
:101530003830D9F4877F816021FF06C0282F2871B9
:101540002831D1F4877E816194FD877E0895282F0C
:1015500024712430F9F68B7F8860DCCF282F24712A
:10156000243101F78B7E8861DDCF382F3171313026
:1015700019F78E7F8860E0CF282F2171213121F764
:101580008E7E8861E1CF972F7E30A8F4663098F484
:1015900070E026E0929F600D711D1124FB0194E51F
:1015A000899FE00DF11D1124EE0FFF1FEE51FC4F3E
:1015B00085919491089580E090E00895CF93DF9312
:1015C000EC0182389105A9F1D8F58133910509F430
:1015D00096C048F58932910509F48AC08A9709F4C2
:1015E00095C0C11521E5D20708F0BCC0C11530E592
:1015F000D30708F014C1C83ED10508F09CC0C03E16
:10160000D10560F5C83AD10508F087C0C53AD105C3
:1016100008F0FDC0C130D10509F12097F9F0C430C0
:10162000D105E0F440C08533910509F45AC0C9974B
:10163000C1F68091EE02837089F0C0EED0E00EC05A
:10164000833E910599F170F4803E910501F1823E4F
:10165000910539F68091EE0282FD21C0CE01DF9125
:10166000CF910895863E910561F1873E910571F114
:10167000843E910509F0B5CF8091EF0281FFEECF56
:101680008091EE02C7EED0E084FD0DC0E7CF8091DF
:10169000EE0280FD12C19091EF0290FFDFCFC3EE0A
:1016A000D0E084FFDBCFD0E0C0E0D8CF8091EE0265
:1016B00082FD06C19091EF0290FDBFCF84FFCECF97
:1016C000F2CF8091EE0283FDDDCFC8CF8091EE0294
:1016D00083FDF9C09091EF0291FFF0CFC4EED0E00E
:1016E000BDCF8091EE0285FFB9CFC9E2D0E0B6CF81
:1016F0008091EE0285FFB2CFC5E3D0E0AFCF8091FD
:10170000EE0286FFABCFCAE2D0E0A8CF8091EE0216
:1017100086FFA4CFC1E3D0E0A1CFCF3BD10518F61F
:10172000C85AD0E0CC0FDD1FC75CDE4F0990D881CE
:10173000C02DD46493CFC11540E2D40758F4C1152D
:1017400081E0D80708F08ACFCD3ED10508F4ABCFB1
:10175000D06584CFC11590E4D90708F4A4CFDF7019
:10176000D06A7CCFC11525E5D20700F5C11534E557
:10177000D30708F08AC0C11543E5D40708F071C04B
:10178000C11582E5D80708F467C0CE018370992798
:1017900021E030E002C0220F331F8A95E2F7C695A0
:1017A000C69580E2C89FE001112452C0C11599E599
:1017B000D907A8F4C11528E5D20708F06BC0C115F8
:1017C00036E5D30708F06FCF8C2F0E94800AC82F10
:1017D000D0E0DC2FCC27CC27DF71D0623FCFC11502
:1017E0004AE5D40708F45BC0CE01905681159042BB
:1017F00008F059CF8D2F8F710E94800A90E0982FAA
:10180000882788279F719C012C2BE901E6CFC55AB8
:10181000D0E0CA5CDE4FC881D0E0D0641FCFCE01DB
:10182000E4E096958795EA95E1F783702C2F26954D
:101830002695237040E2249F90011124382B8C2F91
:101840008370C1E0D0E002C0CC0FDD1F8A95E2F7C3
:10185000C22BD32BDC6802CFDC2FCC27C16FD06A20
:10186000FDCECE018370992721E030E002C0220F27
:10187000331F8A95E2F7C695C69590E2C99FE001AD
:101880001124C22BD32BDA68E9CEDC2FCC27C46F0E
:10189000D06AE4CEDC2FCC27C06FD06ADFCE8C2F8D
:1018A0008F700E94800A34E0D695C7953A95E1F78B
:1018B000CF709C2FEC01D069D1CEC9E3D0E0CECE61
:1018C000C2EED0E0CBCEC6EED0E0C8CE80917102A1
:1018D000811110927102089580959091F4029823DD
:1018E0009093F402089580914F0290911E029813F4
:1018F00001C008958F5F8770FACFB0E0A0E0E3E801
:10190000FCE00C9474318C01C0909202D090930250
:10191000E0909402F090950280917202909173028F
:10192000A0917402B0917502C82AD92AEA2AFB2A2A
:10193000CFE1D0E0BC2ED701C6010C2E04C0B69575
:10194000A795979587950A94D2F780FD09C02197AE
:1019500088F7B12C8B2DCDB7DEB7E9E00C94903130
:10196000B8018C2F0E94C30A0E94DE0A019779F306
:10197000F1CFCF93DF93EC010E947D0CBE010E945A
:10198000C30A0E94DE0ADF91CF910895292F9E306D
:1019900080F5863070F590E036E0239F800D911D34
:1019A0001124682F677023E0969587952A95E1F7B3
:1019B00025E0289FF001299FF00D1124EF51FE4FE3
:1019C00050E040E080E0219130E0062E02C03695E4
:1019D00027950A94E2F721703327042E01C0220FC5
:1019E0000A94EAF7822B4F5F5F4F4530510559F754
:1019F000089580E00895292F9E30A0F5863090F557
:101A000090E036E0239F800D911D1124282F277030
:101A100041E001C0440F2A95EAF723E096958795A7
:101A20002A95E1F725E0289FF001299FF00D112468
:101A3000EF51FE4F30E020E070E05191DF0111974F
:101A4000CB01022E02C0969587950A94E2F7817029
:101A500081958527842385278C932F5F3F4F2530E1
:101A6000310559F70895FC01808191810E94B90CDC
:101A700092959F70963091F058F4925F9F709230DB
:101A800058F4803F19F030F4883E30F481E0089536
:101A90009A5FF4CF843FD1F380E00895883EB0F39D
:101AA000813FD1F7F3CFCF92DF92EF92FF926C019B
:101AB000EE24FF2420E0C114D104E104F10419F064
:101AC000C701B60120E1C72ED82EE92EFF24C1148C
:101AD000D104E104F10419F0285FC701B6016B01DC
:101AE0007C0154E0F694E794D794C7945A95D1F7C3
:101AF000C114D104E104F10419F02C5FC701B6014F
:101B00006B017C0142E0F694E794D794C7944A9520
:101B1000D1F7C114D104E104F10419F02E5FC7011B
:101B2000B6019695879577956795672B682B692BF6
:101B300009F02F5F822FFF90EF90DF90CF900895F4
:101B400027982F98089526982E98089525982D98CF
:101B5000089556985E980895279A2F9A0895269A80
:101B60002E9A0895259A2D9A0895209828982198BC
:101B7000299822982A9823982B9852985A985398E3
:101B80005B983E98469808958098889A8198899A9B
:101B900084988C9A85988D9A86988E9A87988F9A31
:101BA00008958093F0027093F2026093F1028091A5
:101BB000A5038430F9F48093E9008FEF9091E80059
:101BC000815095FD06C095ED9A95F1F700008111C1
:101BD000F5CF8091E80085FF0DC050E040E063E064
:101BE00070E080EF92E00E944E068091E8008E77D0
:101BF0008093E8000895BC0184E00E94D10D08950F
:101C0000BC0183E00E94D10D08959C0184E0809383
:101C1000E9009FEF8091E800915085FD06C085EDB9
:101C20008A95F1F700009111F5CF8091E80085FFCA
:101C30000CC050E040E066E070E0C9010E944E0632
:101C40008091E8008E778093E8000895CF93DF932A
:101C5000EC01809129018823B1F18091EE0287FF88
:101C600032C060E284E08093E9008FEF9091E80059
:101C7000815095FD06C095ED9A95F1F70000811110
:101C8000F5CF8091E80085FF1BC08091290170E0AD
:101C900050E040E0811104C050E040E068E070E0B6
:101CA000CE010E944E068091E8008E778093E80076
:101CB00080E2FE01A7EFB2E001900D928A95E1F774
:101CC000DF91CF91089568E081E0CDCFEF92FF9250
:101CD0000F931F93CF93DF930E94A90D0E94A60D2F
:101CE0000E94A30D0E94A00D88E8E82EF12C8FEF32
:101CF00090E0F701918380830AE810E0F801918376
:101D00008083CCE8D0E0998388830E94B20DFFEFF6
:101D100020E782E0F15020408040E1F700C0000061
:101D20000E94AF0D9FEFE0E7F2E09150E040F040FD
:101D3000E1F700C000000E94AC0D2FEF80E792E0B9
:101D4000215080409040E1F700C000000E94A60DA5
:101D5000EFEFF0E722E0E150F0402040E1F700C073
:101D600000000E94A30D8FEF90E7E2E081509040C9
:101D7000E040E1F700C000000E94A00D80918002C9
:101D80008770FFEF8F9FC0011124959587959595DA
:101D900087959927F70191838083F8019183808348
:101DA000998388830E94A90D0E94A60D0E94A30D0D
:101DB0000E94A00DCDB7DEB7E6E00C949331CF932F
:101DC000C82F873078F58091190190911A01892BDD
:101DD00039F564E670E080E40E94923090931A0135
:101DE00080931901892BD1F464E670E082E10E94AE
:101DF000003190931A0180931901892B79F481E0C5
:101E000090E001C0880FCA95EAF764E670E080951B
:101E10000E94003190931A01809319010E9453315E
:101E2000CF9108958A30B1F038F4883069F0893064
:101E300071F0209A2898F4CF8C3091F070F08D30AA
:101E4000C1F73E9A4698ECCF219A2998E9CF229A79
:101E50002A98E6CF239A2B98E3CF529A5A98E0CF4C
:101E6000539A5B98DDCF0F931F93CF93DF938091AD
:101E70009E0380FD0BC0E6E2F3E011821082128225
:101E80001382349653E0EE39F507B9F7E6E2F3E052
:101E9000928120813181892F291708F4822F3817E8
:101EA00008F4832F8383381B3183281B2083981BDE
:101EB0009283349683E0EE39F80751F78091D2028D
:101EC0008823D1F08091190190911A01892BA1F4F6
:101ED00080911801882381F064E670E084E80E9414
:101EE0009230CAE9D3E00EE513E0892B09F42FC044
:101EF000109218010E945331579A3BB13F772BB192
:101F000020684FB7F89486E293E0FC015191CF012D
:101F100068E02BB9000000C057FF3BB9550F000027
:101F200000C000C000C03BB900C06A9591F7F3E063
:101F30008E399F0751F74FBF8FE594E00197F1F776
:101F400000C00000DF91CF911F910F91089564E6CA
:101F500070E088810E94003164E670E089810E940F
:101F6000003164E670E08A810E94003164E670E02E
:101F70008B810E94003124970C171D0741F7BACFBF
:101F8000A4E0B0E0E6ECFFE00C947931162F042FCA
:101F900090919E0390FF22C09E012F5F3F4F4FEF15
:101FA0006FEF0E94D0081017C8F48B8199812A81A5
:101FB00034E0139FF0011124EA5DFC4F21839083EC
:101FC000828313821F5F34960113F8CF0E94330F70
:101FD0008FE99FE00197F1F700C000002496E4E04C
:101FE0000C949531EF92FF920F931F93CF93DF9351
:101FF0008C01C6E2D3E0F12CE12CF80194816091D0
:10200000A00380919F03FFE0EF16F104ECF4992305
:10201000E9F09E014091A1030E94D0082FEFE21A3F
:10202000F20A24968EE1E816F10439F70E94330F84
:10203000F801848190E00196817099278483CDB75F
:10204000DEB7E6E00C949331992319F39E0140E04A
:10205000E3CFB0E0A0E0EFE2F0E10C947131EC01ED
:102060004C81042F10E09801D8010E9454349B0148
:10207000AC010E941F344B015C01E0E2F0E0E01B88
:10208000F10BA5E5B0E0AC019B010E941F346B0190
:102090007C019F01DF010E94CA319B01AC010E94BB
:1020A0002A349B01AC01280D391D4A1D5B1DC70157
:1020B000B6010E943234F22E822F90E039E23F15B1
:1020C00098F143E0249F9001112435952795122F14
:1020D000109596E2C92E93E0D92E00E085E5E82E12
:1020E000EF188E2D01FD8F2D9601412F6091A003D9
:1020F0000E94D0080F5F54E0C50ED11C0E3189F745
:102100000E94330F9C8181E0992319F0903219F4D9
:102110008FEF8093280180912801890F8C83CDB7A0
:10212000DEB7ECE00C948D3125E530E0A901481BC9
:10213000590BCA019A01220F331F280F391F37FF8D
:10214000C4CF2F5F3F4FC1CF0F931F93CF93DF9328
:10215000C6E2D3E0FE01118210821282138234960D
:1021600083E0EE39F807B9F710E000E08091DD0276
:10217000082E000C990B081719078CF18091270184
:10218000082E000C990B801791074CF19E0140918D
:10219000A1036091A00380919F030E94D0080F5F6C
:1021A0001F4F24960E31110509F70E94330F8091BD
:1021B00026019091DD02980F9093DD022091270176
:1021C000280F20932701121614F49D311CF08195DD
:1021D00080932601DF91CF911F910F91089519826D
:1021E00018821A821B82DBCFB0E0A0E0EAEFF0E1B8
:1021F0000C947431FC018281DD24DA9480FD02C0EC
:10220000DD24D39406E213E0D0E0C0E02EE1B22E4C
:10221000F801118210821282138294E0E92EF12CCF
:10222000C12C8091DC028C0D8F31C4F16B2D0E948A
:10223000A231892F082E000C990B8C179D0791F461
:102240008091A1038E9DA0018F9D500D1124559565
:1022500047955595479598016091A00380919F03FC
:102260000E94D008CD0CF1E0EF1AF108D1F62196CA
:102270000C5F1F4FCE31D10559F60E94330F80916C
:10228000DC0291E0D91210C081110CC08DE1809365
:10229000DC02CDB7DEB7E9E00C94903187FFCACFFE
:1022A000825EC8CF8150F3CF90E00196BE010E94BC
:1022B000B031EDCFEF92FF921F93CF93DF93EC01FC
:1022C00086E2E82E83E0F82E10E08C8197014091A1
:1022D000A1036091A003810F0E94D008185F84E0E1
:1022E000E80EF11C103F89F70E94330F9A818C8110
:1022F00090FF08C08F5F8C83DF91CF911F91FF907B
:10230000EF9008958150F7CF90919E0390FF0DC0FC
:10231000E6E2F3E08183608342831382349693E0A4
:10232000EE39F907B9F70E94330F0895A4E0B0E041
:10233000ECE9F1E10C9479318C018091DE0281119C
:102340000AC09E012F5F3F4F4FEF6FEF0E94D008F2
:102350008A818093DE02F8016481613069F08091A6
:10236000DE0240E0662361F040E0623011F440910B
:10237000DE0280E060E004C06091DE0240E080E0C8
:102380000E948411F801848190E0019663E070E07E
:102390000E94B03184832496E4E00C949531A4E04B
:1023A000B0E0E5EDF1E10C947B3190919E0390FF5C
:1023B0000AC09E012F5F3F4F0E94D0084B81698168
:1023C0008A810E9484112496E2E00C949731CF9385
:1023D000DF93EC01EEE9F3E0438162818C810E949E
:1023E000CF118C818F5F8C83DF91CF910895CF9334
:1023F000DF93EC01EC81F0E0E751F74F4491EEE917
:10240000F3E0628181810E94CF118C818F5F8C8388
:10241000DF91CF910895CF92DF92EF92FF926B01FF
:102420007C010E94C108B701A60188E090E00E94EB
:10243000EE33FF90EF90DF90CF900895A4E0B0E0EE
:10244000E4E2F2E10C946E31F82E762EE42E622E48
:1024500090919E0390FF29C0E92FE695AE2FB0E042
:10246000A959BE4F8C918093D9029E7F923009F575
:102470009E012F5F3F4F8F2D0E94D0084B816981B5
:102480008A810E948411F0929F037092A003E092CF
:10249000A103662051F060919E0370919F0380918B
:1024A000A0039091A1030E940B122496EFE00C94DC
:1024B0008A31823019F4E090A103E5CF863019F417
:1024C000F0909F03E0CF8930D9F38931E1F6E951EB
:1024D0008E2F8170582EE695F0E0EC51F74FE49185
:1024E0000E2F10E086E2C82E83E0D82EB12CA12C4E
:1024F0009EE1892E912CC501B4010E9457318F2D88
:10250000511013C0860F96014E2D672D0E94D008E2
:10251000A00EB11E84E0C80ED11C8EE9C81683E05F
:10252000D80649F70E94330FAECF861BECCFEEE9F9
:10253000F3E0438125E0421B08F440E021E06281A2
:1025400081810E941E120895EEE9F3E0438125E0A7
:10255000420F08F44FEF21E0628181810E941E1238
:102560000895EEE9F3E0628125E0621B08F460E083
:1025700021E0438181810E941E120895EEE9F3E07B
:10258000628125E0620F08F46FEF21E043818181D1
:102590000E941E120895EEE9F3E0818121E043815B
:1025A000628185500E941E120895EEE9F3E0818158
:1025B00021E0438162818B5F0E941E120895809109
:1025C000A203882319F081508093A20360919E0397
:1025D00070919F038091A0039091A1030E940B1220
:1025E00008958091A203833018F48F5F8093A20333
:1025F00060919E0370919F038091A0039091A1032D
:102600000E940B120895EEE9F3E080818E7F8083B3
:1026100060817181828193810E940B121092DA0293
:102620002FEF80E792E0215080409040E1F700C01A
:1026300000000E94330F0895EEE9F3E083E0808309
:1026400011828FEF82838383148260817181828102
:1026500093810E940B1208958091F4029091DF0201
:10266000892B80939E01909171029923A1F0892B6F
:1026700080939E01809129018823E1F18091EE02EF
:1026800087FF38C08EE1E0EAF1E090E08150A0F5EC
:1026900091110E94660C40E250E061E572E08EE923
:1026A00091E00E949B33892B21F180E2EEE9F1E079
:1026B000A1E5B2E001900D928A95E1F7E091E30285
:1026C000F091E4023097A9F080912901882359F014
:1026D0008091EE0287FF07C080919E0180939F0149
:1026E00086E080939E010280F381E02D8EE991E0E7
:1026F0000995089586E0C7CF2191222339F29F5F83
:10270000C5CF8091E002882349F08091DF028D7D62
:102710008093DF020E942C131092E0020895882318
:1027200021F00E946C0C0E942C130895882339F02C
:102730009091F402982B9093F4020E942C13089528
:1027400068EE7EEF90E080E00E94FA3360E082E085
:1027500090E00E94DC3360E083E090E00E94DC3394
:10276000109272021092730210927402109275020B
:1027700060E084E090E00E94DC3364E082E290E07C
:102780000E94DC3360E085E090E00E94DC3360E092
:1027900086E090E00E94DC336FEF87E090E00E94DB
:1027A000DC3340E050E0BA0188E090E00E94EE3374
:1027B00060E08DE090E00E94DC3340E050E0BA0140
:1027C00088E190E00E94EE3360E087E190E00E94B3
:1027D000DC3340E050E0BA018CE190E00E94EE333F
:1027E00070E060E080E290E00E94FA3340E050E068
:1027F000BA0188E190E00E94EE33109280021092BC
:102800008102109282021092830284E080938002FF
:102810004091800250918102609182027091830206
:102820008FE090E00E94EE3340E050E0BA0183E197
:1028300090E00E94EE33089580E290E090931A01B8
:10284000809319018091D20281110EC00E948C30B8
:1028500081E08093D2022FEF83ED90E321508040FE
:102860009040E1F700C0000064E670E080E40E9460
:10287000923090931A0180931901892B09F04EC070
:1028800064E670E080E00E94003190931A0180932A
:102890001901892B09F042C064E670E080E00E94D3
:1028A000003190931A0180931901892BB9F564E6E0
:1028B00070E08FE30E94003190931A018093190118
:1028C000892B61F50E94533164E670E080E40E9438
:1028D000923090931A0180931901892BF9F464E6E0
:1028E00070E08CE00E94003190931A0180931901EE
:1028F000892BA1F464E670E080E00E94003190939F
:102900001A0180931901892B49F464E670E08FE382
:102910000E94003190931A01809319010E94533153
:10292000809119010895CF93873050F58091190156
:1029300090911A01C0E0892B71F464E670E081E4A3
:102940000E94923090931A0180931901892B31F0E3
:10295000C0E00E9453318C2FCF91089584E690E01F
:102960000E942F3197FF05C090931A01809319019F
:10297000EFCFC82FC09510921A0110921901E9CF1C
:10298000CFB18FB1869586958C73C3708C2BC82F71
:10299000C095E1CF1F920F920FB60F9211242F9383
:1029A0003F934F935F936F937F938F939F93AF93D7
:1029B000BF93EF93FF938091E10082FF09C0809164
:1029C000E20082FF05C08091E1008B7F8093E100EF
:1029D0008091DA0080FF24C08091D80080FF20C061
:1029E0008091DA008E7F8093DA008091D90080FF99
:1029F0009DC080E189BD82E189BD09B400FEFDCFA3
:102A000081E08093A5038091F302811109C00E94A7
:102A1000FE050E9423078091E20084608093E2001B
:102A20008091E10080FF17C08091E20080FF13C019
:102A30008091E2008E7F8093E2008091E2008061CD
:102A40008093E2008091D80080628093D80019BC06
:102A500085E08093A5038091E10084FF2BC08091E5
:102A6000E20084FF27C080E189BD82E189BD89B58C
:102A7000982F917080FFFBCF8091D8008F7D80933D
:102A8000D8008091E1008F7E8093E1008091E20088
:102A90008F7E8093E2008091E20081608093E2006B
:102AA00080911903882309F447C084E08093A5032B
:102AB0008091A5038091E10083FF27C08091E2000F
:102AC00083FF23C08091E100877F8093E10082E053
:102AD0008093A503109219038091E1008E7F80936B
:102AE000E1008091E2008E7F8093E2008091E2001D
:102AF00080618093E20042E060E080E00E94F106A5
:102B00008091F00088608093F000FF91EF91BF9179
:102B1000AF919F918F917F916F915F914F913F9175
:102B20002F910F900FBE0F901F90189519BC109207
:102B3000A5031092F30274CF8091E30087FD93E028
:102B40009093A503B5CF78941F921FB61F921124BE
:102B50008F939F93AF93BF938091E8029091E90286
:102B6000A091EA02B091EB020196A11DB11D8093E4
:102B7000E8029093E902A093EA02B093EB02BF91BE
:102B8000AF919F918F911F901FBE1F9018959C0130
:102B90004FB7F8948091E8029091E902A091EA027F
:102BA000B091EB024FBF821B930B08952FB7F8949F
:102BB0008091E8029091E902A091EA02B091EB02C3
:102BC0002FBF089560919E03669570E04BE050E042
:102BD0008BE191E00E948E33892B19F481E0809380
:102BE000DA020E94D6159093D4028093D3020895FE
:102BF00090919E0390FF2CC0917081112AC0926029
:102C000090939E03662351F060919E0370919F0301
:102C10008091A0039091A1030E940B1260919E03EA
:102C2000669570E04BE050E08BE191E00E948E33BE
:102C3000892BB1F01092DA0281E08093D60220E075
:102C40004091A1036091A00380919F030E941E12F6
:102C50000895853210F09864D3CF880F982BD0CF89
:102C60000E94E215E9CF60E00E94F8150895EEE9B0
:102C7000F3E080818160808386950E9433160895F9
:102C80008091D102811135C090E080E00E94C6336E
:102C9000883E9E4F21F00E94A0130E941C1388E0E2
:102CA00090E00E94C03360939E0370939F038093D3
:102CB000A0039093A1036E7F71F40E941C1388E01F
:102CC00090E00E94C03360939E0370939F038093B3
:102CD000A0039093A1030E94C1081092DA02809190
:102CE0009E0380FF03C086950E94331681E0809387
:102CF000D102089561E00E94F8150895CF92DF9205
:102D0000EF92FF92CF93DF936B017C010E94530DF2
:102D1000D82F0E94A90D0E94A60D80912503811134
:102D200002C00E94A30D0E94A00DC091E001EFEF30
:102D3000ED0FE73008F087C0F0E0EB59FB4C0C9446
:102D4000C4310E94B20DC1110FC00E94371681E03C
:102D50000E9433164EE16FE088E70E94C00F4FE0FB
:102D600060E085ED0E94C00FC701B601DF91CF91F1
:102D7000FF90EF90DF90CF9008950E94AC0DC111AD
:102D8000F3CF0E94371681E00E9433164EE16FE0C8
:102D900085ED0E94C00F4FE060E088E7E3CF0E941E
:102DA000B20D0E94AC0DC111DFCF0E94371681E039
:102DB0000E94331620E04FEF6FEF88E751C00E946A
:102DC000B20D0E94AF0D0E94AC0DC111CDCF0E947B
:102DD000371680910A010E943316C6CF0E94AF0DAC
:102DE000C111C2CF0E94371620E040E060E080E0D1
:102DF00037C00E94B20D0E94AF0D0E94AC0DC111F0
:102E0000B3CF88E090E00E94C03360939E0370933C
:102E10009F038093A0039093A10360FF24C0862F9B
:102E2000816080939E0386950E947A1680919E030E
:102E300086950E947A1621E04091A1036091A0033B
:102E400080919F030DC0D111DACFC1118DCF0E94A7
:102E5000371681E00E94331620E04FEF6FEF85EDCB
:102E60000E941E1281CF0E9403137ECF80919E0389
:102E70008695815009F484E261E00E94F815089576
:102E800080919E0386958F5F853208F081E061E036
:102E90000E94F815089590919E0390FF08C09695A2
:102EA000981728F0961718F40E94401708950E946A
:102EB0007A1608950E94D6159C019091CD028091BA
:102EC000CE02982B21F03093CA022093C902909130
:102ED000CF028091D002982B21F03093C80220932A
:102EE000C702E091E302F091E402309749F082E0FA
:102EF0008093CB020480F581E02D8BEC92E0099564
:102F0000089590E080E00E94970890E080E00E94A1
:102F100081081092DF020E942C1386E0EBECF2E0B5
:102F2000DF011D928A95E9F71092C5021092C40242
:102F30001092C6020E945A170895CF92DF92EF9224
:102F4000FF92CF93DF93CDB7DEB7A0970FB6F8947B
:102F5000DEBF0FBECDBF0E947E166B017C0180914B
:102F6000A4038823B1F02FEF80E792E02150804046
:102F70009040E1F700C0000085E08983C701B601F9
:102F80000E94530D8A838EEF8B83CE0101960E949F
:102F90007A06C0929202D0929302E0929402F0924A
:102FA00095020E948117A0960FB6F894DEBF0FBE5F
:102FB000CDBFDF91CF91FF90EF90DF90CF9008953C
:102FC0000F931F9341E050E060E070E004C0440FB5
:102FD000551F661F771F8A95D2F7809192029091B4
:102FE0009302A0919402B09195028A019B01082757
:102FF00019272A273B27C901B8010E949D171F9155
:103000000F9108950F931F9341E050E060E070E04E
:1030100004C0440F551F661F771F8A95D2F7CB0156
:10302000BA016095709580959095009192021091EB
:1030300093022091940230919502602371238223A0
:1030400093230E949D171F910F9108959091500214
:103050008095892380935002282F277091F4282F80
:10306000082E000C330B9217130659F09091EF02C3
:1030700092FF07C08595859585950E94021810924C
:1030800050020895CF93C091EF02C2FB992790F9A7
:10309000981791F080FBC2F9C093EF026091EE02A5
:1030A00084E090E00E94DC336C2F82E290E00E948A
:1030B000DC3382E00E942618CF9108950F931F936E
:1030C00041E050E060E070E004C0440F551F661F0F
:1030D000771F8A95D2F78091920290919302A091E6
:1030E0009402B09195028A019B01082B192B2A2B7F
:1030F0003B2BC901B8010E949D171F910F910895A4
:1031000060937202709373028093740290937502BD
:103110000E948117089580912901E0EAF1E0882357
:1031200061F08091EE0287FF08C08EE1DF011D9201
:103130008A95E9F70E948117089586E0F7CFAAE201
:10314000B0E0E5EAF8E10C947A318AE193E020916D
:10315000F100FC012193CF01F3E082329F07B9F720
:1031600080911B03893009F444C018F5823009F4BA
:10317000BCC0833009F46FC0813031F580911A03EF
:10318000813A11F58091E800877F8093E800809173
:103190001E0390911F03892B41F560E287EF92E0B7
:1031A00070E00E94DD078091E8008B778093E80053
:1031B0000BC08B3009F46CC008F486C0823409F46B
:1031C000A5C0853409F4BFC08091E80083FF5AC2CE
:1031D00080911A0390911B039A3008F053C2E92F93
:1031E000F0E0E459FB4C0C94C43160E090E080E0E6
:1031F000D7CF80911A03813239F780911E039091C5
:103200001F03009711F00297F9F68091E800877F7D
:103210008093E8008091E80082FF18C09091F3004D
:103220008091F200029731F48091F100813011F029
:10323000863021F48091F1008093F6028091E800BD
:103240008B778093E8000E94D206BECF8091A503C1
:103250008111E0CFB9CF80911A03813A09F0B4CF40
:1032600080911E0390911F03892B09F0ADCF8091AF
:10327000E800877F8093E8008091E80080FFFCCF22
:10328000809129018093F1008091E8008E77D9CF59
:1032900080911A03813209F097CF80911E0390919B
:1032A0001F03892B09F090CF8091E800877F8093DE
:1032B000E8000E94D20680911C038093290110929D
:1032C000F4020E948B1880CF80911A03813209F09A
:1032D0007BCF8091E800877F8093E8000E94D20630
:1032E00080911D038093F5026FCF80911A03813A7C
:1032F00009F06ACF8091E800877F8093E800809191
:10330000E80080FFFCCF8091F502BCCF80911A03CA
:10331000803C09F059CF80911E0390911F030297C2
:1033200039F580911C0390911D03892B09F580913B
:10333000E800877F8093E8006EE070E08BE99AE018
:103340000E947E0780CF80911A03803C09F03CCF19
:1033500080911E0390911F03079751F48091E8001C
:10336000877F8093E80062EB70E089EE99E0E8CF18
:103370008091EB0080628093EB0026CF803899F03B
:10338000823809F07FC180911E038F70873008F06A
:1033900079C18093E9008091EB0085FB882780F953
:1033A0001092E90006C080911703909118039111C3
:1033B00082609091E800977F9093E8008093F100FD
:1033C0001092F1008091E8008E7758C1882309F4AB
:1033D00046C1823009F056C180911C03811149C158
:1033E00080911E038F702FEF280F263008F04AC1FE
:1033F0008093E9002091EB0020FF3BC1933031F432
:103400008091EB0080628093EB0033C19091EB00E0
:1034100090619093EB0021E030E001C0220F8A958B
:10342000EAF72093EA001092EA008091EB008860AE
:10343000EACF811127C110911C031F778091E3000F
:103440008078812B8093E3008091E800877F8093D0
:10345000E8000E94D2068091E80080FFFCCF8091B6
:10346000E30080688093E30082E0111183E08093A1
:10347000A50308C18058823008F004C180911C0364
:1034800090911D038C3D23E09207A1F583E08A8390
:103490008AE289834FB7F894DE01139620E03EE07C
:1034A00051E2E32FF0E050935700E49120FF03C076
:1034B000E295EF703F5FEF708E2F90E0EA30C0F042
:1034C000C7968D939D932F5F243159F74FBF8091FD
:1034D000E800877F8093E8006AE270E0CE01019601
:1034E0000E94DD078091E8008B778093E800CAC0D6
:1034F000C096E7CF20911E0330911F03492F552717
:103500004330510551F1A0F44130510509F459C03F
:1035100062E770E08AEA9AE04230510509F0B2C0F1
:103520002091E800277F2093E8000E947E07DACFF1
:103530004132510539F14232510591F14F30510577
:1035400009F0A0C0E2E8FBE0649170E080E89BE055
:103550006115710509F496C0E3CF99278130910573
:1035600071F0009731F0029709F08CC0EEE2FBE0B9
:1035700002C0ECE7FBE0649170E0CF01E9CFE2E547
:10358000FBE0F9CF2330310508F07CC0220F331F58
:10359000F901EB56FE4F8081918169E070E0C0CF68
:1035A0002330310508F06EC0F901EE0FFF1FE1571F
:1035B000FE4F8081918124573E4FF901608170E078
:1035C000C7CF62E170E08CE19BE0AACF803809F0C0
:1035D00059C08091E800877F8093E80080911903AB
:1035E0008093F100EFCE81114DC010911C03123079
:1035F00008F048C08091E800877F8093E80010932E
:1036000019030E94D206112311F084E005C08091B5
:10361000E30087FDFACF81E08093A50342E061ECEF
:1036200081E00E94F10642E261EC84E00E94F10632
:1036300042E261EC82E00E94F10642E260EC83E04B
:103640000E94F10642E361EC85E00E94F10642E34C
:1036500060EC86E00E94F1068091A50313C0809182
:103660001C03813079F481E0933009F080E080938D
:1036700018031092E9008091E800877F8093E800AA
:103680000E94D2068091E80083FF0AC08091E80082
:10369000877F8093E8008091EB0080628093EB004D
:1036A000AA96E3E00C9496311F920F920FB60F92F8
:1036B00011242F933F934F935F936F937F938F9337
:1036C0009F93AF93BF93CF93DF93EF93FF93D091EB
:1036D000E900DF708091EC00C82FC17080FDC0E868
:1036E0001092E9008091F000877F8093F000789439
:1036F0000E949F181092E9008091F00088608093EA
:10370000F000CD2BCF70C093E900FF91EF91DF91D6
:10371000CF91BF91AF919F918F917F916F915F9169
:103720004F913F912F910F900FBE0F901F901895C2
:103730001092F4020E948B182FEF84E39CE021503A
:1037400080409040E1F700C0000088E19AE00FB6A9
:10375000F894A895809360000FBE90936000FFCF0F
:10376000882391F19CEF980F913A40F4682F8EE9ED
:1037700091E00E9457080E942C13089590E2980F40
:10378000983050F4877091E001C0990F8A95EAF75C
:10379000892F0E946C0CEFCF9BE5980F933028F493
:1037A00090E080E00E949708089598E5980F97317F
:1037B00028F490E080E00E94810808958D3E20F07A
:1037C0000E9467090E945A170895CF93C82F882333
:1037D00009F442C08CEF8C0F813A08F065C08091EB
:1037E00029018823D9F18091EE0287FF37C0EC2FA1
:1037F000E695E695E695F0E0E256FE4F828190E090
:103800004C2F477021E030E002C0220F331F4A9551
:10381000E2F782239323892B61F06C2F8EE991E0EC
:103820000E9457080E942C1323C08091EE0287FF4C
:1038300023C0EC2FE695E695E695F0E0E256FE4FC4
:10384000C77021E030E001C0220FCA95EAF78281FB
:10385000822B82830E942C13CF910895E0EAF1E03D
:1038600086EA91E02191C217C1F28E179F07D1F726
:10387000809129018111D9CFA0EAB1E0EFEF80E07A
:103880009D91C91739F3EF3F19F4911101C0E82F49
:103890008F5F8630A9F7EF3FE9F20E2E000CFF0B89
:1038A000E256FE4FC283D6CF80E28C0F883068F498
:1038B000C77021E030E001C0220FCA95EAF780917D
:1038C000F402822B8093F402C5CFEBE5EC0FE330DA
:1038D00040F4F0E0EA5CFE4F808190E00E9497089F
:1038E000BBCFE8E5EC0FE73150F4F0E0EE0FFF1F3F
:1038F000E75CFE4F808191810E948108ADCFCD3E73
:1039000008F4AACF8C2F0E94240A0E945A17A4CF31
:103910001F93CF93DF93182FD0E0C0E0893311F4C9
:10392000C0E5D0E0812F0E94E51B209739F4812F5C
:103930000E94B01BDF91CF911F9108958FE99FE006
:103940000197F1F700C000002197EFCF0F931F936D
:10395000CF93DF93C62FD42F022FFC0182818823BF
:10396000A9F0609324030E94D615909323038093BB
:103970002203C77081E001C0880FCA95EAF70E9450
:103980009613DF91CF911F910F9108958091240399
:10399000681332C080912203909123030E94C715BF
:1039A0008D37910548F510E21D0FCD17B9F080E273
:1039B0008C0F883040F4C77081E001C0880FCA9531
:1039C000EAF70E948F13183048F481E09D2F97701A
:1039D00001C0880F9A95EAF70E949613802F0E94E3
:1039E000881C183070F6D77081E001C0880FDA9516
:1039F000EAF70E948F13C5CFC77081E001C0880F1E
:103A0000CA95EAF7F6CFB0E0A0E0E9E0FDE10C945A
:103A10007331EC018AE0A82EFE012491222309F4DF
:103A200097C0213009F03EC031968491813031F445
:103A30002296FE0184910E94881C07C0823039F4CE
:103A40002296FE0184910E94E51B2196E5CF8330EA
:103A500031F42296FE0184910E94B01BF6CF84308F
:103A600009F074C02296FE01249190E080E0FE01EE
:103A700031962053330B2A30310548F0019728F353
:103A8000EFE9FFE03197F1F700C00000F7CFA89E03
:103A9000A001A99E500D1124C901840F951F2491E6
:103AA000EF01E5CFE22FF0E0EC50FE4FB490822F13
:103AB00086958695869590E0FC01EC51FE4FE4904A
:103AC0002770F12C022E02C0F594E7940A94E2F7D5
:103AD00031E0E322FF24FC01EC52FE4FC490D12CD4
:103AE000022E02C0D594C7940A94E2F7E1E0CE22F8
:103AF000DD24FC01EC53FE4F049110E002C015954B
:103B000007952A95E2F701701127E114F10419F0E5
:103B100081EE0E94E51BC114D10419F086EE0E94CB
:103B2000E51B8B2D0E94881CC114D10419F086EE70
:103B30000E94B01BE114F10419F081EE0E94B01B49
:103B40000115110509F481CF8CE275CFEF017DCF0E
:103B5000CDB7DEB7EAE00C948F311092250389EBE4
:103B60009BE00E94031D81E00E94E0170895B0E0F1
:103B7000A0E0EDEBFDE10C9474318091190190917E
:103B80001A01892BB9F0809176028F5F80937602BB
:103B9000811110C00E941C1490E090931A01809330
:103BA0001901892B39F40E94660E81E08093180177
:103BB0000E94401604E812E07801B12CD0E087E0C2
:103BC000C82ECD0E8D2F0E94DF0E8C2D0E94DF0E91
:103BD0008D2F0E9493148F73F7019081D12C891738
:103BE00019F08083DD24D3948C2D0E9493148F735D
:103BF000F7019781891709F444C0878381E08D29F3
:103C0000B82A0E94B50DDF5FFFEFEF1AFF0AD73029
:103C1000B1F6D0917A02DD2309F47AC00E94D6155C
:103C20002091780230917902AC01421B530B9A012A
:103C300090937902809378024F3F510509F018F56F
:103C4000452BE1F010927A0210927702E0917E0209
:103C5000F0917F02AF01425F5F4F90E030E08081E2
:103C6000882321F0281790F010829D2F3196E417B9
:103C7000F507A9F730937A0290937702B11057C0F5
:103C80004AC080E0BCCF2FEF30E0DCCF821B8083C6
:103C90003D2FECCF9170892B09F47CC080917C0280
:103CA00090917D028130984780F01092A30360913B
:103CB00092027091930280919402909195020E94D9
:103CC0007E1610927D0210927C0280917C0290916F
:103CD0007D02019690937D0280937C028B2DCDB75F
:103CE000DEB7E9E00C9490310E94AF0D5AC0892BE9
:103CF000A9F310927D0210927C0260919202709161
:103D0000930280919402909195020E947E16E6CFD4
:103D1000DB2DB11006C080917702882349F1D111C3
:103D200006C00E94D6159093790280937802A091E4
:103D30007E02B0917F0280917A02E8E9F2E026EA01
:103D400032E04EE15191E80199918E01591751F0FD
:103D50005C91511107C04C93BF0161507109EB0197
:103D6000988381E011962E173F0761F780937A02BE
:103D700080917C0290917D022091A303222309F47B
:103D8000B6CF009709F086CF0E94A60D0E94A30D22
:103D90000E94A00DD0917B02DD2309F4A5CF0E94E3
:103DA000A30D81E0D827D0937B0278CFA3E2B0E0C7
:103DB000ECEDFEE10C946B313C01DC0113968D912E
:103DC0009C911497892B41F08C9111969C91892399
:103DD0008F3F11F00C946B28A396E2E10C9487318D
:103DE0000E947D0C182F682F89819A810E94FB0CFC
:103DF00069817A81812F0E94C30A4C0181509545C7
:103E0000D4018F3F910510F4E5E5BE27F301F2815F
:103E1000FBA3FF2309F4DDC2AF3FB10509F008F4AD
:103E200087C0AC32BD4509F46AC01092DE01D09063
:103E3000A303DD2009F449C3ABA1A11166C0E09141
:103E4000DF01E330A0F481E08E0F8093DF01F0E02A
:103E5000EE0FFF1FE854FD4FD3018D919C9191838C
:103E6000808382E08983CE0101960E947A06BFEFAB
:103E7000E3EDF0E3B150E040F040E1F700C00000B6
:103E80008091DF01833009F040C01092A3031092AB
:103E9000DF019091B9028091BF0298130C946528BC
:103EA0009091B8028091BE0298130C94652890916D
:103EB000BB028091C10298130C9465289091BA02BC
:103EC0008091C00298130C9465289091C302809150
:103ED000BD0298130C9465289091C2028091BC0297
:103EE00098130C94652884E0898381E08093A4036F
:103EF0008EEF8A83CE0101960E947A0606C08091D9
:103F0000DE0191E089278093DE0180915002877065
:103F100009F462CFD30112968C91882309F45CCF07
:103F20008091EF0282FF58CF82E00E94261854CF82
:103F30008091DE01882309F4E8C01092DE01A03CE4
:103F4000B105E8F5A038B10508F0A9C0A034B10565
:103F500008F06FC021E030E040E050E060E070E049
:103F600080E090E00A2F0E94D931E091BE012E2B13
:103F7000E091BF013E2BE091C0014E2BE091C101C9
:103F80005E2BE091C2016E2BE091C3017E2BE0918C
:103F9000C4018E2BE091C5019E2B2093BE0130936E
:103FA000BF014093C0015093C1016093C20170935F
:103FB000C3018093C4019093C5014D0138CFAF3F39
:103FC000B10509F038F68D01005C110921E030E0FF
:103FD00040E050E060E070E080E090E00E94D93185
:103FE000E091D6012E2BE091D7013E2BE091D80134
:103FF0004E2BE091D9015E2BE091DA016E2BE0911E
:10400000DB017E2BE091DC018E2BE091DD019E2B0C
:104010002093D6013093D7014093D8015093D90112
:104020006093DA017093DB018093DC019093DD01F2
:10403000C4CF8D010054110921E030E040E050E090
:1040400060E070E080E090E00E94D931E091C6012C
:104050002E2BE091C7013E2BE091C8014E2BE09141
:10406000C9015E2BE091CA016E2BE091CB017E2B42
:10407000E091CC018E2BE091CD019E2B2093C601C7
:104080003093C7014093C8015093C9016093CA019E
:104090007093CB018093CC019093CD018ECF8D0195
:1040A0000058110921E030E040E050E060E070E0AD
:1040B00080E090E00E94D931E091CE012E2BE0917A
:1040C000CF013E2BE091D0014E2BE091D1015E2B30
:1040D000E091D2016E2BE091D3017E2BE091D401CF
:1040E0008E2BE091D5019E2B2093CE013093CF01F2
:1040F0004093D0015093D1016093D2017093D301CA
:104100008093D4019093D50158CFA034B10508F025
:104110006BC0E091BE01F091BF015090C001409092
:10412000C1013090C2012090C3013091C40139A374
:104130008091C5018AA321E030E040E050E060E0DA
:1041400070E080E090E00A2F0E94D931A22EAE22CA
:10415000B32EBF22C42EC520D52ED420E62EE320B8
:10416000F72EF22009A108231AA119230E94F23187
:1041700009F05DCEA03CB10508F096C0A038B105AD
:1041800008F0F7C0A034B10508F0C3C021E030E06A
:1041900040E050E060E070E080E090E00A2F0E9494
:1041A000D9312095309540955095609570958095C2
:1041B00090952E233F234521542163217221A9A1EB
:1041C0008A23BAA19B232093BE013093BF01409361
:1041D000C0015093C1016093C2017093C3018093E9
:1041E000C4019093C50191CEA038B105F0F4E091DF
:1041F000C601F091C7015090C8014090C9013090AC
:10420000CA012090CB019091CC0199A32091CD01BE
:104210002AA321E030E040E050E060E070E080E080
:1042200090E08D01005411098FCFA03CB105F0F44E
:10423000E091CE01F091CF015090D0014090D1019A
:104240003090D2012090D3013091D40139A38091D4
:10425000D5018AA321E030E040E050E060E070E06A
:1042600080E090E08D01005811096ECFE091D601F9
:10427000F091D7015090D8014090D9013090DA01E7
:104280002090DB019091DC0199A32091DD012AA30C
:1042900021E030E040E050E060E070E080E090E05D
:1042A0008D01005C110950CFAF3FB10511F008F04E
:1042B0006DCF8D01005C110921E030E040E050E05D
:1042C00060E070E080E090E00E94D9312095309568
:1042D0004095509560957095809590952E233F233D
:1042E0004521542163217221E9A18E23FAA19F2344
:1042F0002093D6013093D7014093D8015093D90130
:104300006093DA017093DB018093DC019093DD010F
:10431000FCCD8D010054110921E030E040E050E077
:1043200060E070E080E090E00E94D9312095309507
:104330004095509560957095809590952E233F23DC
:104340004521542163217221E9A18E23FAA19F23E3
:104350002093C6013093C7014093C8015093C9010F
:104360006093CA017093CB018093CC019093CD01EF
:10437000CCCD8D010058110921E030E040E050E043
:1043800060E070E080E090E00E94D93120953095A7
:104390004095509560957095809590952E233F237C
:1043A0004521542163217221A9A18A23BAA19B230B
:1043B0002093CE013093CF014093D0015093D1018F
:1043C0006093D2017093D3018093D4019093D5016F
:1043D0009CCDAF3FB10511F008F029CDA034B10557
:1043E00050F5A090BE01B090BF01C090C001D09028
:1043F000C101E090C201F090C301F091C401E091CD
:10440000C50121E030E040E050E060E070E080E095
:1044100090E00A2F0E94D931A222B322C422D522D1
:10442000E622F722082F0F23192F1E230E94F231B4
:1044300009F0FDCC6ACDA038B105E0F4A090C6012A
:10444000B090C701C090C801D090C901E090CA01E6
:10445000F090CB01F091CC01E091CD018D010054A1
:10446000110921E030E040E050E060E070E080E0E1
:1044700090E0D0CFA03CB105A0F4A090CE01B090C8
:10448000CF01C090D001D090D101E090D201F09046
:10449000D301F091D401E091D5018D0100581109AB
:1044A000E0CFA090D601B090D701C090D801D090B5
:1044B000D901E090DA01F090DB01F091DC01E091AC
:1044C000DD018D01005C1109CCCF8091A40388230C
:1044D00081F0ABA187E0A11186E08983F30180819F
:1044E0008A8381818B838EEF8C83CE0101960E941B
:1044F0007A06FFEA8F16FDE59F0609F074C0D30126
:1045000012968C918823C9F18091800291E0980FD6
:104510009770887F953008F4892B80938002809172
:1045200080028770BFEF8B9FC001112495958795FE
:10453000959587959927909389008093880090930B
:104540008B0080938A0090938D0080938C00409123
:1045500080025091810260918202709183028FE00B
:1045600090E00E94EE3360919202709193028091EC
:104570009402909195020E947E168091E002882319
:1045800009F460C20091F402109171020E94D615E4
:104590008854944F9093B6028093B502D30112963B
:1045A0008C91882309F44EC2102B1D7909F029C281
:1045B0008114B5E59B0608F009C28114E3E59E0667
:1045C00008F09FC18114F0E59F0608F095C18114A1
:1045D00020E4920608F018C236EE8316910409F41E
:1045E00090C1C40117C2E9EB8E16EDE59E0609F4F1
:1045F000F7C008F06DC023EB82162DE5920609F492
:10460000CBC0B8F580EB88168DE5980609F44DC14E
:10461000C0F4A1EE8A16910409F453C1BEEA8B16C8
:10462000BDE59B0609F0A9CFF3018281882309F437
:104630006CCC8091E002882309F44EC10E94811362
:1046400064CCB1EB8B16BDE59B0609F426C1E2EB09
:104650008E16EDE59E0611F7D30112968C918823F4
:1046600009F453CC8EED93E00E94031D0E94AD1D12
:104670004CCCF6EB8F16FDE59F0609F4A0C098F42C
:1046800034EB83163DE5930609F48EC085EB88165E
:104690008DE5980619F6F3018281882309F435CC5B
:1046A0008EEA93E0E1CF97EB89169DE5990609F430
:1046B0008FC0A8EB8A16ADE59A0609F0AFCFD301FB
:1046C00012968C91882309F458CF86E793E074C042
:1046D000BEEB8B16BDE59B0609F4A6C0E0F4FBEB30
:1046E0008F16FDE59F0609F48CC008F481C03CEBF1
:1046F00083163DE5930609F48CC08DEB88168DE595
:10470000980609F08BCFF3018281882309F4FDCB51
:1047100080EF92E086C091EC89169DE5990609F438
:1047200094C0A8F4BFEB8B16BDE59B0609F485C0C9
:10473000E0EC8E16EDE59E0609F070CFD3011296DF
:104740008C91882309F4E1CB8CE992E06AC0F2EC09
:104750008F16FDE59F0609F480C023EC82162DE537
:10476000920609F05BCFF3018281882309F4CDCB57
:1047700080910A0190910B010D9709F08BC088E0A0
:1047800090E090930B0180930A010E94371680916C
:104790000A010E943316B9CBF3018281882309F400
:1047A000B4CB8AED93E060CFD30112968C9188232D
:1047B00009F4E3CE80EC93E00E94031DDECED3012A
:1047C00012968C91882309F4A0CB8CE993E04CCF0E
:1047D000F3018281882309F498CB80E993E044CFE8
:1047E000F3018281882309F4C8CE86E593E0E4CF03
:1047F000D30112968C91882309F487CB82E593E04C
:1048000033CFF3018281882309F47FCB84E293E0E4
:104810002BCFD30112968C91882309F476CB84E0B8
:1048200093E00E94031D71CBD30112968C918823D3
:1048300009F46BCB80ED92E0F4CFF3018281882301
:1048400009F463CB80EB92E0ECCFF3018281882303
:1048500009F45BCB8CE792E0E4CFD30112968C9104
:10486000882309F452CB8091250381110AC088E77F
:1048700092E00E94031D81E0809325030E94AF0D0A
:1048800044CB84E792E00E94031D109225030E940E
:10489000A30D3BCB8DE090E074CFD30112968C91A9
:1048A000882309F432CB81E028C1F3018281882377
:1048B00009F42BCB8091E00191E089278093E001FE
:1048C00024CBD30112968C91882309F456CE1092F2
:1048D00025030E94A30D51CE1092F4020E94660C93
:1048E0000E94D6158854944F9093B6028093B502D7
:1048F00081E08093E00209CB811482E5980608F0FC
:1049000070CED30112968C91882309F4F9C31092CA
:104910002403BCE58B16BDE59B0609F475C108F0C0
:10492000D8C08114FCE59F0609F422C12FED821640
:104930002CE5920609F45BC1F301828100811181AB
:10494000882309F465C1C8010E947D0CF82E682FE8
:10495000C8010E94FB0CB8018F2D0E94C30A0E945F
:10496000DE0A8C01A82ED3011296FC9012971596A0
:10497000BC90B2943FE0B322809150028770C1F0A6
:10498000FF20A9F0812F807F803421F080E2800F0A
:10499000883070F08091EF0282FF0AC082E00E94AE
:1049A0002618809150028770DD24D3948111D12C78
:1049B000C12EC2942FE0C222BBE0BC1508F48DC109
:1049C000EC2DF0E0EA58FB4C0C94C431811499E5CD
:1049D000990660F48114A8E59A0608F092CFB4E134
:1049E0008B16B5E59B0609F0FCCD8BCFC401905624
:1049F0008115904208F0F5CDD30115968C91807FFA
:104A000039F40E9481131EC0F3018581807FD1F0AB
:104A1000C40199271092DF028832910558F48E3133
:104A2000910570F4049768F382E08093DF020E949E
:104A30002C1306C08D329105B9F3F0F48A9709F76B
:104A40000E942C1324EF82162CE5920699F1D8F4DB
:104A500089ED88168CE5980649F19AED89169CE552
:104A60009906A1F1A8ED8A16ACE59A0609F049CF9E
:104A700026E241EE61EE16C08C34910509F38D32C9
:104A80009240F1F2BECFB6EF8B16BCE59B06D1F09B
:104A9000A8F027E245EE66EEF7EF8F16FCE59F06DD
:104AA00009F02FCFC3010E94A61C2FCA27E245EEB2
:104AB00065EEF8CF26E241EE60EEF4CF27E245EE58
:104AC00064EEF0CF26E241EE62EEECCF28E241E068
:104AD000EFCF3EE583163DE5930609F48BC008F45D
:104AE00095C099EA89169DE5990609F025CF0E949F
:104AF000981B816080939E0386950E947A1605CA52
:104B000046E357E160E477E10E94BA08FEC940E459
:104B100057E166E377E1F8CF45ED52E16BEC72E1E6
:104B2000F3CF41EB52E16EEB72E1EECF47E952E198
:104B300064EA72E1E9CF44EA52E167E972E1E4CF65
:104B400041EF52E16FED72E1DFCF65E082E00E945C
:104B50004B17DBC968E086E0FACF64E18FE0F7CF5E
:104B600067E185E1F4CF62E289E1F1CF83E2C5CF6D
:104B70001092F4020E948B18AFEFB4E3ECE0A15066
:104B8000B040E040E1F700C00000F89481E080937D
:104B9000E00080E28093D8001092C9008FE19EE48B
:104BA0000197F1F700C000001DBA109268001CBC0C
:104BB00010BE1FBA10927A0010926E0010926F0011
:104BC00010927100109272001092C9001092BC00F5
:104BD00014B817B81AB81DB810BA1092BC0015B89E
:104BE00018B81BB81EB811BA0C94003F8EC90E94A9
:104BF000A0137DCF8091EF0282FB882780F991E09E
:104C000089270E94421898CE81E0FBCF80E0F9CF3F
:104C1000C8010E94C60CF82E9ECEE12FEF70EE2E3A
:104C2000107F19F0E29490EFE922FF20B9F0EE2016
:104C300069F080E2800F883010F0A11009C08091E7
:104C4000F402E82AE092F4020E942C13802F43C061
:104C50008091DF02E82AE092DF02F6CF802F0E94E7
:104C6000B01BEE20D1F1005E083010F0A11004C09E
:104C70008E2D0E946C0C06C0E0948091DF02E82229
:104C8000E092DF020E942C1328C0F12FFF70EF2E5C
:104C9000107F103219F0E29480EFE822AA2059F038
:104CA00021E0A21609F471C0FF2009F479C0BB20ED
:104CB00009F471C0CBCF2091EF0222FD43C0FF2049
:104CC000D9F1EE2039F08091F402E82AE092F40262
:104CD0000E942C1380E00E94E51BAC2DA850BB0B5A
:104CE000149710F40E94AD08DD20A9F080915002C5
:104CF00080FD11C0F30112828595859585950E94EE
:104D00005E18C3010E94D61E80915002859585953C
:104D100085950E94021885E0F301DE01119601904D
:104D20000D928A95E1F709811A81C8010E94C60C8B
:104D3000B8010E94C30A50C880E00E94B01BEE2058
:104D400061F296CFFF20A1F0909171028E2D892BF8
:104D5000B11003C00E949613C0CF31E0B312FACF56
:104D600022FFBBCF891709F4B8CF80937102B5CF6A
:104D7000B11006C00E94660C8E2D0E948F13ADCF1D
:104D800081E0B81609F4A9CFF5CFFF2031F091E00A
:104D90009B1508F4A2CF8E2DDDCFB1109ECFECCFA6
:104DA000BB2051F3A9E3AA1209C0BFEFE7EEF3E07D
:104DB000B150E040F040E1F700C00000802F0E94B9
:104DC000B01B8BCF812F86958695837061F08130E3
:104DD00009F083CFC8019370F11002C090E080E029
:104DE0000E9481087ACFC8019370F11002C090E050
:104DF00080E00E94970871CF802FFF2029F00E9449
:104E0000240A0E945A1769CF0E946709FACF812F9E
:104E1000837009F066C0F11060CF802F829586956F
:104E20008770880F880F602F6F70862E912CB12CA1
:104E3000A12C082E04C0880C991CAA1CBB1C0A9427
:104E4000D2F740E050E0BA0104FF0FC04FE050E05D
:104E500060E070E004C0440F551F661F771F8A95FD
:104E6000D2F74095509560957095812F86958695DF
:104E70008370823019F1D8F400917202109173029C
:104E80002091740230917502813069F048295929C6
:104E90006A297B29CB01BA016023712382239323E2
:104EA0000E9480181ACF802A912AA22AB32ACB0105
:104EB000BA01682979298A299B29F2CF48295929D9
:104EC0006A297B2900917202109173022091740269
:104ED00030917502CB01BA01602771278227932791
:104EE000DFCF8695FF2011F0812F8170882309F490
:104EF000F4CE802F829586958770880F880F602F5B
:104F00006F70862E912CB12CA12C082E04C0880C19
:104F1000991CAA1CBB1C0A94D2F740E050E0BA01CD
:104F200004FF0FC04FE050E060E070E004C0440FA9
:104F3000551F661F771F8A95D2F74095509560954B
:104F40007095812F869586958370823019F1D8F4FB
:104F50000091920210919302209194023091950257
:104F6000813069F0482959296A297B29CB01BA0186
:104F700060237123822393230E949D17AECE802A43
:104F8000912AA22AB32ACB01BA01682979298A2950
:104F90009B29F2CF482959296A297B29009192023D
:104FA000109193022091940230919502CB01BA01A5
:104FB0006027712782279327DFCF1F70FF2029F0FA
:104FC000812F0E945E18802FC5CE802F0E948F13E4
:104FD000812F0E94021881CE802F22EFA21669F144
:104FE0002A1570F030EFA316D1F091EFA91691F0C9
:104FF000FF2009F45AC0B11029CE812F8F7121C032
:10500000A3EFAA1609F1B4EFAB12F2CF8091EF0231
:1050100082FD2DC0812F8F71FF20D9F212C0FF2099
:1050200039F0B1105ACE812F8F710E94E01755CE02
:10503000E1E0EB1508F451CEF6CF812F8F71F1101E
:10504000C8CF0E945E1849CE60E070E0CB01FF201F
:1050500009F492CF1F7161E070E080E090E004C03D
:10506000660F771F881F991F1A95D2F785CFFF20EB
:1050700089F01F71812F0E945E188091EF0282FFDC
:1050800007C0F8E01F9FC001112483608093500285
:10509000812FD7CF81E00E94261821E02B1508F040
:1050A0001CCE82E00E94261818CEBB2059F089330E
:1050B00009F084CE3FEF87EE93E03150804090407E
:1050C000E1F77ACE812F8F7184CF83E089831092AC
:1050D000A4030C94781F85E0F301DE011196019082
:1050E0000D928A95E1F7D30112962C9189819A81CC
:1050F00021110C94F01E0E94C60C182F0C94F81E5F
:105100008091F4028272BDEC8B16BCE59B0609F41B
:1051100017CD08F056C0F7EC8F16FCE59F0609F492
:10512000FBCC30F534EC83163CE5930609F4E8CC6F
:1051300070F4A3EC8A16ACE59A0609F0FDCB8091D9
:105140009E0380FFD6CC0E9403130C94851FB5EC00
:105150008B16BCE59B0609F4DACC4BEC52E165ED0D
:1051600072E1E6EC8E16ECE59E0609F4CDCCE4CBBC
:10517000FAEC8F16FCE59F0609F4D8CC88F438ECDD
:1051800083163CE5930609F4CCCC4EEB52E161EB7F
:1051900072E199EC89169CE5990609F4B5CCCCCB63
:1051A000ABEC8A16ACE59A0609F4C5CC4FED52E19A
:1051B00061EF72E1BCEC8B16BCE59B0609F4A4CC54
:1051C000BBCBE2ED8E16ECE59E0609F4C6CCB8F436
:1051D0002FEC82162CE5920609F4B7CC08F463CBC9
:1051E00080ED88168CE5980609F4B4CC6EE089E071
:1051F00091ED89169CE5990609F4A9CC9DCBA5ED06
:105200008A16ACE59A0609F4AECC70F4E3ED8E167E
:10521000ECE59E0609F4A4CC88E1F4ED8F16FCE5DC
:105220009F0609F46ACC88CB26ED82162CE59206FF
:1052300009F49CCC3FE583163DE5930611F40C94EC
:10524000851F7ACB1F93CF93DF9380911D02807FC0
:1052500009F049C080911A02882309F444C0809162
:105260004F02D0911E026091180270911902A09114
:105270001B02B0911C02C62FC72316E0D81799F164
:1052800090E0109711F0CF3F19F401968770F6CF98
:10529000189F9001199F300D1124F901E15EFD4F17
:1052A00041814713F2CF40814613EFCF4281411134
:1052B000ECCF438154814A1B5B0B4D37510528F7D6
:1052C00080911D028F70806180931D02F901EC5D59
:1052D000FD4F80818F708061808388E192E00E9421
:1052E000D61E0E94730CDF91CF911F910895A1E10A
:1052F000B0E0EDE7F9E20C9473318C0185E0F80140
:10530000DE011D9601900D928A95E1F7F801E28089
:1053100088E1A82E82E0B82E60911B0270911C02D9
:105320006115710509F426C1909118024091190286
:10533000892F84238F3F09F41DC120813181C380CF
:10534000D480F0901A02F601E61BF70BFF2009F457
:10535000DCC080911D02582F507FED37F10508F019
:105360009FC051116BC0FE2C431314C0921312C086
:10537000E11010C08F70806180931D02C5010E94F2
:10538000D61E80911D02F80185838F2D6196EAE07B
:105390000C948F31C114D10429F0822F83238F3FC5
:1053A00009F003C180E0F82FF170DF2E80FF3CC0D0
:1053B00080914F0240911E0256E0841315C02D8744
:1053C0003E878D859E850E94B90C292F22952F70CE
:1053D0002230F0F0243018F59F70F1F0F80195813B
:1053E000907FD1F4D12C1EC090E0589FF001599FBE
:1053F000F00D1124E15EFD4F6181361306C060811E
:10540000261303C06281E6120FC001968770D5CFC4
:105410009F7011F0882331F3805E883018F3C80143
:105420000E94D61EFD2CB1CFEE2009F4AECF8091A4
:105430001D02816080931D02F12CA7CF431306C08B
:10544000921304C0F801EE2009F479C0C8010E944B
:10545000330D882309F1EE20F9F080911D0280328E
:1054600070F0209118023091190238872F83198625
:10547000DB86CA868C87CE0107960E94D61E86E000
:10548000F801A8E1B2E001900D928A95E1F70E943F
:105490002229FF24F39479CFC8010E94D61EF9CFA8
:1054A00051110AC088E192E00E94D61E86E0F50103
:1054B00011928A95E9F7C0CF43130FC092130DC024
:1054C000E1100BC0F8018583C8010E94D61E86E05A
:1054D000F50111928A95E9F758CFC8010E94330D62
:1054E0008823D1F2EE20C1F280911D02803238F281
:1054F00020911802309119023A8329831B82DD82A0
:10550000CC828E83CE010196B8CFED37F105F8F647
:10551000FE2CEE2009F243131FC092131DC0809190
:105520001D0280FD10C0982F907F69F0F8018583DF
:10553000903F31F0982F907F905F8F70892B8583FB
:10554000C8010E94D61E86E0F801A8E1B2E00190F1
:105550000D928A95E1F719CFC8010E94330D811190
:105560008ECF80911D02816080931D02C8010E9430
:10557000D61E0BCFEE2009F48FCFC8010E94330D49
:10558000F82E882309F488CF86E0F801A8E1B2E07C
:1055900001900D928A95E1F780911802909119027D
:1055A0000E94B90C0E942229F0CE81E08E25FBCE0C
:1055B000A7E1B0E0EEEDFAE20C947A314B8B5C8B14
:1055C0006D8B7E8B8F8B61111092DF021A8A198A84
:1055D00085E0FE017396DE011D9601900D928A957D
:1055E000E1F786E0FE013D96DE01179601900D92EF
:1055F0008A95E1F7CE0107960E947729882359F012
:1056000016E080914F0290911E02891345C0679663
:10561000E3E00C94963186E0FE013796DE011196A8
:1056200001900D928A95E1F78A859B85892B41F33C
:105630008F81988589238F3F19F320911E0230E0D6
:10564000C90101968770992740914F0248171906A2
:1056500081F41092F4020E948B1810921E02109294
:105660004F0286E0E8E1F2E0DF011D928A95E9F75A
:10567000C7CF96E0929FD001939FB00D1124A15EF9
:10568000BD4FFE01319601900D929A95E1F78093FE
:105690001E020E94730CB4CF819FC0011124815E51
:1056A0009D4F0E947729882309F4B1CF80914F0242
:1056B00090E001968770992780934F02A2CF1F92A6
:1056C0001FB61F9211248F939F93AF93BF93809126
:1056D000E702811113C08091E8029091E902A09144
:1056E000EA02B091EB024196A11DB11D8093E80240
:1056F0009093E902A093EA02B093EB02BF91AF91BD
:105700009F918F911F901FBE1F901895CDB7DEB748
:10571000CC57D1090FB6F894DEBF0FBECDBF85B709
:10572000806885BF85B7806885BF84B7877F84BF61
:105730000FB6F894A895809160008861809360000E
:10574000109260000FBE80E890E00FB6F89480934E
:105750006100909361000FBE8EE79AE090939D01E7
:1057600080939C010E94FE050E9423078091E20025
:1057700084608093E20078948091A5038823A1F04F
:105780001091E9001F709091EC00892F817090FDBD
:1057900080E8182B1092E9008091E80083FD0E94B8
:1057A0009F181F701093E90082E084BD93E095BDBF
:1057B0009AEF97BD80936E000E941C1490E0909326
:1057C0001A01809319010E94B50D0E94C40DE4E8EE
:1057D000F2E082E992E0A8E9B2E011921D928E1700
:1057E0009F07D9F78EE090E00E94633280937E029B
:1057F00090937F02FC010E961192E817F907E1F7EA
:1058000089EA8093800089E08093810024982C9815
:105810003F988AB18F7C8AB96E98479A8BB1806322
:105820008BB9769A8FE090E00E94C033609380023B
:1058300070938102809382029093830267702FEFAE
:10584000629FB001112475956795759567957727C7
:10585000709389006093880070938B0060938A0036
:1058600070938D0060938C000E94660E90E080E043
:105870000E94C633883E9E4F11F00E94A01382E022
:1058800090E00E94B8338093A60284E090E00E94EA
:10589000B833182F82E290E00E94B833982F812FFE
:1058A0009093EF028093EE0283E090E00E94B83381
:1058B000682F70E090E080E00E9480186091920272
:1058C0007091930280919402909195020E947E16AD
:1058D0000E9440166091EE0260686093EE021091A3
:1058E000EF0284E090E00E94DC33612F82E290E0DE
:1058F0000E94DC3360919202709193028091940235
:10590000909195020E947E168CE091E09093E402C3
:105910008093E302B8E1EB2EF12C10E4B12E01E408
:10592000C02ED12CCC0EDD1E82E0C80ED11C809181
:10593000A5039924939400E112E1853009F445C24E
:105940000E94B71D882359F08FB7F8944091E80260
:105950005091E9026091EA027091EB028FBFE7EA91
:10596000F2E0A8E9B2E010E000E0302F8D919191D3
:10597000981709F444C2292F282790E0992493947A
:10598000422F492109F436C2E4969FAFE497E59689
:105990003FAFE597892191E009F490E0E6969FAF4B
:1059A000E6970E94D6158160782FE8969FAF8EAF5C
:1059B000E897E4964FADE497E5965FADE597E696F8
:1059C0006FADE697E8968FADE8970E94D82AF80168
:1059D000E955FD4F8081982690828091E0028823CE
:1059E00069F00E94D6152091B5023091B602821B53
:1059F000930B8F3F9F4710F40E9481138091DA022E
:105A00008823D1F18091D902E0919E03E695E81BAD
:105A1000E093D502823009F019C2F0E0E052F84F6D
:105A2000E4910E2F10E0A7EF8A2EA1E19A2E80912B
:105A3000D602882361F01092D6020E94D615909368
:105A4000D4028093D3021092D8021092D7020E94FF
:105A5000D615E091D302F091D4028E1B9F0B8F3F9D
:105A60009F4750F4E00FF11FF093D402E093D3026C
:105A700083ED92E0F401099586E0EBECF2E0DE01C3
:105A8000119601900D928A95E1F71092CD02109235
:105A9000CE021092CF021092D0021B810C81812F76
:105AA000802B09F448C08091C9029091CA020E94DB
:105AB000C7159C019091C502992309F429C32A3185
:105AC0003105C8F19F3F19F09F5F9093C5021123E4
:105AD00059F00E94000A9FEF11160CF491E0899F83
