:100000000C948F040C94AC040C94AC040C94AC04CD
:100010000C94AC040C94AC040C94AC040C94AC04A0
:100020000C94AC040C94AC040C94A20F0C94B41477
:100030000C94BF240C94AC040C94AC040C94AC044D
:100040000C94AC040C94AC040C94AC040C94AC0470
:100050000C94AC040C947B100C94AC040C94AC0485
:100060000C94AC040C94AC040C94AC040C94AC0450
:100070000C94AC040C94AC040C94AC040C94AC0440
:100080000C94AC040C94AC040C94AC040C94AC0430
:100090000C94AC040C94AC040C94AC040C94AC0420
:1000A0000C94AC040C94AC040C94AC04050109024F
:1000B000A10185020901A1000509190129081500FE
:1000C0002501950875018102050109300931158165
:1000D000257F95027508810609381581257F9501D0
:1000E00075088106050C0A38021581257F95017572
:1000F000088106C0C005010980A101850319012AF4
:10010000B700150126B700950175108100C0050CD8
:100110000901A101850419012AA002150126A002E6
:10012000950175108100C005010906A1018506052C
:100130000719E029E71500250195087501810205D9
:1001400007190029EF1500250195F07501810205B9
:10015000081901290595057501910295017503910D
:1001600001C00660FF0961A1010962150026FF00B8
:100170009520750881020963150026FF00952075FA
:10018000089102C005010906A101050719E029E748
:1001900015002501950875018102950175088101F9
:1001A0000507190029FF150026FF0095067508812F
:1001B000000508190129059505750191029501753C
:1001C000039101C00103E1000000000000000000F5
:1001D000000000000000000000000000000000001F
:1001E0000000000000000000000000007E0F00D4AE
:1001F000FFFFFFC7000000780000000000000000C3
:100200002A2B280000000000000000000000000071
:1002100000000029000000002C1E3420212224347C
:100220002627252E362D3738271E1F20212223244E
:1002300025263333362E37381F0405060708090AEA
:100240000B0C0D0E0F101112131415161718191A86
:100250001B1C1D2F3130232D350405060708090A04
:100260000B0C0D0E0F101112131415161718191A66
:100270001B1C1D2F3130354C0103E1000102E10050
:100280000102E00101170103E0010435307C0102A5
:10029000E001010F0103E0000102E101011F010380
:1002A000E1010435307C0102E101011F0103E1019C
:1002B0000435307C01015000010134010435307CEB
:1002C000010134010435307C010150000102E101DB
:1002D00001360103E1010435307C0102E1010137FF
:1002E0000103E1010435307C010150000102E1010C
:1002F000012F0103E1010435307C0102E1010130ED
:100300000103E1010435307C0101500001012F019E
:100310000435307C010130010435307C010150008E
:100320000102E10101260103E1010435307C0102F3
:10033000E10101270103E1010435307C0101500096
:1003400001014C0001014C0001014D0001014A0076
:1003500001014A010436307C010128010436307C59
:10036000010152010436307C0102E0010119010350
:10037000E00001014A010436307C01012801043605
:10038000307C0101520001014A010436307C010237
:10039000E101014D0103E1010436307C0102E0017D
:1003A00001060103E00001014A010436307C01022C
:1003B000E101014D0103E1010436307C01012A0015
:1003C00001014A010436307C0102E101014D0103C3
:1003D000E1010436307C01012A0001014D0104369F
:1003E000307C010128010436307C0102E001011952
:1003F0000103E00001014D010436307C01012800B9
:100400000102E101014D0103E1010436307C0101EB
:100410002A002B042B012961E100E00000001E00EE
:10042000140004001D00640036021F001A001600AC
:100430001B0035002B002000080007000600E2002A
:100440002C00210015000900190001582F0222007C
:1004500017000A00050000002602230046000000E5
:10046000B05D00002F002400AE5D000014500000BD
:10047000300025001C000B001100000027022600A0
:1004800018000D0010000258300227000C000E006A
:10049000360034002A002D0012000F0037001F0222
:1004A00028002E00130033003800320037020353B7
:1004B0000007E300E1004C0000000100AC00010077
:1004C0000100010000003A001A01BB5D01000100BB
:1004D000C15D3B004F011601BC5D010001003C0005
:1004E0000F014C01B25D010001003D001C01010043
:1004F000C55D0100C05D3E00C45D015750010000B4
:10050000BE5D3F000100000001000000BF5D400033
:100510000100000001000000010041000601500040
:1005200001000000010042001D0151000100010016
:1005300001004300BA5D52000100C25D2A0144007F
:10054000B35D4F000100C35D01004500B45DAE0026
:100550000901C45C01000100AB0001000100C35CA3
:1005600000000100AC0001000100010000001E01BC
:100570001A014D000100FD004B001F014F01160143
:10058000BD5DFE00500920010F01B55DB65DFF00A5
:10059000F1002101150101004900010001002201C3
:1005A0000100025750010000FB002301460000003B
:1005B00001000000FA002401010000000100000019
:1005C000F9002501B75DEF0001000000FC002601E5
:1005D0001D01EE00010001000100A8004A00ED002D
:1005E00001000100F200AA00B85DF0000100010066
:1005F0004F09A900B95DAE00090101004E000100DC
:10060000AB00010001000100000001000100010039
:100610000100CD5C000059004C0001000100CC5CE1
:10062000C75C5A00F10016011B01C95C01005B00A8
:100630000F05F200FD00010001005C00150105013D
:10064000FE00C85CCB5C5D0001000100FF00000003
:10065000FB005E000100000001000000FA005F00E6
:100660000100000001000000F90060000601EF0039
:10067000AC000000FC0061001D01EE00AA000100BA
:10068000CA5C62000100ED00A90001000100010048
:100690000100F000AB00010001005300190101004E
:1006A000A800AF5DC65C01000100C35C0100005CF6
:1006B0000000010001000100010001000000010034
:1006C0000100010001000100010001000100010022
:1006D0000100010001000100010001000100010012
:1006E0002B0001000100010001002C0001000100AD
:1006F00001000100010000000100010001000000F4
:100700000100000001000100010000001050000085
:1007100001000100010001000100000001000100D2
:100720000100010001001150010001000100010061
:1007300001000100010001000100010001000100B1
:1007400001000100010001000100010001000100A1
:10075000010001000100010000000A00000000008B
:100760000306B200080001000000A8000800020013
:100770000300A0001400030057494E5553420000E7
:1007800000000000000000008400040007002A00B0
:1007900044006500760069006300650049006E0052
:1007A0007400650072006600610063006500470028
:1007B0005500490044007300000050007B003900E0
:1007C00044004200370046003100460044002D003E
:1007D00037004500370041002D0034003000300064
:1007E00038002D0039003300360042002D0036005D
:1007F000420041003600430031003900410033001F
:100800003000380063007D00000000000E0301642A
:100810006F63732E716D6B2E666D0009027200049A
:100820000100A0FA090400000103010100092111DF
:1008300001000122400007058103080001090401AD
:10084000000203000000092111010001222200071B
:1008500005820320000107050303200001090402AB
:1008600000010300000009211101000122B6000768
:100870000584032000010904030002FF00000007B3
:100880000585034000050705060340000512011019
:1008900002000000089732744901000102000116AD
:1008A000034500720067006F0044006F007800206D
:1008B0000045005A00000028035A00530041002060
:1008C0000054006500630068006E006F006C006FEC
:1008D000006700790020004C006100620073000096
:1008E0000004030904050F3900021C100500DF6035
:1008F000DDD88945C74C9CD2659D9E648A9F0000C7
:100900000306B20045001810050038B60834A909DE
:10091000A0478BFDA0768815B66500014200112422
:100920001FBECFEFDAE0DEBFCDBF23E0AAEAB1E021
:1009300001C01D92A333B207E1F711E0A0E0B1E0DE
:10094000E6E8FAE502C005900D92AA3AB107D9F798
:100950000E94E6240C94102D0C940000E8EDF0E0C9
:1009600080818E7F80831092E2001092DA001092D4
:10097000E100A0EEB0E08C9181608C9380818F7754
:10098000808319BCA7EDB0E08C918E7F8C93808121
:100990008F7E80831092FA0208952091E4003091B6
:1009A000E50095E6A9012091EC00822F817020FFDF
:1009B00006C08091E80080FF06C080E00895209185
:1009C000E80022FD1AC080912E03882389F085302B
:1009D00089F08091EB0085FD0FC02091E4003091FB
:1009E000E50042175307F9F29150E1F684E00895CB
:1009F00082E0089583E0089581E00895EF92FF92E8
:100A00000F931F93CF937C018B010E94CD04C82FBD
:100A1000882371F08C2FCF911F910F91FF90EF9051
:100A20000895F70181917F018093F1000150110930
:100A30000115110579F38091E80085FDF2CF8091D1
:100A4000E8008E778093E8000E94CD04882381F32C
:100A5000C82FE0CFCF93FC0180912E03843031F575
:100A6000C091E900CF702091EC00922F917020FD91
:100A700090E8C92B82E08093E9008091E80080FF34
:100A800012C050E040E060E270E0CF010E94FE043E
:100A9000882321F010922C0310922D038091E800FE
:100AA0008E778093E800CF70C093E900CF910895CE
:100AB000EF92FF920F931F93CF937C018B010E94C3
:100AC000CD04C82F811117C08091E80085FD0BC0AF
:100AD0008091E8008B778093E8000E94CD04882302
:100AE00099F3C82F08C08091F100F70181937F012D
:100AF0000150110949F78C2FCF911F910F91FF9051
:100B0000EF9008958091210387FF13C08091E80042
:100B100082FF06C08091E8008B778093E80004C0D4
:100B200080912E038111F2CF089580912E038823A6
:100B3000D9F38091E80080FFF8CF8091E8008E77AC
:100B4000ECCF982F9093E900242F762F50E089174F
:100B500031F07091EC002091ED005091F00021FDFA
:100B600007C09F5F973071F78093E90081E0089597
:100B70003091EB003E7F3093EB003091ED003D7FF4
:100B80003093ED003091EB0031603093EB007093C7
:100B9000EC002093ED005093F0002091EE0027FD33
:100BA000E0CF80E00895B0E0A0E0E9EDF5E00C943E
:100BB000582AC8EDD0E088818F7E8883E7EDF0E089
:100BC00080818160808384E082BF81E08093FA022B
:100BD00088818E7F888302EE10E0F80110821092E7
:100BE000DA0081EEC82ED12CF601108288818F7731
:100BF000888388818068888388818F7D888319BCF9
:100C000010922E031092200310921F0310921E03C5
:100C100090EEE92EF12CF70180818B7F8083888113
:100C20008160888342E060E080E00E94A105F601D7
:100C300080818E7F8083F8018081816080838081C4
:100C400088608083F70180818E7F808388818061C6
:100C50008883CDB7DEB7E8E00C94742AFC0180915C
:100C600027039091280386179707A0F06115710557
:100C700029F48091E8008E778093E80090E0611578
:100C8000710551F4911108C08091E80082FF35C0D0
:100C900080E00895BC01F2CF80912E038823C9F132
:100CA0008530C9F18091E80083FD31C08091E80072
:100CB00082FDEACF8091E80080FFE1CF8091F300D0
:100CC0002091F200382F6115710519F02830310597
:100CD00058F091E02830310509F090E08091E8006B
:100CE0008E778093E800CBCF84918093F10031968A
:100CF000615071092F5F3F4FE6CF80912E0388230B
:100D000041F0853041F08091E80083FFBDCF81E064
:100D1000089582E0089583E00895FC0180912703FF
:100D20009091280386179707A0F06115710529F4A3
:100D30009091E8009E779093E80090E0611571052E
:100D400051F4911108C08091E80082FF34C080E026
:100D50000895BC01F2CF80912E038823C1F1853024
:100D6000C1F18091E80083FD30C08091E80082FDF0
:100D7000EACF8091E80080FFE1CF8091F3002091DD
:100D8000F200382F6115710519F02830310558F03F
:100D900091E02830310509F090E02091E8002E77AD
:100DA0002093E800CBCF81918093F10061507109CD
:100DB0002F5F3F4FE7CF80912E03882341F085308E
:100DC00041F08091E80083FFBECF81E0089582E08A
:100DD000089583E0089508958091FD02089520917B
:100DE0002E03243099F425E02093E90070E050E0D0
:100DF00040E00E94FE04882321F01092F30210923A
:100E0000F4028091E8008E778093E80008952091A5
:100E10005C012223C9F02091F50227FF15C0E62FBF
:100E2000E695E695E695EE31D8F4E80FF92FF11D39
:100E3000677021E030E001C0220F6A95EAF7209543
:100E40008281282322830895FC01329608962191FD
:100E5000621303C0DF0111971C92E817F907B9F775
:100E600008952091EC023091ED022817390771F0B6
:100E70009093ED028093EC02E091EA02F091EB0294
:100E8000309721F00084F185E02D09950895209197
:100E9000E8023091E9022817390771F09093E902CE
:100EA0008093E802E091EA02F091EB02309721F0A2
:100EB0000680F781E02D09950895E091EA02F0910E
:100EC000EB02309729F00190F081E02D099508950B
:100ED00080E008954091E0028D3E59F48091E10256
:100EE00087FF0DC01092E10241110BC01092D80291
:100EF00008C08E3E81F48091E10218169CF34423D1
:100F000081F08091E2029091E302892B09F05AC0AE
:100F10001092D70208958F3E49F447FFF0CF109208
:100F2000E0028091E1028111ECCFE0CF803F19F423
:100F30001416ACF3E4CF9091E202893F29F419161C
:100F4000F4F61092E202DBCF8A3F19F497FFD7CF75
:100F5000F8CF9091E3028B3F29F497FFD0CF109206
:100F6000E302CDCF8C3F19F41916CCF3C8CF9FE024
:100F7000980F983090F4815F990B21E030E0B9012F
:100F800002C0660F771F8A95E2F7CB01809590919A
:100F9000DF0289238093DF02B2CF8D3F31F480914D
:100FA000D9028E7F8093D902AACF8E3F21F48091FF
:100FB000D9028D7FF7CF8F3F09F0A1CF8091D90261
:100FC0008B7FF0CF08958091D90280FD1AC081FDFA
:100FD00014C082FD14C08091D702882391F08C3315
:100FE00070F425E0829FC00111246CE370E00E9440
:100FF000852A862F672B29F0089582E0089585E0E1
:10100000089581E008958091D90280FD16C081FD88
:1010100016C082FD18C08091D802882391F08C33CD
:1010200090F428E2829FC00111246CE370E00E94DA
:10103000852A862F672B49F008958AE0089584E178
:10104000089588E0089588E2089581E008958D3E2E
:1010500031F40E94030881958093E10208958E3E49
:1010600019F40E940308F8CF8F3E31F40E94030860
:1010700081958093E0020895803F19F40E9403084F
:10108000F8CF893F29F40E94E3078093E202089594
:101090008A3F21F40E94E3078195F7CF8B3F31F41B
:1010A0000E94E30781958093E30208958C3F19F431
:1010B0000E94E307F8CF9FE0980F983070F4815FAB
:1010C000990B21E030E001C0220F8A95EAF7809168
:1010D000DF02822B8093DF0208958D3F31F48091EF
:1010E000D90281608093D90208958E3F21F48091C6
:1010F000D9028260F7CF8F3FB9F78091D90284601F
:10110000F1CF80E008959091F50292FF06C0282F5C
:1011100028712830F9F4877F846093FF06C0282F58
:1011200028712831F1F4877E84612091F60220FF36
:1011300006C0382F38713830D9F4877F816021FF9D
:1011400006C0282F28712831D1F4877E816194FD53
:10115000877E0895282F24712430F9F68B7F8860CC
:10116000DCCF282F2471243101F78B7E8861DDCFFD
:10117000382F3171313019F78E7F8860E0CF282FFA
:101180002171213121F78E7E8861E1CF972F7E304A
:10119000A8F4663098F470E026E0929F600D711D0F
:1011A0001124FB0194E5899FE00DF11D1124EE0F40
:1011B000FF1FEE5EFB4F85919491089580E090E0D3
:1011C0000895CF93DF93EC0182389105A9F1D8F50A
:1011D0008133910509F496C048F58932910509F4E7
:1011E0008AC08A9709F495C0C11521E5D20708F095
:1011F000BCC0C11530E5D30708F014C1C83ED10505
:1012000008F09CC0C03ED10560F5C83AD10508F091
:1012100087C0C53AD10508F0FDC0C130D10509F13C
:101220002097F9F0C430D105E0F440C08533910532
:1012300009F45AC0C997C1F68091F502837089F00C
:10124000C0EED0E00EC0833E910599F170F4803E6F
:10125000910501F1823E910539F68091F50282FDFA
:1012600021C0CE01DF91CF910895863E910561F1B5
:10127000873E910571F1843E910509F0B5CF8091CB
:10128000F60281FFEECF8091F502C7EED0E084FD3B
:101290000DC0E7CF8091F50280FD12C19091F6025A
:1012A00090FFDFCFC3EED0E084FFDBCFD0E0C0E023
:1012B000D8CF8091F50282FD06C19091F60290FD93
:1012C000BFCF84FFCECFF2CF8091F50283FDDDCF7B
:1012D000C8CF8091F50283FDF9C09091F60291FF8D
:1012E000F0CFC4EED0E0BDCF8091F50285FFB9CF3D
:1012F000C9E2D0E0B6CF8091F50285FFB2CFC5E359
:10130000D0E0AFCF8091F50286FFABCFCAE2D0E04C
:10131000A8CF8091F50286FFA4CFC1E3D0E0A1CF92
:10132000CF3BD10518F6C85AD0E0CC0FDD1FC45909
:10133000DE4F0990D881C02DD46493CFC11540E20F
:10134000D40758F4C11581E0D80708F08ACFCD3E04
:10135000D10508F4ABCFD06584CFC11590E4D9078F
:1013600008F4A4CFDF70D06A7CCFC11525E5D20781
:1013700000F5C11534E5D30708F08AC0C11543E56F
:10138000D40708F071C0C11582E5D80708F467C01A
:10139000CE018370992721E030E002C0220F331F75
:1013A0008A95E2F7C695C69580E2C89FE0011124B0
:1013B00052C0C11599E5D907A8F4C11528E5D2078F
:1013C00008F06BC0C11536E5D30708F06FCF8C2F3E
:1013D0000E948308C82FD0E0DC2FCC27CC27DF71F8
:1013E000D0623FCFC1154AE5D40708F45BC0CE01F7
:1013F00090568115904208F059CF8D2F8F710E9421
:10140000830890E0982F882788279F719C012C2BB8
:10141000E901E6CFC55AD0E0C759DE4FC881D0E018
:10142000D0641FCFCE01E4E096958795EA95E1F769
:1014300083702C2F26952695237040E2249F9001DF
:101440001124382B8C2F8370C1E0D0E002C0CC0F68
:10145000DD1F8A95E2F7C22BD32BDC6802CFDC2F8D
:10146000CC27C16FD06AFDCECE018370992721E0D1
:1014700030E002C0220F331F8A95E2F7C695C69569
:1014800090E2C99FE0011124C22BD32BDA68E9CE88
:10149000DC2FCC27C46FD06AE4CEDC2FCC27C06F02
:1014A000D06ADFCE8C2F8F700E94830834E0D695EF
:1014B000C7953A95E1F7CF709C2FEC01D069D1CE5A
:1014C000C9E3D0E0CECEC2EED0E0CBCEC6EED0E0C7
:1014D000C8CE80918602811110928602089580956F
:1014E0009091E70298239093E70208958095909158
:1014F000FB0298239093FB020895809164029091DF
:101500003302981301C008958F5F8770FACFB0E05F
:10151000A0E0EDE8FAE00C94572A8C01C090A702F5
:10152000D090A802E090A902F090AA0280918702D0
:1015300090918802A0918902B0918A02C82AD92A82
:10154000EA2AFB2ACFE1D0E0BC2ED701C6010C2E3F
:1015500004C0B695A795979587950A94D2F780FD14
:1015600009C0219788F7B12C8B2DCDB7DEB7E9E004
:101570000C94732AB8018C2F0E94C6080E94E108BF
:10158000019779F3F1CFCF93DF93EC010E94870AA3
:10159000BE010E94C6080E94E108DF91CF91089524
:1015A000292F9E3080F5863070F590E036E0239F3D
:1015B000800D911D1124682F677023E09695879503
:1015C0002A95E1F725E0289FF001299FF00D1124CD
:1015D000EA50FE4F50E040E080E0219130E0062EDE
:1015E00002C0369527950A94E2F721703327042E1E
:1015F00001C0220F0A94EAF7822B4F5F5F4F4530FC
:10160000510559F7089580E00895292F9E30A0F5DF
:10161000863090F590E036E0239F800D911D1124D7
:10162000282F277041E001C0440F2A95EAF723E0F4
:10163000969587952A95E1F725E0289FF001299F47
:10164000F00D1124EA50FE4F30E020E070E051919F
:10165000DF011197CB01022E02C0969587950A945F
:10166000E2F7817081958527842385278C932F5FEE
:101670003F4F2530310559F70895FC018081918154
:101680000E94C30A92959F70963091F058F4925F31
:101690009F70923058F4803F19F030F4883E30F457
:1016A00081E008959A5FF4CF843FD1F380E00895FC
:1016B000883EB0F3813FD1F7F3CFCF92DF92EF9224
:1016C000FF926C01EE24FF2420E0C114D104E10458
:1016D000F10419F0C701B60120E1C72ED82EE92E7A
:1016E000FF24C114D104E104F10419F0285FC701FB
:1016F000B6016B017C0154E0F694E794D794C7944B
:101700005A95D1F7C114D104E104F10419F02C5F0A
:10171000C701B6016B017C0142E0F694E794D794CF
:10172000C7944A95D1F7C114D104E104F10419F02A
:101730002E5FC701B6019695879577956795672BBC
:10174000682B692B09F02F5F822FFF90EF90DF90BD
:10175000CF9008959C019A9581159F4130F4832F75
:10176000817031FF03C08260089580E00895FC011C
:101770008081813041F49185911114C09285992323
:1017800089F082E00895823041F48185811107C09B
:101790008285811106C083E0089586E0089585E082
:1017A000089584E0089527982F98089526982E98F4
:1017B000089525982D98089556985E980895279A2B
:1017C0002F9A0895269A2E9A0895259A2D9A08956B
:1017D000CF92DF92EF92FF92CF936B017C010E9438
:1017E0005D0BC82F0E94DC0B0E94D90B0E94D60B08
:1017F0000E94D30BC150C73040F4EC2FF0E0EE5EF6
:10180000F24D0C94992A0E94E50BC701B601CF91C5
:10181000FF90EF90DF90CF9008950E94E50B0E941B
:10182000E20B0E94DF0BF1CF0E94E50BFACF20986C
:1018300028982198299822982A9823982B9852988A
:101840005A9853985B983E98469808958098889A3D
:101850008198899A84988C9A85988D9A86988E9A80
:1018600087988F9A08958093F7027093F902609396
:10187000F80280912E038430F9F48093E9008FEF11
:101880009091E800815095FD06C095ED9A95F1F78D
:1018900000008111F5CF8091E80085FF0DC050E078
:1018A00040E063E070E087EF92E00E94FE048091E8
:1018B000E8008E778093E8000895BC0184E00E94E0
:1018C000330C0895BC0183E00E94330C08959C0101
:1018D00084E08093E9009FEF8091E800915085FDBE
:1018E00006C085ED8A95F1F700009111F5CF809142
:1018F000E80085FF0CC050E040E066E070E0C90100
:101900000E94FE048091E8008E778093E80008959D
:10191000CF93DF93EC0180915C018823B1F180913A
:10192000F50287FF32C060E284E08093E9008FEF28
:101930009091E800815095FD06C095ED9A95F1F7DC
:1019400000008111F5CF8091E80085FF1BC08091D8
:101950005C0170E050E040E0811104C050E040E0E4
:1019600068E070E0CE010E94FE048091E8008E776E
:101970008093E80080E2FE01AEEFB2E001900D92AC
:101980008A95E1F7DF91CF91089568E081E0CDCFAE
:10199000EF92FF920F931F93CF93DF930E94DC0B84
:1019A0000E94D90B0E94D60B0E94D30B88E8E82E28
:1019B000F12C8FEF90E0F701918380830AE810E02B
:1019C000F80191838083CCE8D0E0998388830E94DA
:1019D000E50BFFEF20E782E0F15020408040E1F787
:1019E00000C000000E94E20B9FEFE0E7F2E09150A0
:1019F000E040F040E1F700C000000E94DF0B2FEF55
:101A000080E792E0215080409040E1F700C0000064
:101A10000E94D90BEFEFF0E722E0E150F0402040C8
:101A2000E1F700C000000E94D60B8FEF90E7E2E0E4
:101A300081509040E040E1F700C000000E94D30BCD
:101A4000809195028770FFEF8F9FC00111249595BB
:101A50008795959587959927F70191838083F8015C
:101A600091838083998388830E94DC0B0E94D90B29
:101A70000E94D60B0E94D30BCDB7DEB7E6E00C94E4
:101A8000762A8091FB029091E702892B8093AC012A
:101A9000909186029923A1F0892B8093AC018091CB
:101AA0005C018823E1F18091F50287FF38C08EE167
:101AB000EEEAF1E090E08150A0F591110E94690AF0
:101AC00040E250E066E672E08CEA91E00E94482C29
:101AD000892B21F180E2ECEAF1E0A6E6B2E0019088
:101AE0000D928A95E1F7E091EA02F091EB023097CE
:101AF000A9F080915C01882359F08091F50287FF5D
:101B000007C08091AC018093AD0186E08093AC0169
:101B10000280F381E02D8CEA91E00995089586E03A
:101B2000C7CF2191222339F29F5FC5CFCF93DF9397
:101B3000EC0181E0898B8091FB029F81892B80934E
:101B4000FB028091E7029885892B8093E7020E942F
:101B5000410DEA81FB81309729F06C897D89CE01A6
:101B600006960995DF91CF910895EF92FF920F931A
:101B70001F93CF93DF93EC018A85811134C0EB80F2
:101B8000FC8087E5F81A26E12E9DC0012F9D900D5F
:101B90001124DC01A65EBE4F1496ED91FC911597C1
:101BA000309731F054966D917C91805E9E4F0995EF
:101BB00086E18E9D80018F9D100D1124065E1E4FC3
:101BC000F80187810E94760AF80180850E946F0AD9
:101BD0000E94410D188219861B861E821D8210925A
:101BE000E6021092E502CDB7DEB7E6E00C94762A65
:101BF000882321F00E946F0A0E94410D0895809170
:101C0000E402882329F082E20E94F80D1092E40297
:101C10000895882339F09091E702982B9093E7027A
:101C20000E94410D0895882321F00E94760A0E94A7
:101C3000410D0895882339F09091FB02982B9093E1
:101C4000FB020E94410D089568EE7EEF90E080E077
:101C50000E94A72C60E082E090E00E94892C60E066
:101C600083E090E00E94892C1092870210928802F3
:101C70001092890210928A0260E084E090E00E9453
:101C8000892C64E082E290E00E94892C60E085E08B
:101C900090E00E94892C60E086E090E00E94892C10
:101CA0006FEF87E090E00E94892C40E050E0BA019D
:101CB00088E090E00E949B2C60E08DE090E00E9424
:101CC000892C40E050E0BA0188E190E00E949B2C12
:101CD00060E087E190E00E94892C40E050E0BA018A
:101CE0008CE190E00E949B2C70E060E080E290E04C
:101CF0000E94A72C40E050E0BA0188E190E00E94E9
:101D00009B2C1092950210929602109297021092BC
:101D1000980284E08093950240919502509196023A
:101D200060919702709198028FE090E00E949B2C46
:101D300040E050E0BA0183E190E00E949B2C0895BE
:101D4000CF93C82F873078F58091160190911701B5
:101D5000892B39F564E670E080E40E947529909340
:101D6000170180931601892BD1F464E670E082E1BB
:101D70000E94E3299093170180931601892B79F42F
:101D800081E090E001C0880FCA95EAF764E670E050
:101D900080950E94E32990931701809316010E9479
:101DA000362ACF9108958A30B1F038F4883069F03E
:101DB000893071F0209A2898F4CF8C3091F070F02F
:101DC0008D30C1F73E9A4698ECCF219A2998E9CFF9
:101DD000229A2A98E6CF239A2B98E3CF529A5A98C0
:101DE000E0CF539A5B98DDCF80E290E090931701AB
:101DF000809316018091CC0181110EC00E946F2941
:101E000081E08093CC012FEF83ED90E3215080405F
:101E10009040E1F700C0000064E670E080E40E94BA
:101E200075299093170180931601892B09F04EC0F4
:101E300064E670E080E00E94E329909317018093AC
:101E40001601892B09F042C064E670E080E00E9430
:101E5000E3299093170180931601892BB9F564E665
:101E600070E08FE30E94E32990931701809316019D
:101E7000892B61F50E94362A64E670E080E40E94B6
:101E800075299093170180931601892BF9F464E664
:101E900070E08CE00E94E329909317018093160173
:101EA000892BA1F464E670E080E00E94E32990931E
:101EB000170180931601892B49F464E670E08FE3E3
:101EC0000E94E32990931701809316010E94362AFD
:101ED000809116010895CF93873050F580911601B7
:101EE00090911701C0E0892B71F464E670E081E401
:101EF0000E9475299093170180931601892B31F068
:101F0000C0E00E94362A8C2FCF91089584E690E09D
:101F10000E94122A97FF05C0909317018093160123
:101F2000EFCFC82FC0951092170110921601E9CF7C
:101F3000CFB18FB1869586958C73C3708C2BC82FCB
:101F4000C095E1CF1F920F920FB60F9211242F93DD
:101F50003F934F935F936F937F938F939F93AF9331
:101F6000BF93EF93FF938091E10082FF09C08091BE
:101F7000E20082FF05C08091E1008B7F8093E10049
:101F80008091DA0080FF24C08091D80080FF20C0BB
:101F90008091DA008E7F8093DA008091D90080FFF3
:101FA0009DC080E189BD82E189BD09B400FEFDCFFD
:101FB00081E080932E038091FA02811109C00E9472
:101FC000AE040E94D3058091E20084608093E20019
:101FD0008091E10080FF17C08091E20080FF13C074
:101FE0008091E2008E7F8093E2008091E200806128
:101FF0008093E2008091D80080628093D80019BC61
:1020000085E080932E038091E10084FF2BC08091B6
:10201000E20084FF27C080E189BD82E189BD89B5E6
:10202000982F917080FFFBCF8091D8008F7D809397
:10203000D8008091E1008F7E8093E1008091E200E2
:102040008F7E8093E2008091E20081608093E200C5
:1020500080912003882309F447C084E080932E03F5
:1020600080912E038091E10083FF27C08091E200E0
:1020700083FF23C08091E100877F8093E10082E0AD
:1020800080932E03109220038091E1008E7F809335
:10209000E1008091E2008E7F8093E2008091E20077
:1020A00080618093E20042E060E080E00E94A10550
:1020B0008091F00088608093F000FF91EF91BF91D4
:1020C000AF919F918F917F916F915F914F913F91D0
:1020D0002F910F900FBE0F901F90189519BC109262
:1020E0002E031092FA0274CF8091E30087FD93E0F3
:1020F00090932E03B5CF78941F921FB61F92112490
:102100008F939F93AF93BF938091EF029091F002D2
:10211000A091F102B091F2020196A11DB11D809330
:10212000EF029093F002A093F102B093F202BF91FC
:10213000AF919F918F911F901FBE1F9018959C018A
:102140004FB7F8948091EF029091F002A091F102C4
:10215000B091F2024FBF821B930B08952FB7F894F2
:102160008091EF029091F002A091F102B091F20201
:102170002FBF08950E94AE109C019091E0028091C3
:10218000E102982B21F03093DD022093DC02909144
:10219000E2028091E302982B21F03093DB0220933E
:1021A000DA02E091EA02F091EB02309749F082E026
:1021B0008093DE020480F581E02D8EED92E009959A
:1021C000089590E080E00E94470790E080E00E9440
:1021D00031071092E7020E94410D86E0EEEDF2E039
:1021E000DF011D928A95E9F71092D8021092D7026A
:1021F0001092D9020E94BA100895CF92DF92EF9206
:10220000FF92CF93DF93CDB7DEB7A0970FB6F894C8
:10221000DEBF0FBECDBF0E94E80B6B017C01809139
:102220002D038823B1F02FEF80E792E0215080400A
:102230009040E1F700C0000085E08983C701B60146
:102240000E945D0B8A838EEF8B83CE0101960E94E4
:102250002A05C092A702D092A802E092A902F092A9
:10226000AA020E94E110A0960FB6F894DEBF0FBE3E
:10227000CDBFDF91CF91FF90EF90DF90CF90089589
:102280000F931F9341E050E060E070E004C0440F02
:10229000551F661F771F8A95D2F78091A7029091EC
:1022A000A802A091A902B091AA028A019B01082765
:1022B00019272A273B27C901B8010E94FD101F9149
:1022C0000F9108950F931F9341E050E060E070E09C
:1022D00004C0440F551F661F771F8A95D2F7CB01A4
:1022E000BA0160957095809590950091A702109124
:1022F000A8022091A9023091AA02602371238223AF
:1023000093230E94FD101F910F91089590916502F3
:102310008095892380936502282F277091F4282FB8
:10232000082E000C330B9217130659F09091F60209
:1023300092FF07C08595859585950E946211109240
:1023400065020895CF93C091F602C2FB992790F9D8
:10235000981791F080FBC2F9C093F6026091F502E4
:1023600084E090E00E94892C6C2F82E290E00E9431
:10237000892C82E00E948611CF9108950F931F93BC
:1023800041E050E060E070E004C0440F551F661F5C
:10239000771F8A95D2F78091A7029091A802A09109
:1023A000A902B091AA028A019B01082B192B2A2BA2
:1023B0003B2BC901B8010E94FD101F910F91089598
:1023C00060938702709388028093890290938A02B7
:1023D0000E94E110089580915C01EEEAF1E088230B
:1023E00061F08091F50287FF08C08EE1DF011D9248
:1023F0008A95E9F70E94E110089586E0F7CFAAE2F6
:10240000B0E0E5E0F2E10C945D2A81E293E02091F6
:10241000F100FC012193CF01F3E089329F07B9F766
:1024200080912203893009F444C018F5823009F400
:10243000BCC0833009F46FC0813031F58091210335
:10244000813A11F58091E800877F8093E8008091C0
:10245000250390912603892B41F560E28EEF92E0EF
:1024600070E00E948D068091E8008B778093E800F1
:102470000BC08B3009F46CC008F486C0823409F4B8
:10248000A5C0853409F4BFC08091E80083FF5AC21B
:1024900080912103909122039A3008F053C2E92FD2
:1024A000F0E0E75EF24D0C94992A60E090E080E065
:1024B000D7CF80912103813239F780912503909104
:1024C0002603009711F00297F9F68091E800877FC4
:1024D0008093E8008091E80082FF18C09091F3009B
:1024E0008091F200029731F48091F100813011F077
:1024F000863021F48091F1008093FD028091E80004
:102500008B778093E8000E948205BECF80912E03D6
:102510008111E0CFB9CF80912103813A09F0B4CF86
:102520008091250390912603892B09F0ADCF8091EE
:10253000E800877F8093E8008091E80080FFFCCF6F
:1025400080915C018093F1008091E8008E77D9CF73
:1025500080912103813209F097CF809125039091DA
:102560002603892B09F090CF8091E800877F809324
:10257000E8000E9482058091230380935C01109201
:10258000FB020E94EB1180CF80912103813209F080
:102590007BCF8091E800877F8093E8000E948205CE
:1025A000809124038093FC026FCF80912103813AB4
:1025B00009F06ACF8091E800877F8093E8008091DE
:1025C000E80080FFFCCF8091FC02BCCF809121030A
:1025D000803C09F059CF8091250390912603029702
:1025E00039F58091230390912403892B09F580917B
:1025F000E800877F8093E8006EE070E08CE098E070
:102600000E942E0680CF80912103803C09F03CCFB0
:102610008091250390912603079751F48091E8005B
:10262000877F8093E80062EB70E08AE597E0E8CF6F
:102630008091EB0080628093EB0026CF803899F088
:10264000823809F07FC1809125038F70873008F0B0
:1026500079C18093E9008091EB0085FB882780F9A0
:102660001092E90006C080911E0390911F03911102
:1026700082609091E800977F9093E8008093F1004A
:102680001092F1008091E8008E7758C1882309F4F8
:1026900046C1823009F056C180912303811149C19E
:1026A000809125038F702FEF280F263008F04AC144
:1026B0008093E9002091EB0020FF3BC1933031F47F
:1026C0008091EB0080628093EB0033C19091EB002E
:1026D00090619093EB0021E030E001C0220F8A95D9
:1026E000EAF72093EA001092EA008091EB008860FC
:1026F000EACF811127C1109123031F778091E30056
:102700008078812B8093E3008091E800877F80931D
:10271000E8000E9482058091E80080FFFCCF809154
:10272000E30080688093E30082E0111183E08093EE
:102730002E0308C18058823008F004C18091230321
:10274000909124038C3D23E09207A1F583E08A83D6
:102750008AE289834FB7F894DE01139620E03EE0C9
:1027600051E2E32FF0E050935700E49120FF03C0C3
:10277000E295EF703F5FEF708E2F90E0EA30C0F08F
:10278000C7968D939D932F5F243159F74FBF80914A
:10279000E800877F8093E8006AE270E0CE0101964E
:1027A0000E948D068091E8008B778093E800CAC074
:1027B000C096E7CF2091250330912603492F552756
:1027C0004330510551F1A0F44130510509F459C08D
:1027D00062E770E08BE198E04230510509F0B2C049
:1027E0002091E800277F2093E8000E942E06DACF90
:1027F0004132510539F14232510591F14F305105C5
:1028000009F0A0C0E7EEF8E0649170E085EE98E092
:102810006115710509F496C0E3CF992781309105C0
:1028200071F0009731F0029709F08CC0EFE9F8E001
:1028300002C0E1EEF8E0649170E0CF01E9CFE7EB90
:10284000F8E0F9CF2330310508F07CC0220F331FA8
:10285000F901ED55FE4F8081918169E070E0C0CFB4
:102860002330310508F06EC0F901EE0FFF1FE3566B
:10287000FE4F8081918126563E4FF901608170E0C4
:10288000C7CF62E170E08DE898E0AACF803809F008
:1028900059C08091E800877F8093E80080912003F1
:1028A0008093F100EFCE81114DC0109123031230BF
:1028B00008F048C08091E800877F8093E80010937B
:1028C00020030E948205112311F084E005C080914D
:1028D000E30087FDFACF81E080932E0342E061ECB4
:1028E00081E00E94A10542E261EC84E00E94A10522
:1028F00042E261EC82E00E94A10542E260EC83E0EA
:102900000E94A10542E361EC85E00E94A10542E33B
:1029100060EC86E00E94A10580912E0313C0809197
:102920002303813079F481E0933009F080E08093D3
:102930001F031092E9008091E800877F8093E800F0
:102940000E9482058091E80083FF0AC08091E80020
:10295000877F8093E8008091EB0080628093EB009A
:10296000AA96E3E00C94792A1F920F920FB60F9269
:1029700011242F933F934F935F936F937F938F9384
:102980009F93AF93BF93CF93DF93EF93FF93D09138
:10299000E900DF708091EC00C82FC17080FDC0E8B5
:1029A0001092E9008091F000877F8093F000789486
:1029B0000E94FF111092E9008091F00088608093DE
:1029C000F000CD2BCF70C093E900FF91EF91DF9124
:1029D000CF91BF91AF919F918F917F916F915F91B7
:1029E0004F913F912F910F900FBE0F901F90189510
:1029F0001092FB020E94EB112FEF84E39CE0215028
:102A000080409040E1F700C0000088E19AE00FB6F6
:102A1000F894A895809360000FBE90936000FFCF5C
:102A2000882391F19CEF980F913A40F4682F8CEA3B
:102A300091E00E9407070E94410D089590E2980FCF
:102A4000983050F4877091E001C0990F8A95EAF7A9
:102A5000892F0E94760AEFCF9BE5980F933028F4D8
:102A600090E080E00E944707089598E5980F97311D
:102A700028F490E080E00E94310708958D3E20F018
:102A80000E946A070E94BA100895CF93DF93EC0169
:102A90000E941015CE010E94AA0BC05ED109289792
:102AA00028F40E94130EDF91CF9108950E94F80D33
:102AB000FACF8FE39CE90197F1F700C00000809105
:102AC000D201833059F0853011F0813021F48DE44A
:102AD00091E00E9445151092D20108958AE491E098
:102AE000F8CF8FE39CE90197F1F700C000008091D7
:102AF000D001833059F0853011F0813021F48DE41C
:102B000091E00E9445151092D00108958AE491E069
:102B1000F8CF8FE39CE90197F1F700C000008091A6
:102B2000CE01833059F0853011F0813021F485E3F6
:102B300090E00E9445151092CE01089582E392E044
:102B4000F8CFCF93C82F882309F442C08CEF8C0FA5
:102B5000813A08F065C080915C018823D9F18091A9
:102B6000F50287FF37C0EC2FE695E695E695F0E095
:102B7000E455FE4F828190E04C2F477021E030E019
:102B800002C0220F331F4A95E2F782239323892B39
:102B900061F06C2F8CEA91E00E9407070E94410DC2
:102BA00023C08091F50287FF23C0EC2FE695E695C0
:102BB000E695F0E0E455FE4FC77021E030E001C03B
:102BC000220FCA95EAF78281822B82830E94410DEF
:102BD000CF910895EEEAF1E084EB91E02191C217E4
:102BE000C1F28E179F07D1F780915C018111D9CF77
:102BF000AEEAB1E0EFEF80E09D91C91739F3EF3F06
:102C000019F4911101C0E82F8F5F8630A9F7EF3FCB
:102C1000E9F20E2E000CFF0BE455FE4FC283D6CF17
:102C200080E28C0F883068F4C77021E030E001C08A
:102C3000220FCA95EAF78091FB02822B8093FB0258
:102C4000C5CFEBE5EC0FE33040F4F0E0E759FE4F81
:102C5000808190E00E944707BBCFE8E5EC0FE731A9
:102C600050F4F0E0EE0FFF1FE459FE4F8081918198
:102C70000E943107ADCFCD3E08F4AACF8C2F0E9421
:102C800027080E94BA10A4CF1F93CF93DF93182F69
:102C9000D0E0C0E0893311F4C0E5D0E0812F0E947C
:102CA000A115209739F4812F0E941015DF91CF9143
:102CB0001F9108958FE99FE00197F1F700C0000090
:102CC0002197EFCF0F931F93CF93DF93C62FD42F6E
:102CD000022FFC0182818823A9F060932B030E94BC
:102CE000AE1090932A0380932903C77081E001C03E
:102CF000880FCA95EAF70E941A0EDF91CF911F91B3
:102D00000F91089580912B03681332C0809129039D
:102D100090912A030E949F10853A910548F510E290
:102D20001D0FCD17B9F080E28C0F883040F4C770CA
:102D300081E001C0880FCA95EAF70E94130E18308F
:102D400048F481E09D2F977001C0880F9A95EAF7AB
:102D50000E941A0E802F0E944416183070F6D77009
:102D600081E001C0880FDA95EAF70E94130EC5CF03
:102D7000C77081E001C0880FCA95EAF7F6CFB0E0CE
:102D8000A0E0E5ECF6E10C94562AEC018AE0A82ECE
:102D9000FE012491222309F497C0213009F03EC09E
:102DA00031968491813031F42296FE0184910E9403
:102DB000441607C0823039F42296FE0184910E94A5
:102DC000A1152196E5CF833031F42296FE0184913E
:102DD0000E941015F6CF843009F074C02296FE01CF
:102DE000249190E080E0FE0131962053330B2A308D
:102DF000310548F0019728F3EFE9FFE03197F1F74B
:102E000000C00000F7CFA89EA001A99E500D11247C
:102E1000C901840F951F2491EF01E5CFE22FF0E067
:102E2000E850FE4FB490822F86958695869590E067
:102E3000FC01E851FE4FE4902770F12C022E02C0F5
:102E4000F594E7940A94E2F731E0E322FF24FC01D1
:102E5000E852FE4FC490D12C022E02C0D594C794E4
:102E60000A94E2F7E1E0CE22DD24FC01E853FE4FB4
:102E7000049110E002C0159507952A95E2F70170BC
:102E80001127E114F10419F081EE0E94A115C1147B
:102E9000D10419F086EE0E94A1158B2D0E944416D4
:102EA000C114D10419F086EE0E941015E114F1044A
:102EB00019F081EE0E9410150115110509F481CF5A
:102EC0008CE275CFEF017DCFCDB7DEB7EAE00C9491
:102ED000722ACF93C82F84EC91E00E94BF168C2FEA
:102EE0000E9440111092F501CF910895CF93DF9386
:102EF000EC010E94AA0B9E01205E310928303105A9
:102F000040F40E941A0E8C2F0E94A115DF91CF91E0
:102F100008950E94090EF7CFCF93DF93EC010E9432
:102F20007617C933D10549F42FEF87EE93E021508E
:102F300080409040E1F700C00000CE010E9445159E
:102F4000DF91CF910895CF93DF93EC018881833097
:102F500061F48DE491E00E948C178DE491E00E9471
:102F60008C178DE491E00E948C178881843020F0CA
:102F70008DE491E00E948C17DF91CF9108950E941B
:102F8000A3170895CF93DF93EC018881833061F418
:102F900085E390E00E948C1785E390E00E948C17F7
:102FA00085E390E00E948C178881843020F085E3CF
:102FB00090E00E948C17DF91CF9108950E94B70B8B
:102FC0008093D201833039F0853051F0813039F46B
:102FD0008DE491E002C08AE491E00E9476170895A2
:102FE0008DE491E00E948C17F3CF0E94B70B809381
:102FF000D001833039F0853051F0813039F48DE4DF
:1030000091E002C08AE491E00E94761708958DE471
:1030100091E00E948C17F3CF0E94B70B8093CE01F2
:10302000833039F0853051F0813039F485E390E018
:1030300002C082E392E00E947617089585E390E053
:103040000E948C17F3CFB0E0A0E0E9E2F8E10C9425
:10305000572A8091160190911701892B91F0809148
:103060008B028F5F80938B0281110BC00E94F40E44
:1030700090E09093170180931601892B11F40E9420
:10308000C80C09E912E07801B12CD0E087E0C82E25
:10309000CD0E8D2F0E94A00E8C2D0E94A00E8D2F84
:1030A0000E946B0F8F73F7019081D12C891719F053
:1030B0008083DD24D3948C2D0E946B0F8F73F701D6
:1030C0009781891709F444C0878381E08D29B82A44
:1030D0000E94170CDF5FFFEFEF1AFF0AD730B1F63F
:1030E000D0918F02DD2309F47AC00E94AE102091A6
:1030F0008D0230918E02AC01421B530B9A019093CA
:103100008E0280938D024F3F510509F018F5452B33
:10311000E1F010928F0210928C02E0919302F091F4
:103120009402AF01425F5F4F90E030E080818823DE
:1031300021F0281790F010829D2F3196E417F507A3
:10314000A9F730938F0290938C02B11057C04AC0F8
:1031500080E0BCCF2FEF30E0DCCF821B80833D2F9F
:10316000ECCF9170892B09F47CC0809191029091F1
:1031700092028130984780F010922C036091A70250
:103180007091A8028091A9029091AA020E94E80B76
:10319000109292021092910280919102909192026B
:1031A000019690939202809391028B2DCDB7DEB75A
:1031B000E9E00C94732A0E94E20B5AC0892BA9F310
:1031C00010929202109291026091A7027091A8024F
:1031D0008091A9029091AA020E94E80BE6CFDB2D14
:1031E000B11006C080918C02882349F1D11106C02C
:1031F0000E94AE1090938E0280938D02A091930254
:10320000B091940280918F02EBEAF2E029EB32E078
:103210004EE15191E80199918E01591751F05C915D
:10322000511107C04C93BF0161507109EB019883A4
:1032300081E011962E173F0761F780938F028091EE
:1032400091029091920220912C03222309F4B6CF8F
:10325000009709F086CF0E94D90B0E94D60B0E94DE
:10326000D30BD0919002DD2309F4A5CF0E94D60B99
:1032700081E0D827D093900278CFA3E2B0E0E3E4D6
:10328000F9E10C944E2A3C01DC0113968D919C913E
:103290001497892B41F08C9111969C9189238F3F33
:1032A00011F00C946D22A396E2E10C946A2A0E941C
:1032B000870A182F682F89819A810E94050B6981DE
:1032C0007A81812F0E94C6084C01F301828181110D
:1032D00081C0C40181509545D4018F3F910508F408
:1032E000B7C0F301F281FBA3FF2309F41EC3AF3F74
:1032F000B10509F008F4C8C0AC32BD4509F4ABC053
:103300001092F301D0902C03DD2009F48AC3ABA105
:10331000A111A7C0E091F401E330A0F481E08E0F89
:103320008093F401F0E0EE0FFF1FE553FD4FD30152
:103330008D919C919183808382E08983CE01019657
:103340000E942A05BFEFE3EDF0E3B150E040F0400A
:10335000E1F700C000008091F401833009F081C0E2
:1033600010922C031092F4019091CC028091D20221
:1033700098130C9467229091CB028091D1029813FC
:103380000C9467229091CE028091D40298130C94F1
:1033900067229091CD028091D30298130C946722FA
:1033A0009091D6028091D00298130C94672290914C
:1033B000D5028091CF0298130C94672284E0898310
:1033C00081E080932D038EEF8A83CE0101960E94C7
:1033D0002A0547C08091180190911901019609F4BE
:1033E00078CF0AE111E0F12CE12CDD24D394809117
:1033F0001801909119018E159F050CF46ACFD80120
:1034000016968C9116978823E9F019968D919C91C8
:103410008815990539F48091E5029091E6028815A6
:10342000990581F0F801D786948683868189811178
:1034300003C0C8010E94960DC80106960E94B50DF2
:103440001092E702FFEFEF1AFF0A0A5E1F4FCFCF7D
:1034500025E5B22746CF8091F30191E0892780933B
:10346000F30180916502877009F41DCFD301129694
:103470008C91882309F417CF8091F60282FF13CF35
:1034800082E00E9486110FCF8091F301882309F416
:10349000E8C01092F301A03CB105E8F5A038B105F1
:1034A00008F0A9C0A034B10508F06FC021E030E0F9
:1034B00040E050E060E070E080E090E00A2F0E9481
:1034C0009F2AE091D3012E2BE091D4013E2BE09175
:1034D000D5014E2BE091D6015E2BE091D7016E2BEA
:1034E000E091D8017E2BE091D9018E2BE091DA0199
:1034F0009E2B2093D3013093D4014093D501509358
:10350000D6016093D7017093D8018093D90190932D
:10351000DA014D01F7CEAF3FB10509F038F68D0164
:10352000005C110921E030E040E050E060E070E034
:1035300080E090E00E949F2AE091EB012E2BE09129
:10354000EC013E2BE091ED014E2BE091EE015E2B64
:10355000E091EF016E2BE091F0017E2BE091F10103
:103560008E2BE091F2019E2B2093EB013093EC0126
:103570004093ED015093EE016093EF017093F001E1
:103580008093F1019093F201C4CF8D010054110991
:1035900021E030E040E050E060E070E080E090E06A
:1035A0000E949F2AE091DB012E2BE091DC013E2B53
:1035B000E091DD014E2BE091DE015E2BE091DF0119
:1035C0006E2BE091E0017E2BE091E1018E2BE091EA
:1035D000E2019E2B2093DB013093DC014093DD015F
:1035E0005093DE016093DF017093E0018093E1016D
:1035F0009093E2018ECF8D010058110921E030E057
:1036000040E050E060E070E080E090E00E949F2A9F
:10361000E091E3012E2BE091E4013E2BE091E501E6
:103620004E2BE091E6015E2BE091E7016E2BE091DD
:10363000E8017E2BE091E9018E2BE091EA019E2BBF
:103640002093E3013093E4014093E5015093E601B8
:103650006093E7017093E8018093E9019093EA0198
:1036600058CFA034B10508F06BC0E091D301F091C0
:10367000D4015090D5014090D6013090D7012090D0
:10368000D8013091D90139A38091DA018AA321E0D0
:1036900030E040E050E060E070E080E090E00A2F31
:1036A0000E949F2AA22EAE22B32EBF22C42EC52076
:1036B000D52ED420E62EE320F72EF22009A10823F0
:1036C0001AA119230E94B82A09F01CCEA03CB1050A
:1036D00008F096C0A038B10508F0F7C0A034B105D5
:1036E00008F0C3C021E030E040E050E060E070E06E
:1036F00080E090E00A2F0E949F2A20953095409507
:10370000509560957095809590952E233F23452187
:10371000542163217221A9A18A23BAA19B2320935A
:10372000D3013093D4014093D5015093D6016093D7
:10373000D7017093D8018093D9019093DA0191CE8B
:10374000A038B105F0F4E091DB01F091DC0150907C
:10375000DD014090DE013090DF012090E00190918A
:10376000E10199A32091E2012AA321E030E040E0A9
:1037700050E060E070E080E090E08D0100541109BD
:103780008FCFA03CB105F0F4E091E301F091E401AA
:103790005090E5014090E6013090E7012090E8016B
:1037A0003091E90139A38091EA018AA321E030E058
:1037B00040E050E060E070E080E090E08D01005873
:1037C00011096ECFE091EB01F091EC015090ED0109
:1037D0004090EE013090EF012090F0019091F101C6
:1037E00099A32091F2012AA321E030E040E050E0CB
:1037F00060E070E080E090E08D01005C110950CF46
:10380000AF3FB10511F008F06DCF8D01005C1109DB
:1038100021E030E040E050E060E070E080E090E0E7
:103820000E949F2A209530954095509560957095FF
:10383000809590952E233F234521542163217221A9
:10384000E9A18E23FAA19F232093EB013093EC0191
:103850004093ED015093EE016093EF017093F001FE
:103860008093F1019093F201FCCD8D010054110978
:1038700021E030E040E050E060E070E080E090E087
:103880000E949F2A2095309540955095609570959F
:10389000809590952E233F23452154216321722149
:1038A000E9A18E23FAA19F232093DB013093DC0151
:1038B0004093DD015093DE016093DF017093E001DE
:1038C0008093E1019093E201CCCD8D010058110964
:1038D00021E030E040E050E060E070E080E090E027
:1038E0000E949F2A2095309540955095609570953F
:1038F000809590952E233F234521542163217221E9
:10390000A9A18A23BAA19B232093E3013093E40168
:103910004093E5015093E6016093E7017093E8015D
:103920008093E9019093EA019CCDAF3FB10511F07E
:1039300008F0E8CCA034B10550F5A090D301B090C8
:10394000D401C090D501D090D601E090D701F0907D
:10395000D801F091D901E091DA0121E030E040E0B6
:1039600050E060E070E080E090E00A2F0E949F2A23
:10397000A222B322C422D522E622F722082F0F2347
:10398000192F1E230E94B82A09F0BCCC6ACDA0389A
:10399000B105E0F4A090DB01B090DC01C090DD0146
:1039A000D090DE01E090DF01F090E001F091E101C4
:1039B000E091E2018D010054110921E030E040E086
:1039C00050E060E070E080E090E0D0CFA03CB10536
:1039D000A0F4A090E301B090E401C090E501D09084
:1039E000E601E090E701F090E801F091E901E09153
:1039F000EA018D0100581109E0CFA090EB01B090D1
:103A0000EC01C090ED01D090EE01E090EF01F0905C
:103A1000F001F091F101E091F2018D01005C1109DA
:103A2000CCCF80912D03882381F0ABA187E0A11139
:103A300086E08983F30180818A8381818B838EEF85
:103A40008C83CE0101960E942A05FFEA8F16FDE5C0
:103A50009F0609F0C1C0D30112968C918823C9F149
:103A60008091950291E0980F9770887F953008F4C7
:103A7000892B80939502809195028770BFEF8B9F71
:103A8000C0011124959587959595879599279093D1
:103A900089008093880090938B0080938A00909394
:103AA0008D0080938C004091950250919602609118
:103AB0009702709198028FE090E00E949B2C609199
:103AC000A7027091A8028091A9029091AA020E9477
:103AD000E80BC40197558F3F910511F008F02EC1F6
:103AE00020911801309119012817390724F4909377
:103AF000190180931801F301228136E1389F70018A
:103B0000399FF00C11248701065E1E4FD801509694
:103B10002C935097928116968C911697992309F4BD
:103B2000FFC01A969C928E9219978F5F16968C936F
:103B30000E94AE10F8019687858780918602878360
:103B40008091E7029091FB02892B80870190F081A0
:103B5000E02D309741F0D80154966D917C91C701CA
:103B6000805E9E4F09959092E6028092E5028091D8
:103B7000E402882309F4AAC10091FB021091860295
:103B80000E94AE108854944F9093C9028093C8024B
:103B9000F3018281882309F499C1102B1D7909F062
:103BA00074C18114F5E59F0608F054C1811423E522
:103BB000920608F0EBC0811430E5930608F0E1C0EE
:103BC000811480E4980608F063C196EE891691048A
:103BD00009F4DCC0C40162C1F401E25BFD45E431DB
:103BE000F10508F076CFED5DF24DD30112968C9180
:103BF0000C94992A882309F434CC80E094E00E9444
:103C0000BF1681E090E00E9469172BCC882309F44D
:103C100028CC84EF93E0F3CF882309F45ACF8AEDC0
:103C200093E00E94BF1655CF882309F452CF80EC51
:103C300093E0F7CF882309F414CC86EA93E00E943E
:103C4000BF1682E090E0DFCF882309F442CF86E8F8
:103C500093E0E7CF882309F404CC82E793E0EFCF29
:103C6000882309F436CF80E593E0DBCF882309F47D
:103C7000F8CB8CE493E0C3CF882309F4F2CB88E43B
:103C800093E0BDCF882309F4ECCB84E493E0B7CF75
:103C9000882309F4E6CB80E493E0D1CF882309F4AC
:103CA000E0CB80E293E00E94BF16DBCB882309F4CF
:103CB000D8CB8CE093E0F7CF882309F4D2CB8CEEFD
:103CC00092E0F1CF882309F4CCCB8CEC92E0EBCFDF
:103CD000882309F4C6CB88EB92E0E5CF882309F46A
:103CE000C0CB88E992E0DFCF882309F4BACB80E823
:103CF00092E085CF882309F4B4CB8091F50181113E
:103D000008C08CE792E00E94BF1681E08093F50125
:103D1000A8CB88E792E00E94BF161092F501A1CBD4
:103D2000882309F424CFF8018189882309F41FCF5F
:103D3000C701805E9E4F0E94B50D19CFFEEA8F1617
:103D4000FDE59F0609F013CFD30112968C918823CD
:103D500009F487CB8091E402882319F00E94FF0DBB
:103D600080CB1092FB020E94690A0E94AE10885418
:103D7000944F9093C9028093C80281E08093E4023B
:103D800070CB8114A2E59A0608F024CFD3011296D5
:103D90008C918823A9F010922B03BCE58B16BDE50E
:103DA0009B0609F436C108F0D8C08114FCE59F06D3
:103DB00009F4E3C02FED82162CE5920609F41CC12C
:103DC000F301828100811181882309F426C1C80191
:103DD0000E94870AF82E682FC8010E94050BB801BF
:103DE0008F2D0E94C6080E94E1088C01A82ED301E5
:103DF0001296FC9012971596BC90B2943FE0B322B5
:103E0000809165028770C1F0FF20A9F0812F807F2B
:103E1000803421F080E2800F883070F08091F602CB
:103E200082FF0AC082E00E9486118091650287703D
:103E3000DD24D3948111D12CC12EC2942FE0C22253
:103E4000BBE0BC1508F44AC1EC2DF0E0E95CF24D92
:103E50000C94992A8114B9E59B0660F48114E8E575
:103E60009E0608F093CFF4E18F16F5E59F0609F062
:103E7000B1CE8CCFC40190568115904208F0AACEE5
:103E8000D30115968C91807F39F40E94FF0D1EC0DE
:103E9000F3018581807FD1F0C40199271092E70258
:103EA0008832910558F48E31910570F4049768F3C7
:103EB00082E08093E7020E94410D06C08D32910599
:103EC000B9F3F0F48A9709F70E94410D24EF8216A6
:103ED0002CE5920699F1D8F489ED88168CE59806C0
:103EE00049F19AED89169CE59906A1F1A8ED8A168B
:103EF000ACE59A0609F04ACF26E241EE61EE16C023
:103F00008C34910509F38D329240F1F2BECFB6EFB9
:103F10008B16BCE59B06D1F0A8F027E245EE66EED5
:103F2000F7EF8F16FCE59F0609F030CFC3010E9422
:103F3000621697CA27E245EE65EEF8CF26E241EE1B
:103F400060EEF4CF27E245EE64EEF0CF26E241EEDC
:103F500062EEECCF28E241E0EFCF3EE583163DE58F
:103F6000930609F44CC008F456C099EA89169DE5F9
:103F7000990609F025CF0E94F8141092FB020E94C6
:103F8000EB11AFEFB4E3ECE0A150B040E040E1F75B
:103F900000C00000F89481E08093E00080E280930C
:103FA000D8001092C9008FE19EE40197F1F700C09C
:103FB00000001DBA109268001CBC10BE1FBA1092FF
:103FC0007A0010926E0010926F00109271001092A1
:103FD00072001092C9001092BC0014B817B81AB839
:103FE0001DB810BA1092BC0015B818B81BB81EB88E
:103FF00011BA0C94003F35CA0E94240EBCCF8091A8
:10400000F60282FB882780F991E089270E94A2119D
:10401000D7CE81E0FBCF80E0F9CFC8010E94D00A63
:10402000F82EDDCEE12FEF70EE2E107F19F0E29426
:1040300090EFE922FF20B9F0EE2069F080E2800FD6
:10404000883010F0A11009C08091FB02E82AE092AC
:10405000FB020E94410D802F3FC08091E702E82AB9
:10406000E092E702F6CF802F0E941015EE20B1F10A
:10407000005E8E2D083010F0A11003C00E94760A59
:1040800002C00E946F0A0E94410D28C0F12FFF70EC
:10409000EF2E107F103219F0E29480EFE822AA2070
:1040A00059F021E0A21609F472C0FF2009F47AC089
:1040B000BB2009F472C0CFCF2091F60222FD44C08C
:1040C000FF20D9F1EE2039F08091FB02E82AE0923E
:1040D000FB020E94410D80E00E94A115AC2DA8506A
:1040E000BB0B149710F40E945D07DD20A9F08091AE
:1040F000650280FD11C0F301128285958595859535
:104100000E94BE11C3010E943D19809165028595F0
:10411000859585950E94621185E0F301DE01119677
:1041200001900D928A95E1F709811A81C8010E94D8
:10413000D00AB8010E94C608B6C880E00E941015D7
:10414000EE2061F28E2D9ACFFF20A1F09091860291
:10415000892F8E29B11003C00E941A0EBFCF31E003
:10416000B312FACF22FFBACF891709F4B7CF8093E1
:104170008602B4CFB11006C00E94690A8E2D0E943B
:10418000130EACCF81E0B81609F4A8CFF5CFFF200D
:1041900031F091E09B1508F4A1CF8E2DDDCFB11049
:1041A0009DCFECCFBB2051F3A9E3AA1209C0BFEF0A
:1041B000E7EEF3E0B150E040F040E1F700C000006E
:1041C000802F0E9410158ACF812F86958695837047
:1041D00061F0813009F082CFC8019370F11002C004
:1041E00090E080E00E94310779CFC8019370F11010
:1041F00002C090E080E00E94470770CF802FFF2030
:1042000029F00E9427080E94BA1068CF0E946A070E
:10421000FACF812F837009F066C0F1105FCF802F35
:10422000829586958770880F880F602F6F70862E15
:10423000912CB12CA12C082E04C0880C991CAA1C0E
:10424000BB1C0A94D2F740E050E0BA0104FF0FC053
:104250004FE050E060E070E004C0440F551F661F5F
:10426000771F8A95D2F74095509560957095812F6C
:10427000869586958370823019F1D8F40091870273
:10428000109188022091890230918A02813069F070
:10429000482959296A297B29CB01BA016023712356
:1042A000822393230E94E01119CF802A912AA22A07
:1042B000B32ACB01BA01682979298A299B29F2CF2F
:1042C000482959296A297B2900918702109188027F
:1042D0002091890230918A02CB01BA0160277127AF
:1042E00082279327DFCF8695FF2011F0812F8170E1
:1042F000882309F4F3CE802F829586958770880FE6
:10430000880F602F6F70862E912CB12CA12C082E57
:1043100004C0880C991CAA1CBB1C0A94D2F740E06C
:1043200050E0BA0104FF0FC04FE050E060E070E0E1
:1043300004C0440F551F661F771F8A95D2F740951A
:10434000509560957095812F869586958370823003
:1043500019F1D8F40091A7021091A8022091A902A6
:104360003091AA02813069F0482959296A297B29AC
:10437000CB01BA0160237123822393230E94FD1095
:10438000ADCE802A912AA22AB32ACB01BA0168298C
:1043900079298A299B29F2CF482959296A297B2919
:1043A0000091A7021091A8022091A9023091AA02BF
:1043B000CB01BA016027712782279327DFCF1F70B7
:1043C000FF2029F0812F0E94BE11802FC5CE802FA3
:1043D0000E94130E812F0E94621180CE802F22EF47
:1043E000A21669F12A1570F030EFA316D1F091EF03
:1043F000A91691F0FF2009F45AC0B1102CCE812FDC
:104400008F7121C0A3EFAA1609F1B4EFAB12F2CF5E
:104410008091F60282FD2DC0812F8F71FF20D9F28D
:1044200012C0FF2039F0B11059CE812F8F710E9438
:10443000401154CEE1E0EB1508F450CEF6CF812FB9
:104440008F71F110C8CF0E94BE1148CE60E070E0BD
:10445000CB01FF2009F492CF1F7161E070E080E092
:1044600090E004C0660F771F881F991F1A95D2F736
:1044700085CFFF2089F01F71812F0E94BE1180918E
:10448000F60282FF07C0F8E01F9FC001112483607D
:1044900080936502812FD7CF81E00E94861121E0B1
:1044A0002B1508F01BCE82E00E94861117CEBB2090
:1044B00059F0893309F084CE3FEF87EE93E0315015
:1044C00080409040E1F77ACE812F8F7184CF83E0D6
:1044D000898310922D030C94E31985E0F301DE012A
:1044E000119601900D928A95E1F7D30112962C91C5
:1044F00089819A8121110C9457190E94D00A182F92
:104500000C945F191F93CF93DF9380913202807FC9
:1045100009F049C080912F02882309F444C080919A
:104520006402D091330260912D0270912E02A0910D
:104530003002B0913102C62FC72316E0D81799F187
:1045400090E0109711F0CF3F19F401968770F6CFE5
:10455000189F9001199F300D1124F901EC5CFD4F5B
:1045600041814713F2CF40814613EFCF4281411181
:10457000ECCF438154814A1B5B0B453A510528F728
:10458000809132028F70806180933202F901E75C82
:10459000FD4F80818F70806180838DE292E00E9468
:1045A0003D190E947D0ADF91CF911F910895A1E1ED
:1045B000B0E0EDEDF2E20C94562A8C0185E0F801B2
:1045C000DE011D9601900D928A95E1F7F801E280D7
:1045D0008DE2A82E82E0B82E6091300270913102F7
:1045E0006115710509F426C190912D0240912E02AA
:1045F000892F84238F3F09F41DC120813181C3801D
:10460000D480F0902F02F601E61BF70BFF2009F48F
:10461000DCC080913202582F507FE53AF10508F056
:104620009FC051116BC0FE2C431314C0921312C0D3
:10463000E11010C08F70806180933202C5010E942A
:104640003D1980913202F80185838F2D6196EAE051
:104650000C94722AC114D10429F0822F83238F3F36
:1046600009F003C180E0F82FF170DF2E80FF3CC01D
:10467000809164024091330256E0841315C02D8767
:104680003E878D859E850E94C30A292F22952F7013
:104690002230F0F0243018F59F70F1F0F801958188
:1046A000907FD1F4D12C1EC090E0589FF001599F0B
:1046B000F00D1124EC5CFD4F6181361306C0608162
:1046C000261303C06281E6120FC001968770D5CF12
:1046D0009F7011F0882331F3805E883018F3C80191
:1046E0000E943D19FD2CB1CFEE2009F4AECF809190
:1046F0003202816080933202F12CA7CF431306C0AF
:10470000921304C0F801EE2009F479C0C8010E9498
:104710003D0B882309F1EE20F9F0809132028032BE
:1047200070F020912D0230912E0238872F83198648
:10473000DB86CA868C87CE0107960E943D1986E0EB
:10474000F801ADE2B2E001900D928A95E1F70E9486
:104750008222FF24F39479CFC8010E943D19F9CF3A
:1047600051110AC08DE292E00E943D1986E0F501E8
:1047700011928A95E9F7C0CF43130FC092130DC071
:10478000E1100BC0F8018583C8010E943D1986E045
:10479000F50111928A95E9F758CFC8010E943D0BA7
:1047A0008823D1F2EE20C1F280913202803238F2B9
:1047B00020912D0230912E023A8329831B82DD82C3
:1047C000CC828E83CE010196B8CFE53AF105F8F69A
:1047D000FE2CEE2009F243131FC092131DC08091DE
:1047E000320280FD10C0982F907F69F0F801858318
:1047F000903F31F0982F907F905F8F70892B858349
:10480000C8010E943D1986E0F801ADE2B2E00190D6
:104810000D928A95E1F719CFC8010E943D0B8111D5
:104820008ECF80913202816080933202C8010E9453
:104830003D190BCFEE2009F48FCFC8010E943D0B2C
:10484000F82E882309F488CF86E0F801ADE2B2E0C3
:1048500001900D928A95E1F780912D0290912E02A0
:104860000E94C30A0E948222F0CE81E08E25FBCEF8
:10487000A7E1B0E0EEE3F4E20C945D2A4B8B5C8B95
:104880006D8B7E8B8F8B61111092E7021A8A198AC9
:1048900085E0FE017396DE011D9601900D928A95CA
:1048A000E1F786E0FE013D96DE01179601900D923C
:1048B0008A95E1F7CE0107960E94D722882359F006
:1048C00016E08091640290913302891345C0679687
:1048D000E3E00C94792A86E0FE013796DE0111961A
:1048E00001900D928A95E1F78A859B85892B41F38A
:1048F0008F81988589238F3F19F32091330230E00F
:10490000C9010196877099274091640248171906DA
:1049100081F41092FB020E94EB111092330210926C
:10492000640286E0EDE2F2E0DF011D928A95E9F78C
:10493000C7CF96E0929FD001939FB00D1124AC5C3D
:10494000BD4FFE01319601900D929A95E1F780934B
:1049500033020E947D0AB4CF819FC00111248C5C78
:104960009D4F0E94D722882309F4B1CF8091640221
:1049700090E001968770992780936402A2CF1F92DE
:104980001FB61F9211248F939F93AF93BF93809173
:10499000EE02811113C08091EF029091F002A0917C
:1049A000F102B091F2024196A11DB11D8093EF0278
:1049B0009093F002A093F102B093F202BF91AF91F5
:1049C0009F918F911F901FBE1F901895CDB7DEB796
:1049D000CC57D1090FB6F894DEBF0FBECDBF85B757
:1049E000806885BF85B7806885BF84B7877F84BFAF
:1049F0000FB6F894A895809160008861809360005C
:104A0000109260000FBE80E890E00FB6F89480939B
:104A10006100909361000FBE81E898E09093AB0134
:104A20008093AA010E94AE040E94D3058091E20007
:104A300084608093E200789480912E038823A1F013
:104A40001091E9001F709091EC00892F817090FD0A
:104A500080E8182B1092E9008091E80083FD0E9405
:104A6000FF111F701093E90082E084BD93E095BDB3
:104A70009AEF97BD80936E000E94F40E90E09093A1
:104A80001701809316010E94170C0E94260CE9E979
:104A9000F2E087EA92E0ABEAB2E011921D928E1743
:104AA0009F07D9F78EE090E00E941D2B8093930220
:104AB00090939402FC010E9611928E179F07E1F7D6
:104AC00089EA8093800089E08093810024982C9863
:104AD0003F988AB18F7C8AB96E98479A8BB1806370
:104AE0008BB9769A8FE090E00E946D2C60939502CE
:104AF00070939602809397029093980267702FEFBD
:104B0000629FB00111247595679575956795772714
:104B1000709389006093880070938B0060938A0083
:104B200070938D0060938C000E94C80C90E080E030
:104B30000E94732C883E9E4F11F00E94240E82E04A
:104B400090E00E94652C8093B90284E090E00E947E
:104B5000652C182F82E290E00E94652C982F812FFF
:104B60009093F6028093F50283E090E00E94652C1A
:104B7000682F70E090E080E00E94E0116091A70251
:104B80007091A8028091A9029091AA020E94E80B5C
:104B90006091F50260686093F5021091F60284E07E
:104BA00090E00E94892C612F82E290E00E94892C83
:104BB0006091A7027091A8028091A9029091AA0227
:104BC0000E94E80B8AE091E09093EB028093EA0266
:104BD00058E1652E712C69EBE62E62E0F62E71E449
:104BE000C72ED12CCC0EDD1E82E0C80ED11C8091C8
:104BF0002E0340E4B42E00E112E1853009F4F2C145
:104C00000E942318882359F08FB7F8944091EF023F
:104C10005091F0026091F1027091F2028FBFEAEBC5
:104C2000F2E0ABEAB2E010E000E0302F8D9191911C
:104C3000981709F4E8C1292F282790E0BB24B394E2
:104C40004B2D422309F4DAC1E4969FAFE497E59631
:104C50003FAFE5978B2191E009F490E0E6969FAF96
:104C6000E6970E94AE108160782FE8969FAF8EAFD6
:104C7000E897E4964FADE497E5965FADE597E69645
:104C80006FADE697E8968FADE8970E943824F8015B
:104C9000E654FD4F8081B826B08280911801909132
:104CA0001901B12C26E1A22E019609F006C28091CD
:104CB000E402882369F00E94AE102091C80230916E
:104CC000C902821B930B8F3F9F4710F40E94FF0D78
:104CD00086E0EEEDF2E0DE01119601900D928A95EC
:104CE000E1F71092E0021092E1021092E2021092BB
:104CF000E3021B810C81812F802B09F448C0809135
:104D0000DC029091DD020E949F109C019091D802DC
:104D1000992309F4E0C22A313105C8F19F3F19F007
:104D20009F5F9093D802112359F00E9403089FEFD0
:104D300011160CF491E0899F802D11248093E002DC
:104D4000002359F00E9403089FEF10160CF491E025
:104D5000899F802D11248093E1023091E00233235A
:104D6000B1F02091E102222391F045EB3403C00120
:104D70001124992309F4ABC19093E00245EB24037D
:104D800090011124332309F4A6C13093E1021D815F
:104D90000E81812F802B09F448C08091DA02909116
:104DA000DB020E949F109C019091D702992309F485
:104DB0008DC22A313105C8F19F3F19F09F5F909352
:104DC000D702112359F00E94E3079FEF11160CF44C
:104DD00091E0899F802D11248093E202002359F0F5
:104DE0000E94E3079FEF10160CF491E0899F802D3D
:104DF00011248093E3023091E2023323B1F0209139
:104E0000E302222391F045EB3403C00111249923DE
:104E100009F465C19093E20245EB2403900111244B
:104E2000332309F460C13093E30246E050E0BE0151
:104E30006F5F7F4F8EED92E00E94482C892B61F4CA
:104E40008091E0029091E102892B9091E202892BFE
:104E50009091E302892B11F00E94BA1086E0FE01C6
:104E60003196AEEDB2E001900D928A95E1F70E9485
:104E70005D079091CA0289138093CA0280912E0324
:104E8000843061F583E08093E9008091E80082FF3F
:104E900025C08091E80090E085FF0AC050E040E026
:104EA00060E270E0CE018F5B9F4F0E94580591E059
:104EB0008091E8008B778093E800992379F022961F
:104EC0008FAD2297813009F454C1882309F444C17D
:104ED000823009F40CC1843009F4A9C180912E03F9
:104EE000843009F084CE86E08093E9008091E80068
:104EF00082FF7DCE8091E80090E085FF09C050E000
:104F000040E060E470E0CE0101960E94580591E017
:104F10008091E8008B778093E800992309F467CEAD
:104F20008981811194C18091F402882309F4AAC176
:104F30001092F40281E08093F30222961FAE229732
:104F400023961FAE23978EEF24968FAF249763E0AE
:104F5000CE018F5B9F4F0E94EF0649CE80912E03BA
:104F6000843009F11092EE020FB6F894A895609281
:104F700060000FBEB092600083B7817F846083BF02
:104F800083B7816083BF7894889583B78E7F83BF12
:104F90000FB6F894A89580916000886180936000B6
:104FA000109260000FBE80911F038823D9F00E94E9
:104FB000F40E90E090931701809316010E94170C55
:104FC0000E94260CEBEAF2E01192EE16FF06E1F7E2
:104FD0000E942318EBEAF2E0819181115FC1EE1685
:104FE000FF06D1F780912E03853009F4B7CF1092D8
:104FF000FB020E94EB110E945D0702CE9F5FBB0C7B
:10500000963009F01DCE0F5F1F4F0E30110509F0CD
:105010000CCE8FEFE9968FAFE997EA968FAFEA97BC
:10502000EB961FAEEB970E94AE108160782FED9645
:105030009FAF8EAFED97E9964FADE997EA965FADDA
:10504000EA97EB966FADEB97ED968FADED970E94DB
:10505000382423CEA89EF001A99EF00D1124E65E0F
:10506000FE4F828893888114910419F435EA832EC7
:10507000912CA89E8001A99E100D1124065E1E4F42
:10508000F80186818823C1F0858596850E949F104E
:105090008816990688F4BA9C40011124F801818988
:1050A000811105C0C401865E9E4F0E94960DC40109
:1050B000805E9E4F0E94B50DB3948B2D90E02091A1
:1050C0001801309119012817390724F6F0CD81E035
:1050D0008093E00253CE81E08093E10258CE81E0DC
:1050E0008093E20299CE81E08093E3029ECE2496E3
:1050F0008FAD249723969FAD23979093CB028093F7
:10510000CC0226968FAD269725969FAD2597909336
:10511000CD028093CE0228968FAD289727969FAD1B
:1051200027979093CF028093D00242E150E063E250
:1051300070E0CE018F599F4F0E94552C84E08983E7
:1051400081E080932D038EEF8A8310922C03CE0191
:1051500001960E942A05C2CE19828CE0EDE5F1E0AD
:10516000DE01129601900D928A95E1F78EEF8D8700
:10517000EECF01ED12E086E0A82EB12C9EE0892E44
:10518000912C0E940D2BB5010E94852A482E0E9469
:105190000D2BB4010E94852A582EB20180E00E9496
:1051A000C6080497C59768F7F801408251820E5FE0
:1051B0001F4FF2E0073D1F0721F781E0898390919F
:1051C000D1029A839091D2029B839091D3029C83C7
:1051D0009091D4029D839091D5029E839091D602A6
:1051E0009F839EEF988780932C03CE0101960E94A7
:1051F0002A0542E150E063E270E0CE0101960E9490
:10520000552CFE01319682E183307CF09189928B9E
:10521000815031978F3FC1F742E150E063E270E087
:10522000CE0101960E94792C59CE128AF1CF80913D
:105230002D03882309F452CE60E070E0CB010E9478
:10524000FD1023968FAD23970E94BE1147CE81306B
:10525000C9F422961FAE229723968FAF23978CE036
:10526000EDE5F1E0D60101900D928A95E1F78EEF20
:1052700060968FAF60976FE0CE018F5B9F4F0E946B
:10528000EF06B5CC8091F302882331F081E02296BD
:105290008FAF229761E05CCE8FEFF9CF09BD19BDCA
:1052A00009B400FEFDCF8091D8008F7D8093D80097
:1052B0008091E00082608093E0008091E00081FDB9
:1052C000FCCF1092FB020E94EB118CCE21393140B1
:1052D00008F074CDAACD232B09F022CD58CD109221
:1052E000B9008CE08093B8000895B0E0A0E0EBE74F
:1052F000F9E20C94552AB82EEB010E94AE106C0115
:10530000EE24E394F12CC431D10560F025E0E22EC7
:10531000F12CCF3FDC0731F0CE0164E170E00E9458
:105320003A2A7B0184EAA82E94E8992E1092BC00B8
:10533000A092BC000E94AE108C018091BC0087FF3F
:105340000DC08091B900887F883001F18091B9004B
:10535000887F8031D9F00FEF1FEF09C00E94AE1097
:10536000801B910B8E159F0540F30EEF1FEFCF3F73
:10537000DC07E1F2C6010E949F108C179D07B0F276
:10538000C801CDB7DEB7EBE00C94712AB092BB0038
:105390009092BC000E94AE108C018091BC0087FFEF
:1053A0000AC08091B900887F883111F0803499F665
:1053B00010E000E0E5CF0E94AE10801B910B8E152F
:1053C0009F0558F3D2CF0F931F93CF93DF93EB0139
:1053D0008093BB0084E88093BC000E94AE108C01D7
:1053E0008091BC0087FF11C02091B900287F81E027
:1053F00090E0283211F490E080E091958195910938
:10540000DF91CF911F910F910895CF3FDC0741F3BA
:105410000E94AE10801B910B8C179D0708F38EEF36
:105420009FEFEECF0F931F93CF93DF93EC0184E8B0
:105430008093BC000E94AE108C018091BC0087FF5D
:1054400008C08091BB0090E0DF91CF911F910F9138
:105450000895CF3FDC0789F30E94AE10801B910BAB
:105460008C179D0750F38EEF9FEFEECF84E980936A
:10547000BC000895AA1BBB1B51E107C0AA1FBB1F9C
:10548000A617B70710F0A61BB70B881F991F5A95D0
:10549000A9F780959095BC01CD0108952F923F9278
:1054A0004F925F926F927F928F929F92AF92BF9234
:1054B000CF92DF92EF92FF920F931F93CF93DF93E0
:1054C000CDB7DEB7CA1BDB0B0FB6F894DEBF0FBE3D
:1054D000CDBF09942A88398848885F846E847D848A
:1054E0008C849B84AA84B984C884DF80EE80FD808C
:1054F0000C811B81AA81B981CE0FD11D0FB6F89402
:10550000DEBF0FBECDBFED01089597FB072E16F449
:10551000009407D077FD09D00E943A2A07FC05D0F5
:105520003EF4909581959F4F0895709561957F4FBA
:105530000895EE0FFF1F0590F491E02D0994002EC1
:10554000083090F0982F872F762F652F542F432FF8
:10555000322F22270850F4CF220F331F441F551F2C
:10556000661F771F881F991F0A95B2F7002D0895AF
:105570002A153B054C055D056E057F0580079107E3
:1055800008958F929F92AF92BF92CF92DF92EF9247
:10559000FF92CF93DF93EC01688179818A819B81AF
:1055A000611571058105910521F464E279ED8BE5C2
:1055B00097E02DE133EF41E050E00E94AD2C49012E
:1055C0005A019B01AC01A7EAB1E40E94CC2C6B010B
:1055D0007C01ACEEB4EFA50194010E94DA2CDC0151
:1055E000CB018C0D9D1DAE1DBF1DB7FF03C00197E4
:1055F000A109B04888839983AA83BB839F77DF91F1
:10560000CF91FF90EF90DF90CF90BF90AF909F90A1
:105610008F9008950E94C12A089580E091E00E9431
:10562000C12A0895B0E0A0E08093000190930101A9
:10563000A0930201B093030108950F931F93CF939A
:10564000DF938230910510F482E090E0E091310325
:10565000F091320330E020E0B0E0A0E0309799F420
:105660002115310509F447C0281B390B24303105B9
:10567000C0F58A819B816115710571F1FB019383EE
:105680008283FE0111C0408151810281138148173C
:105690005907F8F04817590799F4109761F01296D6
:1056A0000C93129713961C933296CF01DF91CF91F2
:1056B0001F910F9108950093310310933203F4CF9B
:1056C0002115310519F04217530718F49A01BD014D
:1056D000EF01DF01F801C2CF9093320380933103D1
:1056E000D0CFFE01E20FF31F819391932250310935
:1056F00039832883DACF20912F0330913003232B75
:1057000041F420910601309107013093300320933A
:105710002F0320910401309105012115310541F439
:105720002DB73EB74091080150910901241B350B5C
:1057300040912F03509130034217530708F0B5CF23
:10574000241B350B2817390708F4AFCFBC016E5F57
:105750007F4F2617370708F4A8CF640F751F709383
:10576000300360932F03FA01819391939ECFCF93DF
:10577000DF930097E9F0FC01329713821282C09107
:105780003103D0913203DE0130E020E02097A1F414
:1057900020813181820F931F20912F03309130039C
:1057A0002817390709F067C0F0933003E0932F03FF
:1057B000DF91CF910895DA01AE17BF0708F040C01E
:1057C00012964D915C9113979D014115510599F7E2
:1057D000D9011396FC93EE9312974D915D91A40F0E
:1057E000B51FEA17FB0779F4808191810296840F37
:1057F000951FD90111969C938E9382819381139664
:105800009C938E931297B0E0A0E08A819B810097D1
:10581000B9F5FE0181919191E80FF91F80912F0355
:10582000909130038E179F0719F6109761F510922B
:10583000320310923103D0933003C0932F03B8CFBB
:10584000B383A28340815181840F951FA817B907A4
:1058500071F44E5F5F4F8D919C911197480F591FC6
:105860005183408312968D919C919383828321155D
:10587000310509F0ADCFF0933203E093310398CFB7
:10588000DE01EC01C2CF13961C921E921297D3CF69
:10589000FB01DC0104C08D910190801921F441507D
:1058A0005040C8F7881B990B0895DC01CB01FC011F
:1058B000F999FECF06C0F2BDE1BDF89A319600B469
:1058C0000D9241505040B8F70895F999FECF92BD1E
:1058D00081BDF89A992780B50895A6E1B0E044E02B
:1058E00050E00C94572CA8E1B0E042E050E00C945A
:1058F000572CDC01A40FB51F4150504048F0CB019C
:10590000840F951F2E910E948A2C41505040D0F751
:105910000895262FF999FECF92BD81BDF89A01977F
:1059200000B4021639F01FBA20BD0FB6F894FA9AE7
:10593000F99A0FBE08950396272F0E948A2C0E9481
:10594000892C252F0E948A2C242F0C948A2C0196B6
:10595000272F0E948A2C0C94892C052E97FB1EF46D
:1059600000940E94C42C57FD07D00E94DF2C07FC36
:1059700003D04EF40C94C42C50954095309521954D
:105980003F4F4F4F5F4F089590958095709561956B
:105990007F4F8F4F9F4F08950E94012DA59F900D1F
:1059A000B49F900DA49F800D911D11240895B7FF01
:1059B0000C94CC2C0E94CC2C821B930B0895A1E25A
:1059C0001A2EAA1BBB1BFD010DC0AA1FBB1FEE1F79
:1059D000FF1FA217B307E407F50720F0A21BB30BC4
:1059E000E40BF50B661F771F881F991F1A9469F740
:1059F00060957095809590959B01AC01BD01CF019C
:105A00000895A29FB001B39FC001A39F700D811D97
:105A10001124911DB29F700D811D1124911D0895B7
:105A2000F894FFCF030C110C0F0C0D0C140C0F0C81
:105A30000D0C1E134613A2144613A21479139A13C5
:105A4000A21446145314FA1D061E0C1E141E1A1E10
:105A5000241E2A1E301E361E3C1E421E481E4E1E8E
:105A6000561E5C1E621E681E6E1E741E7A1E12205A
:105A7000122046204620E420FE206E206E200921C0
:065A8000DF21EE21EE2102
:105A860001000000000033032000EC06880C670CC0
:105A9600620C5D0CEB062000FFFFC2170C1889157F
:105AA60000000000000000000000000000000000F0
:105AB600A317F51771150000000000000000000094
:105AC600000000000000BF17DE1759150000000097
:105AD60000000000000000000000000001713079A5
