:100000000C94FE050C941B060C941B060C941B060A
:100010000C941B060C941B060C941B060C941B06DC
:100020000C941B060C941B060C94E9140C94731B83
:100030000C94AF2B0C941B060C941B060C941B0603
:100040000C941B060C941B060C941B060C941B06AC
:100050000C941B060C94C2150C941B060C941B06E6
:100060000C941B060C941B060C941B060C941B068C
:100070000C941B060C941B060C941B060C941B067C
:100080000C941B060C941B060C941B060C941B066C
:100090000C941B060C941B060C941B060C941B065C
:1000A0000C941B060C941B060C941B0605010902FC
:1000B000A10185020901A1000509190129081500FE
:1000C0002501950875018102050109300931158165
:1000D000257F95027508810609381581257F9501D0
:1000E00075088106050C0A38021581257F95017572
:1000F000088106C0C005010980A101850319012AF4
:10010000B700150126B700950175108100C0050CD8
:100110000901A101850419012AA002150126A002E6
:10012000950175108100C005010906A1018506052C
:100130000719E029E71500250195087501810205D9
:1001400007190029EF1500250195F07501810205B9
:10015000081901290595057501910295017503910D
:1001600001C00660FF0961A1010962150026FF00B8
:100170009520750881020963150026FF00952075FA
:10018000089102C005010906A101050719E029E748
:1001900015002501950875018102950175088101F9
:1001A0000507190029FF150026FF0095067508812F
:1001B000000508190129059505750191029501753C
:1001C000039101C0000000000000000000000000DA
:1001D000000000000000000000000000000000001F
:1001E00000000000000000007E0F00D4FFFFFFC7EA
:1001F0000000007800000000000000002A2B28000A
:1002000000000000000000000000000000000029C5
:10021000000000002C1E3420212224342627252E05
:10022000362D3738271E1F2021222324252633333D
:10023000362E37381F0405060708090A0B0C0D0E69
:100240000F101112131415161718191A1B1C1D2F35
:100250003130232D350405060708090A0B0C0D0E55
:100260000F101112131415161718191A1B1C1D2F15
:100270003130354C0103E1000102E1000102E101EE
:10028000011F0103E1010436307C0102E101011F7D
:100290000103E1010436307C010150000101340109
:1002A0000436307C010134010436307C01015000F9
:1002B0000102E10101360103E1010436307C010253
:1002C000E10101370103E1010436307C01015000F6
:1002D0000102E101012F0103E1010436307C01023A
:1002E000E10101300103E1010436307C01015000DD
:1002F00001012F010436307C010130010436307CCD
:10030000010150000102E10101260103E10104366F
:10031000307C0102E10101270103E1010436307C58
:10032000010150000102E101014F0103E101043626
:10033000307C0102E001011B0103E0010436307C46
:1003400001014F010436307C0102E0010119010373
:10035000E00001014C0001014A010436307C010239
:10036000E101014D0103E1010436307C0102E001AD
:1003700001060103E00001014D010436307C01015A
:1003800028010436307C0102E00101190103E0007C
:1003900001014D010436307C010128000102E10118
:1003A000014D0103E1010436307C01014C000102E2
:1003B000E101014A0103E1010436307C01014C00F6
:1003C00001014A010436307C0102E101014D0103C3
:1003D000E1010436307C01014C000102E0010150D2
:1003E0000103E0010436307C0102E00102E1010179
:1003F0004F0103E10103E0010436307C0102E10119
:1004000001500103E10001014A010436307C010280
:10041000E101014D0103E10001014D0001014A002C
:100420002B042B012900E100E00000001E00140055
:1004300004001D00640036021F001A0016001B0095
:1004400035002B002000080007000600E2002C0009
:10045000210015000900190001582F022200170081
:100460000A00050000002602230046000000B05DDF
:1004700000002F002400AE5D00001450000030008A
:1004800025001C000B0011000000270226001800A8
:100490000D0010000258300227000C000E0036003C
:1004A00034002A002D0012000F0037001F02280020
:1004B0002E00130033003800320037022B060007ED
:1004C000E300E1004C0000000100AC00105001000E
:1004D000010000003A00B75DB35D01000100C15D9D
:1004E0003B004F01BC5DBD5D010001003C000F0100
:1004F0004C01B85D010001003D001C010100C45D1C
:100500000100C05D3E0001004D0150010000BE5DD4
:100510003F000100000001000000BF5D400001003D
:100520000000010000000100410006015000010030
:100530000000010042001D015100010003580100AC
:100540004300B25D52000100C25D2A014400B95D62
:100550004F000100C35D010045001901AE00090113
:10056000C55D01000100AB0001000100C35C00009B
:100570000100AC00105001000100000068002B03D6
:100580004D00FD0001004E0069000100B45DFE0059
:10059000010050096A002B01B65DFF000100F10067
:1005A0006B000100B55D4900035801006C000100BB
:1005B0004A0101000000FB006D00160A0000010066
:1005C0000000FA006E000100000001000000F900C8
:1005D0006F00BB5DEF0001000000FC007000010037
:1005E000EE00010001000100A8004A00ED0001003A
:1005F0000100F200AA000100F000010001004F0913
:10060000A900BA5DAE000901C55D4B000100AB0059
:1006100001000100C35C0000C75CC95C1050010010
:100620000100000001005F005C00590001000100B2
:10063000010060005D005A0001000100010061003E
:100640005E005B000100010001000100620001008A
:100650000100010001000100010001000000010093
:100660000100010000000100000001000100010084
:100670000000010000000100010001000100010074
:100680000000010001000100530001000100010011
:10069000010001002900010001000100010001002A
:1006A000010001000100010001000100C45C010023
:1006B000AF5D0100C65CC85C1550CC5CCD5C000031
:1006C0000100010001000100010000000100010023
:1006D0000100010001000100010001000100010012
:1006E00001002800010001000100010001002B00B1
:1006F00001000100010001002C00010001000100C7
:1007000001000100000001000100010000000100E3
:100710000000010001000100000010500000010075
:1007200001000100010001000000010001000100C2
:1007300001000100010001000100010001000100B1
:1007400001000100010001000100010001000100A1
:100750000100010001000100010001000100010091
:100760000100010001000000000000000000000086
:100770000000000000000000000000000000000079
:100780000000000000000000000000000000000069
:100790000000000000000000000000000000000059
:1007A0000000000000000000000000000000000049
:1007B0000000000000000000000000000000000039
:1007C0000000000000000000000000000000000029
:1007D0000000000000000000000000000000000019
:1007E0000000000000000000000000000000000009
:1007F00000000000000000000000000000000000F9
:10080000000000000000000010500000005C00002C
:1008100000047F3F1F643214643214783C1E1E149F
:100820000A050001010101010101010102020202A8
:10083000020202020203030303030303030404048A
:100840000404040405050505050606060606070753
:1008500007070708080808090909090A0A0A0B0B0B
:100860000B0C0C0C0D0D0D0E0E0E0F0F0F101011AA
:100870001111121213131414151516161717181830
:1008800019191A1A1B1B1C1D1D1E1E1F2020212298
:1008900022232424252626272829292A2B2C2D2DDE
:1008A0002E2F30313232333435363738393A3B3CFB
:1008B0003D3E3F404142434445464748494A4C4DEE
:1008C0004E4F50515354555658595A5B5D5E5F61B7
:1008D0006264656668696B6C6D6F7072737577784A
:1008E0007A7B7D7E8082838587888A8C8E8F9193A8
:1008F0009596989A9C9EA0A2A3A5A7A9ABADAFB1CF
:10090000B3B5B7BABCBEC0C2C4C6C9CBCDCFD1D4B3
:10091000D6D8DBDDDFE2E4E7E9EBEEF0F3F5F8FA59
:10092000FDFFFFAA7F55402223252628292A2C2DAA
:100930002F3032333536383A3B3D3E40424345470F
:10094000494A4C4E5051535557595A5C5E60626447
:100950006668696B6D6F71737577797B7D7F818355
:100960008587898A8C8E90929496989A9C9E9FA156
:10097000A3A5A7A8AAACAEAFB1B3B4B6B8B9BBBC77
:10098000BEBFC1C2C3C5C6C7C9CACBCCCDCED0D1EC
:10099000D2D2D3D4D5D6D7D7D8D9D9DADADBDBDBE4
:1009A000DCDCDCDCDCDDDDDDDDDCDCDCDCDCDBDB85
:1009B000DBDADAD9D9D8D7D7D6D5D4D3D2D2D1D0D9
:1009C000CECDCCCBCAC9C7C6C5C3C2C1BFBEBCBBD6
:1009D000B9B8B6B4B3B1AFAEACAAA8A7A5A3A19F4E
:1009E0009E9C9A98969492908E8C8A898785838112
:1009F0007F7D7B79777573716F6D6B6968666462F3
:100A0000605E5C5A5957555351504E4C4A494745C0
:100A10004342403E3D3B3A3836353332302F2D2C61
:100A20002A2928262523220A00000000000306B2F6
:100A300000080001000000A800080002000300A058
:100A4000001400030057494E5553420000000000B7
:100A500000000000008400040007002A0044006534
:100A600000760069006300650049006E007400654F
:100A70000072006600610063006500470055004990
:100A80000044007300000050007B00390044004225
:100A900000370046003100460044002D0037004575
:100AA00000370041002D0034003000300038002DA8
:100AB0000039003300360042002D0036004200416C
:100AC0000036004300310039004100330030003867
:100AD0000063007D00000000000E0301646F63737B
:100AE0002E716D6B2E666D0009027200040100A06C
:100AF000FA090400000103010100092111010001AC
:100B000022400007058103080001090401000203D7
:100B100000000009211101000122220007058203C3
:100B2000200001070503032000010904020001035E
:100B300000000009211101000122B600070584030D
:100B40002000010904030002FF00000007058503DF
:100B500040000507050603400005120110020000D1
:100B60000008973275490100010200012203450087
:100B7000720067006F0044006F007800200045009D
:100B80005A0020005300680069006E0065000000F4
:100B900028035A0053004100200054006500630000
:100BA00068006E006F006C006F0067007900200025
:100BB0004C00610062007300000004030904050F8B
:100BC0003900021C100500DF60DDD88945C74C9C48
:100BD000D2659D9E648A9F00000306B200450018FE
:100BE00010050038B60834A909A0478BFDA0768807
:100BF00015B665000142000103E1000011241FBE8B
:100C0000CFEFDAE0DEBFCDBF23E0ACE9B1E001C059
:100C10001D92AB3AB207E1F711E0A0E0B1E0E4EADF
:100C2000F9E602C005900D92AC39B107D9F70E94E0
:100C3000D62B0C94B3340C940000E8EDF0E08081E6
:100C40008E7F80831092E2001092DA001092E10011
:100C5000A0EEB0E08C9181608C9380818F7780834F
:100C600019BCA7EDB0E08C918E7F8C9380818F7E34
:100C700080831092F40208952091E4003091E50001
:100C800095E6A9012091EC00822F817020FF06C01B
:100C90008091E80080FF06C080E008952091E80080
:100CA00022FD1AC08091A603882389F0853089F03F
:100CB0008091EB0085FD0FC02091E4003091E500AC
:100CC00042175307F9F29150E1F684E0089582E06B
:100CD000089583E0089581E00895EF92FF920F93C5
:100CE0001F93CF937C018B010E943C06C82F882361
:100CF00071F08C2FCF911F910F91FF90EF9008957D
:100D0000F70181917F018093F100015011090115D4
:100D1000110579F38091E80085FDF2CF8091E8001C
:100D20008E778093E8000E943C06882381F3C82FC9
:100D3000E0CFCF93FC018091A603843031F5C091C0
:100D4000E900CF702091EC00922F917020FD90E887
:100D5000C92B82E08093E9008091E80080FF12C0F7
:100D600050E040E060E270E0CF010E946D06882311
:100D700021F01092A4031092A5038091E8008E77D1
:100D80008093E800CF70C093E900CF910895EF926F
:100D9000FF920F931F93CF937C018B010E943C061F
:100DA000C82F811117C08091E80085FD0BC080918C
:100DB000E8008B778093E8000E943C06882399F333
:100DC000C82F08C08091F100F70181937F01015085
:100DD000110949F78C2FCF911F910F91FF90EF9040
:100DE000089580911B0387FF13C08091E80082FF64
:100DF00006C08091E8008B778093E80004C0809162
:100E0000A6038111F2CF08958091A6038823D9F318
:100E10008091E80080FFF8CF8091E8008E77ECCFDA
:100E2000982F9093E900242F762F50E0891731F006
:100E30007091EC002091ED005091F00021FD07C071
:100E40009F5F973071F78093E90081E008953091BA
:100E5000EB003E7F3093EB003091ED003D7F30930F
:100E6000ED003091EB0031603093EB007093EC00BB
:100E70002093ED005093F0002091EE0027FDE0CF8D
:100E800080E00895B0E0A0E0E8E4F7E00C94C5311C
:100E9000C8EDD0E088818F7E8883E7EDF0E0808127
:100EA0008160808384E082BF81E08093F402888146
:100EB0008E7F888302EE10E0F80110821092DA0033
:100EC00081EEC82ED12CF601108288818F7788831D
:100ED00088818068888388818F7D888319BC10927F
:100EE000A60310921A03109219031092180390EEA1
:100EF000E92EF12CF70180818B7F808388818160CE
:100F0000888342E060E080E00E941007F601808163
:100F10008E7F8083F80180818160808380818860FA
:100F20008083F70180818E7F8083888180618883C0
:100F3000CDB7DEB7E8E00C94E131FC0180912103EC
:100F40009091220386179707A0F06115710529F487
:100F50008091E8008E778093E80090E0611571053C
:100F600051F4911108C08091E80082FF35C080E003
:100F70000895BC01F2CF8091A6038823C9F1853082
:100F8000C9F18091E80083FD31C08091E80082FDC5
:100F9000EACF8091E80080FFE1CF8091F3002091BB
:100FA000F200382F6115710519F02830310558F01D
:100FB00091E02830310509F090E08091E8008E77CB
:100FC0008093E800CBCF84918093F10031966150FB
:100FD00071092F5F3F4FE6CF8091A603882341F030
:100FE000853041F08091E80083FFBDCF81E0089516
:100FF00082E0089583E00895FC018091210390919F
:10100000220386179707A0F06115710529F49091C6
:10101000E8009E779093E80090E06115710551F427
:10102000911108C08091E80082FF34C080E00895EB
:10103000BC01F2CF8091A6038823C1F18530C1F1B4
:101040008091E80083FD30C08091E80082FDEACF06
:101050008091E80080FFE1CF8091F3002091F200C1
:10106000382F6115710519F02830310558F091E0DD
:101070002830310509F090E02091E8002E77209388
:10108000E800CBCF81918093F100615071092F5F0F
:101090003F4FE7CF8091A603882341F0853041F090
:1010A0008091E80083FFBECF81E0089582E008953B
:1010B00083E0089508958091F70208952091A60392
:1010C000243099F425E02093E90070E050E040E0FE
:1010D0000E946D06882321F01092ED021092EE021C
:1010E0008091E8008E778093E8000895209129018F
:1010F0002223C9F02091EF0227FF15C0E62FE695C5
:10110000E695E695EE31D8F4E80FF92FF11D6770FA
:1011100021E030E001C0220F6A95EAF72095828134
:10112000282322830895FC013296089621916213A8
:1011300003C0DF0111971C92E817F907B9F708956A
:101140002091E6023091E7022817390771F0909359
:10115000E7028093E602E091E402F091E502309725
:1011600021F00084F185E02D099508952091E20297
:101170003091E3022817390771F09093E3028093CE
:10118000E202E091E402F091E502309721F006805E
:10119000F781E02D09950895E091E402F091E502D0
:1011A000309729F00190F081E02D0995089580E0B5
:1011B0000895FA01811101C0FB0109950895089570
:1011C00080919F03982F9E7F29F481708260809385
:1011D0009F0308958A34E8F381708864F8CFAF9252
:1011E000BF92DF92EF92FF920F931F93CF93DF9303
:1011F000082F162FE901E42FF0E0EE5DF74F6111A3
:1012000011C0E4915E2F4E2F4983E8835A831B82DD
:10121000DF91CF911F910F91FF90EF90DF90BF90E2
:10122000AF900895E62EF12C4491D42EE42FF0E0F7
:1012300026E0829FC00111242FEF30E0B9010E9407
:10124000A731802F90E0880F991F55E5569FD00158
:10125000579FB00D11248A1B9B0B982F990F890F54
:101260005901AE18BF08AE9ED001AF9EB00DBE9E14
:10127000B00D11245B2F189F80011124012F11271D
:101280005901A01AB10AAE9E8001AF9E100DBE9EFC
:10129000100D11245901A81AB108AE9CC001AF9CD1
:1012A000900DBE9C900D1124892F9927281B390B76
:1012B0002E9FC0012F9F900D3E9F900D1124E92F6E
:1012C00062307105A1F050F46115710509F49CCFED
:1012D0006130710581F0EB2F512F96CF643071058D
:1012E00069F080F06630710509F48ECFF4CFE42FF9
:1012F0004B2F592F89CFE42F412F86CFEB2F542F1F
:10130000492F82CF4B2F5D2DE12F7ECF4091CE0212
:101310008D3E59F48091CF0287FF0DC01092CF020D
:1013200041110BC01092C60208C08E3E81F480911C
:10133000CF0218169CF3442381F08091D002909143
:10134000D102892B09F05AC01092C50208958F3E30
:1013500049F447FFF0CF1092CE028091CF02811165
:10136000ECCFE0CF803F19F41416ACF3E4CF9091AA
:10137000D002893F29F41916F4F61092D002DBCF7F
:101380008A3F19F497FFD7CFF8CF9091D1028B3FC6
:1013900029F497FFD0CF1092D102CDCF8C3F19F412
:1013A0001916CCF3C8CF9FE0980F983090F4815F66
:1013B000990B21E030E0B90102C0660F771F8A95D2
:1013C000E2F7CB0180959091CD0289238093CD02E5
:1013D000B2CF8D3F31F48091C7028E7F8093C702D8
:1013E000AACF8E3F21F48091C7028D7FF7CF8F3F28
:1013F00009F0A1CF8091C7028B7FF0CF0895809133
:10140000C70280FD1AC081FD14C082FD14C0809106
:10141000C502882391F08C3370F425E0829FC001CF
:1014200011246CE370E00E940032862F672B29F0B4
:10143000089582E0089585E0089581E008958091FF
:10144000C70280FD16C081FD16C082FD18C08091C4
:10145000C602882391F08C3390F428E2829FC00169
:1014600011246CE370E00E940032862F672B49F054
:1014700008958AE0089584E1089588E0089588E257
:10148000089581E008958D3E31F40E941F0A8195F0
:101490008093CF0208958E3E19F40E941F0AF8CF60
:1014A0008F3E31F40E941F0A81958093CE020895E9
:1014B000803F19F40E941F0AF8CF893F29F40E9447
:1014C000FF098093D00208958A3F21F40E94FF090A
:1014D0008195F7CF8B3F31F40E94FF09819580936E
:1014E000D10208958C3F19F40E94FF09F8CF9FE0C4
:1014F000980F983070F4815F990B21E030E001C0C3
:10150000220F8A95EAF78091CD02822B8093CD023B
:1015100008958D3F31F48091C70281608093C702A6
:1015200008958E3F21F48091C7028260F7CF8F3FEC
:10153000B9F78091C7028460F1CF80E0089590915F
:10154000EF0292FF06C0282F28712830F9F4877F18
:10155000846093FF06C0282F28712831F1F4877E1C
:1015600084612091F00220FF06C0382F3871383096
:10157000D9F4877F816021FF06C0282F2871283188
:10158000D1F4877E816194FD877E0895282F247190
:101590002430F9F68B7F8860DCCF282F247124312A
:1015A00001F78B7E8861DDCF382F3171313019F72B
:1015B0008E7F8860E0CF282F2171213121F78E7E28
:1015C0008861E1CF972F7E30A8F4663098F470E000
:1015D00026E0929F600D711D1124FB0194E5899F07
:1015E000E00DF11D1124EE0FFF1FE05EFB4F859112
:1015F0009491089580E090E00895CF93DF93EC01FB
:1016000082389105A9F1D8F58133910509F496C086
:1016100048F58932910509F48AC08A9709F495C082
:10162000C11521E5D20708F0BCC0C11530E5D307CC
:1016300008F014C1C83ED10508F09CC0C03ED105D9
:1016400060F5C83AD10508F087C0C53AD10508F061
:10165000FDC0C130D10509F12097F9F0C430D105A2
:10166000E0F440C08533910509F45AC0C997C1F62A
:101670008091EF02837089F0C0EED0E00EC0833E0F
:10168000910599F170F4803E910501F1823E91053A
:1016900039F68091EF0282FD21C0CE01DF91CF911A
:1016A0000895863E910561F1873E910571F1843E72
:1016B000910509F0B5CF8091F00281FFEECF8091C6
:1016C000EF02C7EED0E084FD0DC0E7CF8091EF02BE
:1016D00080FD12C19091F00290FFDFCFC3EED0E009
:1016E00084FFDBCFD0E0C0E0D8CF8091EF0282FD55
:1016F00006C19091F00290FDBFCF84FFCECFF2CF14
:101700008091EF0283FDDDCFC8CF8091EF0283FD92
:10171000F9C09091F00291FFF0CFC4EED0E0BDCFC0
:101720008091EF0285FFB9CFC9E2D0E0B6CF8091BA
:10173000EF0285FFB2CFC5E3D0E0AFCF8091EF02DB
:1017400086FFABCFCAE2D0E0A8CF8091EF0286FF40
:10175000A4CFC1E3D0E0A1CFCF3BD10518F6C85A42
:10176000D0E0CC0FDD1FC75CDE4F0990D881C02DC3
:10177000D46493CFC11540E2D40758F4C11581E079
:10178000D80708F08ACFCD3ED10508F4ABCFD0659D
:1017900084CFC11590E4D90708F4A4CFDF70D06AD4
:1017A0007CCFC11525E5D20700F5C11534E5D30777
:1017B00008F08AC0C11543E5D40708F071C0C1150F
:1017C00082E5D80708F467C0CE018370992721E02D
:1017D00030E002C0220F331F8A95E2F7C695C69506
:1017E00080E2C89FE001112452C0C11599E5D907D4
:1017F000A8F4C11528E5D20708F06BC0C11536E57D
:10180000D30708F06FCF8C2F0E949F0AC82FD0E01B
:10181000DC2FCC27CC27DF71D0623FCFC1154AE542
:10182000D40708F45BC0CE0190568115904208F0B1
:1018300059CF8D2F8F710E949F0A90E0982F882793
:1018400088279F719C012C2BE901E6CFC55AD0E077
:10185000CA5CDE4FC881D0E0D0641FCFCE01E4E087
:1018600096958795EA95E1F783702C2F2695269516
:10187000237040E2249F90011124382B8C2F837019
:10188000C1E0D0E002C0CC0FDD1F8A95E2F7C22B89
:10189000D32BDC6802CFDC2FCC27C16FD06AFDCE02
:1018A000CE018370992721E030E002C0220F331F60
:1018B0008A95E2F7C695C69590E2C99FE00111248A
:1018C000C22BD32BDA68E9CEDC2FCC27C46FD06AC9
:1018D000E4CEDC2FCC27C06FD06ADFCE8C2F8F7088
:1018E0000E949F0A34E0D695C7953A95E1F7CF70EC
:1018F0009C2FEC01D069D1CEC9E3D0E0CECEC2EEB0
:10190000D0E0CBCEC6EED0E0C8CE8091720281117D
:1019100010927202089580959091F5029823909309
:10192000F50208958091500290911F02981301C012
:1019300008958F5F8770FACFB0E0A0E0E2EAFCE0A4
:101940000C94C4318C01C0909302D0909402E0902A
:101950009502F09096028091730290917402A0918A
:101960007502B0917602C82AD92AEA2AFB2ACFE169
:10197000D0E0BC2ED701C6010C2E04C0B695A795A9
:10198000979587950A94D2F780FD09C0219788F72B
:10199000B12C8B2DCDB7DEB7E9E00C94E031B80166
:1019A0008C2F0E94E20A0E94FD0A019779F3F1CF81
:1019B000CF93DF93EC010E949C0CBE010E94E20ACF
:1019C0000E94FD0ADF91CF910895292F9E3080F566
:1019D000863070F590E036E0239F800D911D112434
:1019E000682F677023E0969587952A95E1F725E0A3
:1019F000289FF001299FF00D1124EE51FE4F50E079
:101A000040E080E0219130E0062E02C03695279517
:101A10000A94E2F721703327042E01C0220F0A94A2
:101A2000EAF7822B4F5F5F4F4530510559F7089514
:101A300080E00895292F9E30A0F5863090F590E043
:101A400036E0239F800D911D1124282F277041E03F
:101A500001C0440F2A95EAF723E0969587952A95C9
:101A6000E1F725E0289FF001299FF00D1124EE51A8
:101A7000FE4F30E020E070E05191DF011197CB0183
:101A8000022E02C0969587950A94E2F7817081959F
:101A90008527842385278C932F5F3F4F2530310581
:101AA00059F70895FC01808191810E94D80C92958C
:101AB0009F70963091F058F4925F9F70923058F476
:101AC000803F19F030F4883E30F481E008959A5F49
:101AD000F4CF843FD1F380E00895883EB0F3813F96
:101AE000D1F7F3CFCF92DF92EF92FF926C01EE2409
:101AF000FF2420E0C114D104E104F10419F0C7016E
:101B0000B60120E1C72ED82EE92EFF24C114D1043E
:101B1000E104F10419F0285FC701B6016B017C01F3
:101B200054E0F694E794D794C7945A95D1F7C1142A
:101B3000D104E104F10419F02C5FC701B6016B0177
:101B40007C0142E0F694E794D794C7944A95D1F784
:101B5000C114D104E104F10419F02E5FC701B601EC
:101B60009695879577956795672B682B692B09F074
:101B70002F5F822FFF90EF90DF90CF9008952798EE
:101B80002F98089526982E98089525982D980895B1
:101B900056985E980895279A2F9A0895269A2E9A15
:101BA0000895259A2D9A0895209828982198299883
:101BB00022982A9823982B9852985A9853985B9871
:101BC0003E98469808958098889A8198899A849832
:101BD0008C9A85988D9A86988E9A87988F9A089570
:101BE0008093F1027093F3026093F2028091A60356
:101BF0008430F9F48093E9008FEF9091E8008150F0
:101C000095FD06C095ED9A95F1F700008111F5CF8D
:101C10008091E80085FF0DC050E040E063E070E097
:101C200081EF92E00E946D068091E8008E778093AC
:101C3000E8000895BC0184E00E94F00D0895BC0105
:101C400083E00E94F00D08959C0184E08093E900F8
:101C50009FEF8091E800915085FD06C085ED8A9543
:101C6000F1F700009111F5CF8091E80085FF0CC0DD
:101C700050E040E066E070E0C9010E946D0680918E
:101C8000E8008E778093E8000895CF93DF93EC010E
:101C9000809129018823B1F18091EF0287FF32C042
:101CA00060E284E08093E9008FEF9091E80081503A
:101CB00095FD06C095ED9A95F1F700008111F5CFDD
:101CC0008091E80085FF1BC08091290170E050E001
:101CD00040E0811104C050E040E068E070E0CE01D7
:101CE0000E946D068091E8008E778093E80080E284
:101CF000FE01A8EFB2E001900D928A95E1F7DF9125
:101D0000CF91089568E081E0CDCFEF92FF920F93DD
:101D10001F93CF93DF930E94C80D0E94C50D0E94B0
:101D2000C20D0E94BF0D88E8E82EF12C8FEF90E0E5
:101D3000F701918380830AE810E0F80191838083A2
:101D4000CCE8D0E0998388830E94D10DFFEF20E793
:101D500082E0F15020408040E1F700C000000E9486
:101D6000CE0D9FEFE0E7F2E09150E040F040E1F768
:101D700000C000000E94CB0D2FEF80E792E02150C1
:101D800080409040E1F700C000000E94C50DEFEFD9
:101D9000F0E722E0E150F0402040E1F700C0000011
:101DA0000E94C20D8FEF90E7E2E081509040E0404A
:101DB000E1F700C000000E94BF0D80918102877092
:101DC000FFEF8F9FC0011124959587959595879575
:101DD0009927F70191838083F80191838083998308
:101DE00088830E94C80D0E94C50D0E94C20D0E94EA
:101DF000BF0DCDB7DEB7E6E00C94E331CF93C82F2B
:101E0000873078F58091190190911A01892B39F565
:101E100064E670E080E40E94E23090931A018093BF
:101E20001901892BD1F464E670E082E10E945031FF
:101E300090931A0180931901892B79F481E090E045
:101E400001C0880FCA95EAF764E670E080950E94A9
:101E5000503190931A01809319010E94A331CF91C0
:101E600008958A30B1F038F4883069F0893071F023
:101E7000209A2898F4CF8C3091F070F08D30C1F713
:101E80003E9A4698ECCF219A2998E9CF229A2A982F
:101E9000E6CF239A2B98E3CF529A5A98E0CF539AE1
:101EA0005B98DDCF0F931F93CF93DF9380919F03B8
:101EB00080FD0BC0E7E2F3E01182108212821382F0
:101EC000349653E0EF39F507B9F7E7E2F3E0928192
:101ED00020813181892F291708F4822F381708F4BF
:101EE000832F8383381B3183281B2083981B928385
:101EF000349683E0EF39F80751F78091D3028823B5
:101F0000D1F08091190190911A01892BA1F480914F
:101F10001801882381F064E670E084E80E94E230D2
:101F2000CBE9D3E00FE513E0892B09F42FC0109221
:101F300018010E94A331579A3BB13F772BB120681B
:101F40004FB7F89487E293E0FC015191CF0168E02C
:101F50002BB9000000C057FF3BB9550F000000C06F
:101F600000C000C03BB900C06A9591F7F3E08F391B
:101F70009F0751F74FBF8FE594E00197F1F700C03D
:101F80000000DF91CF911F910F91089564E670E0FA
:101F900088810E94503164E670E089810E9450314E
:101FA00064E670E08A810E94503164E670E08B81C3
:101FB0000E94503124970C171D0741F7BACFA4E0B7
:101FC000B0E0E5EEFFE00C94C931162F042F90919C
:101FD0009F0390FF22C09E012F5F3F4F4FEF6FEF97
:101FE0000E94EF081017C8F48B8199812A8134E090
:101FF000139FF0011124E95DFC4F218390838283BC
:1020000013821F5F34960113F8CF0E94520F8FE99D
:102010009FE00197F1F700C000002496E4E00C94E3
:10202000E531EF92FF920F931F93CF93DF938C01D3
:10203000C7E2D3E0F12CE12CF80194816091A10377
:102040008091A003FFE0EF16F104ECF49923E9F08E
:102050009E014091A2030E94EF082FEFE21AF20ABC
:1020600024968EE1E816F10439F70E94520FF80128
:10207000848190E00196817099278483CDB7DEB783
:10208000E6E00C94E331992319F39E0140E0E3CF9D
:10209000B0E0A0E0EEE4F0E10C94C131EC014C8141
:1020A000042F10E09801D8010E94A4349B01AC01D8
:1020B0000E946F344B015C01E0E2F0E0E01BF10BA9
:1020C000A5E5B0E0AC019B010E946F346B017C017F
:1020D0009F01DF010E941A329B01AC010E947A34F9
:1020E0009B01AC01280D391D4A1D5B1DC701B601BE
:1020F0000E948234F22E822F90E039E23F1598F14F
:1021000043E0249F9001112435952795122F1095B7
:1021100097E2C92E93E0D92E00E085E5E82EEF186E
:102120008E2D01FD8F2D9601412F6091A1030E94FC
:10213000EF080F5F54E0C50ED11C0E3189F70E94E5
:10214000520F9C8181E0992319F0903219F48FEF9E
:102150008093280180912801890F8C83CDB7DEB749
:10216000ECE00C94DD3125E530E0A901481B590B6A
:10217000CA019A01220F331F280F391F37FFC4CF1E
:102180002F5F3F4FC1CF0F931F93CF93DF93C7E2D2
:10219000D3E0FE011182108212821382349683E012
:1021A000EF39F807B9F710E000E08091DE02082E61
:1021B000000C990B081719078CF180912701082E44
:1021C000000C990B801791074CF19E014091A203DE
:1021D0006091A1038091A0030E94EF080F5F1F4F41
:1021E00024960E31110509F70E94520F80912601A5
:1021F0009091DE02980F9093DE0220912701280F24
:1022000020932701121614F49D311CF081958093C0
:102210002601DF91CF911F910F91089519821882A5
:102220001A821B82DBCFB0E0A0E0E9E1F1E10C947F
:10223000C431FC018281DD24DA9480FD02C0DD24FA
:10224000D39407E213E0D0E0C0E02EE1B22EF80113
:10225000118210821282138294E0E92EF12CC12C9B
:102260008091DD028C0D8F31C4F16B2D0E94F23113
:10227000892F082E000C990B8C179D0791F48091E3
:10228000A2038E9DA0018F9D500D11245595479559
:102290005595479598016091A1038091A0030E94F4
:1022A000EF08CD0CF1E0EF1AF108D1F621960C5FA2
:1022B0001F4FCE31D10559F60E94520F8091DD0299
:1022C00091E0D91210C081110CC08DE18093DD0224
:1022D000CDB7DEB7E9E00C94E03187FFCACF825E6C
:1022E000C8CF8150F3CF90E00196BE010E9400322A
:1022F000EDCFEF92FF921F93CF93DF93EC0187E234
:10230000E82E83E0F82E10E08C8197014091A20323
:102310006091A103810F0E94EF08185F84E0E80E2E
:10232000F11C103F89F70E94520F9A818C8190FF17
:1023300008C08F5F8C83DF91CF911F91FF90EF904A
:1023400008958150F7CF90919F0390FF0DC0E7E271
:10235000F3E08183608342831382349693E0EF3904
:10236000F907B9F70E94520F0895A4E0B0E0EBEB33
:10237000F1E10C94C9318C018091DF0281110AC016
:102380009E012F5F3F4F4FEF6FEF0E94EF088A8152
:102390008093DF02F8016481613069F08091DF028F
:1023A00040E0662361F040E0623011F44091DF02CA
:1023B00080E060E004C06091DF0240E080E00E94C5
:1023C000A311F801848190E0019663E070E00E941F
:1023D000003284832496E4E00C94E531A4E0B0E07C
:1023E000E4EFF1E10C94CB3190919F0390FF0AC090
:1023F0009E012F5F3F4F0E94EF084B8169818A81C8
:102400000E94A3112496E2E00C94E731CF93DF936E
:10241000EC01EFE9F3E0438162818C810E94EE11CF
:102420008C818F5F8C83DF91CF910895CF93DF9361
:10243000EC01EC81F0E0E95DF64F4491EFE9F3E067
:10244000628181810E94EE118C818F5F8C83DF918C
:10245000CF910895CF92DF92EF92FF926B017C01B2
:102460000E94E008B701A60188E090E00E943E3497
:10247000FF90EF90DF90CF900895A4E0B0E0E3E408
:10248000F2E10C94BE31F82E762EE42E622E90915D
:102490009F0390FF29C0E92FE695AE2FB0E0A95920
:1024A000BE4F8C918093DA029E7F923009F59E0197
:1024B0002F5F3F4F8F2D0E94EF084B8169818A81EA
:1024C0000E94A311F092A0037092A103E092A203D4
:1024D000662051F060919F037091A0038091A10349
:1024E0009091A2030E942A122496EFE00C94DA3114
:1024F000823019F4E090A203E5CF863019F4F09011
:10250000A003E0CF8930D9F38931E1F6E9518E2F6C
:102510008170582EE695F0E0EE5DF64FE4910E2FB7
:1025200010E087E2C82E83E0D82EB12CA12C9EE1CA
:10253000892E912CC501B4010E94A7318F2D511015
:1025400013C0860F96014E2D672D0E94EF08A00E36
:10255000B11E84E0C80ED11C8FE9C81683E0D806EE
:1025600049F70E94520FAECF861BECCFEFE9F3E0A4
:10257000438125E0421B08F440E021E06281818133
:102580000E943D120895EFE9F3E0438125E0420FF8
:1025900008F44FEF21E0628181810E943D1208958D
:1025A000EFE9F3E0628125E0621B08F460E021E0DE
:1025B000438181810E943D120895EFE9F3E0628139
:1025C00025E0620F08F46FEF21E0438181810E94D2
:1025D0003D120895EFE9F3E0818121E043816281BA
:1025E00085500E943D120895EFE9F3E0818121E0DA
:1025F000438162818B5F0E943D1208958091A30305
:10260000882319F081508093A30360919F037091F8
:10261000A0038091A1039091A2030E942A12089521
:102620008091A303833018F48F5F8093A30360919C
:102630009F037091A0038091A1039091A2030E9437
:102640002A120895EFE9F3E080818E7F8083608114
:102650007181828193810E942A121092DB022FEFF6
:1026600080E792E0215080409040E1F700C00000F8
:102670000E94520F0895EFE9F3E083E08083118216
:102680008FEF828383831482608171818281938141
:102690000E942A1208958091F5029091E002892B00
:1026A00080939E01909172029923A1F0892B8093CF
:1026B0009E01809129018823E1F18091EF0287FF3B
:1026C00038C08EE1E0EAF1E090E08150A0F5911190
:1026D0000E94850C40E250E062E572E08EE991E0F4
:1026E0000E94EB33892B21F180E2EEE9F1E0A2E5D3
:1026F000B2E001900D928A95E1F7E091E402F09149
:10270000E5023097A9F080912901882359F0809142
:10271000EF0287FF07C080919E0180939F0186E0B2
:1027200080939E010280F381E02D8EE991E009956E
:10273000089586E0C7CF2191222339F29F5FC5CF4C
:102740008091E102882349F08091E0028D7D8093A1
:10275000E0020E944B131092E1020895882321F0B9
:102760000E948B0C0E944B130895882339F090919E
:10277000F502982B9093F5020E944B13089568EE92
:102780007EEF90E080E00E944A3460E082E090E0DA
:102790000E942C3460E083E090E00E942C34109280
:1027A000730210927402109275021092760260E029
:1027B00084E090E00E942C3464E082E290E00E9489
:1027C0002C3460E085E090E00E942C3460E086E0EC
:1027D00090E00E942C346FEF87E090E00E942C3450
:1027E00040E050E0BA0188E090E00E943E3460E0B2
:1027F0008DE090E00E942C3440E050E0BA0188E186
:1028000090E00E943E3460E087E190E00E942C342A
:1028100040E050E0BA018CE190E00E943E3470E06C
:1028200060E080E290E00E944A3440E050E0BA016B
:1028300088E190E00E943E34109281021092820260
:10284000109283021092840284E08093810240916E
:1028500081025091820260918302709184028FE024
:1028600090E00E943E3440E050E0BA0183E190E005
:102870000E943E34089580E290E090931A01809384
:1028800019018091D30281110EC00E94DC3081E0D9
:102890008093D3022FEF83ED90E32150804090404E
:1028A000E1F700C0000064E670E080E40E94E230DE
:1028B00090931A0180931901892B09F04EC064E6A8
:1028C00070E080E00E94503190931A0180931901CA
:1028D000892B09F042C064E670E080E00E9450312C
:1028E00090931A0180931901892BB9F564E670E081
:1028F0008FE30E94503190931A0180931901892B24
:1029000061F50E94A33164E670E080E40E94E23049
:1029100090931A0180931901892BF9F464E670E011
:102920008CE00E94503190931A0180931901892BF9
:10293000A1F464E670E080E00E94503190931A01A7
:1029400080931901892B49F464E670E08FE30E94BB
:10295000503190931A01809319010E94A331809104
:1029600019010895CF93873050F580911901909106
:102970001A01C0E0892B71F464E670E081E40E94E2
:10298000E23090931A0180931901892B31F0C0E055
:102990000E94A3318C2FCF91089584E690E00E948D
:1029A0007F3197FF05C090931A0180931901EFCFF3
:1029B000C82FC09510921A0110921901E9CFCFB11A
:1029C0008FB1869586958C73C3708C2BC82FC0955C
:1029D000E1CF1F920F920FB60F9211242F933F93C6
:1029E0004F935F936F937F938F939F93AF93BF9317
:1029F000EF93FF938091E10082FF09C08091E20094
:102A000082FF05C08091E1008B7F8093E10080917F
:102A1000DA0080FF24C08091D80080FF20C0809120
:102A2000DA008E7F8093DA008091D90080FF9DC00C
:102A300080E189BD82E189BD09B400FEFDCF81E05E
:102A40008093A6038091F402811109C00E941D06A3
:102A50000E9442078091E20084608093E2008091AE
:102A6000E10080FF17C08091E20080FF13C08091D9
:102A7000E2008E7F8093E2008091E200806180938B
:102A8000E2008091D80080628093D80019BC85E074
:102A90008093A6038091E10084FF2BC08091E20027
:102AA00084FF27C080E189BD82E189BD89B5982F67
:102AB000917080FFFBCF8091D8008F7D8093D800EC
:102AC0008091E1008F7E8093E1008091E2008F7E13
:102AD0008093E2008091E20081608093E200809127
:102AE0001A03882309F447C084E08093A6038091E9
:102AF000A6038091E10083FF27C08091E20083FF5D
:102B000023C08091E100877F8093E10082E0809381
:102B1000A60310921A038091E1008E7F8093E1005A
:102B20008091E2008E7F8093E2008091E2008061DC
:102B30008093E20042E060E080E00E941007809114
:102B4000F00088608093F000FF91EF91BF91AF910A
:102B50009F918F917F916F915F914F913F912F91B5
:102B60000F900FBE0F901F90189519BC1092A603DE
:102B70001092F40274CF8091E30087FD93E090936C
:102B8000A603B5CF78941F921FB61F9211248F937E
:102B90009F93AF93BF938091E9029091EA02A09135
:102BA000EB02B091EC020196A11DB11D8093E902E8
:102BB0009093EA02A093EB02B093EC02BF91AF9125
:102BC0009F918F911F901FBE1F9018959C014FB72A
:102BD000F8948091E9029091EA02A091EB02B09101
:102BE000EC024FBF821B930B08952FB7F89480918E
:102BF000E9029091EA02A091EB02B091EC022FBFA2
:102C0000089560919F03669570E04BE050E08BE182
:102C100091E00E94DE33892B19F481E08093DB027E
:102C20000E94F5159093D5028093D4020895909157
:102C30009F0390FF2CC0917081112AC092609093E5
:102C40009F03662351F060919F037091A0038091D0
:102C5000A1039091A2030E942A1260919F0366959E
:102C600070E04BE050E08BE191E00E94DE33892B75
:102C7000B1F01092DB0281E08093D70220E0409116
:102C8000A2036091A1038091A0030E943D120895C8
:102C9000853210F09864D3CF880F982BD0CF0E9444
:102CA0000116E9CF60E00E9417160895EFE9F3E0FE
:102CB00080818160808386950E945216089580915C
:102CC000D202811135C090E080E00E941634883E27
:102CD0009E4F21F00E94BF130E943B1388E090E0BA
:102CE0000E94103460939F037093A0038093A1030C
:102CF0009093A2036E7F71F40E943B1388E090E0F2
:102D00000E94103460939F037093A0038093A103EB
:102D10009093A2030E94E0081092DB0280919F032F
:102D200080FF03C086950E94521681E08093D202F4
:102D3000089561E00E9417160895CF92DF92EF92F6
:102D4000FF92CF93DF936B017C010E94720DD82F0D
:102D50000E94C80D0E94C50D80912603811102C0FA
:102D60000E94C20D0E94BF0DC091E001EFEFED0F78
:102D7000E73008F087C0F0E0EB54FB4C0C941432C1
:102D80000E94D10DC1110FC00E94561681E00E9411
:102D900052164EE16FE088E70E94DF0F4FE060E0DF
:102DA00085ED0E94DF0FC701B601DF91CF91FF9043
:102DB000EF90DF90CF9008950E94CB0DC111F3CF1B
:102DC0000E94561681E00E9452164EE16FE085ED9A
:102DD0000E94DF0F4FE060E088E7E3CF0E94D10D53
:102DE0000E94CB0DC111DFCF0E94561681E00E94D8
:102DF000521620E04FEF6FEF88E751C00E94D10DCF
:102E00000E94CE0D0E94CB0DC111CDCF0E9456164F
:102E100080910A010E945216C6CF0E94CE0DC111A8
:102E2000C2CF0E94561620E040E060E080E037C04C
:102E30000E94D10D0E94CE0D0E94CB0DC111B3CFC7
:102E400088E090E00E94103460939F037093A00389
:102E50008093A1039093A20360FF24C0862F81601A
:102E600080939F0386950E94991680919F03869573
:102E70000E94991621E04091A2036091A1038091E4
:102E8000A0030DC0D111DACFC1118DCF0E9456160B
:102E900081E00E94521620E04FEF6FEF85ED0E9417
:102EA0003D1281CF0E9422137ECF80919F03869591
:102EB000815009F484E261E00E9417160895809120
:102EC0009F0386958F5F853208F081E061E00E9464
:102ED0001716089590919F0390FF08C09695981734
:102EE00028F0961718F40E945F1708950E9499160B
:102EF00008950E94F5159C019091CE028091CF0219
:102F0000982B21F03093CB022093CA029091D002EB
:102F10008091D102982B21F03093C9022093C802EE
:102F2000E091E402F091E502309749F082E080936D
:102F3000CC020480F581E02D8CEC92E00995089597
:102F400090E080E00E94B60890E080E00E94A00837
:102F50001092E0020E944B1386E0ECECF2E0DF01FD
:102F60001D928A95E9F71092C6021092C50210923E
:102F7000C7020E9479170895CF92DF92EF92FF92D5
:102F8000CF93DF93CDB7DEB7A0970FB6F894DEBF2F
:102F90000FBECDBF0E949D166B017C018091A503E1
:102FA0008823B1F02FEF80E792E0215080409040DD
:102FB000E1F700C0000085E08983C701B6010E94E7
:102FC000720D8A838EEF8B83CE0101960E94990643
:102FD000C0929302D0929402E0929502F0929602EF
:102FE0000E94A017A0960FB6F894DEBF0FBECDBF0B
:102FF000DF91CF91FF90EF90DF90CF9008950F93E6
:103000001F9341E050E060E070E004C0440F551FA2
:10301000661F771F8A95D2F7809193029091940250
:10302000A0919502B09196028A019B010827192769
:103030002A273B27C901B8010E94BC171F910F9195
:1030400008950F931F9341E050E060E070E004C0EA
:10305000440F551F661F771F8A95D2F7CB01BA011F
:1030600060957095809590950091930210919402CF
:10307000209195023091960260237123822393233D
:103080000E94BC171F910F91089590915102809555
:10309000892380935102282F277091F4282F082E1E
:1030A000000C330B9217130659F09091F00292FF27
:1030B00007C08595859585950E942118109251022B
:1030C0000895CF93C091F002C2FB992790F9981709
:1030D00091F080FBC2F9C093F0026091EF0284E0AE
:1030E00090E00E942C346C2F82E290E00E942C34FD
:1030F00082E00E944518CF9108950F931F9341E0FD
:1031000050E060E070E004C0440F551F661F771F59
:103110008A95D2F78091930290919402A0919502A2
:10312000B09196028A019B01082B192B2A2B3B2B6D
:10313000C901B8010E94BC171F910F9108956093B7
:1031400073027093740280937502909376020E94CA
:10315000A017089580912901E0EAF1E0882361F049
:103160008091EF0287FF08C08EE1DF011D928A95F2
:10317000E9F70E94A017089586E0F7CFAAE2B0E031
:10318000E4ECF8E10C94CA318BE193E02091F1007A
:10319000FC012193CF01F3E083329F07B9F78091BF
:1031A0001C03893009F444C018F5823009F4BCC00E
:1031B000833009F46FC0813031F580911B03813A6F
:1031C00011F58091E800877F8093E80080911F03CC
:1031D00090912003892B41F560E288EF92E070E046
:1031E0000E94FC078091E8008B778093E8000BC079
:1031F0008B3009F46CC008F486C0823409F4A5C091
:10320000853409F4BFC08091E80083FF5AC28091E1
:103210001B0390911C039A3008F053C2E92FF0E091
:10322000E454FB4C0C94143260E090E080E0D7CF83
:1032300080911B03813239F780911F039091200305
:10324000009711F00297F9F68091E800877F80934C
:10325000E8008091E80082FF18C09091F30080910F
:10326000F200029731F48091F100813011F0863044
:1032700021F48091F1008093F7028091E8008B7730
:103280008093E8000E94F106BECF8091A6038111D1
:10329000E0CFB9CF80911B03813A09F0B4CF809180
:1032A0001F0390912003892B09F0ADCF8091E80096
:1032B000877F8093E8008091E80080FFFCCF8091B9
:1032C00029018093F1008091E8008E77D9CF809119
:1032D0001B03813209F097CF80911F039091200347
:1032E000892B09F090CF8091E800877F8093E800D8
:1032F0000E94F10680911D03809329011092F5022E
:103300000E94AA1880CF80911B03813209F07BCFE5
:103310008091E800877F8093E8000E94F106809109
:103320001E038093F6026FCF80911B03813A09F050
:103330006ACF8091E800877F8093E8008091E80061
:1033400080FFFCCF8091F602BCCF80911B03803CB4
:1033500009F059CF80911F0390912003029739F50E
:1033600080911D0390911E03892B09F58091E8003F
:10337000877F8093E8006EE070E089ED9AE00E941C
:103380009D0780CF80911B03803C09F03CCF80914A
:103390001F0390912003079751F48091E800877FE5
:1033A0008093E80062EB70E087E29AE0E8CF8091DA
:1033B000EB0080628093EB0026CF803899F0823852
:1033C00009F07FC180911F038F70873008F079C1A9
:1033D0008093E9008091EB0085FB882780F91092AB
:1033E000E90006C080911803909119039111826041
:1033F0009091E800977F9093E8008093F1001092FD
:10340000F1008091E8008E7758C1882309F446C105
:10341000823009F056C180911D03811149C180910C
:103420001F038F702FEF280F263008F04AC18093BA
:10343000E9002091EB0020FF3BC1933031F48091F3
:10344000EB0080628093EB0033C19091EB009061C0
:103450009093EB0021E030E001C0220F8A95EAF75B
:103460002093EA001092EA008091EB008860EACF96
:10347000811127C110911D031F778091E30080788F
:10348000812B8093E3008091E800877F8093E800A0
:103490000E94F1068091E80080FFFCCF8091E3005C
:1034A00080688093E30082E0111183E08093A6039B
:1034B00008C18058823008F004C180911D039091AA
:1034C0001E038C3D23E09207A1F583E08A838AE204
:1034D00089834FB7F894DE01139620E03EE051E275
:1034E000E32FF0E050935700E49120FF03C0E295F2
:1034F000EF703F5FEF708E2F90E0EA30C0F0C7961C
:103500008D939D932F5F243159F74FBF8091E80031
:10351000877F8093E8006AE270E0CE0101960E9406
:10352000FC078091E8008B778093E800CAC0C096C2
:10353000E7CF20911F0330912003492F55274330B7
:10354000510551F1A0F44130510509F459C062E729
:1035500070E088EE9AE04230510509F0B2C0209147
:10356000E800277F2093E8000E949D07DACF4132D0
:10357000510539F14232510591F14F30510509F0B1
:10358000A0C0E0ECFBE0649170E08EEB9BE0611585
:10359000710509F496C0E3CF99278130910571F048
:1035A000009731F0029709F08CC0ECE6FBE002C016
:1035B000EAEBFBE0649170E0CF01E9CFE0E9FBE0EA
:1035C000F9CF2330310508F07CC0220F331FF901F9
:1035D000EB56FE4F8081918169E070E0C0CF2330CF
:1035E000310508F06EC0F901EE0FFF1FE157FE4FE5
:1035F0008081918124573E4FF901608170E0C7CFEF
:1036000062E170E08AE59BE0AACF803809F059C0FA
:103610008091E800877F8093E80080911A0380936F
:10362000F100EFCE81114DC010911D03123008F052
:1036300048C08091E800877F8093E80010931A03C8
:103640000E94F106112311F084E005C08091E3008F
:1036500087FDFACF81E08093A60342E061EC81E030
:103660000E94100742E261EC84E00E94100742E2EF
:1036700061EC82E00E94100742E260EC83E00E946D
:10368000100742E361EC85E00E94100742E360EC22
:1036900086E00E9410078091A60313C080911D034D
:1036A000813079F481E0933009F080E08093190350
:1036B0001092E9008091E800877F8093E8000E94E3
:1036C000F1068091E80083FF0AC08091E800877FBF
:1036D0008093E8008091EB0080628093EB00AA96D3
:1036E000E3E00C94E6311F920F920FB60F92112473
:1036F0002F933F934F935F936F937F938F939F93FA
:10370000AF93BF93CF93DF93EF93FF93D091E900F3
:10371000DF708091EC00C82FC17080FDC0E810926E
:10372000E9008091F000877F8093F00078940E94F8
:10373000BE181092E9008091F00088608093F0003C
:10374000CD2BCF70C093E900FF91EF91DF91CF9126
:10375000BF91AF919F918F917F916F915F914F91A9
:103760003F912F910F900FBE0F901F9018951092C0
:10377000F5020E94AA182FEF84E39CE021508040BC
:103780009040E1F700C0000088E19AE00FB6F8949D
:10379000A895809360000FBE90936000FFCF8823B0
:1037A00091F19CEF980F913A40F4682F8EE991E0E7
:1037B0000E9476080E944B13089590E2980F98306B
:1037C00050F4877091E001C0990F8A95EAF7892F2C
:1037D0000E948B0CEFCF9BE5980F933028F490E07C
:1037E00080E00E94B608089598E5980F973128F474
:1037F00090E080E00E94A00808958D3E20F00E9495
:1038000086090E9479170895CF93C82F882309F459
:1038100042C08CEF8C0F813A08F065C0809129017D
:103820008823D9F18091EF0287FF37C0EC2FE6950E
:10383000E695E695F0E0E256FE4F828190E04C2F4F
:10384000477021E030E002C0220F331F4A95E2F7B3
:1038500082239323892B61F06C2F8EE991E00E94E3
:1038600076080E944B1323C08091EF0287FF23C08C
:10387000EC2FE695E695E695F0E0E256FE4FC77030
:1038800021E030E001C0220FCA95EAF78281822B45
:1038900082830E944B13CF910895E0EAF1E086EA1B
:1038A00091E02191C217C1F28E179F07D1F7809145
:1038B00029018111D9CFA0EAB1E0EFEF80E09D911D
:1038C000C91739F3EF3F19F4911101C0E82F8F5F49
:1038D0008630A9F7EF3FE9F20E2E000CFF0BE256FF
:1038E000FE4FC283D6CF80E28C0F883068F4C77059
:1038F00021E030E001C0220FCA95EAF78091F5027D
:10390000822B8093F502C5CFEBE5EC0FE33040F45A
:10391000F0E0EA5CFE4F808190E00E94B608BBCFE9
:10392000E8E5EC0FE73150F4F0E0EE0FFF1FE75C45
:10393000FE4F808191810E94A008ADCFCD3E08F45A
:10394000AACF8C2F0E94430A0E947917A4CF1F93FD
:10395000CF93DF93182FD0E0C0E0893311F4C0E596
:10396000D0E0812F0E94041C209739F4812F0E94FF
:10397000CF1BDF91CF911F9108958FE99FE00197B1
:10398000F1F700C000002197EFCF0F931F93CF9363
:10399000DF93C62FD42F022FFC0182818823A9F048
:1039A000609325030E94F5159093240380932303CD
:1039B000C77081E001C0880FCA95EAF70E94B5136D
:1039C000DF91CF911F910F91089580912503681386
:1039D00032C080912303909124030E94E6158D3715
:1039E000910548F510E21D0FCD17B9F080E28C0F5C
:1039F000883040F4C77081E001C0880FCA95EAF7AB
:103A00000E94AE13183048F481E09D2F977001C0DA
:103A1000880F9A95EAF70E94B513802F0E94A71C81
:103A2000183070F6D77081E001C0880FDA95EAF798
:103A30000E94AE13C5CFC77081E001C0880FCA9540
:103A4000EAF7F6CFB0E0A0E0E8E2FDE10C94C33184
:103A5000EC018AE0A82EFE012491222309F497C0EC
:103A6000213009F03EC031968491813031F42296A4
:103A7000FE0184910E94A71C07C0823039F422966F
:103A8000FE0184910E94041C2196E5CF833031F41D
:103A90002296FE0184910E94CF1BF6CF843009F05C
:103AA00074C02296FE01249190E080E0FE013196E0
:103AB0002053330B2A30310548F0019728F3EFE902
:103AC000FFE03197F1F700C00000F7CFA89EA001FA
:103AD000A99E500D1124C901840F951F2491EF0157
:103AE000E5CFE22FF0E0EC50FE4FB490822F8695A8
:103AF0008695869590E0FC01EC51FE4FE49027708E
:103B0000F12C022E02C0F594E7940A94E2F731E01A
:103B1000E322FF24FC01EC52FE4FC490D12C022E74
:103B200002C0D594C7940A94E2F7E1E0CE22DD24E6
:103B3000FC01EC53FE4F049110E002C0159507956F
:103B40002A95E2F701701127E114F10419F081EED2
:103B50000E94041CC114D10419F086EE0E94041CBA
:103B60008B2D0E94A71CC114D10419F086EE0E946F
:103B7000CF1BE114F10419F081EE0E94CF1B011557
:103B8000110509F481CF8CE275CFEF017DCFCDB760
:103B9000DEB7EAE00C94DF311092260387EF9BE05A
:103BA0000E94221D81E00E94FF170895B0E0A0E06E
:103BB000ECEDFDE10C94C4318091190190911A0152
:103BC000892BB9F0809177028F5F80937702811102
:103BD00010C00E943B1490E090931A018093190149
:103BE000892B39F40E94850E81E0809318010E9490
:103BF0005F1605E812E07801B12CD0E087E0C82E0E
:103C0000CD0E8D2F0E94FE0E8C2D0E94FE0E8D2F4C
:103C10000E94B2148F73F7019081D12C891719F08B
:103C20008083DD24D3948C2D0E94B2148F73F7010E
:103C30009781891709F444C0878381E08D29B82AC8
:103C40000E94D40DDF5FFFEFEF1AFF0AD730B1F605
:103C5000D0917B02DD2309F47AC00E94F5152091F2
:103C6000790230917A02AC01421B530B9A01909376
:103C70007A02809379024F3F510509F018F5452BE0
:103C8000E1F010927B0210927802E0917F02F091B5
:103C90008002AF01425F5F4F90E030E08081882377
:103CA00021F0281790F010829D2F3196E417F50728
:103CB000A9F730937B0290937802B11057C04AC0A5
:103CC00080E0BCCF2FEF30E0DCCF821B80833D2F24
:103CD000ECCF9170892B09F47CC080917D0290918A
:103CE0007E028130984780F01092A4036091930285
:103CF0007091940280919502909196020E949D1677
:103D000010927E0210927D0280917D0290917E023F
:103D1000019690937E0280937D028B2DCDB7DEB706
:103D2000E9E00C94E0310E94CE0D5AC0892BA9F332
:103D300010927E0210927D02609193027091940223
:103D400080919502909196020E949D16E6CFDB2D00
:103D5000B11006C080917802882349F1D11106C0C4
:103D60000E94F51590937A0280937902A0917F02C8
:103D7000B091800280917B02E9E9F2E027EA32E02B
:103D80004EE15191E80199918E01591751F05C91E2
:103D9000511107C04C93BF0161507109EB01988329
:103DA00081E011962E173F0761F780937B02809187
:103DB0007D0290917E022091A403222309F4B6CFC4
:103DC000009709F086CF0E94C50D0E94C20D0E9487
:103DD000BF0DD0917C02DD2309F4A5CF0E94C20D56
:103DE00081E0D827D0937C0278CFA3E2B0E0EBEF5C
:103DF000FEE10C94BB313C01DC0113968D919C914A
:103E00001497892B41F08C9111969C9189238F3FB7
:103E100011F00C94BB28A396E2E10C94D7310E94D8
:103E20009C0C182F682F89819A810E941A0D698134
:103E30007A81812F0E94E20A4C0181509545D4017C
:103E40008F3F910510F4E5E5BE27F301F281FBA356
:103E5000FF2309F4DDC2AF3FB10509F008F487C0C4
:103E6000AC32BD4509F46AC01092DE01D090A403C3
:103E7000DD2009F449C3ABA1A11166C0E091DF01C7
:103E8000E330A0F481E08E0F8093DF01F0E0EE0FCD
:103E9000FF1FE754FD4FD3018D919C919183808347
:103EA00082E08983CE0101960E949906BFEFE3ED7F
:103EB000F0E3B150E040F040E1F700C00000809135
:103EC000DF01833009F040C01092A4031092DF019B
:103ED0009091BA028091C00298130C94B5289091E9
:103EE000B9028091BF0298130C94B5289091BC023E
:103EF0008091C20298130C94B5289091BB028091D6
:103F0000C10298130C94B5289091C4028091BE020E
:103F100098130C94B5289091C3028091BD02981318
:103F20000C94B52884E0898381E08093A5038EEF0B
:103F30008A83CE0101960E94990606C08091DE0117
:103F400091E089278093DE0180915102877009F406
:103F500062CFD30112968C91882309F45CCF8091B3
:103F6000F00282FF58CF82E00E94451854CF809122
:103F7000DE01882309F4E8C01092DE01A03CB105FF
:103F8000E8F5A038B10508F0A9C0A034B10508F0E3
:103F90006FC021E030E040E050E060E070E080E0A1
:103FA00090E00A2F0E942932E091BE012E2BE09171
:103FB000BF013E2BE091C0014E2BE091C1015E2B71
:103FC000E091C2016E2BE091C3017E2BE091C40110
:103FD0008E2BE091C5019E2B2093BE013093BF0133
:103FE0004093C0015093C1016093C2017093C3011B
:103FF0008093C4019093C5014D0138CFAF3FB10507
:1040000009F038F68D01005C110921E030E040E054
:1040100050E060E070E080E090E00E942932E091A2
:10402000D6012E2BE091D7013E2BE091D8014E2BEB
:10403000E091D9015E2BE091DA016E2BE091DB017A
:104040007E2BE091DC018E2BE091DD019E2B2093F5
:10405000D6013093D7014093D8015093D901609392
:10406000DA017093DB018093DC019093DD01C4CF12
:104070008D010054110921E030E040E050E060E0A3
:1040800070E080E090E00E942932E091C6012E2B82
:10409000E091C7013E2BE091C8014E2BE091C90190
:1040A0005E2BE091CA016E2BE091CB017E2BE0915B
:1040B000CC018E2BE091CD019E2B2093C601309335
:1040C000C7014093C8015093C9016093CA0170931E
:1040D000CB018093CC019093CD018ECF8D01005800
:1040E000110921E030E040E050E060E070E080E065
:1040F00090E00E942932E091CE012E2BE091CF0179
:104100003E2BE091D0014E2BE091D1015E2BE0914E
:10411000D2016E2BE091D3017E2BE091D4018E2B46
:10412000E091D5019E2B2093CE013093CF01409397
:10413000D0015093D1016093D2017093D301809349
:10414000D4019093D50158CFA034B10508F06BC0CD
:10415000E091BE01F091BF015090C0014090C101BB
:104160003090C2012090C3013091C40139A38091E5
:10417000C5018AA321E030E040E050E060E070E05B
:1041800080E090E00A2F0E942932A22EAE22B32EA8
:10419000BF22C42EC520D52ED420E62EE320F72E34
:1041A000F22009A108231AA119230E94423209F022
:1041B0005DCEA03CB10508F096C0A038B10508F06E
:1041C000F7C0A034B10508F0C3C021E030E040E002
:1041D00050E060E070E080E090E00A2F0E94293219
:1041E0002095309540955095609570958095909567
:1041F0002E233F234521542163217221A9A18A2323
:10420000BAA19B232093BE013093BF014093C0010C
:104210005093C1016093C2017093C3018093C401A4
:104220009093C50191CEA038B105F0F4E091C6019C
:10423000F091C7015090C8014090C9013090CA0167
:104240002090CB019091CC0199A32091CD012AA37C
:1042500021E030E040E050E060E070E080E090E09D
:104260008D01005411098FCFA03CB105F0F4E0910D
:10427000CE01F091CF015090D0014090D10130900B
:10428000D2012090D3013091D40139A38091D5017E
:104290008AA321E030E040E050E060E070E080E0A0
:1042A00090E08D01005811096ECFE091D601F09198
:1042B000D7015090D8014090D9013090DA01209078
:1042C000DB019091DC0199A32091DD012AA321E07B
:1042D00030E040E050E060E070E080E090E08D0190
:1042E000005C110950CFAF3FB10511F008F06DCF60
:1042F0008D01005C110921E030E040E050E060E019
:1043000070E080E090E00E94293220953095409541
:10431000509560957095809590952E233F2345216B
:10432000542163217221E9A18E23FAA19F232093B6
:10433000D6013093D7014093D8015093D9016093AF
:10434000DA017093DB018093DC019093DD01FCCDF9
:104350008D010054110921E030E040E050E060E0C0
:1043600070E080E090E00E942932209530954095E1
:10437000509560957095809590952E233F2345210B
:10438000542163217221E9A18E23FAA19F23209356
:10439000C6013093C7014093C8015093C90160938F
:1043A000CA017093CB018093CC019093CD01CCCD09
:1043B0008D010058110921E030E040E050E060E05C
:1043C00070E080E090E00E94293220953095409581
:1043D000509560957095809590952E233F234521AB
:1043E000542163217221A9A18A23BAA19B2320937E
:1043F000CE013093CF014093D0015093D10160930F
:10440000D2017093D3018093D4019093D5019CCDB8
:10441000AF3FB10511F008F029CDA034B10550F53A
:10442000A090BE01B090BF01C090C001D090C1016A
:10443000E090C201F090C301F091C401E091C50188
:1044400021E030E040E050E060E070E080E090E0AB
:104450000A2F0E942932A222B322C422D522E622A8
:10446000F722082F0F23192F1E230E94423209F032
:10447000FDCC6ACDA038B105E0F4A090C601B090A3
:10448000C701C090C801D090C901E090CA01F09066
:10449000CB01F091CC01E091CD018D0100541109C7
:1044A00021E030E040E050E060E070E080E090E04B
:1044B000D0CFA03CB105A0F4A090CE01B090CF0128
:1044C000C090D001D090D101E090D201F090D30102
:1044D000F091D401E091D5018D0100581109E0CF90
:1044E000A090D601B090D701C090D801D090D9014A
:1044F000E090DA01F090DB01F091DC01E091DD0168
:104500008D01005C1109CCCF8091A503882381F037
:10451000ABA187E0A11186E08983F30180818A83C2
:1045200081818B838EEF8C83CE0101960E94990648
:10453000FFEA8F16FDE59F0609F074C0D3011296BD
:104540008C918823C9F18091810291E0980F977036
:10455000887F953008F4892B8093810280918102B5
:104560008770BFEF8B9FC001112495958795959516
:1045700087959927909389008093880090938B006A
:1045800080938A0090938D0080938C0040918102EB
:104590005091820260918302709184028FE090E0DA
:1045A0000E943E3460919302709194028091950232
:1045B000909196020E949D168091E102882309F451
:1045C00091C20091F502109172020E94F515885473
:1045D000944F9093B7028093B602D30112968C91B8
:1045E000882309F47FC2102B1D7909F05AC2811467
:1045F000B5E59B0608F03AC28114E3E59E0608F093
:10460000D0C18114F0E59F0608F0C6C1811420E4F2
:10461000920608F049C236EE8316910409F4C1C12E
:10462000C40148C2E9EB8E16EDE59E0609F419C1F6
:1046300008F070C023EB82162DE5920609F4E5C060
:10464000D0F580EB88168DE5980609F476C1F0F474
:10465000A1EE8A16910409F47DC1B1E08B16B8E58C
:104660009B0609F47DC1BEEA8B16BDE59B0609F0E9
:10467000A3CFF3018281882309F466CC8091E10203
:10468000882309F479C10E94A0135ECCE1EB8E1659
:10469000EDE59E0609F44AC1F2EB8F16FDE59F0693
:1046A00011F7F3018281882309F44ECC8CE194E068
:1046B0000E94221DB8C026EB82162DE5920609F451
:1046C000BFC0A0F484EB88168DE5980609F4AEC04F
:1046D00095EB89169DE5990631F6D30112968C91DA
:1046E000882309F431CC8AED93E0A7C0A7EB8A16A2
:1046F000ADE59A0609F4ACC0B8EB8B16BDE59B0698
:1047000009F0B1CFF3018281882309F41DCC8CE933
:1047100093E0CECFEFEB8E16EDE59E0609F4C5C013
:1047200080F52CEB82162DE5920609F4ADC0A8F4B5
:104730008AEB88168DE5980609F49CC09BEB8916D8
:104740009DE5990609F08FCFD30112968C918823AD
:1047500009F432CF86E593E094C0ADEB8A16ADE55F
:104760009A0609F499C0BEEB8B16BDE59B0609F0CD
:104770007ACFF3018281882309F4E6CB84E093E0C9
:104780005CC0E2EC8E16EDE59E0609F49FC0A8F42D
:1047900020EC82162DE5920609F490C031EC8316C8
:1047A0003DE5930609F05FCFD30112968C918823E3
:1047B00009F4CACB80EB92E040C084EC88168DE50A
:1047C000980609F494C008F489C0A5EC8A16ADE5F2
:1047D0009A0609F048CFD30112968C91882309F4E8
:1047E000B3CB80910A0190910B010D9709F09BC00A
:1047F00088E090E090930B0180930A010E94561686
:1048000080910A010E9452169FCBD30112968C917F
:10481000882309F499CB88E194E00E94221D8091BD
:10482000E101811191CB0E94CC1D8ECBF3018281DD
:10483000882309F489CB86E094E00E94221D84CB72
:10484000F3018281882309F47FCB80EC93E0F5CFDC
:10485000D30112968C91882309F476CB8EEA93E0EB
:1048600027CFD30112968C91882309F46DCB80E970
:1048700093E01ECFF3018281882309F49DCE86E761
:1048800093E00E94221D98CEF3018281882309F4CF
:104890005BCB82E593E00CCFD30112968C918823F9
:1048A00009F452CB84E293E0C8CFD30112968C91E5
:1048B000882309F449CB80EF92E0BFCFF3018281D6
:1048C000882309F441CB80ED92E0B7CFF3018281D8
:1048D000882309F439CB8CE992E0AFCFD30112964B
:1048E0008C91882309F430CB8CE792E0A6CFF301BA
:1048F0008281882309F428CB8091260381110AC084
:1049000088E792E00E94221D81E0809326030E94A6
:10491000CE0D1ACB84E792E00E94221D109226034E
:104920000E94C20D11CB8DE090E064CFF301828133
:10493000882309F409CB81E030C1D30112968C9110
:10494000882309F401CB8091E00191E089278093CD
:10495000E001FACAF3018281882309F4F5CADECFA7
:10496000D30112968C91882321F081E08093E1019C
:10497000EBCA1092E101E8CA1092F5020E94850C80
:104980000E94F5158854944F9093B7028093B60215
:1049900081E08093E102D8CA811482E5980608F08C
:1049A0003FCED30112968C91882309F4F9C310925B
:1049B0002503BCE58B16BDE59B0609F475C108F01F
:1049C000D8C08114FCE59F0609F422C12FED8216A0
:1049D0002CE5920609F45BC1F3018281008111810B
:1049E000882309F465C1C8010E949C0CF82E682F29
:1049F000C8010E941A0DB8018F2D0E94E20A0E9480
:104A0000FD0A8C01A82ED3011296FC9012971596E0
:104A1000BC90B2943FE0B322809151028770C1F004
:104A2000FF20A9F0812F807F803421F080E2800F69
:104A3000883070F08091F00282FF0AC082E00E940C
:104A40004518809151028770DD24D3948111D12CB7
:104A5000C12EC2942FE0C222BBE0BC1508F48DC168
:104A6000EC2DF0E0EA53FB4C0C941432811499E5E0
:104A7000990660F48114A8E59A0608F092CFB4E193
:104A80008B16B5E59B0609F0CBCD8BCFC4019056B4
:104A90008115904208F0C4CDD30115968C91807F8A
:104AA00039F40E94A0131EC0F3018581807FD1F0EC
:104AB000C40199271092E0028832910558F48E3192
:104AC000910570F4049768F382E08093E0020E94FD
:104AD0004B1306C08D329105B9F3F0F48A9709F7AC
:104AE0000E944B1324EF82162CE5920699F1D8F41C
:104AF00089ED88168CE5980649F19AED89169CE5B2
:104B00009906A1F1A8ED8A16ACE59A0609F049CFFD
:104B100026E241EE61EE16C08C34910509F38D3228
:104B20009240F1F2BECFB6EF8B16BCE59B06D1F0FA
:104B3000A8F027E245EE66EEF7EF8F16FCE59F063C
:104B400009F02FCFC3010E94C51CFEC927E245EE24
:104B500065EEF8CF26E241EE60EEF4CF27E245EEB7
:104B600064EEF0CF26E241EE62EEECCF28E241E0C7
:104B7000EFCF3EE583163DE5930609F48BC008F4BC
:104B800095C099EA89169DE5990609F025CF0E94FE
:104B9000B71B816080939F0386950E949916D4C9A4
:104BA00045E557E16FE577E10E94D908CDC94FE5AA
:104BB00057E165E577E1F8CF44EF52E16AEE72E143
:104BC000F3CF40ED52E16DED72E1EECF46EB52E1F5
:104BD00063EC72E1E9CF43EC52E166EB72E1E4CFC2
:104BE00040E153E16EEF72E1DFCF65E082E00E94C9
:104BF0006A17AAC968E086E0FACF64E18FE0F7CFD0
:104C000067E185E1F4CF62E289E1F1CF83E2C5CFCC
:104C10001092F5020E94AA18AFEFB4E3ECE0A150A5
:104C2000B040E040E1F700C00000F89481E08093DC
:104C3000E00080E28093D8001092C9008FE19EE4EA
:104C40000197F1F700C000001DBA109268001CBC6B
:104C500010BE1FBA10927A0010926E0010926F0070
:104C600010927100109272001092C9001092BC0054
:104C700014B817B81AB81DB810BA1092BC0015B8FD
:104C800018B81BB81EB811BA0C94003F5DC90E9439
:104C9000BF137DCF8091F00282FB882780F991E0DD
:104CA00089270E94611898CE81E0FBCF80E0F9CF80
:104CB000C8010E94E50CF82E9ECEE12FEF70EE2E7B
:104CC000107F19F0E29490EFE922FF20B9F0EE2076
:104CD00069F080E2800F883010F0A11009C0809147
:104CE000F502E82AE092F5020E944B13802F43C0A0
:104CF0008091E002E82AE092E002F6CF802F0E9445
:104D0000CF1BEE20D1F1005E083010F0A11004C0DE
:104D10008E2D0E948B0C06C0E0948091E002E82268
:104D2000E092E0020E944B1328C0F12FFF70EF2E9B
:104D3000107F103219F0E29480EFE822AA2059F097
:104D400021E0A21609F471C0FF2009F479C0BB204C
:104D500009F471C0CBCF2091F00222FD43C0FF20A7
:104D6000D9F1EE2039F08091F502E82AE092F502BF
:104D70000E944B1380E00E94041CAC2DA850BB0B7A
:104D8000149710F40E94CC08DD20A9F08091510204
:104D900080FD11C0F30112828595859585950E944D
:104DA0007D18C3010E94F51E80915102859585955D
:104DB00085950E94211885E0F301DE01119601908E
:104DC0000D928A95E1F709811A81C8010E94E50CCC
:104DD000B8010E94E20A1FC880E00E94CF1BEE20AB
:104DE00061F296CFFF20A1F090917202892F8E2957
:104DF000B11003C00E94B513C0CF31E0B312FACF97
:104E000022FFBBCF981709F4B8CF80937202B5CFB9
:104E1000B11006C00E94850C8E2D0E94AE13ADCF3E
:104E200081E0B81609F4A9CFF5CFFF2031F091E069
:104E30009B1508F4A2CF8E2DDDCFB1109ECFECCF05
:104E4000BB2051F3A9E3AA1209C0BFEFE7EEF3E0DC
:104E5000B150E040F040E1F700C00000802F0E9418
:104E6000CF1B8BCF812F86958695837061F0813023
:104E700009F083CFC8019370F11002C090E080E088
:104E80000E94A0087ACFC8019370F11002C090E090
:104E900080E00E94B60871CF802FFF2029F00E9489
:104EA000430A0E94791769CF0E948609FACF812FA1
:104EB000837009F066C0F11060CF802F82958695CF
:104EC0008770880F880F602F6F70862E912CB12C01
:104ED000A12C082E04C0880C991CAA1CBB1C0A9487
:104EE000D2F740E050E0BA0104FF0FC04FE050E0BD
:104EF00060E070E004C0440F551F661F771F8A955D
:104F0000D2F74095509560957095812F869586953E
:104F10008370823019F1D8F40091730210917402F9
:104F20002091750230917602813069F04829592923
:104F30006A297B29CB01BA01602371238223932341
:104F40000E949F181ACF802A912AA22AB32ACB0145
:104F5000BA01682979298A299B29F2CF4829592938
:104F60006A297B29009173021091740220917502C5
:104F700030917602CB01BA016027712782279327EF
:104F8000DFCF8695FF2011F0812F8170882309F4EF
:104F9000F4CE802F829586958770880F880F602FBA
:104FA0006F70862E912CB12CA12C082E04C0880C79
:104FB000991CAA1CBB1C0A94D2F740E050E0BA012D
:104FC00004FF0FC04FE050E060E070E004C0440F09
:104FD000551F661F771F8A95D2F7409550956095AB
:104FE0007095812F869586958370823019F1D8F45B
:104FF00000919302109194022091950230919602B3
:10500000813069F0482959296A297B29CB01BA01E5
:1050100060237123822393230E94BC17AECE802A83
:10502000912AA22AB32ACB01BA01682979298A29AF
:105030009B29F2CF482959296A297B29009193029B
:10504000109194022091950230919602CB01BA0101
:105050006027712782279327DFCF1F70FF2029F059
:10506000812F0E947D18802FC5CE802F0E94AE1305
:10507000812F0E94211881CE802F22EFA21669F184
:105080002A1570F030EFA316D1F091EFA91691F028
:10509000FF2009F45AC0B11029CE812F8F7121C091
:1050A000A3EFAA1609F1B4EFAB12F2CF8091F00290
:1050B00082FD2DC0812F8F71FF20D9F212C0FF20F9
:1050C00039F0B1105ACE812F8F710E94FF1755CE43
:1050D000E1E0EB1508F451CEF6CF812F8F71F1107E
:1050E000C8CF0E947D1849CE60E070E0CB01FF2060
:1050F00009F492CF1F7161E070E080E090E004C09D
:10510000660F771F881F991F1A95D2F785CFFF204A
:1051100089F01F71812F0E947D188091F00282FF1B
:1051200007C0F8E01F9FC0011124836080935102E3
:10513000812FD7CF81E00E94451821E02B1508F080
:105140001CCE82E00E94451818CEBB2059F089334E
:1051500009F084CE3FEF87EE93E0315080409040DD
:10516000E1F77ACE812F8F7184CF83E0898310920B
:10517000A5030C94971F85E0F301DE0111960190C1
:105180000D928A95E1F7D30112962C9189819A812B
:1051900021110C940F1F0E94E50C182F0C94171F5F
:1051A0008091F5028272BDEC8B16BCE59B0609F47A
:1051B00017CD08F056C0F7EC8F16FCE59F0609F4F2
:1051C000FBCC30F534EC83163CE5930609F4E8CCCF
:1051D00070F4A3EC8A16ACE59A0609F0FDCB809139
:1051E0009F0380FFD6CC0E9422130C94A41FB5EC21
:1051F0008B16BCE59B0609F4DACC4AEE52E164EF6B
:1052000072E1E6EC8E16ECE59E0609F4CDCCE4CB1B
:10521000FAEC8F16FCE59F0609F4D8CC88F438EC3C
:1052200083163CE5930609F4CCCC4DED52E160EDDC
:1052300072E199EC89169CE5990609F4B5CCCCCBC2
:10524000ABEC8A16ACE59A0609F4C5CC4EEF52E1F8
:1052500060E173E1BCEC8B16BCE59B0609F4A4CCC1
:10526000BBCBE2ED8E16ECE59E0609F4C6CCB8F495
:105270002FEC82162CE5920609F4B7CC08F45BCB30
:1052800080ED88168CE5980609F4B4CC6EE089E0D0
:1052900091ED89169CE5990609F4A9CC9DCBA5ED65
:1052A0008A16ACE59A0609F4AECC70F4E3ED8E16DE
:1052B000ECE59E0609F4A4CC88E1F4ED8F16FCE53C
:1052C0009F0609F46ACC88CB26ED82162CE592065F
:1052D00009F49CCC3FE583163DE5930611F40C944C
:1052E000A41F7ACB1F93CF93DF9380911E02807F00
:1052F00009F049C080911B02882309F444C08091C1
:105300005002D0911F026091190270911A02A0916F
:105310001C02B0911D02C62FC72316E0D81799F1C1
:1053200090E0109711F0CF3F19F401968770F6CFF7
:10533000189F9001199F300D1124F901E05EFD4F77
:1053400041814713F2CF40814613EFCF4281411193
:10535000ECCF438154814A1B5B0B4D37510528F735
:1053600080911E028F70806180931E02F901EB5DB7
:10537000FD4F80818F708061808389E192E00E947F
:10538000F51E0E94920CDF91CF911F910895A1E12B
:10539000B0E0EDECF9E20C94C3318C0185E0F8014A
:1053A000DE011D9601900D928A95E1F7F801E280E9
:1053B00089E1A82E82E0B82E60911C0270911D0236
:1053C0006115710509F426C19091190240911A02E4
:1053D000892F84238F3F09F41DC120813181C3802F
:1053E000D480F0901B02F601E61BF70BFF2009F4B6
:1053F000DCC080911E02582F507FED37F10508F078
:105400009FC051116BC0FE2C431314C0921312C0E5
:10541000E11010C08F70806180931E02C5010E9450
:10542000F51E80911E02F80185838F2D6196EAE0BA
:105430000C94DF31C114D10429F0822F83238F3FD4
:1054400009F003C180E0F82FF170DF2E80FF3CC02F
:105450008091500240911F0256E0841315C02D87A1
:105460003E878D859E850E94D80C292F22952F700E
:105470002230F0F0243018F59F70F1F0F80195819A
:10548000907FD1F4D12C1EC090E0589FF001599F1D
:10549000F00D1124E05EFD4F6181361306C060817E
:1054A000261303C06281E6120FC001968770D5CF24
:1054B0009F7011F0882331F3805E883018F3C801A3
:1054C0000E94F51EFD2CB1CFEE2009F4AECF8091E5
:1054D0001E02816080931E02F12CA7CF431306C0E9
:1054E000921304C0F801EE2009F479C0C8010E94AB
:1054F000520D882309F1EE20F9F080911E028032CE
:1055000070F02091190230911A0238872F83198682
:10551000DB86CA868C87CE0107960E94F51E86E040
:10552000F801A9E1B2E001900D928A95E1F70E949D
:105530007229FF24F39479CFC8010E94F51EF9CF98
:1055400051110AC089E192E00E94F51E86E0F50142
:1055500011928A95E9F7C0CF43130FC092130DC083
:10556000E1100BC0F8018583C8010E94F51E86E09A
:10557000F50111928A95E9F758CFC8010E94520DA2
:105580008823D1F2EE20C1F280911E02803238F2DF
:105590002091190230911A023A8329831B82DD82FD
:1055A000CC828E83CE010196B8CFED37F105F8F6A7
:1055B000FE2CEE2009F243131FC092131DC08091F0
:1055C0001E0280FD10C0982F907F69F0F80185833E
:1055D000903F31F0982F907F905F8F70892B85835B
:1055E000C8010E94F51E86E0F801A9E1B2E0019031
:1055F0000D928A95E1F719CFC8010E94520D8111D1
:105600008ECF80911E02816080931E02C8010E948D
:10561000F51E0BCFEE2009F48FCFC8010E94520D6A
:10562000F82E882309F488CF86E0F801A9E1B2E0DA
:1056300001900D928A95E1F78091190290911A02DA
:105640000E94D80C0E947229F0CE81E08E25FBCEFC
:10565000A7E1B0E0EEE2FBE20C94CA314B8B5C8B2D
:105660006D8B7E8B8F8B61111092E0021A8A198AE2
:1056700085E0FE017396DE011D9601900D928A95DC
:10568000E1F786E0FE013D96DE01179601900D924E
:105690008A95E1F7CE0107960E94C729882359F021
:1056A00016E08091500290911F02891345C06796C1
:1056B000E3E00C94E63186E0FE013796DE011196B8
:1056C00001900D928A95E1F78A859B85892B41F39C
:1056D0008F81988589238F3F19F320911F0230E035
:1056E000C901019687709927409150024817190601
:1056F00081F41092F5020E94AA1810921F021092D3
:10570000500286E0E9E1F2E0DF011D928A95E9F7B7
:10571000C7CF96E0929FD001939FB00D1124A05E59
:10572000BD4FFE01319601900D929A95E1F780935D
:105730001F020E94920CB4CF819FC0011124805E91
:105740009D4F0E94C729882309F4B1CF8091500250
:1057500090E001968770992780935002A2CF1F9204
:105760001FB61F9211248F939F93AF93BF93809185
:10577000E802811113C08091E9029091EA02A091A0
:10578000EB02B091EC024196A11DB11D8093E9029C
:105790009093EA02A093EB02B093EC02BF91AF9119
:1057A0009F918F911F901FBE1F901895CDB7DEB7A8
:1057B000CC57D1090FB6F894DEBF0FBECDBF85B769
:1057C000806885BF85B7806885BF84B7877F84BFC1
:1057D0000FB6F894A895809160008861809360006E
:1057E000109260000FBE80E890E00FB6F8948093AE
:1057F0006100909361000FBE8DE99AE090939D0146
:1058000080939C010E941D060E9442078091E20045
:1058100084608093E20078948091A6038823A1F0AD
:105820001091E9001F709091EC00892F817090FD1C
:1058300080E8182B1092E9008091E80083FD0E9417
:10584000BE181F701093E90082E084BD93E095BDFF
:105850009AEF97BD80936E000E943B1490E0909366
:105860001A01809319010E94D40D0E94E30DE5E80E
:10587000F2E083E992E0A9E9B2E011921D928E175D
:105880009F07D9F78EE090E00E94B33280937F02A9
:1058900090938002FC010E961192E817F907E1F748
:1058A00089EA8093800089E08093810024982C9875
:1058B0003F988AB18F7C8AB96E98479A8BB1806382
:1058C0008BB9769A8FE090E00E9410346093810249
:1058D00070938202809383029093840267702FEF0B
:1058E000629FB00111247595679575956795772727
:1058F000709389006093880070938B0060938A0096
:1059000070938D0060938C000E94850E90E080E083
:105910000E941634883E9E4F11F00E94BF1382E011
:1059200090E00E9408348093A70284E090E00E94F7
:105930000834182F82E290E00E940834982F812FBB
:105940009093F0028093EF0283E090E00E9408348D
:10595000682F70E090E080E00E949F1860919302B1
:105960007091940280919502909196020E949D16EA
:105970000E945F166091EF0260686093EF021091E1
:10598000F00284E090E00E942C34612F82E290E0EB
:105990000E942C3460919302709194028091950240
:1059A000909196020E949D168CE091E09093E50202
:1059B0008093E402B8E1EB2EF12C10E4B12E01E467
:1059C000C02ED12CCC0EDD1E82E0C80ED11C8091E1
:1059D000A6039924939400E112E1853009F445C2AD
:1059E0000E94D61D882359F08FB7F8944091E902A0
:1059F0005091EA026091EB027091EC028FBFE8EAED
:105A0000F2E0A9E9B2E010E000E0302F8D91919131
:105A1000981709F444C2292F282790E099249394D9
:105A2000422F492109F436C2E4969FAFE497E596E8
:105A30003FAFE597892191E009F490E0E6969FAFAA
:105A4000E6970E94F5158160782FE8969FAF8EAF9C
:105A5000E897E4964FADE497E5965FADE597E69657
:105A60006FADE697E8968FADE8970E94282BF80176
:105A7000E855FD4F8081982690828091E10288232D
:105A800069F00E94F5152091B6023091B702821B91
:105A9000930B8F3F9F4710F40E94A0138091DB026D
:105AA0008823D1F18091DA02E0919F03E695E81B0B
:105AB000E093D602823009F019C2F0E0E25EF74FBF
:105AC000E4910E2F10E0A6E18A2EA2E19A2E809199
:105AD000D702882361F01092D7020E94F5159093A7
