:100000000C9402060C941F060C941F060C941F06F9
:100010000C941F060C941F060C941F060C941F06CC
:100020000C941F060C941F060C948C150C941E1C2B
:100030000C94062E0C941F060C941F060C941F069D
:100040000C941F060C941F060C941F060C941F069C
:100050000C941F060C9465160C941F060C941F0636
:100060000C941F060C941F060C941F060C941F067C
:100070000C941F060C941F060C941F060C941F066C
:100080000C941F060C941F060C941F060C941F065C
:100090000C941F060C941F060C941F060C941F064C
:1000A0000C941F060C941F060C941F0605010902F0
:1000B000A10185020901A1000509190129081500FE
:1000C0002501950875018102050109300931158165
:1000D000257F95027508810609381581257F9501D0
:1000E00075088106050C0A38021581257F95017572
:1000F000088106C0C005010980A101850319012AF4
:10010000B700150126B700950175108100C0050CD8
:100110000901A101850419012AA002150126A002E6
:10012000950175108100C005010906A1018506052C
:100130000719E029E71500250195087501810205D9
:1001400007190029EF1500250195F07501810205B9
:10015000081901290595057501910295017503910D
:1001600001C00660FF0961A1010962150026FF00B8
:100170009520750881020963150026FF00952075FA
:10018000089102C005010906A101050719E029E748
:1001900015002501950875018102950175088101F9
:1001A0000507190029FF150026FF0095067508812F
:1001B000000508190129059505750191029501753C
:1001C000039101C00103E1000000000000000000F5
:1001D000000000000000000000000000000000001F
:1001E0000000000000000000000000007E0F00D4AE
:1001F000FFFFFFC7000000780000000000000000C3
:100200002A2B280000000000000000000000000071
:1002100000000029000000002C1E3420212224347C
:100220002627252E362D3738271E1F20212223244E
:1002300025263333362E37381F0405060708090AEA
:100240000B0C0D0E0F101112131415161718191A86
:100250001B1C1D2F3130232D350405060708090A04
:100260000B0C0D0E0F101112131415161718191A66
:100270001B1C1D2F3130354C0102E101014F0103E0
:10028000E1010435307C0102E001011B0103E001C2
:100290000435307C01014F000103E1000102E1005F
:1002A0000102E00101170103E0010435307C010285
:1002B000E001010F0103E0000102E101011F010360
:1002C000E1010435307C0102E101011F0103E1017C
:1002D0000435307C01015000010134010435307CCB
:1002E000010134010435307C010150000102E101BB
:1002F00001360103E1010435307C0102E1010137DF
:100300000103E1010435307C010150000102E101EB
:10031000012F0103E1010435307C0102E1010130CC
:100320000103E1010435307C0101500001012F017E
:100330000435307C010130010435307C010150006E
:100340000102E10101260103E1010435307C0102D3
:10035000E10101270103E1010435307C0101500076
:1003600001014C0001014C0001014D0001014A0056
:1003700001014A010436307C010128010436307C39
:10038000010152010436307C0102E0010119010330
:10039000E00001014A010436307C010128010436E5
:1003A000307C0101520001014A010436307C010217
:1003B000E101014D0103E1010436307C0102E0015D
:1003C00001060103E00001014A010436307C01020C
:1003D000E10102E001014C0103E00103E100010140
:1003E0004A010436307C0102E10102E001014C01C6
:1003F00003E00103E10001014D010436307C0101FD
:1004000028010436307C0102E00101190103E000FB
:1004100001014D010436307C010128000102E10197
:1004200002E001014C0103E00103E1002B042B0178
:100430002961E100E00000001E00140004001D001E
:10044000640036021F001A0016001B0035002B0046
:100450002000080007000600E2002C002100150023
:100460000900190001582F02220017000A00050098
:1004700000002602230046000000B05D00002F00AF
:100480002400AE5D000014500000300025001C0068
:100490000B00110000002702260018000D001000BC
:1004A0000258300227000C000E00360034002A00EB
:1004B0002D0012000F0037001F0228002E0013002D
:1004C00033003800320037022B060007E300E1005A
:1004D0004C0000000100AC00010001000100000020
:1004E0003A001A01BB5D01000100C15D3B004F01F4
:1004F000BC5DC75D010001003C000F014C01B25D15
:10050000010001003D001C010100C55D0100C05D4E
:100510003E00C45D015750010000BE5D3F00010078
:10052000000001000000BF5D40000100000001006C
:100530000000010041000601500001000000010020
:1005400042001D0151000100035101004300BA5D4A
:1005500052000100C25D2A014400B35D4F0001005A
:10056000C35D010045001901AE000901C65D01002F
:100570000100AB0001000100C35C00000100AC0001
:1005800001000100010000001E011A014D000100E0
:10059000FD004E001F014F011601BD5DFE00500918
:1005A00020010F01B55DB65DFF00F10021011501CD
:1005B00001004900035101002201010002575001CE
:1005C0000000FB002301160A000001000000FA00F1
:1005D00024010100000001000000F9002501B75DC1
:1005E000EF0001000000FC0026011D01EE000100EB
:1005F00001000100A8004A00ED0001000100F20026
:10060000AA00B85DF000010001004F09A900B45D27
:10061000AE000901C65D4B000100AB000100010006
:10062000C35C0000C75CC95C010001000100000060
:100630005900010001000100010001005A00010001
:1006400001000100010001005B0001000100010048
:10065000010001005C000100010001000100010037
:100660005D000100010001000000FB005E000100D0
:10067000000001000000FA005F000100000001001E
:100680000000F90060000100010001000000FC0012
:100690006100010001000100010001006200010091
:1006A0000100010001000100010001000100010042
:1006B0000100010053000100C45C0100AF5D0100B6
:1006C000C65CC85C15500100005C00000100010020
:1006D00029000100010000000100010001000100EB
:1006E0000100010001000100010001000100010002
:1006F000010001000100010001002B0001000100C8
:10070000010001002C0001000100010001000100B6
:1007100000000100010001000000010000000100D4
:100720000100010000001050000001000100010064
:1007300001000100000001000100010001000100B2
:1007400001000100010001000100010001000100A1
:100750000100010001000100010001000100010091
:100760000100010001000100010001000100010081
:100770000100000000000000000000000000000078
:100780000000000000000000000000000000000069
:100790000000000000000000000000000000000059
:1007A0000000000000000000000000000000000049
:1007B0000000000000000000000000000000000039
:1007C0000000000000000000000000000000000029
:1007D0000000000000000000000000000000000019
:1007E0000000000000000000000000000000000009
:1007F00000000000000000000000000000000000F9
:1008000000000000000000000000000000000000E8
:1008100000000000000000001050000000047F3FB6
:100820001F643214643214783C1E1E140A05000141
:1008300001010101010101010202020202020202A0
:100840000203030303030303030404040404040472
:100850000505050505060606060607070707070836
:10086000080808090909090A0A0A0B0B0B0C0C0CE9
:100870000D0D0D0E0E0E0F0F0F1010111111121283
:1008800013131414151516161717181819191A1A00
:100890001B1B1C1D1D1E1E1F202021222223242461
:1008A000252626272829292A2B2C2D2D2E2F30319D
:1008B0003232333435363738393A3B3C3D3E3F40AF
:1008C0004142434445464748494A4C4D4E4F50519A
:1008D0005354555658595A5B5D5E5F616264656654
:1008E00068696B6C6D6F7072737577787A7B7D7EDB
:1008F0008082838587888A8C8E8F91939596989A2B
:100900009C9EA0A2A3A5A7A9ABADAFB1B3B5B7BA42
:10091000BCBEC0C2C4C6C9CBCDCFD1D4D6D8DBDD16
:10092000DFE2E4E7E9EBEEF0F3F5F8FAFDFFFFAA0A
:100930007F55402223252628292A2C2D2F3032337B
:100940003536383A3B3D3E4042434547494A4C4E96
:100950005051535557595A5C5E6062646668696BC2
:100960006D6F71737577797B7D7F81838587898AC8
:100970008C8E90929496989A9C9E9FA1A3A5A7A8CE
:10098000AAACAEAFB1B3B4B6B8B9BBBCBEBFC1C2FE
:10099000C3C5C6C7C9CACBCCCDCED0D1D2D2D3D491
:1009A000D5D6D7D7D8D9D9DADADBDBDBDCDCDCDCAF
:1009B000DCDDDDDDDDDCDCDCDCDCDBDBDBDADAD97D
:1009C000D9D8D7D7D6D5D4D3D2D2D1D0CECDCCCBFF
:1009D000CAC9C7C6C5C3C2C1BFBEBCBBB9B8B6B41D
:1009E000B3B1AFAEACAAA8A7A5A3A19F9E9C9A98AD
:1009F000969492908E8C8A89878583817F7D7B797E
:100A0000777573716F6D6B6968666462605E5C5A5E
:100A10005957555351504E4C4A4947454342403E21
:100A20003D3B3A3836353332302F2D2C2A292826B3
:100A30002523220A00000000000306B2000800017E
:100A4000000000A800080002000300A0001400033A
:100A50000057494E555342000000000000000000BE
:100A6000008400040007002A004400650076006945
:100A7000006300650049006E007400650072006646
:100A800000610063006500470055004900440073A1
:100A900000000050007B003900440042003700464F
:100AA000003100460044002D00370045003700416A
:100AB000002D0034003000300038002D00390033A4
:100AC00000360042002D003600420041003600434F
:100AD0000031003900410033003000380063007DF0
:100AE00000000000000E0301646F63732E716D6BD4
:100AF0002E666D0009027200040100A0FA090400CC
:100B00000001030101000921110100012240000739
:100B10000581030800010904010002030000000927
:100B20002111010001222200070582032000010794
:100B3000050303200001090402000103000000096D
:100B4000211101000122B6000705840320000109DC
:100B500004030002FF0000000705850340000507AD
:100B6000050603400005120110020000000897323C
:100B7000754901000102000122034500720067006F
:100B80006F0044006F007800200045005A002000EC
:100B90005300680069006E006500000028035A00D9
:100BA00053004100200054006500630068006E009F
:100BB0006F006C006F006700790020004C0061003E
:100BC00062007300000004030904050F3900021CD1
:100BD000100500DF60DDD88945C74C9CD2659D9E1D
:100BE000648A9F00000306B2004500181005003813
:100BF000B60834A909A0478BFDA0768815B6650014
:100C00000142000011241FBECFEFDAE0DEBFCDBFEE
:100C100023E0A0EEB1E001C01D92A63FB207E1F7CC
:100C200011E0A0E0B1E0EEEDFEE602C005900D920D
:100C3000A03EB107D9F70E942D2E0C9450370C948A
:100C40000000E8EDF0E080818E7F80831092E2006A
:100C50001092DA001092E100A0EEB0E08C91816079
:100C60008C9380818F77808319BCA7EDB0E08C9145
:100C70008E7F8C9380818F7E8083109240030895B5
:100C80002091E4003091E50095E6A9012091EC0067
:100C9000822F817020FF06C08091E80080FF06C08F
:100CA00080E008952091E80022FD1AC08091F103B0
:100CB000882389F0853089F08091EB0085FD0FC095
:100CC0002091E4003091E50042175307F9F291506A
:100CD000E1F684E0089582E0089583E0089581E0DC
:100CE0000895EF92FF920F931F93CF937C018B0196
:100CF0000E944006C82F882371F08C2FCF911F913E
:100D00000F91FF90EF900895F70181917F018093FB
:100D1000F100015011090115110579F38091E800E6
:100D200085FDF2CF8091E8008E778093E8000E94E5
:100D30004006882381F3C82FE0CFCF93FC01809138
:100D4000F103843031F5C091E900CF702091EC00BF
:100D5000922F917020FD90E8C92B82E08093E900EA
:100D60008091E80080FF12C050E040E060E270E057
:100D7000CF010E947106882321F01092EF03109298
:100D8000F0038091E8008E778093E800CF70C093E5
:100D9000E900CF910895EF92FF920F931F93CF93A5
:100DA0007C018B010E944006C82F811117C08091E1
:100DB000E80085FD0BC08091E8008B778093E80008
:100DC0000E944006882399F3C82F08C08091F10043
:100DD000F70181937F010150110949F78C2FCF91C1
:100DE0001F910F91FF90EF9008958091670387FF07
:100DF00013C08091E80082FF06C08091E8008B77E5
:100E00008093E80004C08091F1038111F2CF08952E
:100E10008091F1038823D9F38091E80080FFF8CF17
:100E20008091E8008E77ECCF982F9093E900242FE3
:100E3000762F50E0891731F07091EC002091ED0091
:100E40005091F00021FD07C09F5F973071F78093AC
:100E5000E90081E008953091EB003E7F3093EB0094
:100E60003091ED003D7F3093ED003091EB0031602B
:100E70003093EB007093EC002093ED005093F00062
:100E80002091EE0027FDE0CF80E00895B0E0A0E0E3
:100E9000ECE4F7E00C946234C8EDD0E088818F7EFA
:100EA0008883E7EDF0E080818160808384E082BF09
:100EB00081E08093400388818E7F888302EE10E07A
:100EC000F80110821092DA0081EEC82ED12CF601C2
:100ED000108288818F778883888180688883888161
:100EE0008F7D888319BC1092F103109266031092D3
:100EF00065031092640390EEE92EF12CF7018081D6
:100F00008B7F808388818160888342E060E080E01D
:100F10000E941407F60180818E7F8083F801808112
:100F200081608083808188608083F70180818E7FEB
:100F30008083888180618883CDB7DEB7E8E00C9438
:100F40007E34FC0180916D0390916E0386179707A4
:100F5000A0F06115710529F48091E8008E778093E7
:100F6000E80090E06115710551F4911108C080917D
:100F7000E80082FF35C080E00895BC01F2CF809187
:100F8000F1038823C9F18530C9F18091E80083FD20
:100F900031C08091E80082FDEACF8091E80080FFB7
:100FA000E1CF8091F3002091F200382F6115710597
:100FB00019F02830310558F091E02830310509F05A
:100FC00090E08091E8008E778093E800CBCF849109
:100FD0008093F1003196615071092F5F3F4FE6CF4A
:100FE0008091F103882341F0853041F08091E80041
:100FF00083FFBDCF81E0089582E0089583E00895E6
:10100000FC0180916D0390916E0386179707A0F005
:101010006115710529F49091E8009E779093E8009E
:1010200090E06115710551F4911108C08091E800BC
:1010300082FF34C080E00895BC01F2CF8091F103BB
:101040008823C1F18530C1F18091E80083FD30C073
:101050008091E80082FDEACF8091E80080FFE1CF37
:101060008091F3002091F200382F6115710519F07D
:101070002830310558F091E02830310509F090E032
:101080002091E8002E772093E800CBCF81918093C8
:10109000F100615071092F5F3F4FE7CF8091F1035D
:1010A000882341F0853041F08091E80083FFBECF76
:1010B00081E0089582E0089583E008950895809185
:1010C000430308952091F103243099F425E02093FF
:1010D000E90070E050E040E00E947106882321F0B2
:1010E0001092390310923A038091E8008E77809332
:1010F000E800089520916D012223C9F020913B035F
:1011000027FF15C0E62FE695E695E695EE31D8F473
:10111000E80FF92FF11D677021E030E001C0220FC8
:101120006A95EAF720958281282322830895FC019D
:10113000329608962191621303C0DF0111971C9229
:10114000E817F907B9F70895209132033091330376
:101150002817390771F09093330380933203E0919D
:101160003003F0913103309721F00084F185E02DB8
:101170000995089520912E0330912F0328173907E0
:1011800071F090932F0380932E03E0913003F09140
:101190003103309721F00680F781E02D09950895FD
:1011A000E0913003F0913103309729F00190F08104
:1011B000E02D0995089580E00895FA01811101C09C
:1011C000FB010995089508958091EA03982F9E7F69
:1011D00029F4817082608093EA0308958A34E8F3E9
:1011E00081708864F8CFAF92BF92DF92EF92FF9246
:1011F0000F931F93CF93DF93082F162FE901E42F4E
:10120000F0E0E25DF74F611111C0E4915E2F4E2FC7
:101210004983E8835A831B82DF91CF911F910F91FD
:10122000FF90EF90DF90BF90AF900895E62EF12CE5
:101230004491D42EE42FF0E026E0829FC0011124D7
:101240002FEF30E0B9010E944434802F90E0880FE6
:10125000991F55E5569FD001579FB00D11248A1B49
:101260009B0B982F990F890F5901AE18BF08AE9E9E
:10127000D001AF9EB00DBE9EB00D11245B2F189F04
:1012800080011124012F11275901A01AB10AAE9E25
:101290008001AF9E100DBE9E100D11245901A81A99
:1012A000B108AE9CC001AF9C900DBE9C900D112466
:1012B000892F9927281B390B2E9FC0012F9F900D36
:1012C0003E9F900D1124E92F62307105A1F050F47A
:1012D0006115710509F49CCF6130710581F0EB2F28
:1012E000512F96CF6430710569F080F0663071053A
:1012F00009F48ECFF4CFE42F4B2F592F89CFE42F51
:10130000412F86CFEB2F542F492F82CF4B2F5D2DAE
:10131000E12F7ECF409118038D3E59F4809119033F
:1013200087FF0DC01092190341110BC010921003DA
:1013300008C08E3E81F48091190318169CF3442353
:1013400081F080911A0390911B03892B09F05AC0F8
:1013500010920F0308958F3E49F447FFF0CF10928B
:101360001803809119038111ECCFE0CF803F19F46D
:101370001416ACF3E4CF90911A03893F29F419169F
:10138000F4F610921A03DBCF8A3F19F497FFD7CFF8
:10139000F8CF90911B038B3F29F497FFD0CF109289
:1013A0001B03CDCF8C3F19F41916CCF3C8CF9FE0A7
:1013B000980F983090F4815F990B21E030E0B901EB
:1013C00002C0660F771F8A95E2F7CB018095909156
:1013D0001703892380931703B2CF8D3F31F4809197
:1013E00011038E7F80931103AACF8E3F21F4809149
:1013F00011038D7FF7CF8F3F09F0A1CF80911103AB
:101400008B7FF0CF08958091110380FD1AC081FD7C
:1014100014C082FD14C080910F03882391F08C3397
:1014200070F425E0829FC00111246CE370E00E94FB
:101430009D34862F672B29F0089582E0089585E07A
:10144000089581E008958091110380FD16C081FD0B
:1014500016C082FD18C080911003882391F08C3350
:1014600090F428E2829FC00111246CE370E00E9496
:101470009D34862F672B49F008958AE0089584E112
:10148000089588E0089588E2089581E008958D3EEA
:1014900031F40E94230A81958093190308958E3EAA
:1014A00019F40E94230AF8CF8F3E31F40E94230AD8
:1014B0008195809318030895803F19F40E94230AB0
:1014C000F8CF893F29F40E94030A80931A030895F4
:1014D0008A3F21F40E94030A8195F7CF8B3F31F4B4
:1014E0000E94030A819580931B0308958C3F19F491
:1014F0000E94030AF8CF9FE0980F983070F4815F44
:10150000990B21E030E001C0220F8A95EAF7809123
:101510001703822B8093170308958D3F31F4809138
:10152000110381608093110308958E3F21F480910F
:1015300011038260F7CF8F3FB9F780911103846068
:10154000F1CF80E0089590913B0392FF06C0282FD1
:1015500028712830F9F4877F846093FF06C0282F14
:1015600028712831F1F4877E846120913C0320FFAB
:1015700006C0382F38713830D9F4877F816021FF59
:1015800006C0282F28712831D1F4877E816194FD0F
:10159000877E0895282F24712430F9F68B7F886088
:1015A000DCCF282F2471243101F78B7E8861DDCFB9
:1015B000382F3171313019F78E7F8860E0CF282FB6
:1015C0002171213121F78E7E8861E1CF972F7E3006
:1015D000A8F4663098F470E026E0929F600D711DCB
:1015E0001124FB0194E5899FE00DF11D1124EE0FFC
:1015F000FF1FE45DFB4F85919491089580E090E09A
:101600000895CF93DF93EC0182389105A9F1D8F5C5
:101610008133910509F496C048F58932910509F4A2
:101620008AC08A9709F495C0C11521E5D20708F050
:10163000BCC0C11530E5D30708F014C1C83ED105C0
:1016400008F09CC0C03ED10560F5C83AD10508F04D
:1016500087C0C53AD10508F0FDC0C130D10509F1F8
:101660002097F9F0C430D105E0F440C085339105EE
:1016700009F45AC0C997C1F680913B03837089F081
:10168000C0EED0E00EC0833E910599F170F4803E2B
:10169000910501F1823E910539F680913B0382FD6F
:1016A00021C0CE01DF91CF910895863E910561F171
:1016B000873E910571F1843E910509F0B5CF809187
:1016C0003C0381FFEECF80913B03C7EED0E084FD69
:1016D0000DC0E7CF80913B0380FD12C190913C0388
:1016E00090FFDFCFC3EED0E084FFDBCFD0E0C0E0DF
:1016F000D8CF80913B0382FD06C190913C0390FDC1
:10170000BFCF84FFCECFF2CF80913B0383FDDDCFEF
:10171000C8CF80913B0383FDF9C090913C0391FFBA
:10172000F0CFC4EED0E0BDCF80913B0385FFB9CFB1
:10173000C9E2D0E0B6CF80913B0385FFB2CFC5E3CD
:10174000D0E0AFCF80913B0386FFABCFCAE2D0E0C1
:10175000A8CF80913B0386FFA4CFC1E3D0E0A1CF07
:10176000CF3BD10518F6C85AD0E0CC0FDD1FC358C7
:10177000DE4F0990D881C02DD46493CFC11540E2CB
:10178000D40758F4C11581E0D80708F08ACFCD3EC0
:10179000D10508F4ABCFD06584CFC11590E4D9074B
:1017A00008F4A4CFDF70D06A7CCFC11525E5D2073D
:1017B00000F5C11534E5D30708F08AC0C11543E52B
:1017C000D40708F071C0C11582E5D80708F467C0D6
:1017D000CE018370992721E030E002C0220F331F31
:1017E0008A95E2F7C695C69580E2C89FE00111246C
:1017F00052C0C11599E5D907A8F4C11528E5D2074B
:1018000008F06BC0C11536E5D30708F06FCF8C2FF9
:101810000E94A30AC82FD0E0DC2FCC27CC27DF7191
:10182000D0623FCFC1154AE5D40708F45BC0CE01B2
:1018300090568115904208F059CF8D2F8F710E94DC
:10184000A30A90E0982F882788279F719C012C2B52
:10185000E901E6CFC55AD0E0C658DE4FC881D0E0D6
:10186000D0641FCFCE01E4E096958795EA95E1F725
:1018700083702C2F26952695237040E2249F90019B
:101880001124382B8C2F8370C1E0D0E002C0CC0F24
:10189000DD1F8A95E2F7C22BD32BDC6802CFDC2F49
:1018A000CC27C16FD06AFDCECE018370992721E08D
:1018B00030E002C0220F331F8A95E2F7C695C69525
:1018C00090E2C99FE0011124C22BD32BDA68E9CE44
:1018D000DC2FCC27C46FD06AE4CEDC2FCC27C06FBE
:1018E000D06ADFCE8C2F8F700E94A30A34E0D69589
:1018F000C7953A95E1F7CF709C2FEC01D069D1CE16
:10190000C9E3D0E0CECEC2EED0E0CBCEC6EED0E082
:10191000C8CE8091BC0281111092BC0208958095BE
:1019200090912D03982390932D0308958095909185
:101930004103982390934103089580919A029091D6
:101940006902981301C008958F5F8770FACFB0E0E5
:10195000A0E0EDEAFCE00C9461348C01C090DD0263
:10196000D090DE02E090DF02F090E0028091BD02B4
:101970009091BE02A091BF02B091C002C82AD92A9C
:10198000EA2AFB2ACFE1D0E0BC2ED701C6010C2EFB
:1019900004C0B695A795979587950A94D2F780FDD0
:1019A00009C0219788F7B12C8B2DCDB7DEB7E9E0C0
:1019B0000C947D34B8018C2F0E94E60A0E94010B22
:1019C000019779F3F1CFCF93DF93EC010E94A70C3D
:1019D000BE010E94E60A0E94010BDF91CF9108959B
:1019E000292F9E3080F5863070F590E036E0239FF9
:1019F000800D911D1124682F677023E096958795BF
:101A00002A95E1F725E0289FF001299FF00D112488
:101A1000E45DFD4F50E040E080E0219130E0062E93
:101A200002C0369527950A94E2F721703327042ED9
:101A300001C0220F0A94EAF7822B4F5F5F4F4530B7
:101A4000510559F7089580E00895292F9E30A0F59B
:101A5000863090F590E036E0239F800D911D112493
:101A6000282F277041E001C0440F2A95EAF723E0B0
:101A7000969587952A95E1F725E0289FF001299F03
:101A8000F00D1124E45DFD4F30E020E070E0519155
:101A9000DF011197CB01022E02C0969587950A941B
:101AA000E2F7817081958527842385278C932F5FAA
:101AB0003F4F2530310559F70895FC018081918110
:101AC0000E94E30C92959F70963091F058F4925FCB
:101AD0009F70923058F4803F19F030F4883E30F413
:101AE00081E008959A5FF4CF843FD1F380E00895B8
:101AF000883EB0F3813FD1F7F3CFCF92DF92EF92E0
:101B0000FF926C01EE24FF2420E0C114D104E10413
:101B1000F10419F0C701B60120E1C72ED82EE92E35
:101B2000FF24C114D104E104F10419F0285FC701B6
:101B3000B6016B017C0154E0F694E794D794C79406
:101B40005A95D1F7C114D104E104F10419F02C5FC6
:101B5000C701B6016B017C0142E0F694E794D7948B
:101B6000C7944A95D1F7C114D104E104F10419F0E6
:101B70002E5FC701B6019695879577956795672B78
:101B8000682B692B09F02F5F822FFF90EF90DF9079
:101B9000CF9008959C019A9581159F4130F4832F31
:101BA000817031FF03C08260089580E00895FC01D8
:101BB0008081813041F49185911114C092859923DF
:101BC00089F082E00895823041F48185811107C057
:101BD0008285811106C083E0089586E0089585E03E
:101BE000089584E0089527982F98089526982E98B0
:101BF000089525982D98089556985E980895279AE7
:101C00002F9A0895269A2E9A0895259A2D9A089526
:101C1000209828982198299822982A9823982B98D8
:101C200052985A9853985B983E9846980895809891
:101C3000889A8198899A84988C9A85988D9A8698A2
:101C40008E9A87988F9A089580933D0370933F03EF
:101C500060933E038091F1038430F9F48093E900AE
:101C60008FEF9091E800815095FD06C095ED9A9513
:101C7000F1F700008111F5CF8091E80085FF0DC0DC
:101C800050E040E063E070E08DE393E00E94710675
:101C90008091E8008E778093E8000895BC0184E08D
:101CA0000E94240E0895BC0183E00E94240E089532
:101CB0009C0184E08093E9009FEF8091E8009150BF
:101CC00085FD06C085ED8A95F1F700009111F5CFED
:101CD0008091E80085FF0CC050E040E066E070E0D5
:101CE000C9010E9471068091E8008E778093E80018
:101CF0000895CF93DF93EC0180916D018823B1F1BA
:101D000080913B0387FF32C060E284E08093E9006A
:101D10008FEF9091E800815095FD06C095ED9A9562
:101D2000F1F700008111F5CF8091E80085FF1BC01D
:101D300080916D0170E050E040E0811104C050E0FE
:101D400040E068E070E0CE010E9471068091E800FA
:101D50008E778093E80080E2FE01A4E4B3E0019076
:101D60000D928A95E1F7DF91CF91089568E081E0C7
:101D7000CDCFEF92FF920F931F93CF93DF930E94EB
:101D8000FC0D0E94F90D0E94F60D0E94F30D88E8EB
:101D9000E82EF12C8FEF90E0F701918380830AE821
:101DA00010E0F80191838083CCE8D0E099838883A8
:101DB0000E94050EFFEF20E782E0F15020408040B6
:101DC000E1F700C000000E94020E9FEFE0E7F2E0A2
:101DD0009150E040F040E1F700C000000E94FF0D8C
:101DE0002FEF80E792E0215080409040E1F700C063
:101DF00000000E94F90DEFEFF0E722E0E150F04023
:101E00002040E1F700C000000E94F60D8FEF90E740
:101E1000E2E081509040E040E1F700C000000E9405
:101E2000F30D8091CB028770FFEF8F9FC0011124CB
:101E300095958795959587959927F7019183808347
:101E4000F80191838083998388830E94FC0D0E940E
:101E5000F90D0E94F60D0E94F30DCDB7DEB7E6E056
:101E60000C948034CF93C82F873078F580911B0174
:101E700090911C01892B39F564E670E080E40E94A2
:101E80007F3390931C0180931B01892BD1F464E66E
:101E900070E082E10E94ED3390931C0180931B015E
:101EA000892B79F481E090E001C0880FCA95EAF7A8
:101EB00064E670E080950E94ED3390931C0180935E
:101EC0001B010E944034CF9108958A30B1F038F45C
:101ED000883069F0893071F0209A2898F4CF8C30DE
:101EE00091F070F08D30C1F73E9A4698ECCF219A70
:101EF0002998E9CF229A2A98E6CF239A2B98E3CF04
:101F0000529A5A98E0CF539A5B98DDCF0F931F9364
:101F1000CF93DF938091EA0380FD0BC0E2E7F3E00B
:101F20001182108212821382349653E0EA3EF50742
:101F3000B9F7E2E7F3E0928120813181892F2917F7
:101F400008F4822F381708F4832F8383381B3183DA
:101F5000281B2083981B9283349683E0EA3EF8077F
:101F600051F780911D038823D1F080911B0190913E
:101F70001C01892BA1F480911A01882381F064E669
:101F800070E084E80E947F33C6EED3E00AEA13E0F3
:101F9000892B09F42FC010921A010E944034579ADD
:101FA0003BB13F772BB120684FB7F89482E793E0BD
:101FB000FC015191CF0168E02BB9000000C057FF30
:101FC0003BB9550F000000C000C000C03BB900C0C5
:101FD0006A9591F7F3E08A3E9F0751F74FBF8FE56F
:101FE00094E00197F1F700C00000DF91CF911F91BD
:101FF0000F91089564E670E088810E94ED3364E6F5
:1020000070E089810E94ED3364E670E08A810E946D
:10201000ED3364E670E08B810E94ED3324970C175A
:102020001D0741F7BACFA4E0B0E0E9E1F0E10C947C
:102030006634162F042F9091EA0390FF22C09E0170
:102040002F5F3F4F4FEF6FEF0E94F3081017C8F458
:102050008B8199812A8134E0139FF0011124EE587D
:10206000FC4F21839083828313821F5F3496011378
:10207000F8CF0E94860F8FE99FE00197F1F700C02B
:1020800000002496E4E00C948234EF92FF920F93C8
:102090001F93CF93DF938C01C2E7D3E0F12CE12CA7
:1020A000F80194816091EC038091EB03FFE0EF165F
:1020B000F104ECF49923E9F09E014091ED030E94B4
:1020C000F3082FEFE21AF20A24968EE1E816F104E3
:1020D00039F70E94860FF801848190E001968170A3
:1020E00099278483CDB7DEB7E6E00C94803499233A
:1020F00019F39E0140E0E3CFB0E0A0E0E2E8F0E1B8
:102100000C945E34EC014C81042F10E09801D8014E
:102110000E9441379B01AC010E940C374B015C01CE
:10212000E0E2F0E0E01BF10BA5E5B0E0AC019B01C3
:102130000E940C376B017C019F01DF010E94B734C4
:102140009B01AC010E9417379B01AC01280D391D82
:102150004A1D5B1DC701B6010E941F37F22E822F58
:1021600090E039E23F1598F143E0249F900111245B
:1021700035952795122F109592E7C92E93E0D92E09
:1021800000E085E5E82EEF188E2D01FD8F2D9601DC
:10219000412F6091EC030E94F3080F5F54E0C50EDD
:1021A000D11C0E3189F70E94860F9C8181E0992312
:1021B00019F0903219F48FEF80932A0180912A014F
:1021C000890F8C83CDB7DEB7ECE00C947A3425E52B
:1021D00030E0A901481B590BCA019A01220F331F95
:1021E000280F391F37FFC4CF2F5F3F4FC1CF0F9349
:1021F0001F93CF93DF93C2E7D3E0FE0111821082D9
:1022000012821382349683E0EA3EF807B9F710E0B1
:1022100000E080912803082E000C990B081719077D
:102220008CF180912901082E000C990B80179107E1
:102230004CF19E014091ED036091EC038091EB0322
:102240000E94F3080F5F1F4F24960E31110509F706
:102250000E94860F8091280190912803980F9093F7
:10226000280320912901280F20932901121614F424
:102270009D311CF0819580932801DF91CF911F91B2
:102280000F910895198218821A821B82DBCFB0E069
:10229000A0E0EDE4F1E10C946134FC018281DD24E5
:1022A000DA9480FD02C0DD24D39402E713E0D0E08D
:1022B000C0E02EE1B22EF801118210821282138248
:1022C00094E0E92EF12CC12C809127038C0D8F31E5
:1022D000C4F16B2D0E948F34892F082E000C990BAE
:1022E0008C179D0791F48091ED038E9DA0018F9D29
:1022F000500D112455954795559547959801609136
:10230000EC038091EB030E94F308CD0CF1E0EF1A8F
:10231000F108D1F621960C5F1F4FCE31D10559F649
:102320000E94860F8091270391E0D91210C081117D
:102330000CC08DE180932703CDB7DEB7E9E00C94A4
:102340007D3487FFCACF825EC8CF8150F3CF90E043
:102350000196BE010E949D34EDCFEF92FF921F9334
:10236000CF93DF93EC0182E7E82E83E0F82E10E0B4
:102370008C8197014091ED036091EC03810F0E94E5
:10238000F308185F84E0E80EF11C103F89F70E9403
:10239000860F9A818C8190FF08C08F5F8C83DF91BC
:1023A000CF911F91FF90EF9008958150F7CF9091BA
:1023B000EA0390FF0DC0E2E7F3E08183608342838C
:1023C0001382349693E0EA3EF907B9F70E94860F2C
:1023D0000895A4E0B0E0EFEEF1E10C9466348C01D6
:1023E0008091290381110AC09E012F5F3F4F4FEF5B
:1023F0006FEF0E94F3088A8180932903F8016481BA
:10240000613069F08091290340E0662361F040E08B
:10241000623011F44091290380E060E004C06091D3
:10242000290340E080E00E94D711F801848190E008
:10243000019663E070E00E949D3484832496E4E07A
:102440000C948234A4E0B0E0E8E2F2E10C94683449
:102450009091EA0390FF0AC09E012F5F3F4F0E94B8
:10246000F3084B8169818A810E94D7112496E2E0AA
:102470000C948434CF93DF93EC01EAEEF3E04381D4
:1024800062818C810E9422128C818F5F8C83DF910C
:10249000CF910895CF93DF93EC01EC81F0E0ED5CF8
:1024A000F64F4491EAEEF3E0628181810E942212AC
:1024B0008C818F5F8C83DF91CF910895CF92DF92D3
:1024C000EF92FF926B017C010E94E408B701A60124
:1024D00088E090E00E94DB36FF90EF90DF90CF9095
:1024E0000895A4E0B0E0E7E7F2E10C945B34F82E45
:1024F000762EE42E622E9091EA0390FF29C0E92FF8
:10250000E695AE2FB0E0A555BE4F8C918093240385
:102510009E7F923009F59E012F5F3F4F8F2D0E94C5
:10252000F3084B8169818A810E94D711F092EB03F5
:102530007092EC03E092ED03662051F06091EA03A3
:102540007091EB038091EC039091ED030E945E1279
:102550002496EFE00C947734823019F4E090ED0388
:10256000E5CF863019F4F090EB03E0CF8930D9F352
:102570008931E1F6E9518E2F8170582EE695F0E011
:10258000E25DF64FE4910E2F10E082E7C82E83E063
:10259000D82EB12CA12C9EE1892E912CC501B4011D
:1025A0000E9444348F2D511013C0860F96014E2D7A
:1025B000672D0E94F308A00EB11E84E0C80ED11C46
:1025C0008AEEC81683E0D80649F70E94860FAECF80
:1025D000861BECCFEAEEF3E0438125E0421B08F4D2
:1025E00040E021E0628181810E9471120895EAEE4B
:1025F000F3E0438125E0420F08F44FEF21E06281D0
:1026000081810E9471120895EAEEF3E0628125E073
:10261000621B08F460E021E0438181810E94711215
:102620000895EAEEF3E0628125E0620F08F46FEFAF
:1026300021E0438181810E9471120895EAEEF3E066
:10264000818121E04381628185500E947112089549
:10265000EAEEF3E0818121E0438162818B5F0E9499
:10266000711208958091EE03882319F081508093B0
:10267000EE036091EA037091EB038091EC0390917B
:10268000ED030E945E1208958091EE03833018F4EA
:102690008F5F8093EE036091EA037091EB0380916A
:1026A000EC039091ED030E945E120895EAEEF3E0D0
:1026B00080818E7F808360817181828193810E947D
:1026C0005E12109225032FEF80E792E021508040A8
:1026D0009040E1F700C000000E94860F0895EAEEE6
:1026E000F3E083E0808311828FEF828383831482FF
:1026F00060817181828193810E945E120895809130
:10270000410390912D03892B8093E2019091BC02AB
:102710009923A1F0892B8093E20180916D01882398
:10272000E1F180913B0387FF38C08EE1E4EEF1E0F8
:1027300090E08150A0F591110E94890C40E250E098
:102740006CE972E082EE91E00E948836892B21F1DB
:1027500080E2E2EEF1E0ACE9B2E001900D928A9500
:10276000E1F7E0913003F09131033097A9F08091C7
:102770006D01882359F080913B0387FF07C080914A
:10278000E2018093E30186E08093E2010280F3811D
:10279000E02D82EE91E00995089586E0C7CF219162
:1027A000222339F29F5FC5CFCF93DF93EC0181E005
:1027B000898B809141039F81892B80934103809174
:1027C0002D039885892B80932D030E947F13EA8126
:1027D000FB81309729F06C897D89CE010696099599
:1027E000DF91CF910895EF92FF920F931F93CF93B4
:1027F000DF93EC018A85811134C0EB80FC8087E592
:10280000F81A26E12E9DC0012F9D900D1124DC01A8
:10281000A55DBE4F1496ED91FC911597309731F060
:1028200054966D917C918F5C9E4F099586E18E9DAB
:1028300080018F9D100D1124055D1E4FF8018781C9
:102840000E94960CF80180850E948F0C0E947F13D5
:10285000188219861B861E821D8210922C031092EC
:102860002B03CDB7DEB7E6E00C948034882321F04B
:102870000E948F0C0E947F13089580912A03882361
:1028800029F082E20E94361410922A0308958823C8
:1028900039F090912D03982B90932D030E947F1374
:1028A0000895882321F00E94960C0E947F130895BA
:1028B000882339F090914103982B909341030E9413
:1028C0007F13089568EE7EEF90E080E00E94E73687
:1028D00060E082E090E00E94C93660E083E090E032
:1028E0000E94C9361092BD021092BE021092BF0221
:1028F0001092C00260E084E090E00E94C93664E07B
:1029000082E290E00E94C93660E085E090E00E949B
:10291000C93660E086E090E00E94C9366FEF87E03C
:1029200090E00E94C93640E050E0BA0188E090E0B3
:102930000E94DB3660E08DE090E00E94C93640E006
:1029400050E0BA0188E190E00E94DB3660E087E168
:1029500090E00E94C93640E050E0BA018CE190E07E
:102960000E94DB3670E060E080E290E00E94E73693
:1029700040E050E0BA0188E190E00E94DB3610921E
:10298000CB021092CC021092CD021092CE0284E0C3
:102990008093CB024091CB025091CC026091CD024A
:1029A0007091CE028FE090E00E94DB3640E050E074
:1029B000BA0183E190E00E94DB36089580E290E066
:1029C00090931C0180931B0180911D0381110EC007
:1029D0000E94793381E080931D032FEF83ED90E314
:1029E000215080409040E1F700C0000064E670E0B4
:1029F00080E40E947F3390931C0180931B01892BFC
:102A000009F04EC064E670E080E00E94ED339093E0
:102A10001C0180931B01892B09F042C064E670E021
:102A200080E00E94ED3390931C0180931B01892B61
:102A3000B9F564E670E08FE30E94ED3390931C01DA
:102A400080931B01892B61F50E94403464E670E09D
:102A500080E40E947F3390931C0180931B01892B9B
:102A6000F9F464E670E08CE00E94ED3390931C0171
:102A700080931B01892BA1F464E670E080E00E9442
:102A8000ED3390931C0180931B01892B49F464E67C
:102A900070E08FE30E94ED3390931C0180931B0143
:102AA0000E94403480911B010895CF93873050F5E8
:102AB00080911B0190911C01C0E0892B71F464E6A8
:102AC00070E081E40E947F3390931C0180931B018E
:102AD000892B31F0C0E00E9440348C2FCF910895B3
:102AE00084E690E00E941C3497FF05C090931C017F
:102AF00080931B01EFCFC82FC09510921C0110923C
:102B00001B01E9CFCFB18FB1869586958C73C370C9
:102B10008C2BC82FC095E1CF1F920F920FB60F924A
:102B200011242F933F934F935F936F937F938F93D2
:102B30009F93AF93BF93EF93FF938091E10082FF48
:102B400009C08091E20082FF05C08091E1008B7F87
:102B50008093E1008091DA0080FF24C08091D8004A
:102B600080FF20C08091DA008E7F8093DA00809110
:102B7000D90080FF9DC080E189BD82E189BD09B493
:102B800000FEFDCF81E08093F1038091400381112D
:102B900009C00E9421060E9446078091E2008460DD
:102BA0008093E2008091E10080FF17C08091E200F5
:102BB00080FF13C08091E2008E7F8093E2008091BD
:102BC000E20080618093E2008091D800806280936F
:102BD000D80019BC85E08093F1038091E10084FF67
:102BE0002BC08091E20084FF27C080E189BD82E193
:102BF00089BD89B5982F917080FFFBCF8091D80057
:102C00008F7D8093D8008091E1008F7E8093E100DA
:102C10008091E2008F7E8093E2008091E2008160EB
:102C20008093E20080916603882309F447C084E022
:102C30008093F1038091F1038091E10083FF27C02D
:102C40008091E20083FF23C08091E100877F809321
:102C5000E10082E08093F103109266038091E1002D
:102C60008E7F8093E1008091E2008E7F8093E2006E
:102C70008091E20080618093E20042E060E080E0C9
:102C80000E9414078091F00088608093F000FF910B
:102C9000EF91BF91AF919F918F917F916F915F91D4
:102CA0004F913F912F910F900FBE0F901F9018954D
:102CB00019BC1092F1031092400374CF8091E3008D
:102CC00087FD93E09093F103B5CF78941F921FB6E0
:102CD0001F9211248F939F93AF93BF9380913503DD
:102CE00090913603A0913703B09138030196A11D4E
:102CF000B11D8093350390933603A0933703B093AF
:102D00003803BF91AF919F918F911F901FBE1F906D
:102D100018959C014FB7F894809135039091360334
:102D2000A0913703B09138034FBF821B930B0895D6
:102D30002FB7F8948091350390913603A091370313
:102D4000B09138032FBF08956091EA03669570E053
:102D50004BE050E08DE191E00E947B36892B19F425
:102D600081E0809325030E94981690931F0380931F
:102D70001E0308959091EA0390FF2CC09170811179
:102D80002AC092609093EA03662351F06091EA03AF
:102D90007091EB038091EC039091ED030E945E1221
:102DA0006091EA03669570E04BE050E08DE191E0C0
:102DB0000E947B36892BB1F01092250381E080932D
:102DC000210320E04091ED036091EC038091EB033F
:102DD0000E9471120895853210F09864D3CF880F45
:102DE000982BD0CF0E94A416E9CF60E00E94BA16BB
:102DF0000895EAEEF3E080818160808386950E94E9
:102E0000F516089580911C03811135C090E080E093
:102E10000E94B336883E9E4F21F00E9462140E94A9
:102E20006F1388E090E00E94AD366093EA037093E0
:102E3000EB038093EC039093ED036E7F71F40E949B
:102E40006F1388E090E00E94AD366093EA037093C0
:102E5000EB038093EC039093ED030E94E40810923F
:102E600025038091EA0380FF03C086950E94F51632
:102E700081E080931C03089561E00E94BA160895D2
:102E8000CF92DF92EF92FF92CF93DF936B017C01A1
:102E90000E947D0DD82F0E94FC0D0E94F90D80919B
:102EA0002B02811102C00E94F60D0E94F30DC09109
:102EB0002A02EFEFED0FE73008F085C0F0E0EE5AA0
:102EC000F84C0C94B1340E94050EC1110FC00E9441
:102ED000F91681E00E94F5164EE16FE088E70E9446
:102EE00013104FE060E085ED0E941310C701B6019A
:102EF000DF91CF91FF90EF90DF90CF9008950E94E7
:102F0000FF0DC111F3CF0E94F91681E00E94F51662
:102F10004EE16FE085ED0E9413104FE060E088E71E
:102F2000E3CF0E94050E0E94FF0DC111DFCF0E946A
:102F3000F91681E00E94F51620E04FEF6FEF88E769
:102F400059C00E94050E0E94020E0E94FF0DC11181
:102F5000CDCF0E94F91680910A0142C00E94020E54
:102F6000C111C4CF0E94F91620E040E060E080E08B
:102F700041C00E94050E0E94020E0E94FF0DC11169
:102F8000B5CF88E090E00E94AD366093EA0370937D
:102F9000EB038093EC039093ED0360FF2EC0862F2C
:102FA00081608093EA0386950E943C178091EA0332
:102FB00086950E943C1721E04091ED036091EC035F
:102FC0008091EB0317C0D111DACFC1118FCF0E94CE
:102FD000F91680910A0190910B01089721F488E07D
:102FE0000E94F51683CF81E00E94F51620E04FEF96
:102FF0006FEF85ED0E94711279CF0E94561376CF44
:103000008091EA038695815009F484E261E00E9490
:10301000BA1608958091EA0386958F5F853208F08D
:1030200081E061E00E94BA1608959091EA0390FF52
:1030300008C09695981728F0961718F40E940A1859
:1030400008950E943C1708950E9498169C01909143
:10305000180380911903982B21F0309315032093C6
:10306000140390911A0380911B03982B21F0309345
:10307000130320931203E0913003F0913103309752
:1030800049F082E0809316030480F581E02D86E10B
:1030900093E00995089590E080E00E94BA0890E0DE
:1030A00080E00E94A40810922D030E947F1386E006
:1030B000E6E1F3E0DF011D928A95E9F71092100333
:1030C00010920F03109211030E9424180895CF92BA
:1030D000DF92EF92FF92CF93DF93CDB7DEB7A09749
:1030E0000FB6F894DEBF0FBECDBF0E9440176B0134
:1030F0007C018091F0038823B1F02FEF80E792E00C
:10310000215080409040E1F700C0000085E08983B5
:10311000C701B6010E947D0D8A838EEF8B83CE019D
:1031200001960E949D06C092DD02D092DE02E092DE
:10313000DF02F092E0020E944B18A0960FB6F894BE
:10314000DEBF0FBECDBFDF91CF91FF90EF90DF903C
:10315000CF9008950F931F9341E050E060E070E03E
:1031600004C0440F551F661F771F8A95D2F78091C0
:10317000DD029091DE02A091DF02B091E0028A01AF
:103180009B01082719272A273B27C901B8010E945C
:1031900067181F910F9108950F931F9341E050E01E
:1031A00060E070E004C0440F551F661F771F8A95CA
:1031B000D2F7CB01BA0160957095809590950091FA
:1031C000DD021091DE022091DF023091E0026023E7
:1031D0007123822393230E9467181F910F910895F2
:1031E00090919B028095892380939B02282F2770C2
:1031F00091F4282F082E000C330B9217130659F068
:1032000090913C0392FF07C08595859585950E9416
:10321000CC1810929B020895CF93C0913C03C2FB3F
:10322000992790F9981791F080FBC2F9C0933C035D
:1032300060913B0384E090E00E94C9366C2F82E2EB
:1032400090E00E94C93682E00E94F018CF91089564
:103250000F931F9341E050E060E070E004C0440F22
:10326000551F661F771F8A95D2F78091DD029091D6
:10327000DE02A091DF02B091E0028A019B01082BDF
:10328000192B2A2B3B2BC901B8010E9467181F91EB
:103290000F9108956093BD027093BE028093BF02A8
:1032A0009093C0020E944B18089580916D01E4EE46
:1032B000F1E0882361F080913B0387FF08C08EE135
:1032C000DF011D928A95E9F70E944B18089586E068
:1032D000F7CFAAE2B0E0EFE6F9E10C94673487E6B5
:1032E00093E02091F100FC012193CF01F3E08F36B0
:1032F0009F07B9F780916803893009F444C018F535
:10330000823009F4BCC0833009F46FC0813031F5DC
:1033100080916703813A11F58091E800877F80935F
:10332000E80080916B0390916C03892B41F560E27A
:1033300084E493E070E00E9400088091E8008B77BD
:103340008093E8000BC08B3009F46CC008F486C091
:10335000823409F4A5C0853409F4BFC08091E80027
:1033600083FF5AC280916703909168039A3008F0F6
:1033700053C2E92FF0E0E75AF84C0C94B13460E006
:1033800090E080E0D7CF80916703813239F7809158
:103390006B0390916C03009711F00297F9F68091FE
:1033A000E800877F8093E8008091E80082FF18C0E2
:1033B0009091F3008091F200029731F48091F10036
:1033C000813011F0863021F48091F1008093430325
:1033D0008091E8008B778093E8000E94F506BECFCD
:1033E0008091F1038111E0CFB9CF80916703813AD9
:1033F00009F0B4CF80916B0390916C03892B09F095
:10340000ADCF8091E800877F8093E8008091E8004D
:1034100080FFFCCF80916D018093F1008091E800E6
:103420008E77D9CF80916703813209F097CF809151
:103430006B0390916C03892B09F090CF8091E80089
:10344000877F8093E8000E94F5068091690380934E
:103450006D01109241030E94551980CF809167033E
:10346000813209F07BCF8091E800877F8093E8006C
:103470000E94F50680916A03809342036FCF80918A
:103480006703813A09F06ACF8091E800877F8093D3
:10349000E8008091E80080FFFCCF80914203BCCF20
:1034A00080916703803C09F059CF80916B03909124
:1034B0006C03029739F58091690390916A03892B17
:1034C00009F58091E800877F8093E8006EE070E066
:1034D00085EE9AE00E94A10780CF80916703803C2F
:1034E00009F03CCF80916B0390916C03079751F4E6
:1034F0008091E800877F8093E80062EB70E083E3CF
:103500009AE0E8CF8091EB0080628093EB0026CFB9
:10351000803899F0823809F07FC180916B038F70F9
:10352000873008F079C18093E9008091EB0085FB3A
:10353000882780F91092E90006C080916403909179
:103540006503911182609091E800977F9093E80065
:103550008093F1001092F1008091E8008E7758C1BD
:10356000882309F446C1823009F056C1809169036D
:10357000811149C180916B038F702FEF280F263086
:1035800008F04AC18093E9002091EB0020FF3BC185
:10359000933031F48091EB0080628093EB0033C173
:1035A0009091EB0090619093EB0021E030E001C03E
:1035B000220F8A95EAF72093EA001092EA008091A0
:1035C000EB008860EACF811127C1109169031F7752
:1035D0008091E3008078812B8093E3008091E80064
:1035E000877F8093E8000E94F5068091E80080FFC5
:1035F000FCCF8091E30080688093E30082E01111AA
:1036000083E08093F10308C18058823008F004C140
:103610008091690390916A038C3D23E09207A1F5A4
:1036200083E08A838AE289834FB7F894DE01139698
:1036300020E03EE051E2E32FF0E050935700E491A8
:1036400020FF03C0E295EF703F5FEF708E2F90E098
:10365000EA30C0F0C7968D939D932F5F243159F7C0
:103660004FBF8091E800877F8093E8006AE270E0B6
:10367000CE0101960E9400088091E8008B7780932C
:10368000E800CAC0C096E7CF20916B0330916C036D
:10369000492F55274330510551F1A0F441305105D0
:1036A00009F459C062E770E084EF9AE042305105B6
:1036B00009F0B2C02091E800277F2093E8000E9423
:1036C000A107DACF4132510539F14232510591F16A
:1036D0004F30510509F0A0C0ECECFBE0649170E0C4
:1036E0008AEC9BE06115710509F496C0E3CF992738
:1036F0008130910571F0009731F0029709F08CC08C
:10370000E8E7FBE002C0E6ECFBE0649170E0CF018B
:10371000E9CFECE9FBE0F9CF2330310508F07CC0BC
:10372000220F331FF901E752FE4F8081918169E03A
:1037300070E0C0CF2330310508F06EC0F901EE0F04
:10374000FF1FED52FE4F8081918120533E4FF901C2
:10375000608170E0C7CF62E170E086E69BE0AACFAF
:10376000803809F059C08091E800877F8093E80095
:10377000809166038093F100EFCE81114DC01091CE
:103780006903123008F048C08091E800877F809379
:10379000E800109366030E94F506112311F084E0FF
:1037A00005C08091E30087FDFACF81E08093F103AB
:1037B00042E061EC81E00E94140742E261EC84E0A7
:1037C0000E94140742E261EC82E00E94140742E288
:1037D00060EC83E00E94140742E361EC85E00E9404
:1037E000140742E360EC86E00E9414078091F10325
:1037F00013C080916903813079F481E0933009F03E
:1038000080E0809365031092E9008091E800877F53
:103810008093E8000E94F5068091E80083FF0AC0CB
:103820008091E800877F8093E8008091EB008062C0
:103830008093EB00AA96E3E00C9483341F920F92DE
:103840000FB60F9211242F933F934F935F936F9373
:103850007F938F939F93AF93BF93CF93DF93EF9318
:10386000FF93D091E900DF708091EC00C82FC17008
:1038700080FDC0E81092E9008091F000877F80937E
:10388000F00078940E9469191092E9008091F0008C
:1038900088608093F000CD2BCF70C093E900FF913A
:1038A000EF91DF91CF91BF91AF919F918F917F91D8
:1038B0006F915F914F913F912F910F900FBE0F909D
:1038C0001F901895109241030E9455192FEF84E321
:1038D0009CE0215080409040E1F700C0000088E16A
:1038E0009AE00FB6F894A895809360000FBE90936D
:1038F0006000FFCF882391F19CEF980F913A40F43C
:10390000682F82EE91E00E947A080E947F1308954A
:1039100090E2980F983050F4877091E001C0990FB1
:103920008A95EAF7892F0E94960CEFCF9BE5980FB6
:10393000933028F490E080E00E94BA08089598E55A
:10394000980F973128F490E080E00E94A408089531
:103950008D3E20F00E948A090E9424180895CF937A
:10396000DF93EC010E947A1CCE010E94CA0DC05E5A
:10397000D109289728F40E945114DF91CF9108951E
:103980000E943614FACF8FE39CE90197F1F700C04B
:10399000000080910702833059F0853011F08130AA
:1039A00021F48DE491E00E94AF1C1092070208956B
:1039B0008AE491E0F8CF8FE39CE90197F1F700C02A
:1039C000000080910502833059F0853011F081307C
:1039D00021F48DE491E00E94AF1C1092050208953D
:1039E0008AE491E0F8CF8FE39CE90197F1F700C0FA
:1039F000000080910302833059F0853011F081304E
:103A000021F485E390E00E94AF1C10920302089518
:103A100082E392E0F8CFCF93C82F882309F442C005
:103A20008CEF8C0F813A08F065C080916D0188237E
:103A3000D9F180913B0387FF37C0EC2FE695E695DF
:103A4000E695F0E0EE51FE4F828190E04C2F4770FA
:103A500021E030E002C0220F331F4A95E2F78223B3
:103A60009323892B61F06C2F82EE91E00E947A08FB
:103A70000E947F1323C080913B0387FF23C0EC2F5C
:103A8000E695E695E695F0E0EE51FE4FC77021E031
:103A900030E001C0220FCA95EAF78281822B82832F
:103AA0000E947F13CF910895E4EEF1E08AEE91E059
:103AB0002191C217C1F28E179F07D1F780916D0136
:103AC0008111D9CFA4EEB1E0EFEF80E09D91C9174D
:103AD00039F3EF3F19F4911101C0E82F8F5F863061
:103AE000A9F7EF3FE9F20E2E000CFF0BEE51FE4F4F
:103AF000C283D6CF80E28C0F883068F4C77021E093
:103B000030E001C0220FCA95EAF780914103822B71
:103B100080934103C5CFEBE5EC0FE33040F4F0E0D8
:103B2000E658FE4F808190E00E94BA08BBCFE8E5DE
:103B3000EC0FE73150F4F0E0EE0FFF1FE358FE4FBB
:103B4000808191810E94A408ADCFCD3E08F4AACF18
:103B50008C2F0E94470A0E942418A4CF1F93CF9352
:103B6000DF93182FD0E0C0E0893311F4C0E5D0E036
:103B7000812F0E940B1D209739F4812F0E947A1CFF
:103B8000DF91CF911F9108958FE99FE00197F1F7A1
:103B900000C000002197EFCF0F931F93CF93DF93C7
:103BA000C62FD42F022FFC0182818823A9F06093B5
:103BB00071030E9498169093700380936F03C770EF
:103BC00081E001C0880FCA95EAF70E945814DF917E
:103BD000CF911F910F91089580917103681332C0A6
:103BE00080916F03909170030E9489168D37910523
:103BF00048F510E21D0FCD17B9F080E28C0F883028
:103C000040F4C77081E001C0880FCA95EAF70E94AE
:103C10005114183048F481E09D2F977001C0880F2F
:103C20009A95EAF70E945814802F0E94AE1D183012
:103C300070F6D77081E001C0880FDA95EAF70E942C
:103C40005114C5CFC77081E001C0880FCA95EAF74B
:103C5000F6CFB0E0A0E0EFE2FEE10C946034EC01BE
:103C60008AE0A82EFE012491222309F497C0213076
:103C700009F03EC031968491813031F42296FE01E4
:103C800084910E94AE1D07C0823039F42296FE0155
:103C900084910E940B1D2196E5CF833031F422964A
:103CA000FE0184910E947A1CF6CF843009F074C022
:103CB0002296FE01249190E080E0FE01319620538F
:103CC000330B2A30310548F0019728F3EFE9FFE084
:103CD0003197F1F700C00000F7CFA89EA001A99E80
:103CE000500D1124C901840F951F2491EF01E5CFD8
:103CF000E22FF0E0E850FE4FB490822F8695869533
:103D0000869590E0FC01E851FE4FE4902770F12C7D
:103D1000022E02C0F594E7940A94E2F731E0E32220
:103D2000FF24FC01E852FE4FC490D12C022E02C0A9
:103D3000D594C7940A94E2F7E1E0CE22DD24FC0199
:103D4000E853FE4F049110E002C0159507952A959F
:103D5000E2F701701127E114F10419F081EE0E94DD
:103D60000B1DC114D10419F086EE0E940B1D8B2D82
:103D70000E94AE1DC114D10419F086EE0E947A1C77
:103D8000E114F10419F081EE0E947A1C011511056D
:103D900009F481CF8CE275CFEF017DCFCDB7DEB7CF
:103DA000EAE00C947C34CF93C82F10922B0284EC61
:103DB00091E00E94291E8C2F0E94AA18CF9108958D
:103DC000CF93DF93EC010E94CA0D9E01205E310962
:103DD0002830310540F40E9458148C2F0E940B1D8E
:103DE000DF91CF9108950E944714F7CFCF93DF93CF
:103DF000EC010E94E01EC933D10549F42FEF87EE94
:103E000093E0215080409040E1F700C00000CE01D7
:103E10000E94AF1CDF91CF910895CF93DF93EC0107
:103E20008881833061F48DE491E00E94F61E8DE478
:103E300091E00E94F61E8DE491E00E94F61E8881BA
:103E4000843020F08DE491E00E94F61EDF91CF9146
:103E500008950E940D1F0895CF93DF93EC01888190
:103E6000833061F485E390E00E94F61E85E390E0E4
:103E70000E94F61E85E390E00E94F61E8881843041
:103E800020F085E390E00E94F61EDF91CF91089527
:103E90000E94D70D80930702833039F0853051F0AE
:103EA000813039F48DE491E002C08AE491E00E940F
:103EB000E01E08958DE491E00E94F61EF3CF0E946B
:103EC000D70D80930502833039F0853051F0813071
:103ED00039F48DE491E002C08AE491E00E94E01E92
:103EE00008958DE491E00E94F61EF3CF0E94D70D55
:103EF00080930302833039F0853051F0813039F4FA
:103F000085E390E002C082E392E00E94E01E089503
:103F100085E390E00E94F61EF3CFB0E0A0E0E3E975
:103F2000FFE10C94613480911B0190911C01892B5D
:103F3000B9F08091C1028F5F8093C102811110C0DE
:103F40000E94DE1490E090931C0180931B01892B4A
:103F500039F40E94B90E81E080931A010E94021781
:103F60000FEC12E07801B12CD0E087E0C82ECD0E26
:103F70008D2F0E94320F8C2D0E94320F8D2F0E94A8
:103F800055158F73F7019081D12C891719F0808313
:103F9000DD24D3948C2D0E9455158F73F7019781E2
:103FA000891709F444C0878381E08D29B82A0E94CB
:103FB000080EDF5FFFEFEF1AFF0AD730B1F6D0919E
:103FC000C502DD2309F47AC00E9498162091C3022D
:103FD0003091C402AC01421B530B9A019093C4026E
:103FE0008093C3024F3F510509F018F5452BE1F0CE
:103FF0001092C5021092C202E091C902F091CA0269
:10400000AF01425F5F4F90E030E08081882321F074
:10401000281790F010829D2F3196E417F507A9F725
:104020003093C5029093C202B11057C04AC080E0DD
:10403000BCCF2FEF30E0DCCF821B80833D2FECCF55
:104040009170892B09F47CC08091C7029091C802BD
:104050008130984780F01092EF036091DD027091FB
:10406000DE028091DF029091E0020E9440171092E0
:10407000C8021092C7028091C7029091C8020196AF
:104080009093C8028093C7028B2DCDB7DEB7E9E0CD
:104090000C947D340E94020E5AC0892BA9F3109211
:1040A000C8021092C7026091DD027091DE02809119
:1040B000DF029091E0020E944017E6CFDB2DB110A5
:1040C00006C08091C202882349F1D11106C00E9426
:1040D00098169093C4028093C302A091C902B09134
:1040E000CA028091C502E3EEF2E021EF32E04EE138
:1040F0005191E80199918E01591751F05C9151113C
:1041000007C04C93BF0161507109EB01988381E0B6
:1041100011962E173F0761F78093C5028091C70261
:104120009091C8022091EF03222309F4B6CF0097A3
:1041300009F086CF0E94F90D0E94F60D0E94F30D42
:10414000D091C602DD2309F4A5CF0E94F60D81E0CF
:10415000D827D093C60278CFA3E2B0E0E2EBF0E23A
:104160000C9458343C01DC0113968D919C9114976A
:10417000892B41F08C9111969C9189238F3F11F0EE
:104180000C94122BA396E2E10C9474340E94A70CB9
:10419000182F682F89819A810E94250D69817A8163
:1041A000812F0E94E60A4C01F3018281811181C0B6
:1041B000C40181509545D4018F3F910508F4B7C0E3
:1041C000F301F281FBA3FF2309F41EC3AF3FB10546
:1041D00009F008F4C8C0AC32BD4509F4ABC0109278
:1041E0002802D090EF03DD2009F48AC3ABA1A1110E
:1041F000A7C0E0912902E330A0F481E08E0F809304
:104200002902F0E0EE0FFF1FED5FFC4FD3018D910F
:104210009C919183808382E08983CE0101960E94E4
:104220009D06BFEFE3EDF0E3B150E040F040E1F771
:1042300000C0000080912902833009F081C01092F3
:10424000EF03109229029091040380910A039813BE
:104250000C940C2B909103038091090398130C94F8
:104260000C2B9091060380910C0398130C940C2B4B
:104270009091050380910B0398130C940C2B909153
:104280000E038091080398130C940C2B90910D034E
:104290008091070398130C940C2B84E0898381E0B0
:1042A0008093F0038EEF8A83CE0101960E949D06D3
:1042B00047C08091180190911901019609F478CFB7
:1042C0000BE211E0F12CE12CDD24D3948091180154
:1042D000909119018E159F050CF46ACFD80116969E
:1042E0008C9116978823E9F019968D919C918815E9
:1042F000990539F480912B0390912C038815990529
:1043000081F0F801D786948683868189811103C064
:10431000C8010E94D413C80106960E94F31310929C
:104320002D03FFEFEF1AFF0A0A5E1F4FCFCF25E5DF
:10433000B22746CF8091280291E0892780932802F6
:1043400080919B02877009F41DCFD30112968C9146
:10435000882309F417CF80913C0382FF13CF82E0BA
:104360000E94F0180FCF80912802882309F4E8C03A
:1043700010922802A03CB105E8F5A038B10508F07C
:10438000A9C0A034B10508F06FC021E030E040E0E2
:1043900050E060E070E080E090E00A2F0E94C634B8
:1043A000E09108022E2BE09109023E2BE0910A02D7
:1043B0004E2BE0910B025E2BE0910C026E2BE091F4
:1043C0000D027E2BE0910E028E2BE0910F029E2BB0
:1043D000209308023093090240930A0250930B0283
:1043E00060930C0270930D0280930E0290930F0263
:1043F0004D01F7CEAF3FB10509F038F68D01005CF5
:10440000110921E030E040E050E060E070E080E041
:1044100090E00E94C634E09120022E2BE091210210
:104420003E2BE09122024E2BE09123025E2BE09185
:1044300024026E2BE09125027E2BE09126028E2B2A
:10444000E09127029E2B209320023093210240937B
:1044500022025093230260932402709325028093DA
:10446000260290932702C4CF8D010054110921E048
:1044700030E040E050E060E070E080E090E00E94DA
:10448000C634E09110022E2BE09111023E2BE091F8
:1044900012024E2BE09113025E2BE09114026E2B60
:1044A000E09115027E2BE09116028E2BE09117020F
:1044B0009E2B2093100230931102409312025093CE
:1044C0001302609314027093150280931602909366
:1044D00017028ECF8D010058110921E030E040E035
:1044E00050E060E070E080E090E00E94C634E0912F
:1044F00018022E2BE09119023E2BE0911A024E2B4E
:10450000E0911B025E2BE0911C026E2BE0911D02DC
:104510007E2BE0911E028E2BE0911F029E2B20939A
:1045200018023093190240931A0250931B026093B1
:104530001C0270931D0280931E0290931F0258CF9D
:10454000A034B10508F06BC0E0910802F0910902B7
:1045500050900A0240900B0230900C0220900D0205
:1045600030910E0239A380910F028AA321E030E03E
:1045700040E050E060E070E080E090E00A2F0E94B0
:10458000C634A22EAE22B32EBF22C42EC520D52EF5
:10459000D420E62EE320F72EF22009A108231AA149
:1045A00019230E94DF3409F01CCEA03CB10508F0AD
:1045B00096C0A038B10508F0F7C0A034B10508F0E6
:1045C000C3C021E030E040E050E060E070E080E017
:1045D00090E00A2F0E94C634209530954095509562
:1045E00060957095809590952E233F234521542109
:1045F00063217221A9A18A23BAA19B2320930802D7
:104600003093090240930A0250930B0260930C020C
:1046100070930D0280930E0290930F0291CEA038FA
:10462000B105F0F4E0911002F091110250901202E5
:1046300040901302309014022090150290911602BF
:1046400099A3209117022AA321E030E040E050E036
:1046500060E070E080E090E08D01005411098FCFA0
:10466000A03CB105F0F4E0911802F09119025090CD
:104670001A0240901B0230901C0220901D023091C3
:104680001E0239A380911F028AA321E030E040E09E
:1046900050E060E070E080E090E08D01005811098A
:1046A0006ECFE0912002F0912102509022024090C2
:1046B000230230902402209025029091260299A393
:1046C000209127022AA321E030E040E050E060E0A2
:1046D00070E080E090E08D01005C110950CFAF3FA9
:1046E000B10511F008F06DCF8D01005C110921E0DA
:1046F00030E040E050E060E070E080E090E00E9458
:10470000C63420953095409550956095709580956C
:1047100090952E233F234521542163217221E9A145
:104720008E23FAA19F2320932002309321024093ED
:1047300022025093230260932402709325028093F7
:10474000260290932702FCCD8D010054110921E02F
:1047500030E040E050E060E070E080E090E00E94F7
:10476000C63420953095409550956095709580950C
:1047700090952E233F234521542163217221E9A1E5
:104780008E23FAA19F2320931002309311024093AD
:1047900012025093130260931402709315028093D7
:1047A000160290931702CCCD8D010058110921E01B
:1047B00030E040E050E060E070E080E090E00E9497
:1047C000C6342095309540955095609570958095AC
:1047D00090952E233F234521542163217221A9A1C5
:1047E0008A23BAA19B232093180230931902409385
:1047F0001A0250931B0260931C0270931D02809357
:104800001E0290931F029CCDAF3FB10511F008F03E
:10481000E8CCA034B10550F5A0900802B090090290
:10482000C0900A02D0900B02E0900C02F0900D02B2
:10483000F0910E02E0910F0221E030E040E050E004
:1048400060E070E080E090E00A2F0E94C634A2226F
:10485000B322C422D522E622F722082F0F23192FD4
:104860001E230E94DF3409F0BCCC6ACDA038B1050C
:10487000E0F4A0901002B0901102C0901202D0900B
:104880001302E0901402F0901502F0911602E091EC
:1048900017028D010054110921E030E040E050E0A2
:1048A00060E070E080E090E0D0CFA03CB105A0F4E3
:1048B000A0901802B0901902C0901A02D0901B026A
:1048C000E0901C02F0901D02F0911E02E0911F0288
:1048D0008D0100581109E0CFA0902002B090210274
:1048E000C0902202D0902302E0902402F090250292
:1048F000F0912602E09127028D01005C1109CCCFD6
:104900008091F003882381F0ABA187E0A11186E0BC
:104910008983F30180818A8381818B838EEF8C83ED
:10492000CE0101960E949D06FFEA8F16FDE59F06C7
:1049300009F0C1C0D30112968C918823C9F18091EE
:10494000CB0291E0980F9770887F953008F4892BFF
:104950008093CB028091CB028770BFEF8B9FC00109
:10496000112495958795959587959927909389001A
:104970008093880090938B0080938A0090938D00A1
:1049800080938C004091CB025091CC026091CD027B
:104990007091CE028FE090E00E94DB366091DD02E4
:1049A0007091DE028091DF029091E0020E94401738
:1049B000C40197558F3F910511F008F023C2209153
:1049C0001801309119012817390724F4909319011F
:1049D00080931801F301228136E1389F7001399FDD
:1049E000F00C11248701055D1E4FD80150962C93C1
:1049F0005097928116968C911697992309F4F4C1D9
:104A00001A969C928E9219978F5F16968C930E949D
:104A10009816F801968785878091BC0287838091DC
:104A20002D0390914103892B80870190F081E02D27
:104A3000309741F0D80154966D917C91C7018F5CFD
:104A40009E4F099590922C0380922B0380912A030C
:104A5000882309F4A0C2009141031091BC020E9476
:104A600098168854944F9093010380930003F301A8
:104A70008281882309F48FC2102B1D7909F06AC244
:104A80008114F5E59F0608F04AC2811423E59206D9
:104A900008F0E0C1811430E5930608F0D6C1811416
:104AA00080E4980608F059C296EE8916910409F43C
:104AB000D1C1C40158C2EBEB8E16EDE59E0609F498
:104AC0000AC108F06CC024EB82162DE5920609F4A9
:104AD000DAC098F581EB88168DE5980609F471C166
:104AE000B8F4A1EE8A16910409F473C1B0EB8B16E9
:104AF000BDE59B0609F05CCFF3018281882309F4B0
:104B00001FCC80912A0291E0892780932A0218CC39
:104B1000E2EB8E16EDE59E0609F4A9C0F3EB8F16C5
:104B2000FDE59F0609F044CFD30112968C918823AE
:104B300009F406CC80E194E0A1C027EB82162DE5B4
:104B4000920609F4B3C0D0F485EB88168DE598067B
:104B500009F4A3C096EB89169DE5990609F028CFC4
:104B6000F3018281882309F4EBCB86EC93E00E9469
:104B7000291E82E090E00E94D31EE2CBD301129660
:104B80008C91B9EB8B16BDE59B0609F498C008F033
:104B90009CC0882309F4D4CB82E993E0E8CFF1EC00
:104BA0008F16FDE59F0609F4BAC080F53EEB83162B
:104BB0003DE5930609F4A0C0A0F49CEB89169DE5A1
:104BC000990609F490C0ADEB8A16ADE59A0609F096
:104BD000EFCEF3018281882309F4B2CB80E693E023
:104BE000C6CFBFEB8B16BDE59B0609F490C0E0EC89
:104BF0008E16EDE59E0609F0DBCED30112968C9160
:104C0000882309F49DCB8CE093E07EC0F4EC8F16F2
:104C1000FDE59F0609F494C0A0F432EC83163DE54F
:104C2000930609F484C083EC88168DE5980609F094
:104C3000BFCEF3018281882309F482CB88EB92E016
:104C400063C096EC89169DE5990609F49EC008F4A8
:104C500080C0B7EC8B16BDE59B0609F0A9CEF30129
:104C60008281882309F46CCB88E792E04DC0F30180
:104C70008281882309F464CB8CE194E00E94291E90
:104C800081E090E078CFF3018281882309F490CE0F
:104C900086EF93E00E94291E8BCED30112968C9151
:104CA000882309F485CE8EED93E0F4CFD3011296DC
:104CB0008C91882309F47CCE86EA93E0EBCF88239D
:104CC00009F476CE80E793E0E5CF882309F438CB6A
:104CD0008CE693E0D3CFF3018281882309F430CBB3
:104CE00088E693E0CBCFD30112968C91882309F408
:104CF00027CB84E693E0C2CFD30112968C91882310
:104D000009F41ECB80E493E00E94291E19CBF30125
:104D10008281882309F414CB8CE293E0F5CFF30170
:104D20008281882309F40CCB8CEE92E0EDCFD30185
:104D300012968C91882309F403CB88ED92E0E4CF9E
:104D4000D30112968C91882309F4FACA80EA92E082
:104D500095CFF3018281882309F4F2CA80912B0256
:104D600081110AC08CE992E00E94291E81E08093A3
:104D70002B020E94020EE4CA88E992E00E94291EDA
:104D800010922B020E94F60DDBCAD30112968C9171
:104D9000882309F4D5CA80910A0190910B010D97DF
:104DA00069F488E090E090930B0180930A010E94DF
:104DB000F91680910A010E94F516C2CA8DE090E0B2
:104DC000F2CFD30112968C91882309F4B9CA81E0FD
:104DD0003DC1D30112968C91882309F4E9CD10923C
:104DE0002B020E94F60DE4CD882309F42FCEF801A2
:104DF0008189882309F42ACEC7018F5C9E4F0E94C7
:104E0000F31324CEFEEA8F16FDE59F0609F01ECEB1
:104E1000D30112968C91882309F492CA80912A03B7
:104E2000882319F00E943D148BCA109241030E94FE
:104E3000890C0E9498168854944F90930103809394
:104E4000000381E080932A037BCA8114A2E59A06BD
:104E500008F02FCED30112968C91882309F4F7C362
:104E600010927103BCE58B16BDE59B0609F475C174
:104E700008F0D8C08114FCE59F0609F422C12FED8B
:104E800082162CE5920609F45BC1F3018281008150
:104E90001181882309F465C1C8010E94A70CF82E6E
:104EA000682FC8010E94250DB8018F2D0E94E60AC7
:104EB0000E94010B8C01A82ED3011296FC90129730
:104EC0001596BC90B2943FE0B32280919B0287700C
:104ED000C1F0FF20A9F0812F807F803421F080E293
:104EE000800F883070F080913C0382FF0AC082E01E
:104EF0000E94F01880919B028770DD24D394811169
:104F0000D12CC12EC2942FE0C222BBE0BC1508F404
:104F100089C1EC2DF0E0ED59F84C0C94B1348114BA
:104F2000B9E59B0660F48114E8E59E0608F092CF8F
:104F3000F4E18F16F5E59F0609F0BBCD8BCFC401D8
:104F400090568115904208F0B4CDD30115968C91FE
:104F5000807F39F40E943D141EC0F3018581807F5B
:104F6000D1F0C401992710922D038832910558F48D
:104F70008E31910570F4049768F382E080932D03DD
:104F80000E947F1306C08D329105B9F3F0F48A9721
:104F900009F70E947F1324EF82162CE5920699F1FF
:104FA000D8F489ED88168CE5980649F19AED8916B2
:104FB0009CE59906A1F1A8ED8A16ACE59A0609F0E0
:104FC00049CF26E241EE61EE16C08C34910509F31B
:104FD0008D329240F1F2BECFB6EF8B16BCE59B0648
:104FE000D1F0A8F027E245EE66EEF7EF8F16FCE56C
:104FF0009F0609F02FCFC3010E94CC1DA1C927E253
:1050000045EE65EEF8CF26E241EE60EEF4CF27E202
:1050100045EE64EEF0CF26E241EE62EEECCF28E200
:1050200041E0EFCF3EE583163DE5930609F48BC0E2
:1050300008F495C099EA89169DE5990609F025CFEF
:105040000E94621C81608093EA0386950E943C174F
:1050500077C940E058E16AE078E10E94DD0870C954
:105060004AE058E160E078E1F8CF48E253E16EE1D0
:1050700073E1F3CF44E053E161E173E1EECF4AEE37
:1050800052E167EF72E1E9CF47EF52E16AEE72E178
:10509000E4CF44E453E162E373E1DFCF65E082E013
:1050A0000E9415184DC968E086E0FACF64E18FE0F0
:1050B000F7CF67E185E1F4CF62E289E1F1CF83E2E6
:1050C000C5CF109241030E945519AFEFB4E3ECE055
:1050D000A150B040E040E1F700C00000F89481E04A
:1050E0008093E00080E28093D8001092C9008FE1A5
:1050F0009EE40197F1F700C000001DBA109268000D
:105100001CBC10BE1FBA10927A0010926E00109252
:105110006F0010927100109272001092C9001092EC
:10512000BC0014B817B81AB81DB810BA1092BC0059
:1051300015B818B81BB81EB811BA0C94003F00C9B6
:105140000E9462147DCF80913C0382FB882780F906
:1051500091E089270E940C1998CE81E0FBCF80E076
:10516000F9CFC8010E94F00CF82E9ECEE12FEF700F
:10517000EE2E107F19F0E29490EFE922FF20B9F0B3
:10518000EE2069F080E2800F883010F0A11009C095
:1051900080914103E82AE09241030E947F13802F0F
:1051A0003FC080912D03E82AE0922D03F6CF802F97
:1051B0000E947A1CEE20B1F1005E8E2D083010F0B6
:1051C000A11003C00E94960C02C00E948F0C0E9486
:1051D0007F1328C0F12FFF70EF2E107F103219F0CF
:1051E000E29480EFE822AA2059F021E0A21609F407
:1051F00073C0FF2009F47BC0BB2009F473C0CFCF7C
:1052000020913C0322FD45C0FF20E1F1EE2039F062
:1052100080914103E82AE09241030E947F1380E0DD
:105220000E940B1DAC2DA850BB0B149710F40E94CC
:10523000D008DD20A9F080919B0280FD11C0F30110
:1052400012828595859585950E942819C3010E9433
:10525000AC2080919B028595859585950E94CC1800
:1052600085E0F301DE01119601900D928A95E1F738
:1052700009811A81C8010E94F00CB8010E94E60A57
:105280000C94C22080E00E947A1CEE2059F28E2DF0
:1052900099CFFF20A1F09091BC028E2D892BB110E7
:1052A00003C00E945814BECF31E0B312FACF22FFE0
:1052B000B9CF891709F4B6CF8093BC02B3CFB11030
:1052C00006C00E94890C8E2D0E945114ABCF81E044
:1052D000B81609F4A7CFF5CFFF2031F091E09B1568
:1052E00008F4A0CF8E2DDDCFB1109CCFECCFBB202A
:1052F00051F3A9E3AA1209C0BFEFE7EEF3E0B15002
:10530000E040F040E1F700C00000802F0E947A1CCE
:1053100089CF812F86958695837061F0813009F061
:1053200081CFC8019370F11002C090E080E00E942C
:10533000A40878CFC8019370F11002C090E080E01B
:105340000E94BA086FCF802FFF2029F00E94470AE1
:105350000E94241867CF0E948A09FACF812F837098
:1053600009F066C0F1105ECF802F82958695877018
:10537000880F880F602F6F70862E912CB12CA12C76
:10538000082E04C0880C991CAA1CBB1C0A94D2F7D6
:1053900040E050E0BA0104FF0FC04FE050E060E091
:1053A00070E004C0440F551F661F771F8A95D2F71F
:1053B0004095509560957095812F86958695837060
:1053C000823019F1D8F40091BD021091BE022091F3
:1053D000BF023091C002813069F0482959296A29F9
:1053E0007B29CB01BA0160237123822393230E947E
:1053F0004A1918CF802A912AA22AB32ACB01BA01CE
:10540000682979298A299B29F2CF482959296A29AB
:105410007B290091BD021091BE022091BF02309104
:10542000C002CB01BA016027712782279327DFCF03
:105430008695FF2011F0812F8170882309F4F2CE28
:10544000802F829586958770880F880F602F6F70E8
:10545000862E912CB12CA12C082E04C0880C991CEE
:10546000AA1CBB1C0A94D2F740E050E0BA0104FF2A
:105470000FC04FE050E060E070E004C0440F551FE3
:10548000661F771F8A95D2F7409550956095709565
:10549000812F869586958370823019F1D8F400911A
:1054A000DD021091DE022091DF023091E0028130B6
:1054B00069F0482959296A297B29CB01BA0160235F
:1054C0007123822393230E946718ACCE802A912AED
:1054D000A22AB32ACB01BA01682979298A299B29F2
:1054E000F2CF482959296A297B290091DD021091C0
:1054F000DE022091DF023091E002CB01BA01602789
:10550000712782279327DFCF1F70FF2029F0812F7B
:105510000E942819802FC5CE802F0E945114812F00
:105520000E94CC187FCE802F22EFA21669F12A1597
:1055300070F030EFA316D1F091EFA91691F0FF2093
:1055400009F45AC0B1102BCE812F8F7121C0A3EF67
:10555000AA1609F1B4EFAB12F2CF80913C0382FDA1
:105560002DC0812F8F71FF20D9F212C0FF2039F09A
:10557000B11058CE812F8F710E94AA1853CEE1E04E
:10558000EB1508F44FCEF6CF812F8F71F110C8CFF5
:105590000E94281947CE60E070E0CB01FF2009F49B
:1055A00092CF1F7161E070E080E090E004C0660F70
:1055B000771F881F991F1A95D2F785CFFF2089F092
:1055C0001F71812F0E94281980913C0382FF07C020
:1055D000F8E01F9FC0011124836080939B02812FFC
:1055E000D7CF81E00E94F01821E02B1508F01ACEE9
:1055F00082E00E94F01816CEBB2059F0893309F0E2
:1056000084CE3FEF87EE93E0315080409040E1F749
:105610007ACE812F8F7184CF83E089831092F0033B
:105620000C94522185E0F301DE01119601900D9258
:105630008A95E1F7D30112962C9189819A812111E3
:105640000C94C6200E94F00C182F0C94CE20809150
:1056500041038272BDEC8B16BCE59B0609F419CDA3
:1056600008F056C0F7EC8F16FCE59F0609F4FDCC58
:1056700030F534EC83163CE5930609F4EACC70F47B
:10568000A3EC8A16ACE59A0609F0FFCB8091EA03F9
:1056900080FFD8CC0E9456130C94A021B5EC8B1639
:1056A000BCE59B0609F4DCCC4EE153E168E273E112
:1056B000E6EC8E16ECE59E0609F4CFCCE6CBFAECD0
:1056C0008F16FCE59F0609F4DACC88F438EC8316D3
:1056D0003CE5930609F4CECC41E153E164E073E18B
:1056E00099EC89169CE5990609F4B7CCCECBABECC6
:1056F0008A16ACE59A0609F4C7CC42E353E164E4A8
:1057000073E1BCEC8B16BCE59B0609F4A6CCBDCBC3
:10571000E2ED8E16ECE59E0609F4C8CCB8F42FEC49
:1057200082162CE5920609F4B9CC08F450CB80ED32
:1057300088168CE5980609F4B6CC6EE089E091ED08
:1057400089169CE5990609F4ABCC9FCBA5ED8A168A
:10575000ACE59A0609F4B0CC70F4E3ED8E16ECE5F6
:105760009E0609F4A6CC88E1F4ED8F16FCE59F06B1
:1057700009F46CCC8ACB26ED82162CE5920609F44E
:105780009ECC3FE583163DE5930611F40C94A021D1
:105790007CCB1F93CF93DF9380916802807F09F0C9
:1057A00049C080916502882309F444C080919A021F
:1057B000D09169026091630270916402A0916602C7
:1057C000B0916702C62FC72316E0D81799F190E071
:1057D000109711F0CF3F19F401968770F6CF189FFC
:1057E0009001199F300D1124F901E659FD4F4181B7
:1057F0004713F2CF40814613EFCF42814111ECCFE6
:10580000438154814A1B5B0B4D37510528F780912A
:1058100068028F70806180936802F901E159FD4F41
:1058200080818F708061808383E692E00E94AC204B
:105830000E949D0CDF91CF911F910895A1E1B0E0EE
:10584000E4E2FCE20C9460348C0185E0F801DE01B6
:105850001D9601900D928A95E1F7F801E28083E6AA
:10586000A82E82E0B82E60916602709167026115E1
:10587000710509F426C19091630240916402892F59
:1058800084238F3F09F41DC120813181C380D480DE
:10589000F0906502F601E61BF70BFF2009F4DCC06F
:1058A00080916802582F507FED37F10508F09FC0B6
:1058B00051116BC0FE2C431314C0921312C0E1109F
:1058C00010C08F70806180936802C5010E94AC2077
:1058D00080916802F80185838F2D6196EAE00C942F
:1058E0007C34C114D10429F0822F83238F3F09F027
:1058F00003C180E0F82FF170DF2E80FF3CC0809163
:105900009A024091690256E0841315C02D873E87A4
:105910008D859E850E94E30C292F22952F702230C1
:10592000F0F0243018F59F70F1F0F8019581907F28
:10593000D1F4D12C1EC090E0589FF001599FF00D7A
:105940001124E659FD4F6181361306C0608126138C
:1059500003C06281E6120FC001968770D5CF9F7099
:1059600011F0882331F3805E883018F3C8010E945B
:10597000AC20FD2CB1CFEE2009F4AECF80916802AF
:10598000816080936802F12CA7CF431306C0921365
:1059900004C0F801EE2009F479C0C8010E945D0D31
:1059A000882309F1EE20F9F080916802803270F0CE
:1059B000209163023091640238872F831986DB8639
:1059C000CA868C87CE0107960E94AC2086E0F8013B
:1059D000A3E6B2E001900D928A95E1F70E94C92BEF
:1059E000FF24F39479CFC8010E94AC20F9CF511164
:1059F0000AC083E692E00E94AC2086E0F501119295
:105A00008A95E9F7C0CF43130FC092130DC0E11080
:105A10000BC0F8018583C8010E94AC2086E0F50127
:105A200011928A95E9F758CFC8010E945D0D88232D
:105A3000D1F2EE20C1F280916802803238F22091DA
:105A40006302309164023A8329831B82DD82CC8217
:105A50008E83CE010196B8CFED37F105F8F6FE2C16
:105A6000EE2009F243131FC092131DC080916802FB
:105A700080FD10C0982F907F69F0F8018583903FDA
:105A800031F0982F907F905F8F70892B8583C801AC
:105A90000E94AC2086E0F801A3E6B2E001900D92EE
:105AA0008A95E1F719CFC8010E945D0D81118ECF53
:105AB00080916802816080936802C8010E94AC20D6
:105AC0000BCFEE2009F48FCFC8010E945D0DF82E98
:105AD000882309F488CF86E0F801A3E6B2E00190BC
