:100000000C9476030C94AE030C94AE030C94AE03E4
:100010000C94AE030C94AE030C94AE030C94AE039C
:100020000C94AE030C94AE030C94E91F0C94BD2009
:100030000C94BA1A0C94AE030C94AE030C94AE0359
:100040000C94AE030C94AE030C94AE030C94AE036C
:100050000C94AE030C94411B0C94AE030C94AE03B1
:100060000C94AE030C94AE030C94AE030C94AE034C
:100070000C94AE030C94AE030C94AE030C94AE033C
:100080000C94AE030C94AE030C94AE030C94AE032C
:100090000C94AE030C94AE030C94AE030C94AE031C
:1000A0000C94AE030C94AE030C94AE030103E10078
:1000B0000102E1000102E101011F0103E101043637
:1000C000307C0102E101011F0103E1010436307CB3
:1000D00001015000010134010436307C010134017A
:1000E0000436307C010150000102E10101360103B8
:1000F000E1010436307C0102E10101370103E10135
:100100000436307C0101500001012F010436307C9F
:10011000010130010436307C010150000102E1018F
:1001200001260103E1010436307C0102E1010127CF
:100130000103E1010436307C010150000102E101BC
:10014000014F0103E1010436307C0102E001011B93
:100150000103E0010436307C01014F010436307C9C
:100160000102E00101190103E00001014C0001015D
:100170004A010436307C0102E101014D0103E10135
:100180000436307C0102E00101060103E0000101B8
:100190004D010436307C010128010436307C010217
:1001A000E00101190103E00001014D010436307C3A
:1001B000010128000102E101014D0103E1010436C2
:1001C000307C01014C000102E101014A0103E1011F
:1001D0000436307C01014C0001014A010436307CB8
:1001E0000102E101014D0103E1010436307C01010E
:1001F0004C0001014D0001014A000103E1002B0404
:100200001E001F00200021002200230024002500E2
:10021000260027002D002E002B062B0114001A00AB
:10022000080015001700260227021C0018000C0009
:10023000120013000007290004001600070009003F
:100240000A002F0030000B000D000E000F003300DD
:10025000E300E1001D001B00060019000500360246
:10026000370211001000360037003800E100E000CE
:1002700064003500E20001582C00000000002A0054
:10028000025834001F0232004C0001003A003B00CB
:100290003C003D003E003F00400041004200430062
:1002A000440045000100AC00B25D4F010F011C018C
:1002B0000100B95DAE5D06011D01AF5DB45D1901C0
:1002C000AB001050B05DB75D4C0101004D01BA5D4F
:1002D00001005000510052004F00AE00010001002B
:1002E0000100B85DB35DBE5D5001BB5D0100010062
:1002F00001000100010009010100010001000100ED
:10030000010001002B000000000028000358BC5D24
:10031000BD5D010001000100680069006A006B001A
:100320006C006D006E006F007000A800AA00A900AC
:10033000010050092B0301002B0101000100160AE6
:100340004600B65D01004A00010001004F0910504F
:100350004D000100B15D01004A01FA00F900EF0013
:10036000EE00ED00F000AE0001000100FD00FE0017
:10037000FF0049000100FB00FC000100010001003A
:10038000010001000100010001000100010003580B
:10039000F10000000000F200010001000100010076
:1003A0000100010001000100010001000100010045
:1003B0000100010001000100010001000100010035
:1003C0005F00600061000100010001000100010008
:1003D0000100010001000100010010505C005D00FF
:1003E0005E00620001000100010001000100010047
:1003F000010001001450010059005A005B00010087
:1004000001000100010001000100010001000100E4
:1004100001000100010001000100010001000000D5
:1004200000000100010001000100010001000000C6
:1004300000000000000000000000000000000000BC
:1004400000000000000000000000000000000000AC
:10045000000000000000000000000000000000009C
:10046000000000000000105000000000000000002C
:10047000000000000000000000000000000000007C
:10048000105000000000000000000000000000000C
:10049000000000000000000000000000000000005C
:1004A000000000000000000000000000000000004C
:1004B0000000000000000000005C000000000000E0
:1004C00000002A2B280000000000000000000000AF
:1004D000000000000029000000002C1E3420212212
:1004E00024342627252E362D3738271E1F2021227B
:1004F000232425263333362E37381F0405060708F4
:10050000090A0B0C0D0E0F101112131415161718E3
:10051000191A1B1C1D2F3130232D35040506070821
:10052000090A0B0C0D0E0F101112131415161718C3
:10053000191A1B1C1D2F3130354C00000000000023
:1005400000000000000000000000000000000000AB
:1005500000000000000000000000000000007E0F0E
:1005600000D4FFFFFFC700000078140350007200A2
:100570006F006D0065006E006100640065000000A2
:1005800022036B007200610064006F0020006900AC
:100590006E006400750073007400720069006500ED
:1005A000730000000403090409023B00020100A0DB
:1005B000FA090400000103010100092111010001F1
:1005C000224000070581030800010904010001031E
:1005D00000000009211101000122B6000705820375
:1005E0002000011201000200000008724B6D700033
:1005F000010102000105010902A10185020901A111
:1006000000050919012908150025019508750181C2
:10061000020501093009311581257F950275088190
:100620000609381581257F950175088106050C0A94
:1006300038021581257F950175088106C0C0050126
:100640000980A101850319012AB700150126B70009
:10065000950175108100C0050C0901A101850419DF
:10066000012AA002150126A002950175108100C083
:1006700005010906A1018506050719E029E715000E
:1006800025019508750181020507190029EF15005C
:10069000250195F0750181020508190129059505C7
:1006A00075019102950175039101C005010906A12B
:1006B00001050719E029E715002501950875018155
:1006C000029501750881010507190029FF1500260B
:1006D000FF00950675088100050819012905950593
:1006E00075019102950175039101C00011241FBE8F
:1006F000CFEFDAE0DEBFCDBF04B603FE18C08091B5
:10070000BD029091BE02A091BF02B091C00287309D
:10071000904BA740B04B59F41092BD021092BE020C
:100720001092BF021092C002E0E0F8E3099511E0D8
:10073000A0E0B1E0E0E6F6E402C005900D92AC382E
:10074000B107D9F722E0ACE8B1E001C01D92AD3BA2
:10075000B207E1F70E948F140C9418230C94000048
:10076000CF93C82F10928E018AEF91E00E941A0653
:100770008C2F0E94930ACF910895CF93FB01863B63
:100780002DE5920709F48CC040F5813B2DE59207D9
:1007900009F46BC068F48F3A2DE5920709F450C054
:1007A00008F056C0813E910509F4AEC0C1E04DC0CD
:1007B000833B2DE5920709F467C008F45FC0843BD2
:1007C0002DE5920709F466C0853B9D4579F7C28106
:1007D000CC2361F38EE891E04EC08A3B2DE5920771
:1007E00009F46FC078F4C281883B2DE5920709F4C3
:1007F00063C008F45CC08CE191E0CC2331F10E942D
:100800001A0631C08C3B2DE5920709F468C008F444
:100810005FC08D3B2DE5920709F468C08E3B9D4576
:1008200029F6C281CC2389F0C0918E01C11165C027
:1008300080EB90E00E941A0681E080938E0105C053
:10084000C28186EF91E0C11108C08C2FCF9108952D
:10085000C281CC23D1F382EF91E00E941A0681E09D
:1008600090E00E94B003C0E0F0CFC28188ED91E03B
:10087000CC2309F49BCF0E941A06E7CFC28186ECF5
:1008800091E0CC2311F3E9CFC28184EB91E0CC233A
:10089000E1F2E3CFC28188EA91E0CC23B1F2DDCF6F
:1008A000C2818EE691E0CC2309F480CFE4CF8AE6C2
:1008B00091E0CC2351F2D1CF8CE391E0CC2329F20B
:1008C000CCCFC28188E091E0CC2309F4BECF97CF92
:1008D000C28188EE90E0CC2309F4B7CF90CFC281DB
:1008E00084ED90E0CC2309F4B0CF89CFC281CC2332
:1008F00009F4ABCF84EB90E082CF8CEA90E00E94C9
:100900001A0610928E01AFCFC281CC2309F44ECFCC
:1009100010928E019ACF81E008950E94BD03089540
:1009200008950E9490040895A5E0B0E0EAE9F4E09B
:100930000C948D2249835A833091900189819A8148
:10094000311119C0662399F0222389F00E94690BA6
:10095000182F682F89819A810E94450B69817A81BD
:10096000812F0E94FB112596E3E00C94A9220E949E
:10097000570B182FF3CF0E94690B69817A81F1CF51
:10098000FC01262F408151816281738184810E9404
:100990009404089581E00895CF93DF93EC0160E023
:1009A0000E94C004BE010E949104DF91CF9108957E
:1009B0000E943A1308950E943E13089508950E94DC
:1009C00094090E94DE042FEF84E39CE021508040D4
:1009D0009040E1F700C0000008950E94DF040E94EB
:1009E000651B08950E94DF040E94891B08950F93E0
:1009F0001F93CF93DF938C0161E00E94C004EC0150
:100A0000B8010E948D04811106C080E0DF91CF9172
:100A10001F910F910895B801CE010E94EB18882311
:100A2000A1F3B801CE010E942017882371F3B80109
:100A3000CE010E945D18882341F3F801828188234A
:100A400061F0CC35FDE5DF0701F158F4C115ECE5A7
:100A5000DE0791F0CF3DDC4591F0C8010E948B0488
:100A6000D5CFCE358DE5D80769F090F0C93ADD4590
:100A7000A1F70E94F204C9CF0E94ED04C6CF0E94E4
:100A80002F10F7CF0E94690FE8CF0E94730FE5CFB8
:100A90000E94770FE2CF0E94961A0E9431060895B5
:100AA0000E9435060E949B1A0895B0E0A0E0EBE595
:100AB000F5E00C948922E82FF0E0E654FB4FD49047
:100AC000282F26952695269530E0F901E65AFA4F0B
:100AD0000491877010E0082E02C0159507950A94BE
:100AE000E2F701701127F901E65BFA4FE490F12C6F
:100AF000082E02C0F594E7940A94E2F791E0E92207
:100B0000FF24F901E65CFA4FC491D0E002C0D5950C
:100B1000C7958A95E2F7C170DD270115110519F017
:100B200081EE0E948006E114F10419F086EE0E9425
:100B300080068D2D0E941607E114F10419F086EE4F
:100B40000E94CC060115110519F081EE0E94CC0619
:100B5000CD2B19F08CE20E941607CDB7DEB7E7E087
:100B60000C94A522EF92FF920F931F93CF93DF93E4
:100B70008C01F62E8AE0E82EF8018491882309F48E
:100B800054C0813009F04DC0E8012196FE018491E6
:100B9000813091F42196FE0184910E9416078E0106
:100BA0000F5F1F4F8F2D815038F3EFE9FFE0319732
:100BB000F1F700C00000F7CF823039F4E801229647
:100BC000FE0184910E948006EACF833039F4E80167
:100BD0002296FE0184910E94CC06E1CF8430F9F682
:100BE000E8012296FE01249190E080E0FE0131961A
:100BF0002053330B2A30310548F0019780F2EFE99A
:100C0000FFE03197F1F700C00000F7CFE89EA001A8
:100C1000E99E500D1124C901840F951F2491EF0105
:100C2000E5CF0E945505E801BACFCDB7DEB7E6E0C3
:100C30000C94A62260E00E94B205089508950E94D7
:100C40001E06089581E008950E94220608950895E1
:100C5000CF93C82F0E941F068C2F0E942406CF918D
:100C6000089580E00E94280608950E9447190E9476
:100C7000280608950E94471990918F01981721F036
:100C800080938F010E9428060895ABE0B0E0EBE46A
:100C9000F6E00C948E224F83588769877A878B877A
:100CA00061110E94B40E1E821D8285E0FE013796FE
:100CB000DE01119601900D928A95E1F78C819D815C
:100CC000892B61F449815A816B817C818D819E8160
:100CD0000E94DD0D2B96E2E00C94AA2289819A8174
:100CE00089238F3F79F3CE0101960E94CA048111B6
:100CF000E9CFF0CFFC01808191810E94A30B089580
:100D0000CF93C82F8823B9F08CEF8C0F813AA8F4C9
:100D10006C2F80910001909101010E94BC198823E1
:100D200029F08C2F0E94740E0E94D50E8C2F0E94E9
:100D30006C0E0E94D50ECF91089580E28C0F883002
:100D400048F4C77081E001C0880FCA95EAF70E9495
:100D5000970EEFCFEBE5EC0FE33040F4F0E0EB5B08
:100D6000FE4F808190E00E947C19E5CFE8E5EC0F12
:100D7000E73150F4F0E0EE0FFF1FE95EFE4F808197
:100D800091810E949219D7CFCD3EA8F28C2F0E945C
:100D900027150E94FA15CFCF882379F19CEF980F81
:100DA000913A28F40E94740E0E94D50E089590E2A4
:100DB000980F983050F4877091E001C0990F8A9590
:100DC000EAF7892F0E949D0EEFCF9BE5980F933095
:100DD00028F490E080E00E947C19089598E5980F2F
:100DE000973128F490E080E00E94921908958D3E9A
:100DF00020F00E9481150E94FA1508951F93CF9349
:100E0000DF93182FEB010E948006209739F4812F81
:100E10000E94CC06DF91CF911F9108958FE99FE04A
:100E20000197F1F700C000002197EFCF70E060E07C
:100E3000893311F460E570E00E94FE06089588236E
:100E400021F00E94970E0E94D50E0895882321F06C
:100E50000E949D0E0E94D50E0895B0E0A0E0E3E34D
:100E6000F7E00C9487226C01D62FC72FFC0112816A
:100E7000058102950F700E948D0EE82E8823B9F02F
:100E8000E12E1123A1F08C2F807F803421F080E2AD
:100E90008D0F8830C8F08091970282FF15C082E0E4
:100EA0000E94380F0E948D0E91E0E82EE926BC2E9C
:100EB000B2949FE0B922FBE0FB15B8F1EB2DF0E016
:100EC000E65EFC4D0C947822E12CF1CF0C2F0F70D4
:100ED000C07F11F00295007F112399F0002359F093
:100EE00080E28D0F883010F0D11107C0802F0E9452
:100EF000970E0E94D50E8D2F5AC0802F0E94A70EEC
:100F0000F8CF8D2F0E94CC06002379F080E28D0F60
:100F1000883010F0D11104C0802F0E949D0E03C0B4
:100F2000802F0E94AD0E0E94D50EEB2DE850FF0BD6
:100F3000349720F40E9447190E942806EE2089F079
:100F40000E94890E80FD0DC0F60112820E94830E60
:100F50000E944D0AC6010E9454090E94830E0E94FD
:100F60006F0ACDB7DEB7E9E00C94A3222C2F2F70C7
:100F7000F22EC07FC03219F0F29480EFF822DD2308
:100F800041F0D130E9F1112309F444C00023E9F123
:100F9000B2CF8091970282FD15C0112359F0FF2036
:100FA00029F08F2D0E94970E0E94D50E80E00E949E
:100FB0008006BBCF80E00E94CC06FF2009F4B5CFAD
:100FC0008F2DABCF112381F0011106C00E94B70E07
:100FD0008F290E941F07A9CF0130C1F70E94B70EC9
:100FE0008F290E94BE0EA1CF011106C00E94CB0E18
:100FF0008F2D0E94260799CF013009F496CFF6CFA6
:10100000112329F0023008F090CF8F2DE2CF01118B
:101010008CCFEECF002361F3D93349F43FEF87EE55
:1010200093E0315080409040E1F700C000008D2FE8
:101030000E94CC067ACF8C2F86958695837069F0B6
:10104000813009F072CF8D2F9C2F9370111102C047
:1010500090E080E00E94921968CF8D2F9C2F9370B2
:10106000111102C090E080E00E947C195ECF8D2FAC
:10107000112329F00E9427150E94FA1556CF0E94CD
:101080008115FACF8C2F837009F041C011114DCF1B
:101090004D2F429546954770440F440F0D2F0F700A
:1010A00010E030E020E0042E04C0000F111F221FCA
:1010B000331F0A94D2F760E070E0CB01D4FF0FC079
:1010C0006FE070E080E090E004C0660F771F881F3B
:1010D000991F4A95D2F76095709580959095C69521
:1010E000C695C370602B712B822B932BC23049F0B5
:1010F00058F4C13019F00E94F80917CF0E94E50991
:1011000014CF0E940B0A11CF0E94E2090ECF8695E0
:10111000112311F08C2F8170882309F406CF4D2FF5
:10112000429546954770440F440F0D2F0F7010E005
:1011300030E020E0042E04C0000F111F221F331FD7
:101140000A94D2F760E070E0CB01D4FF0FC06FE0EB
:1011500070E080E090E004C0660F771F881F991F41
:101160004A95D2F76095709580959095C695C695ED
:10117000C370602B712B822B932BC23049F058F433
:10118000C13019F00E94C80AD0CE0E94B50ACDCE57
:101190000E94DB0ACACE0E94240AC7CECF70112358
:1011A00029F08C2F0E944D0A8D2F13CF8D2F0E9476
:1011B00026078C2F0E946F0AB8CED23F39F160F417
:1011C000D03FB9F0D13F81F0112309F445C001119E
:1011D00092CE8C2F8F711EC0D33FF9F0D43FA1F770
:1011E0008091970282FD23C08C2F8F71112311F300
:1011F00011C0112339F0011198CE8C2F8F710E94EC
:10120000930A93CE023008F090CEF7CF8C2F8F71D7
:101210001111D0CF0E944D0A88CE112329F08C2FB6
:101220008F710E94370A81CE0E94310A7ECE11232F
:1012300049F0CF718C2F0E944D0A63E08C2F0E94E1
:101240001A0F73CE81E00E94380F023008F46DCE81
:1012500082E00E94380F69CE002359F0D93309F09B
:10126000E6CEEFEFF7EE23E0E150F0402040E1F76B
:10127000DCCE8C2F8F719ECF0F931F93CF93DF9374
:10128000EC01688179818A810E94AE0B8C010E94F9
:10129000EE0A0E94E109B801CE010E942D07DF91FC
:1012A000CF911F910F910895CF93DF93EC018B8124
:1012B0009C81892B29F08881998189238F3F51F462
:1012C000DF91CF910895CE010E943C09CE010E948A
:1012D000CC04F6CFCE010E94F7048111F4CF0E9416
:1012E0008D0E882369F38A81882351F380919702B8
:1012F00082FFE6CF82E00E94380FE2CF90E080E0EC
:101300000E947C1990E080E00E9492190E94B40E25
:101310000E94D50E0E9412170E94FA1508950E948D
:101320007C0E0E947E0908950E94A40E0E948F09DF
:10133000089592959F70963091F058F4925F9F7047
:10134000923058F4803F19F030F4883E30F481E058
:1013500008959A5FF4CF843FD1F380E00895883EEA
:10136000B0F3813FD1F7F3CFFC01808191810E94DE
:10137000A30B0E9499090895A5E0B0E0E2ECF9E022
:101380000C948E222596E2E00C94AA22A6E0B0E00E
:10139000ECECF9E00C948E222696E2E00C94AA2262
:1013A00008950E94D00908950E94D1096093C20156
:1013B0007093C3018093C4019093C5010E947E097C
:1013C000089508950E94D40908950F931F930091E2
:1013D000C2011091C3012091C4013091C501602B5D
:1013E000712B822B932B0E94D4091F910F9108958A
:1013F0000F931F930091C2011091C3012091C4016A
:101400003091C50160237123822393230E94D40964
:101410001F910F9108950F931F930091C201109196
:10142000C3012091C4013091C50160277127822733
:1014300093270E94D4091F910F9108950E94D0090B
:1014400008950E941E0A08950E94210A6093BE0119
:101450007093BF018093C0019093C1010E947E09E7
:10146000089560E070E0CB010E94240A08950F9374
:101470001F9341E050E060E070E08A019B0104C0EE
:10148000000F111F221F331F8A95D2F7C901B8011F
:101490000E94240A1F910F9108950F931F9341E01A
:1014A00050E060E070E004C0440F551F661F771FD6
:1014B0008A95D2F78091BE019091BF01A091C001A1
:1014C000B091C1018A019B01082B192B2A2B3B2BC0
:1014D000C901B8010E94240A1F910F9108950F932A
:1014E0001F9341E050E060E070E004C0440F551FDE
:1014F000661F771F8A95D2F7CB01BA016095709568
:10150000809590950091BE011091BF012091C0017E
:101510003091C10160237123822393230E94240A06
:101520001F910F9108950F931F9341E050E060E0E9
:1015300070E004C0440F551F661F771F8A95D2F7CD
:101540008091BE019091BF01A091C001B091C101F5
:101550008A019B01082719272A273B27C901B801BF
:101560000E94240A1F910F9108950F931F930091D9
:10157000BE011091BF012091C0013091C101602BCB
:10158000712B822B932B0E94240A1F910F91089597
:101590000F931F930091BE011091BF012091C001D4
:1015A0003091C10160237123822393230E94240A76
:1015B0001F910F9108950F931F930091BE011091F9
:1015C000BF012091C0013091C1016027712782279E
:1015D00093270E94240A1F910F9108950895262FA2
:1015E000277091E001C0990F2A95EAF723E07695DC
:1015F00067952A95E1F725E0269FF001279FF00DDA
:101600001124E40FF51F50E040E0682F70E0819155
:10161000DF0111979B01042E02C0369527950A948D
:10162000E2F7217021952827292328272C934F5F43
:101630005F4F4530510559F70895A82FA77023E053
:10164000969587952A95E1F725E0289FF001299F37
:10165000F00D1124E60FF71F50E040E080E02191EB
:1016600030E00A2E02C0369527950A94E2F72170E1
:101670003327042E01C0220F0A94EAF7822B4F5F12
:101680005F4F4530510559F70895262F953070F476
:101690008E3060F4682F70E08EE0989F600D711DB1
:1016A000112441E951E0822F0E94EF0A0895292F69
:1016B000953068F48E3058F490E061E971E03EE0D6
:1016C000239F800D911D11240E941D0B089580E021
:1016D0000895B0E0A0E0EFE6FBE00C9487228C01D7
:1016E000C090BE01D090BF01E090C001F090C10158
:1016F0008091C2019091C301A091C401B091C50134
:10170000C82AD92AEA2AFB2ACFE1D0E0BC2ED70189
:10171000C6010C2E04C0B695A795979587950A9497
:10172000D2F780FD09C0219788F7B12C8B2DCDB75A
:10173000DEB7E9E00C94A322B8018C2F0E941612A8
:10174000019789F3F3CFCF93DF93EC010E94690BEC
:10175000BE010E941612DF91CF9108951F93CF937F
:10176000DF93EB0190919001992339F0CB010E9416
:10177000A30BDF91CF911F910895882369F0CB01CE
:101780000E94690B182F682FCE010E94450BBE01E5
:10179000812F0E941612EDCFCB010E94570B182FFC
:1017A000F6CF1F93CF93DF93C091C60116E08091CF
:1017B000C7018C1304C0DF91CF911F910895D0E031
:1017C0001C9FF0011D9FF00D1124E853FE4F408136
:1017D000518162817381848195810E94C60921961D
:1017E000C770E5CF4091F8015091F9016091FA017D
:1017F0007091FB018091FC019091FD010E94C6094E
:1018000008951F93CF93DF938091FD01807F09F0AE
:1018100049C08091FA01882309F444C08091C6012F
:10182000C091C7016091F8017091F901A091FB018D
:10183000B091FC01D62FD72316E0C81799F190E09C
:10184000109711F0DF3F19F401968770F6CF189FBB
:101850009001199F300D1124F901E853FE4F418189
:101860004713F2CF40814613EFCF42814111ECCFB5
:10187000438154814A1B5B0B4D37510528F78091FA
:10188000FD018F7080618093FD01F901E353FE4FEC
:1018900080818F708061808388EF91E00E9454097D
:1018A0000E94D10BDF91CF911F910895A1E1B0E08B
:1018B000ECE5FCE00C9486228C0185E0F801DE0169
:1018C0001D9601900D928A95E1F7F801E28088EF6C
:1018D000C82E81E0D82E6091FB017091FC0161154A
:1018E000710509F44EC19091F8012091F901892FF9
:1018F00082238F3F09F445C140815181A380B48088
:10190000F090FA01F501E61BF70BFF2009F4EAC09D
:101910008091FD01382F307FED37F10508F0A3C02D
:1019200031116DC0FE2C251316C0941314C0E110A4
:1019300012C08F7080618093FD010E94F20BC6017E
:101940000E9454098091FD01F80185838F2D6196D5
:10195000EAE00C94A222A114B10429F0842F85237B
:101960008F3F09F027C180E0F82FF170DF2E80FF54
:101970003CC08091C6012091C70136E0821315C09A
:101980004D875E878D859E850E94A30B292F22950A
:101990002F702230F0F0243018F59F70F1F0F8012C
:1019A0009581907FD1F4D12C1EC090E0389FF0013A
:1019B000399FF00D1124E853FE4F6181651306C075
:1019C0006081641303C06281E6120FC001968770C4
:1019D000D5CF9F7011F0882331F3805E883018F3E3
:1019E000C8010E945409FD2CB1CFEE2009F4AECFFE
:1019F0008091FD0181608093FD01F12CA7CF25131B
:101A000006C0941304C0F801EE2009F487C0C80191
:101A10000E94B409882319F1EE2009F18091FD019B
:101A2000803270F02091F8013091F90138872F83CE
:101A30001986BB86AA868C87CE0107960E94540918
:101A400086E0F801A8EFB1E001900D928A95E1F7E8
:101A50000E94010C0E94F20BFF24F39477CFC8017F
:101A60000E945409F9CF311113C07A2DB98AA88A7E
:101A70006E2D89890E94BC0988EF91E00E9454096B
:101A800086E0F60111928A95E9F70E94F20BB5CF34
:101A900025130FC094130DC0E1100BC0F80185830E
:101AA000C8010E94540986E0F60111928A95E9F76F
:101AB0004DCFC8010E94B409882389F2EE2079F243
:101AC0008091FD01803208F4BBCF2091F801309164
:101AD000F9013A8329831B82BD82AC828E83CE01B9
:101AE0000196ACCFED37F10508F03EC0FE2CEE209C
:101AF00009F4B5CF25132AC0941328C08091FD01A5
:101B000080FD1BC0982F907FC1F0F8018583903F26
:101B100031F0982F907F905F8F70892B8583C8015B
:101B20000E94540986E0F801A8EFB1E001900D92FF
:101B30008A95E1F70E94F20B09CF86E0F801A8EF41
:101B4000B1E001900D928A95E1F700CFC8010E94A3
:101B5000B409811175CF8091FD0181608093FD01F1
:101B6000C8010E945409F2CE7A2DB98AA88A6E2D36
:101B700089890E94BC0986E0F60111928A95E9F7ED
:101B8000D9CFEE2009F46BCFC8010E94B409F82E1A
:101B9000882309F464CF86E0F801A8EFB1E0019052
:101BA0000D928A95E1F788EF91E00E947A060E94F3
:101BB000010CC0CF81E08E25D7CEACE0B0E0E3EEE3
:101BC000FDE00C948D224F83588769877A878B8735
:101BD0009C87CE0107960E94560C882369F08A855F
:101BE0009B85892B39F04F815885842F85238F3F22
:101BF00009F06BC016E05FC086E0FE013796DE019B
:101C0000119601900D928A95E1F78A859B85892B23
:101C100089F38F81988589238F3F61F32091C701D4
:101C200030E0C9010196877099274091C601481795
:101C3000190671F40E9494091092C7011092C6010E
:101C400086E0E8EFF1E0DF011D928A95E9F7D2CF57
:101C500096E0929FD001939FB00D1124A853BE4FE0
:101C6000FE01319601900D929A95E1F78093C7019C
:101C70000E94D10BBFCF819FC001112488539E4F7A
:101C80000E94560C8823E9F0E091C6011E9FF001E6
:101C90001124E853FE4F4081518162817381848118
:101CA00095810E94C6098091C60190E001968770D7
:101CB00099278093C6018091C6019091C70189132D
:101CC000DACF2C96E3E00C94A92269857A858B857E
:101CD0009C850E94C6098ECF682F8091000190914B
:101CE00001010E943C1A0895682F80910001909193
:101CF00001010E944A1A089580910001909101010A
:101D00000E94581A089580911E02859585958595A3
:101D1000089580911E028770089590911E02977019
:101D200081E009F480E00895809141020895909146
:101D30004102892B80934102089580959091410240
:101D40009823909341020895109241020895909132
:101D50004002892B80934002089580959091400223
:101D60009823909340020895109240020895809124
:101D70001F02089508950E94BA0E08959091970247
:101D800092FF08C090911F02981721F080931F02C4
:101D90000E94BB0E089580911F02882329F01092A3
:101DA0001F0280E00E94BB0E0895CF93DF93E09165
:101DB0000001F0910101809141028083E0910001D6
:101DC000F0910101808190914002892B8083909154
:101DD0001F02992381F0E0910001F09101018081BF
:101DE000892B808380910001909101010E94A819A4
:101DF00081110E94CB0EC0910001D091010140E2FF
:101E000050E06EEF71E0CE010E94C922892B59F09B
:101E100080E2FE01AEEFB1E001900D928A95E1F70C
:101E2000CE010E945419DF91CF91089508950E9428
:101E3000160F08959091970292FF11C098E0899F24
:101E400090011124622B60931E020E944D0A809122
:101E50001E028595859585950E94170F08950E940D
:101E60004D0A089510921E0280E00E94170F0895F7
:101E700090911E028095892380931E02282F27703F
:101E800091F4282F082E000C330B9217130659F0EB
:101E90009091970292FF07C08595859585950E9440
:101EA0006F0A0E94320F08959091970292FB2227A9
:101EB00020F9281769F080FB92F99093970280919E
:101EC0009602909197020E94A50F82E00E94380F1F
:101ED00008958091970282FB882780F991E08927F5
:101EE0000E94540F089581E00E94540F089580E0ED
:101EF0000E94540F08956FEF7FEF90E080E00E9402
:101F00000223089590E080E00E94DE2221E0883ED6
:101F10009E4F09F020E0822F089582E090E00E9419
:101F2000D622089583E090E00E94D6220895CF93B0
:101F300084E090E00E94D622C82F82E290E00E94C6
:101F4000D622982F8C2FCF910895CF93C92F682F29
:101F500084E090E00E94E4226C2F82E290E00E94F4
:101F6000E422CF910895AB01BC018FE090E00E9484
:101F7000F6220895AB01BC0183E190E00E94F622B5
:101F8000089560E070E0CB010E94BA0F089560E010
:101F900070E0CB010E94B30F0E94C10F089568EE5C
:101FA0007EEF90E080E00E94022360E082E090E01B
:101FB0000E94E42260E083E090E00E94E42210921C
:101FC000C2011092C3011092C4011092C50160E0D9
:101FD00084E090E00E94E42264E082E290E00E94CB
:101FE000E42260E085E090E00E94E42260E086E088
:101FF00090E00E94E4226FEF87E090E00E94E422EC
:1020000040E050E0BA0188E090E00E94F62260E0F3
:102010008DE090E00E94E42240E050E0BA0188E1C7
:1020200090E00E94F62260E087E190E00E94E422C6
:1020300040E050E0BA018CE190E00E94F62270E0AE
:1020400060E080E290E00E94022340E050E0BA01AC
:1020500088E190E00E94F6220E94C70F08950E9436
:10206000CF0F0895682F8EE090E00E94E42208953B
:102070000E94261B6093500270935102809352027B
:102080009093530260934C0270934D0280934E02E2
:1020900090934F020895089508950E944C1008955A
:1020A00008950E945010089585EF92E10E943D1915
:1020B0000E944B100E944D10089581E008950E94E7
:1020C0005D100895089508950E9462100E946310A3
:1020D00008950E9414130E94270608950E94111B60
:1020E0000E94F6130E946910E6E9F2E080818068A0
:1020F000808380919602909197020E94A50F0E9482
:1021000051100895AAE0B0E0E8E8F0E10C948322D1
:102110000E940C14A82E81110E94381052E4852EC2
:1021200052E0952E10E000E0702E802F0E944113A7
:102130006C01F401E190F1904F01E816F90609F401
:1021400044C08091540281FD0E944A13C7018C252E
:102150009D25B12CEE24E394F12C9C012E213F21EE
:10216000232B69F10E945F108823B1F0BE827F8229
:10217000CE20DF2081E0C114D10409F480E08887FB
:102180000E941A1B8160782F9A8789874E815F8110
:1021900068858A850E944506000F111FF801EE5BD5
:1021A000FD4F80819181E826F926F182E08281E06D
:1021B000A11001C080E02A96EDE00C949F22B39418
:1021C000EE0CFF1CFEE0BF12C8CF0F5F1F4F0530A3
:1021D000110509F0A9CF8FEF89838A831B820E94A2
:1021E0001A1B8160782F9D838C8349815A816B8172
:1021F0008D810E944506DBCF0E9482100E94161638
:102200000E943A060895CF93DF930E941B12EC01BF
:10221000811521E5920708F042C0811530E593074A
:1022200008F09DC0883E910530F5803E910508F08C
:1022300092C0883A910588F4853A910508F084C0E7
:102240008130910509F487C0009709F484C0049790
:1022500008F081C0D0E0C0E07EC08F3B9105D0F790
:10226000C85AD0E0CC0FDD1FC85BDE4F0990D88183
:10227000C02DD46470C08115904250F4C11581E026
:10228000D80708F068C0CD3ED10520F3D06563C003
:10229000C11590E4D907F0F2DF70D06A5CC08115F7
:1022A00025E5920700F5811534E5930708F08BC00A
:1022B000811543E5940708F073C0C11582E5D8077E
:1022C00008F469C0CE018370992721E030E002C094
:1022D000220F331F8A95E2F7C695C69580E2C89F04
:1022E000E001112454C0C11599E5D907A8F4C1151E
:1022F00028E5D20708F06CC0C11536E5D30708F011
:10230000A9CF8C2F0E94B212C82FD0E0DC2FCC278F
:10231000CC27DF71D0621FC0C1154AE5D40708F48D
:102320005CC0CE0190568115904208F093CF8D2F5E
:102330008F710E94B21290E0982F882788279F7192
:102340009C012C2BE901E6CFC55AD0E0CA58DE4FDC
:10235000C881D0E0D064CE01DF91CF910895E4E050
:1023600096958795EA95E1F783702C2F269526950B
:10237000237040E2249F90011124382B8C2F83700E
:10238000C1E0D0E002C0CC0FDD1F8A95E2F7C22B7E
:10239000D32BDC68E0CFDC2FCC27C16FD06ADBCF3A
:1023A0008370992721E030E002C0220F331F8A9505
:1023B000E2F7C695C69590E2C99FE0011124C22BB1
:1023C000D32BDA68C8CFD82FCC27C46FD06AC3CF3D
:1023D000DC2FCC27C06FD06ABECF8C2F8F700E94AD
:1023E000B21234E0D695C7953A95E1F7CF709C2F9D
:1023F000EC01D069B0CF972F7530A8F46E3098F407
:1024000070E02EE0929F600D711D1124FB0196E497
:10241000899FE00DF11D1124EE0FFF1FE250FE4FCA
:1024200085919491089580E090E008950E94FB11B9
:102430000E940311089582389105B1F1B0F48133FF
:10244000910509F475C048F48932910509F469C011
:102450008A32910509F473C008958533910509F412
:1024600059C08933910501F10895833E9105A9F181
:1024700038F4803E9105F9F0823E910549F10895C6
:10248000863E9105A9F1873E9105C9F1843E9105EB
:1024900019F52091970221FF1FC08091960284FDBB
:1024A00014C087EE90E00895209196022370A1F069
:1024B00080EE90E008952091960220FD47C0309173
:1024C000970230FF09C024FF44C090E080E004C0C0
:1024D0002091960222FDF7CF08952091960222FDC9
:1024E0003BC03091970230FDE3CF24FFF5CFEDCF15
:1024F0002091960223FFF0CF24FDE7CFD2CF209189
:10250000960223FD2CC03091970231FFEECF84EE6E
:1025100090E008952091960225FFDECF89E290E0B9
:1025200008952091960225FFD7CF85E390E0089586
:102530002091960226FFD0CF8AE290E00895209164
:10254000960226FFC9CF81E390E0089589E390E0E9
:10255000089583EE90E0089582EE90E0089586EE6F
:1025600090E008959091960292FF06C0282F28715E
:102570002830F9F4877F846093FF06C0282F2871E4
:102580002831F1F4877E84612091970220FF06C0F4
:10259000382F38713830D9F4877F816021FF06C029
:1025A000282F28712831D1F4877E816194FD877EA0
:1025B0000895282F24712430F9F68B7F8860DCCFB2
:1025C000282F2471243101F78B7E8861DDCF382FCD
:1025D0003171313019F78E7F8860E0CF282F21715B
:1025E000213121F78E7E8861E1CF80E008950E943D
:1025F0007B0F08950E940C142FEF86E791E0215085
:1026000080409040E1F700C000000E940C1480E080
:102610000E94411380FF04C00E94F7120E94651BB4
:1026200008950E94FA1208950E94820F811102C03B
:102630000E942F100E948D0F809354020E94970FCA
:1026400090939702809396020E9411130E94920F1A
:10265000682F70E090E080E00E94E2096091BE0186
:102660007091BF018091C0019091C1010E94210A27
:10267000089508950E943913089508950E943D1306
:102680000895E82FF0E0EE0FFF1FEE55FD4F80811B
:1026900091810895089580EA8A95F1F7089500C020
:1026A00008950E944B130895F894E82FE295EF7077
:1026B000F0E031A1282F2F7081E090E001C0880F59
:1026C0002A95EAF7982F9095932391A392A1892BAD
:1026D00082A378940895CF93DF93C7E8D1E08991DE
:1026E0008F3F11F00E94541381E0CC38D807B9F71E
:1026F000C9E7D1E089918F3F11F00E94541381E026
:10270000C738D807B9F7DF91CF910895AF92BF923C
:10271000DF92EF92FF920F931F93CF93DF938C0181
:10272000D62EC62FD0E0CE0189579E4F7C01FC01EA
:1027300020812F3F09F44DC0F894E22FE295EF700D
:10274000F0E031A12F7081E090E001C0880F2A9560
:10275000EAF7932F982B91A392A18095892382A3C6
:1027600078940E944F13E9E7F1E047E851E021E057
:1027700030E0B12CA12C61916F3FA9F1A62FA29559
:10278000AF70B0E090968C9190E06F7002C095951C
:1027900087956A95E2F780FD26C0C901A82AB92A63
:1027A000220F331F4E175F0731F7F70180818F3FEC
:1027B00011F00E94541361E0A114B10409F460E027
:1027C0008D2D0E945113CC0FDD1FC00FD11FB98278
:1027D000A882DF91CF911F910F91FF90EF90DF9032
:1027E000BF90AF90089590E080E0D8CF0E946B1327
:1027F0008AE0E2EAF2E0DF01982F1D929A95E9F76C
:10280000E8E9F2E0DF011D928A95E9F785E00E9490
:1028100048140E94D8040895AAE0B0E0E2E1F4E18F
:102820000C948B228E010F5F1F4F8AE0F8011192EA
:102830008A95E9F7F12C6F2DC8010E948613F39455
:10284000F5E0FF12F8CF4AE050E0B80188E992E0E5
:102850000E94C922FF24F394009709F4F12C892BDC
:1028600041F08AE0F801A8E9B2E001900D928A9562
:10287000E1F72F2D45E062EA72E088E992E00E94DC
:1028800049140E94DB048F2D2A96E5E00C94A722C0
:102890000895FF920F931F93CF93DF93F82E092F84
:1028A000162FD72FC42F222349F081E0809357029F
:1028B0000E941A1B909356028093550280915702F2
:1028C0008823A1F080915502909156020E94321BFC
:1028D000059760F0EF2DF02FA12FBD2F90E080E045
:1028E000D0E08C179D073CF010925702CDB7DEB7B1
:1028F000E5E00C94A722219131912D933D9301960F
:10290000F0CF0E943F1D0E946E100E944C1D089542
:102910000E94511D0E94FC100E946B1D08950E9490
:10292000B31A0E94251D0E9454100E9481140E9417
:1029300088140E946410FBCF80915E0280FF0DC05E
:102940006091070170E0660F771F6038710570F5C0
:102950006115710569F1862F089581FF07C06091A7
:10296000070184E0689FB0011124EFCF6091070157
:1029700082FD0AC080915D028823A9F020910601A2
:1029800060910701821710F088E0ECCF869FC001AC
:10299000112433E0880F991F3A95E1F7622F70E018
:1029A0000E946422D2CF68E070E0D5CF8FE708950F
:1029B00081E0089580915E0280FF0CC06091030168
:1029C00070E075956795759567956115710549F185
:1029D000862F089581FF06C06091030170E0759510
:1029E0006795F3CF6091030182FD0BC090915C026B
:1029F0009923A1F06091020180910301961738F0AC
:102A0000682F70E06038710500F38FE70895899FA3
:102A1000C001112470E00E946422F4CF61E070E0F4
:102A2000D7CF81E00895FC01828181110EC083819E
:102A300081110BC08481811108C091E085818111D1
:102A400001C090E0892F8170089581E0FCCF8D3E18
:102A500031F40E949C1481958093620208958E3E09
:102A600019F40E949C14F8CF8F3E31F40E949C14FC
:102A70008195809361020895803F19F40E949C140F
:102A8000F8CF893F29F40E94DA14809363020895F5
:102A90008A3F21F40E94DA148195F7CF8B3F31F4FD
:102AA0000E94DA1481958093640208958C3F19F492
:102AB0000E94DA14F8CF9FE0980F983070F4815F8D
:102AC000990B21E030E001C0220F8A95EAF780914E
:102AD0006002822B8093600208958D3F31F48091D3
:102AE0005E02816080935E0208958E3F21F48091A2
:102AF0005E028260F7CF8F3FB9F780915E028460FB
:102B0000F1CF409161028D3E59F48091620287FFBE
:102B10000DC01092620241110BC010925D0208C0FC
:102B20008E3E81F48091620218169CF3442381F05A
:102B30008091630290916402892B09F05AC010922F
:102B40005C0208958F3E49F447FFF0CF1092610276
:102B5000809162028111ECCFE0CF803F19F414160E
:102B6000ACF3E4CF90916302893F29F41916F4F68F
:102B700010926302DBCF8A3F19F497FFD7CFF8CFCB
:102B8000909164028B3F29F497FFD0CF109264029A
:102B9000CDCF8C3F19F41916CCF3C8CF9FE0980F16
:102BA000983090F4815F990B21E030E0B90102C0C8
:102BB000660F771F8A95E2F7CB01809590916002AE
:102BC000892380936002B2CF8D3F31F480915E0201
:102BD0008E7F80935E02AACF8E3F21F480915E02A9
:102BE0008D7FF7CF8F3F09F0A1CF80915E028B7F61
:102BF000F0CF08950E941A1B9C0190916102809170
:102C00006202982B21F030935B0220935A0290913C
:102C1000630280916402982B21F030935902209333
:102C200058028FE592E00E946E190895A6E0B0E088
:102C3000ECE1F6E10C948D2286E0EFE5F2E0DE01B6
:102C4000119601900D928A95E1F71092610210920F
:102C5000620210926302109264028B819C81892B24
:102C600089F080915A0290915B020E94321BAC0164
:102C700090915D029923C9F180910801841715068E
:102C800008F440C08D819E81892B91F0809158027B
:102C9000909159020E94321BAC0190915C029923E1
:102CA00009F471C0809104018417150608F479C0F5
:102CB000BE016F5F7F4F8FE592E00E946A1A81111B
:102CC00005C08FE592E00E94131581110E94FA154C
:102CD00086E0FE013196AFE5B2E001900D928A9553
:102CE000E1F72696E3E00C94A922209109018AE0FD
:102CF000289F900111242417350720F69F5F909399
:102D00005D0202C09F3FD1F71B81112359F00E9441
:102D10009C149FEF11160CF491E0899F802D1124D3
:102D2000809361021C81112359F00E949C149FEF33
:102D300011160CF491E0899F802D1124809362027A
:102D400030916102332309F49DCF20916202222346
:102D500009F498CF45EB3403C0011124992359F0AD
:102D60009093610245EB240390011124332339F041
:102D70003093620287CF81E080936102F3CF81E0DC
:102D8000809362027FCF209105018AE0289F900105
:102D900011242417350708F08BCF9F5F90935C02B6
:102DA00002C09F3FD1F71D81112359F00E94DA1410
:102DB0009FEF11160CF491E0899F802D11248093D0
:102DC00063021E81112359F00E94DA149FEF11163D
:102DD0000CF491E0899F802D11248093640230913E
:102DE0006302332309F464CF20916402222309F49F
:102DF0005FCF45EB3403C0011124992359F0909320
:102E0000630245EB240390011124332339F03093FE
:102E100064024ECF81E080936302F3CF81E0809320
:102E2000640246CF86E0EFE5F2E0DF011D928A956D
:102E3000E9F710925D0210925C0210925E02089512
:102E4000CF93DF93EC01FB018281882309F433C126
:102E5000C430FDE5DF07C0F5CB3F9CE5D90730F472
:102E60009E0122503C4524313105B0F50E94970F58
:102E70009093970280939602C1318CE5D80709F4AC
:102E8000EEC008F069C0C930ECE5DE0709F4D5C032
:102E9000C8F5C5308CE5D80709F4C7C000F5C330C4
:102EA000ECE5DE0709F4B9C008F0BBC0C230DC4570
:102EB00009F4ADC080919602909197020E94A50FEF
:102EC0000E94940980E008C0C336EDE5DE0771F288
:102ED000C73AFDE5DF0751F2DF91CF910895809168
:102EE00096028062C7309CE5D90709F493C08091AF
:102EF00096028061C830DC4508F48CC0809196024F
:102F0000806488C0809196028B7FCD30FCE5DF071E
:102F100009F480C098F4809196028E7FCB309CE5B6
:102F2000D90709F477C0809196028C60CC30DC45DB
:102F300008F470C0809196028D7F6CC080919602DB
:102F40008F7ECF30FCE5DF0709F464C008F47BC056
:102F5000809196028F7D5EC0CE3F9CE5D90709F433
:102F60007AC050F5C531FCE5DF0709F486C098F456
:102F700080919602837FC3319CE5D90709F44AC04A
:102F800008F471C00E94940990919602892F97FBD2
:102F900087F980583FC0CC3FFCE5DF0709F449C002
:102FA00008F055C0809197028160CB3FDC4509F065
:102FB00081CF809397027ECFC230EDE5DE0709F422
:102FC00068C0A8F4C1158DE5D80709F452C08091F6
:102FD00097028360C130DD4560F380919702982F9E
:102FE000909591708E7F892B90FB81F9E2CFC3364B
:102FF000EDE5DE0709F451C0C73AFDE5DF0709F446
:1030000053C0C330DD4509F055CF80E043C0809107
:1030100096028160809396024DCF809196028260E5
:10302000F9CF809196028460F5CF809196028860F6
:10303000F1CF809197028260BCCF0E949409809169
:1030400096028068E7CF80919602877FE3CF8091D8
:1030500097028E7FAECF809197028D7FAACF80910D
:1030600096028F7BD7CF0E949409809196028F772A
:10307000D1CF809197028C7F9CCF8091960282FB6A
:10308000992790F921E0922790FB82F990FB83F930
:10309000C1CF81E00E9432100DCF90919602892F0E
:1030A0008F7E94FF8061B6CF90919602892F8E7F9C
:1030B00090FF8160AFCF81E00FCFCF93DF93EB0123
:1030C00086319C4511F50E94940E9A81992399F0BE
:1030D0008A7A91E009F490E090936502811109C029
:1030E00089E20E946C0E0E94D50E80E0DF91CF91A4
:1030F000089585E3F6CF80916502811104C089E2CD
:103100000E94740EF0CF85E3FBCF81E0EFCF0F93E9
:103110001F93CF93DF93C42FD22FFC01828188238A
:10312000C9F0409368020E941A1B90936702809333
:10313000660280E28C0F883040F4C77081E001C0E5
:10314000880FCA95EAF70E941F07DF91CF911F9160
:103150000F91089510916802141332C08091660295
:10316000909167020E94321B8D37910548F5C0E2AD
:10317000CD0F1D17B9F080E2810F883040F4177031
:1031800081E001C0880F1A95EAF70E942607C8302F
:1031900048F481E09D2F977001C0880F9A95EAF757
:1031A0000E941F07802F0E941607C83070F6D77044
:1031B00081E001C0880FDA95EAF70E942607C5CFA3
:1031C00080E28C0F883008F6C77081E001C0880F5C
:1031D000CA95EAF7F2CF0F939C01CB01243F4CE54F
:1031E000340759F1A8F4293DFCE53F0701F12A3DD8
:1031F0004CE53407D1F1283D3C4591F406E221EE3F
:1032000041EE68ED7CE50E94871880E00F910895FB
:10321000263FFCE53F07E9F0B0F0273F3C45F9F0D9
:10322000FC018281882339F110926802EFCF07E216
:1032300025EE45EE69ED7CE5E6CF06E221EE40EEB7
:1032400064EF7CE5E0CF07E225EE44EE65EF7CE538
:10325000DACF06E221EE42EE66EF7CE5D4CF07E25C
:1032600025EE46EE67EF7CE5CECF08E221E045EEA5
:103270006AED7CE5C8CF81E0C9CF90938D01809342
:103280008C01089590936E0280936D020895E091F1
:103290006D02F0916E02309729F00190F081E02DDF
:1032A0000995089580E00895E0916D02F0916E0215
:1032B000309799F020911601222359F0209196021F
:1032C00027FF07C0DC012C9111962C93119726E063
:1032D0002C930280F381E02D09950895E0916D0211
:1032E000F0916E02309739F022E0DC012C930480DB
:1032F000F581E02D0995089520916B0230916C02C3
:103300002817390771F090936C0280936B02E0915B
:103310006D02F0916E02309721F00680F781E02D6A
:10332000099508952091690230916A02281739079A
:1033300071F090936A0280936902E0916D02F091BE
:103340006E02309721F00084F185E02D09950895F3
:10335000FC01329680911601882321F0809196021B
:103360009EE187FF96E080E0915008F40895219156
:103370002223D1F38F5FF8CF662301F1209116014C
:103380002223F1F02091960227FF1AC0462F46957E
:10339000469546954E3190F4677021E030E002C0CA
:1033A000220F331F6A95E2F7840F911DFC01828181
:1033B00090E02823392381E0232B69F480E00895ED
:1033C000FC01329608962191261721F0E817F9079B
:1033D000D1F7F4CF81E008959C01FC0132969FEF74
:1033E00080E04191461751F09F3F19F4411101C00F
:1033F000982F8F5F8630A9F79F3F09F40895290F12
:10340000311D97FD3A95F90162830895FC013296CA
:1034100008962191261303C0DF0111971C92E8172B
:10342000F907B9F70895E62FE695E695E695EE31AA
:1034300068F4E80FF92FF11D677021E030E001C05A
:10344000220F6A95EAF78281822B82830895E62F04
:10345000E695E695E695EE3170F4E80FF92FF11D4B
:10346000677021E030E001C0220F6A95EAF72095ED
:10347000828128232283089520911601222339F086
:103480002091960227FF03C00E94131A08950E94FC
:10349000EC19089520911601222339F0209196020B
:1034A00027FF03C00E94271A08950E94061A089554
:1034B000FC01329680911601882351F0809196028A
:1034C00087FF06C08EE1DF011D928A95E9F7089516
:1034D00086E0F9CF46E050E00E94C92221E0892B26
:1034E00009F420E0822F089508950E94741A089527
:1034F000811106C081E080936F020E94751A0895C1
:1035000082E0F9CF83E080936F020E94751A0895DC
:103510000E94781A089581E080936F020E94751AC4
:1035200008950E948B1A0895089508950E94951A8F
:103530000895089508950E94941A0895CF930E94C3
:10354000991A0E940C140E949A1AC0E08C2F0E94B3
:103550004113892B31F4CF5FC530C1F780E0CF91A3
:10356000089581E0FCCF85B7806885BF85B7806806
:1035700085BF08951F921FB61F9211248F939F93AA
:10358000AF93BF9380917002811113C08091AC0200
:103590009091AD02A091AE02B091AF024196A11DF3
:1035A000B11D8093AC029093AD02A093AE02B09394
:1035B000AF02BF91AF919F918F911F901FBE1F903F
:1035C00018958091B402843031F10E944B0510921D
:1035D000700288E190E020E40FB6F894A8958093FB
:1035E00060000FBE2093600083B7817F846083BF3B
:1035F00083B7816083BF7894889583B78E7F83BFBC
:103600000FB6F894A895809160008861809360005F
:10361000109260000FBE08950E9494090E94500508
:10362000089582E084BD93E095BD9AEF97BD8093A5
:103630006E0008952FB7F8948091AC029091AD027E
:10364000A091AE02B091AF022FBF08952FB7F894AA
:103650006091AC027091AD028091AE029091AF0288
:103660002FBF08959C014FB7F8948091AC029091C0
:10367000AD02A091AE02B091AF024FBF821B930B7F
:10368000089578941F921FB61F9211248F939F93D1
:10369000AF93BF938091AC029091AD02A091AE0226
:1036A000B091AF020196A11DB11D8093AC02909321
:1036B000AD02A093AE02B093AF02BF91AF919F91C4
:1036C0008F911F901FBE1F90189581E08093E0009E
:1036D00080E28093D8001092C9008FE19EE40197A8
:1036E000F1F700C0000087E090EBDC018093BD02A1
:1036F0009093BE02A093BF02B093C00288E19CE009
:103700000FB6F894A895809360000FBE9093600068
:10371000FFCF88E19CE00FB6F894A89580936000F5
:103720000FBE90936000FFCF80919402089508959A
:103730009C0182E08093E9009FEF8091E800915026
:1037400085FD06C085ED8A95F1F700009111F5CF52
:103750008091E80085FF0CC050E040E066E070E03A
:10376000C9010E94DD1D8091E8008E778093E800FA
:103770000895CF93DF93EC01809116018823B1F176
:103780008091960287FF32C060E282E08093E90078
:103790008FEF9091E800815095FD06C095ED9A95C8
:1037A000F1F700008111F5CF8091E80085FF1BC083
:1037B0008091160170E050E040E0811104C050E0BB
:1037C00040E068E070E0CE010E94DD1D8091E800DD
:1037D0008E778093E80080E2FE01A4E7B2E00190DA
:1037E0000D928A95E1F7DF91CF91089568E081E02D
:1037F000CDCF8093710270937302609372028091B7
:10380000B402843001F582E08093E9008FEF90915B
:10381000E800815095FD06C095ED9A95F1F70000FE
:103820008111F5CF8091E80085FF0DC050E040E0A8
:1038300063E070E081E792E00E94DD1D8091E80086
:103840008E778093E8000895BC0184E00E94F91B04
:103850000895BC0183E00E94F91B08958091B30292
:10386000811109C00E946D1F0E94CA1F8091E20051
:1038700084608093E20008951092B30208950E943C
:103880008B1A08956091B00281E0611101C080E05F
:103890000E94821A08959091B40281E0943009F058
:1038A00080E06091B0020E94881A089542E061ECC5
:1038B00081E00E94E91E42E261EC82E00E94E91E82
:1038C0009091B40281E0943009F080E06091B00200
:1038D0000E94781A08958091B602833009F461C07D
:1038E00030F48130D1F1823009F49EC008958A30DD
:1038F00009F48AC08B3009F46FC0893009F050C0D8
:103900008091B502813209F04BC08091B90290914B
:10391000BA02029708F044C08091E800877F809344
:10392000E8008091E80082FF37C09091F300809119
:10393000F200029731F48091F100813011F086306D
:1039400021F48091F100809394028091E8008B77BC
:103950008093E8000E941D1F23C08091B502813A28
:10396000F9F48091E800877F8093E8008091B902A4
:103970009091BA02892B61F460E284E792E070E0F2
:103980000E942C1E8091E8008B778093E8000895B8
:1039900060E090E080E0F3CF8091B4028111C1CF6C
:1039A00008958091B502813AD9F78091B90290913A
:1039B000BA02892BA9F78091E800877F8093E800FD
:1039C0008091E80080FFFCCF809116018093F10088
:1039D0008091E8008E77BCCF8091B502813201F7EB
:1039E0008091B9029091BA02892BD1F68091E800BA
:1039F000877F8093E8000E941D1F8091B70280930B
:103A000016010E94940908958091B502813241F611
:103A10008091E800877F8093E8000E941D1F8091BD
:103A2000B8028093950208958091B502813A09F019
:103A3000B7CF8091E800877F8093E8008091E8000D
:103A400080FFFCCF80919502C1CF84B7877F84BF70
:103A50000FB6F894A895809160008861809360000B
:103A6000109260000FBE80E890E00FB6F89480934B
:103A70006100909361000FBE0E94911A08950E9408
:103A80006D1F0E94CA1FE2EEF0E080818460808397
:103A900078940E94492208958AE091E00E94421998
:103AA00008958091B402853031F48091B40285305C
:103AB00019F00E940C1B08950E94E11A8091B20235
:103AC000882399F30E949E1A882379F30E94C71DC8
:103AD0000E949409EACF08950E946F1D0895292F2E
:103AE00033272330310519F168F42130310509F409
:103AF00044C02230310509F445C090E080E030E058
:103B000020E025C02132310549F122323105A9F7E3
:103B100080E490E02BEA36E061157105C1F086EB98
:103B200090E025EF35E06130710589F0E6CF992707
:103B30008130910581F0009729F00297F1F6EAE6CD
:103B4000F5E002C0E4EAF5E0849190E09F01FA011B
:103B5000318320830895E0E8F5E0F6CF89E090E036
:103B60002AEB35E06115710591F389E090E023EDD2
:103B700035E06130710559F3C0CF82E190E023EE6A
:103B800035E0E5CF8BE390E028EA35E0E0CF80E157
:103B900089BD82E189BD09B400FEFDCF8091D800C6
:103BA0008F7D8093D8008091E00082608093E00058
:103BB0008091E00081FDFCCF0895AF92BF92CF923B
:103BC000DF92FF920F931F93CF93DF936C01EB0172
:103BD0008A010E943C1FF82E811123C00115110596
:103BE00039F0F80180819181C81BD90BC80ED91E0C
:103BF000B12CA12C2097A9F08091E80085FD22C06E
:103C00008091E8008E778093E80001151105A1F0FE
:103C1000F80180819181A80EB91EB182A08285E051
:103C2000F82E8F2DDF91CF911F910F91FF90DF9094
:103C3000CF90BF90AF9008950E943C1F8823D1F28F
:103C4000F82EEFCFF60181916F018093F10021975B
:103C5000FFEFAF1ABF0ACECFFC018091BB0290915B
:103C6000BC0286179707A0F06115710529F49091A1
:103C7000E8009E779093E80090E06115710551F49B
:103C8000911108C08091E80082FF34C080E008955F
:103C9000BC01F2CF8091B4028823C1F18530C1F11B
:103CA0008091E80083FD30C08091E80082FDEACF7A
:103CB0008091E80080FFE1CF8091F3002091F20035
:103CC000382F6115710519F02830310558F091E051
:103CD0002830310509F090E02091E8002E772093FC
:103CE000E800CBCF81918093F100615071092F5F83
:103CF0003F4FE7CF8091B402882341F0853041F0F7
:103D00008091E80083FFBECF81E0089582E00895AE
:103D100083E00895FC018091BB029091BC0286175C
:103D20009707A0F06115710529F48091E8008E775E
:103D30008093E80090E06115710551F4911108C07D
:103D40008091E80082FF35C080E00895BC01F2CF89
:103D50008091B4028823C9F18530C9F18091E800CF
:103D600083FD31C08091E80082FDEACF8091E800B8
:103D700080FFE1CF8091F3002091F200382F611590
:103D8000710519F02830310558F091E028303105DF
:103D900009F090E08091E8008E778093E800CBCF27
:103DA00084918093F1003196615071092F5F3F4FEC
:103DB000E6CF8091B402882341F0853041F08091B4
:103DC000E80083FFBDCF81E0089582E0089583E09D
:103DD0000895982F973028F08F708093E90081E044
:103DE00008959093E900242F762F50E0981731F032
:103DF0007091EC002091ED005091F00021FD02C087
:103E00009F5FE8CF3091EB003E7F3093EB00309125
:103E1000ED003D7F3093ED003091EB003160309349
:103E2000EB007093EC002093ED005093F000209194
:103E3000EE0027FDE5CF80E008958091B50287FF71
:103E400013C08091E80082FF06C08091E8008B7764
:103E50008093E80004C08091B4028111F2CF0895EC
:103E60008091B4028823D9F38091E80080FFF8CFD5
:103E70008091E8008E77ECCF2091E4003091E5004E
:103E800095E6A9012091EC00822F817020FF06C0E9
:103E90008091E80080FF06C080E008952091E8004E
:103EA00022FD1AC08091B402882389F0853089F000
:103EB0008091EB0085FD0FC02091E4003091E5007A
:103EC00042175307F9F29150E1F684E0089582E039
:103ED000089583E0089581E008950E94DC1F0E9408
:103EE000E41FE0EEF0E0808181608083E8EDF0E0A7
:103EF00080818F77808319BCA7EDB0E08C918E7F95
:103F00008C9380818F7E80831092B30208950F93EB
:103F10001F93CF93DF930E94DC1F0E94E41FC8ED24
:103F2000D0E088818F7788838881806888838881C2
:103F30008F7D888319BC1092B4021092B002109247
:103F4000B2021092B10200EE10E0F80180818B7F86
:103F5000808388818160888342E060E080E00E9405
:103F6000E91EE1EEF0E080818E7F8083E2EEF0E0FA
:103F7000808181608083808188608083F801808176
:103F80008E7F8083888180618883DF91CF911F91AC
:103F90000F910895E8EDF0E080818F7E8083E7ED5A
:103FA000F0E080818160808384E082BF81E0809343
:103FB000B3020E94871F0895E8EDF0E080818E7FB4
:103FC00080831092E20008951092DA001092E100CE
:103FD00008951F920F920FB60F9211242F933F93C3
:103FE0004F935F936F937F938F939F93AF93BF9301
:103FF000EF93FF938091E10082FF0BC08091E2007C
:1040000082FF07C08091E1008B7F8093E1000E94D6
:1040100048228091DA0080FF19C08091D80080FF8B
:1040200015C08091DA008E7F8093DA008091D900EC
:1040300080FF96C080E189BD82E189BD09B400FEA0
:10404000FDCF81E08093B4020E942E1C8091E1009C
:1040500080FF19C08091E20080FF15C08091E200CE
:104060008E7F8093E2008091E20080618093E20085
:104070008091D80080628093D80019BC85E080933D
:10408000B4020E94421C8091E10084FF2BC0809109
:10409000E20084FF27C080E189BD82E189BD89B546
:1040A000982F917080FFFBCF8091D8008F7D8093F7
:1040B000D8008091E1008F7E8093E1008091E20042
:1040C0008F7E8093E2008091E20081608093E20025
:1040D0008091B002882309F449C084E08093B4023F
:1040E0000E944B1C8091E10083FF29C08091E20077
:1040F00083FF25C08091E100877F8093E10082E00B
:104100008093B4021092B0028091E1008E7F809380
:10411000E1008091E2008E7F8093E2008091E200D6
:1041200080618093E20042E060E080E00E94E91E4E
:104130008091F00088608093F0000E943F1CFF9106
:10414000EF91BF91AF919F918F917F916F915F910F
:104150004F913F912F910F900FBE0F901F90189588
:1041600019BC1092B4020E943C1C70CF8091E300F5
:1041700087FD93E09093B402B3CF1F920F920FB6D6
:104180000F9211242F933F934F935F936F937F93DD
:104190008F939F93AF93BF93CF93DF93EF93FF934F
:1041A000D091E900DF708091EC00C82FC17080FDD4
:1041B000C0E81092E9008091F000877F8093F000C2
:1041C00078940E9401211092E9008091F0008860AB
:1041D0008093F000CD2BCF70C093E900FF91EF9159
:1041E000DF91CF91BF91AF919F918F917F916F910F
:1041F0005F914F913F912F910F900FBE0F901F90A5
:104200001895AAE2B0E0E7E0F1E20C948D2285EB8C
:1042100092E02091F100FC012193CF01F2E08D3B6F
:104220009F07B9F70E946B1C8091E80083FF1EC1B5
:104230008091B5029091B6029A3008F017C1E92F2B
:10424000F0E0EA5DFC4D0C947822803899F08238D9
:1042500009F00CC18091B9028F70873008F006C157
:104260008093E9008091EB0085FB882780F910920C
:10427000E90006C08091B1029091B2029111826072
:104280009091E800977F9093E8008093F10010925E
:10429000F1008091E8008E77E5C0882309F4D3C04F
:1042A000823009F0E3C08091B7028111D6C08091BD
:1042B000B9028F702FEF280F263008F0D7C08093F7
:1042C000E9002091EB0020FFC8C0933031F48091C9
:1042D000EB0080628093EB00C0C09091EB00906196
:1042E0009093EB0021E030E001C0220F8A95EAF7BD
:1042F0002093EA001092EA008091EB008860EACFF8
:104300008111B4C01091B7021F778091E3008078CB
:10431000812B8093E3008091E800877F8093E80001
:104320000E941D1F8091E80080FFFCCF8091E30078
:1043300080688093E30082E0111183E08093B402EF
:1043400095C08058823008F091C08091B70290915A
:10435000B8028C3D23E09207A1F583E08A838AE2CC
:1043600089834FB7F894DE01139620E03EE051E2D6
:10437000E32FF0E050935700E49120FF03C0E29553
:10438000EF703F5FEF708E2F90E0EA30C0F0C7967D
:104390008D939D932F5F243159F74FBF8091E80093
:1043A000877F8093E8006AE270E0CE0101960E9468
:1043B0002C1E8091E8008B778093E80057C0C09650
:1043C000E7CF6091B9027091BA02AE014F5F5F4FC3
:1043D0000E946C1DBC01892B09F448C09091E80033
:1043E000977F9093E80089819A810E948A1EE1CF8D
:1043F0008038E1F58091E800877F8093E800809124
:10440000B0028093F10045CF811130C09091B70286
:10441000923060F58091E800877F8093E800909368
:10442000B0020E941D1F8091B002882311F084E029
:1044300005C08091E30087FDFACF81E08093B4024C
:104440000E94561C13C08091B702813079F481E03C
:10445000933009F080E08093B2021092E9008091DD
:10446000E800877F8093E8000E941D1F8091E8008C
:1044700083FF0AC08091E800877F8093E8008091E5
:10448000EB0080628093EB00AA96E3E00C94A922F3
:104490000895CF938091B4028823A1F0C091E900E0
:1044A000CF709091EC00892F817090FD80E8C82B2F
:1044B0001092E9008091E80083FD0E940121CF70F5
:1044C000C093E900CF91089597FB072E16F400944E
:1044D00007D077FD09D00E94B52207FC05D03EF435
:1044E000909581959F4F0895709561957F4F0895A0
:1044F000EE0FFF1F0590F491E02D09942F923F924B
:104500004F925F926F927F928F929F92AF92BF92E3
:10451000CF92DF92EF92FF920F931F93CF93DF938F
:10452000CDB7DEB7CA1BDB0B0FB6F894DEBF0FBEEC
:10453000CDBF09942A88398848885F846E847D8439
:104540008C849B84AA84B984C884DF80EE80FD803B
:104550000C811B81AA81B981CE0FD11D0FB6F894B1
:10456000DEBF0FBECDBFED010895AA1BBB1B51E1FD
:1045700007C0AA1FBB1FA617B70710F0A61BB70BD3
:10458000881F991F5A95A9F780959095BC01CD0178
:104590000895FB01DC0104C08D910190801921F484
:1045A00041505040C8F7881B990B0895F999FECFE8
:1045B00092BD81BDF89A992780B50895A8E1B0E031
:1045C00042E050E00C940A23262FF999FECF92BDC9
:1045D00081BDF89A019700B4021639F01FBA20BDC8
:1045E0000FB6F894FA9AF99A0FBE08950396272FFA
:1045F0000E94E5220E94E422252F0E94E522242F1A
:104600000C94E5220196272F0E94E5220C94E422C7
:10461000DC01CB01FC01F999FECF06C0F2BDE1BD82
:10462000F89A319600B40D9241505040B8F7089571
:10463000F894FFCF66076607B607B6071B0837086A
:10464000950795074208CE08DD08DD0825214D2194
:1046500036224D2136228021A1213622F821042242
:104660002002280850011E051901941BB91B981B34
:10467000291C241C971B01E200E900EA00B500B6E2
:1046800000B700CD008301CC008A01920194012182
:1046900002230224022502260227022A02B300B4C2
:1046A000006F007000818283E200E900EA00B5003B
:1046B000B600B700CD008301CC008A0192019401BD
:1046C0002102230224022502260227022A02B30025
:1046D000B4006F007000818283F4679734353666CA
:0C46E00096949593929190F1F5C6F7F630
:00000001FF
