:100000000C94EB030C9423040C9423040C9423040D
:100010000C9423040C9423040C9423040C942304C4
:100020000C9423040C9423040C948E200C946221D1
:100030000C945F1B0C9423040C9423040C94230451
:100040000C9423040C9423040C9423040C94230494
:100050000C9423040C94E61B0C9423040C942304AA
:100060000C9423040C9423040C9423040C94230474
:100070000C9423040C9423040C9423040C94230464
:100080000C9423040C9423040C9423040C94230454
:100090000C9423040C9423040C9423040C94230444
:1000A0000C9423040C9423040C9423040103E10016
:1000B0000102E1000102E101011F0103E101043637
:1000C000307C0102E101011F0103E1010436307CB3
:1000D00001015000010134010436307C010134017A
:1000E0000436307C010150000102E10101360103B8
:1000F000E1010436307C0102E10101370103E10135
:100100000436307C010150000102E101012F01039E
:10011000E1010436307C0102E10101300103E1011B
:100120000436307C0101500001012F010436307C7F
:10013000010130010436307C010150000102E1016F
:1001400001260103E1010436307C0102E1010127AF
:100150000103E1010436307C010150000102E1019C
:10016000014F0103E1010436307C0102E001011B73
:100170000103E0010436307C01014F010436307C7C
:100180000102E00101190103E00001014C0001013D
:100190004A010436307C0102E101014D0103E10115
:1001A0000436307C0102E00101060103E000010198
:1001B0004D010436307C010128010436307C0102F7
:1001C000E00101190103E00001014D010436307C1A
:1001D000010128000102E101014D0103E1010436A2
:1001E000307C01014C000102E101014A0103E101FF
:1001F0000436307C01014C0001014A010436307C98
:100200000102E101014D0103E1010436307C0101ED
:100210004C000102E00101500103E0010436307C92
:100220000102E00102E101014F0103E10103E001EC
:100230000436307C0102E10101500103E1000101BB
:100240004A010436307C0102E101014D0103E10065
:1002500001014D0001014A000103E1002B041E00D1
:100260001F0020002100220023002400250026007A
:1002700027002D002E002B062B0014001A0008006A
:1002800015001700260227021C0018000C0012009F
:1002900013000007290004001600070009000A00E7
:1002A0002F0030000B000D000E000F0033002868F7
:1002B000E1001D001B000600190005003602370290
:1002C00011001000360037003800E100E000640043
:1002D0003500E20001582C00000000002A000258FE
:1002E00034001F0232004C0001003A003B003C0089
:1002F0003D003E003F0040004100420043004400FA
:1003000045000100AC00B45D4F010F011C0101006C
:10031000BB5DAE5D06011D01AF5DB65D1901AB00B1
:100320001050B05DB95D4C0101004D01BC5DBD5D7B
:100330005000510052004F00AE00010001000100CA
:10034000BA5DB55DC15D5001BE5D010001000100F7
:10035000010001000901010001000100010001008C
:10036000010001000000000001000358BF5DC05DF6
:10037000010001000100680069006A006B006C0068
:100380006D006E006F007000A800AA00A9000100B7
:1003900050092B0301002B0101000100160A460041
:1003A000B85D01004A00010001004F0910504D00E6
:1003B000B15DB35DB25D4A01FA00F900EF00EE00F5
:1003C000ED00F000AE00E3000100FD00FE00FF00C4
:1003D00049000100FB00FC000100010001000100D8
:1003E0000100010001000100010001000358F100BB
:1003F00000000000F2000100010001000100010006
:1004000001000100010001000100010001000100E4
:1004100001000100010001000100010001005F0076
:100420006000610001000100010001000100010005
:10043000010001000100010010505C005D005E0041
:1004400062000100010001000100155001000100DF
:1004500001001450010059005A005B000100010026
:100460000100010001000100010001000100010084
:100470000100010001000100010001000000000076
:100480000100010001000100010001000000000066
:10049000000000000000000000000000000000005C
:1004A000000000000000000000000000000000004C
:1004B000000000000000000000000000000000003C
:1004C00000000000105000000000000000000000CC
:1004D00000000000000000000000000000001050BC
:1004E000000000000000000000000000000000000C
:1004F00000000000000000000000000000000000FC
:1005000000000000000000000000000000000000EB
:10051000000000000000005C2B041E001F002000F3
:1005200021002200230024002500260027002D00A2
:100530002E002B062B0014001A00080015001700CF
:10054000260227021C0018000C00120013000007EE
:10055000290004001600070009000A002F003000DF
:100560000B000D000E000F0033002800E1001D00FD
:100570001B000600190005003602370211001000AA
:10058000360037003800E100E00064003500E2008A
:1005900011502C00000000002A00125034001F02ED
:1005A00032004C0000000000000000002A2B280050
:1005B0000000000000000000000000000000002912
:1005C000000000002C1E3420212224342627252E52
:1005D000362D3738271E1F2021222324252633338A
:1005E000362E37381F0405060708090A0B0C0D0EB6
:1005F0000F101112131415161718191A1B1C1D2F82
:100600003130232D350405060708090A0B0C0D0EA1
:100610000F101112131415161718191A1B1C1D2F61
:100620003130354C000000000000000000000000E8
:1006300000000000000000000000000000000000BA
:1006400000000000000000007E0F00D4FFFFFFC785
:10065000000000781403500072006F006D00650008
:100660006E00610064006500000022036B007200F0
:10067000610064006F00200069006E006400750076
:1006800073007400720069006500730000000403C9
:10069000090409023B00020100A0FA09040000015C
:1006A0000301010009211101000122400007058119
:1006B00003080001090401000103000000092111E1
:1006C00001000122B600070582032000011201008B
:1006D0000200000008724B6D70000101020001056C
:1006E000010902A10185020901A1000509190129D9
:1006F00008150025019508750181020501093009D9
:10070000311581257F9502750881060938158125E7
:100710007F950175088106050C0A38021581257F31
:10072000950175088106C0C005010980A1018503F6
:1007300019012AB700150126B7009501751081002F
:10074000C0050C0901A101850419012AA0021501A7
:1007500026A002950175108100C005010906A101BE
:100760008506050719E029E715002501950875019B
:1007700081020507190029EF1500250195F0750183
:100780008102050819012905950575019102950158
:1007900075039101C005010906A101050719E029AA
:1007A000E7150025019508750181029501750881FD
:1007B000010507190029FF150026FF009506750899
:1007C000810005081901290595057501910295011A
:1007D00075039101C00011241FBECFEFDAE0DEBF28
:1007E000CDBF04B603FE18C08091BD029091BE0239
:1007F000A091BF02B091C0028730904BA740B04B90
:1008000059F41092BD021092BE021092BF021092D3
:10081000C002E0E0F8E3099511E0A0E0B1E0EAEA07
:10082000F7E402C005900D92AC38B107D9F722E089
:10083000ACE8B1E001C01D92AD3BB207E1F70E9408
:1008400034150C94BD230C940000CF93C82F109244
:100850008E0188E592E00E94BF068C2F0E94380B23
:10086000CF910895CF93FB01873B2DE5920709F4C3
:10087000B2C0C8F5823B2DE5920709F491C0E8F4B7
:100880008F3A2DE5920709F476C030F4813E910548
:1008900009F4DFC0C1E074C0803B2DE5920709F484
:1008A00072C0813B9D45B1F7C2818EE392E0CC23BB
:1008B00009F466C00E94BF0671C0843B2DE5920713
:1008C00009F47DC008F472C0853B2DE5920709F458
:1008D0007CC0863B9D45F1F6C28188EC91E0CC233B
:1008E00009F44EC055C08C3B2DE5920709F48EC02B
:1008F000A8F4893B2DE5920709F47BC008F472C087
:100900008A3B2DE5920709F47AC08B3B9D4511F691
:10091000C2818CE391E0CC2399F1CCCF8F3B2DE5C4
:10092000920709F481C078F48D3B2DE5920709F414
:1009300074C08E3B9D4509F0ADCFC28188EE90E03A
:10094000CC23F1F0B7CF803C2DE5920709F473C0BA
:10095000813C9D4509F09ECFC281CC2389F0C09196
:100960008E01C1116FC080EB90E00E94BF0681E054
:1009700080938E0105C0C28184E592E0C11108C058
:100980008C2FCF910895C28180E592E0CC23C1F3F2
:100990000E94BF0681E090E00E942504C0E0F0CFF5
:1009A000C28182E192E0CC2359F384CFC28188EFE7
:1009B00091E0CC2309F46ECF0E94BF06E1CFC28143
:1009C00086EE91E0CC23E1F2E3CFC28184ED91E0A9
:1009D000CC23B1F2DDCFC281CC2309F45BCF8EEA08
:1009E00091E0EACFC2818EE891E0CC2309F452CFA6
:1009F000E3CFC281CC2321F28AE891E0C9CFC28142
:100A00008CE591E0CC2309F4BBCF54CFC28188E2BE
:100A100091E0CC2309F4B4CF4DCFC28188E091E0BE
:100A2000CC2309F4ADCF46CFC28184ED90E0CC2336
:100A300009F4A6CF3FCFC281CC2309F4A1CF84EB28
:100A400090E038CF8CEA90E00E94BF0610928E01B1
:100A5000A5CFC281CC2309F41DCF10928E0190CF77
:100A600081E008950E943204089508950E9435059A
:100A70000895A5E0B0E0EFE3F5E00C94322349835C
:100A80005A833091900189819A81311119C066236E
:100A900099F0222389F00E940E0C182F682F89816B
:100AA0009A810E94EA0B69817A81812F0E94A012AB
:100AB0002596E3E00C944E230E94FC0B182FF3CFF5
:100AC0000E940E0C69817A81F1CFFC01262F4081B2
:100AD00051816281738184810E943905089581E08A
:100AE0000895CF93DF93EC0160E00E946505BE019D
:100AF0000E943605DF91CF9108950E94DF1308957B
:100B00000E94E313089508950E94390A0E94830504
:100B10002FEF84E39CE0215080409040E1F700C03B
:100B2000000008950E9484050E940A1C08950E94F6
:100B300084050E942E1C08950F931F93CF93DF937B
:100B40008C0161E00E946505EC01B8010E9432054C
:100B5000811106C080E0DF91CF911F910F91089520
:100B6000B801CE010E9490198823A1F3B801CE01EB
:100B70000E94C517882371F3B801CE010E940219A3
:100B8000882341F3F8018281882361F0CC35FDE5AB
:100B9000DF0701F158F4C115ECE5DE0791F0CF3D18
:100BA000DC4591F0C8010E943005D5CFCE358DE5EA
:100BB000D80769F090F0C93ADD45A1F70E94970582
:100BC000C9CF0E949205C6CF0E94D410F7CF0E94D1
:100BD0000E10E8CF0E941810E5CF0E941C10E2CF43
:100BE0000E943B1B0E94D60608950E94DA060E94CE
:100BF000401B0895B0E0A0E0E0E0F6E00C942E2366
:100C0000E82FF0E0EC55FA4FD490282F2695269542
:100C1000269530E0F901EC5BF94F0491877010E004
:100C2000082E02C0159507950A94E2F70170112766
:100C3000F901EC5CF94FE490F12C082E02C0F59418
:100C4000E7940A94E2F791E0E922FF24F901EC5DD0
:100C5000F94FC491D0E002C0D595C7958A95E2F7C7
:100C6000C170DD270115110519F081EE0E942507DD
:100C7000E114F10419F086EE0E9425078D2D0E94E3
:100C8000BB07E114F10419F086EE0E94710701150B
:100C9000110519F081EE0E947107CD2B19F08CE23D
:100CA0000E94BB07CDB7DEB7E7E00C944A23EF9272
:100CB000FF920F931F93CF93DF938C01F62E8AE060
:100CC000E82EF8018491882309F454C0813009F09A
:100CD0004DC0E8012196FE018491813091F4219666
:100CE000FE0184910E94BB078E010F5F1F4F8F2D65
:100CF000815038F3EFE9FFE03197F1F700C00000D1
:100D0000F7CF823039F4E8012296FE0184910E94E7
:100D10002507EACF833039F4E8012296FE01849159
:100D20000E947107E1CF8430F9F6E8012296FE01B6
:100D3000249190E080E0FE0131962053330B2A305D
:100D4000310548F0019780F2EFE9FFE03197F1F7C4
:100D500000C00000F7CFE89EA001E99E500D1124CD
:100D6000C901840F951F2491EF01E5CF0E94FA0578
:100D7000E801BACFCDB7DEB7E6E00C944B2360E0D4
:100D80000E945706089508950E94C306089581E0C1
:100D900008950E94C70608950895CF93C82F0E9412
:100DA000C4068C2F0E94C906CF91089580E00E944E
:100DB000CD0608950E94EC190E94CD0608950E9468
:100DC000EC1990918F01981721F080938F010E9468
:100DD000CD060895ABE0B0E0E0EFF6E00C943323ED
:100DE0004F83588769877A878B8761110E94590FD3
:100DF0001E821D8285E0FE013796DE01119601906C
:100E00000D928A95E1F78C819D81892B61F449814E
:100E10005A816B817C818D819E810E94820E2B96EE
:100E2000E2E00C944F2389819A8189238F3F79F3E3
:100E3000CE0101960E946F058111E9CFF0CFFC0130
:100E4000808191810E94480C0895CF93C82F8823F8
:100E5000B9F08CEF8C0F813AA8F46C2F80910001CF
:100E6000909101010E94611A882329F08C2F0E9421
:100E7000190F0E947A0F8C2F0E94110F0E947A0F77
:100E8000CF91089580E28C0F883048F4C77081E0DC
:100E900001C0880FCA95EAF70E943C0FEFCFEBE53F
:100EA000EC0FE33040F4F0E0EB5BFE4F808190E02C
:100EB0000E94211AE5CFE8E5EC0FE73150F4F0E0AD
:100EC000EE0FFF1FE95EFE4F808191810E94371A6D
:100ED000D7CFCD3EA8F28C2F0E94CC150E949F1632
:100EE000CFCF882379F19CEF980F913A28F40E9494
:100EF000190F0E947A0F089590E2980F983050F4DD
:100F0000877091E001C0990F8A95EAF7892F0E94B6
:100F1000420FEFCF9BE5980F933028F490E080E0EC
:100F20000E94211A089598E5980F973128F490E0CF
:100F300080E00E94371A08958D3E20F00E94261608
:100F40000E949F1608951F93CF93DF93182FEB01F4
:100F50000E942507209739F4812F0E947107DF91A5
:100F6000CF911F9108958FE99FE00197F1F700C09D
:100F700000002197EFCF70E060E0893311F460E565
:100F800070E00E94A3070895882321F00E943C0F7F
:100F90000E947A0F0895882321F00E94420F0E9438
:100FA0007A0F0895B0E0A0E0E8EDF7E00C942C2370
:100FB0006C01D62FC72FFC011281058102950F709D
:100FC0000E94320FE82E8823B9F0E12E1123A1F000
:100FD0008C2F807F803421F080E28D0F8830C8F024
:100FE0008091970282FF15C082E00E94DD0F0E946F
:100FF000320F91E0E82EE926BC2EB2949FE0B92290
:10100000FBE0FB15B8F1EB2DF0E0E154FC4D0C9446
:101010001D23E12CF1CF0C2F0F70C07F11F0029532
:10102000007F112399F0002359F080E28D0F883062
:1010300010F0D11107C0802F0E943C0F0E947A0F40
:101040008D2F5AC0802F0E944C0FF8CF8D2F0E94F9
:101050007107002379F080E28D0F883010F0D111F4
:1010600004C0802F0E94420F03C0802F0E94520FA5
:101070000E947A0FEB2DE850FF0B349720F40E946A
:10108000EC190E94CD06EE2089F00E942E0F80FD03
:101090000DC0F60112820E94280F0E94F20AC601BA
:1010A0000E94F9090E94280F0E94140BCDB7DEB7E9
:1010B000E9E00C9448232C2F2F70F22EC07FC03211
:1010C00019F0F29480EFF822DD2341F0D130E9F1FC
:1010D000112309F444C00023E9F1B2CF80919702B3
:1010E00082FD15C0112359F0FF2029F08F2D0E9499
:1010F0003C0F0E947A0F80E00E942507BBCF80E062
:101100000E947107FF2009F4B5CF8F2DABCF1123BB
:1011100081F0011106C00E945C0F8F290E94C40754
:10112000A9CF0130C1F70E945C0F8F290E94630F85
:10113000A1CF011106C00E94700F8F2D0E94CB0716
:1011400099CF013009F496CFF6CF112329F0023060
:1011500008F090CF8F2DE2CF01118CCFEECF00237E
:1011600061F3D93349F43FEF87EE93E0315080408B
:101170009040E1F700C000008D2F0E9471077ACFE8
:101180008C2F86958695837069F0813009F072CF37
:101190008D2F9C2F9370111102C090E080E00E946F
:1011A000371A68CF8D2F9C2F9370111102C090E0D9
:1011B00080E00E94211A5ECF8D2F112329F00E941A
:1011C000CC150E949F1656CF0E942616FACF8C2F60
:1011D000837009F041C011114DCF4D2F42954695B6
:1011E0004770440F440F0D2F0F7010E030E020E0E7
:1011F000042E04C0000F111F221F331F0A94D2F7C0
:1012000060E070E0CB01D4FF0FC06FE070E080E0E1
:1012100090E004C0660F771F881F991F4A95D2F788
:101220006095709580959095C695C695C370602B16
:10123000712B822B932BC23049F058F4C13019F036
:101240000E949D0A17CF0E948A0A14CF0E94B00AFA
:1012500011CF0E94870A0ECF8695112311F08C2F93
:101260008170882309F406CF4D2F4295469547702B
:10127000440F440F0D2F0F7010E030E020E0042EDB
:1012800004C0000F111F221F331F0A94D2F760E021
:1012900070E0CB01D4FF0FC06FE070E080E090E021
:1012A00004C0660F771F881F991F4A95D2F7609573
:1012B000709580959095C695C695C370602B712BDF
:1012C000822B932BC23049F058F4C13019F00E94A0
:1012D0006D0BD0CE0E945A0BCDCE0E94800BCACE91
:1012E0000E94C90AC7CECF70112329F08C2F0E940B
:1012F000F20A8D2F13CF8D2F0E94CB078C2F0E94C7
:10130000140BB8CED23F39F160F4D03FB9F0D13FE1
:1013100081F0112309F445C0011192CE8C2F8F71F9
:101320001EC0D33FF9F0D43FA1F78091970282FD10
:1013300023C08C2F8F71112311F311C0112339F0A9
:10134000011198CE8C2F8F710E94380B93CE0230F2
:1013500008F090CEF7CF8C2F8F711111D0CF0E9453
:10136000F20A88CE112329F08C2F8F710E94DC0A9B
:1013700081CE0E94D60A7ECE112349F0CF718C2FE8
:101380000E94F20A63E08C2F0E94BF0F73CE81E0AF
:101390000E94DD0F023008F46DCE82E00E94DD0F66
:1013A00069CE002359F0D93309F0E6CEEFEFF7EE1E
:1013B00023E0E150F0402040E1F7DCCE8C2F8F712C
:1013C0009ECF0F931F93CF93DF93EC0168817981B8
:1013D0008A810E94530C8C010E94930B0E94860A02
:1013E000B801CE010E94D207DF91CF911F910F91DA
:1013F0000895CF93DF93EC018B819C81892B29F099
:101400008881998189238F3F51F4DF91CF9108958D
:10141000CE010E94E109CE010E947105F6CFCE01F6
:101420000E949C058111F4CF0E94320F882369F33A
:101430008A81882351F38091970282FFE6CF82E070
:101440000E94DD0FE2CF90E080E00E94211A90E040
:1014500080E00E94371A0E94590F0E947A0F0E9462
:10146000B7170E949F1608950E94210F0E94230A19
:1014700008950E94490F0E94340A089592959F7022
:10148000963091F058F4925F9F70923058F4803FFC
:1014900019F030F4883E30F481E008959A5FF4CF7B
:1014A000843FD1F380E00895883EB0F3813FD1F7C7
:1014B000F3CFFC01808191810E94480C0E943E0A7A
:1014C0000895A5E0B0E0E7E6FAE00C943323259612
:1014D000E2E00C944F23A6E0B0E0E1E7FAE00C94E0
:1014E00033232696E2E00C944F2308950E94750A58
:1014F00008950E94760A6093C2017093C30180939D
:10150000C4019093C5010E94230A089508950E9482
:10151000790A08950F931F930091C2011091C3019E
:101520002091C4013091C501602B712B822B932B2C
:101530000E94790A1F910F9108950F931F930091B4
:10154000C2011091C3012091C4013091C5016023F3
:101550007123822393230E94790A1F910F9108958A
:101560000F931F930091C2011091C3012091C401F8
:101570003091C50160277127822793270E94790A3D
:101580001F910F9108950E94750A08950E94C30A41
:1015900008950E94C60A6093BE017093BF018093B4
:1015A000C0019093C1010E94230A089560E070E099
:1015B000CB010E94C90A08950F931F9341E050E0A8
:1015C00060E070E08A019B0104C0000F111F221F20
:1015D000331F8A95D2F7C901B8010E94C90A1F9129
:1015E0000F9108950F931F9341E050E060E070E089
:1015F00004C0440F551F661F771F8A95D2F780914C
:10160000BE019091BF01A091C001B091C1018A01BA
:101610009B01082B192B2A2B3B2BC901B8010E94D7
:10162000C90A1F910F9108950F931F9341E050E055
:1016300060E070E004C0440F551F661F771F8A9555
:10164000D2F7CB01BA016095709580959095009185
:10165000BE011091BF012091C0013091C1016023F2
:101660007123822393230E94C90A1F910F91089529
:101670000F931F9341E050E060E070E004C0440F1E
:10168000551F661F771F8A95D2F78091BE019091F2
:10169000BF01A091C001B091C1018A019B0108273F
:1016A00019272A273B27C901B8010E94C90A1F919F
:1016B0000F9108950F931F930091BE011091BF01E8
:1016C0002091C0013091C101602B712B822B932B93
:1016D0000E94C90A1F910F9108950F931F930091C3
:1016E000BE011091BF012091C0013091C101602362
:1016F0007123822393230E94C90A1F910F91089599
:101700000F931F930091BE011091BF012091C00162
:101710003091C10160277127822793270E94C90A4F
:101720001F910F9108950895262F277091E001C011
:10173000990F2A95EAF723E0769567952A95E1F7C0
:1017400025E0269FF001279FF00D1124E40FF51FDF
:1017500050E040E0682F70E08191DF0111979B011C
:10176000042E02C0369527950A94E2F72170219540
:101770002827292328272C934F5F5F4F4530510599
:1017800059F70895A82FA77023E0969587952A9575
:10179000E1F725E0289FF001299FF00D1124E60FC5
:1017A000F71F50E040E080E0219130E00A2E02C0B7
:1017B000369527950A94E2F721703327042E01C04D
:1017C000220F0A94EAF7822B4F5F5F4F4530510595
:1017D00059F70895262F953070F48E3060F4682FF5
:1017E00070E08EE0989F600D711D112441E951E079
:1017F000822F0E94940B0895292F953068F48E3023
:1018000058F490E061E971E03EE0239F800D911D66
:1018100011240E94C20B089580E00895B0E0A0E07A
:10182000E4E1FCE00C942C238C01C090BE01D0902C
:10183000BF01E090C001F090C1018091C201909180
:10184000C301A091C401B091C501C82AD92AEA2ACE
:10185000FB2ACFE1D0E0BC2ED701C6010C2E04C07C
:10186000B695A795979587950A94D2F780FD09C0FC
:10187000219788F7B12C8B2DCDB7DEB7E9E00C941A
:101880004823B8018C2F0E94BB12019789F3F3CF34
:10189000CF93DF93EC010E940E0CBE010E94BB129D
:1018A000DF91CF9108951F93CF93DF93EB01909138
:1018B0009001992339F0CB010E94480CDF91CF9120
:1018C0001F910895882369F0CB010E940E0C182FF8
:1018D000682FCE010E94EA0BBE01812F0E94BB122D
:1018E000EDCFCB010E94FC0B182FF6CF1F93CF93A7
:1018F000DF93C091C60116E08091C7018C1304C02C
:10190000DF91CF911F910895D0E01C9FF0011D9FA2
:10191000F00D1124E853FE4F4081518162817381A3
:10192000848195810E946B0A2196C770E5CF409112
:10193000F8015091F9016091FA017091FB018091D9
:10194000FC019091FD010E946B0A08951F93CF93B3
:10195000DF938091FD01807F09F049C08091FA01F9
:10196000882309F444C08091C601C091C7016091E9
:10197000F8017091F901A091FB01B091FC01D62F03
:10198000D72316E0C81799F190E0109711F0DF3FC8
:1019900019F401968770F6CF189F9001199F300DAA
:1019A0001124F901E853FE4F41814713F2CF4081E2
:1019B0004613EFCF42814111ECCF438154814A1B42
:1019C0005B0B4D37510528F78091FD018F708061C9
:1019D0008093FD01F901E353FE4F80818F70806198
:1019E000808388EF91E00E94F9090E94760CDF91D4
:1019F000CF911F910895A1E1B0E0E1E0FDE00C94EA
:101A00002B238C0185E0F801DE011D9601900D92DB
:101A10008A95E1F7F801E28088EFC82E81E0D82EA0
:101A20006091FB017091FC016115710509F44EC1D3
:101A30009091F8012091F901892F82238F3F09F4B9
:101A400045C140815181A380B480F090FA01F50135
:101A5000E61BF70BFF2009F4EAC08091FD01382F47
:101A6000307FED37F10508F0A3C031116DC0FE2CB9
:101A7000251316C0941314C0E11012C08F7080613A
:101A80008093FD010E94970CC6010E94F909809184
:101A9000FD01F80185838F2D6196EAE00C944723C0
:101AA000A114B10429F0842F85238F3F09F027C1A9
:101AB00080E0F82FF170DF2E80FF3CC08091C601DE
:101AC0002091C70136E0821315C04D875E878D8552
:101AD0009E850E94480C292F22952F702230F0F00D
:101AE000243018F59F70F1F0F8019581907FD1F4C2
:101AF000D12C1EC090E0389FF001399FF00D1124C9
:101B0000E853FE4F6181651306C06081641303C012
:101B10006281E6120FC001968770D5CF9F7011F0D9
:101B2000882331F3805E883018F3C8010E94F909D8
:101B3000FD2CB1CFEE2009F4AECF8091FD01816084
:101B40008093FD01F12CA7CF251306C0941304C088
:101B5000F801EE2009F487C0C8010E94590A8823C1
:101B600019F1EE2009F18091FD01803270F0209191
:101B7000F8013091F90138872F831986BB86AA8630
:101B80008C87CE0107960E94F90986E0F801A8EF3C
:101B9000B1E001900D928A95E1F70E94A60C0E9497
:101BA000970CFF24F39477CFC8010E94F909F9CF6D
:101BB000311113C07A2DB98AA88A6E2D89890E94A5
:101BC000610A88EF91E00E94F90986E0F60111921E
:101BD0008A95E9F70E94970CB5CF25130FC094138F
:101BE0000DC0E1100BC0F8018583C8010E94F909FE
:101BF00086E0F60111928A95E9F74DCFC8010E945F
:101C0000590A882389F2EE2079F28091FD01803211
:101C100008F4BBCF2091F8013091F9013A83298370
:101C20001B82BD82AC828E83CE010196ACCFED3794
:101C3000F10508F03EC0FE2CEE2009F4B5CF2513C7
:101C40002AC0941328C08091FD0180FD1BC0982FED
:101C5000907FC1F0F8018583903F31F0982F907FFD
:101C6000905F8F70892B8583C8010E94F90986E0F7
:101C7000F801A8EFB1E001900D928A95E1F70E947A
:101C8000970C09CF86E0F801A8EFB1E001900D9222
:101C90008A95E1F700CFC8010E94590A811175CFDA
:101CA0008091FD0181608093FD01C8010E94F909C6
:101CB000F2CE7A2DB98AA88A6E2D89890E94610A8E
:101CC00086E0F60111928A95E9F7D9CFEE2009F462
:101CD0006BCFC8010E94590AF82E882309F464CFFB
:101CE00086E0F801A8EFB1E001900D928A95E1F746
:101CF00088EF91E00E941F070E94A60CC0CF81E0F0
:101D00008E25D7CEACE0B0E0E8E8FEE00C943223BC
:101D10004F83588769877A878B879C87CE01079680
:101D20000E94FB0C882369F08A859B85892B39F0FA
:101D30004F815885842F85238F3F09F06BC016E0B3
:101D40005FC086E0FE013796DE01119601900D928C
:101D50008A95E1F78A859B85892B89F38F81988500
:101D600089238F3F61F32091C70130E0C9010196BB
:101D7000877099274091C6014817190671F40E948F
:101D8000390A1092C7011092C60186E0E8EFF1E02F
:101D9000DF011D928A95E9F7D2CF96E0929FD0019C
:101DA000939FB00D1124A853BE4FFE0131960190B0
:101DB0000D929A95E1F78093C7010E94760CBFCFF0
:101DC000819FC001112488539E4F0E94FB0C8823E1
:101DD000E9F0E091C6011E9FF0011124E853FE4F87
:101DE0004081518162817381848195810E946B0A57
:101DF0008091C60190E00196877099278093C60173
:101E00008091C6019091C7018913DACF2C96E3E047
:101E10000C944E2369857A858B859C850E946B0A7C
:101E20008ECF682F80910001909101010E94E11AEC
:101E30000895682F80910001909101010E94EF1A8E
:101E4000089580910001909101010E94FD1A08956A
:101E500080911E02859585958595089580911E0235
:101E60008770089590911E02977081E009F480E0D8
:101E7000089580914102089590914102892B8093A9
:101E800041020895809590914102982390934102D8
:101E9000089510924102089590914002892B8093F9
:101EA00040020895809590914002982390934002BB
:101EB000089510924002089580911F020895089598
:101EC0000E945F0F08959091970292FF08C0909131
:101ED0001F02981721F080931F020E94600F08953F
:101EE00080911F02882329F010921F0280E00E9437
:101EF000600F0895CF93DF93E0910001F09101010D
:101F0000809141028083E0910001F0910101808184
:101F100090914002892B808390911F02992381F038
:101F2000E0910001F09101018081892B80838091F3
:101F30000001909101010E944D1A81110E94700FC1
:101F4000C0910001D091010140E250E06EEF71E0DC
:101F5000CE010E946E23892B59F080E2FE01AEEF84
:101F6000B1E001900D928A95E1F7CE010E94F91936
:101F7000DF91CF91089508950E94BB0F089590912D
:101F8000970292FF11C098E0899F90011124622B63
:101F900060931E020E94F20A80911E02859585952B
:101FA00085950E94BC0F08950E94F20A0895109230
:101FB0001E0280E00E94BC0F089590911E02809541
:101FC000892380931E02282F277091F4282F082E32
:101FD000000C330B9217130659F09091970292FF61
:101FE00007C08595859585950E94140B0E94D70F93
:101FF00008959091970292FB222720F9281769F003
:1020000080FB92F9909397028091960290919702AB
:102010000E944A1082E00E94DD0F0895809197028D
:1020200082FB882780F991E089270E94F90F0895A3
:1020300081E00E94F90F089580E00E94F90F089551
:102040006FEF7FEF90E080E00E94A723089590E07B
:1020500080E00E94832321E0883E9E4F09F020E02B
:10206000822F089582E090E00E947B23089583E010
:1020700090E00E947B230895CF9384E090E00E943B
:102080007B23C82F82E290E00E947B23982F8C2F25
:10209000CF910895CF93C92F682F84E090E00E94DC
:1020A00089236C2F82E290E00E948923CF910895CA
:1020B000AB01BC018FE090E00E949B230895AB012F
:1020C000BC0183E190E00E949B23089560E070E0F2
:1020D000CB010E945F10089560E070E0CB010E9488
:1020E00058100E946610089568EE7EEF90E080E040
:1020F0000E94A72360E082E090E00E94892360E0D4
:1021000083E090E00E9489231092C2011092C301E3
:102110001092C4011092C50160E084E090E00E943A
:10212000892364E082E290E00E94892360E085E0F8
:1021300090E00E94892360E086E090E00E9489237D
:102140006FEF87E090E00E94892340E050E0BA0101
:1021500088E090E00E949B2360E08DE090E00E9488
:10216000892340E050E0BA0188E190E00E949B237F
:1021700060E087E190E00E94892340E050E0BA01EE
:102180008CE190E00E949B2370E060E080E290E0B0
:102190000E94A72340E050E0BA0188E190E00E944D
:1021A0009B230E946C1008950E9474100895682F5C
:1021B0008EE090E00E94892308950E94CB1B6093DB
:1021C0005002709351028093520290935302609395
:1021D0004C0270934D0280934E0290934F020895EB
:1021E000089508950E94F110089508950E94F51031
:1021F00008958AE993E10E94E2190E94F0100E947A
:10220000F210089581E008950E9402110895089542
:1022100008950E9407110E94081108950E94B913A1
:102220000E94CC0608950E94B61B0E949B140E9437
:102230000E11E6E9F2E08081806880838091960249
:10224000909197020E944A100E94F6100895AAE009
:10225000B0E0EDE2F1E10C9428230E94B114A82E25
:1022600081110E94DD1052E4852E52E0952E10E07F
:1022700000E0702E802F0E94E6136C01F401E190C3
:10228000F1904F01E816F90609F444C08091540218
:1022900081FD0E94EF13C7018C259D25B12CEE24F2
:1022A000E394F12C9C012E213F21232B69F10E9404
:1022B00004118823B1F0BE827F82CE20DF2081E02E
:1022C000C114D10409F480E088870E94BF1B81609B
:1022D000782F9A8789874E815F8168858A850E94D9
:1022E000EA06000F111FF801EE5BFD4F808191811E
:1022F000E826F926F182E08281E0A11001C080E0A9
:102300002A96EDE00C944423B394EE0CFF1CFEE0FF
:10231000BF12C8CF0F5F1F4F0530110509F0A9CFBD
:102320008FEF89838A831B820E94BF1B8160782F75
:102330009D838C8349815A816B818D810E94EA063D
:10234000DBCF0E9427110E94BB160E94DF06089572
:10235000CF93DF930E94C012EC01811521E5920713
:1023600008F042C0811530E5930708F09DC0883E13
:10237000910530F5803E910508F092C0883A9105AC
:1023800088F4853A910508F084C08130910509F4FC
:1023900087C0009709F484C0049708F081C0D0E09A
:1023A000C0E07EC08F3B9105D0F7C85AD0E0CC0F7B
:1023B000DD1FC85BDE4F0990D881C02DD46470C08A
:1023C0008115904250F4C11581E0D80708F068C02B
:1023D000CD3ED10520F3D06563C0C11590E4D90787
:1023E000F0F2DF70D06A5CC0811525E5920700F538
:1023F000811534E5930708F08BC0811543E59407F8
:1024000008F073C0C11582E5D80708F469C0CE0191
:102410008370992721E030E002C0220F331F8A9594
:10242000E2F7C695C69580E2C89FE001112454C02A
:10243000C11599E5D907A8F4C11528E5D20708F018
:102440006CC0C11536E5D30708F0A9CF8C2F0E94C8
:102450005713C82FD0E0DC2FCC27CC27DF71D062F8
:102460001FC0C1154AE5D40708F45CC0CE019056E0
:102470008115904208F093CF8D2F8F710E945713D2
:1024800090E0982F882788279F719C012C2BE901C9
:10249000E6CFC55AD0E0CA58DE4FC881D0E0D0643C
:1024A000CE01DF91CF910895E4E096958795EA9566
:1024B000E1F783702C2F26952695237040E2249F08
:1024C00090011124382B8C2F8370C1E0D0E002C022
:1024D000CC0FDD1F8A95E2F7C22BD32BDC68E0CF4F
:1024E000DC2FCC27C16FD06ADBCF8370992721E026
:1024F00030E002C0220F331F8A95E2F7C695C695D9
:1025000090E2C99FE0011124C22BD32BDA68C8CF17
:10251000D82FCC27C46FD06AC3CFDC2FCC27C06F95
:10252000D06ABECF8C2F8F700E94571334E0D6959F
:10253000C7953A95E1F7CF709C2FEC01D069B0CFE9
:10254000972F7530A8F46E3098F470E02EE0929FCB
:10255000600D711D1124FB0196E4899FE00DF11DB2
:102560001124EE0FFF1FE45AFD4F859194910895B9
:1025700080E090E008950E94A0120E94A8110895A2
:1025800082389105B1F1B0F48133910509F475C039
:1025900048F48932910509F469C08A32910509F439
:1025A00073C008958533910509F459C089339105A5
:1025B00001F10895833E9105A9F138F4803E91051B
:1025C000F9F0823E910549F10895863E9105A9F101
:1025D000873E9105C9F1843E910519F52091970236
:1025E00021FF1FC08091960284FD14C087EE90E009
:1025F0000895209196022370A1F080EE90E0089556
:102600002091960220FD47C03091970230FF09C00B
:1026100024FF44C090E080E004C02091960222FD97
:10262000F7CF08952091960222FD3BC0309197028A
:1026300030FDE3CF24FFF5CFEDCF2091960223FFAD
:10264000F0CF24FDE7CFD2CF2091960223FD2CC0FE
:102650003091970231FFEECF84EE90E00895209103
:10266000960225FFDECF89E290E008952091960240
:1026700025FFD7CF85E390E008952091960226FFAD
:10268000D0CF8AE290E008952091960226FFC9CF2C
:1026900081E390E0089589E390E0089583EE90E06F
:1026A000089582EE90E0089586EE90E0089590916E
:1026B000960292FF06C0282F28712830F9F4877FF0
:1026C000846093FF06C0282F28712831F1F4877E9B
:1026D00084612091970220FF06C0382F387138306E
:1026E000D9F4877F816021FF06C0282F2871283107
:1026F000D1F4877E816194FD877E0895282F24710F
:102700002430F9F68B7F8860DCCF282F24712431A8
:1027100001F78B7E8861DDCF382F3171313019F7A9
:102720008E7F8860E0CF282F2171213121F78E7EA6
:102730008861E1CF80E008950E94201008950E94F2
:10274000B1142FEF86E791E0215080409040E1F7EF
:1027500000C000000E94B11480E00E94E61380FFD8
:1027600004C00E949C130E940A1C08950E949F139B
:1027700008950E942710811102C00E94D4100E9467
:102780003210809354020E943C10909397028093E1
:1027900096020E94B6130E943710682F70E090E0F6
:1027A00080E00E94870A6091BE017091BF01809114
:1027B000C0019091C1010E94C60A089508950E9427
:1027C000DE13089508950E94E2130895E82FF0E0C3
:1027D000EE0FFF1FEE55FD4F808191810895089502
:1027E00080EA8A95F1F7089500C008950E94F013D9
:1027F0000895F894E82FE295EF70F0E031A1282FCA
:102800002F7081E090E001C0880F2A95EAF7982F99
:102810009095932391A392A1892B82A378940895F4
:10282000CF93DF93C7E8D1E089918F3F11F00E94E9
:10283000F91381E0CC38D807B9F7C9E7D1E089911D
:102840008F3F11F00E94F91381E0C738D807B9F71C
:10285000DF91CF910895AF92BF92DF92EF92FF92F6
:102860000F931F93CF93DF938C01D62EC62FD0E00A
:10287000CE0189579E4F7C01FC0120812F3F09F436
:102880004DC0F894E22FE295EF70F0E031A12F7087
:1028900081E090E001C0880F2A95EAF7932F982BEA
:1028A00091A392A18095892382A378940E94F41326
:1028B000E9E7F1E047E851E021E030E0B12CA12C5C
:1028C00061916F3FA9F1A62FA295AF70B0E09096ED
:1028D0008C9190E06F7002C0959587956A95E2F7AC
:1028E00080FD26C0C901A82AB92A220F331F4E171E
:1028F0005F0731F7F70180818F3F11F00E94F913D4
:1029000061E0A114B10409F460E08D2D0E94F6137A
:10291000CC0FDD1FC00FD11FB982A882DF91CF91EC
:102920001F910F91FF90EF90DF90BF90AF900895AF
:1029300090E080E0D8CF0E9410148AE0E2EAF2E052
:10294000DF01982F1D929A95E9F7E8E9F2E0DF019F
:102950001D928A95E9F785E00E94ED140E947D059D
:102960000895AAE0B0E0E7EBF4E10C9430238E0187
:102970000F5F1F4F8AE0F80111928A95E9F7F12C59
:102980006F2DC8010E942B14F394F5E0FF12F8CFCD
:102990004AE050E0B80188E992E00E946E23FF24EB
:1029A000F394009709F4F12C892B41F08AE0F801A7
:1029B000A8E9B2E001900D928A95E1F72F2D45E04C
:1029C00062EA72E088E992E00E94EE140E948005BB
:1029D0008F2D2A96E5E00C944C230895FF920F93D7
:1029E0001F93CF93DF93F82E092F162FD72FC42FC5
:1029F000222349F081E0809357020E94BF1B9093ED
:102A0000560280935502809157028823A1F080914D
:102A10005502909156020E94D71B059760F0EF2D4A
:102A2000F02FA12FBD2F90E080E0D0E08C179D0704
:102A30003CF010925702CDB7DEB7E5E00C944C2382
:102A4000219131912D933D930196F0CF0E94E41D89
:102A50000E9413110E94F11D08950E94F61D0E940C
:102A6000A1110E94101E08950E94581B0E94CA1DA9
:102A70000E94F9100E9426150E942D150E9409112E
:102A8000FBCF80915E0280FF0DC06091070170E076
:102A9000660F771F6038710570F56115710569F172
:102AA000862F089581FF07C06091070184E0689F29
:102AB000B0011124EFCF6091070182FD0AC080911F
:102AC0005D028823A9F02091060160910701821719
:102AD00010F088E0ECCF869FC001112433E0880F0E
:102AE000991F3A95E1F7622F70E00E940923D2CF37
:102AF00068E070E0D5CF8FE7089581E00895809178
:102B00005E0280FF0CC06091030170E075956795CF
:102B1000759567956115710549F1862F089581FFB7
:102B200006C06091030170E075956795F3CF6091E1
:102B3000030182FD0BC090915C029923A1F060918A
:102B4000020180910301961738F0682F70E0603819
:102B5000710500F38FE70895899FC001112470E08B
:102B60000E940923F4CF61E070E0D7CF81E008959F
:102B7000FC01828181110EC0838181110BC084818F
:102B8000811108C091E08581811101C090E0892FF9
:102B90008170089581E0FCCF8D3E31F40E94411593
:102BA00081958093620208958E3E19F40E9441152A
:102BB000F8CF8F3E31F40E944115819580936102D8
:102BC0000895803F19F40E944115F8CF893F29F4F8
:102BD0000E947F158093630208958A3F21F40E942A
:102BE0007F158195F7CF8B3F31F40E947F1581953A
:102BF0008093640208958C3F19F40E947F15F8CFEA
:102C00009FE0980F983070F4815F990B21E030E0DD
:102C100001C0220F8A95EAF780916002822B80938F
:102C2000600208958D3F31F480915E02816080934F
:102C30005E0208958E3F21F480915E028260F7CF9C
:102C40008F3FB9F780915E028460F1CF40916102BD
:102C50008D3E59F48091620287FF0DC0109262028E
:102C600041110BC010925D0208C08E3E81F480912C
:102C7000620218169CF3442381F0809163029091C4
:102C80006402892B09F05AC010925C0208958F3EAD
:102C900049F447FFF0CF10926102809162028111E6
:102CA000ECCFE0CF803F19F41416ACF3E4CF909151
:102CB0006302893F29F41916F4F610926302DBCF00
:102CC0008A3F19F497FFD7CFF8CF909164028B3FDA
:102CD00029F497FFD0CF10926402CDCF8C3F19F426
:102CE0001916CCF3C8CF9FE0980F983090F4815F0D
:102CF000990B21E030E0B90102C0660F771F8A9579
:102D0000E2F7CB0180959091600289238093600265
:102D1000B2CF8D3F31F480915E028E7F80935E0250
:102D2000AACF8E3F21F480915E028D7FF7CF8F3F37
:102D300009F0A1CF80915E028B7FF0CF08950E94B1
:102D4000BF1B9C019091610280916202982B21F03F
:102D500030935B0220935A02909163028091640247
:102D6000982B21F030935902209358028FE592E07E
:102D70000E94131A0895A6E0B0E0E1ECF6E10C948D
:102D8000322386E0EFE5F2E0DE01119601900D922C
:102D90008A95E1F71092610210926202109263022A
:102DA000109264028B819C81892B89F080915A0258
:102DB00090915B020E94D71BAC0190915D02992318
:102DC000C9F1809108018417150608F440C08D816F
:102DD0009E81892B91F080915802909159020E9416
:102DE000D71BAC0190915C02992309F471C08091CA
:102DF00004018417150608F479C0BE016F5F7F4F88
:102E00008FE592E00E940F1B811105C08FE592E0D3
:102E10000E94B81581110E949F1686E0FE0131962E
:102E2000AFE5B2E001900D928A95E1F72696E3E0D6
:102E30000C944E23209109018AE0289F90011124CF
:102E40002417350720F69F5F90935D0202C09F3FD5
:102E5000D1F71B81112359F00E9441159FEF1116E4
:102E60000CF491E0899F802D1124809361021C81D4
:102E7000112359F00E9441159FEF11160CF491E0B7
:102E8000899F802D11248093620230916102332347
:102E900009F49DCF20916202222309F498CF45EBDB
:102EA0003403C0011124992359F09093610245EB3A
:102EB000240390011124332339F03093620287CF29
:102EC00081E080936102F3CF81E0809362027FCF43
:102ED000209105018AE0289F9001112424173507CD
:102EE00008F08BCF9F5F90935C0202C09F3FD1F7A9
:102EF0001D81112359F00E947F159FEF11160CF4CC
:102F000091E0899F802D1124809363021E811123FB
:102F100059F00E947F159FEF11160CF491E0899FE4
:102F2000802D11248093640230916302332309F4CD
:102F300064CF20916402222309F45FCF45EB340370
:102F4000C0011124992359F09093630245EB2403A7
:102F500090011124332339F0309364024ECF81E085
:102F600080936302F3CF81E08093640246CF86E0D2
:102F7000EFE5F2E0DF011D928A95E9F710925D021C
:102F800010925C0210925E020895CF93DF93EC01E1
:102F9000FB018281882309F433C1C430FDE5DF07DA
:102FA000C0F5CB3F9CE5D90730F49E0122503C454B
:102FB00024313105B0F50E943C1090939702809324
:102FC0009602C1318CE5D80709F4EEC008F069C05B
:102FD000C930ECE5DE0709F4D5C0C8F5C5308CE58D
:102FE000D80709F4C7C000F5C330ECE5DE0709F4E3
:102FF000B9C008F0BBC0C230DC4509F4ADC0809157
:103000009602909197020E944A100E94390A80E02D
:1030100008C0C336EDE5DE0771F2C73AFDE5DF070C
:1030200051F2DF91CF910895809196028062C7306E
:103030009CE5D90709F493C0809196028061C8305D
:10304000DC4508F48CC080919602806488C0809131
:1030500096028B7FCD30FCE5DF0709F480C098F441
:10306000809196028E7FCB309CE5D90709F477C01A
:10307000809196028C60CC30DC4508F470C0809161
:1030800096028D7F6CC0809196028F7ECF30FCE5DA
:10309000DF0709F464C008F47BC0809196028F7D3D
:1030A0005EC0CE3F9CE5D90709F47AC050F5C53122
:1030B000FCE5DF0709F486C098F480919602837FCF
:1030C000C3319CE5D90709F44AC008F471C00E94D5
:1030D000390A90919602892F97FB87F980583FC053
:1030E000CC3FFCE5DF0709F449C008F055C08091EA
:1030F00097028160CB3FDC4509F081CF8093970236
:103100007ECFC230EDE5DE0709F468C0A8F4C11532
:103110008DE5D80709F452C0809197028360C130D1
:10312000DD4560F380919702982F909591708E7F86
:10313000892B90FB81F9E2CFC336EDE5DE0709F478
:1031400051C0C73AFDE5DF0709F453C0C330DD4580
:1031500009F055CF80E043C0809196028160809352
:1031600096024DCF809196028260F9CF80919602AF
:103170008460F5CF809196028860F1CF80919702AC
:103180008260BCCF0E94390A809196028068E7CFA6
:1031900080919602877FE3CF809197028E7FAECF9A
:1031A000809197028D7FAACF809196028F7BD7CF97
:1031B0000E94390A809196028F77D1CF8091970231
:1031C0008C7F9CCF8091960282FB992790F921E019
:1031D000922790FB82F990FB83F9C1CF81E00E9496
:1031E000D7100DCF90919602892F8F7E94FF80612A
:1031F000B6CF90919602892F8E7F90FF8160AFCFDE
:1032000081E00FCFCF93DF93EB0186319C4511F521
:103210000E94390F9A81992399F08A7A91E009F4F2
:1032200090E090936502811109C089E20E94110F1C
:103230000E947A0F80E0DF91CF91089585E3F6CF69
:1032400080916502811104C089E20E94190FF0CFBC
:1032500085E3FBCF81E0EFCF0F931F93CF93DF93F5
:10326000C42FD22FFC0182818823C9F040936802C9
:103270000E94BF1B909367028093660280E28C0FCE
:10328000883040F4C77081E001C0880FCA95EAF722
:103290000E94C407DF91CF911F910F910895109163
:1032A0006802141332C080916602909167020E94F6
:1032B000D71B8D37910548F5C0E2CD0F1D17B9F02A
:1032C00080E2810F883040F4177081E001C0880FE0
:1032D0001A95EAF70E94CB07C83048F481E09D2F89
:1032E000977001C0880F9A95EAF70E94C407802F53
:1032F0000E94BB07C83070F6D77081E001C0880F0C
:10330000DA95EAF70E94CB07C5CF80E28C0F8830B0
:1033100008F6C77081E001C0880FCA95EAF7F2CFBE
:103320000F939C01CB01243F4CE5340759F1A8F4DD
:10333000293DFCE53F0701F12A3D4CE53407D1F179
:10334000283D3C4591F406E221EE41EE68ED7CE536
:103350000E942C1980E00F910895263FFCE53F075D
:10336000E9F0B0F0273F3C45F9F0FC018281882369
:1033700039F110926802EFCF07E225EE45EE69EDD4
:103380007CE5E6CF06E221EE40EE64EF7CE5E0CF9F
:1033900007E225EE44EE65EF7CE5DACF06E221EEAA
:1033A00042EE66EF7CE5D4CF07E225EE46EE67EF0E
:1033B0007CE5CECF08E221E045EE6AED7CE5C8CFA2
:1033C00081E0C9CF90938D0180938C0108959093F3
:1033D0006E0280936D020895E0916D02F0916E028D
:1033E000309729F00190F081E02D0995089580E053
:1033F0000895E0916D02F0916E02309799F020915E
:103400001601222359F02091960227FF07C0DC0104
:103410002C9111962C93119726E02C930280F38126
:10342000E02D09950895E0916D02F0916E023097BC
:1034300039F022E0DC012C930480F581E02D099520
:10344000089520916B0230916C022817390771F0B2
:1034500090936C0280936B02E0916D02F0916E028A
:10346000309721F00680F781E02D0995089520918D
:10347000690230916A022817390771F090936A0245
:1034800080936902E0916D02F0916E02309721F015
:103490000084F185E02D09950895FC013296809114
:1034A0001601882321F0809196029EE187FF96E025
:1034B00080E0915008F4089521912223D1F38F5F89
:1034C000F8CF662301F1209116012223F1F020911B
:1034D000960227FF1AC0462F4695469546954E31CF
:1034E00090F4677021E030E002C0220F331F6A952C
:1034F000E2F7840F911DFC01828190E0282339239B
:1035000081E0232B69F480E00895FC01329608964F
:103510002191261721F0E817F907D1F7F4CF81E0C0
:1035200008959C01FC0132969FEF80E0419146177F
:1035300051F09F3F19F4411101C0982F8F5F8630E1
:10354000A9F79F3F09F40895290F311D97FD3A957A
:10355000F90162830895FC013296089621912613A1
:1035600003C0DF0111971C92E817F907B9F7089516
:10357000E62FE695E695E695EE3168F4E80FF92F2B
:10358000F11D677021E030E001C0220F6A95EAF773
:103590008281822B82830895E62FE695E695E69553
:1035A000EE3170F4E80FF92FF11D677021E030E083
:1035B00001C0220F6A95EAF7209582812823228391
:1035C000089520911601222339F02091960227FFB9
:1035D00003C00E94B81A08950E94911A089520917C
:1035E0001601222339F02091960227FF03C00E9482
:1035F000CC1A08950E94AB1A0895FC01329680916E
:103600001601882351F08091960287FF06C08EE153
:10361000DF011D928A95E9F7089586E0F9CF46E02B
:1036200050E00E946E2321E0892B09F420E0822FD4
:10363000089508950E94191B0895811106C081E024
:1036400080936F020E941A1B089582E0F9CF83E0F5
:1036500080936F020E941A1B08950E941D1B0895FB
:1036600081E080936F020E941A1B08950E94301B14
:103670000895089508950E943A1B089508950895A5
:103680000E94391B0895CF930E943E1B0E94B114E3
:103690000E943F1BC0E08C2F0E94E613892B31F45F
:1036A000CF5FC530C1F780E0CF91089581E0FCCFB6
:1036B00085B7806885BF85B7806885BF08951F92EC
:1036C0001FB61F9211248F939F93AF93BF93809146
:1036D0007002811113C08091AC029091AD02A09153
:1036E000AE02B091AF024196A11DB11D8093AC0214
:1036F0009093AD02A093AE02B093AF02BF91AF9191
:103700009F918F911F901FBE1F9018958091B402BA
:10371000843031F10E94F0051092700288E190E04F
:1037200020E40FB6F894A895809360000FBE209314
:10373000600083B7817F846083BF83B7816083BF6C
:103740007894889583B78E7F83BF0FB6F894A89539
:1037500080916000886180936000109260000FBECD
:1037600008950E94390A0E94F505089582E084BDFB
:1037700093E095BD9AEF97BD80936E0008952FB7A3
:10378000F8948091AC029091AD02A091AE02B091FC
:10379000AF022FBF08952FB7F8946091AC027091DB
:1037A000AD028091AE029091AF022FBF08959C01AF
:1037B0004FB7F8948091AC029091AD02A091AE0207
:1037C000B091AF024FBF821B930B089578941F9264
:1037D0001FB61F9211248F939F93AF93BF93809135
:1037E000AC029091AD02A091AE02B091AF020196F1
:1037F000A11DB11D8093AC029093AD02A093AE02C7
:10380000B093AF02BF91AF919F918F911F901FBE58
:103810001F90189581E08093E00080E28093D800AB
:103820001092C9008FE19EE40197F1F700C00000FB
:1038300087E090EBDC018093BD029093BE02A093E1
:10384000BF02B093C00288E19CE00FB6F894A8953F
:10385000809360000FBE90936000FFCF88E19CE0F2
:103860000FB6F894A895809360000FBE9093600007
:10387000FFCF80919402089508959C0182E0809387
:10388000E9009FEF8091E800915085FD06C085ED2D
:103890008A95F1F700009111F5CF8091E80085FF3E
:1038A0000CC050E040E066E070E0C9010E94821E5A
:1038B0008091E8008E778093E8000895CF93DF939E
:1038C000EC01809116018823B1F18091960287FF67
:1038D00032C060E282E08093E9008FEF9091E800CF
:1038E000815095FD06C095ED9A95F1F70000811184
:1038F000F5CF8091E80085FF1BC08091160170E034
:1039000050E040E0811104C050E040E068E070E029
:10391000CE010E94821E8091E8008E778093E8009D
:1039200080E2FE01A4E7B2E001900D928A95E1F7F2
:10393000DF91CF91089568E081E0CDCF809371024F
:1039400070937302609372028091B402843001F527
:1039500082E08093E9008FEF9091E800815095FD1F
:1039600006C095ED9A95F1F700008111F5CF809191
:10397000E80085FF0DC050E040E063E070E081E7C3
:1039800092E00E94821E8091E8008E778093E8008A
:103990000895BC0184E00E949E1C0895BC0183E050
:1039A0000E949E1C08958091B302811109C00E945B
:1039B00012200E946F208091E20084608093E200D8
:1039C00008951092B30208950E94301B08956091EB
:1039D000B00281E0611101C080E00E94271B0895C0
:1039E0009091B40281E0943009F080E06091B002DF
:1039F0000E942D1B089542E061EC81E00E948E1F21
:103A000042E261EC82E00E948E1F9091B40281E05C
:103A1000943009F080E06091B0020E941D1B08956F
:103A20008091B602833009F461C030F48130D1F165
:103A3000823009F49EC008958A3009F48AC08B3020
:103A400009F46FC0893009F050C08091B50281320D
:103A500009F04BC08091B9029091BA02029708F028
:103A600044C08091E800877F8093E8008091E8005F
:103A700082FF37C09091F3008091F200029731F4F9
:103A80008091F100813011F0863021F48091F100B5
:103A9000809394028091E8008B778093E8000E94E5
:103AA000C21F23C08091B502813AF9F48091E800E9
:103AB000877F8093E8008091B9029091BA02892BA8
:103AC00061F460E284E792E070E00E94D11E809190
:103AD000E8008B778093E800089560E090E080E054
:103AE000F3CF8091B4028111C1CF08958091B502C6
:103AF000813AD9F78091B9029091BA02892BA9F73E
:103B00008091E800877F8093E8008091E80080FF43
:103B1000FCCF809116018093F1008091E8008E77B0
:103B2000BCCF8091B502813201F78091B9029091AA
:103B3000BA02892BD1F68091E800877F8093E80054
:103B40000E94C21F8091B702809316010E94390A19
:103B500008958091B502813241F68091E800877F17
:103B60008093E8000E94C21F8091B8028093950262
:103B700008958091B502813A09F0B7CF8091E800AD
:103B8000877F8093E8008091E80080FFFCCF8091E0
:103B90009502C1CF84B7877F84BF0FB6F894A895EC
:103BA00080916000886180936000109260000FBE79
:103BB00080E890E00FB6F8948093610090936100E4
:103BC0000FBE0E94361B08950E9412200E946F2093
:103BD000E2EEF0E080818460808378940E94EE229F
:103BE00008958AE091E00E94E71908958091B40257
:103BF000853031F48091B402853019F00E94B11BF8
:103C000008950E94861B8091B202882399F30E9436
:103C1000431B882379F30E946C1E0E94390AEACF65
:103C200008950E94141E0895292F3327233031054B
:103C300019F168F42130310509F444C0223031050E
:103C400009F445C090E080E030E020E025C021325A
:103C5000310549F122323105A9F780E490E025E9E8
:103C600037E061157105C1F086EB90E02FED36E08D
:103C70006130710589F0E6CF99278130910581F097
:103C8000009729F00297F1F6E4E5F6E002C0EEE8CD
:103C9000F6E0849190E09F01FA013183208308953A
:103CA000EAE6F6E0F6CF89E090E024EA36E0611536
:103CB000710591F389E090E02DEB36E061307105FC
:103CC00059F3C0CF82E190E02DEC36E0E5CF8BE3F5
:103CD00090E022E936E0E0CF80E189BD82E189BD54
:103CE00009B400FEFDCF8091D8008F7D8093D8006D
:103CF0008091E00082608093E0008091E00081FD8F
:103D0000FCCF0895AF92BF92CF92DF92FF920F93B4
:103D10001F93CF93DF936C01EB018A010E94E11F97
:103D2000F82E811123C00115110539F0F8018081A9
:103D30009181C81BD90BC80ED91EB12CA12C20977C
:103D4000A9F08091E80085FD22C08091E8008E777F
:103D50008093E80001151105A1F0F801808191819F
:103D6000A80EB91EB182A08285E0F82E8F2DDF91BA
:103D7000CF911F910F91FF90DF90CF90BF90AF90A8
:103D800008950E94E11F8823D1F2F82EEFCFF601AB
:103D900081916F018093F1002197FFEFAF1ABF0A65
:103DA000CECFFC018091BB029091BC028617970791
:103DB000A0F06115710529F49091E8009E77909329
:103DC000E80090E06115710551F4911108C08091EF
:103DD000E80082FF34C080E00895BC01F2CF8091FA
:103DE000B4028823C1F18530C1F18091E80083FDE0
:103DF00030C08091E80082FDEACF8091E80080FF2A
:103E0000E1CF8091F3002091F200382F6115710508
:103E100019F02830310558F091E02830310509F0CB
:103E200090E02091E8002E772093E800CBCF81919D
:103E30008093F100615071092F5F3F4FE7CF809170
:103E4000B402882341F0853041F08091E80083FF7F
:103E5000BECF81E0089582E0089583E00895FC01DB
:103E60008091BB029091BC0286179707A0F0611564
:103E7000710529F48091E8008E778093E80090E046
:103E80006115710551F4911108C08091E80082FF1D
:103E900035C080E00895BC01F2CF8091B402882340
:103EA000C9F18530C9F18091E80083FD31C080916E
:103EB000E80082FDEACF8091E80080FFE1CF8091A9
:103EC000F3002091F200382F6115710519F02830A8
:103ED000310558F091E02830310509F090E08091EB
:103EE000E8008E778093E800CBCF84918093F10037
:103EF0003196615071092F5F3F4FE6CF8091B40238
:103F0000882341F0853041F08091E80083FFBDCFE8
:103F100081E0089582E0089583E00895982F973016
:103F200028F08F708093E90081E008959093E90074
:103F3000242F762F50E0981731F07091EC002091EB
:103F4000ED005091F00021FD02C09F5FE8CF30915D
:103F5000EB003E7F3093EB003091ED003D7F3093DE
:103F6000ED003091EB0031603093EB007093EC008A
:103F70002093ED005093F0002091EE0027FDE5CF57
:103F800080E008958091B50287FF13C08091E8001A
:103F900082FF06C08091E8008B778093E80004C020
:103FA0008091B4028111F2CF08958091B4028823E8
:103FB000D9F38091E80080FFF8CF8091E8008E77F8
:103FC000ECCF2091E4003091E50095E6A901209125
:103FD000EC00822F817020FF06C08091E80080FFF6
:103FE00006C080E008952091E80022FD1AC080916B
:103FF000B402882389F0853089F08091EB0085FD3B
:104000000FC02091E4003091E50042175307F9F208
:104010009150E1F684E0089582E0089583E00895E8
:1040200081E008950E9481200E948920E0EEF0E066
:10403000808181608083E8EDF0E080818F778083EC
:1040400019BCA7EDB0E08C918E7F8C9380818F7E20
:1040500080831092B30208950F931F93CF93DF9341
:104060000E9481200E948920C8EDD0E088818F774E
:10407000888388818068888388818F7D888319BC44
:104080001092B4021092B0021092B2021092B102D9
:1040900000EE10E0F80180818B7F80838881816051
:1040A000888342E060E080E00E948E1FE1EEF0E055
:1040B00080818E7F8083E2EEF0E08081816080836A
:1040C000808188608083F80180818E7F80838881F1
:1040D00080618883DF91CF911F910F910895E8ED62
:1040E000F0E080818F7E8083E7EDF0E08081816069
:1040F000808384E082BF81E08093B3020E942C2001
:104100000895E8EDF0E080818E7F80831092E200D8
:1041100008951092DA001092E10008951F920F9214
:104120000FB60F9211242F933F934F935F936F938A
:104130007F938F939F93AF93BF93EF93FF93809160
:10414000E10082FF0BC08091E20082FF07C08091F6
:10415000E1008B7F8093E1000E94ED228091DA00E4
:1041600080FF19C08091D80080FF15C08091DA00CF
:104170008E7F8093DA008091D90080FF96C080E125
:1041800089BD82E189BD09B400FEFDCF81E0809345
:10419000B4020E94D31C8091E10080FF19C080917D
:1041A000E20080FF15C08091E2008E7F8093E200E4
:1041B0008091E20080618093E2008091D80080626B
:1041C0008093D80019BC85E08093B4020E94E71C5C
:1041D0008091E10084FF2BC08091E20084FF27C022
:1041E00080E189BD82E189BD89B5982F917080FFFA
:1041F000FBCF8091D8008F7D8093D8008091E10023
:104200008F7E8093E1008091E2008F7E8093E200B8
:104210008091E20081608093E2008091B002882367
:1042200009F449C084E08093B4020E94F01C80919C
:10423000E10083FF29C08091E20083FF25C08091C7
:10424000E100877F8093E10082E08093B4021092C6
:10425000B0028091E1008E7F8093E1008091E200C6
:104260008E7F8093E2008091E20080618093E20083
:1042700042E060E080E00E948E1F8091F000886044
:104280008093F0000E94E41CFF91EF91BF91AF91E9
:104290009F918F917F916F915F914F913F912F915E
:1042A0000F900FBE0F901F90189519BC1092B4027A
:1042B0000E94E11C70CF8091E30087FD93E0909312
:1042C000B402B3CF1F920F920FB60F9211242F9307
:1042D0003F934F935F936F937F938F939F93AF938E
:1042E000BF93CF93DF93EF93FF93D091E900DF70FB
:1042F0008091EC00C82FC17080FDC0E81092E900E9
:104300008091F000877F8093F00078940E94A6212E
:104310001092E9008091F00088608093F000CD2B2E
:10432000CF70C093E900FF91EF91DF91CF91BF91E2
:10433000AF919F918F917F916F915F914F913F913D
:104340002F910F900FBE0F901F901895AAE2B0E02A
:10435000ECEAF1E20C94322385EB92E02091F1003B
:10436000FC012193CF01F2E08D3B9F07B9F70E943A
:10437000101D8091E80083FF1EC18091B5029091CD
:10438000B6029A3008F017C1E92FF0E0E553FC4D72
:104390000C941D23803899F0823809F00CC180916B
:1043A000B9028F70873008F006C18093E9008091D0
:1043B000EB0085FB882780F91092E90006C0809108
:1043C000B1029091B202911182609091E800977FC2
:1043D0009093E8008093F1001092F1008091E80042
:1043E0008E77E5C0882309F4D3C0823009F0E3C09A
:1043F0008091B7028111D6C08091B9028F702FEFE2
:10440000280F263008F0D7C08093E9002091EB00F8
:1044100020FFC8C0933031F48091EB00806280931C
:10442000EB00C0C09091EB0090619093EB0021E015
:1044300030E001C0220F8A95EAF72093EA0010923B
:10444000EA008091EB008860EACF8111B4C010913E
:10445000B7021F778091E3008078812B8093E3007F
:104460008091E800877F8093E8000E94C21F8091BE
:10447000E80080FFFCCF8091E30080688093E30038
:1044800082E0111183E08093B40295C0805882309D
:1044900008F091C08091B7029091B8028C3D23E062
:1044A0009207A1F583E08A838AE289834FB7F89463
:1044B000DE01139620E03EE051E2E32FF0E050935E
:1044C0005700E49120FF03C0E295EF703F5FEF706B
:1044D0008E2F90E0EA30C0F0C7968D939D932F5FAA
:1044E000243159F74FBF8091E800877F8093E8001F
:1044F0006AE270E0CE0101960E94D11E8091E80030
:104500008B778093E80057C0C096E7CF6091B902DF
:104510007091BA02AE014F5F5F4F0E94111EBC0145
:10452000892B09F448C09091E800977F9093E800A8
:1045300089819A810E942F1FE1CF8038E1F5809117
:10454000E800877F8093E8008091B0028093F100BB
:1045500045CF811130C09091B702923060F58091C3
:10456000E800877F8093E8009093B0020E94C21F0A
:104570008091B002882311F084E005C08091E300AF
:1045800087FDFACF81E08093B4020E94FB1C13C028
:104590008091B702813079F481E0933009F080E0B6
:1045A0008093B2021092E9008091E800877F8093A7
:1045B000E8000E94C21F8091E80083FF0AC080913A
:1045C000E800877F8093E8008091EB008062809311
:1045D000EB00AA96E3E00C944E230895CF938091CC
:1045E000B4028823A1F0C091E900CF709091EC0053
:1045F000892F817090FD80E8C82B1092E90080918E
:10460000E80083FD0E94A621CF70C093E900CF91FE
:10461000089597FB072E16F4009407D077FD09D074
:104620000E945A2307FC05D03EF4909581959F4F38
:104630000895709561957F4F0895EE0FFF1F0590C7
:10464000F491E02D09942F923F924F925F926F92D6
:104650007F928F929F92AF92BF92CF92DF92EF9212
:10466000FF920F931F93CF93DF93CDB7DEB7CA1B93
:10467000DB0B0FB6F894DEBF0FBECDBF09942A88BE
:10468000398848885F846E847D848C849B84AA8466
:10469000B984C884DF80EE80FD800C811B81AA81F3
:1046A000B981CE0FD11D0FB6F894DEBF0FBECDBFBE
:1046B000ED010895AA1BBB1B51E107C0AA1FBB1F38
:1046C000A617B70710F0A61BB70B881F991F5A959E
:1046D000A9F780959095BC01CD010895FB01DC01FF
:1046E00004C08D910190801921F441505040C8F7C9
:1046F000881B990B0895F999FECF92BD81BDF89A58
:10470000992780B50895A8E1B0E042E050E00C940C
:10471000AF23262FF999FECF92BD81BDF89A01975C
:1047200000B4021639F01FBA20BD0FB6F894FA9AF9
:10473000F99A0FBE08950396272F0E948A230E949C
:104740008923252F0E948A23242F0C948A230196E3
:10475000272F0E948A230C948923DC01CB01FC01C2
:10476000F999FECF06C0F2BDE1BDF89A319600B4CA
:104770000D9241505040B8F70895F894FFCF0B08C0
:104780000B085B085B08C008DC083A083A08E70831
:10479000730982098209CA21F221DB22F221DB227C
:0A47A00025224622DB229D22A922D9
:1047AA002002280850011E051901391C5E1C3D1CF7
:1047BA00CE1CC91C3C1C01E200E900EA00B500B6A7
:1047CA0000B700CD008301CC008A01920194012137
:1047DA0002230224022502260227022A02B300B477
:1047EA00006F007000818283E200E900EA00B500F0
:1047FA00B600B700CD008301CC008A019201940172
:10480A002102230224022502260227022A02B300D9
:10481A00B4006F007000818283F46797343536667E
:0C482A0096949593929190F1F5C6F7F6E4
:00000001FF
